:020000040800F2
:1000000028B400205D020008C7530008E34400083C
:10001000C5530008710D0008D98E000800000000CB
:10002000000000000000000000000000D75300089E
:10003000010E000800000000D5530008D953000845
:1000400077020008770200087702000877020008AC
:10005000770200087702000877020008770200089C
:10006000770200087702000877020008770200088C
:10007000770200087702000877020008770200087C
:10008000770200087702000877020008770200086C
:10009000770200087702000877020008770200085C
:1000A000770200087702000877020008770200084C
:1000B000770200087702000877020008770200083C
:1000C000770200087702000877020008770200082C
:1000D000770200087702000877020008770200081C
:1000E000770200087702000877020008770200080C
:1000F00077020008770200087702000877020008FC
:1001000077020008770200087702000877020008EB
:1001100077020008770200082155000877020008DE
:1001200077020008770200087702000877020008CB
:1001300077020008770200087702000877020008BB
:10014000770200087702000877020008C953000808
:10015000770200087702000877020008770200089B
:10016000770200087702000877020008770200088B
:1001700077020008770200087702000800000000FC
:10018000770200087702000800F002F800F056F845
:100190000AA090E8000C82448344AAF10107DA45E2
:1001A00001D100F04BF8AFF2090EBAE80F0013F0DE
:1001B000010F18BFFB1A43F001031847FCEF0000C2
:1001C0001CF00000103A24BF78C878C1FAD8520752
:1001D00024BF30C830C144BF04680C6070470000C1
:1001E0000023002400250026103A28BF78C1FBD840
:1001F000520728BF30C148BF0B607047642900F028
:100200007D81752900F07A81782900F0B381632916
:1002100000F05984732900F05E84002070471FB5F8
:100220000EF0C1F90248034900F096FB1FBD000023
:10023000287400202894002010B510BDDFF80CD0E1
:10024000FFF7EDFF0DF094FA00F0AAFC28B40020AF
:1002500003B4FFF7F1FF03BC08F0C7FE0648804770
:1002600006480047FEE7FEE7FEE7FEE7FEE7FEE79B
:10027000FEE7FEE7FEE7FEE71155000889010008EA
:10028000704770B5064600F04BFB056806F10B00A1
:1002900020F00704B4429CBF002070BD2B466A6862
:1002A000BAB11068A04210D304F1080188423CBFE3
:1002B0005068586007D35168101941601168091BD4
:1002C000016058601460101D70BD13465268002A0A
:1002D000E7D12146284600F02BFB0028DED170BD77
:1002E00070B50446051F00F01BFB0068002C14BF0E
:1002F000446870BD002C18BFAC423CBF2046646807
:10030000F8D301680A18AA4218BF456003D12A68C9
:1003100005461144016028684119A1421CBF6C6068
:1003200070BD6168696021680844286070BD53EA47
:10033000020C00F069802DE9F04B4FF00006002B15
:100340001FBFB3FA83F503FA05F424FA05F65E40FD
:1003500012BF1643B2FA82F502FA05F4C5F1200580
:100360001EBF22FA05FC44EA0C04203556EA044C70
:100370004FEA144418BF641C4FF000084FF0000906
:10038000904271EB030C39D3002919BFB1FA81F700
:1003900001FA07F6B0FA80F700FA07F6C7F120076E
:1003A0001EBF20FA07FC46EA0C062037B6FBF4FC19
:1003B000A7EB0507103F07F01F0BCBF120060CFA47
:1003C0000BFB2CFA06F644BFB3460026202FA4BF31
:1003D0005E464FF0000B5BEA060C08BF4FF0010BC6
:1003E00019EB0B09ABFB027C48EB0608C01B06FBB4
:1003F00002CC0BFB03CC71EB0C01C1E70B460246B0
:1004000041464846BDE8F08B13B54FF000004FF071
:100410000001AFF30080BDE81C4070470FB40449F1
:1004200010B503AA029800F05BFB10BC5DF814FB4A
:10043000CC0000200FB41CB5074B06AA7B446946CC
:100440000090059800F01DFB0020694600F02CFB91
:100450001CBC5DF814FB00006906000070B5044682
:1004600085690068C10601D5302600E02026C00756
:1004700007D070BDD4E9012130469047206A401C66
:1004800020626D1EF6D570BD70B504468569007892
:10049000C00707D170BDD4E9012120209047206A10
:1004A000401C20626D1EF6D570BD70B50C46054629
:1004B000012A05D02878800600D5EA69002302E0E9
:1004C000012305E05B1C934202D2E05C0028F9D1D5
:1004D000A869E618C01AA861286A18442862284644
:1004E000FFF7BCFF04E0D5E9012114F8010B9047A8
:1004F000B442F8D32846FFF7C7FF70BD2DE9F0419D
:100500000646002410687529314616A510D0AFF3B1
:100510000080002802DA404213A507E031688A070C
:1005200001D512A502E0490704D511A5012401E077
:10053000AFF3008000210A2206F1240709E0B0FB96
:10054000F2FCB0FBF2F302FB1C003030785418468A
:10055000491C0028F3D123462A463046BDE8F04125
:1005600000F030BA000000002D0000002B00000059
:100570002000000070B504460D4621461068AFF318
:1005800000802188090502D50F4A7A4402E00E4A0C
:100590007A440E32002104F1240305E000F00F0636
:1005A0000009965D5E54491C0028F7D1207800238D
:1005B000000704D5702D02D009B102231132204664
:1005C000BDE8704000F0FEB98AEA00002DE9F05F56
:1005D000894604464FF0000ADFF824B1FB44C0F816
:1005E00020A02046E168884700287DD0252806D035
:1005F000D4E901219047206A401C2062F1E70025E0
:100600005F462046E16888472028064607DB312EF2
:1006100005D2B81910F8200C08B10543F1E7A80776
:1006200001D525F00405C4F81CA00027C4F818A0C3
:100630002A2E09D0304608F0D1FC38B304EB8708E5
:10064000303EC8F8186019E059F8041B204604EB46
:1006500087029161E1688847012F064618D1E06959
:10066000002820DA25F020051DE0D8F8180000EB5E
:10067000800006EB40003038C8F818002046E168DA
:100680008847064608F0AAFC0028EED1012F0AD0C0
:100690002E2E08D12046E16888477F1C0646022F8F
:1006A00045F02005C4DBA069002803DA404245F08C
:1006B0000105A061E80701D025F01005A6B1A6F15B
:1006C0004100192802D8203645F400654A463146D3
:1006D000204625604D46FFF791FD60B1012807D007
:1006E000ED1D25F0070000E007E000F1080978E7BC
:1006F00005F1040975E730467AE7206ABDE8F09F06
:1007000060EA0000401ECAB210F8011F8A4202D0FF
:100710000029F9D10020704740EA0103024630B5B4
:100720009B0710D14FF0013400E008C208C91D1B1F
:100730009D4315EAC41FF8D013F0FF0102F8011B16
:100740000DD01B0AF8E711F8013B002B02F8013B22
:1007500005D011F8013B002B02F8013BF3D130BD6D
:1007600010B5431C02E010F8011B71B18107FAD1EA
:100770004FF0013202C88C1A8C4314EAC211F9D02E
:10078000C01A0A0603D0C01E10BDC01A10BD0A044C
:1007900001D0801E10BD0902FCD0401E10BD032AEE
:1007A00040F2308010F0030C00F0158011F8013B8E
:1007B000BCF1020F624498BF11F801CB00F8013B75
:1007C00038BF11F8013BA2F1040298BF00F801CB39
:1007D00038BF00F8013B11F0030300F02580083A10
:1007E000C0F0088051F8043B083A51F804CBA0E867
:1007F0000810F5E7121D5CBF51F8043B40F8043BBC
:10080000AFF30080D20724BF11F8013B11F801CBF0
:1008100048BF11F8012B24BF00F8013B00F801CBC1
:1008200048BF00F8012B704710B5203AC0F00B808C
:10083000B1E81850203AA0E81850B1E81850A0E8E4
:100840001850BFF4F5AF5FEA027C24BFB1E818503E
:10085000A0E8185044BF18C918C0BDE810405FEAAE
:10086000827C24BF51F8043B40F8043B08BF70472A
:10087000D20728BF31F8023B48BF11F8012B28BF2F
:1008800020F8023B48BF00F8012B70474FF00002F0
:100890000429C0F0128010F0030C00F01B80CCF192
:1008A000040CBCF1020F18BF00F8012BA8BF20F800
:1008B000022BA1EB0C0100F00DB85FEAC17C24BF54
:1008C00000F8012B00F8012B48BF00F8012B7047FE
:1008D0004FF0000200B5134694469646203922BFD9
:1008E000A0E80C50A0E80C50B1F12001BFF4F7AF24
:1008F000090728BFA0E80C5048BF0CC05DF804EB06
:10090000890028BF40F8042B08BF704748BF20F873
:10091000022B11F0804F18BF00F8012B7047000028
:1009200000487047CC73002070477047704770478D
:1009300038B504460A460020694600F014F900283C
:1009400008BF38BD02460099204600F0DBF80120C0
:1009500038BD012000F0F4B8F8B500F0F9F805460C
:1009600000200C46102000BF0646A819A0420DD951
:1009700032466946002000F0F6F8070008BF00F094
:10098000DFF80098A04218BF0546C419FFF7C8FF5A
:1009900005600746F01D20F007004619284600F0C4
:1009A0000AF8B44208BFF8BDA21B31463868BDE85A
:1009B000F84000F0A7B800210160C0E901107047BD
:1009C000102070472DE9F0470D469946924604469F
:1009D00000F124080168880604D5E06921F01001BF
:1009E000216000E00120A84201DD471B00E0002754
:1009F000A1697A1902EB0900081AA0612078C006E3
:100A000002D42046FFF72AFD002608E0D4E90121A0
:100A10001AF806009047206A401C761C20624E455A
:100A2000F4DB2078C0060AD52046FFF717FD06E064
:100A3000D4E9012130209047206A401C2062381EF2
:100A4000A7F10107F4DC07E0D4E9012118F805005B
:100A50009047206A401C2062281EA5F10105F3DCA6
:100A60002046FFF711FD2078000602D50220BDE8E0
:100A7000F0870120FBE7000001694A1C0261087849
:100A8000704700B58FB0CDE90131002105910549CE
:100A90007944CDE9031011466846FFF797FD0FB082
:100AA00000BD0000E5FFFFFF0A6802F8010B0A60C5
:100AB000704710B5436913B1AFF3008001E0FFF751
:100AC000F4FC012010BD127800F124010A7000220C
:100AD0004A700122EDE711684FF0FF32E9E70000AC
:100AE000074B70B50D467B44FFF7CBFF0446284605
:100AF00000F022F810B14FF0FF3070BD204670BDFD
:100B00002FC30000034640688C46002818BF884267
:100B10003CBF03464068F8D318681844884207D0A1
:100B20000CF1030020F00700001D411A521A014683
:100B3000081D0A60FFF7D4BB007B00F080007047FF
:100B400010B500F03BF8BDE8104000F032B80000EE
:100B5000124B694600F580528A421A6001D811464C
:100B600070471960704730B50C4D6B46A3F5805344
:100B70002C6822449A420FD89B1A02F5805003EB4E
:100B8000D37302EB6303984200D91846C01D20F0CE
:100B900007020C60101B2A6030BD0000D800002046
:100BA00010B50446AFF300802046BDE81040FFF7C3
:100BB0004FBB002801D008F018BA704710B50128C3
:100BC00005D0002103A000F021F8012010BD09A1EB
:100BD000F8E7000053494752544D454D3A204F75B0
:100BE00074206F662068656170206D656D6F727925
:100BF000000000003A2048656170206D656D6F72DD
:100C00007920636F727275707465640070B5054603
:100C10000C460A2000E06D1C08F0E8F935B1287890
:100C20000028F8D102E0641C08F0E0F914B1207843
:100C30000028F8D1BDE870400A2008F0D7B90000BC
:100C40004A494A6822F440324A604A6843681A4373
:100C50004A6001684A6822F480724A6001684A6802
:100C6000036942EA03224A6001684A6822F040723E
:100C70004A6001684A6883681A434A6001688A6862
:100C800022F400628A6001688A68C3681A438A6035
:100C9000816A6FF07062D14214D001688A6822F0D4
:100CA00070628A6001688A68836A1A438A60016890
:100CB0008A6822F040528A6001688A68C36A1A43CF
:100CC0008A6009E001688A6822F070628A600168BF
:100CD0008A6822F040528A6001688A6822F0020223
:100CE0008A6001688A68037E42EA43028A6090F85B
:100CF000201089B101684A6842F400624A600168C4
:100D00004A6822F460424A6001684B68426A521E97
:100D100043EA42324A6004E001684A6822F4006211
:100D20004A600168CA6A22F47002CA620168CB6A2A
:100D3000828B521E43EA0252CA6201688A6822F418
:100D400000728A6001688A6890F8303042EA432273
:100D50008A6001688A6822F480628A6001688A6811
:100D6000406942EA8020886070470000002301400B
:100D7000FEE700000A4601464FF6FF73014802F005
:100D80001CBF00004004002070B504460020002273
:100D900004EB8001C1F88423401C1028F8D3002004
:100DA0004FF40075211881F81C21401CA842F9D38A
:100DB000227062700120A070C4F8C4232076402104
:100DC000A171627684F81C2384F81D0384F81F2324
:100DD00084F81E23010204F11C00FFF779FD294667
:100DE00004F58E70FFF774FD122104F22630FFF730
:100DF0004DFD3E2104F54E70FFF76AFD002070BDE9
:100E0000704772B6FEE70022AFF3008030B50446AB
:100E100001200D4B5D7A002D14D1587A1D54587A5B
:100E200003EB800044605C7A03F108002254587A96
:100E3000421C5A72303008703A2048702F20887057
:100E4000CD70002030BD0000281D002000220029A8
:100E500005D001291AD002291BD04FF440720E4947
:100E60000B6823F440730B600B6813430B600A6834
:100E700022F078020A600A68022303EBC0000243F2
:100E80000A60086840F48030086070474FF4807250
:100E9000E5E74FF40072E2E7103C024013480168B6
:100EA00089050FD5016821F400710160016841F4E2
:100EB00000610160016821F400610160016841F492
:100EC00000710160016849050FD5016821F4806156
:100ED0000160016841F480510160016821F4805192
:100EE0000160016841F4806101607047003C02408C
:100EF00010B50E4800F022F80D4C20600D4800F0AF
:100F00001DF82168401A401C60600B4A00231360E2
:100F10009160D0600220106104F10801104600F0D9
:100F20006DFB08B1012010BD002010BD00000108BC
:100F3000BC000020FBFF0F08A47300200146002026
:100F4000A1F100624FF480439A4204D32048084440
:100F5000984201D2012070471E480844984201D2AD
:100F6000022070471C480844984201D20320704771
:100F70001A480844B0F5803F01D204207047184851
:100F80004FF400320844904201D2052070471548C2
:100F90000844904201D2062070471348084490420A
:100FA00001D20720704711480844904201D208201E
:100FB00070470F480844904201D2092070470D48FD
:100FC0000844904201D20A2070470B20704700006D
:100FD00000C0FFF70080FFF70040FFF70000FFF7B9
:100FE0000000FEF70000FCF70000FAF70000F8F739
:100FF0000000F6F70000F4F710B50A4607498842EA
:1010000007D801460023022000F052FB18B101204E
:1010100010BD012010BD002010BD0000FBFF0F0817
:1010200008490A6822F440720A600A6842F0040221
:101030000A600A684FF4803343EA002002430A60E2
:1010400070470000103C0240064A136823F44073C6
:10105000136013681360136843F001031360017099
:1010600070470000103C024010B509490C6824F498
:1010700040740C600C6844F440740C600C6844F0DC
:1010800001040C600260BFF36F8F436010BD00006D
:10109000103C0240074A136823F44073136013683E
:1010A00043F480731360136843F0010313600180FD
:1010B00070470000103C0240074A136823F4407355
:1010C0001360136843F400731360136843F0010363
:1010D0001360016070470000103C02401749086827
:1010E000C206174805D5C26942F01002C26110223B
:1010F0000A600A68920605D5C26942F00802C26118
:1011000020220A600A68520605D5C26942F004022C
:10111000C26140220A600A68120605D5C26942F01F
:101120000202C26180220A600A68920705D5C2697C
:1011300042F02002C2610220086070470C3C02406D
:10114000180D002070B5044611490020C86100F058
:1011500097FC05460F4E09E0601C07D024B100F053
:101160008FFC401BA04201D9032070BD3068C00332
:10117000F2D43068C00701D001203060306810F030
:10118000F20F03D0FFF7AAFF012070BD002070BD51
:10119000180D00200C3C024078B50024009490F813
:1011A0003C20012A19D0012280F83C200A6807253A
:1011B000092A14D90368DE680A3A02EB4202954014
:1011C000AE43DE600A788B680A3A02EB4202934033
:1011D0000268D5682B43D36011E0022078BD036814
:1011E0001E6902EB42029540AE431E610A788B688D
:1011F00002EB42029340026815692B4313614A686F
:101200001F25072A13D203685E6B521E02EB82026F
:101210009540AE435E630A8893B20A79521E02EB90
:10122000820293400268556B2B43536328E00D2ADA
:1012300013D203681E6BD21F02EB82029540AE43AD
:101240001E630A8893B20A79D21F02EB820293408E
:101250000268156B2B43136312E00368DE6A0D3AD4
:1012600002EB82029540AE43DE620A8893B20A79AD
:101270000D3A02EB820293400268D56A2B43D36297
:10128000174A184B05689D4206D10D68122D03D1EF
:10129000556845F48005556005689D421BD10B6873
:1012A000102B01D0112B16D1536843F40003536067
:1012B000096810290FD10C490C4A0968B1FBF2F1F9
:1012C00001EB81014900009102E00099491E009163
:1012D00000990029F9D180F83C40002078BD000039
:1012E00000230140002001401C00002040420F006C
:1012F00070B504460026002C03D0206C002510B1E8
:1013000007E0012070BD204600F01CF8656484F8F9
:101310003C50206CC00610D4206C20F4885040F063
:10132000020020642046FFF78BFC6564206C20F0EF
:10133000020040F00100206400E0012684F83C50E7
:10134000304670BD30B587B00446142102A8FFF7BF
:10135000BFFA2149206888423BD100251F48016817
:1013600041F480710160006800F4807001901B48B6
:101370001438016841F004010160016801F00401C2
:101380000191016841F001010160016801F0010172
:101390000191016841F002010160006800F0020063
:1013A00001903F20029003240394049502A90C4865
:1013B00000F070FAC02002900394049502A9094835
:1013C00000F068FA02940394049502A9064800F01C
:1013D00061FA07B030BD00000020014044380240EF
:1013E00000080240000002400004024010B504461C
:1013F000002C02D0607910B106E0012010BD002061
:101400002071204600F004F801206071002010BD1A
:1014100008B500680649884208D10648016841F4C9
:1014200080510160006800F48050009008BD000009
:101430000030024030380240704770B5002820D09C
:10144000F9B14379012B1ED00126467102230371A5
:1014500003681D6802F0100240F6FE749440A54334
:10146000D1E900410C4394402C431C6001680B6897
:10147000C0249440A3430B600671002141710846CB
:1014800070BD012070BD022070BD70472DE9F04194
:10149000044620680568466BA9044FF0040710D580
:1014A000B1040ED52771216941F001012161F902D2
:1014B00041632068016821F4805101602046FFF7F4
:1014C000E4FFA80014D5B00012D52771206940F0C0
:1014D0000200206121684FF00050486320680168D5
:1014E00021F0805101602046BDE8F041FFF7A4BF24
:1014F000BDE8F08170B50446002C03D020790025AA
:1015000010B105E0012070BD6571204600F008F8BB
:1015100002202071256101202071002070BD000093
:1015200010B586B00446142101A8FFF7D1F915497A
:101530002068884224D100211348026842F00052FA
:101540000260006800F0005000900F4810380268F8
:1015500042F001020260006800F0010000903020BB
:10156000019003200290039101A9084800F092F92C
:1015700000220F21362001F0E3F8362001F0D2F8E6
:1015800006B010BD00740040403802400000024028
:1015900010B50E490C48086000200860091D0C4A6F
:1015A0000A60086009490B4A10390A600860C122C4
:1015B000091D0A6008600122091D0A60086001F027
:1015C00079F8002010BD0000FFC9FEF62038024067
:1015D00033797704FF11602270B5044600F050FAA9
:1015E0000546601C02D004480078044400F048FA24
:1015F000401BA042FAD370BD100000202DE9F04737
:1016000004460E46DFF88C8098F8180001280BD0AD
:10161000012088F818004CF250394846FFF792FD37
:101620000246100003D02FE00220BDE8F0874FF003
:10163000FF3030602068184F012801D0A5681CE0F9
:10164000207C6168FFF7ECFC4846FFF77BFD024613
:10165000386820F00400386014E0217C2846FFF749
:10166000F5FB4846FFF76EFD0246386820F07A0029
:1016700038600AB1356005E06D1CD4E902100844F9
:10168000A842EAD8FFF70AFC002088F818001046A4
:10169000CBE70000180D0020103C02400348016811
:1016A00041F000410160002070470000103C024002
:1016B0002DE9F0470646894614461D46194F387EE7
:1016C000012808D0012038764CF250384046FFF708
:1016D00039FD18B114E00220BDE8F0879EB1012E5B
:1016E00016D0022E19D022462B464846FFF7BCFCE6
:1016F0004046FFF727FD0C490A6822F001020A6004
:1017000000213976E8E7E1B24846FFF79DFCEFE7B4
:10171000A1B24846FFF7BEFCEAE721464846FFF77C
:10172000CBFCE5E7180D0020103C024000200749E3
:101730000A68002A09DA054A054B0C3A1360054B82
:1017400013600968002900DA01207047103C02404C
:1017500023016745AB89EFCD2DE9F04F0023DFF87A
:101760000C914FF001084FF00F0C08FA03F501EA55
:101770000504AC4275D123F0030202EB0906D6F84A
:1017800008289F074FEA177A0CFA0AF707EA020BB4
:10179000374A904201D1002223E0364A904201D1DB
:1017A00001221EE0344A904201D1022219E0334A5C
:1017B000904201D1032214E0314A904201D1042227
:1017C0000FE0304A904201D105220AE02E4A9042B1
:1017D00001D1062205E02D4A904201D1072200E006
:1017E000082202FA0AF25A4521D1DFF8A4A0DAF859
:1017F0000020A243CAF800200AF1040ADAF8002007
:10180000A243CAF80020224A0C32D2F800A02AEAE9
:10181000040AC2F800A0A2F1040ADAF80020A243E8
:10182000CAF80020D6F80828BA43C6F80828046881
:101830005E000322B24094430460DC0800EB8404A1
:10184000276A5E074FEAD66A0CFA0AF6B7432762A0
:10185000C4689443C4604468AC434460846894435F
:1018600084605B1C102B80D3BDE8F08F00300140FA
:10187000000002400004024000080240000C024048
:10188000001002400014024000180240001C0240F8
:10189000003C01402DE9F84F0022DFF89C914FF009
:1018A000010803274FF00F0C09F1040AA9F1040BFA
:1018B00008FA02F50B682B40AB426ED10C7904F0AC
:1018C0000304012C01D0022C15D18668540007FABC
:1018D00004FE26EA0E06D1F80CE00EFA04FE4EEAEB
:1018E000060EC0F808E04468AC430D79C5F3001556
:1018F0009540254345600C79E443A40708D0C568AA
:10190000540007FA04F6B5438E68A6402E43C6601D
:101910000C7904F00304022C11D1D40800EB8406E6
:10192000356A5407E40E0CFA04FE25EA0E05D1F8D8
:1019300010E00EFA04FE4EEA050EC6F820E0056837
:10194000540007FA04F6B5430E7906F00306A640E4
:101950002E4306604C6814F4403F67D0374C25682E
:1019600045F480452560246804F480440094344C98
:1019700022F003052E19D6F8085894074FEA147E72
:101980000CFA0EF4A5432F4CA04201D1002424E010
:101990002D4CA04202D101241FE047E02B4CA04275
:1019A00001D1022419E02A4CA04201D1032414E001
:1019B000284CA04201D104240FE0274CA04201D1C1
:1019C00005240AE0254CA04201D1062405E0244C60
:1019D000A04201D1072400E0082404FA0EF42C43AD
:1019E000C6F80848D9F800409C434D68ED0200D580
:1019F0001C43C9F80040DAF800409C434D68AD0232
:101A000000D51C43CAF80040DBF800409C434D68F9
:101A1000AD0300D51C43CBF80040074D083D2C68B2
:101A20009C434E68F60300D51C432C60521C102AC0
:101A3000FFF43EAFBDE8F88F083C01404438024057
:101A40000030014000000240000402400008024053
:101A5000000C024000100240001402400018024036
:101A6000001C02400069084201D00120704700209C
:101A70007047002A01D08161704709048161704775
:101A8000014880687047000010000020D0F8DC0397
:101A900004F0B8BDD0F8DC0304F0BDBD006806F06A
:101AA00048BE006806F049BEC1EB011100EB8100A1
:101AB000002200F81A2F4270C27282720020704712
:101AC000C1EB011100EB810090F84C007047C1EBB5
:101AD000011100EB8100806B70472DE9FF4F83B04F
:101AE0000546DDE91078129E8A46934695F8D403A0
:101AF00001281CD0012385F8D433CAEB0A1005EB6A
:101B000080044FF0000984F819900698207584F835
:101B100015A084F826800BF07F00A075514628465A
:101B2000FFF7C2FF5FEA0B6005D5E37505E0022011
:101B300007B0BDE8F08F84F81790286806F0FDFD27
:101B4000B8F1010F05D1012F03D110B9BC2E00D976
:101B5000BC262776B0B22085CDE9007802902868AF
:101B60005A465146069B06F06FFE85F8D493DFE790
:101B700070472DE9F003DDE9078C069F099DC1EB55
:101B8000011400EB8404E27584F826300226002F4D
:101B90000AD084F82A60002563B1012B4FD0022BB4
:101BA00027D0032B4DD137E04FF0030984F82A905A
:101BB0006576F0E7012F44D11AB1A27E012A0FD039
:101BC0003FE0BCF1000F02D1012284F83D2094F8DF
:101BD0003D2012B184F82A6033E084F82A5030E0C6
:101BE00094F83C2012B184F82A602AE084F82A5044
:101BF00027E02AB194F83C205AB184F82A6020E00A
:101C000094F83D2012B184F82A601AE084F82A5032
:101C100017E084F82A5014E02AB194F83C205AB115
:101C200084F82A600DE094F83D2012B184F82A600F
:101C300007E084F82A5004E084F82A5001E084F890
:101C40002A50C4F82C80C4F834C084F84C50A563E2
:101C5000617584F84D50827904F114010068BDE883
:101C6000F00306F08BBE2DE9F041044620680646DD
:101C700006F06BFD012876D1206807F063F8002894
:101C800071D0206807F05EF8800203D521684FF418
:101C900000104861206807F055F8C00203D521689C
:101CA0004FF480104861206807F04CF8400103D5DC
:101CB00021684FF080604861206807F043F8800792
:101CC00002D5216802204861206807F03BF88000B7
:101CD00018D521684FF000504861D6F84004C0077D
:101CE00010D11021304606F002FD304606F0DFFC30
:101CF000607A022803D10121206806F0FDFF20460A
:101D0000FFF7C8FE206807F01DF8C00102D5204685
:101D100002F054FB206807F015F8000705D52046AF
:101D200000F0D3F8216808204861206807F00AF81D
:101D3000800125D5206806F01DFE074600254FF0DE
:101D4000010816E005F00F0108FA01F038420FD043
:101D500006EB4510D0F80005000405D5E9B2204691
:101D600001F082FF04E01EE0E9B2204602F089F9AA
:101D70006D1C6079A842E5D821684FF00070486179
:101D8000206806F0DFFFC043C0060CD420688169DC
:101D900021F010018161204602F060FB206881691A
:101DA00041F010018161BDE8F081F8B50446002CD6
:101DB00005D0256894F8D503002610B106E001206F
:101DC000F8BD84F8D463204600F032F8032084F88C
:101DD000D503B5F1A04F00D1A671206806F02EFC06
:101DE000207C8DF8000094E80F0006F0B9FB022576
:101DF00018B184F8D5530120F8BD0121206806F000
:101E0000DEFF18B184F8D5530120F8BD207C8DF891
:101E1000000094E80F0006F0F9FE18B184F8D553DD
:101E20000120F8BD012084F8D5030020F8BD000092
:101E300010B586B00446142101A8FEF749FD2068BC
:101E4000B0F1A04F2FD100211848026842F00102E2
:101E50000260006800F0010000904FF4C050019053
:101E6000022002900391032004900A20059001A90A
:101E70000F48FFF70FFD0D48001D016841F080017C
:101E800001600A481430016841F480410160006833
:101E900000F48040009000221146432000F050FCE6
:101EA000432000F03FFC06B010BD00003038024077
:101EB00000000240D0F8DC0304F037BCD0F8DC03AB
:101EC00004F03ABC006806F060BFD0F8DC0304F010
:101ED000EEBB10B5044694F8D40301280DD00120C0
:101EE00084F8D4030121206806F0BEFB206806F0C8
:101EF000D8FB002084F8D40310BD022010BD10B51B
:101F0000044694F8D403012809D0012084F8D403AE
:101F1000206806F084FF002084F8D40310BD02205E
:101F200010BD10B50446002C12D0242084F83D00CA
:101F30002068016821F001010160204600F0C6FA26
:101F400000203034206160732060A073207310BDC6
:101F5000012010BD70B50446002C04D094F83D005B
:101F6000002510B106E0012070BD84F83C502046E9
:101F700000F0DCFA242084F83D002068016821F09C
:101F8000010101602068016841F40041016020689E
:101F9000016821F40041016000F0CEFC4F4B616804
:101FA000994203D84E49884203D304E04D49884200
:101FB00001D2012070BD4C49B0FBF1F12268566896
:101FC00026F03F060E43566062689A4201D8491CCB
:101FD00007E04FF4967251434FF47A72B1FBF2F17D
:101FE000491C2268166A26F03F0631431162616877
:101FF000994210D84900401EB0FBF1F2521CC2F3C6
:102000000B02042A01D2042022E0B0FBF1F0401CB4
:10201000C0F30B001CE0A268F2B301EBC10303EBB9
:102020000116431EB3FBF6F35B1C43F480431B0510
:1020300049D092B301EBC10202EB0111401EB0FB8B
:10204000F1F0401CC0F30B0040F4804040F400402D
:102050002168CA694CF6FF739A431043C861D4E9FA
:10206000071001432068026822F0C002114301609A
:10207000D4E9030101432068826848F2FF339A43A0
:1020800011438160D4E9051001432068C26822F041
:10209000FF021143C16001E00EE016E02068016814
:1020A00041F0010101602564202084F83D00256392
:1020B00084F83E50002070BD01EB4106431EB3FB87
:1020C000F6F35B1CB3E70120C2E701EB4101401EC0
:1020D000B0FBF1F0401CC0F30B00B7E7A086010095
:1020E00080841E0000093D0040420F002DE9FF4F93
:1020F00083B00446DDE911988A469346109FFFF7A6
:10210000BFFC054694F83D00202803D0022007B00C
:10211000BDE8F08F1923012298492046009502F06E
:102120007BFB08B10220F2E794F83C00012807D0BD
:10213000012084F83C0020680168C90702D005E04E
:102140000220E4E7016841F00101016020680168B4
:1021500021F400610160222084F83D00402084F8D1
:102160003E00002626646762A4F82A90608D2085D0
:102170008348E062CDE900855A4651462046069BD9
:1021800002F006FA08B10120C1E7208D48B101280C
:1021900010D002281CD02068416980690290794FD4
:1021A000E1E02068416981690291016841F40071B0
:1021B0000160F4E72068016821F480610160206813
:1021C000416981690291016841F400710160E6E7AB
:1021D0002068016821F4806101602068016841F491
:1021E000006101602068416980690290D7E7032897
:1021F0007ED801280BD002281FD043460022394642
:102200002046009502F008FBF0B301207FE72A4644
:102210004146204602F0BAFB08B1012077E720686A
:102220000069616A0870606A401C6062208D401E0F
:102230002085608D401E608595E04346002239462A
:102240002046009502F0E8FA08B101205FE7206817
:10225000016841F40071016020680069616A0870DA
:10226000606A401C6062218D491E2185618D491E76
:102270006185216809690170606A401C6062208D77
:10228000401E2085608D00E002E0401E60856AE00F
:102290002068016821F48061016020680069616A3A
:1022A0000870606A401C6062208D401E2085608D31
:1022B000401E60854346002239462046009502F0C4
:1022C000ABFA08B1012022E72068016841F40071EF
:1022D000016020680069616A0870606A401C606281
:1022E000218D491E2185618D491E6185216800E08F
:1022F0000BE009690170606A401C6062208D401E1D
:102300002085608D401E60852DE02A46414620468E
:1023100002F03CFB08B10120F9E620680069616A1F
:102320000870606A401C6062208D401E81B2218569
:10233000608D401E608520684269D243520712D4E6
:10234000032903D1016821F48061016020680069DC
:10235000616A0870606A401C6062208D401E2085A2
:10236000608D401E6085208D00287FF440AF2020C6
:102370003C346070A67026700020C8E60200100091
:102380000000FFFF040001002DE9FF4F83B0044669
:10239000DDE911988A469346109DFFF771FB0646CA
:1023A00094F83D00202803D0022007B0BDE8F08F4C
:1023B0001923012243492046009602F02DFA08B164
:1023C0000220F2E794F83C00012807D0012084F8AD
:1023D0003C0020680168C90702D005E00220E4E75C
:1023E000016841F0010101602068016821F4006189
:1023F0000160212084F83D00402084F83E00002741
:1024000027646562A4F82A90608D20852E48E062DA
:10241000CDE900865A4651462046069B02F058F9FF
:1024200080B30120C1E732464146204602F0E9FA76
:1024300048B1206C042804D12068016841F400717F
:1024400001600120B1E7606A216800780861656A6F
:102450006D1C6562208D401E80B22085618D491EF5
:10246000618523685969C94349070BD450B128785D
:102470001861606A401C6062208D401E2085608D5E
:10248000401E6085208D0028CDD132464146204631
:1024900002F096F948B1206C042804D12068016844
:1024A00041F40071016001207FE71F3454F81F0CD4
:1024B000016841F4007101602020A077E777677719
:1024C000002072E7020010000000FFFF10B5016855
:1024D0001248134A134C81420DD1106820F40010A9
:1024E000106089152046FFF737F961152046BDE8D1
:1024F0001040FFF731B90C4881420ED1106820F42A
:102500008000106009152046FFF726F92046BDE837
:1025100010404FF40061FFF71FB910BD0054004098
:10252000403802400004024000580040F0B587B037
:102530000446142102A8FEF7CBF92168234CDFF8EA
:1025400088C00027214A122303250426204810347E
:1025500061451AD1116841F002011160116801F062
:1025600002010191290202910393049705950696B1
:1025700002A9FFF78FF9206840F40010206020685E
:1025800000F40010019007B0F0BDDFF848C06145CD
:10259000F9D1116841F002011160116801F00201E6
:1025A00001914FF4406102910393049705950696BB
:1025B00002A9FFF76FF9206840F4800020602068CE
:1025C00000F480000190DEE7005400403038024003
:1025D000000402400058004002488168027811441B
:1025E000816070471000002010B50B48016841F46D
:1025F00000710160016841F480610160016841F48B
:1026000080710160032000F0BBF80F2000F006F895
:1026100000F052F8002010BD003C024030B587B0F9
:10262000054600241E48016841F010010160006861
:1026300000F01000009001A902A800F059F90598D7
:10264000A8B100F079F940001649B0FBF1F1491E3C
:102650001648154A026040F2E732C26041600461E8
:102660008460846100F0F2FC04461CB115E000F0C7
:1026700063F9E9E70D4800F089FD04466CB936209E
:1026800000F050F8102D07D200222946362000F025
:1026900057F80748056000E0012407B0204630BD28
:1026A0004038024040420F00001000401805002052
:1026B000140000207047000008B50A48016841F482
:1026C00080410160006800F4804000900548001FD0
:1026D000016841F080510160006800F08050009076
:1026E00008BD000044380240002809DB00F01F024A
:1026F000012191404009800000F1E020C0F88012E3
:10270000704700280DDB00F01F02012191404009B5
:10271000800000F1E020C0F88011BFF34F8FBFF3BD
:102720006F8F7047002809DB00F01F0201219140E4
:102730004009800000F1E020C0F80011704700005F
:10274000F0B40D460D4B1B68C3F30223C3F107041D
:10275000042C00D90424191D072901D2002300E00C
:10276000DB1E012606FA04F1491E294099409E40CD
:10277000761E16403143F0BC06F020BC0CED00E0A4
:1027800000F00701054A10684FF6FF03184040EAC1
:102790000120034908431060704700000CED00E081
:1027A0000000FA052DE9F04704460D46002C13D031
:1027B000DFF82891D9F80000EFB200F00700A84236
:1027C0000CD289F80070D9F8000000F00700A84288
:1027D00004D00120BDE8F0870120FBE72068404ECF
:1027E000810712D5400703D5306840F4E0503060CF
:1027F0002078000703D5306840F4604030603068CE
:10280000A16820F0F000084330602078C00731D084
:10281000334960680839012808D002280BD0032802
:1028200009D0096889070BD40120D3E70968890317
:1028300006D40120CEE70968890101D40120C9E747
:10284000316821F0030101433160FFF719F9804637
:1028500041F2883A07E0FFF713F9A0EB0800504572
:1028600001D90320B6E73068616800F00C00B0EBD6
:10287000810FF0D1D9F8000000F00700A84209D973
:1028800089F80070D9F8000000F00700A84201D0D4
:1028900001209FE72078400705D53068E16820F4E3
:1028A000E050084330602078000706D53068216981
:1028B00020F4604040EAC100306000F05DF831680B
:1028C000084AC1F30311515CC84007490860074832
:1028D0000068FFF7A3FE00207CE70000003C0240F8
:1028E00008380240C4E500081C0000201400002045
:1028F0000F2202600B4A136803F00303436013685E
:1029000003F0F0038360136803F4E053C3601268BC
:1029100002F46042D20802610348006800F0070038
:102920000860704708380240003C024001480068D7
:10293000704700001C00002000B5FFF7F7FF0449B6
:102940000968044AC1F38221515CC84000BD0000FF
:1029500008380240D4E5000800B5FFF7E7FF044956
:102960000968044AC1F34231515CC84000BD00000F
:1029700008380240D4E5000810B51748006810F088
:102980000C01164816D0164B042912D0082911D173
:10299000114C241F216801F03F02216849020AD529
:1029A0002068C0F38810A0FB03010023FDF7BFFCE3
:1029B00009E0184610BD21680023C1F38811A1FB6E
:1029C0000001FDF7B4FC2168C1F30141491C490035
:1029D000B0FBF1F010BD0000083802400024F40004
:1029E00040787D012DE9F84F0446002C13D0207863
:1029F000DFF8A083C007A8F1040556D008F1040051
:102A00000168C1F3810101290CD00068C0F3810085
:102A1000022803D00DE00120BDE8F88FD8F80000AF
:102A2000400206D5286880033FD5606870BB01204E
:102A3000F2E76068B0F5803F10D0B0F5A02F12D05B
:102A4000286820F480302860286820F480202860DE
:102A50006068E0B1FFF714F8064614E0286840F417
:102A600080302860F4E7286840F4802028602868D7
:102A700040F480302860EBE7FFF702F8801B642801
:102A800001D90320C8E728688003F5D50DE0FEF7DB
:102A9000F7FF064606E0FEF7F3FF801B642801D926
:102AA0000320B9E728688003F5D42078BA4F80075F
:102AB0004FF0000948D5B748001D016811F00C0F10
:102AC00008D00068C0F38100022813D1D8F80000B4
:102AD00040020FD42868800704D5E068012801D09F
:102AE000012099E72868216920F0F80040EAC10038
:102AF000286029E0E068B8B101203860FEF7C0FF27
:102B0000064606E0FEF7BCFF801B022801D9032021
:102B100082E728688007F5D52868216920F0F80049
:102B200040EAC10028600FE0C7F80090FEF7A8FF58
:102B3000064606E0FEF7A4FF801B022801D9032009
:102B40006AE728688007F5D42078000729D5DFF8E0
:102B500044A2924861690AF1700A89B101210160B9
:102B6000FEF78EFF064606E0FEF78AFF801B02286E
:102B700001D9032050E7DAF800008007F4D510E00F
:102B8000C0F80090FEF77CFF064606E0FEF778FFEF
:102B9000801B022801D903203EE7DAF800008007F5
:102BA000F4D42078400778D54FF0000A79483C30BB
:102BB0000068C0000BD477483C30016841F0805178
:102BC0000160006800F0805000904FF0010ADFF8CB
:102BD000D0B1DBF80000C00514D4DBF8000040F4ED
:102BE0008070CBF80000FEF74BFF064606E0FEF7CC
:102BF00047FF801B022801D903200DE7DBF8000006
:102C0000C005F4D5634EA0686C3601280FD00528A6
:102C100012D0306820F001003060306820F00400ED
:102C20003060A068F8B1FEF72BFF834617E03068EC
:102C300040F001003060F4E7306840F0040030609C
:102C4000306840F001003060EBE7FEF719FFA0EBC1
:102C50000B0141F28830814201D90320DCE6306863
:102C60008007F2D510E0FEF70BFF834609E0FEF780
:102C700007FFA0EB0B0141F28830814201D903200C
:102C8000CAE630688007F2D4BAF1010F05D1414895
:102C90003C30016821F080510160A069C0B33D491A
:102CA000091D09684FF0FF36C1F38101022946D0A2
:102CB000022805D0C7F86090FEF7E2FE04463AE02D
:102CC000C7F86090FEF7DCFE814607E0FEF7D8FE0D
:102CD000A0EB0900022801D903209DE628688001A5
:102CE000F4D4D4E907010843616AA26A890106EBBA
:102CF000520241EA0241084394F82C1040EA016074
:102D0000C8F8000001203866FEF7BAFE044607E066
:102D10003DE0FEF7B5FE001B022801D903207BE64B
:102D200028688001F5D532E0FEF7AAFE001B0228D4
:102D300001D9032070E628688001F5D427E0012836
:102D400023D0D8F80000E26900F4800191421AD142
:102D5000226A00F03F01914215D147F6C071626AC4
:102D60000140B1EB821F0ED1A26A00F4403106EBA4
:102D70005202B1EB024F06D194F82C1000F07060B3
:102D8000B0EB016F03D0012046E6012044E60020AD
:102D900042E600000438024000004742800E4742ED
:102DA0000070004070B50446002C03D06079002507
:102DB00010B105E0012070BD2571204600F00CF82F
:102DC000022060712068016841F004010160012067
:102DD0006071A560002070BD08B500680649884292
:102DE00008D10648016841F040010160006800F028
:102DF0004000009008BD0000000806503438024032
:102E000070B50446002C0AD0606A002548B12561DF
:102E100065614FF4005694F8510040B10CE0012078
:102E200070BD6068B0F5827FF3D0E561F1E784F8AA
:102E30005050204600F04CF8022084F851002068E1
:102E4000016821F040010160A088218900F48270AE
:102E500001F404410843A18901F400610843217C85
:102E600001F002010843217D01F001010843218B9B
:102E700001F400710843217F01F03801084394F800
:102E8000201001F080010843218D01F40051084316
:102E900021680860A069042101EA104094F8241018
:102EA00001F01001084321684860A06AB04203D1D4
:102EB000A08D216880B208612068C16921F4006199
:102EC000C1616565012084F85100002070BD0000DB
:102ED00070B586B00446142101A8FDF7F9FC1D4920
:102EE0002068884234D11C48016841F400410160E7
:102EF000006800F40040009017481038016841F065
:102F000001010160016801F001010091016841F0D7
:102F100004010160006800F0040000904FF40040DC
:102F200001900224029401200390032604960625B2
:102F3000059501A90948FEF7ADFC4FF4E05001905A
:102F4000029403940496059501A90548FEF7A2FC96
:102F500006B070BD003C0040403802400000024016
:102F6000000802407047704710B590F83C20012AD5
:102F700022D0012280F83C20CA6800238C6822F409
:102F8000407222434C6822F4806222430C6822F48F
:102F9000006222430C6922F4805222434C6922F4DD
:102FA00000522243C96922F480420A4301684A64FC
:102FB00080F83C30002010BD022010BD70B590F8A4
:102FC0003C20012A31D0012680F83C60022280F8A2
:102FD0003D2002685468936824F070050C682C4307
:102FE0005460134C0268A24214D0B2F1804F11D049
:102FF000104CA2420ED0104CA2420BD00F4CA24259
:1030000008D00F4CA24205D00E4CA24202D00E4C6A
:10301000A24204D123F080034968194391603C30F7
:10302000467000210170002070BD022070BD0000BC
:10303000000001400004004000080040000C004077
:1030400000040140004001400018004010B5044653
:10305000002C03D094F83D0010B107E0012010BD12
:10306000002084F83C00204600F016F8022084F886
:103070003D00211D206802F065FA01203D34607298
:103080006070A070E07020716071A071E0712072BA
:103090002070002010BD000010B586B00446142139
:1030A00001A8FDF715FC314B2068002230499842F9
:1030B00009D1086840F002000860086800F00200CA
:1030C000009006B010BD2B4B98421DD1086840F00F
:1030D00004000860086800F00400009024481038DC
:1030E000016841F008010160006800F008000090EC
:1030F000981401900220029003920492059001A975
:103100001D48FEF7C7FBDCE71C4A904208D108685F
:1031100040F020000860086800F020000090D0E730
:10312000134A174B121D984208D1106840F0020054
:103130001060106800F002000090C2E7114B984246
:1031400008D1106840F400301060106800F40030BE
:103150000090B6E70C4A9042B3D1086840F4807002
:103160000860086800F480700090AAE7000400403E
:103170004038024000080040000C024000140040AB
:1031800000040140004401400020004090F83D1040
:10319000012901D001207047022180F83D1001680B
:1031A000CA6842F00102CA6000681449884214D01B
:1031B000B0F1804F11D0124988420ED01149884297
:1031C0000BD01149884208D01049884205D01049D7
:1031D000884202D00F49884209D1816801F0070175
:1031E000062908D0016841F00101016003E001688F
:1031F00041F0010101600020704700000000014023
:103200000004004000080040000C004000040140A1
:10321000004001400018004070B50446002594F8B5
:103220003C00012817D0012684F83C60022084F875
:103230003D002068826822F0770222F47F4282609B
:103240000868502838D00DDC202853D005DC90B316
:10325000102811D14EE0022070BD30284AD04028FD
:103260000AD13DE0602831D070280CD0B0F5805FE5
:1032700003D0B0F5005F12D001253C346670002009
:103280002070284670BDCB68D1E90121206802F08A
:10329000D0F92068816841F077018160EDE7CB6863
:1032A000D1E90121206802F0C4F92068816841F465
:1032B00080418160E1E71DE0CA684968206802F04A
:1032C0009BFA5021206802F0BEF9D6E7CA68496827
:1032D000206802F0E3FA6021206802F0B4F9CCE73C
:1032E000CA684968206802F087FA4021206802F025
:1032F000AAF9C2E722680146104602F0A4F9BCE729
:10330000704770B505460C46002695F83C0001282C
:103310000FD0012085F83C006AB1042A1CD0082A8D
:103320002CD00C2A3BD00126002085F83C003046EA
:1033300070BD022070BDD4E90012E368286802F075
:103340006DFA2868816921F00C0181612868816922
:10335000A26811438161E7E7D4E90012E3682868B5
:1033600002F0AEFA2868816921F440618161286821
:103370008169A26841EA02218161D5E7D4E900129E
:10338000E368286802F0B7FA2868C16921F00C01E7
:10339000C1612868C169A2681143C161C4E7D4E969
:1033A0000012E368286802F0BFFA2868C16921F4B6
:1033B0004061C1612868C169A26841EA0221C16116
:1033C000B2E710B50446002C03D094F83D0010B1CC
:1033D00007E0012010BD002084F83C00204600F0EA
:1033E00015F8022084F83D00211D206802F0AAF89B
:1033F00001203D3460726070A070E07020716071D7
:10340000A071E07120722070002010BD70472DE97E
:10341000F04104462068C56806694FF00007B1070F
:1034200014D5A90712D5F91E016101202077206863
:103430008069800703D02046FFF762FF05E0204641
:1034400000F01FF9204600F0D5F92777700717D54F
:10345000680715D521686FF0040008610220207705
:103460002068806910F4407F03D02046FFF748FFB2
:1034700005E0204600F005F9204600F0BBF927776B
:10348000300716D5280714D521686FF008000861A9
:10349000042020772068C069800703D02046FFF70A
:1034A0002FFF05E0204600F0ECF8204600F0A2F9DE
:1034B0002777F00617D5E80615D521686FF01000BC
:1034C0000861082020772068C06910F4407F03D08D
:1034D0002046FFF715FF05E0204600F0D2F8204611
:1034E00000F088F92777F00708D0E80706D02168B0
:1034F0006FF001000861204600F02AFA300608D576
:10350000280606D521686FF0800008612046FFF785
:1035100029FD700608D5680606D521686FF04000C1
:103520000861204600F01EFAB0060AD5A80608D5A4
:1035300021686FF0200008612046BDE8F041FFF7E8
:1035400012BDBDE8F0810000F0B587B0044614213B
:1035500002A8FDF7BDF92E4D216800232D4A022453
:103560002D48A94213D1116841F00401116011687E
:1035700001F0040101914FF46071029103940493EE
:103580000593069402A9FEF785F907B0F0BD234D17
:10359000A94212D1106840F008001060106800F0D5
:1035A0000800019048140290039404930593069434
:1035B00002A91B48FEF76EF9E7E71A4F40260325DC
:1035C000B94210D1116841F004011160116801F095
:1035D000040101910296039404940593069502A9AF
:1035E000FEF758F9D1E710488142CED1106840F07B
:1035F00020001060106800F02000019002960394F3
:1036000004930593069502A90848FEF743F9BCE721
:10361000000400403038024000080240000800402A
:10362000000C02400004014000440140001402402C
:1036300070B50446002594F83C0001280FD0012005
:1036400084F83C006AB1042A0FD0082A11D00C2A51
:1036500013D00125002084F83C00284670BD0220CC
:1036600070BD206801F0F8FFF4E7206802F028F848
:10367000F0E7206802F05EF8ECE7206802F092F8CC
:10368000E8E7704710B50446002C03D094F83D00DD
:1036900010B107E0012010BD002084F83C00204656
:1036A00000F015F8022084F83D00211D206801F08B
:1036B00049FF01203D3460726070A070E07020719D
:1036C0006071A071E07120722070002010BD704701
:1036D00070B504460D46002694F83C0001280FD032
:1036E000012084F83C006AB1042A1FD0082A32D095
:1036F0000C2A44D00126002084F83C00304670BDDE
:10370000022070BD2946206801F0A6FF206881696B
:1037100041F0080181612068816921F00401816123
:10372000206881692A6911438161E4E7294620689C
:1037300001F0C6FF2068816941F400618161206861
:10374000816921F480618161206881692A6941EA87
:1037500002218161CFE72946206801F0EBFF206854
:10376000C16941F00801C1612068C16921F004010B
:10377000C1612068C1692A691143C161BBE729465B
:10378000206802F00FF82068C16941F40061C1614E
:103790002068C16921F48061C1612068C1692A691A
:1037A00041EA0221C161A6E710B50446002C03D00E
:1037B00094F83D0010B107E0012010BD002084F80E
:1037C0003C00204600F015F8022084F83D00211D41
:1037D000206801F0B7FE01203D3460726070A07077
:1037E000E07020716071A071E07120722070002083
:1037F00010BD70477047000010B50446002909D07D
:1038000004290AD008290BD094F8410001280AD0D5
:10381000012010BD94F83E00F8E794F83F00F5E76A
:1038200094F84000F2E70220A9B3042937D0082910
:1038300038D084F841000122206801F0EDFE1E49D5
:1038400020681E4A884201D0904203D1436C43F461
:10385000004343642068884213D0B0F1804F10D0F9
:10386000174988420DD0174988420AD01649884224
:1038700007D0904205D01549884202D014498842A9
:1038800013D1816801F00701062912D0016841F0C7
:10389000010101600DE0FFE784F83E00CBE784F80A
:1038A0003F00C8E784F84000C5E7016841F0010126
:1038B0000160002010BD0000000001400004014034
:1038C0000004004000080040000C0040004001409F
:1038D0000018004030B504460D46002229462068F5
:1038E00001F09AFE184A41F2111120688B109042A3
:1038F00002D0164A904209D1026A0A4206D1026AEF
:103900001A4203D1426C22F4004242642068026AE7
:103910000A4206D1016A194203D1016821F001016E
:10392000016001203DB1042D08D0082D09D084F894
:103930004100002030BD84F83E00FAE784F83F00E3
:10394000F7E784F84000F4E700000140000401407C
:1039500000680349884201D1FEF73EBE704700006F
:1039600000100040704770B50446002C04D094F855
:103970004100002510B106E0012070BD84F84050E0
:10398000204600F023F8242084F841002068C16814
:1039900021F40051C160204602F00AF82068016954
:1039A00021F4904101612068416921F02A014161BF
:1039B0002068C16841F40051C1606564202084F82A
:1039C000410084F842006563002070BDF0B587B007
:1039D0000446142102A8FCF77BFF444A42482168B0
:1039E0000024424D143A0223072781421CD1286843
:1039F00040F010002860286800F010000190106866
:103A000040F001001060106800F0010001904FF4D8
:103A1000C0600290039304930594069702A934486A
:103A2000FDF738FF07B0F0BD304EDFF8C8C0361FD5
:103A30003148614519D1316841F400313160316854
:103A400001F400310191116841F008011160116821
:103A500001F0080101916021029103930493059400
:103A6000069702A9FDF716FFDCE7DFF890C0614575
:103A70001AD1316841F480213160316801F480212C
:103A80000191116841F008011160116801F008010D
:103A900001914FF4407102910393049305940697AA
:103AA00002A9FDF7F7FEBDE715488142BAD12868A3
:103AB00040F020002860286800F020000190106885
:103AC00040F040001060106800F0400001904FF49A
:103AD000844002900393049305940820069002A961
:103AE0000848FDF7D7FE9DE700100140443802402A
:103AF0000000024000440040000C0240004800402A
:103B000000140140001802402DE9F84F04460E460B
:103B10001546984694F84200202802D00220BDE8BD
:103B2000F88FBEB1B5B100206064222184F8421044
:103B30002063FDF7A5FF8246A585E585A0684FF4C3
:103B40008057B84201D1206930B1354600264FF088
:103B5000200928E00120E2E70025F8E7534600228B
:103B600020212046CDF8008001F0ACFF18B184F888
:103B700042900320D3E725B1A068B84219D038B1EC
:103B800008E020684068C0F3080026F8020B07E050
:103B9000206970B12068406800F07F0028706D1CBB
:103BA000E08D401EE085E08D0028D7D184F842905A
:103BB000B5E7206840682870F1E72DE9F84304462E
:103BC0000E4615461F4694F84100202802D00220D8
:103BD000BDE8F8837EB175B100206064212084F8CF
:103BE0004100FDF74DFF8146A584E584A068B0F54E
:103BF000805F02D003E00120EAE7206920B135466A
:103C000000264FF0200815E00025FAE74B46002279
:103C100080212046009701F055FF18B184F84180BB
:103C20000320D5E7ADB1216815F8010B4860E08CA1
:103C3000401EE084E08C0028E8D14B460022402161
:103C40002046009701F03EFF50B184F841800320E8
:103C5000BEE736F8020B2168C0F308004860E6E7CB
:103C600084F841800020B3E72DE9F05F05460E4659
:103C700028688346314605F05DF8C6EB061140071B
:103C80004FF007074FF0040805EB81040AD50BEB52
:103C90004610C0F8088584F84D703146286804F055
:103CA00058FD4BE03146286805F044F8C0054FF058
:103CB00008090CD50BEB46114FF48070C1F80805CC
:103CC00084F84D903146286804F043FD36E03146D3
:103CD000286805F02FF800070BD50BEB4610C0F84D
:103CE0000895062084F84D003146286804F031FD1F
:103CF00024E03146286805F01DF840050DD50BEB92
:103D000046114FF48060C1F80805092084F84D0081
:103D10003146286804F01DFD10E03146286805F0A2
:103D200009F800060AD50BEB46118020C1F80805FA
:103D300084F84D703146286804F00BFD3146286840
:103D400004F0F8FF80050BD53146286804F001FD2A
:103D50000BEB46114FF40070C1F80805BDE8F09F69
:103D60003146286804F0E6FFC0074FF0200A4FF004
:103D700001094FF0000751D00BEB4618C8F808A511
:103D8000E07E012806D1E776D8F8040520F48030DB
:103D9000C8F80405A87930B1206BD8F81015C1F324
:103DA0001201401AA0634A4684F84D906764C8F82F
:103DB000082594F8260030B1022804D003280AD040
:103DC000012808D013E03146286804F0C2FC102016
:103DD000C8F808050BE0D8F8000540F00050C8F816
:103DE000000584F84C2031462846FDF7C1FEA8792D
:103DF000012805D014F83C0F80F001002070ADE7D9
:103E0000208DA16B0144491EB1FBF0F0C007A5D085
:103E100014F83C0F80F0010020709FE731462868BD
:103E200004F088FF800611D50BEB4610C0F808A5FA
:103E3000A07E012892D184F81B90032084F84D00C5
:103E400031462868BDE8F05F04F083BC314628683D
:103E500004F070FF80074FF0050A7DD50BEB46108C
:103E60000222C0F8082594F84D10012916D0062921
:103E700019D007291CD009291AD005293ED00329B9
:103E800071D004296AD0082969D00229B7D094F8E2
:103E90004C2031462846FDF76BFE5FE784F84D2045
:103EA00084F84C90F3E784F84D2084F84CA0EEE7BA
:103EB00084F84D20616C491C616402290ED9676445
:103EC000A17E012907D1E7762777D0F8041521F4E0
:103ED0008031C0F8041584F84C80D8E784F84C2071
:103EE00094F8261009B10229D1D1D0F8001521F09B
:103EF000804141F00041C0F80015C8E784F84D202A
:103F0000E17E0129C3D194F8261003290FD084F84B
:103F10004C2094F8261009B10229B8D1D0F8001528
:103F200021F0804141F00041C0F80015AFE7A16CDD
:103F3000491CA164022913D9A764E776616C03299F
:103F400001D284F81C90D0F8041521F48031C0F817
:103F5000041584F84C80DCE744E004E028E039E014
:103F600084F84C20D5E784F84D20E17E01298ED1DC
:103F700084F84C2000F20450016841F48031016063
:103F8000816841F040018160816821F020018160F9
:103F9000A0F2045094F8261009B1022987D1D0F874
:103FA000001521F0804141F00041C0F800156EE796
:103FB00084F84D2084F84C2094F8261009B1022989
:103FC0008BD1D0F8001521F0804141F00041C0F8BC
:103FD00000155CE784F84D20606C401C606484F838
:103FE0004C8054E73146286804F0A4FE40060FD503
:103FF0000BEB46114020C1F8080584F84DA0A07EC7
:1040000000B9676431462868BDE8F05F04F0A1BBE1
:104010003146286804F08EFEC0067FF5F0AE94F8B5
:104020002600032803D050B1022808D013E06764AB
:1040300084F84D803146286804F08BFB0BE0676400
:10404000A87910B1E07E012805D184F84D80314671
:10405000286804F07EFBE07E01280CD1E7760BEBAC
:10406000461000F20450016821F48031016081683B
:1040700041F0200181600BEB46111020C1F80805CA
:104080006CE62DE9F05F05460F462868064639467E
:1040900004F050FEC7EB071140074FF0040B05EB8F
:1040A00081040CD506EB4710C0F808B5072084F84A
:1040B0004D0039462868BDE8F05F04F04ABB394638
:1040C000286804F037FE80064FF000084FF0010A20
:1040D0004FF0020928D506EB47112020C1F808054A
:1040E000607E0326012809D184F8198084F84C9059
:1040F00084F84D603946286804F02BFBA07E012827
:1041000010D1E07E00280DD194F82600012801D0BE
:1041100084F81BA084F84D603946286804F019FB28
:10412000C4F84480BDE8F09F3946286804F002FED8
:1041300080050BD506EB47114FF40070C1F8080558
:1041400039462868BDE8F05F04F003BB39462868AB
:1041500004F0F0FDC00726D0C4F844803946286832
:1041600004F0E8FD400606D584F819A006EB4711D7
:104170004020C1F80805E07E48B184F81B8006EBBA
:104180004710D0F8041521F48031C0F8041506EB6F
:104190004710C0F808A584F84DA039462868BDE846
:1041A000F05F04F0D6BA3946286804F0C3FD400633
:1041B00012D5052084F84D00A07E08B984F819A016
:1041C000C4F844803946286804F0C3FA06EB471166
:1041D0004020C1F80805A5E73946286804F0AAFD83
:1041E00000070DD506EB47110820C1F80805062089
:1041F00084F84D0039462868BDE8F05F04F0A9BA9C
:104200003946286804F096FDC00613D5C4F84480EA
:1042100084F84DB0607E18B9207E08B984F819A0E2
:104220003946286804F095FA06EB47111020C1F8CA
:10423000080577E73946286804F07CFD00062AD592
:10424000A87970B1606C401C6064022811D9C4F870
:1042500044805A4684F84CB039462846FDF788FC1D
:1042600013E0072084F84D003946286804F071FAFD
:104270000BE084F84C9006EB4710D0F8001521F0C5
:10428000804141F00041C0F8001506EB4711802045
:10429000C1F8080546E73946286804F04BFD40059B
:1042A0000DD5092084F84D003946286804F051FAEC
:1042B00006EB47114FF48060C1F8080532E7394634
:1042C000286804F037FD800785D506EB4711C1F853
:1042D000089594F84D00012817D003283AD00428F7
:1042E00040D005284ED0062851D0072801D00928F3
:1042F0009FD184F84D90606C401C606402284CD9BA
:10430000C4F8448084F84CB051E084F84D9084F8AF
:104310004CA094F82600022801D0032847D1A879A0
:1043200028B994F83D0080F0010084F83D00A87998
:1043300001283CD1606B20B3218D0844401EB0FBA6
:10434000F1F0C00733D094F83D0080F0010084F80C
:104350003D002CE084F84D90E07E012827D184F8C0
:104360004C9024E084F84D9084F84C90E07E012835
:104370001DD184F81B80D1F8040520F48030C1F8E9
:10438000040514E084F84D9084F84C900FE084F814
:104390004D90052084F84C0009E084F84C90D1F849
:1043A000000520F0804040F00040C1F8000594F87E
:1043B0004C2039462846FDF7DBFBB3E67CB50546C5
:1043C0002C68D4F840040190D4F840040090009880
:1043D00020F02E0000900198800709D50198C007B1
:1043E00002D02846FDF752FB009840F002000090F2
:1043F0000198000727D5009840F008000090019828
:1044000040071DD5687A022803D0E87901280FD02B
:1044100012E00198C0F34140022804D0012128682D
:1044200004F06AFC08E00221286804F065FC03E05F
:104430004EF66020C4F804042846FDF73FFD02E074
:104440002846FDF737FD0198800603D5009840F017
:10445000200000900098C4F840047CBD2DE9F04194
:10446000034618680746016A01F00F06C1F343428C
:10447000C1F30A15022A2ED1002D2CD0C6EB06114D
:1044800003EB8104E16A002925D0A26B636B2A4407
:104490009A4222D8AAB204F059FCE06A2844E062A9
:1044A000A06B2844A06307EB4610D0F81015C1F3A9
:1044B000C941228DAA420ED100290CD0D0F8001596
:1044C00021F0804141F00041C0F8001514F83C0F84
:1044D00080F001002070BDE8F081042084F84C00D9
:1044E000F9E7FEE701684A69D24352050FD46FF439
:1044F00080624A61002140F8301F2022427381739C
:10450000026942F004020261017301207047002039
:1045100070472DE9F04186B006460C9D0F461446C3
:104520009846142101A8FCF7D3F9306820F0010067
:10453000306001200290002003900220049001943A
:1045400001A93846FDF7A6F9012221463846FDF7B4
:1045500090FA019501A94046FDF79CF901222946F0
:104560004046FDF786FA0120FDF736F8122002904A
:1045700004200590019401A93846FDF78BF90195B7
:1045800001A94046FDF786F906B0BDE8F0810000BC
:104590002DE9F84F04460B9E0F4690461D462068B5
:1045A000016841F4806101602068016841F4807114
:1045B000016000964FF0011A0022514620460A9BE6
:1045C00000F02AF94FF4007940B120680068C00576
:1045D00001D5C4F840900320BDE8F88F216807F0AA
:1045E000FE000861DFF8E4B03346594620460A9AD7
:1045F00000F068F908B10120EEE7206841698069A0
:104600000090324620460A9900F0FBF948B1206C30
:10461000042804D12068016841F400710160012080
:10462000DAE7284608F0FF0501280DD021684FEA97
:1046300018200861324620460A9900F0E2F968B174
:10464000206C042803D007E02068056108E020689A
:10465000016841F4007101600120BDE72068056137
:10466000324620460A9900F0CCF948B1206C042863
:1046700004D12068016841F4007101600120ABE7BA
:104680002068016841F48071016000960022514663
:1046900020460A9B00F0C0F838B120680068C005C9
:1046A00001D5C4F84090032096E72168F8B240F0A5
:1046B000010008613346594620460A9A00F002F983
:1046C00008B1012088E7002086E700000200010011
:1046D0002DE9F8430446DDE908970D46164698464D
:1046E0002068016841F4807101604B4600224FF060
:1046F00001112046009700F08FF848B1206800684B
:10470000C00502D54FF4007020640320BDE8F88393
:10471000216805F0FE0008613B464A461C492046D8
:1047200000F0D0F808B10120F0E720684169806905
:1047300000903A464946204600F063F948B1206CA3
:10474000042804D12068016841F40071016001204F
:10475000DCE7F5B2B8F1010F0CD02168300A08612E
:104760003A464946204600F04CF968B1206C0428CE
:1047700003D007E02068056108E02068016841F483
:10478000007101600120C1E7206805610020BDE7DC
:10479000020001002DE9F04107460D461446FDF7E1
:1047A0006FF9064607E0FDF76BF9801BA04202D9BE
:1047B0000020BDE8F08178692842F4D00120F8E7B4
:1047C00070B504460D4616461FE02046FFF78AFEE8
:1047D00008B1012070BD681C17D0FDF751F9801B8E
:1047E000A84200D88DB920684069C04340070CD565
:1047F000002044F8300F20216173A073216941F03B
:10480000200121612073012070BD20684069C043F0
:104810004007DAD4002070BD2DE9F0470446DDF8EA
:1048200020900D4690461E46C5F307472FE0701CAA
:104830002DD0FDF725F9A0EB0900B04200D836BB1A
:10484000012F17D02068806925EA00000004000CC1
:104850001BD0002040451AD1002044F8300F202101
:104860006173A073216941F020012161207301204F
:10487000BDE8F0872068406925EA00000004000CCC
:1048800001D00020E6E70120E4E70120E2E7012F64
:104890000BD02068806925EA00000004000C0FD0CE
:1048A00000204045C3D00020E2E72068406925EAA7
:1048B00000000004000C01D00020F2E70120F0E726
:1048C0000120EEE72DE9F04704460D4616469846CE
:1048D0004FF000094FF0200AC5F3074743E0206876
:1048E0004069C043400517D42068016841F4007155
:1048F000016021686FF480604861C4F8309084F8EA
:104900003DA084F83E90206C40F00400206484F8C0
:104910003C900120BDE8F087701C24D0FDF7B0F872
:10492000A0EB0800B04200D8EEB9012F14D02068E7
:10493000806925EA00000004000C14D0C4F830900F
:1049400084F83DA084F83E90206C40F02000206464
:1049500084F83C900120DDE72068406925EA0000EA
:104960000004000CEAD1012F08D02068806925EAF4
:1049700000000004000CB2D10020CBE720684069A1
:1049800025EA00000004000CF6D0A8E72DE9F0416C
:1049900004460D46164600274FF020082AE04069DD
:1049A000C043C0060FD421686FF010004861276330
:1049B00084F83D8084F83E70206C206484F83C705C
:1049C0000120BDE8F081FDF75BF8801BA84200D80C
:1049D00085B920684069C04340060BD544F8307F54
:1049E00084F80D80A773206940F0200020612773B0
:1049F0000120E6E720684169C9434906CFD4002079
:104A0000DFE770B504460D4616461FE02046FFF767
:104A100069FD08B1012070BD681C17D0FDF730F8A2
:104A2000801BA84200D88DB920684069C0430006A9
:104A30000CD5002044F8300F20216173A073216948
:104A400041F0200121612073012070BD2068406980
:104A5000C0430006DAD4002070BD00007FB50024FA
:104A600000940194029403941348124901604FF496
:104A700080314160846001250561057680F8204021
:104A8000C4620E498162C460C56180F830404561EE
:104A9000FCF72EFC08B1FCF7B4F909200090019551
:104AA000029469460448FCF777FB002801D0FCF724
:104AB000A8F97FBD00200140DC0000200100000FAC
:104AC00010B50749054808600846FCF78FFC002828
:104AD00003D0BDE81040FCF794B910BD003002408F
:104AE000000000201CB50024009401940F490E48DA
:104AF00008600846FCF7FEFC08B1FCF782F9009458
:104B00000194002269460948FCF797FC08B1FCF7BC
:104B100078F9102269460548FCF78FFC002801D07F
:104B2000FCF76FF91CBD0000007400402401002058
:104B300010B500280DD00124224608210648FCF7B4
:104B400098FF2246BDE810404FF480710348FCF7FF
:104B500090BF0024F0E70000000C0240000002407B
:104B600010B504490448FCF74EF90249491E087083
:104B700010BD000009000020B0E500082DE9F04F4D
:104B800087B0142102A8FBF7A3FE0024B0480168F7
:104B900041F010010160016801F01001019101680C
:104BA00041F004010160016801F004010191016814
:104BB00041F020010160016801F0200101910168CC
:104BC00041F080010160016801F0800101910168FC
:104BD00041F001010160016801F0010101910168EA
:104BE00041F002010160016801F0020101910168D8
:104BF00041F040010160016801F04001019101684C
:104C000041F008010160006800F008000190DFF841
:104C100044A2002249F2C4015046FCF72AFFDFF803
:104C200038B24FF40057002239465846FCF721FFAE
:104C3000DFF82882002241F601014046FCF719FF07
:104C400000224EF2E4018648FCF713FF002243F6EF
:104C5000EE118448FCF70DFF00224CF21E01824841
:104C6000FCF707FF4FF48079002249467F48FCF7A4
:104C700000FF48F204000290012503950495059475
:104C800002A95046FCF706FE44F208000290039485
:104C9000049502A95046FCF7FDFD302002900394D4
:104CA000049402A95046FCF7F5FDC020029003953C
:104CB00002260496059402A95046FCF7EBFD0297E4
:104CC00003950496059402A95846FCF7E3FD029566
:104CD00003950496059402A94046FCF7DBFD0420E9
:104CE000029003950496059602A95D48FCF7D2FD53
:104CF000E802029003950496059602A94046FCF747
:104D0000C9FD2F03029703950495059602A9404615
:104D1000FCF7C0FD4FF4604002900394049502A993
:104D20004046FCF7B7FD02950394049502A94D484F
:104D3000FCF7B0FD43F6020002904FF01108CDF8E9
:104D40000C800494059402A94648FCF7A3FD029741
:104D5000CDF80C800494059402A95046FCF79AFD06
:104D600002970394049602A93D48FCF793FD4EF286
:104D7000E000029003950496059402A93848FCF7D8
:104D800089FD40F6014002900394049402A936483C
:104D9000FCF780FDA803029003950494059402A9F2
:104DA0003148FCF777FD48F218000290039504960D
:104DB000059402A92C48FCF76DFD0C200290039588
:104DC0000496059402A92748FCF764FD1020029080
:104DD0000394049402A92348FCF75CFD2020029070
:104DE00003950495059402A91E48FCF753FD402045
:104DF000029003950495059602A91A48FCF74AFD0E
:104E00004FF4C070029003950496059602A91548C8
:104E1000FCF740FDCDF8089003950496059402A98F
:104E20001248FCF737FD062002900395049405967E
:104E300002A90D48FCF72EFD8020029003940495F2
:104E400002A90948FCF726FD07B0BDE8F08F000075
:104E500030380240001002400008024000140240B6
:104E60000004024000180240000C02400000024012
:104E700010B50D480B4901600C494160002181606B
:104E8000C1604FF48042026141618161C161016290
:104E9000FDF760F8002803D0BDE81040FBF7B1BF74
:104EA00010BD00000054004038010020A086010021
:104EB00010B50D480B4901600C494160002181602B
:104EC000C1604FF48042026141618161C161016250
:104ED000FDF740F8002803D0BDE81040FBF791BF74
:104EE00010BD0000005800408C010020A086010089
:104EF00010B50749054808600846FDF753FF00282C
:104F000003D0BDE81040FBF77CBF10BD0008065081
:104F1000E001002010B50E480C49016000214160FD
:104F20008160C160016141618161016241624FF450
:104F3000005181620A21C162FDF762FF002803D09F
:104F4000BDE81040FBF75DBF10BD0000003C004015
:104F5000F001002030B587B01C216846FBF7B8FC93
:104F6000154814490160602545600024846041F2C1
:104F70008831C160046180218161FEF767F808B162
:104F8000FBF73FFF0C48FEF70FFC08B1FBF739FFBA
:104F90000095019402940494002269460648FEF7A5
:104FA00097FB08B1FBF72DFF0348FEF7CDFA07B0DA
:104FB00030BD0000004401406803002010B50B48DC
:104FC0000949016054214160002181604FF47A72E7
:104FD000C26001618161FEF739F8002803D0BDE8A5
:104FE0001040FBF70EBF10BD00200040B0030020B2
:104FF00010B58EB000240A940B940C940D94089470
:1050000009941C2101A8FBF763FC2748254901608E
:105010004FF49651416084606421C1600461802135
:105020008161FEF713F808B1FBF7EBFE4FF48050F7
:105030000A900AA91C48FEF7EFF808B1FBF7E1FE59
:105040001948FEF7B1FB08B1FBF7DBFE08940994A1
:1050500008A91548FDF7B2FF08B1FBF7D2FE6020A2
:105060000190029403940594042201A90E48FEF7CE
:105070002FFB08B1FBF7C5FE082201A90A48FEF77D
:1050800027FB08B1FBF7BDFE0C2201A90648FEF77D
:105090001FFB08B1FBF7B5FE0348FEF755FA0EB04B
:1050A00010BD0000000400404802002010B592B07E
:1050B00000240E940F94109411940C940D94089461
:1050C00009940A940B941C2101A8FBF701FC2848C1
:1050D000264901602321416084606421C16004612C
:1050E00080218161FDF7B2FF08B1FBF78AFE4FF422
:1050F00080500E900EA91E48FEF78EF808B1FBF7FF
:1051000080FE1B48FEF75DF908B1FBF77AFE1848F0
:10511000FEF74AFB08B1FBF774FE0C940D940CA942
:105120001348FDF74BFF08B1FBF76BFE0894012015
:1051300009900A940B94002208A90D48FEF7E1F8A3
:1051400008B1FBF75EFE6020019002940394059481
:10515000042201A90648FEF7BBFA08B1FBF751FE8D
:105160000348FEF7F1F912B010BD0000000800403E
:10517000900200201CB50024009401940E480D49B3
:105180000160A821416084604FF47A71C160802180
:105190008161FDF75BFF08B1FBF733FE00940194DA
:1051A00069460548FDF70AFF002801D0FBF729FEF4
:1051B0001CBD000000140040D802002030B595B09E
:1051C000002411941294139414940F9410941C219D
:1051D00008A8FBF77DFB20216846FBF779FB2D4DE6
:1051E0002B4828604FF47A706860AC60E8604FF438
:1051F000807028616C618020A8612846FDF726FF39
:1052000008B1FBF7FEFD4FF48050119011A9214821
:10521000FEF702F808B1FBF7F4FD1E48FEF732FA7C
:1052200008B1FBF7EEFD0F9410940FA91948FDF794
:10523000C5FE08B1FBF7E5FD30200890012009907C
:105240000A940B940C940D940E94002208A9114812
:10525000FEF7EEF908B1FBF7D4FD2868816941F04B
:1052600008018161009401940294039404944FF422
:1052700000500590079469460648FDF775FE08B191
:10528000FBF7BFFD0348FEF75FF915B030BD000026
:10529000000401402003002010B50C480A490160B9
:1052A0004FF4E131416000218160C16001610C2255
:1052B00042618161C161FEF756FB002803D0BDE861
:1052C0001040FBF79EBD10BD00100140F803002008
:1052D00010B50C480A4901604FF4E13141600021EA
:1052E0008160C16001610C2242618161C161FEF790
:1052F0003AFB002803D0BDE81040FBF782BD10BD8B
:10530000004400404004002010B50C480A490160E8
:105310004FF4E131416000218160C16001610C22E4
:1053200042618161C161FEF71EFB002803D0BDE828
:105330001040FBF766BD10BD004800408804002007
:1053400010B50C480A4901604FF4E1314160002179
:105350008160C16001610C2242618161C161FEF71F
:1053600002FB002803D0BDE81040FBF74ABD10BD8A
:1053700000140140D004002010B501220B490C4854
:1053800001F004F908B1FBF73CFD0A49084802F0B6
:1053900003FF08B1FBF735FD054802F0E5FF0028E3
:1053A00003D0BDE81040FBF72CBD10BD8183000881
:1053B0006005002028000020014802F061BC0000C8
:1053C00060050020FEE7FEE70148FCF74CBC00004A
:1053D00038090020704770477047000030B593B01F
:1053E000302107A8FBF774FA142102A8FBF770FA22
:1053F00000251E48016841F080510160006800F0FE
:10540000805001901A48016841F4804101600068B1
:1054100000F48040019001200790000408900224CD
:105420000D9480010E9019200F904FF4A8701090E9
:1054300011940720129007A8FDF7D4FA08B1FBF7E2
:10544000E0FC0F200290039404954FF4A0500590C7
:105450004FF480500690052102A8FDF7A3F900281B
:1054600001D0FBF7CEFC13B030BD00004038024045
:105470000070004010B592B0302106A8FBF728FA62
:10548000142101A8FBF724FA1D480024046001211F
:1054900001601C48046604601B48026822F08052C8
:1054A0000260026842F080520260006800F08050A2
:1054B00000901648026842F480420260006800F4DE
:1054C0008040009002200690099110200A900C94D0
:1054D00006A8FDF787FA08B1FBF793FC0F200190AF
:1054E000029403944FF4805004900594002101A885
:1054F000FDF758F9002801D0FBF783FC12B010BD6E
:10550000400E4742000047424038024000700040D1
:105510000248016841F470010160704788ED00E0C5
:1055200010B506480079002802D00448FBF7AEFF0A
:10553000BDE810400248FDF76ABF000024010020CA
:10554000180500202DE9F0410268284D284E294F0A
:10555000DFF8A4C0294B4FF08048A84209D040454D
:1055600007D0B04205D0B84203D0604501D0984280
:1055700003D122F070044A682243A8421BD0404560
:1055800019D0B04217D0B84215D0604513D0984218
:1055900011D01B4CA0420ED01A4CA0420BD01A4C7A
:1055A000A04208D0194CA04205D0194CA04202D00C
:1055B000184CA04203D122F44074CA6822434C69BB
:1055C00022F0800222438C68C4620C688462A84284
:1055D00001D0984201D109690163016841F00401D9
:1055E0000160012141610260BDE8F08100000140DD
:1055F0000004004000080040000C0040000401408E
:1056000000400140004401400048014000180040B3
:10561000001C00400020004010B501F01F010123D4
:105620008B40046A9C430462036A8A40134303620A
:1056300010BD10B5846824F47F4442EA03220A4373
:105640002243826010BD826822F070020A4342F059
:105650000701816070470000F0B5056A026A22F018
:10566000010202624368826922F0700222F00302A2
:105670000C68144325F002058A682A430E4E0F4F2A
:10568000B04201D0B84205D122F00805CA682A43C9
:1056900022F00402B04201D0B84207D123F4807353
:1056A00023F400734D691D438B692B434360846170
:1056B000496841630262F0BD0000014000040140FE
:1056C000F0B5026A036A23F0100303624368846939
:1056D00024F4E04424F440740D6844EA052422F0E4
:1056E00020028D6842EA0512104D114EA84201D0E9
:1056F000B04206D122F08002CF6842EA071222F0BF
:105700004002A84201D0B04209D123F4806323F4BF
:1057100000634D6943EA85038D6943EA850343606D
:105720008461496881630262F0BD000000000140AD
:1057300000040140F0B5026A036A23F48073036237
:105740004368C46924F0700424F003050C682C43FA
:1057500022F400728D6842EA0522104D104EA842D4
:1057600001D0B04206D122F40062CF6842EA07229B
:1057700022F48062A84201D0B04209D123F48053C0
:1057800023F400534D6943EA05138D6943EA051379
:105790004360C4614968C1630262F0BD000001401A
:1057A0000004014030B5036A026A22F480520262AA
:1057B0004268C46924F4E04424F440740D6844EA67
:1057C000052423F400538D6843EA0533084DA842AD
:1057D00002D0084DA84204D122F480424D6942EA29
:1057E00085124260C46149680164036230BD0000F3
:1057F000000001400004014010B5036A046A24F06F
:1058000001040462846924F0F00444EA021423F0E1
:105810000A020A438461026210BD000070B5056A85
:10582000046A24F0010404628469154EB04214D065
:10583000B0F1804F11D0134EB0420ED0124EB04294
:105840000BD0124EB04208D0114EB04205D0114ECE
:10585000B04202D0104EB04203D124F003041443EE
:1058600001E044F0010424F0F0041A0744EA126253
:1058700025F00A0301F00A0119438261016270BD3B
:10588000000001400004004000080040000C0040FF
:1058900000040140004001400018004010B5036AB8
:1058A000046A24F010040462846924F4704444EA15
:1058B000023223F0A00343EA01118261016210BDAC
:1058C00030B5056A046A24F010040462846924F483
:1058D000407444EA022222F470444FF6FF7202EA56
:1058E0000332224325F0A003A02404EA0111194346
:1058F0008261016230BD30B5056A046A24F48074A7
:105900000462C46924F00304144324F0F0041A0769
:1059100044EA126225F420634FF4206404EA012172
:105920001943C261016230BD30B5056A046A24F4CE
:1059300080540462C46924F4407444EA022222F4CC
:1059400070444FF6FF7202EA0332224325F42043EB
:105950004FF4204404EA01311943C261016230BDB1
:1059600001680C3151E8002F22F4907241E80023C5
:10597000002BF5D10168143151E8002F22F001020B
:1059800041E80023002BF5D1016B012909D1016801
:105990000C3151E8002F22F0100241E80023002BC7
:1059A000F5D1202180F842100021016370470000EA
:1059B0002DE9F041044620680169E26821F4405174
:1059C00011430161A1682069E269014360691043E4
:1059D00001432068C26849F20C639A430A43C260DB
:1059E00020684169A26921F4407111434161334942
:1059F0002068884202D03249884202D1FCF7ACFFCD
:105A000001E0FCF799FFE16900231927642532269C
:105A1000B1F5004F28D061688B0F8A00A0FB070109
:105A2000FAF785FC0146B0FBF5F07A42504301EBF2
:105A3000800006EB0010B0FBF5F000F0F002B1FBC7
:105A4000F5F002EB0012B1FBF5F07B42584301EB9D
:105A5000800006EB0010B0FBF5F0216800F00F00AD
:105A600010448860BDE8F08161684A18A0FB070116
:105A70005B41FAF75CFC0146B0FBF5F00201B1FBBB
:105A8000F5F06FF01803584301EB800006EBC000FF
:105A9000B0FBF5F000F0F80002EB4002B1FBF5F0CE
:105AA000584301EB800006EBC000B0FBF5F0216825
:105AB00000F0070010448860D4E7000000100140A7
:105AC000001401402DE9F84304460D461746984658
:105AD000089E25E0701C23D0FBF7D2FFA0EB080046
