:020000040800F2
:1000000028A400204D0200081F4C0008CF42000821
:100010001D4C0008810D0008D97B0008000000007D
:10002000000000000000000000000000F94D000882
:10003000110E0008000000002D4C0008FB4D0008C8
:1000400067020008670200086702000867020008EC
:1000500067020008670200086702000867020008DC
:1000600067020008670200086702000867020008CC
:1000700067020008670200086702000867020008BC
:1000800067020008670200086702000867020008AC
:10009000670200086702000867020008670200089C
:1000A000670200086702000867020008670200088C
:1000B000670200086702000867020008670200087C
:1000C000670200086702000867020008670200086C
:1000D000670200086702000867020008670200085C
:1000E000670200086702000867020008670200084C
:1000F000B14E0008670200086702000867020008A6
:10010000670200086702000867020008670200082B
:100110006702000867020008A54E00086702000891
:10012000670200086702000867020008670200080B
:1001300067020008670200086702000867020008FB
:10014000670200086702000867020008214C0008E7
:1001500067020008670200086702000867020008DB
:1001600067020008670200086702000867020008CB
:10017000670200086702000867020008000000002C
:10018000670200086702000800F002F800F04EF86D
:100190000AA090E8000C82448344AAF10107DA45E2
:1001A00001D100F043F8AFF2090EBAE80F0013F0E6
:1001B000010F18BFFB1A43F00103184700E40000C9
:1001C00020E40000103A24BF78C878C1FAD852075A
:1001D00024BF30C830C144BF04680C6070470000C1
:1001E0000023002400250026103A28BF78C1FBD840
:1001F000520728BF30C148BF0B607047642900F028
:100200008381782900F0BC81632900F0648473291C
:1002100000F06984002070471FB50DF052FC9DE886
:10022000030000F0A1FB1FBD10B510BD00F09BFC4A
:100230001146FFF7F1FF0BF0F5FE00F0B9FC03B437
:10024000FFF7F2FF03BC07F0DFFC0000094880471E
:1002500009480047FEE7FEE7FEE7FEE7FEE7FEE7A8
:10026000FEE7FEE7FEE7FEE704480549054A064BC0
:1002700070470000954E000889010008287400208E
:1002800028A400202894002028940020704770B5EE
:10029000064600F04DFB056806F10B0020F0070450
:1002A000B4429CBF002070BD2B466A68BAB110688A
:1002B000A04210D304F1080188423CBF5068586046
:1002C00007D35168101941601168091B016058601B
:1002D0001460101D70BD13465268002AE7D12146F4
:1002E000284600F02DFB0028DED170BD70B5044615
:1002F000051F00F01DFB0068002C14BF446870BD92
:10030000002C18BFAC423CBF20466468F8D301689B
:100310000A18AA4218BF456003D12A68054611444D
:10032000016028684119A1421CBF6C6070BD616802
:10033000696021680844286070BD53EA020C00F02F
:1003400069802DE9F04B4FF00006002B1FBFB3FA78
:1003500083F503FA05F424FA05F65E4012BF16434E
:10036000B2FA82F502FA05F4C5F120051EBF22FAA1
:1003700005FC44EA0C04203556EA044C4FEA1444C8
:1003800018BF641C4FF000084FF00009904271EB59
:10039000030C39D3002919BFB1FA81F701FA07F626
:1003A000B0FA80F700FA07F6C7F120071EBF20FA5F
:1003B00007FC46EA0C062037B6FBF4FCA7EB050762
:1003C000103F07F01F0BCBF120060CFA0BFB2CFAA9
:1003D00006F644BFB3460026202FA4BF5E464FF06A
:1003E000000B5BEA060C08BF4FF0010B19EB0B0981
:1003F000ABFB027C48EB0608C01B06FB02CC0BFBE8
:1004000003CC71EB0C01C1E70B460246414648465E
:10041000BDE8F08B13B54FF000004FF00001AFF3D3
:100420000080BDE81C4070470FB4044910B503AA12
:10043000029800F05DFB10BC5DF814FBF400002096
:100440000FB41CB5074B06AA7B446946009005987B
:1004500000F01FFB0020694600F02EFB1CBC5DF87D
:1004600014FB00006D06000070B504468569006845
:10047000C10601D5302600E02026C00707D070BD98
:10048000D4E9012130469047206A401C20626D1E4D
:10049000F6D570BD70B5044685690078C00707D1F0
:1004A00070BDD4E9012120209047206A401C2062C1
:1004B0006D1EF6D570BD70B50C460546012A05D0F7
:1004C0002878800600D5EA69002302E0012305E0D0
:1004D0005B1C934202D2E05C0028F9D1A869E618BF
:1004E000C01AA861286A184428622846FFF7BCFF92
:1004F00004E0D5E9012114F8010B9047B442F8D388
:100500002846FFF7C7FF70BD2DE9F04106460024DD
:1005100010687529314616A510D0AFF30080002869
:1005200002DA404213A507E031688A0701D512A517
:1005300002E0490704D511A5012401E0AFF30080D2
:1005400000210A2206F1240709E0B0FBF2FCB0FB0F
:10055000F2F302FB1C00303078541846491C002886
:10056000F3D123462A463046BDE8F04100F032BAC6
:10057000000000002D0000002B0000002000000003
:1005800070B504460D4621461068AFF300802188FF
:10059000090502D50F4A7A4402E00E4A7A440E3227
:1005A000002104F1240305E000F00F060009965D28
:1005B0005E54491C0028F7D120780023000704D599
:1005C000702D02D009B1022311322046BDE87040DF
:1005D00000F000BA9ADF00002DE9F05F894604467A
:1005E0004FF0000ADFF824B1FB44C0F820A02046F9
:1005F000E168884700287DD0252806D0D4E901216C
:100600009047206A401C2062F1E700255F462046A3
:10061000E16888472028064607DB312E05D2B81945
:1006200010F8200C08B10543F1E7A80701D525F023
:100630000405C4F81CA00027C4F818A02A2E09D06D
:10064000304607F0DAFA38B304EB8708303EC8F8D2
:10065000186019E059F8041B204604EB87029161E9
:10066000E1688847012F064618D1E069002820DAA2
:1006700025F020051DE0D8F8180000EB800006EBFF
:1006800040003038C8F818002046E1688847064620
:1006900007F0B3FA0028EED1012F0AD02E2E08D190
:1006A0002046E16888477F1C0646022F45F020055A
:1006B000C4DBA069002803DA404245F00105A061CF
:1006C000E80701D025F01005A6B1A6F141001928D0
:1006D00002D8203645F400654A463146204625605A
:1006E0004D46FFF78BFD60B1012807D0ED1D25F0C9
:1006F000070000E007E000F1080978E705F10409C8
:1007000075E730467AE7206ABDE8F09F70DF0000A9
:10071000401ECAB210F8011F8A4202D00029F9D146
:100720000020704740EA0103024630B59B0710D114
:100730004FF0013400E008C208C91D1B9D4315EAB3
:10074000C41FF8D013F0FF0102F8011B0DD01B0AE3
:10075000F8E711F8013B002B02F8013B05D011F836
:10076000013B002B02F8013BF3D130BD10B5431C17
:1007700002E010F8011B71B18107FAD14FF001328C
:1007800002C88C1A8C4314EAC211F9D0C01A0A06A6
:1007900003D0C01E10BDC01A10BD0A0401D0801EB7
:1007A00010BD0902FCD0401E10BD032A40F230806B
:1007B00010F0030C00F0158011F8013BBCF1020FA2
:1007C000624498BF11F801CB00F8013B38BF11F823
:1007D000013BA2F1040298BF00F801CB38BF00F83A
:1007E000013B11F0030300F02580083AC0F00880B7
:1007F00051F8043B083A51F804CBA0E80810F5E79B
:10080000121D5CBF51F8043B40F8043BAFF300807D
:10081000D20724BF11F8013B11F801CB48BF11F8F2
:10082000012B24BF00F8013B00F801CB48BF00F8C2
:10083000012B704710B5203AC0F00B80B1E818507A
:10084000203AA0E81850B1E81850A0E81850BFF4BA
:10085000F5AF5FEA027C24BFB1E81850A0E8185059
:1008600044BF18C918C0BDE810405FEA827C24BFAD
:1008700051F8043B40F8043B08BF7047D20728BF3B
:1008800031F8023B48BF11F8012B28BF20F8023B8A
:1008900048BF00F8012B70474FF000020429C0F058
:1008A000128010F0030C00F01B80CCF1040CBCF1A2
:1008B000020F18BF00F8012BA8BF20F8022BA1EBF4
:1008C0000C0100F00DB85FEAC17C24BF00F8012BD9
:1008D00000F8012B48BF00F8012B70474FF00002D1
:1008E00000B5134694469646203922BFA0E80C5026
:1008F000A0E80C50B1F12001BFF4F7AF090728BF01
:10090000A0E80C5048BF0CC05DF804EB890028BF7C
:1009100040F8042B08BF704748BF20F8022B11F0A5
:10092000804F18BF00F8012B704770477047704721
:1009300000487047CC73002070477047704770477D
:1009400038B504460A4600206946AFF30080002807
:1009500008BF38BD02460099204600F0DFF80120AC
:1009600038BD012000F0F8B8F8B5AFF300800546B7
:1009700000200C46102000BF0646A819A0420DD941
:10098000324669460020AFF30080070008BF00F040
:10099000E3F80098A04218BF0546C419FFF7C8FF46
:1009A00005600746F01D20F007004619284600F0B4
:1009B0000AF8B44208BFF8BDA21B31463868BDE84A
:1009C000F84000F0ABB800210160C0E901107047A9
:1009D000102070472DE9F0470D469946924604468F
:1009E00000F124080168880604D5E06921F01001AF
:1009F000216000E00120A84201DD471B00E0002744
:100A0000A1697A1902EB0900081AA0612078C006D2
:100A100002D42046FFF728FD002608E0D4E9012192
:100A20001AF806009047206A401C761C20624E454A
:100A3000F4DB2078C0060AD52046FFF715FD06E056
:100A4000D4E9012130209047206A401C2062381EE2
:100A5000A7F10107F4DC07E0D4E9012118F805004B
:100A60009047206A401C2062281EA5F10105F3DC96
:100A70002046FFF70FFD2078000602D50220BDE8D2
:100A8000F0870120FBE7000001694A1C0261087839
:100A9000704700B58FB0CDE90131002105910549BE
:100AA0007944CDE9031011466846FFF795FD0FB074
:100AB00000BD0000E5FFFFFF0A6802F8010B0A60B5
:100AC000704710B5436913B1AFF3008001E0FFF741
:100AD000F2FC012010BD127800F124010A700022FE
:100AE0004A700122EDE711684FF0FF32E9E700009C
:100AF000074B70B50D467B44FFF7CBFF04462846F5
:100B000000F026F810B14FF0FF3070BD204670BDE8
:100B10005BAA000000487047C47300200346406889
:100B20008C46002818BF88423CBF03464068F8D373
:100B300018681844884207D00CF1030020F0070021
:100B4000001D411A521A0146081D0A60FFF7CEBB6C
:100B5000007B00F08000704710B500F037F8BDE86A
:100B6000104000F02EB87546FFF7D4FFAE460500E2
:100B70006946534620F00700854618B020B5FFF7B8
:100B800073FBBDE820404FF000064FF000074FF028
:100B900000084FF0000B21F00701AC46ACE8C0099B
:100BA000ACE8C009ACE8C009ACE8C0098D467047A4
:100BB00010B50446AFF300802046BDE81040FFF7B3
:100BC0003EBB002801D007F01FB8704710B50128C0
:100BD00005D0002103A000F021F8012010BD09A1DB
:100BE000F8E7000053494752544D454D3A204F75A0
:100BF00074206F662068656170206D656D6F727915
:100C0000000000003A2048656170206D656D6F72CC
:100C10007920636F727275707465640070B50546F3
:100C20000C460A2000E06D1C06F0EFFF35B1287875
:100C30000028F8D102E0641C06F0E7FF14B1207828
:100C40000028F8D1BDE870400A2006F0DEBF0000A1
:100C50004A494A6822F440324A604A6843681A4363
:100C60004A6001684A6822F480724A6001684A68F2
:100C7000036942EA03224A6001684A6822F040722E
:100C80004A6001684A6883681A434A6001688A6852
:100C900022F400628A6001688A68C3681A438A6025
:100CA000816A6FF07062D14214D001688A6822F0C4
:100CB00070628A6001688A68836A1A438A60016880
:100CC0008A6822F040528A6001688A68C36A1A43BF
:100CD0008A6009E001688A6822F070628A600168AF
:100CE0008A6822F040528A6001688A6822F0020213
:100CF0008A6001688A68037E42EA43028A6090F84B
:100D0000201089B101684A6842F400624A600168B3
:100D10004A6822F460424A6001684B68426A521E87
:100D200043EA42324A6004E001684A6822F4006201
:100D30004A600168CA6A22F47002CA620168CB6A1A
:100D4000828B521E43EA0252CA6201688A6822F408
:100D500000728A6001688A6890F8303042EA432263
:100D60008A6001688A6822F480628A6001688A6801
:100D7000406942EA802088607047000000230140FB
:100D8000FEE700000A4601464FF6FF73014802F0F5
:100D90000ABE00001804002070B50446002000229E
:100DA00004EB8001C1F88423401C1028F8D30020F4
:100DB0004FF40075211881F81C21401CA842F9D37A
:100DC000227062700120A070C4F8C42320764021F4
:100DD000A171627684F81C2384F81D0384F81F2314
:100DE00084F81E23010204F11C00FFF777FD294659
:100DF00004F58E70FFF772FD122104F22630FFF722
:100E00004BFD3E2104F54E70FFF768FD002070BDDC
:100E1000704772B6FEE70022AFF3008030B504469B
:100E200001200D4B5D7A002D14D1587A1D54587A4B
:100E300003EB800044605C7A03F108002254587A86
:100E4000421C5A72303008703A2048702F20887047
:100E5000CD70002030BD0000281D00200022002998
:100E600005D001291AD002291BD04FF440720E4937
:100E70000B6823F440730B600B6813430B600A6824
:100E800022F078020A600A68022303EBC0000243E2
:100E90000A60086840F48030086070474FF4807240
:100EA000E5E74FF40072E2E7103C024013480168A6
:100EB00089050FD5016821F400710160016841F4D2
:100EC00000610160016821F400610160016841F482
:100ED00000710160016849050FD5016821F4806146
:100EE0000160016841F480510160016821F4805182
:100EF0000160016841F4806101607047003C02407C
:100F000010B50E4800F022F80D4C20600D4800F09E
:100F10001DF82168401A401C60600B4A00231360D2
:100F20009160D0600220106104F10801104600F0C9
:100F300037FB08B1012010BD002010BD00000108E2
:100F4000DC000020FBFF0F08A473002001460020F6
:100F5000A1F100624FF480439A4204D32048084430
:100F6000984201D2012070471E480844984201D29D
:100F7000022070471C480844984201D20320704761
:100F80001A480844B0F5803F01D204207047184841
:100F90004FF400320844904201D2052070471548B2
:100FA0000844904201D206207047134808449042FA
:100FB00001D20720704711480844904201D208200E
:100FC00070470F480844904201D2092070470D48ED
:100FD0000844904201D20A2070470B20704700005D
:100FE00000C0FFF70080FFF70040FFF70000FFF7A9
:100FF0000000FEF70000FCF70000FAF70000F8F729
:101000000000F6F70000F4F710B50A4607498842D9
:1010100007D801460023022000F01CFB18B1012074
:1010200010BD012010BD002010BD0000FBFF0F0807
:1010300008490A6822F440720A600A6842F0040211
:101040000A600A684FF4803343EA002002430A60D2
:1010500070470000103C0240064A136823F44073B6
:10106000136013681360136843F001031360017089
:1010700070470000103C024010B509490C6824F488
:1010800040740C600C6844F440740C600C6844F0CC
:1010900001040C600260BFF36F8F436010BD00005D
:1010A000103C0240074A136823F44073136013682E
:1010B00043F480731360136843F0010313600180ED
:1010C00070470000103C0240074A136823F4407345
:1010D0001360136843F400731360136843F0010353
:1010E0001360016070470000103C02401749086817
:1010F000C206174805D5C26942F01002C26110222B
:101100000A600A68920605D5C26942F00802C26107
:1011100020220A600A68520605D5C26942F004021C
:10112000C26140220A600A68120605D5C26942F00F
:101130000202C26180220A600A68920705D5C2696C
:1011400042F02002C2610220086070470C3C02405D
:101150001000002070B5044611490020C86100F05D
:10116000C3FB05460F4E09E0601C07D024B100F018
:10117000BBFB401BA04201D9032070BD3068C003F7
:10118000F2D43068C00701D001203060306810F020
:10119000F20F03D0FFF7AAFF012070BD002070BD41
:1011A000100000200C3C024078B50024009490F818
:1011B0003C20012A19D0012280F83C200A6807252A
:1011C000092A14D90368DE680A3A02EB4202954004
:1011D000AE43DE600A788B680A3A02EB4202934023
:1011E0000268D5682B43D36011E0022078BD036804
:1011F0001E6902EB42029540AE431E610A788B687D
:1012000002EB42029340026815692B4313614A685E
:101210001F25072A13D203685E6B521E02EB82025F
:101220009540AE435E630A8893B20A79521E02EB80
:10123000820293400268556B2B43536328E00D2ACA
:1012400013D203681E6BD21F02EB82029540AE439D
:101250001E630A8893B20A79D21F02EB820293407E
:101260000268156B2B43136312E00368DE6A0D3AC4
:1012700002EB82029540AE43DE620A8893B20A799D
:101280000D3A02EB820293400268D56A2B43D36287
:10129000174A184B05689D4206D10D68122D03D1DF
:1012A000556845F48005556005689D421BD10B6863
:1012B000102B01D0112B16D1536843F40003536057
:1012C000096810290FD10C490C4A0968B1FBF2F1E9
:1012D00001EB81014900009102E00099491E009153
:1012E00000990029F9D180F83C40002078BD000029
:1012F00000230140002001403C00002040420F003C
:1013000070B504460026002C03D0206C002510B1D7
:1013100007E0012070BD204600F01CF8656484F8E9
:101320003C50206CC00610D4206C20F4885040F053
:10133000020020642046FFF78BFC6564206C20F0DF
:10134000020040F00100206400E0012684F83C50D7
:10135000304670BD30B587B00446142102A8FFF7AF
:10136000BDFA1949206888422CD100241748016829
:1013700041F480710160006800F4807001901348AE
:101380001438016841F004010160016801F00401B2
:101390000191016841F001010160006800F0010065
:1013A00001900F20029003250395049402A9084898
:1013B00000F0A4F98F2002900395049402A9054837
:1013C00000F09CF907B030BD0020014044380240D5
:1013D000000802400000024010B50446002C02D074
:1013E000607910B106E0012010BD00202071204678
:1013F00000F004F801206071002010BD08B50068FD
:101400000649884208D10648016841F480510160CC
:10141000006800F48050009008BD000000300240D9
:1014200030380240704770B5002820D0F9B14379B8
:10143000012B1ED0012646710223037103681D682B
:1014400002F0100240F6FE749440A543D1E9004139
:101450000C4394402C431C6001680B68C0249440EA
:10146000A3430B60067100214171084670BD012045
:1014700070BD022070BD70472DE9F0410446206820
:101480000568466BA9044FF0040710D5B1040ED5CA
:101490002771216941F001012161F902416320684E
:1014A000016821F4805101602046FFF7E4FFA800A5
:1014B00014D5B00012D52771206940F002002061D8
:1014C00021684FF0005048632068016821F0805186
:1014D00001602046BDE8F041FFF7A4BFBDE8F08100
:1014E00070B50446002C03D02079002510B105E02A
:1014F000012070BD6571204600F008F802202071BF
:10150000256101202071002070BD000010B586B05B
:101510000446142101A8FFF7E1F915492068884223
:1015200024D100211348026842F000520260006892
:1015300000F0005000900F481038026842F001029D
:101540000260006800F0010000903020019003204C
:101550000290039101A9084800F0D0F800220F2161
:10156000362000F0C7FD362000F0B6FD06B010BDF5
:1015700000740040403802400000024070B504464C
:1015800000F0B2F90546601C02D00448007804441B
:1015900000F0AAF9401BA042FAD370BD3000002031
:1015A0002DE9F04704460E46DFF88C8098F81800C5
:1015B00001280BD0012088F818004CF25039484619
:1015C000FFF7C8FD0246100003D02FE00220BDE85F
:1015D000F0874FF0FF3030602068184F012801D0AD
:1015E000A5681CE0207C6168FFF722FD4846FFF7F4
:1015F000B1FD0246386820F00400386014E0217C18
:101600002846FFF72BFC4846FFF7A4FD0246386842
:1016100020F07A0038600AB1356005E06D1CD4E92D
:1016200002100844A842EAD8FFF740FC002088F8DE
:1016300018001046CBE7000010000020103C0240CC
:101640000348016841F0004101600020704700003C
:10165000103C02402DE9F0470646894614461D46D7
:10166000194F387E012808D0012038764CF25038C6
:101670004046FFF76FFD18B114E00220BDE8F08787
:101680009EB1012E16D0022E19D022462B46484676
:10169000FFF7F2FC4046FFF75DFD0C490A6822F0B7
:1016A00001020A6000213976E8E7E1B24846FFF717
:1016B000D3FCEFE7A1B24846FFF7F4FCEAE7214686
:1016C0004846FFF701FDE5E710000020103C02400E
:1016D000002007490A68002A09DA054A054B0C3A36
:1016E0001360054B13600968002900DA0120704778
:1016F000103C024023016745AB89EFCD2DE9F84F3F
:101700000022DFF89C914FF0010803274FF00F0CE7
:1017100009F1040AA9F1040B08FA02F50B682B4041
:10172000AB426ED10C7904F00304012C01D0022CE1
:1017300015D18668540007FA04FE26EA0E06D1F891
:101740000CE00EFA04FE4EEA060EC0F808E044680B
:10175000AC430D79C5F300159540254345600C79E0
:10176000E443A40708D0C568540007FA04F6B5435B
:101770008E68A6402E43C6600C7904F00304022C48
:1017800011D1D40800EB8406356A5407E40E0CFA34
:1017900004FE25EA0E05D1F810E00EFA04FE4EEA2A
:1017A000050EC6F820E00568540007FA04F6B543B4
:1017B0000E7906F00306A6402E4306604C6814F42A
:1017C000403F67D0374C256845F480452560246844
:1017D00004F480440094344C22F003052E19D6F80A
:1017E000085894074FEA147E0CFA0EF4A5432F4CC8
:1017F000A04201D1002424E02D4CA04202D10124BA
:101800001FE047E02B4CA04201D1022419E02A4CF2
:10181000A04201D1032414E0284CA04201D10424A9
:101820000FE0274CA04201D105240AE0254CA0423C
:1018300001D1062405E0244CA04201D1072400E098
:10184000082404FA0EF42C43C6F80848D9F80040DE
:101850009C434D68ED0200D51C43C9F80040DAF8FE
:1018600000409C434D68AD0200D51C43CAF80040BF
:10187000DBF800409C434D68AD0300D51C43CBF81A
:101880000040074D083D2C689C434E68F60300D588
:101890001C432C60521C102AFFF43EAFBDE8F88FA9
:1018A000083C014044380240003001400000024042
:1018B0000004024000080240000C024000100240F8
:1018C0000014024000180240001C02400069084257
:1018D00001D00120704700207047002A01D08161AB
:1018E00070470904816170470148806870470000B3
:1018F00030000020D0F8DC0304F062B9D0F8DC033B
:1019000004F067B9006805F094BD006805F095BD66
:10191000C1EB011100EB8100002200F81A2F427088
:10192000C272827200207047C1EB011100EB81008E
:1019300090F84C007047C1EB011100EB8100806B07
:1019400070472DE9FF4F83B00546DDE91078129E00
:101950008A46934695F8D40301281CD0012385F8C4
:10196000D433CAEB0A1005EB80044FF0000984F869
:1019700019900698207584F815A084F826800BF03D
:101980007F00A07551462846FFF7C2FF5FEA0B6053
:1019900005D5E37505E0022007B0BDE8F08F84F8B7
:1019A0001790286805F049FDB8F1010F05D1012F06
:1019B00003D110B9BC2E00D9BC262776B0B2208541
:1019C000CDE90078029028685A465146069B05F0FA
:1019D000BBFD85F8D493DFE770472DE9F003DDE91F
:1019E000078C069F099DC1EB011400EB8404E2758E
:1019F00084F826300226002F0AD084F82A600025B9
:101A000063B1012B4FD0022B27D0032B4DD137E0F0
:101A10004FF0030984F82A906576F0E7012F44D14E
:101A20001AB1A27E012A0FD03FE0BCF1000F02D113
:101A3000012284F83D2094F83D2012B184F82A60F8
:101A400033E084F82A5030E094F83C2012B184F856
:101A50002A602AE084F82A5027E02AB194F83C2032
:101A60005AB184F82A6020E094F83D2012B184F83D
:101A70002A601AE084F82A5017E084F82A5014E00B
:101A80002AB194F83C205AB184F82A600DE094F809
:101A90003D2012B184F82A6007E084F82A5004E05F
:101AA00084F82A5001E084F82A50C4F82C80C4F845
:101AB00034C084F84C50A563617584F84D50827928
:101AC00004F114010068BDE8F00305F0D7BD2DE96D
:101AD000F04104462068064605F0B7FC012876D19F
:101AE000206805F0AFFF002871D0206805F0AAFF3C
:101AF000800203D521684FF400104861206805F08A
:101B0000A1FFC00203D521684FF48010486120680E
:101B100005F098FF400103D521684FF080604861CF
:101B2000206805F08FFF800702D5216802204861F8
:101B3000206805F087FF800018D521684FF000501D
:101B40004861D6F84004C00710D11021304605F096
:101B50004EFC304605F02BFC607A022803D10121AF
:101B6000206805F049FF2046FFF7C8FE206805F011
:101B700069FFC00102D5204602F016FB206805F07F
:101B800061FF000705D5204600F0D3F82168082042
:101B90004861206805F056FF800125D5206805F0D2
:101BA00069FD074600254FF0010816E005F00F011A
:101BB00008FA01F038420FD006EB4510D0F80005C6
:101BC000000405D5E9B2204601F044FF04E01EE020
:101BD000E9B2204602F04BF96D1C6079A842E5D8C5
:101BE00021684FF000704861206805F02BFFC0436A
:101BF000C0060CD42068816921F010018161204663
:101C000002F022FB2068816941F010018161BDE88A
:101C1000F081F8B50446002C05D0256894F8D5036A
:101C2000002610B106E00120F8BD84F8D4632046F8
:101C300000F032F8032084F8D503B5F1A04F00D1AD
:101C4000A671206805F07AFB207C8DF8000094E8EE
:101C50000F0005F005FB022518B184F8D5530120CB
:101C6000F8BD0121206805F02AFF18B184F8D5538A
:101C70000120F8BD207C8DF8000094E80F0005F0ED
:101C800045FE18B184F8D5530120F8BD012084F831
:101C9000D5030020F8BD000010B586B0044614211D
:101CA00001A8FEF71BFE2068B0F1A04F2FD1002144
:101CB0001848026842F001020260006800F001006A
:101CC00000904FF4C0500190022002900391032035
:101CD00004900A20059001A90F48FFF70FFD0D4859
:101CE000001D016841F0800101600A48143001685C
:101CF00041F480410160006800F4804000900022BF
:101D00001146432000F0F6F9432000F0E5F906B053
:101D100010BD00003038024000000240D0F8DC0363
:101D200003F0E1BFD0F8DC0303F0E4BF006805F086
:101D3000ACBED0F8DC0303F098BF10B5044694F8AD
:101D4000D40301280DD0012084F8D4030121206898
:101D500005F00AFB206805F024FB002084F8D4037A
:101D600010BD022010BD10B5044694F8D40301281C
:101D700009D0012084F8D403206805F0D0FE0020AB
:101D800084F8D40310BD022010BD000070B50446D5
:101D9000002C04D094F83D00002510B106E001208D
:101DA00070BD84F83C50204600F0BCF8242084F834
:101DB0003D002068016821F0010101602068016890
:101DC00041F4004101602068016821F40041016094
:101DD00000F08CFA4F4B6168994203D84E49884213
:101DE00003D304E04D49884201D2012070BD4C4923
:101DF000B0FBF1F12268566826F03F060E435660AC
:101E000062689A4201D8491C07E04FF49672514328
:101E10004FF47A72B1FBF2F1491C2268166A26F07F
:101E20003F06314311626168994210D84900401E53
:101E3000B0FBF1F2521CC2F30B02042A01D20420BF
:101E400022E0B0FBF1F0401CC0F30B001CE0A268E4
:101E5000F2B301EBC10303EB0116431EB3FBF6F330
:101E60005B1C43F480431B0549D092B301EBC102D4
:101E700002EB0111401EB0FBF1F0401CC0F30B005F
:101E800040F4804040F400402168CA694CF6FF737A
:101E90009A431043C861D4E90710014320680268DF
:101EA00022F0C00211430160D4E90301014320681C
:101EB000826848F2FF339A4311438160D4E90510E8
:101EC00001432068C26822F0FF021143C16001E0B3
:101ED0000EE016E02068016841F001010160256410
:101EE000202084F83D00256384F83E50002070BD1A
:101EF00001EB4106431EB3FBF6F35B1CB3E7012085
:101F0000C2E701EB4101401EB0FBF1F0401CC0F301
:101F10000B00B7E7A086010080841E0000093D0089
:101F200040420F0010B586B00446142101A8FEF708
:101F3000D5FC14492068884221D10021124802684A
:101F400042F002020260006800F0020000904FF4CC
:101F5000406001901220029003910320049004201D
:101F6000059001A90948FFF7C9FB0748103001682F
:101F700041F480010160006800F48000009006B028
:101F800010BD0000005800403038024000040240FC
:101F90000248816802781144816070473000002057
:101FA00010B50B48016841F400710160016841F40B
:101FB00080610160016841F480710160032000F0DC
:101FC000B9F80F2000F006F800F050F8002010BD1E
:101FD000003C024030B587B0054600241E48016829
:101FE00041F080010160006800F08000009001A9CC
:101FF00002A800F057F90598A8B100F077F9400061
:102000001649B0FBF1F1491E1648154A026040F22C
:10201000E732C260416004618460846100F052FF75
:1020200004461CB115E000F061F9E9E70D4800F045
:10203000E9FF04466CB92C2000F04EF8102D07D2B1
:10204000002229462C2000F055F80748056000E0E2
:10205000012407B0204630BD4038024040420F0006
:10206000001C0040380500203400002008B50A4854
:10207000016841F480410160006800F480400090F4
:102080000548001F016841F080510160006800F0C0
:102090008050009008BD000044380240002809DB51
:1020A00000F01F02012191404009800000F1E02072
:1020B000C0F88012704700280DDB00F01F020121DC
:1020C00091404009800000F1E020C0F88011BFF38A
:1020D0004F8FBFF36F8F7047002809DB00F01F029E
:1020E000012191404009800000F1E020C0F800117A
:1020F00070470000F0B40D460D4B1B68C3F302237C
:10210000C3F10704042C00D90424191D072901D2A6
:10211000002300E0DB1E012606FA04F1491E2940D7
:1021200099409E40761E16403143F0BC05F055BDE7
:102130000CED00E000F00701054A10684FF6FF03C0
:10214000184040EA0120034908431060704700002E
:102150000CED00E00000FA052DE9F04704460D46BD
:10216000002C13D0DFF82891D9F80000EFB200F06E
:102170000700A8420CD289F80070D9F8000000F0DE
:102180000700A84204D00120BDE8F0870120FBE74A
:102190002068404E810712D5400703D5306840F4CF
:1021A000E05030602078000703D5306840F460408C
:1021B00030603068A16820F0F0000843306020787B
:1021C000C00731D0334960680839012808D0022897
:1021D0000BD0032809D0096889070BD40120D3E765
:1021E0000968890306D40120CEE70968890101D472
:1021F0000120C9E7316821F0030101433160FFF795
:1022000073FB804641F2883A07E0FFF76DFBA0EBD5
:102210000800504501D90320B6E73068616800F036
:102220000C00B0EB810FF0D1D9F8000000F00700EE
:10223000A84209D989F80070D9F8000000F0070019
:10224000A84201D001209FE72078400705D53068DB
:10225000E16820F4E050084330602078000706D59C
:102260003068216920F4604040EAC100306000F02D
:102270005DF83168084AC1F30311515CC840074951
:10228000086007480068FFF7A5FE00207CE7000013
:10229000003C024008380240E0DA00083C00002020
:1022A000340000200F2202600B4A136803F003037E
:1022B0004360136803F0F0038360136803F4E05392
:1022C000C360126802F46042D208026103480068E9
:1022D00000F007000860704708380240003C0240E8
:1022E00001480068704700003C00002000B5FFF77F
:1022F000F7FF04490968044AC1F38221515CC840D0
:1023000000BD000008380240F0DA000800B5FFF711
:10231000E7FF04490968044AC1F34231515CC840EF
:1023200000BD000008380240F0DA000810B5174878
:10233000006810F00C01164816D0164B042912D074
:10234000082911D1114C241F216801F03F02216896
:1023500049020AD52068C0F38810A0FB03010023BE
:10236000FDF7EBFF09E0184610BD21680023C1F31B
:102370008811A1FB0001FDF7E0FF2168C1F30141D5
:10238000491C4900B0FBF1F010BD000008380240C4
:102390000024F40040787D012DE9F84F0446002C1C
:1023A00013D02078DFF8A083C007A8F1040556D029
:1023B00008F104000168C1F3810101290CD0006813
:1023C000C0F38100022803D00DE00120BDE8F88FA2
:1023D000D8F80000400206D5286880033FD5606821
:1023E00070BB0120F2E76068B0F5803F10D0B0F517
:1023F000A02F12D0286820F480302860286820F4AC
:10240000802028606068E0B1FFF76EFA064614E0AD
:10241000286840F480302860F4E7286840F4802081
:102420002860286840F480302860EBE7FFF75CFA0A
:10243000801B642801D90320C8E728688003F5D5EC
:102440000DE0FFF751FA064606E0FFF74DFA801B54
:10245000642801D90320B9E728688003F5D42078DF
:10246000BA4F80074FF0000948D5B748001D0168F2
:1024700011F00C0F08D00068C0F38100022813D1BE
:10248000D8F8000040020FD42868800704D5E0681F
:10249000012801D0012099E72868216920F0F8007F
:1024A00040EAC100286029E0E068B8B10120386046
:1024B000FFF71AFA064606E0FFF716FA801B022815
:1024C00001D9032082E728688007F5D528682169AB
:1024D00020F0F80040EAC10028600FE0C7F8009043
:1024E000FFF702FA064606E0FFF7FEF9801B022816
:1024F00001D903206AE728688007F5D4207800070F
:1025000029D5DFF844A2924861690AF1700A89B1BD
:1025100001210160FFF7E8F9064606E0FFF7E4F95C
:10252000801B022801D9032050E7DAF80000800759
:10253000F4D510E0C0F80090FFF7D6F9064606E0A3
:10254000FFF7D2F9801B022801D903203EE7DAF811
:1025500000008007F4D42078400778D54FF0000AB7
:1025600079483C300068C0000BD477483C300168A3
:1025700041F080510160006800F0805000904FF001
:10258000010ADFF8D0B1DBF80000C00514D4DBF895
:10259000000040F48070CBF80000FFF7A5F9064674
:1025A00006E0FFF7A1F9801B022801D903200DE7FF
:1025B000DBF80000C005F4D5634EA0686C36012836
:1025C0000FD0052812D0306820F00100306030684C
:1025D00020F004003060A068F8B1FFF785F9834669
:1025E00017E0306840F001003060F4E7306840F0F8
:1025F00004003060306840F001003060EBE7FFF726
:1026000073F9A0EB0B0141F28830814201D903201C
:10261000DCE630688007F2D510E0FFF765F9834605
:1026200009E0FFF761F9A0EB0B0141F2883081422C
:1026300001D90320CAE630688007F2D4BAF1010F4D
:1026400005D141483C30016821F080510160A0690A
:10265000C0B33D49091D09684FF0FF36C1F3810140
:10266000022946D0022805D0C7F86090FFF73CF950
:1026700004463AE0C7F86090FFF736F9814607E074
:10268000FFF732F9A0EB0900022801D903209DE6EB
:1026900028688001F4D4D4E907010843616AA26A7A
:1026A000890106EB520241EA0241084394F82C10DA
:1026B00040EA0160C8F8000001203866FFF714F90D
:1026C000044607E03DE0FFF70FF9001B022801D99F
:1026D00003207BE628688001F5D532E0FFF704F996
:1026E000001B022801D9032070E628688001F5D478
:1026F00027E0012823D0D8F80000E26900F4800127
:1027000091421AD1226A00F03F01914215D147F659
:10271000C071626A0140B1EB821F0ED1A26A00F45F
:10272000403106EB5202B1EB024F06D194F82C1067
:1027300000F07060B0EB016F03D0012046E601208D
:1027400044E6002042E60000043802400000474210
:10275000800E47420070004070B50446002C03D044
:102760006079002510B105E0012070BD257120467B
:1027700000F00CF8022060712068016841F004014B
:10278000016001206071A560002070BD08B500687F
:102790000649884208D10648016841F040010160BD
:1027A000006800F04000009008BD000000080650DE
:1027B0003438024070B50446002C09D0606A002508
:1027C00040B125616561A56294F8510040B10CE00B
:1027D000012070BD6068B0F5827FF4D0E561F2E75A
:1027E00084F85050204600F045F8022084F851004B
:1027F0002068016821F040010160A088218900F46F
:10280000827001F404410843A18901F40061084386
:10281000217C01F002010843217D01F00101084300
:10282000218B01F400710843217F01F03801084336
:1028300094F8201001F080010843218D01F400512B
:10284000084321680860A069042101EA104094F857
:10285000241001F010010843216848602068C16914
:1028600021F40061C1616565012084F851000020F8
:1028700070BD0000F0B587B00446142102A8FEF731
:102880002DF82E4A2C4F21682C4B103A022401209F
:1028900003252B4EB94226D1196841F480411960B5
:1028A000196801F480410191116841F00201116041
:1028B000116801F00201019129030291039404902F
:1028C00005950527069702A93046FEF717FFA803CE
:1028D0000290039404940595069702A93046FEF7EA
:1028E0000DFF07B0F0BD174FB942FAD1196841F496
:1028F00000411960196801F400410191116841F02B
:1029000002011160116801F0020101910821029198
:102910000394049005950627069702A93046FEF712
:10292000EDFE30200290039404940595069702A9C9
:102930003046FEF7E3FED4E700380040403802405E
:1029400000040240003C00402DE9F84F04468A464E
:1029500091461D4694F85100012802D00220BDE89E
:10296000F88FBAF1000F08D0B9F1000F05D06068F8
:102970000427B0F5827F02D003E00120EFE7A068D2
:10298000F0B1FEF7B1FF064694F85000012821D0BF
:102990004FF0010884F8508084F851700027676573
:1029A000C4F838A0A4F83C90A4F83E902763A7860A
:1029B000E78627646764A068B0F5004F0CD015E087
:1029C00084F851704B46524651462046009500F01F
:1029D00032F9C4E70220C2E72068016821F0400113
:1029E00001602068016821F480410160206801686D
:1029F000490603D4016841F040010160E068B0B1CC
:102A000035E020688168C90709D0007BA16B087098
:102A1000A06B401CA063E08F401EE08707E0FEF73C
:102A200063FF801BA84201D3681C04D11DB1E08F55
:102A30000028E6D11EE084F8518084F8507003200D
:102A40008DE720688168C90709D0C068A16B08803C
:102A5000A06B801CA063E08F401EE08707E0FEF7BC
:102A600043FF801BA84201D3681C13D195B1E08FAE
:102A70000028E6D132462946204602F0D8F808B1AF
:102A80002020606584F8518084F85070606D38B102
:102A9000012064E784F8518084F8507003205EE7D9
:102AA00000205CE72DE9F84F04468A4617461D468C
:102AB000FEF71AFF064694F85100012802D00220C2
:102AC000BDE8F88FBAF1000F23D0380021D094F878
:102AD000500001281FD04FF0010984F850900320C6
:102AE00084F851004FF00008C4F85480C4F830A0B6
:102AF000A786E786C4F83880A4F83C80A4F83E8016
:102B0000C4F84480C4F84080A068B0F5004F04D0F9
:102B10000DE00120D4E70220D2E72068016821F00F
:102B2000400101602068016841F480410160206833
:102B30000168490603D4016841F040010160E06882
:102B4000B0F5006F04D0606888B3012F30D050E03A
:102B5000606808B1012F20D1206B21680088C8600F
:102B6000206B801C2063E08E401EE08615E020680C
:102B70008168890709D5216B0988C160206B801C99
:102B80002063E08E401EE08607E0FEF7ADFE801B6E
:102B9000A84201D3681C04D11DB1E08E0028E6D103
:102BA0002AE084F8519084F85080032088E7FFE7FA
:102BB000206B216800780873206B401C2063E08E36
:102BC000401EE08615E020688168890709D5216BE1
:102BD00009780173206B401C2063E08E401EE08664
:102BE00007E0FEF781FE801BA84201D3681C0ED1CE
:102BF0006DB1E08E0028E6D132462946204602F02B
:102C00005DF808B120206065A06830B109E084F863
:102C1000519084F85080032052E72068C168806892
:102C2000009084F8519084F85080606D08B10120C4
:102C300046E7002044E72DE9FF4F81B004460E9E91
:102C400093461F460125FEF74FFE804694F851003B
:102C5000616801280AD0B1F5827F03D1A16809B962
:102C6000042803D0022005B0BDE8F08F0298A0B37D
:102C7000BBF1000F32D0380030D094F8500001285A
:102C80002ED04FF0010A84F850A094F85100042887
:102C900002D0052084F851004FF00009C4F8549088
:102CA000C4F838B0E787A78702982063E786A7862D
:102CB000C4F84090C4F8449020680168490603D4E1
:102CC000016841F040010160E068B0F5006F09D093
:102CD0006068F0B3012F4DD082E0FFE70120C2E72A
:102CE0000220C0E7606808B1012F3CD1206B216849
:102CF0000088C860206B801C2063E08E401EE08648
:102D000031E02068816889070DD5E18E59B1012D28
:102D100009D1216B0988C160206B801C2063E08E83
:102D2000401EE086002520688168C9070BD0E18F2E
:102D300049B1C068A16B0880A06B801CA063E08FC4
:102D4000401EE0870125FEF7CFFDA0EB0800B04252
:102D500000E00FE007D3701C05D084F851A084F880
:102D6000509003207FE7E08E0028CAD1E08F002832
:102D7000C7D13BE0206B216800780873206B401CB2
:102D80002063E08E401EE0862AE020688168890783
:102D90000DD5E18E59B1012D09D1216B097801734F
:102DA000206B401C2063E08E401EE08600252068DA
:102DB0008168C9070BD0E18F49B1C068A16B087069
:102DC000A06B401CA063E08F401EE0870125FEF74A
:102DD0008BFDA0EB0800B04201D3701C12D18EB164
:102DE000E08E0028D1D1E08F0028CED14246314676
:102DF000204601F063FF58B12020606584F85090B0
:102E0000012030E784F851A084F8509003202AE78D
:102E1000A06818B92068C1688068009084F851A043
:102E200084F85090606D08B101201CE700201AE77B
:102E30007047704770B590F83C20012A31D00126C8
:102E400080F83C60022280F83D2002685468936854
:102E500024F070050C682C435460134C0268A242A5
:102E600014D0B2F1804F11D0104CA2420ED0104CB1
:102E7000A2420BD00F4CA24208D00F4CA24205D068
:102E80000E4CA24202D00E4CA24204D123F0800389
:102E90004968194391603C30467000210170002060
:102EA00070BD022070BD0000000001400004004021
:102EB00000080040000C00400004014000400140B8
:102EC0000018004010B50446002C03D094F83D00D3
:102ED00010B107E0012010BD002084F83C0020461E
:102EE00000F016F8022084F83D00211D206801F052
:102EF000E5FF01203D3460726070A070E0702071C9
:102F00006071A071E07120722070002010BD00007F
:102F100010B586B00446142101A8FDF7DFFC206837
:102F200000223149B0F1804F22D0304B984228D155
:102F3000086840F002000860086800F00200009095
:102F400029481038016841F004010160006800F070
:102F50000400009098150190022002900121039135
:102F60000492059001A92248FEF7C8FB06B010BDE7
:102F7000086840F001000860086800F00100009057
:102F8000F4E71C4A904208D1086840F00400086049
:102F9000086800F004000090E8E7174A904208D162
:102FA000086840F020000860086800F020000090E9
:102FB000DCE7124A90420AD10B48001D016841F437
:102FC00080310160006800F480300090CEE70C4A48
:102FD0009042CBD1086840F480700860086800F423
:102FE00080700090C2E700004038024000040040BA
:102FF000000802400008004000140040004001406A
:103000000020004090F83D10012901D001207047B8
:10301000022180F83D100168CA6842F00102CA60CE
:1030200000681449884214D0B0F1804F11D0124981
:1030300088420ED0114988420BD01149884208D0ED
:103040001049884205D01049884202D00F49884271
:1030500009D1816801F00701062908D0016841F013
:103060000101016003E0016841F0010101600020FD
:1030700070470000000001400004004000080040CC
:10308000000C0040000401400040014000180040D6
:1030900070B50446002594F83C00012817D001269D
:1030A00084F83C60022084F83D002068826822F0A9
:1030B000770222F47F4282600868502838D00DDC05
:1030C000202853D005DC90B3102811D14EE0022007
:1030D00070BD30284AD040280AD13DE0602831D068
:1030E00070280CD0B0F5805F03D0B0F5005F12D02F
:1030F00001253C34667000202070284670BDCB68E6
:10310000D1E90121206801F050FF2068816841F079
:1031100077018160EDE7CB68D1E90121206801F0FA
:1031200044FF2068816841F480418160E1E71DE04F
:10313000CA684968206802F01BF85021206801F035
:103140003EFFD6E7CA684968206802F063F860214C
:10315000206801F034FFCCE7CA684968206802F0B3
:1031600007F84021206801F02AFFC2E722680146E3
:10317000104601F024FFBCE7704770B505460C46C9
:10318000002695F83C0001280FD0012085F83C006E
:103190006AB1042A1CD0082A2CD00C2A3BD0012664
:1031A000002085F83C00304670BD022070BDD4E997
:1031B0000012E368286801F0EDFF2868816921F0BA
:1031C0000C01816128688169A26811438161E7E788
:1031D000D4E90012E368286802F02EF828688169B3
:1031E00021F44061816128688169A26841EA022175
:1031F0008161D5E7D4E90012E368286802F037F866
:103200002868C16921F00C01C1612868C169A26800
:103210001143C161C4E7D4E90012E368286802F0F1
:103220003FF82868C16921F44061C1612868C1691B
:10323000A26841EA0221C161B2E710B50446002C40
:1032400003D094F83D0010B107E0012010BD00202C
:1032500084F83C00204600F015F8022084F83D0078
:10326000211D206801F02AFE01203D34607260704B
:10327000A070E07020716071A071E0712072207008
:10328000002010BD70472DE9F04104462068C56854
:1032900006694FF00007B10714D5A90712D5F91E2A
:1032A00001610120207720688069800703D02046D3
:1032B000FFF762FF05E0204600F0FAF8204600F034
:1032C0008AF92777700717D5680715D521686FF039
:1032D00004000861022020772068806910F4407F94
:1032E00003D02046FFF748FF05E0204600F0E0F855
:1032F000204600F070F92777300716D5280714D537
:1033000021686FF008000861042020772068C069F8
:10331000800703D02046FFF72FFF05E0204600F08E
:10332000C7F8204600F057F92777F00617D5E806CA
:1033300015D521686FF010000861082020772068FB
:10334000C06910F4407F03D02046FFF715FF05E069
:10335000204600F0ADF8204600F03DF92777F00751
:1033600008D0E80706D021686FF001000861204608
:1033700000F0DEF9300608D5280606D521686FF082
:10338000800008612046FFF753FD700608D56806E7
:1033900006D521686FF040000861204600F0D2F9A0
:1033A000B0060AD5A80608D521686FF0200008618C
:1033B0002046BDE8F041FFF73CBDBDE8F0810000CC
:1033C00030B587B00446142102A8FDF787FA2068BB
:1033D00000232F4902220124B0F1804F16D02D4D39
:1033E000A84227D1086840F004000860086800F08F
:1033F00004000190481502900392049405930692EC
:1034000002A92548FEF77AF907B030BD086840F0F8
:1034100001000860086800F0010001904FF40040CE
:103420000290039204920593069402A91B48FEF7AA
:1034300065F9E9E71A4CA04213D1086840F008008A
:103440000860086800F0080001904FF4E040029026
:10345000039204920593069202A91248FEF74EF9D0
:10346000D2E7114CA042CFD1086840F010000860AC
:10347000086800F01000019040200290039204922E
:1034800005930320069002A90848FEF737F9BBE729
:1034900030380240000400400008024000000240B2
:1034A00000080040000C02400040014000100240B3
:1034B000704770B504460D46002694F83C0001287C
:1034C0000FD0012084F83C006AB1042A1FD0082ADA
:1034D00032D00C2A44D00126002084F83C0030462B
:1034E00070BD022070BD2946206801F071FD206882
:1034F000816941F0080181612068816921F004013E
:103500008161206881692A6911438161E4E7294664
:10351000206801F091FD2068816941F400618161BA
:103520002068816921F480618161206881692A694C
:1035300041EA02218161CFE72946206801F0B6FD0A
:103540002068C16941F00801C1612068C16921F0AA
:103550000401C1612068C1692A691143C161BBE7E7
:103560002946206801F0DAFD2068C16941F4006154
:10357000C1612068C16921F48061C1612068C169AD
:103580002A6941EA0221C161A6E710B50446002C70
:1035900003D094F83D0010B107E0012010BD0020D9
:1035A00084F83C00204600F015F8022084F83D0025
:1035B000211D206801F082FC01203D3460726070A2
:1035C000A070E07020716071A071E07120722070B5
:1035D000002010BD7047704710B50446002909D07F
:1035E00004290AD008290BD094F8410001280AD0F8
:1035F000012010BD94F83E00F8E794F83F00F5E78D
:1036000094F84000F2E70220A9B3042937D0082932
:1036100038D084F841000122206801F0B9FC1E492D
:1036200020681E4A884201D0904203D1436C43F483
:10363000004343642068884213D0B0F1804F10D01B
:10364000174988420DD0174988420AD01649884246
:1036500007D0904205D01549884202D014498842CB
:1036600013D1816801F00701062912D0016841F0E9
:10367000010101600DE0FFE784F83E00CBE784F82C
:103680003F00C8E784F84000C5E7016841F0010148
:103690000160002010BD0000000001400004014056
:1036A0000004004000080040000C004000400140C1
:1036B0000018004030B504460D4600222946206817
:1036C00001F066FC184A41F2111120688B109042FB
:1036D00002D0164A904209D1026A0A4206D1026A11
:1036E0001A4203D1426C22F4004242642068026A0A
:1036F0000A4206D1016A194203D1016821F0010191
:10370000016001203DB1042D08D0082D09D084F8B6
:103710004100002030BD84F83E00FAE784F83F0005
:10372000F7E784F84000F4E700000140000401409E
:1037300000680349884201D1FEF72ABC70470000A7
:10374000001C0040704770B50446002C04D094F86B
:103750004100002510B106E0012070BD84F8405002
:10376000204600F023F8242084F841002068C16836
:1037700021F40051C160204601F0D6FD20680169A6
:1037800021F4904101612068416921F02A014161E1
:103790002068C16841F40051C1606564202084F84C
:1037A000410084F842006563002070BD2DE9F041BE
:1037B00086B00446142101A8FDF790F8464A454E0C
:1037C0002168454D103A0223012408274348B1429D
:1037D0001CD1296841F400212960296801F40021E5
:1037E0000091116841F004011160116801F00401B9
:1037F00000914FF440610191029303930494059763
:1038000001A9FDF77BFF06B0BDE8F081324EDFF87D
:10381000D080361D4FF0070C41451CD1306840F078
:1038200010003060306800F010000090106840F028
:1038300001001060106800F0010000904FF4C060BB
:103840000190029303930494CDF814C001A9254874
:10385000FDF754FFD7E7DFF8908041451CD1286879
:1038600040F480202860286800F4802000901068D0
:1038700040F008001060106800F0080000904FF45D
:1038800040700190029303930494CDF814C001A9F1
:103890001648FDF733FFB6E7154DA942B3D131689D
:1038A00041F020013160316801F020010091116880
:1038B00041F004011160116801F004010091C02180
:1038C0000191029303930494059701A9FDF716FF54
:1038D00099E70000004C00404038024000080240D8
:1038E000001001400000024000480040000C02406F
:1038F000001401402DE9F84F04460E46154698463F
:1039000094F84200202802D00220BDE8F88FBEB112
:10391000B5B100206064222184F842102063FDF7D5
:10392000E3FF8246A585E585A0684FF48057B8423D
:1039300001D1206930B1354600264FF0200928E03A
:103940000120E2E70025F8E7534600222021204627
:10395000CDF8008001F072FD18B184F84290032088
:10396000D3E725B1A068B84219D038B108E0206883
:103970004068C0F3080026F8020B07E0206970B128
:103980002068406800F07F0028706D1CE08D401EAC
:10399000E085E08D0028D7D184F84290B5E7206813
:1039A00040682870F1E72DE9F84304460E461546B5
:1039B0001F4694F84100202802D00220BDE8F88379
:1039C0007EB175B100206064212084F84100FDF7CC
:1039D0008BFF8146A584E584A068B0F5805F02D0A6
:1039E00003E00120EAE7206920B1354600264FF0C8
:1039F000200815E00025FAE74B46002280212046EA
:103A0000009701F01BFD18B184F841800320D5E731
:103A1000ADB1216815F8010B4860E08C401EE084D0
:103A2000E08C0028E8D14B46002240212046009738
:103A300001F004FD50B184F841800320BEE736F860
:103A4000020B2168C0F308004860E6E784F8418073
:103A50000020B3E72DE9F05F05460E46286883464F
:103A6000314603F0E7FFC6EB061140074FF00707AA
:103A70004FF0040805EB81040AD50BEB4610C0F8A3
:103A8000088584F84D703146286803F0E2FC4BE06D
:103A90003146286803F0CEFFC0054FF008090CD569
:103AA0000BEB46114FF48070C1F8080584F84D9077
:103AB0003146286803F0CDFC36E03146286803F033
:103AC000B9FF00070BD50BEB4610C0F80895062090
:103AD00084F84D003146286803F0BBFC24E03146F1
:103AE000286803F0A7FF40050DD50BEB46114FF4F6
:103AF0008060C1F80805092084F84D003146286827
:103B000003F0A7FC10E03146286803F093FF00069D
:103B10000AD50BEB46118020C1F8080584F84D70DA
:103B20003146286803F095FC3146286803F082FF8F
:103B300080050BD53146286803F08BFC0BEB461152
:103B40004FF40070C1F80805BDE8F09F31462868C1
:103B500003F070FFC0074FF0200A4FF001094FF04B
:103B6000000751D00BEB4618C8F808A5E07E0128E5
:103B700006D1E776D8F8040520F48030C8F80405AB
:103B8000A87930B1206BD8F81015C1F31201401A92
:103B9000A0634A4684F84D906764C8F8082594F8F5
:103BA000260030B1022804D003280AD0012808D00A
:103BB00013E03146286803F04CFC1020C8F80805D3
:103BC0000BE0D8F8000540F00050C8F8000584F874
:103BD0004C2031462846FDF7FFFEA879012805D084
:103BE00014F83C0F80F001002070ADE7208DA16B30
:103BF0000144491EB1FBF0F0C007A5D014F83C0FFA
:103C000080F0010020709FE73146286803F012FF22
:103C1000800611D50BEB4610C0F808A5A07E012840
:103C200092D184F81B90032084F84D003146286817
:103C3000BDE8F05F03F00DBC3146286803F0FAFEE2
:103C400080074FF0050A7DD50BEB46100222C0F825
:103C5000082594F84D10012916D0062919D00729F6
:103C60001CD009291AD005293ED0032971D0042976
:103C70006AD0082969D00229B7D094F84C2031467F
:103C80002846FDF7A9FE5FE784F84D2084F84C90A4
:103C9000F3E784F84D2084F84CA0EEE784F84D203B
:103CA000616C491C616402290ED96764A17E0129F7
:103CB00007D1E7762777D0F8041521F48031C0F8D2
:103CC000041584F84C80D8E784F84C2094F826102A
:103CD00009B10229D1D1D0F8001521F0804141F07D
:103CE0000041C0F80015C8E784F84D20E17E0129A5
:103CF000C3D194F8261003290FD084F84C2094F8EF
:103D0000261009B10229B8D1D0F8001521F0804160
:103D100041F00041C0F80015AFE7A16C491CA16457
:103D2000022913D9A764E776616C032901D284F8CC
:103D30001C90D0F8041521F48031C0F8041584F8E3
:103D40004C80DCE744E004E028E039E084F84C20D3
:103D5000D5E784F84D20E17E01298ED184F84C20EE
:103D600000F20450016841F480310160816841F043
:103D700040018160816821F020018160A0F204503F
:103D800094F8261009B1022987D1D0F8001521F046
:103D9000804141F00041C0F800156EE784F84D20E5
:103DA00084F84C2094F8261009B102298BD1D0F860
:103DB000001521F0804141F00041C0F800155CE79A
:103DC00084F84D20606C401C606484F84C8054E79B
:103DD0003146286803F02EFE40060FD50BEB461146
:103DE0004020C1F8080584F84DA0A07E00B96764A2
:103DF00031462868BDE8F05F03F02BBB31462868E8
:103E000003F018FEC0067FF5F0AE94F826000328F4
:103E100003D050B1022808D013E0676484F84D80C5
:103E20003146286803F015FB0BE06764A87910B1F0
:103E3000E07E012805D184F84D803146286803F0E2
:103E400008FBE07E01280CD1E7760BEB461000F270
:103E50000450016821F480310160816841F0200143
:103E600081600BEB46111020C1F808056CE62DE9C6
:103E7000F05F05460F4628680646394603F0DAFD2E
:103E8000C7EB071140074FF0040B05EB81040CD57D
:103E900006EB4710C0F808B5072084F84D003946F6
:103EA0002868BDE8F05F03F0D4BA3946286803F00B
:103EB000C1FD80064FF000084FF0010A4FF00209E3
:103EC00028D506EB47112020C1F80805607E03269F
:103ED000012809D184F8198084F84C9084F84D6049
:103EE0003946286803F0B5FAA07E012810D1E07E9B
:103EF00000280DD194F82600012801D084F81BA0D9
:103F000084F84D603946286803F0A3FAC4F8448069
:103F1000BDE8F09F3946286803F08CFD80050BD57D
:103F200006EB47114FF40070C1F8080539462868C0
:103F3000BDE8F05F03F08DBA3946286803F07AFDDA
:103F4000C00726D0C4F844803946286803F072FDC3
:103F5000400606D584F819A006EB47114020C1F8A9
:103F60000805E07E48B184F81B8006EB4710D0F8C6
:103F7000041521F48031C0F8041506EB4710C0F891
:103F800008A584F84DA039462868BDE8F05F03F025
:103F900060BA3946286803F04DFD400612D5052069
:103FA00084F84D00A07E08B984F819A0C4F84480B4
:103FB0003946286803F04DFA06EB47114020C1F856
:103FC0000805A5E73946286803F034FD00070DD53C
:103FD00006EB47110820C1F80805062084F84D00BB
:103FE00039462868BDE8F05F03F033BA39462868DF
:103FF00003F020FDC00613D5C4F8448084F84DB00A
:10400000607E18B9207E08B984F819A0394628685E
:1040100003F01FFA06EB47111020C1F8080577E7F7
:104020003946286803F006FD00062AD5A87970B144
:10403000606C401C6064022811D9C4F844805A4660
:1040400084F84CB039462846FDF7C6FC13E007203B
:1040500084F84D003946286803F0FBF90BE084F83A
:104060004C9006EB4710D0F8001521F0804141F04C
:104070000041C0F8001506EB47118020C1F8080583
:1040800046E73946286803F0D5FC40050DD50920E0
:1040900084F84D003946286803F0DBF906EB471138
:1040A0004FF48060C1F8080532E73946286803F00C
:1040B000C1FC800785D506EB4711C1F8089594F837
:1040C0004D00012817D003283AD0042840D00528F5
:1040D0004ED0062851D0072801D009289FD184F856
:1040E0004D90606C401C606402284CD9C4F8448038
:1040F00084F84CB051E084F84D9084F84CA094F8CA
:104100002600022801D0032847D1A87928B994F8BD
:104110003D0080F0010084F83D00A87901283CD1E1
:10412000606B20B3218D0844401EB0FBF1F0C00746
:1041300033D094F83D0080F0010084F83D002CE07D
:1041400084F84D90E07E012827D184F84C9024E03B
:1041500084F84D9084F84C90E07E01281DD184F8BD
:104160001B80D1F8040520F48030C1F8040514E068
:1041700084F84D9084F84C900FE084F84D90052021
:1041800084F84C0009E084F84C90D1F8000520F048
:10419000804040F00040C1F8000594F84C203946BA
:1041A0002846FDF719FCB3E67CB505462C68D4F823
:1041B00040040190D4F840040090009820F02E00B4
:1041C00000900198800709D50198C00702D02846C1
:1041D000FDF790FB009840F0020000900198000766
:1041E00027D5009840F008000090019840071DD5A1
:1041F000687A022803D0E87901280FD012E00198EC
:10420000C0F34140022804D00121286803F0F4FBE8
:1042100008E00221286803F0EFFB03E04EF660207F
:10422000C4F804042846FDF77DFD02E02846FDF7AA
:1042300075FD0198800603D5009840F0200000909D
:104240000098C4F840047CBD2DE9F041034618688D
:104250000746016A01F00F06C1F34342C1F30A1594
:10426000022A2ED1002D2CD0C6EB061103EB8104BF
:10427000E16A002925D0A26B636B2A449A4222D8B6
:10428000AAB203F0E3FBE06A2844E062A06B284492
:10429000A06307EB4610D0F81015C1F3C941228D79
:1042A000AA420ED100290CD0D0F8001521F080418F
:1042B00041F00041C0F8001514F83C0F80F00100F7
:1042C0002070BDE8F081042084F84C00F9E7FEE797
:1042D0002DE9FF41002400940194029403944D4879
:1042E0004B4901604FF480314160846001250561D4
:1042F000057680F82040C46247498162C4600C267C
:10430000C66180F830404561FCF7FAFF08B1FCF760
:1043100080FD009401950627029769463D48FCF709
:1043200043FF08B1FCF775FD00950224019469462E
:104330003848FCF739FF08B1FCF76BFD0094032403
:10434000019469463348FCF72FFF08B1FCF761FD83
:1043500000940420019069462E48FCF725FF08B11F
:10436000FCF757FD0725009505200190694629486F
:10437000FCF71AFF08B1FCF74CFD0A2400940197E2
:1043800069462448FCF710FF08B1FCF742FD0B27F3
:104390000097019569461F48FCF706FF08B1FCF736
:1043A00038FD00960820019069461A48FCF7FCFE8B
:1043B00008B1FCF72EFD0D20009009200190694600
:1043C0001448FCF7F1FE08B1FCF723FD1020009023
:1043D000019469460F48FCF7E7FE08B1FCF719FDA8
:1043E00011200090019769460A48FCF7DDFE08B1EC
:1043F000FCF70FFD12200090019669460548FCF776
:10440000D3FE002801D0FCF704FDBDE8FF810000C9
:1044100000200140F80000200100000F10B50749FE
:10442000054808600846FCF7D7FF002803D0BDE820
:104430001040FCF7EEBC10BD003002400000002030
:104440001CB50024009401940F490E4808600846EA
:10445000FDF746F808B1FCF7DCFC0094019400225B
:1044600069460948FCF7DFFF08B1FCF7D2FC1022CF
:1044700069460548FCF7D7FF002801D0FCF7C9FCC6
:104480001CBD00000074004040010020002805D041
:1044900001224FF480610248FDF71FBA0022F8E7BD
:1044A000000C024010B504490448FCF7B4FC024972
:1044B000491E087010BD000009000020CCDA000879
:1044C0002DE9F04F87B0142102A8FCF707FA002568
:1044D0008148016841F010010160016801F010019C
:1044E0000191016841F004010160016801F00401DB
:1044F0000191016841F080010160016801F08001D3
:104500000191016841F001010160016801F00101C0
:104510000191016841F002010160016801F00201AE
:104520000191016841F008010160006800F0080095
:1045300001906A4F002240213846FDF7CEF9DFF89E
:10454000A0A1002241F230015046FDF7C6F9DFF884
:1045500094B100224CF203415846FDF7BEF9DFF852
:104560008881002248F2FC414046FDF7B6F9DFF8A9
:104570007C9100224FF470714846FDF7AEF930206F
:1045800002900395049502A95846FDF7B7F84FF439
:104590000050029003950124049402A95046FDF7AF
:1045A000ADF840200290039402260496059502A9D6
:1045B0003846FDF7A3F841F21000029003940494EA
:1045C000059502A95046FDF799F820200290039422
:1045D0000496059502A95046FDF790F84FF4807AAD
:1045E000CDF808A00395049402A95846FDF786F873
:1045F00040F20340029003940496059502A95846A0
:10460000FDF77CF84FF4605002900395049602A9E0
:104610005846FDF773F84FF4404002900394049419
:10462000059502A95846FDF769F848F260400290E6
:1046300003940496059502A94046FDF75FF8E00251
:1046400002900395049402A94046FDF757F8CDF86F
:1046500008A00395049502A93846FDF74FF80327F3
:1046600002970396049505970920069002A94046F3
:10467000FDF744F80420029003940494059502A9E0
:104680004046FDF73BF818200290039404960597E6
:1046900002A94046FDF732F880200290039404946A
:1046A000059702A94046FDF729F84FF410700290D3
:1046B00003940494059702A94846FDF71FF8F801F2
:1046C000029003940496059702A94846FDF716F850
:1046D00007B0BDE8F08F0000303802400000024013
:1046E0000008024000100240000C0240000402409A
:1046F00010B50D480B4901600C49416000218160F3
:10470000C1604FF48042026141618161C161016217
:10471000FDF73CFB002803D0BDE81040FCF779BB57
:1047200010BD00000058004054010020A086010088
:1047300010B50749054808600846FEF70DF800283F
:1047400003D0BDE81040FCF764BB10BD0008065064
:10475000A801002010B50D480B49016000214160FF
:104760008160C16001614161816101624162816278
:104770000A21C162FEF71EF8002803D0BDE81040F0
:10478000FCF747BB10BD000000380040B801002016
:1047900010B50F480D4901604FF48271416000214E
:1047A0008160C160016141614FF400728261C16149
:1047B0000162416281620A21C162FDF7FBFF0028AC
:1047C00003D0BDE81040FCF724BB10BD003C004006
:1047D0001002002010B50B480949016054214160C6
:1047E000002181604FF47A72C26001618161FEF73D
:1047F00069FB002803D0BDE81040FCF70ABB10BDE0
:1048000000200040D003002010B58EB000240A9490
:104810000B940C940D94089409941C2101A8FCF7A6
:104820005DF81E484FF0804101604FF4FA7141601D
:1048300084604900C160046180218161FEF742FB10
:1048400008B1FCF7E6FA4FF480500A900AA9134821
:10485000FEF71EFC08B1FCF7DCFA1048FEF795FEE7
:1048600008B1FCF7D6FA0894099408A90B48FEF79A
:10487000E1FA08B1FCF7CDFA6020019002940394AC
:104880000594002201A90548FEF713FE08B1FCF7C4
:10489000C0FA0248FEF794FD0EB010BD6802002079
:1048A00010B592B000240E940F94109411940C94AF
:1048B0000D94089409940A940B941C2101A8FCF708
:1048C0000DF8284826490160232141608460642155
:1048D000C160046180218161FEF7F4FA08B1FCF740
:1048E00098FA4FF480500E900EA91E48FEF7D0FBA8
:1048F00008B1FCF78EFA1B48FEF79FFC08B1FCF7E5
:1049000088FA1848FEF741FE08B1FCF782FA0C94C9
:104910000D940CA91348FEF78DFA08B1FCF779FA4B
:104920000894012009900A940B94082208A90D48C4
:10493000FEF723FC08B1FCF76CFA602001900294AA
:10494000039405940C2201A90648FEF7B2FD08B1B4
:10495000FCF75FFA0348FEF733FD12B010BD00000C
:1049600000040040B002002010B58EB000240A946C
:104970000B940C940D94089409941C2101A8FBF746
:10498000ADFF2748254901604FF47A61416084609A
:104990006421C160046180218161FEF793FA08B14E
:1049A000FCF737FA4FF480500A900AA91C48FEF72A
:1049B0006FFB08B1FCF72DFA1948FEF7E6FD08B1C8
:1049C000FCF727FA0894099408A91548FEF732FA6B
:1049D00008B1FCF71EFA602001900294039405943C
:1049E000002201A90E48FEF764FD08B1FCF711FA98
:1049F000042201A90A48FEF75CFD08B1FCF709FA98
:104A0000082201A90648FEF754FD08B1FCF701FA97
:104A10000348FEF7D5FC0EB010BD000000080040B2
:104A2000F80200201CB50024009401940E480D49A2
:104A300001605421416084604FF47A71C16080212B
:104A40008161FEF73FFA08B1FCF7E3F900940194A5
:104A500069460548FEF7EEF9002801D0FCF7D9F9C0
:104A60001CBD0000001400404003002030B58BB096
:104A700000240794089409940A941C216846FBF7C3
:104A80002DFF1A481849016060254560846041F295
:104A90008831C160046180218161FEF713FA08B199
:104AA000FCF7B7F94FF48050079007A90F48FEF7BD
:104AB000EFFA08B1FCF7ADF90C48FEF766FD08B156
:104AC000FCF7A7F900950194029404940422694626
:104AD0000648FEF7EEFC08B1FCF79BF90348FEF729
:104AE0006FFC0BB030BD0000004001408803002087
:104AF00010B50C480A4901604FF4E13141600021D2
:104B00008160C16001610C2242618161C161FEF777
:104B10001AFE002803D0BDE81040FCF77AB910BD9A
:104B2000004C00401804002010B50C480A490160F0
:104B30004FF4E131416000218160C16001610C22CC
:104B400042618161C161FEF7FEFD002803D0BDE82E
:104B50001040FCF75EB910BD001001406004002059
:104B600010B50C480A4901604FF4E1314160002161
:104B70008160C16001610C2242618161C161FEF707
:104B8000E2FD002803D0BDE81040FCF742B910BD9B
:104B900000480040A804002010B50C480A490160F4
:104BA0004FF4E131416000218160C16001610C225C
:104BB00042618161C161FEF7C6FD002803D0BDE8F6
:104BC0001040FCF726B910BD00140140F00400208D
:104BD00010B501220B490C4800F0CFFF08B1FCF7DB
:104BE00018F90A49084802F048FA08B1FCF711F927
:104BF000054802F088FA002803D0BDE81040FCF711
:104C000008B910BD1D710008800500204800002073
:104C1000014802F004B9000080050020FEE7FEE72D
:104C20000148FCF754BF0000580900207047F8B550
:104C300004464FF4827560684FF48063A8420AD13D
:104C4000A068B0F5004F01D0984204D120680668F2
:104C500026F0400606606068A8421ED1A06898420F
:104C60000DD00B46009200228021204600F064F80F
:104C700008B3606D40F0200060650320F8BD0B466E
:104C8000009200220121204600F056F898B1606D94
:104C900040F0200060650320F8BD0B460092002222
:104CA0000121204600F048F828B1606D40F0200056
:104CB00060650320F8BD0020F8BD00007CB5044607
:104CC0000E4615463346012202212046009500F08B
:104CD00033F828B1606D40F02000606503207CBD92
:104CE000134814490068B0FBF1F04FF47A7148435F
:104CF00001906068B0F5827F0DD13346002280219B
:104D00002046009500F018F878B1606D40F0200062
:104D1000606503207CBD019838B10198401E019068
:104D200020688068C0430006F5D500207CBD0000E7
:104D30003C00002000366E012DE9F84304460F4682
:104D400091461E46089DFCF7CFFD401B351AFCF727
:104D5000CBFD804627480068C0F3CB306843009005
:104D60000DE0701C0BD0FCF7BFFDA0EB0800A842C3
:104D700010D27DB10098B8B30098401E0090206812
:104D8000806837EA000032D000204845E9D1002091
:104D9000BDE8F8832068416821F0E0014160606867
:104DA000B0F5827F0BD1A068B0F5004F02D0B0F50E
:104DB000806F04D12068016821F040010160A06A81
:104DC000B0F5005F09D12068016821F4005101604D
:104DD0002068016841F40051016001205034607086
:104DE000002020700320D3E7FFE70025C7E701205C
:104DF000CBE700003C0000207047704730B593B00F
:104E0000302107A8FBF76AFD142102A8FBF766FD15
:104E100000251E48016841F080510160006800F0E3
:104E2000805001901A48016841F480410160006897
:104E300000F48040019001200790000408900224B3
:104E40000D9480010E9019200F904FF4A8701090CF
:104E500011940720129007A8FDF79EFA08B1FBF7FE
:104E6000D8FF0F200290039404954FF4A0500590B2
:104E70004FF480500690052102A8FDF76DF9002837
:104E800001D0FBF7C6FF13B030BD00004038024030
:104E9000007000400248016841F4700101607047F1
:104EA00088ED00E00148FCF7E7BA0000400100206F
:104EB0000148FEF7E8B90000380500202DE9F0416F
:104EC0000268284D284E294FDFF8A4C0294B4FF027
:104ED0008048A84209D0404507D0B04205D0B8422A
:104EE00003D0604501D0984203D122F070044A6893
:104EF0002243A8421BD0404519D0B04217D0B84237
:104F000015D0604513D0984211D01B4CA0420ED052
:104F10001A4CA0420BD01A4CA04208D0194CA04207
:104F200005D0194CA04202D0184CA04203D122F463
:104F30004074CA6822434C6922F0800222438C6884
:104F4000C4620C688462A84201D0984201D1096908
:104F50000163016841F004010160012141610260C7
:104F6000BDE8F0810000014000040040000800405E
:104F7000000C00400004014000400140004401409A
:104F80000048014000180040001C00400020004084
:104F900010B501F01F0101238B40046A9C43046299
:104FA000036A8A401343036210BD10B5846824F479
:104FB0007F4442EA03220A432243826010BD826892
:104FC00022F070020A4342F007018160704700003E
:104FD000F0B5056A026A22F0010202624368826942
:104FE00022F0700222F003020C68144325F002053F
:104FF0008A682A430E4E0F4FB04201D0B84205D105
:1050000022F00805CA682A4322F00402B04201D007
:10501000B84207D123F4807323F400734D691D4314
:105020008B692B4343608461496841630262F0BD30
:105030000000014000040140F0B5026A036A23F059
:10504000100303624368846924F4E04424F4407448
:105050000D6844EA052422F020028D6842EA051218
:10506000104D114EA84201D0B04206D122F080026C
:10507000CF6842EA071222F04002A84201D0B042B3
:1050800009D123F4806323F400634D6943EA850367
:105090008D6943EA850343608461496881630262E4
:1050A000F0BD00000000014000040140F0B5026ABC
:1050B000036A23F4807303624368C46924F07004B4
:1050C00024F003050C682C4322F400728D6842EA38
:1050D0000522104D104EA84201D0B04206D122F454
:1050E0000062CF6842EA072222F48062A84201D01F
:1050F000B04209D123F4805323F400534D6943EAAD
:1051000005138D6943EA05134360C4614968C163AF
:105110000262F0BD000001400004014030B5036AA6
:10512000026A22F4805202624268C46924F4E044B4
:1051300024F440740D6844EA052423F400538D6878
:1051400043EA0533084DA84202D0084DA84204D1D5
:1051500022F480424D6942EA85124260C461496886
:105160000164036230BD0000000001400004014002
:1051700010B5036A046A24F001040462846924F00F
:10518000F00444EA021423F00A020A438461026232
:1051900010BD000070B5056A046A24F001040462C1
:1051A0008469154EB04214D0B0F1804F11D0134E27
:1051B000B0420ED0124EB0420BD0124EB04208D0C8
:1051C000114EB04205D0114EB04202D0104EB04246
:1051D00003D124F00304144301E044F0010424F05B
:1051E000F0041A0744EA126225F00A0301F00A01EA
:1051F00019438261016270BD00000140000400405B
:1052000000080040000C0040000401400040014044
:105210000018004010B5036A046A24F01004046208
:10522000846924F4704444EA023223F0A00343EA80
:1052300001118261016210BD30B5056A046A24F073
:1052400010040462846924F4407444EA022222F4C3
:1052500070444FF6FF7202EA0332224325F0A003A6
:10526000A02404EA011119438261016230BD30B506
:10527000056A046A24F480740462C46924F0030497
:10528000144324F0F0041A0744EA126225F4206360
:105290004FF4206404EA01211943C261016230BD68
:1052A00030B5056A046A24F480540462C46924F4A5
:1052B000407444EA022222F470444FF6FF7202EA7C
:1052C0000332224325F420434FF4204404EA013101
:1052D0001943C261016230BD01680C3151E8002FF1
:1052E00022F4907241E80023002BF5D101681431BB
:1052F00051E8002F22F0010241E80023002BF5D1F4
:10530000016B012909D101680C3151E8002F22F00D
:10531000100241E80023002BF5D1202180F8421033
:1053200000210163704700002DE9F0410446206828
:105330000169E26821F4405111430161A1682069CB
:10534000E26901436069104301432068C26849F281
:105350000C639A430A43C26020684169A26921F440
:1053600040711143416133492068884202D032497B
:10537000884202D1FCF7CAFF01E0FCF7B7FFE16900
:105380000023192764253226B1F5004F28D0616823
:105390008B0F8A00A0FB0701FAF7CFFF0146B0FB95
:1053A000F5F07A42504301EB800006EB0010B0FBB1
:1053B000F5F000F0F002B1FBF5F002EB0012B1FBEA
:1053C000F5F07B42584301EB800006EB0010B0FB88
:1053D000F5F0216800F00F0010448860BDE8F0810E
:1053E00061684A18A0FB07015B41FAF7A6FF014676
:1053F000B0FBF5F00201B1FBF5F06FF01803584374
:1054000001EB800006EBC000B0FBF5F000F0F80007
:1054100002EB4002B1FBF5F0584301EB800006EBD4
:10542000C000B0FBF5F0216800F007001044886070
:10543000D4E7000000100140001401402DE9F843BA
:1054400004460D4617469846089E25E0701C23D05A
:10545000FCF74AFAA0EB0800B0421BD8D6B120688E
:10546000C168490718D5802D16D0402D14D0016889
:10547000C943090710D400252168096840680090D5
:105480002046FFF729FF0820606484F8405001207F
:10549000BDE8F8830320FBE72068006835EA0000D8
:1054A00004D00020B842D1D00020F1E70120F9E774
:1054B00070B504460D46204600F0E6F8A0F57F42A0
:1054C000FF3A07D000F00F0204EB820245F40041DE
:1054D000C2F88413C0B270BD7FB51E4601250024FA
:1054E000CDE90051CDE9022402232A46314600F0DD
:1054F00033FC04B0002070BD7FB50C4608991E46F1
:1055000090F81D53002D00D00021CDE90221012586
:10551000CDE9005402230022314600F01DFC04B006
:10552000002070BD10B500F049FB002010BD82784E
:10553000012A07D10222027401224274002242820F
:105540008182C2820022114600F010B87FB51E464B
:1055500000240125CDE90051CDE9022423462A4645
:10556000314600F0F9FB04B0002070BD70B5044670
:105570000120A3780125012B0BD0022B08D1204656
:1055800000F0FCF858B1032809D0022800D1A5701A
:1055900070BDA160A28125760221A17070BDA570A9
:1055A0000021217670BD7FB50C4608991E4690F803
:1055B0001D53002D00D00021CDE902210125CDE9A8
:1055C000005400231A46314600F0C6FB04B0002008
:1055D00070BD7FB5154600230824CDE90031CDE923
:1055E00002431A46294600F0B7FB04B0002070BD04
:1055F000FBF7C4BF70B50546002005F54E7517E0F2
:1056000000EB800404EBC00405EB44040A34667923
:105610008E4201D0FF2909D1A679964201D0FF2AF6
:1056200004D1E4799C4206D0FF2B04D0401CC0B2C8
:105630000228E5D3FF2070BD102907D200EB8100BE
:10564000B0F88413C1F30E01C0F884130020704732
:1056500030B40C4602998578012D10D144F08004B5
:1056600004740624447442820324B4EB122F03D141
:1056700040F20942828201E000228282C1820A460F
:1056800030BC1946FFF772BF0146002001EB8002D3
:10569000B2F88423120405D5401CC0B21028F5D3FB
:1056A0004FF6FF7070470A8803781A440A80017821
:1056B00008447047F8B506460C4606F11C05B4F5DB
:1056C000807F01D90320F8BD2B464FF400720021E2
:1056D00030460094FFF7BCFF0028F4D1224629464B
:1056E0003046BDE8F84001F01FBAF8B505460C4653
:1056F000B4F5007F01D90320F8BD05F58E731E4671
:105700004FF48072002128460094FFF7A1FF002883
:10571000F2D1224631462846BDE8F84001F09DBA54
:10572000F8B516461C46B4F5007F0CD85EB141F4BE
:10573000407200F58E731F4600210094FFF788FF2A
:10574000054615B106E00320F8BD2246314638462D
:1057500001F04EFB2846F8BD01460020002906D086
:10576000012905D0022905D0032905D00220704760
:105770000220704701207047022070472DE9F84F42
:1057800004460125207E01210B2609274FF007083A
:105790004FF005094FF00D0A0C280FD2DFE800F09A
:1057A000CD060F303C4D5A748093A0B3627904F15A
:1057B00010012046FFF70DFF02202076BDE0617941
:1057C000204600F04EFA012804D0042816D0022802
:1057D00014D0B2E0207C00F08000E18A39B180284A
:1057E00002D084F81890A8E003202076A5E0802855
:1057F00002D084F81880A0E027769EE026769CE010
:10580000D4F8C403E0812379A2892046A168FFF778
:105810009DFE0420207690E02179204600F021FAB8
:10582000012804D0052804D0042804D085E0277678
:1058300083E0032581E026767FE000916379A289E9
:105840002046A168FFF7AFFED4F8C403E08106202C
:10585000207672E06179204600F003FA012806D034
:10586000052807D0022809D004280AD065E084F86A
:10587000188062E00C20207603255EE084F8189002
:105880005BE02676022558E0002223791146204667
:10589000FFF75CFED4F8C403E081082020764CE0DA
:1058A0002179204600F0DDF9012804D0042806D033
:1058B000052806D041E084F818A000253DE02676B2
:1058C0003BE0032539E00091002263791146204630
:1058D000FFF769FED4F8C403E0810A2020762CE0AB
:1058E0006179204600F0BDF9012804D0022806D0D5
:1058F000042806D021E0002584F818A01DE02776B2
:105900001BE0267619E0607E401CC0B2607602285B
:1059100002D82176A17010E0D4F8D42306212046C5
:1059200090470025657661792046FFF785FE21794D
:105930002046FFF781FE257002252846BDE8F88F36
:105940002DE9FE4304460126607800250D274FF01F
:10595000010804F58E7208280CD2DFE800F0043F3D
:105960005F8BABCCDEF108212046FFF7BEFE10B105
:1059700003281FD0F4E094F82D03A07184F801806F
:1059800094F81D13CDE90015029094F81C33217989
:105990008022204601F0BDF8A07994F81D13CDE9CE
:1059A0000015029094F81C3361790022204601F022
:1059B000B0F8D5E094F81E03401CC0B284F81E0372
:1059C000032801D92770CBE061792046FFF734FE28
:1059D00021792046FFF730FE2570C1E012212046D4
:1059E000FFF783FE10B1032803D0B9E002206070F6
:1059F000B6E094F81E03401CC0B284F81E030328CE
:105A000001D92770ACE061792046FFF715FE2179B6
:105A10002046FFF711FE65702570A1E001212046A8
:105A200001F047FB10B1032821D099E00220FFF7D5
:105A3000DFFD434684F81C8303206070A07994F84E
:105A40001D13CDE90015029021798022204601F036
:105A500060F8A07994F81D13CDE90015029094F830
:105A60001C3361790022204601F053F878E027705A
:105A7000657075E009212046FFF71CFE10B1032870
:105A800003D06DE0042060706AE094F81E03401CAF
:105A9000C0B284F81E03032801D9277060E0617941
:105AA0002046FFF7C9FD21792046FFF7C5FD657047
:105AB000257055E0B4F83A132046FFF7FBFD10B10E
:105AC000032803D04CE00520607049E094F81E03E1
:105AD000401CC0B284F81E03032801D927703FE0A0
