:020000040800F2
:10000000504A00209D010008A54A000875380008E4
:10001000A14A0008CD020008598500080000000030
:10002000000000000000000000000000BD4A0008C1
:100030005D03000800000000B94A0008BF4A00083C
:10004000B7010008B7010008B7010008B7010008B0
:10005000B7010008BB4A0008B7010008B701000853
:10006000B7010008B7010008B7010008B701000890
:10007000B7010008B7010008B7010008B701000880
:10008000B7010008B7010008B7010008B701000870
:10009000B7010008B7010008B7010008B701000860
:1000A000B7010008914B0008B7010008B70100082C
:1000B000B7010008B7010008B70100087938000847
:1000C000B7010008B7010008B7010008B701000830
:1000D000B7010008B7010008B7010008B701000820
:1000E000B7010008B7010008B7010008B701000810
:1000F000B7010008A14B0008B7010008B7010008CC
:10010000B7010008B7010008B7010008B7010008EF
:10011000094D0008B7010008B7010008B701000841
:10012000B7010008B7010008B7010008B7010008CF
:10013000B70100080000000000000000B70100083F
:10014000B7010008B7010008B7010008A94A000874
:10015000B7010008B7010008B7010008B70100089F
:10016000B7010008B7010008B7010008B70100088F
:10017000B7010008B70100080000000000000000FF
:10018000B7010008B7010008DFF80CD000F08CF8C8
:100190000048004705860008504A0020064880476E
:1001A00006480047FEE7FEE7FEE7FEE7FEE7FEE75C
:1001B000FEE7FEE7FEE7FEE77D4B00088901000849
:1001C0002DE9F05F0546002092469B46884606468C
:1001D000814640241BE0284641464746224600F01F
:1001E00053F853465A46C01A914110D31146184647
:1001F000224600F03AF82D1A67EB01084F462246D6
:100200000120002100F031F817EB00094E41201EBB
:10021000A4F10104DFDC484631462A464346BDE8E6
:10022000F09F40EA01039B0703D009E008C9121FB1
:1002300008C0042AFAD203E011F8013B00F8013BA0
:10024000521EF9D27047D2B201E000F8012B491ECC
:10025000FBD270470022F6E710B513460A46044663
:100260001946FFF7F0FF204610BD202A04DB203A94
:1002700000FA02F1002070479140C2F1200320FAF9
:1002800003F3194390407047202A04DB203A21FAF7
:1002900002F00021704721FA02F3D040C2F120029F
:1002A0009140084319467047064C074D06E0E06848
:1002B00040F0010394E8070098471034AC42F6D3AD
:1002C000FFF766FFDC860008FC86000800BFFEE73B
:1002D00070B50446002505E0002104F5617040F882
:1002E00025106D1C102DF7D3002504E0002104F526
:1002F0008E7041556D1CB5F5007FF7D3002020703E
:1003000060700120A0700020C4F8C4030121217690
:100310004021A1710021617684F81C13012184F829
:100320001D13002184F81F1384F81E134FF48071ED
:1003300004F11C00FFF78EFF4FF4007104F58E707E
:10034000FFF788FF122104F22630FFF783FF3E21DA
:1003500004F54E70FFF77EFF002070BD704772B647
:1003600000BFFEE730B504460D4600222946204670
:1003700000F002F830BD0000F0B50346012500246E
:100380001148407A01281CDA00200F4E767A0E4F71
:10039000B8553846467A001D40F82630001F467A88
:1003A000083082553E46707A461C7E72044604F13F
:1003B000300008703A2048702F2088700020C870E4
:1003C00000252846F0BD0000440A002070B5044610
:1003D000A56D00F07DF9064694F83500022808D096
:1003E0008020606500BF002084F8340000BF012039
:1003F00070BD2068006820F0160021680860206841
:10040000406920F0800021684861206C08B9A06C28
:1004100028B12068006820F0080021680860206882
:10042000006820F001002168086010E000F050F939
:10043000801B05280BD920206065032084F8350037
:1004400000BF002084F8340000BF0320D0E72068FC
:10045000006800F001000028E8D194F85C103F200B
:100460008840A860012084F8350000BF002084F88F
:10047000340000BF00BFBBE7014691F835000228F9
:1004800003D08020486501207047052081F83500A1
:100490000868006820F001000A6810600020F3E797
:1004A000014691F83500704770B5044600F010F928
:1004B00006462546681C10B104480078054400BF74
:1004C00000F006F9801BA842FAD370BD100000208E
:1004D000F8B502460B460025002400200021D6E096
:1004E000012606FA01F51E6806EA0504AC4274D13D
:1004F0001E7906F00306012E04D01E7906F00306CD
:10050000022E13D190684F000326BE40B0434F0027
:10051000DE68BE4030439060506801268E40B04394
:100520001E79C6F300168E40304350601E7906F0E7
:100530000306032E09D0D0684F000326BE40B04307
:100540004F009E68BE403043D0601E7906F003061F
:10055000022E13D1CF0802F1200656F827004E07CD
:10056000F70E0F26BE40B0434F07FF0E1E69BE4078
:100570003043CF0802F1200646F8270010684F00EC
:100580000326BE40B0431E7906F003064F00BE406E
:10059000304310605E6806F44036002E76D000BF0F
:1005A000002600963C4E366846F480463A4F3E6040
:1005B0003E46366806F48046009600BF00BF374EC0
:1005C0008F0856F827008E07370F0F26BE40B0431E
:1005D000334EB24202D1002624E057E0314EB242FF
:1005E00001D101261EE0304EB24201D1022619E0AF
:1005F0002E4EB24201D1032614E02D4EB24201D15B
:1006000004260FE02B4EB24201D105260AE02A4E05
:10061000B24201D1062605E0284EB24201D107269A
:1006200000E008268F073F0FBE4030431B4E8F0867
:1006300046F82700224E3068A0435E6806F4801614
:1006400006B120431E4E3060361D3068A0435E6800
:1006500006F4001606B12043194E361D3060184EC0
:10066000361F3068A0435E6806F4003606B12043AA
:10067000134E361F3060361F3068A0435E6806F4A4
:10068000803606B120430E4E083E3060491C1029CA
:10069000FFF426AFF8BD000044380240083801409E
:1006A000000002400004024000080240000C02402A
:1006B000001002400014024000180240001C0240DA
:1006C000083C01400AB1816101E00B04836170477D
:1006D00001480068704700000800002010B504467B
:1006E000D4F8DC0305F07DF910BD10B50446D4F84C
:1006F000DC0305F081F910BD10B50446206807F051
:10070000C1F910BD10B50446206807F0C2F910BD4C
:1007100010B502460023C1EB011402F1140000EBF6
:1007200084008371C1EB011402F1140000EB84001A
:10073000C371C1EB011402F1140000EB8400437497
:10074000C1EB011402F1140000EB840003740020DB
:1007500010BD0246C1EB011302F1140000EB83004F
:1007600090F8380070470246C1EB011302F1140003
:1007700000EB8300406A704770B504460D460026C2
:1007800000BF94F8D403012801D1022070BD0120DC
:1007900084F8D40300BF2946206807F08BF900BF16
:1007A000002084F8D40300BF3046EFE72DE9FF5F57
:1007B00004460D4616469B46DDE90E78DDF840A05E
:1007C00000BF94F8D403012803D1022004B0BDE88F
:1007D000F09F012084F8D40300BF0021C5EB05126F
:1007E00004F1140000EB82004171C5EB051104F126
:1007F000140000F821B0C5EB051100EB8100457035
:10080000C5EB051104F1140000EB810080F81280A3
:1008100006F07F01C5EB051204F1140000EB820025
:10082000817029462046FFF773FF06F0800080287C
:1008300008D10121C5EB051204F1140000EB820080
:10084000C17007E00021C5EB051204F1140000EBB4
:100850008200C170206807F01CF98146B8F1010FD1
:1008600009D1012F07D1B9F1000F04D1BAF1BC0FA2
:1008700001D94FF0BC0AC5EB051104F1140000EBDF
:1008800081000771C5EB051204F1140000EB820032
:10089000A0F814A01FFA8AF0CDE9007802905B4618
:1008A00032462946206807F0E1F9039000BF002096
:1008B00084F8D40300BF039888E770472DE9F05F00
:1008C00004460D4616461F46DDE90C9BDDE90A8A03
:1008D000C5EB051104F1140000EB8100C670C5EBF7
:1008E000051104F1140000EB81008774B8F1000FCA
:1008F00010D10321C5EB051204F1140000EB8200B6
:100900008175C5EB051104F1140000EB810080F83E
:1009100005B007E00221C5EB051204F1140000EB5D
:100920008200817537B1012F6FD0022F51D0032F74
:100930006CD187E0B8F1010F4AD136BBB9F1000F95
:1009400008D10121C5EB051204F1140000EB82006F
:1009500080F82910C5EB051104F1140000EB8100AB
:1009600090F8290040B90021C5EB051204F11400EC
:1009700000EB820081752BE00221C5EB051204F12A
:10098000140000EB8200817522E0C5EB051104F133
:10099000140000EB81008079012819D1C5EB051105
:1009A00004F1140000EB810090F8280040B9002108
:1009B000C5EB051204F1140000EB8200817507E01D
:1009C0000221C5EB051204F1140000EB82008175D1
:1009D00079E0E6B9C5EB051104F1140000EB8100E4
:1009E00090F8290040B90021C5EB051204F114006C
:1009F00000EB8200817524E00221C5EB051204F1B1
:100A0000140000EB820081751BE052E05AE0C5EB58
:100A1000051104F1140000EB810090F8280040B9A2
:100A20000021C5EB051204F1140000EB8200817572
:100A300007E00221C5EB051204F1140000EB82006F
:100A4000817540E0D6B9C5EB051104F1140000EB47
:100A5000810090F8290040B90021C5EB051204F18E
:100A6000140000EB8200817522E00221C5EB051223
:100A700004F1140000EB8200817519E0C5EB05114B
:100A800004F1140000EB810090F8280040B9002127
:100A9000C5EB051204F1140000EB8200817507E03C
:100AA0000221C5EB051204F1140000EB82008175F0
:100AB00009E00021C5EB051204F1140000EB8200EF
:100AC000817500E000BF00BFC5EB051104F1140003
:100AD00000EB8100C0F818A0C5EB051104F114006B
:100AE00000EB8100C0F820900021C5EB051204F155
:100AF000140000EB820080F83810C5EB051204F1F9
:100B0000140000EB82004162C5EB051104F11400F2
:100B100000EB810045700021C5EB051204F11400C3
:100B200000EB820080F83910A279C5EB051C04F1B6
:100B3000140303EB8C01206807F08AF9BDE8F09FED
:100B40002DE9F04104462768B846206806F0ADFF5D
:100B500001287AD1206807F0F3FB08B9BDE8F081DD
:100B6000206807F0EDFB00F40010B0F5001F03D182
:100B70004FF4001021684861206807F0E1FB00F4A1
:100B80008010B0F5801F03D14FF4801021684861B8
:100B9000206807F0D5FB00F08060B0F1806F03D1D2
:100BA0004FF0806021684861206807F0C9FB00F0C1
:100BB0000200022801D121684861206807F0C0FBCB
:100BC00000F00050B0F1005F19D14FF000502168E3
:100BD0004861D8F8400400F0010080B9102138467F
:100BE00006F026FF384606F0FBFE607A022803D1A5
:100BF0000121206807F070FB2046FFF776FD206892
:100C000007F09EFB00F08070B0F1807F02D120469B
:100C100002F02AFD206807F093FB00F00800082886
:100C200005D1204600F0F6F80820216848612068C8
:100C300007F086FB00F00070B0F1007F27D120683C
:100C400007F0FEF8064600251AE035E005F00F0132
:100C500001208840304090B108F5A06000EB4510BD
:100C6000006800F40040B0F5004F04D1E9B220461E
:100C700001F060FC03E0E9B2204602F04BF96D1C84
:100C80006079A842E2D84FF000702168486120687E
:100C900007F056FBC0F3001070B12068806920F0A7
:100CA000100021688861204602F039FD20688069C3
:100CB00040F010002168886100BF4FE738B5044656
:100CC0000CB9012038BD256894F8D50328B9002057
:100CD00084F8D403204600F035F8032084F8D503C7
:100CE000B5F1A04F01D10021A171206806F023FECB
:100CF000207C8DF8000094E80F0006F0A5FD20B1DF
:100D0000022084F8D5030120DCE70121206807F0E8
:100D10006AFB20B1022084F8D5030120D2E7207CB1
:100D20008DF8000094E80F0007F056FA20B1022079
:100D300084F8D5030120C5E7012084F8D5030020FD
:100D4000C0E7000010B586B00446142101A8FFF7E3
:100D500081FA2068B0F1A04F42D100BF002000907E
:100D60002048006840F001001E49086008460068FD
:100D700000F00100009000BF00BF4FF4C050019090
:100D80000220029000200390032004900A20059086
:100D900001A91548FFF79CFB00BF1248001D006821
:100DA00040F080000F49091D086000BF002000903E
:100DB0000C481430006840F480400A49143108603F
:100DC0000846006800F48040009000BF00BF00BFEC
:100DD00000221146432000F013FB432000F0FCFAF0
:100DE00006B010BD303802400000024010B5044685
:100DF000D4F8DC0304F0C6FE10BD10B50446D4F8E8
:100E0000DC0304F0C6FE10BD10B50446206807F0F0
:100E1000CCFA10BD10B50446D4F8DC0304F05BFE38
:100E200010BD10B5044600BF94F8D403012801D1C9
:100E3000022010BD012084F8D40300BF01212068E6
:100E400006F0A2FD206806F0C4FD00BF002084F873
:100E5000D40300BF00BFECE710B5044600BF94F810
:100E6000D403012801D1022010BD012084F8D4034D
:100E700000BF206807F0EBFA00BF002084F8D4031D
:100E800000BF00BFF0E7704770472DE9F047054607
:100E90004FF0000928684668D5F82CA095F83E70F8
:100EA00095F83D80102F01D0402F75D12868D0F8DB
:100EB00018902868446904F0010060B9BAF52A0F57
:100EC00002D0BAF12A4F01D1012000E00020012810
:100ED00001D1BDE8F08704F0010048B1C6F340201D
:100EE00030B1284602F0D0FC284603F056F9B7E0AE
:100EF000C4F3C00030B1C6F3402018B1284603F057
:100F000003F8ADE0C4F3400030B1C6F3402018B19F
:100F1000284603F00EF8A3E0C9F3800040B3286828
:100F2000406800F40060B0F5006FE0D0C4F3C0107A
:100F300048B1C6F3802030B1C4F3800018B9284608
:100F400002F076FF8CE0C4F380000028CFD0C6F317
:100F500040200028CBD0B8F1210F03D1284602F061
:100F600017FF7DE0402F7BD1284603F065F977E03D
:100F70002868406800F40060B0F5006F70D0C4F3DA
:100F8000801050B1C6F3802038B1C4F3800020B97E
:100F9000284602F07BFE63E00BE0C4F380000028EB
:100FA0005ED0C6F3402000285AD0284602F0D6FD75
:100FB00056E0286C10B12868446904E02868D0F82D
:100FC000189028684469C4F3400060B1C6F340201B
:100FD00048B1286C10B12868D0F8189049462846C6
:100FE00003F0EDF93CE0C4F3001030B1C6F340204B
:100FF00018B1284603F01CFA32E0B8F1210F02D0F4
:10100000B8F1290F16D1C4F3C01048B1C6F380203F
:1010100030B1C4F3800018B9284603F0ADF91FE0E1
:10102000C4F38000E0B1C6F34020C8B1284603F005
:1010300096F915E0C4F3801048B1C6F3802030B1B2
:10104000C4F3800018B9284603F066F908E0C4F339
:10105000800028B1C6F3402010B1284603F04FF9B4
:1010600000BF36E77047000070B504460CB9012098
:1010700070BD94F83D0028B9002084F83C0020465B
:1010800000F0E0F8242084F83D002068006820F09B
:101090000100216808602068006840F40040216871
:1010A00008602068006820F400402168086000F0B3
:1010B000C1FA05465C496068884206D85B488542AB
:1010C00001D2012007E0002005E05948854201D205
:1010D000012000E00020012800D1C9E75548B5FBF8
:1010E000F0F62068406820F03F00304321684860F7
:1010F0004D496068884201D8701C07E04FF4967033
:1011000070434FF47A71B0FBF1F0401C2168096A1A
:1011100021F03F0108432168086243496068884222
:1011200014D8681E61684900B0FBF1F0401CC0F3A0
:101130000B00042801D204203DE0681E61684900CC
:10114000B0FBF1F0401CC0F30B0034E0A06838B9EC
:10115000681E616801EB4101B0FBF1F0401C0AE040
:10116000681E616801EBC10202EB0111B0FBF1F0F6
:10117000401C40F48040C0F30B0008B901201AE085
:10118000A06848B9681E616801EB4101B0FBF1F04D
:10119000401CC0F30B000CE0681E616801EBC1024B
:1011A00002EB0111B0FBF1F0401CC0F30B0040F466
:1011B000804040F400402168C9694CF6FF729143B9
:1011C00008432168C861D4E9070108432168096818
:1011D00021F0C001084321680860D4E903100843E6
:1011E0002168896848F2FF3291430843216888608A
:1011F000D4E9050108432168C96821F0FF010843CB
:101200002168C8602068006840F00100216808601B
:1012100000202064202084F83D000020206384F812
:101220003E0000BF24E70000A086010080841E006D
:1012300000093D0040420F007047704770477047FB
:101240007047000010B586B00446142101A8FFF7CE
:1012500001F81F492068884238D100BF0020009063
:101260001C48006840F002001A49086008460068FF
:1012700000F00200009000BF00BF4FF440700190EA
:101280001220029001200390022004900420059077
:1012900001A91148FFF71CF900BF002000900D487C
:1012A0001030006840F400100A4910310860084608
:1012B000006800F40010009000BF00BF002211463B
:1012C0001F2000F09DF81F2000F086F806B010BD2A
:1012D000005400403038024000040240704770471C
:1012E00003480068034909780844014908607047C9
:1012F000080000201000002010B50D48006840F4E0
:1013000000700B4908600846006840F4806008607F
:101310000846006840F480700860032000F0AEF8D2
:101320000F2000F007F800F02BF8002010BD00009F
:10133000003C024070B504460E4800784FF47A71C4
:10134000B1FBF0F00C490968B1FBF0F5284600F05C
:1013500037FC08B1012070BD102C07D200222146B5
:10136000501E00F04DF80548046001E00120F2E74E
:101370000020F0E710000020140000200C000020E6
:1013800008B500BF002000901248006840F480407B
:10139000104908600846006800F48040009000BFD3
:1013A00000BF00BF00200090081F006840F0805080
:1013B000091F08600846006800F08050009000BFD8
:1013C00000BF00221146052000F01AF8052000F0A9
:1013D00003F808BD443802400146084600280DDBEA
:1013E00000BF00BF00F01F0301229A4043099B0089
:1013F00003F1E023C3F8002100BF00BF00BF704726
:101400002DE9F05F80460D461646002707F0A6F846
:10141000074639462A46334601F00700C0F1070A5D
:10142000BAF1040F02D94FF0040A01E0C0F1070A33
:10143000D14600F1040ABAF1070F02D24FF0000AB8
:1014400001E0A0F1030AD4464FF0010A0AFA09FAB2
:10145000AAF1010A0AEA020A0AFA0CFA4FF0010B91
:101460000BFA0CFBABF1010B0BEA030B4AEA0B0482
:101470002146404607F07AF8BDE8F09F00BF00F033
:101480000702064B19684FF6FF031940044B0B4344
:1014900043EA0221014B196000BF70470CED00E0E8
:1014A0000000FA0570B504460D460CB9012070BD68
:1014B0005848006800F00700A84209D255490D704D
:1014C0000846006800F00700A84201D00120EEE7BE
:1014D000207800F0020002281DD1207800F00400DE
:1014E000042805D14C48006840F4E0504A4908609F
:1014F000207800F00800082805D14748006840F42B
:101500006040454908604448006820F0F000A16848
:10151000084341490860207800F00100A8B36068E2
:10152000012807D13C4808380068C0F34040B8B9EA
:101530000120BCE76068022802D06068032807D158
:10154000354808380068C0F3406048B90120AEE76C
:10155000314808380068C0F3400008B90120A6E708
:101560002D48006820F00300616808432A4908609C
:10157000FFF7AEF8064609E0FFF7AAF8801B41F234
:101580008831884202D9032091E707E022480068A9
:1015900000F00C006168B0EB810FEDD11D480068D0
:1015A00000F00700A84209D91A490D7008460068E2
:1015B00000F00700A84201D0012078E7207800F071
:1015C0000400042807D11448006820F4E050E168C2
:1015D000084311490860207800F00800082808D165
:1015E0000D48006820F46040216940EAC1000A49C2
:1015F000086000F03FF808490968C1F30311074A81
:10160000515CC8400649086006480068FFF792FE32
:1016100000204CE7003C024008380240C086000829
:10162000140000200C0000200148006870470000F2
:101630001400002000B5FFF7F7FF04490968C1F363
:101640008221034A515CC84000BD000008380240B6
:10165000D086000800B5FFF7E7FF04490968C1F329
:101660004231034A515CC84000BD000008380240C6
:10167000D08600082DE9F047002400250026A14669
:101680002548006800F00C0020B1042805D0082887
:101690003AD105E0DFF8849039E0DFF8849036E055
:1016A0001D48001F006800F03F041B48001F006831
:1016B00000F4800078B11A481749091F0968C1F37E
:1016C0008811A0FB01700146224600233846FEF730
:1016D00077FD05460EE011480F49091F0968C1F35F
:1016E0008811A0FB01700146224600233846FEF710
:1016F00067FD05460848001F0068C0F30140401C14
:101700004600B5FBF6F902E0DFF8109000BF00BF1D
:101710004846BDE8F0870000083802400024F40085
:1017200040787D01F8B504460CB90120F8BD207859
:1017300000F00100002874D0F948006800F00C00A7
:1017400004280DD0F648006800F00C00082813D1DA
:10175000F348001F006800F48000B0F5800F0BD143
:10176000EF4808380068C0F34040002859D060684E
:10177000002856D10120D9E700BF6068B0F5803F4E
:1017800008D1E7480838006840F48030E449083957
:1017900008601EE06068B0F5A02F0DD1E048083861
:1017A000006840F48020DE49083908600846006877
:1017B00040F4803008600CE0D9480838006820F414
:1017C0008030D749083908600846006820F4802036
:1017D000086000BF606890B1FEF77AFF054606E03A
:1017E000FEF776FF401B642801D903209EE7CC4812
:1017F00008380068C0F340400028F1D011E0FEF73F
:1018000067FF054606E0FEF763FF401B642801D929
:1018100003208BE7C24808380068C0F34040002826
:10182000F1D1207800F0020002285FD1BC480068A6
:1018300000F00C0058B1BA48006800F00C0008280D
:101840001CD1B748001F006800F48000B0B9B4484C
:1018500008380068C0F3400020B1E068012801D0DA
:10186000012063E7AE480838006820F0F8002169DD
:1018700040EAC100AA490839086037E0E06800B3CF
:101880000120A8490860FEF723FF054606E0FEF7A1
:101890001FFF401B022801D9032047E7A048083852
:1018A0000068C0F340000028F1D09D480838006867
:1018B00020F0F800216940EAC10099490839086020
:1018C00014E0002097490860FEF702FF054606E095
:1018D000FEF7FEFE401B022801D9032026E79048B0
:1018E00008380068C0F340000028F1D1207800F0EB
:1018F000080008282CD16069A8B101208A49086035
:10190000FEF7E6FE054606E0FEF7E2FE401B022873
:1019100001D903200AE782486C300068C0F3400018
:101920000028F1D014E000207F490860FEF7D0FEC7
:10193000054606E0FEF7CCFE401B022801D9032035
:10194000F4E677486C300068C0F340000028F1D11D
:10195000207800F00400042870D100277048383047
:10196000006800F0805090B900BF002000906C48E3
:101970003830006840F080506949383108600846C6
:10198000006800F08050009000BF00BF012767484A
:10199000006800F48070B0B96448006840F480705A
:1019A00062490860FEF794FE054606E0FEF790FEE9
:1019B000401B022801D90320B8E65C48006800F407
:1019C00080700028F2D000BFA068012808D15448D8
:1019D0006830006840F001005149683108601DE03E
:1019E000A06805280DD14E486830006840F004001A
:1019F0004B49683108600846006840F00100086003
:101A00000CE047486830006820F001004449683124
:101A100008600846006820F00400086000BFA06865
:101A2000A8B1FEF755FE054609E0FEF751FE401B42
:101A300041F28831884202D9032077E626E038480F
:101A400068300068C0F340000028EED013E0FEF7D5
:101A50003FFE054608E0FEF73BFE401B41F28831A1
:101A6000884201D9032061E62D4868300068C0F340
:101A700040000028EFD1012F07D1294838300068F5
:101A800020F0805026493831086000BFA069002846
:101A900045D02348006800F00C0008285DD0A069FC
:101AA000022845D100201F490866FEF711FE0546B1
:101AB00006E0FEF70DFE401B022801D9032035E6A3
:101AC000174808380068C0F340600028F1D1D4E915
:101AD00007010843616A40EA81110122A06AC2EB52
:101AE000500041EA00412C20005D41EA00600C49B1
:101AF000091F086001200B490866FEF7E9FD05464D
:101B000006E0FEF7E5FD401B022801D903200DE6A3
:101B1000034808380068C0F340600028F1D049E06D
:101B20000838024000004742800E474200700040E3
:101B3000002021490866FEF7CBFD054606E0FEF7CA
:101B4000C7FD401B022801D90320EFE51B480068B0
:101B5000C0F340600028F2D12CE0A069012800D138
:101B6000E4E51648001D0668A069012820D006F4A7
:101B70008001E06981421BD106F03F01206A814269
:101B800016D147F6C0703040616AB0EB811F0FD1AB
:101B900006F440310122A06AC2EB5000B1EB004FC5
:101BA00006D106F070612C20005DB1EB006F01D012
:101BB0000120BBE50020B9E50000474200380240A3
:101BC00070B504462546681EB0F1807F01D3012020
:101BD0000FE0681E4FF0E02148610F214FF0FF3009
:101BE00006F0C4FC00204FF0E02188610720086166
:101BF000002070BD7047704730B502460B4600BFED
:101C000092F83C00012801D1022030BD012082F869
:101C10003C0000BF022082F83D0010684468106854
:101C2000816824F070041868044310684460184DFB
:101C30001068A8421BD01068B0F1804F17D0154D26
:101C40001068A84213D0144D1068A8420FD0134D4D
:101C50001068A8420BD0124D1068A84207D0114D51
:101C60001068A84203D0104D1068A84205D121F099
:101C700080015868014310688160012082F83D00AE
:101C800000BF002082F83C0000BF00BFBDE700009D
:101C9000000001400004004000080040000C00402B
:101CA00000040140004001400018004010B5044607
:101CB0000CB9012010BD94F83D0028B9002084F82B
:101CC0003C00204600F026F8022084F83D00211D4B
:101CD000206802F06DFF012084F8460000BF84F800
:101CE0003E0001213F200155402001554120015572
:101CF00000BF00BF012084F842004320015544206A
:101D000001554520015500BF012084F83D00002009
:101D1000D0E7000038B504462068B0F1804F0FD1FD
:101D200000BF002000903948006840F001003749AA
:101D300008600846006800F00100009000BF64E001
:101D40003349206888420FD100BF002000902F48FF
:101D5000006840F020002D4908600846006800F047
:101D60002000009000BF50E02A49206888421AD124
:101D700000BF002000902548001D006840F400309E
:101D80002249091D08600846006800F400300090F0
:101D900000BF00BF002211461920FFF731FB1920B8
:101DA000FFF71AFB31E01C492068884211D100BFBF
:101DB000002000901548001D006840F48020134961
:101DC000091D08600846006800F48020009000BFEC
:101DD0001BE012492068884217D100BF0020009004
:101DE0000A48006840F480700849086008460068A6
:101DF00000F48070009000BF00BF002211462D202B
:101E0000FFF7FEFA2D20FFF7E7FA38BD4038024011
:101E10000014004000440140004801400020004000
:101E20002DE9F04104460D46002700BF94F83C0020
:101E3000012802D10220BDE8F081012084F83C0095
:101E400000BF022084F83D002068866826F07706EF
:101E500026F47F46206886602868502833D00CDC42
:101E6000202850D004DC00284BD0102851D149E064
:101E7000302849D040284CD139E060282DD0702836
:101E800007D0B0F5805F03D0B0F5005F41D10DE021
:101E900041E0D5E902136A68206802F0F9FE206883
:101EA000866846F077062068866034E0D5E902133C
:101EB0006A68206802F0ECFE2068806840F4804088
:101EC0002168886027E0EA686968206802F0F4FE0B
:101ED0005021206802F0E7FE1DE0EA68696820688A
:101EE00002F0FDFE6021206802F0DDFE13E0EA68EA
:101EF0006968206802F0E0FE4021206802F0D3FE0D
:101F000009E000BF00BF00BF2968206802F0CBFED7
:101F100001E0012700BF00BF012084F83D0000BFA1
:101F2000002084F83C0000BF384684E7704770B555
:101F300004462068C5682068066906F00200022889
:101F400019D105F00200022815D1401F216808614F
:101F5000012020772068806900F0030018B1204636
:101F6000FFF7E4FF05E0204600F097F8204600F078
:101F700095F80020207706F00400042819D105F018
:101F80000400042815D1C04321680861022020778D
:101F90002068806900F4407018B12046FFF7C6FF42
:101FA00005E0204600F079F8204600F077F80020A0
:101FB000207706F00800082819D105F00800082845
:101FC00015D1C04321680861042020772068C069CA
:101FD00000F0030018B12046FFF7A8FF05E02046F7
:101FE00000F05BF8204600F059F80020207706F05A
:101FF0001000102819D105F01000102815D1C04389
:1020000021680861082020772068C06900F44070CA
:1020100018B12046FFF78AFF05E0204600F03DF8A2
:10202000204600F03BF80020207706F0010048B180
:1020300005F0010030B16FF0010021680861204611
:1020400000F02DF806F08000802809D105F080000E
:10205000802805D1C043216808612046FFF7CAFDEA
:1020600006F04000402809D105F04000402805D185
:10207000C04321680861204600F012F806F02000F5
:10208000202809D105F02000202805D1C04321686F
:1020900008612046FFF7AFFD70BD7047704770477D
:1020A00070477047704700002DE9F84F04462068DC
:1020B00005682068C668206847694FF00009CA466D
:1020C00005F00F09B9F1000F0AD105F0200038B171
:1020D00006F0200020B1204602F06DFEBDE8F88F2A
:1020E000B9F1000F7CD007F0010018B906F4907028
:1020F000002875D005F0010030B106F4807018B1E9
:10210000606C40F00100606405F0040030B107F03D
:10211000010018B1606C40F00200606405F002003C
:1021200030B107F0010018B1606C40F00400606449
:1021300005F0080048B106F0200010B907F00100D2
:1021400018B1606C40F008006064606C002846D0F4
:1021500005F0200028B106F0200010B1204602F062
:102160002AFE20684069C0F3801A606C00F0080005
:1021700010B9BAF1000F2DD0204602F0D6FD20682C
:10218000406900F04000402820D100BF00BF216816
:10219000143151E8001F21F040002168143141E85A
:1021A0000002002AF3D100BFE06B50B17F48E16B21
:1021B0000865E06BFEF760F988B1E06B016D884758
:1021C0000DE02046FFF76EFF09E009E02046FFF72B
:1021D00069FF04E02046FFF765FF002060647DE7AB
:1021E000206B012878D105F01000002874D006F08B
:1021F00010000028FAD000BF00200090206800687E
:10220000009020684068009000BF00BF20684069CF
:1022100000F04000402870D1E06B006840681FFA71
:1022200080F8B8F1000F58D0A08D404555DDA4F8D6
:102230002E80E06BC069B0F5807F43D000BF00BF47
:1022400021680C3151E8001F21F4807021680C31A5
:1022500041E80002002AF3D100BF00BF00BF21689F
:10226000143151E8001F21F001002168143141E8C8
:102270000002002AF3D100BF00BF00BF2168143163
:1022800051E8001F21F040002168143141E80002AC
:10229000002AF3D100BF202084F8420000202063F0
:1022A00000BF00BF21680C3151E8001F21F0100071
:1022B00021680C3141E80002002AF3D100BFE06B35
:1022C000FEF784F802206063A08DE28D801A81B24F
:1022D0002046FFF7E6FE0EE052E0A08D40450AD111
:1022E000E06BC069B0F5807F05D102206063A18DED
:1022F0002046FFF7D6FEF1E6FFE7A08DE18D401AFC
:102300001FFA80F8E08DD0B3B8F1000F37D000BFCE
:1023100000BF21680C3151E8001F21F49070216842
:102320000C3141E80002002AF3D100BF00BF00BF1A
:102330002168143151E8001F21F001002168143197
:1023400041E80002002AF3D100BF202084F84200B7
:102350000020206300BF00BF21680C3151E8001F3E
:1023600021F0100021680C3141E80002002AF3D16D
:1023700000BF0220606341462046FFF792FEADE6B3
:1023800005F0800030B106F0800018B1204602F060
:10239000A7FEA3E605F0400030B106F0400018B1FA
:1023A000204602F0F8FC99E600BF97E6194D0008B8
:1023B00010B504460CB9012010BDA06900B100E0C1
:1023C00000BF94F8410028B9002084F8400020465E
:1023D00000F02AF8242084F841002068C06820F426
:1023E00000502168C860204602F064FD2068006942
:1023F00020F49040216808612068406920F02A009C
:10240000216848612068C06840F400502168C860B5
:1024100000206064202084F8410084F842000020FD
:10242000606300BFC8E7000010B586B00446142101
:1024300001A8FDF70FFF3A492068884237D100BF55
:10244000002000903748006840F4002035490860BB
:102450000846006800F40020009000BF00BF00BFE5
:10246000002000902F481038006840F001002D49EE
:10247000103908600846006800F00100009000BFB5
:1024800000BF0320019002200290039000200490DE
:102490000820059001A92448FEF71AF800221146E9
:1024A0003420FEF7ADFF3420FEF796FF35E01F49DC
:1024B0002068884231D100BF002000901948001DDB
:1024C000006840F010001749091D086008460068C0
:1024D00000F01000009000BF00BF00BF002000907F
:1024E00010481038006840F001000E4910390860AB
:1024F0000846006800F00100009000BF00BF4FF4E4
:10250000C0600190022002900020039004900720F8
:10251000059001A90448FDF7DBFF06B010BD0000DF
:10252000004C0040403802400000024000100140D2
:10253000704770472DE9F04105460C46D5F80080FC
:1025400046462146286805F0ECFE00F00400042809
:1025500013D1042106F5A06000EB4410816007212F
:10256000C4EB041205F1140000EB820080F839106E
:102570002146286805F09EFA72E02146286805F099
:10258000D0FE00F48070B0F5807F14D14FF48071DC
:1025900006F5A06000EB441081600821C4EB041232
:1025A00005F1140000EB820080F8391021462868FC
:1025B00005F080FA54E02146286805F0B2FE00F0EC
:1025C0000800082813D1082106F5A06000EB44108C
:1025D00081600621C4EB041205F1140000EB8200B7
:1025E00080F839102146286805F064FA38E0214661
:1025F000286805F096FE00F48060B0F5806F14D175
:102600004FF4806106F5A06000EB44108160092161
:10261000C4EB041205F1140000EB820080F83910BD
:102620002146286805F046FA1AE02146286805F098
:1026300078FE00F08000802812D1802106F5A0608D
:1026400000EB441081600721C4EB041205F1140073
:1026500000EB820080F839102146286805F02AFA3C
:102660002146286805F05DFE00F40070B0F5007F9B
:102670000BD12146286805F01DFA4FF4007106F5CC
:10268000A06000EB44108160DCE02146286805F082
:1026900048FE00F0010000287ED0202106F5A06051
:1026A00000EB44108160C4EB041105F1140000EB51
:1026B0008100C079012813D10021C4EB041205F177
:1026C000140000EB8200C17106F5A06000EB44101D
:1026D000406820F4803106F5A06000EB44104160B2
:1026E000A879A8B1C4EB041105F1140000EB810036
:1026F000C16906F5A06000EB44100069C0F3120048
:10270000091AC4EB041205F1140000EB82004162C7
:102710000121C4EB041205F1140000EB820080F8E3
:1027200039100021C4EB041205F1140000EB820003
:102730000163012106F5A06000EB44108160C4EB49
:10274000041105F1140000EB8100807C40B1C4EB62
:10275000041105F1140000EB8100807C02280AD1ED
:102760002146286805F0A6F9102106F5A06000EBC7
:102770004410816034E0C4EB041105F1140000EB57
:102780008100807C03280AD0C4EB041105F11400F9
:1027900000EB8100807C00E068E0012820D106F594
:1027A000A06000EB4410006840F0005106F5A06006
:1027B00000EB441001600121C4EB041205F1140088
:1027C00000EB820080F83810C4EB041105F114000E
:1027D00000EB810090F8382021462846FEF76DF87E
:1027E000A87901282FD1C4EB041105F1140000EBE6
:1027F0008100C4EB0412416A05F1140000EB820071
:10280000808A0844401EC4EB041205F1140101EB58
:102810008201898AB0FBF1F000F00100002811D09C
:10282000C4EB041105F1140000EB810090F82800BE
:1028300080F00101C4EB041205F1140000EB8200EA
:1028400080F8281064E3C4EB041105F1140000EBD8
:10285000810090F8280080F00101C4EB041205F11A
:10286000140000EB820080F8281051E3214628680C
:1028700005F057FD00F02000202824D1202106F586
:10288000A06000EB44108160C4EB041105F114005A
:1028900000EB810080790128D4D10121C4EB04121E
:1028A00005F1140000EB8200C1710321C4EB041296
:1028B00005F1140000EB820080F8391021462868E9
:1028C00005F0F8F824E32146286805F02AFD00F019
:1028D000020002287DD1022106F5A06000EB441021
:1028E0008160C4EB041105F1140000EB810090F845
:1028F0003900012812D10221C4EB041205F11400A1
:1029000000EB820080F839100121C4EB041205F1BC
:10291000140000EB820080F8381037E2C4EB041199
:1029200005F1140000EB810090F83900062812D15F
:102930000221C4EB041205F1140000EB820080F8C0
:1029400039100521C4EB041205F1140000EB8200DC
:1029500080F838101AE2C4EB041105F1140000EB02
:10296000810090F83900072809D0C4EB041105F163
:10297000140000EB810090F8390009287ED1022173
:10298000C4EB041205F1140000EB820080F839104A
:10299000C4EB041105F1140000EB8100006B401C36
:1029A000C4EB041205F1140101EB82010863C4EBCE
:1029B000041105F1140000EB8100006B022837D9E7
:1029C0000021C4EB041205F1140000EB8200016346
:1029D00000E0E8E1C4EB041105F1140000EB810014
:1029E000807901281AD10021C4EB041205F11400EA
:1029F00000EB8200C171C4EB041205F1140000EB7E
:102A00008200017206F5A06000EB4410406820F4DB
:102A1000803106F5A06000EB441041600421C4EB56
:102A2000041205F1140000EB820080F83810ADE1CB
:102A30000221C4EB041205F1140000EB820080F8BF
:102A40003810C4EB041105F1140000EB8100807C08
:102A500040B1C4EB041105F1140000EB8100807C4F
:102A60000228E4D106F5A06000EB4410076827F0C7
:102A7000804747F0004706F5A06000E003E000EB68
:102A80004410076082E1C4EB041105F1140000EB6F
:102A9000810090F83900052872D10221C4EB04129C
:102AA00005F1140000EB820080F83910C4EB04112A
:102AB00005F1140000EB8100C0790128B7D1C4EB07
:102AC000041105F1140000EB8100807C032858D12B
:102AD000C4EB041105F1140000EB8100406B401CB5
:102AE000C4EB041205F1140101EB82014863C4EB4D
:102AF000041105F1140000EB8100406B022835D968
:102B00000021C4EB041205F1140000EB82004163C4
:102B1000C4EB041205F1140000EB8200C171C4EB98
:102B2000041105F1140000EB8100006B032807D2AB
:102B30000121C4EB041205F1140000EB82000172C4
:102B400006F5A06000EB4410406820F4803106F5E3
:102B5000A06000EB441041600421C4EB041205F1B5
:102B6000140000EB820080F8381013E00221C4EB5F
:102B7000041205F1140000EB820080F8381009E01F
:102B800028E00221C4EB041205F1140000EB8200DE
:102B900080F83810C4EB041105F1140000EB81003B
:102BA000807C40B1C4EB041105F1140000EB8100FE
:102BB000807C02280DD106F5A06000EB4410076868
:102BC00027F0804747F0004706F5A06000EB44106F
:102BD0000760DBE0C4EB041105F1140000EB810099
:102BE00090F8390003285ED10221C4EB041205F1EC
:102BF000140000EB820080F83910C4EB041105F1D9
:102C0000140000EB8100C07901284BD10221C4EBF4
:102C1000041205F1140000EB820080F8381006F56C
:102C2000A06000EB4410406840F4803106F5A060DD
:102C300000EB4410416006F5A06000EB4410C06852
:102C400040F0400106F5A06000EB4410C16006F5BD
:102C5000A06000EB4410C06820F0200106F5A060E1
:102C600000EB4410C160C4EB041105F1140000EB4B
:102C70008100807C40B1C4EB041105F1140000EB2D
:102C80008100807C02280DD106F5A06000EB441085
:102C9000076827F0804747F0004706F5A06000EB83
:102CA0004410076072E0C4EB041105F1140000EB5E
:102CB000810090F83900042830D10221C4EB0412BD
:102CC00005F1140000EB820080F83910C4EB041207
:102CD00005F1140000EB820080F83810C4EB0411F9
:102CE00005F1140000EB8100807C40B1C4EB0411BD
:102CF00005F1140000EB8100807C022846D106F526
:102D0000A06000EB4410076827F0804747F00047B9
:102D100006F5A06000EB4410076037E0C4EB041137
:102D200005F1140000EB810090F83900082821D14A
:102D30000221C4EB041205F1140000EB820080F8BC
:102D40003910C4EB041105F1140000EB8100006B95
:102D5000401CC4EB041205F1140101EB820108636D
:102D60000421C4EB041205F1140000EB820080F88A
:102D700038100BE0C4EB041105F1140000EB8100E6
:102D800090F83900022801D1BDE8F081C4EB0411AC
:102D900005F1140000EB810090F838202146284608
:102DA000FDF78BFDB4E02146286805F0BAFA00F083
:102DB0004000402823D1402106F5A06000EB4410DC
:102DC00081600521C4EB041205F1140000EB8200C0
:102DD00080F83910C4EB041105F1140000EB8100F8
:102DE000807938B90021C4EB041205F1140000EB1E
:102DF000820001632146286804F05CFE88E02146D9
:102E0000286805F08EFA00F0100010287ED1C4EB7F
:102E1000041105F1140000EB8100807C032815D11A
:102E20000021C4EB041205F1140000EB82000163E1
:102E30000421C4EB041205F1140000EB820080F8B9
:102E400039102146286804F035FE30E0C4EB041147
:102E500005F1140000EB8100807C40B1C4EB04114B
:102E600005F1140000EB8100807C02281FD10021B5
:102E7000C4EB041205F1140000EB82000163A87991
:102E800040B1C4EB041105F1140000EB8100C079DE
:102E900001280CD10421C4EB041205F1140000EB4D
:102EA000820080F839102146286804F003FEC4EB44
:102EB000041105F1140000EB8100C07901281FD135
:102EC0000021C4EB041205F1140000EB8200C17173
:102ED00006F5A06000EB4410406820F4803106F550
:102EE000A06000EB4410416006F5A06000EB4410C8
:102EF000C06840F0200106F5A06000EB4410C160FE
:102F0000102106F5A06000EB441000E000E08160B5
:102F100000BF39E72DE9F04705460C46D5F800908B
:102F20004E462146286805F0FCF900F0040004280C
:102F300013D1042106F5A06000EB44108160072145
:102F4000C4EB041205F1140000EB820080F8391084
:102F50002146286804F0AEFD84E32146286805F088
:102F6000E0F900F02000202865D1202106F5A060BE
:102F700000EB44108160C4EB041105F1140000EB78
:102F80008100407901281DD10021C4EB041205F114
:102F9000140000EB820041710221C4EB041205F120
:102FA000140000EB820080F838100321C4EB0412F7
:102FB00005F1140000EB820080F8391021462868E2
:102FC00004F078FDC4EB041105F1140000EB81005E
:102FD00080790128C0D1C4EB041105F1140000EB85
:102FE0008100C0790028B7D1C4EB041105F11400A9
:102FF00000EB8100807C012807D00121C4EB041282
:1030000005F1140000EB8200C1710321C4EB04122E
:1030100005F1140000EB820080F839102146286881
:1030200004F048FD0021C4EB041205F1140000EB8C
:103030008200016316E32146286805F072F900F466
:103040000070B0F5007F0BD14FF4007106F5A06061
:1030500000EB441081602146286804F02BFD01E359
:103060002146286805F05DF900F00100E8B3002171
:10307000C4EB041205F1140000EB82000163214649
:10308000286805F04EF900F0400040280DD10121DC
:10309000C4EB041205F1140000EB820041714021E1
:1030A00006F5A06000EB44108160C4EB041105F14B
:1030B000140000EB8100C07998B10021C4EB041228
:1030C00005F1140000EB8200C17106F5A06000EB71
:1030D0004410406820F4803106F5A06000EB4410F5
:1030E0004160012106F5A06000E00FE000EB441014
:1030F0008160C4EB041205F1140000EB820080F83B
:1031000039102146286804F0D5FCABE22146286836
:1031100005F007F900F0400040282BD10521C4EB51
:10312000041205F1140000EB820080F83910C4EBA2
:10313000041105F1140000EB8100807938B90121F8
:10314000C4EB041205F1140000EB82004171002170
:10315000C4EB041205F1140000EB82000163214668
:10316000286804F0A7FC402106F5A06000EB44109D
:10317000816077E22146286805F0D3F800F0080066
:10318000082813D1082106F5A06000EB44108160E7
:103190000621C4EB041205F1140000EB820080F854
:1031A00039102146286804F085FC5BE22146286836
:1031B00005F0B7F800F01000102833D10021C4EB5F
:1031C000041205F1140000EB820001630421C4EB3A
:1031D000041205F1140000EB820080F83910C4EBF2
:1031E000041105F1140000EB8100407978B9C4EBBB
:1031F000041105F1140000EB8100007938B90121B8
:10320000C4EB041205F1140000EB82004171214669
:10321000286804F04FFC102106F5A06000EB441074
:1032200081601FE22146286805F07BF800F08000ED
:10323000802863D1A87968B90721C4EB041205F18D
:10324000140000EB820080F839102146286804F051
:1032500031FC4CE0C4EB041105F1140000EB8100DB
:10326000006B401CC4EB041205F1140101EB820158
:103270000863C4EB041105F1140000EB8100006B3E
:1032800002281DD90021C4EB041205F1140000EB43
:10329000820001630421C4EB041205F1140000EB69
:1032A000820080F83810C4EB041105F1140000EB23
:1032B000810090F8382021462846FDF7FEFA16E0F6
:1032C0000221C4EB041205F1140000EB820080F827
:1032D000381006F5A06000EB4410076827F080471F
:1032E00047F0004706F5A06000EB4410076080211E
:1032F00006F5A06000EB44108160B3E12146286828
:1033000005F00FF800F48060B0F5806F14D109214A
:10331000C4EB041205F1140000EB820080F83910B0
:103320002146286804F0C6FB4FF4806106F5A060D2
:1033300000EB4410816095E12146286804F0F1FF1C
:1033400000F0020002287DD1022106F5A06000EB0A
:1033500044108160C4EB041105F1140000EB8100FE
:1033600090F83900012876D10221C4EB041205F14E
:10337000140000EB820080F839100121C4EB041224
:1033800005F1140000EB820080F83810C4EB041142
:1033900005F1140000EB8100807C022808D0C4EB0A
:1033A000041105F1140000EB8100807C032851D149
:1033B000A87988B9C4EB041105F1140000EB810071
:1033C00090F8290080F00101C4EB041205F114000B
:1033D00000EB820080F82910A8790128E7D1C4EB1E
:1033E000041105F1140000EB8100006A002831D0BF
:1033F000C4EB041105F1140000EB8100C4EB0412CE
:10340000016A05F1140000EB8200808A0844401E26
:10341000C4EB041205F1140101EB8201898AB0FBAF
:10342000F1F808F001000028E1D0C4EB041105F127
:10343000140000EB810090F8290080F00101C4EB3A
:10344000041201E00DE106E005F1140000EB82003A
:1034500080F82910F8E0C4EB041105F1140000EB2A
:10346000810090F8390003281BD10221C4EB04121B
:1034700005F1140000EB820080F83910C4EB041150
:1034800005F1140000EB8100C079012808D1022168
:10349000C4EB041205F1140000EB820080F8381030
:1034A000D2E0C4EB041105F1140000EB810090F8A8
:1034B000390004282ED10221C4EB041205F11400B6
:1034C00000EB820080F83910C4EB041205F11400FF
:1034D00000EB820080F83810C4EB041105F11400F1
:1034E00000EB8100C079012813D10021C4EB041244
:1034F00005F1140000EB8200C17106F5A06000EB3D
:103500004410406820F4803106F5A06000EB4410C0
:10351000416099E0C4EB041105F1140000EB810057
:1035200090F83900052811D10221C4EB041205F1ED
:10353000140000EB820080F83910C4EB041205F18E
:10354000140000EB820080F838107DE0C4EB041119
:1035500005F1140000EB810090F83900062812D123
:103560000221C4EB041205F1140000EB820080F884
:1035700039100521C4EB041205F1140000EB8200A0
:1035800080F8381060E0C4EB041105F1140000EB82
:10359000810090F83900072809D0C4EB041105F127
:1035A000140000EB810090F8390009284AD102216B
:1035B000C4EB041205F1140000EB820080F839100E
:1035C000C4EB041105F1140000EB8100006B401CFA
:1035D000C4EB041205F1140101EB82010863C4EB92
:1035E000041105F1140000EB8100006B022811D9D1
:1035F0000021C4EB041205F1140000EB820001630A
:103600000421C4EB041205F1140000EB820080F8E1
:10361000381019E00221C4EB041205F1140000EB8C
:10362000820080F8381006F5A06000EB44100768AF
:1036300027F0804747F0004706F5A06000EB4410F4
:10364000076001E0BDE8F087C4EB041105F1140048
:1036500000EB810090F8382021462846FDF72DF92F
:1036600000E0EFE700BFEDE77CB50446266835468D
:10367000D5F840040190D5F840040090009820F05F
:103680002E000090019800F0020002280AD1019853
:1036900000F0010010B12046FDF720F8009840F03E
:1036A00002000090019800F0080008282AD1009834
:1036B00040F008000090019800F0040004281ED19A
:1036C000607A02280FD1019800F4C020B0F5802F55
:1036D00004D10221206804F0FFFD0CE001212068E4
:1036E00004F0FAFD07E0E079012804D14EF66021EC
:1036F00040F2044041512046FDF77FFB02E02046A6
:10370000FDF774FB019800F02000202803D10098F9
:1037100040F0200000900098C5F840047CBD2DE9E1
:10372000F84F0546D5F800B05F462868D0F82080ED
:1037300008F00F04C8F343400090C8F30A1600983D
:10374000022806D003287DD005287CD007287BD10D
:103750008CE0002E79D0C4EB041105F1140000EBCD
:103760008100806900287DD0C4EB041105F11400AC
:1037700000EB8100406A8119C4EB041205F11400CA
:1037800000EB8200006A814263D8B2B2C4EB041C31
:1037900005F1140303EB8C039969286804F0D5FD47
:1037A000C4EB041105F1140000EB8100806981195C
:1037B000C4EB041205F1140000EB82008161C4EB3C
:1037C000041105F1140000EB8100406A8119C4EB7B
:1037D000041205F1140000EB8200416207F5A060BD
:1037E00000EB44100069C0F3C94AC4EB041105F1B1
:1037F000140000EB8100808AB04233D1BAF1000F8F
:1038000030D007F5A06000EB4410D0F8009029F00C
:10381000804949F0004907F5A06000EB4410C0F86A
:103820000090C4EB041105F1140000EB810090F846
:10383000280080F00101C4EB041205F1140000EB34
:10384000820003E011E00EE00EE00BE080F82810AB
:1038500008E00421C4EB041205F1140000EB82001F
:1038600080F8381003E002E000BF00BF00BF00BFD7
:10387000BDE8F88F00BFFEE710B50248FDF705FB75
:1038800010BD000040000020C16AB1F52A0F02D12E
:103890000121C16205E0C16AB1F12A4F01D10821BD
:1038A000C1627047F8B5054600200090AC6B94F8F3
:1038B0003D60394800681921B0FBF1F04FF47A718E
:1038C000B0FBF1F0C0EBC00000EB8000009000BF47
:1038D000009820B9206C40F02000206409E0009896
:1038E000401E00902068006800F40070B0F5007F72
:1038F000EED000BF606B10B10020616BC863A06B9D
:1039000010B10020A16BC8632068006820F48060BB
:103910002168086000206085606B10B10020616B39
:103920000865A06B10B10020A16B086520680068D5
:1039300020F001002168086094F83D0060280AD159
:10394000202084F83D00002084F83E0020642046BA
:10395000FDF799FA1EE006F02800282811D120680A
:10396000006840F00100216808602068006840F4A9
:1039700080602168086000202063282084F83D00D2
:1039800005E0202084F83D00002084F83E00204619
:10399000FDF768FBF8BD00001400002001684969CC
:1039A000C1F3C01111B1002102681161704700001C
:1039B0002DE9F041044694F83D6094F83E70102FD4
:1039C00001D0402F07D1222E05D12068006820F4B5
:1039D00000602168086006F02800282805D1002032
:1039E0002063282084F83D0010E02068406800F43F
:1039F0000060B0F5006F07D0602E05D0202084F85D
:103A00003D00002084F83E000020206320684068CC
:103A100000F40060B0F5006F40D12068406820F4E9
:103A2000006021684860606B90F83500012814D070
:103A30004848616B0865606BFCF71EFD00285BD091
:103A40002068006820F0010021680860202084F8C8
:103A50003D00606B016D88474EE03E48A16B0865F4
:103A6000A06BFCF709FD002846D020684069C0F330
:103A7000801030B120680069616A0870606A401C7B
:103A800060622068006820F0010021680860202042
:103A900084F83D00A06B016D88472DE094F83D004F
:103AA00060281AD1202084F83D000020206420687E
:103AB0004069C0F3801030B120680069616A087005
:103AC000606A401C60622068006820F00100216884
:103AD00008602046FDF7D7F90EE020684069C0F382
:103AE000801030B120680069616A0870606A401C0B
:103AF00060622046FDF7B6FA256C05F0010058B962
:103B000005F00200022807D005F00400042803D0C5
:103B100005F00800082805D12068406820F4E0601E
:103B20002168486094F83D60206C00F0040004288F
:103B30000ED1282E0CD10848E062002020632020FE
:103B400084F83D00002084F83E002046FDF774FB19
:103B5000BDE8F081A53800080000FFFF70B50446FD
:103B6000E56A608D042810D12068406820F48060E8
:103B70002168486020680069616A0870606A401CBA
:103B80006062608D401E60857FE0608D03281AD1E1
:103B90002068406820F4806021684860042D07D0C8
:103BA000022D05D02068006820F48060216808603C
:103BB00020680069616A0870606A401C6062608DFC
:103BC000401E608561E0608D022854D1012D01D036
:103BD000102D06D12068006820F4806021680860FC
:103BE00010E0042D01D0022D06D12068006840F4B9
:103BF00080602168086005E02068006840F400707B
:103C00002168086020680069616A0870606A401C69
:103C10006062608D401E608520680069616A08707E
:103C2000606A401C6062608D401E6085206840684C
:103C300020F4407021684860202084F83D0094F80A
:103C40003E00402807D1002084F83E002063204633
:103C5000FDF7F5FA19E0002084F83E00082D01D0A8
:103C6000202D02D10020206301E012202063204695
:103C7000FDF7E3FA09E020680069616A0870606A8C
:103C8000401C6062608D401E608570BD70B504464A
:103C900094F83D0022287AD1E66A658D032D13D968
:103CA00020680069616A0870606A401C6062608D0B
:103CB000401E6085608D032868D12068406820F42C
:103CC00080602168486061E0E06A022858D0012DD8
:103CD00001D0002D54D1204600F070FCA0BB20681C
:103CE000006820F48060216808602068406820F443
:103CF000E0602168486020680069616A0870606A55
:103D0000401C6062608D401E6085202084F83D006C
:103D100094F83E00402807D1002084F83E0020633C
:103D20002046FDF78CFA31E0002084F83E00082E92
:103D300001D0202E02D10020206301E01220206358
:103D40002046FDF77AFA21E0FFE72068406820F47A
:103D5000E0602168486020680069616A0870606AF4
:103D6000401C6062608D401E6085202084F83D000C
:103D7000002084F83E002046FDF774F906E006E0D6
:103D80002068406820F480602168486000BF70BDF2
:103D900070B50446E56A94F83D00212847D1608D4E
:103DA00050B1606A007821680861606A401C6062F6
:103DB000608D401E60853AE0082D16D0202D14D06D
:103DC00015F5803F11D02068406820F4E06021683C
:103DD000486011202063002084F83E00202084F8F1
:103DE0003D002046FDF72AFA21E02068406820F4D3
:103DF000E060216848602068006840F40070216835
:103E0000086000202063202084F83D0094F83E00E4
:103E1000402806D1002084F83E002046FDF710FA25
:103E200005E0002084F83E002046FDF707FA70BD4B
:103E30002DE9F041044694F83D5094F83E70E66A4E
:103E4000208DB0BB212D3CD1082E16D0202E14D0B1
:103E500016F5803F11D02068406820F4E0602168AA
:103E6000486011202063002084F83E00202084F860
:103E70003D002046FDF7E2F944E02068406820F468
:103E8000E060216848602068006840F400702168A4
:103E9000086000202063202084F83D0094F83E0054
:103EA000402807D1002084F83E002046FDF7C8F9DD
:103EB00028E006E0002084F83E002046FDF7BEF929
:103EC00020E0212D03D0402F1CD1222D1AD1608D4E
:103ED00030B92068406820F480602168486011E0B3
:103EE00094F83E00402803D1204600F0A5F909E0EF
:103EF000606A007821680861606A401C6062608DB9
:103F0000401E6085BDE8F081416CC9B20268116154
:103F1000416B11B1416BC96B21B9816B41B1816BAF
:103F2000C96B29B10168496841F4006102685160B8
:103F3000704738B590F83E20C16A036B90F83D4059
:103F4000222C73D1046D64B9402A0AD100BF002429
:103F500000940468646900940468A469009400BF34
:103F60001AE1046DC4B90469B4F5404F14D100BF1F
:103F7000002400940468646900940468A4690094AF
:103F800000BF00BF0468246844F4807405682C6096
:103F9000046D641C0465FFE0448D8CB900BF0024EF
:103FA00000940468646900940468A469009400BFE4
:103FB00000BF0468246844F4007405682C60DDE0E8
:103FC000448D012C72D111F5803F30D104682468F2
:103FD00024F4806405682C600468646804F4006458
:103FE000B4F5006F10D10468246824F48064056877
:103FF0002C6000BF00240094046864690094046885
:10400000A469009400BFB9E000BF002400940468D4
:10401000646900940468A469009400BF00BF046848
:10402000246844F4007405682C60A7E0A9E008291E
:1040300023D0202921D0122B01D101291DD10429FF
:104040000AD0022908D0102906D00468246824F474
:10405000806405682C6005E00468246844F480648A
:1040600005682C6000BF0024009404686469009413
:104070000468A469009400BF80E00468246824F404
:10408000806405682C6000BF0024009404686469A3
:1040900000940468A469009400BF00BF0468246809
:1040A00044F4007405682C6068E0FFE7448D022C3E
:1040B0003BD1042910D002290ED010290CD004685D
:1040C000246824F4806405682C600468246844F43F
:1040D000006405682C6005E00468246844F480648A
:1040E00005682C600468646804F40064B4F5006F2B
:1040F00010D111F5803F07D0012905D0082903D040
:10410000102901D0202905D10468646844F4805442
:1041100005686C6000BF0024009404686469009422
:104120000468A469009400BF28E00468246844F48B
:10413000806405682C600468646804F40064B4F565
:10414000006F10D111F5803F07D0012905D0082953
:1041500003D0102901D0202905D10468646844F4F3
:10416000805405686C6000BF002400940468646992
:1041700000940468A469009400BF00BF0024046593
:104180000AE000BF00240094046864690094046895
:10419000A469009400BF00BF38BD90F83E104029CC
:1041A0000ED1016D29B9416C01F0FE010268116167
:1041B00041E0416CC9B241F00101026811613AE08D
:1041C0000169B1F5804F20D190F83D10212905D12A
:1041D000416C01F0FE010268116105E0416CC9B259
:1041E00041F0010102681161416B11B1416BC96B72
:1041F00021B9816BF9B1816BC96BE1B10168496883
:1042000041F400610268516015E0016D41B9416CF3
:1042100001F44071F02242EAE111026811610AE002
:10422000016D012907D1416C01F44071F12242EA8C
:10423000E11102681161704770B5044694F83D5071
:10424000206D98B9E06C012807D1A06CC0B221683C
:104250000861206D801C206550E0A06CC0F3072031
:1042600021680861206D401C206547E0206D012811
:1042700007D1A06CC0B221680861206D401C206588
:104280003CE0206D022836D1222D09D1206800683B
:1042900040F4807021680860206D401C20652DE08E
:1042A000608D60B1212D0AD1606A007821680861B3
:1042B000606A401C6062608D401E60851EE0608DFB
:1042C000E0B9212D1AD12068406820F4E06021680F
:1042D00048602068006840F4007021680860002091
:1042E0002063202084F83D00002084F83E00204612
:1042F000FCF7A6FF02E02046FFF750FB70BD418DA2
:1043000049B101680969426A1170416A491C4162F8
:10431000418D491E4185704770B5044694F83D5063
:10432000608DD8B120680069616A0870606A401CBD
:104330006062608D401E6085608D78B92A2D0DD138
:104340002068406820F48060216848602220206353
:10435000282084F83D002046FCF7C0FF70BD418D49
:1043600049B1416A097802681161416A491C416298
:10437000418D491E4185704770B5044694F83D5003
:10438000608DD8B1606A007821680861606A401C5D
:104390006062608D401E6085608D78B9292D0DD1D9
:1043A0002068406820F480602168486021202063F4
:1043B000282084F83D002046FCF791FF70BDF8B539
:1043C00004460D46002794F83D0000F028002828F8
:1043D0001CD12068406820F4806021684860C5F3E3
:1043E000800000B90127C5F3C01010B9A08986B2BA
:1043F00001E0208B86B200BF002084F83C0000BFA3
:10440000324639462046FCF73FFD0FE000BF002052
:10441000009020684069009020688069009000BF8B
:1044200000BF00BF002084F83C0000BFF8BD0000C2
:1044300038B5044694F83D502068406820F4E060A8
:104440002168486000BF002000902068406900900B
:104450002068006840F001002168086000BF00BFCC
:104460002068006820F48060216808602068406847
:1044700000F40060B0F5006F42D1222D01D02A2D4A
:104480001FD1A06B006840686085608D18B1206CFA
:1044900040F0040020642068406820F40060216837
:1044A0004860A06BFBF7FCFF012829D04148A16BB5
:1044B0000865A06BFBF7E0FF10B3A06B016D8847A8
:1044C0001EE0606B006840686085608D18B1206CEC
:1044D00040F0040020642068406820F400602168F7
:1044E0004860606BFBF7DCFF012809D03148616B45
:1044F0000865606BFBF7C0FF10B1606B016D88470A
:10450000608D18B320684069C0F3800048B120680E
:104510000069616A0870606A401C6062608D401EBC
:10452000608520684069C0F3801048B12068006948
:10453000616A0870606A401C6062608D401E608520
:10454000608D18B1206C40F004002064206C18B11C
:104550002046FFF72DFA2BE02A2D07D100202063FB
:10456000282084F83D002046FCF7B8FE94F83D0072
:1045700028280DD11048E06200202063202084F814
:104580003D00002084F83E002046FCF755FE0FE079
:10459000206B222801D0222D0AD100202063202068
:1045A00084F83D00002084F83E002046FCF796FE8B
:1045B00038BD0000A53800080000FFFF08B501461F
:1045C00000200090104800681922B0FBF2F04FF470
:1045D0007A72B0FBF2F000EB8000009000BF009810
:1045E000401E0090009828B9086C40F02000086434
:1045F000012008BD0868006800F40070B0F5007F75
:10460000EDD00020F5E700001400002070B504464E
:1046100025460CB9002500E001252A464FF480719B
:104620000148FCF74FF870BD0000024010B5034987
:104630000348FBF797FE0349087010BD01000020F6
:10464000AC8600080000002000B587B0142102A845
:10465000FBF700FE00BF002001907948006840F0A1
:104660000400774908600846006800F004000190E3
:1046700000BF00BF00BF002001900846006840F066
:10468000800008600846006800F08000019000BFCC
:1046900000BF00BF002001900846006840F0010004
:1046A00008600846006800F00100019000BF00BFEC
:1046B00000BF002001900846006840F0020008603A
:1046C0000846006800F00200019000BF00BF00BF74
:1046D000002001900846006840F008000860084685
:1046E000006800F00800019000BF00BF00224FF6F4
:1046F000DF515448FBF7E6FF00224AF6FC0152481E
:10470000FBF7E0FF012211034F48FBF7DBFF00221C
:104710004FF401414D48FBF7D5FF002204214C48DE
:10472000FBF7D0FF4FF60E400290012003900220CD
:1047300004900020059002A94248FBF7C9FE012021
:104740000290039004900020059002A93D48FBF7D9
:10475000BFFE4FF4E8700290012003900020049007
:10476000059002A93748FBF7B3FE4FF4087002909A
:10477000002003900120049002A93248FBF7A8FE14
:1047800040F201400290002003900120049002A911
:104790002D48FBF79DFE44F202000290002003909A
:1047A000049002A92848FBF793FE41F2840002908E
:1047B0000120039004900020059002A92248FBF7F5
:1047C00087FE4FF4084002900120039000200490DF
:1047D000059002A91C48FBF77BFE42F2780002908C
:1047E00001200390022004900020059002A91648A1
:1047F000FBF76EFE4FF4807002900120039004904E
:104800000020059002A91148FBF762FE4FF400401A
:10481000029001200390022004900020059002A93C
:104820000A48FBF755FE04200290012003900490F3
:104830000020059002A90648FBF74AFE07B000BD1C
:1048400030380240000802400004024000000240EC
:10485000000C024010B50B480B4908600B4848603B
:10486000002109488160C1604FF48041016100214D
:1048700041618161C1610162FCF7F6FB08B1FBF7A0
:104880006EFD10BD0054004040000020A0860100D5
:1048900010B50A480A490860A82048600021084865
:1048A00081604FF47A71C1600021016180218161D2
:1048B000FDF7FCF908B1FBF752FD10BD00440140C3
:1048C0002401002010B50A480A4908600020486009
:1048D0000021084881604FF6FF71C160002101612D
:1048E0008161FDF7E3F908B1FBF739FD10BD000068
:1048F000004801406C01002010B50A480A490860D0
:10490000542048600021084881604FF47A71C160EA
:104910000021016180218161FDF7C8F908B1FBF731
:104920001EFD10BD00200040B401002000B587B07E
:1049300000200390049005900690019002904FF0A3
:10494000804014490860401548600021114881608A
:104950006421C1600021016180218161FDF7A6F918
:1049600008B1FBF7FCFC4FF48050039003A9094801
:10497000FDF756FA08B1FBF7F2FC00200190029017
:1049800001A90448FDF738F908B1FBF7E8FC07B0C6
:1049900000BD0000940000201CB500200090019094
:1049A0000E480F4908600A20486000210C488160C9
:1049B0001E21C16080218161FDF778F908B1FBF704
:1049C000CEFC202000900020019069460448FDF7AD
:1049D00013F908B1FBF7C3FC1CBD00000014004034
:1049E000DC00002010B50B480B4908604FF4E130A3
:1049F0004860002108488160C16001610C2141616B
:104A000000218161C161FDF7D3FC08B1FBF7A7FC70
:104A100010BD0000004C0040FC01002010B50B4808
:104A20000B4908604FF4E13048600021084881607C
:104A3000C16001610C21416100218161C161FDF70B
:104A4000B7FC08B1FBF78BFC10BD00000010014063
:104A50004402002010B501220A490B4800F08AFFE9
:104A600008B1FBF77CFC0949074802F098FD08B142
:104A7000FBF775FC044802F0FBFD08B1FBF76FFC87
:104A800010BD0000897600088C020020180000206C
:104A900010B5024802F012FC10BD00008C0200208C
:104AA00000BFFEE700BFFEE710B50248FCF748F87C
:104AB00010BD00006406002070477047704710B5B5
:104AC000FCF70EFC10BD000000B593B0302107A824
:104AD000FBF7C0FB142102A8FBF7BCFB00BF0020C2
:104AE00001902448006840F0805022490860084640
:104AF000006800F08050019000BF00BF00BF0020A0
:104B000001901D48006840F480401B490860084639
:104B1000006800F48040019000BF00BF01200790B2
:104B20000004089002200D9041050E9119210F916B
:104B30004FF4A8711091022111910721129107A839
:104B4000FCF7F0FD08B1FBF70AFC0F2002900220F1
:104B50000390002004904FF4A05005904FF4805033
:104B60000690052102A8FCF79DFC08B1FBF7F7FBB6
:104B700013B000BD40380240007000400348006898
:104B800040F47000014908607047000088ED00E0C3
:104B900010B50248FDF7CBF910BD0000240100203C
:104BA00010B50248FDF7C3F910BD0000B4010020A4
:104BB00010B502682B4B98420ED0B0F1804F0BD04D
:104BC000294B984208D0294B984205D0284B98424F
:104BD00002D0284B984203D122F070024B681A434E
:104BE000204B984220D0B0F1804F1DD01E4B9842F0
:104BF0001AD01E4B984217D01D4B984214D01D4B13
:104C0000984211D01C4B98420ED01C4B98420BD0AE
:104C10001B4B984208D01B4B984205D01A4B984228
:104C200002D01A4B984203D122F44072CB681A4347
:104C300022F080034C6943EA04028B68C3620B686C
:104C40008362084B984202D00A4B984201D10B690B
:104C50000363036843F004030360012343610260BC
:104C600010BD0000000001400004004000080040AA
:104C7000000C00400004014000400140004401409D
:104C80000048014000180040001C00400020004087
:104C900030B50C46816821F47F4142EA0325254363
:104CA0002943816030BD0A46816821F0700142F0DD
:104CB000070319438160704730B50B461446026AFA
:104CC000056A25F001050562816921F0F00141EADC
:104CD000041122F00A021A438161026230BD30B52C
:104CE0000B461446026A056A25F0100505628169C3
:104CF00021F4704141EA043122F0A00242EA031299
:104D00008161026230BD000010B50248FDF7CCF9A8
:104D100010BD0000FC01002070B50446A56B00200A
:104D2000E8852846FDF7BEF970BD00BF00BF0268E8
:104D30000C3252E8002F22F4907102680C3242E8E3
:104D40000013002BF3D100BF00BF00BF0268143274
:104D500052E8002F22F001010268143242E80013E9
:104D6000002BF3D100BF016B01290ED100BF00BFA2
:104D700002680C3252E8002F22F0100102680C3257
:104D800042E80013002BF3D100BF202180F842102D
:104D900000210163704710B504462068C06820F008
:104DA00040002168C860202084F841002046FDF7BB
:104DB000C0FB002010BDF8B504460025002694F87D
:104DC0004200222873D1A068B0F5805F0BD1206922
:104DD00048B9A66A20684068C0F308003080A06A1D
:104DE000801CA06214E0A56AA068B0F5805F03D0C3
:104DF000A06828B9206918B920684068287004E0C4
:104E00002068406800F07F002870A06A401CA06203
:104E1000E08D401E80B2E085002846D12068C06841
:104E200020F020002168C8602068C06820F48070ED
:104E30002168C8602068406920F00100216848614D
:104E4000202084F8420000206063206B012826D1D6
:104E50000020206300BF00BF21680C3151E8001F13
:104E600021F0100021680C3141E80002002AF3D142
:104E700000BF2068006800F0100010280AD100BFB1
:104E80000020009020680068009020684068009032
:104E900000BF00BFA18D2046FDF703F902E02046C8
:104EA000FDF746FB0020F8BD01E00020FBE70220F3
:104EB000F9E700002DE9F84F04462068006920F466
:104EC0004050E1680843216808612169A0680843EF
:104ED00061690843E169084300902068C06849F2AD
:104EE0000C618843009908432168C86020684069C4
:104EF00020F44070A1690843216848617649206820
:104F0000884203D075492068884203D1FCF7A2FB90
:104F1000814602E0FCF78EFB8146E069B0F5004F68
:104F20006CD102206168A0FB015003461920A9FB47
:104F3000007001462A463846FBF742F96421B0FB6F
:104F4000F1F04FEA001A02206168A0FB01510B4604
:104F50001920A9FB00712A463846FBF731F9834630
:104F600002206168A0FB015003461920A9FB0071D3
:104F70002A463846FBF724F96421B0FBF1F000EB38
:104F8000C00101EB0010ABEB8000322101EBC0004F
:104F90006421B0FBF1F000F0F8000AEB400A0220B7
:104FA0006168A0FB015003461920A9FB007001466F
:104FB0002A463846FBF704F9834602206168A0FBC5
:104FC000015003461920A9FB00712A463846FBF719
:104FD000F7F86421B0FBF1F000EBC00101EB001029
:104FE000ABEB8000322101EBC0006421B0FBF1F09B
:104FF00000F007005044216888606AE0042061687E
:10500000A0FB015003461920A9FB007001462A4667
:105010003846FBF7D5F8824604206168A0FB0150B2
:1050200003461920A9FB007001462A463846FBF7C3
:10503000C7F86421B0FBF1F000EBC00101EB0010F8
:10504000AAEB8000322101EB00106421B0FBF1F0EB
:1050500000F0F00A04206168A0FB017003461920EB
:10506000A9FB00513A462846FBF7AAF86421B0FB99
:10507000F1F00AEB001A04206168A0FB01510B4615
:105080001920A9FB00712A463846FBF799F8834698
:1050900004206168A0FB015003461920A9FB0070A1
:1050A00001462A463846FBF78BF86421B0FBF1F045
:1050B00000EBC00101EB0010ABEB8000322101EBF3
:1050C00000106421B0FBF1F000F00F0050442168A3
:1050D0008860BDE8F88F0000001001400014014016
:1050E000014691F84100212828D18868B0F5805FF9
:1050F0000BD1086948B90A6A1088C0F308000B6828
:105100005860086A801C086205E00B6A581C086237
:1051100018780B685860C88C401E80B2C88458B993
:105120000868C06820F080000B68D8600868C06814
:1051300040F040000B68D860002070470220FCE778
:1051400070B506460D46304600F029F904464FF684
:10515000FF70844207D045F4004104F00F0206F5C9
:10516000617040F82210E0B270BD2DE9FF410746A2
:105170000C4615461E460020012102230A468DE8F2
:10518000320003903146384600F056FD002004B04E
:10519000BDE8F0812DE9FF4104460D4617461E4645
:1051A000DDF8288094F81D0308B14FF000080120B5
:1051B0000223002231468DE8A101204600F03CFD8B
:1051C000002004B0BDE8F08170B504460D462946C4
:1051D000204600F0F3FB002070BD70B504460D467C
:1051E000A078012807D102212174012161740021D6
:1051F0006182A582E18200221146204600F016F865
:1052000070BD2DE9FF4107460C4615461E4600209D
:10521000012103460A468DE83200039031463846A4
:1052200000F00AFD002004B0BDE8F0812DE9F04156
:1052300004460E4617460125A078012802D0022810
:1052400019D107E0A660A781012121760220A07074
:10525000012511E0204600F033F905460DB1032D7C
:1052600004D10120A0700021217603E0022D01D19C
:105270000120A07000E000BF00BF2846BDE8F0811B
:105280002DE9FF4104460D4617461E46DDF82880ED
:1052900094F81D0308B14FF00008012000231A46BE
:1052A00031468DE8A101204600F0C6FC002004B084
:1052B000BDE8F0817FB506460C4615460020082162
:1052C000CDE9000403460246CDE9021029463046E6
:1052D00000F0B2FC002004B070BD10B504462046BA
:1052E000FBF7E2F810BDF0B506460C461546002265
:1052F000002106F54E771AE002EB820000EBC20CAB
:1053000007F10A0000EB4C014879A04201D0FF2CC4
:105310000BD18879A84201D0FF2D06D1C8799842D7
:1053200001D0FF2B01D11046F0BD501CC2B2022AA1
:10533000E2D3FF20F8E70246102909D202F5617096
:1053400030F82100C0F30E0302F5617040F82130FF
:10535000002070472DE9F04104460E4615461F46D1
:10536000DDF81880A078012812D146F08001217460
:1053700006216174658205F47F40B0F5407F03D15A
:1053800040F20941A18201E00021A182A4F8168027
:10539000424639462046FFF749FFBDE8F081024604
:1053A000002100BF0AE002F5617030F8210000F42E
:1053B000004008B908467047481CC1B21029F2D312
:1053C0004FF6FF70F7E710B502460B8814782344B8
:1053D0000B801378981810BDF8B506460C4606F1F8
:1053E0001C07B4F5807F03D900BF00BF0320F8BDC0
:1053F0003B464FF40072002130460094FFF7AAFFAD
:1054000005462DB922463946304601F08DFD054648
:105410002846ECE7F8B505460C46B4F5007F03D9FD
:1054200000BF00BF0320F8BD05F58E734FF48072F6
:10543000002128460094FFF78DFF064636B9224624
:1054400005F58E71284601F01EFE06463046EAE755
:105450002DE9F8430546884616461C46B4F5007FFC
:1054600000D826B900BF00BF0320BDE8F88348F488
:10547000407205F58E73002128460094FFF76AFFFD
:1054800007462FB92246314605F58E7001F0FBFE26
:105490003846EAE70146002031B1012906D0022949
:1054A00006D0032908D105E0002007E0022005E02E
:1054B000012003E0022001E0022000BF00BF70478E
:1054C000F8B5044601270025207E0C2870D2DFE8BD
:1054D00000F0DE060F323E515F7B879BA9BE6279EA
:1054E00004F110012046FFF7E5FE02212176CFE00E
:1054F0006179204600F0E6FA0546012D14D1207CA2
:1055000000F08006E08A38B1802E02D10321217696
:1055100010E0052121760DE0802E02D109212176AF
:1055200008E00721217605E0042D01D0022D01D1EC
:105530000B212176ACE0D4F8C403E0812379A28961
:105540002046A168FFF75DFE04212176A0E02179C5
:10555000204600F0B7FA0546012D02D10921217637
:1055600007E0052D01D1032703E0042D01D10B2114
:1055700021768DE0012000906379A2892046A16800
:10558000FFF77EFED4F8C403E081062121767FE098
:105590006179204600F096FA0546012D02D10721D7
:1055A000217610E0052D04D10C21217603270AE095
:1055B0006DE0022D02D10521217604E0042D02D1F7
:1055C0000B212176022763E0237900221146204631
:1055D000FFF717FED4F8C403E0810821217657E0D5
:1055E0002179204600F06EFA0546012D03D10D21E8
:1055F0002176002707E0042D02D10B21217602E05D
:10560000052D00D1032743E001200090637900229B
:1056100011462046FFF734FED4F8C403E0810A2186
:10562000217635E06179204600F04CFA0546012DDF
:1056300003D100270D21217608E0022D02D1092196
:10564000217603E0042D01D10B21217620E0607E3C
:10565000401CC1B26176022904D8012121760120C3
:10566000A07013E006212046D4F8D42390470021EF
:10567000617600BF00BF61792046FFF75CFE2179AB
:105680002046FFF758FE00202070022700E000BFF0
:1056900000BF3846F8BDFEB50446012601256078F6
:1056A000082874D2DFE800F0044874ABD2FDEFEEB6
:1056B00008212046FFF7AEFE054605BB94F82D13E2
:1056C000A17101206070A079002294F81D13CDE92A
:1056D0000012029094F81C3321798022204601F0B8
:1056E0000EFCA079002294F81D13CDE9001202905F
:1056F00094F81C336179204601F001FC1BE0032D76
:1057000019D100BF00BF94F81E03401C84F81E038B
:1057100094F81E03032804D900BF00BF0D20207099
:1057200009E061792046FFF706FE21792046FFF760
:1057300002FE002020700CE112212046FFF76AFED5
:10574000054635B900BF00BF00BF00BF0220607032
:105750001CE0032D1AD100BF00BF94F81E03401CAB
:1057600084F81E0394F81E03032804D900BF00BF69
:105770000D2020700AE061792046FFF7DCFD2179D9
:105780002046FFF7D8FD002060702070E1E0DFE0E8
:105790000121204601F030FF05462DBB0220FFF716
:1057A0009CFD012184F81C1300BF00BF0320607022
:1057B000A079002294F81D13CDE90012029094F80C
:1057C0001C3321798022204601F099FBA079002228
:1057D00094F81D13CDE90012029094F81C336179FE
:1057E000204601F08CFB09E0032D07D100BF00BF6C
:1057F00000BF00BF0D20207000206070A9E00921CB
:105800002046FFF7E9FD054615B9042060701CE04D
:10581000032D1AD100BF00BF94F81E03401C84F86A
:105820001E0394F81E03032804D900BF00BF0D20F7
:1058300020700AE061792046FFF77DFD217920463E
:10584000FFF779FD00206070207082E0B4F83A1311
:105850002046FFF7C1FD054615B9052060701FE021
:10586000032D1DD100BF00BF94F81E03401C84F817
:105870001E0394F81E03032807D900BF00BF0D20A4
:1058800020700DE049E02AE00BE061792046FFF747
:1058900052FD21792046FFF74EFD002060702070F8
:1058A00057E094F83403A8B194F83413FF2304F5B7
:1058B0008E722046FFF7CCFD054625B900BF00BF1C
:1058C000062060700AE0032D08D100BF00BF06204B
:1058D000607003E000BF00BF0620607039E094F8FC
:1058E0003503A8B194F83513FF2304F58E722046D2
:1058F000FFF7AEFD054625B900BF00BF0720607069
:105900000AE0032D08D100BF00BF0720607003E04C
:1059100000BF00BF072060701BE094F8360398B109
:1059200094F83613FF2304F58E722046FFF790FD9E
:1059300005461DB900BF00BF002608E0032D06D1B3
:1059400000BF00BF002602E000BF00BF002600E04D
:1059500000BF00BF3046FEBD10B5044620780B28BE
:1059600007D1D4F87C0320B1D4F87C0381692046A8
:10597000884710BD70B504460D4616461CB900BFD9
:1059800000BF022070BD84F8CC630020C4F87C0303
:10599000C4F880032046FAF79BFC002184F8231307
:1059A00084F8201384F8211384F822130DB1C4F86D
:1059B000D453204600F09AF80020E3E72DE9F041A7
:1059C00004460D46002600272946D4F8D003FAF7EE
:1059D000D3FE06463046FFF75DFD07463846BDE874
:1059E000F0810146012281F82023002281F8212341
:1059F00081F822230020704710B50446012184F865
:105A00002113002184F8201384F82313204600F08A
:105A100004F921792046FFF78EFC61792046FFF7D3
:105A20008AFC002010BD70B505460C4695F8CC03E5
:105A3000012802D12046FEF7E9FDC820FAF734FD1F
:105A4000002070BD70B504460D462946D4F8D00339
:105A5000FAF789FE70BD70B504460125D4F8D0036D
:105A6000FAF750FE20B1012804D0022806D103E045
:105A7000002505E0012503E0022501E0012500BF26
:105A800000BF284670BD30B503460020D3F8D023B0
:105A9000C1EB011502F1140404EB8504E47844B170
:105AA000C1EB011502F1140404EB850494F82800FD
:105AB00007E0C1EB011502F1140404EB850494F82E
:105AC000290030BD70B504460D462946D4F8D003F0
:105AD000FAF73FFE70BD10B50446D4F8C403401C6D
