:020000040801F1
:10000000A0940120C9030108051401080D1401087A
:10001000111401081514010819140108000000004A
:10002000000000000000000000000000D5020108F0
:100030001D140108000000003103010895C00308E9
:10004000E3030108E3030108E3030108E3030108F4
:10005000E30301081F140108E3030108E303010897
:10006000E3030108E3030108E3030108E3030108D4
:10007000E3030108E3030108E3030108E3030108C4
:1000800021140108E30301082B140108E30301080C
:10009000E3030108E3030108E3030108E3030108A4
:1000A000E303010835140108E3030108E303010831
:1000B000E3030108E3030108E3030108E303010884
:1000C000E3030108E3030108E3030108E303010874
:1000D000E3030108E3030108E3030108E303010864
:1000E000E3030108E3030108E3030108E303010854
:1000F000E30301083F140108E3030108E3030108D7
:10010000E3030108E3030108E3030108E303010833
:1001100049140108E303010853140108E30301082B
:1001200069140108E3030108E3030108E30301087C
:10013000E30301080000000000000000E3030108E1
:10014000E3030108E3030108E30301087314010852
:10015000E3030108E3030108E3030108E3030108E3
:10016000E3030108E3030108E3030108E3030108D3
:10017000E3030108E30301080000000000000000A1
:10018000E3030108E303010800F002F800F092F82D
:100190000AA090E8000C82448344AAF10107DA45E2
:1001A00001D100F087F8AFF2090EBAE80F0013F0A2
:1001B000010F18BFFB1A43F0010318473C27040046
:1001C0007C2704000A444FF0000C10F8013B13F0A8
:1001D000070408BF10F8014B1D1108BF10F8015BA0
:1001E000641E05D010F8016B641E01F8016BF9D193
:1001F00013F0080F1EBF10F8014BAD1C0C1B09D1EA
:100200006D1E58BF01F801CBFAD505E014F8016B5B
:1002100001F8016B6D1EF9D59142D6D370470000ED
:10022000103A24BF78C878C1FAD8520724BF30C822
:1002300030C144BF04680C607047000000230024F4
:1002400000250026103A28BF78C1FBD8520728BFE6
:1002500030C148BF0B607047662900F081A6642951
:100260003DF01A8175293DF0178178293DF05081C4
:1002700063293DF0468773293DF04B870020704786
:100280001FB540F060FE9DE803003DF069FC3DF0C5
:1002900008FB3EF019FA04000020002140F050F85D
:1002A000401C60600020002140F034F8E0601FBD79
:1002B00010B510BD3EF0EFFC1146FFF7E1FF00F076
:1002C000FEF83EF03FFF03B4FFF7F2FF03BC03F07C
:1002D0007CF800002C4B19680868B0E8F04F80F3F8
:1002E0000988BFF36F8F4FF0000080F311887047CB
:1002F0000000000008480068006880F308884FF09C
:10030000000080F3148862B661B6BFF34F8FBFF36D
:100310006F8F00DF00BF00BF08ED00E0DFF80C00CA
:10032000016841F470010160704700BF88ED00E092
:10033000EFF30980BFF36F8F134B1A681EF0100F95
:1003400008BF20ED108A20E9F04F106009B44FF08B
:10035000500080F31188BFF34F8FBFF36F8F2AF0E7
:1003600014FA4FF0000080F3118809BC196808687E
:10037000B0E8F04F1EF0100F08BFB0EC108A80F309
:100380000988BFF36F8F704720C00120EFF305800D
:10039000704700000B49D1F800C04A685CF8043B84
:1003A0001068184442F8040B8C4528BFA1F1DC0CFE
:1003B0008A4228BFA1F1DC02C1F800C04A6020F0E7
:1003C0000040704734D4012009488047094800475D
:1003D000FEE7FEE7FEE7FEE7FEE7FEE7FEE7FEE7F5
:1003E000FEE7FEE704480549054A064B7047000052
:1003F000DD15010889010108A0540120A094012005
:10040000A0740120A074012072B600BFFEE700B501
:1004100093B0302107A83DF031FB142102A83DF034
:100420002DFB00BF002001904548006840F080503F
:10043000434908600846006800F08050019000BF02
:1004400000BF00BF002001903E48006840F480409B
:100450003C4908600846006800F48040019000BFF5
:1004600000BF012007900004089002200D90410574
:100470000E9119210F914FF4A87110910221119141
:100480000721129107A81DF0D9FF08B1FFF7BCFFA3
:100490000F20029002200390002004904FF4A050FF
:1004A00005904FF480500690052102A81EF062FAD4
:1004B00008B1FFF7A9FF1EF07DFB13B000BD20F0CF
:1004C0008AF8FFF7A4FF00F045F800F029FB00F0E0
:1004D0005BF900F085FA00F057FB00F070FC00F0CB
:1004E000B5FE00F0CAFE00F049FA00F0C5FB00F0CE
:1004F00013FD00F032FD00F087FD00F044FD00F038
:10050000ADFC2DF08BFC2BF0D0FD00F022F92BF090
:100510000BFE00BFFEE710B504460B492068884279
:1005200001D120F093F809492068884201D105F0F3
:10053000D7F907492068884201D103F0D2FF10BDE6
:100540004038024000700040001000400020004091
:100550000044014000B587B0142102A83DF08EFA96
:1005600000BF002001907248006840F0040070490C
:1005700008600846006800F00400019000BF00BF5A
:1005800000BF002001900846006840F0800008602D
:100590000846006800F08000019000BF00BF00BF67
:1005A000002001900846006840F0010008600846FD
:1005B000006800F00100019000BF00BF00BF0020F4
:1005C00001900846006840F0020008600846006894
:1005D00000F00200019000BF00BF00BF00200190AA
:1005E0000846006840F0080008600846006800F00F
:1005F0000800019000BF00BF00224FF61F414D4888
:100600001FF045F9002242F6FC014B481FF03FF96C
:100610000122110348481FF03AF900224FF480717B
:1006200046481FF034F90022042145481FF02FF9F5
:100630004FF60E400290012003900220049000200B
:10064000059002A93B481EF095FF012002900390FF
:1006500004900020059002A936481EF08BFF102060
:1006600002900120039000200490059002A93148D7
:100670001EF080FF4FF408700290002003900120CC
:10068000049002A92B481EF075FF44F2014002902D
:10069000002003900120049002A927481EF06AFF61
:1006A0000220029000200390049002A922481EF02C
:1006B00061FF41F284000290012003900490002029
:1006C000059002A91C481EF055FF4FF400600290EF
:1006D0000120039000200490059002A916481EF006
:1006E00049FF42F27800029001200390022004901A
:1006F0000020059002A910481EF03CFF4FF48070C6
:10070000029001200390022004900020059002A98D
:100710000A481EF02FFF042002900120039004904D
:100720000020059002A906481EF024FF07B000BD76
:10073000303802400008024000040240000002403D
:10074000000C02402DF093FB00BF01202CF021F89B
:10075000FBE710B5074A0021AFF217002BF0BEFDF2
:1007600005490860054A002105482BF0B7FD0549F9
:10077000086010BD60100508000000208410050806
:10078000B9310208040000201FB50020009001903C
:10079000029003907248734908604FF480304860BB
:1007A000002170488160012101610176002180F8FB
:1007B0002010C1626C4981620021C1600721C161C2
:1007C000012180F830100021416120F098F808B133
:1007D000FFF71AFE032000900120019006200290EE
:1007E0006946604820F045FD08B1FFF70DFE052081
:1007F00000900220019069465A4820F03AFD08B165
:10080000FFF702FE0620009003200190694655483C
:1008100020F02FFD08B1FFF7F7FD0720009004201E
:10082000019069464F4820F024FD08B1FFF7ECFD28
:10083000102000900520019069464A4820F019FDDB
:1008400008B1FFF7E1FD11200090062001906946F4
:10085000444820F00EFD08B1FFF7D6FD12200090AD
:100860000720019069463F4820F003FD08B1FFF7DB
:10087000CBFD1FBD10B586B00446142101A83DF084
:10088000FDF837492068884251D100BF0020009010
:100890003648006840F480703449086008460068B3
:1008A00000F48070009000BF00BF00BF00200090E7
:1008B0002E481438006840F001002C4914390860B3
:1008C0000846006800F00100009000BF00BFE8206B
:1008D0000190032002900020039001A924481EF0FB
:1008E00049FE24482449086000204860002122482D
:1008F0008160C1604FF480610161490041618900FC
:1009000081610021C161016241621FF079F808B183
:10091000FFF77AFD00BF1848A063846300BF002280
:10092000052112201FF07CFC12201FF0B7FC06B03E
:1009300010BD10B504460A49206888420FD10B4803
:10094000006820F4807009490860E82108481EF01A
:10095000F4FEA06B1FF0C8F812201FF0B3FC10BD0E
:1009600000200140F8C001200100000F443802407F
:10097000000002401064024040C1012010B515483B
:1009800015490860084621F0FCF908B1FFF73CFD65
:1009900010BD08B50F4A016891420FD100BF002178
:1009A00000910E49096841F480510C4A11601146CA
:1009B000096801F48051009100BF00BF08BD054ADD
:1009C0000168914205D10549096821F48051034A23
:1009D000116070470030024000C0012030380240F2
:1009E0001CB500200090019047484849086008461F
:1009F00021F029FA08B1FFF707FD1420009000202C
:100A0000019000226946414821F0DCFB08B1FFF764
:100A1000FBFC1CBD10B586B00446142101A83DF0B6
:100A20002DF839492068884254D100BF0020009039
:100A30003748006840F000503549086008460068B3
:100A400000F00050009000BF00BF00BF00200090E9
:100A50002F481038006840F001002D491039086017
:100A60000846006800F00100009000BF00BF1020A1
:100A70000190032002900020039001A925481EF058
:100A800079FD2548254908604FF0606048604021A5
:100A9000224881600021C1604FF4806101614900FA
:100AA0004161890081614911C16100210162416296
:100AB0001EF0A6FF08B1FFF7A7FC00BF1748A06013
:100AC000846300BF00220F2136201FF0A9FB3620CF
:100AD0001FF0E4FB06B010BD10B504460A492068BB
:100AE00088420FD10A48006820F000500849086089
:100AF000102108481EF021FEA0681EF0F5FF3620E8
:100B00001FF0E0FB10BD0000007400401401002045
:100B10004038024000000240886002402801002066
:100B200008B500BF002000901648006840F400108F
:100B3000144908600846006800F40010009000BFE7
:100B400000BF00BF002000900846006840F480000D
:100B500008600846006800F48000009000BF00BFF5
:100B60000022052110201FF05BFB10201FF096FBD8
:100B70000022052138201FF053FB38201FF08EFB88
:100B800008BD00003038024010B5364836490860CC
:100B900036484860002134488160C1604FF480418C
:100BA0000161002141618161C161016221F02BFC81
:100BB00008B1FFF729FC10BD10B586B0044614211A
:100BC00001A83CF05BFF2749206888422FD100BF75
:100BD000002000902648006840F002002449086088
:100BE0000846006800F00200009000BF00BF4FF40C
:100BF0004070019012200290012003900490042084
:100C0000059001A91B481EF0B5FC00BF0020009014
:100C100017481030006840F4001015491031086082
:100C20000846006800F40010009000BF00BF06B046
:100C300010BD10B504460B492068884210D10C48FD
:100C40001030006820F4001009491031086089153F
:100C500008481EF072FD4FF4007106481EF06DFD4D
:100C600010BD00000054004088010020A086010053
:100C7000303802400004024010B51548154908609C
:100C8000084625F0F8FE08B1FFF7BEFB10BD08B519
:100C90000F4A016891420FD100BF002100910E4917
:100CA000096841F040010C4A11601146096801F0E1
:100CB0004001009100BF00BF08BD054A0168914294
:100CC00005D10549096821F04001034A11607047C8
:100CD00000080650A0C101203438024010B586B08B
:100CE0000446142101A83CF0C9FE2068B0F1804FF1
:100CF0001ED100BF00200090FE48006840F00100B7
:100D0000FC4908600846006800F00100009000BF40
:100D100000BF4FF400400190022002900390002099
:100D200004900120059001A9F3481EF023FC44E043
:100D3000F249206888421ED100BF00200090ED4893
:100D4000006840F00400EB4908600846006800F0C5
:100D50000400009000BF00BF4FF4E070019002203B
:100D600002900020039004900220059001A9E4481D
:100D70001EF000FC21E0E349206888421DD100BF3D
:100D800000200090DB48006840F00200D94908606C
:100D90000846006800F00200009000BF00BF4FF45A
:100DA000004001900220029000200390049009204E
:100DB000059001A9D4481EF0DDFB06B010BD00B5BA
:100DC0008DB0002009900A900B900C90079008902D
:100DD0001C2168463CF052FE4FF08040CB49086031
:100DE000602048600021C948816041F28831C160BB
:100DF000002101618021816114F0E2FD08B1FFF75B
:100E000003FB4FF48050099009A9C04818F023FA59
:100E100008B1FFF7F9FABD4815F065FC08B1FFF716
:100E2000F3FA00200790089007A9B84819F0DBFEF4
:100E300008B1FFF7E9FA60200090002001900290CD
:100E4000049000226946B14817F060FD08B1FFF731
:100E5000DBFAAE48FFF742FF0DB000BD00B58DB024
:100E6000002009900A900B900C90079008901C218C
:100E700068463CF003FEA148A54908604FF496502F
:100E800048600021A24881606421C16000210161A5
:100E90008021816114F094FD08B1FFF7B5FA4FF499
:100EA0008050099009A99A4818F0D5F908B1FFF7C0
:100EB000ABFA974815F017FC08B1FFF7A5FA002028
:100EC0000790089007A9924819F08DFE08B1FFF726
:100ED0009BFA602000900020019002900490002274
:100EE00069468B4817F012FD08B1FFF78DFA04220E
:100EF0006946874817F00AFD08B1FFF785FA08220E
:100F00006946834817F002FD08B1FFF77DFA804873
:100F1000FFF7E4FE0DB000BD1CB50020009001906D
:100F20007C487D4908600A20486000217A48816039
:100F30001E21C1608021816114F042FD08B1FFF7DC
:100F400063FA20200090002001906946724819F051
:100F50004AFE08B1FFF758FA1CBD10B56F4870493A
:100F60000860A820486000216D4881604FF47A71C4
:100F7000C160002101618021816114F021FD08B16F
:100F8000FFF742FA10BD00B58BB000200790089023
:100F900009900A901C2168463CF070FD594861494F
:100FA00008602320486000215E4881606421C160A0
:100FB000002101618021816114F002FD08B1FFF779
:100FC00023FA4FF48050079007A9564818F043F9C8
:100FD00008B1FFF719FA534815F085FB08B1FFF780
:100FE00013FA6020009000200190029004900422E7
:100FF00069464C4817F08AFC08B1FFF705FA4948E2
:10100000FFF76CFE0BB000BD10B5474847490860BC
:10101000542048600021454881604FF47A71C160D6
:10102000002101618021816114F0CAFC08B1FFF741
:10103000EBF910BD38B504462068B0F1804F11D1EE
:1010400000BF002000902B481030006840F00100E5
:101050002849103108600846006800F0010000903F
:1010600000BF99E025492068884211D100BF0020C7
:10107000009020481030006840F002001D491031F7
:1010800008600846006800F00200009000BF83E09E
:1010900020492068884211D100BF002000901548E7
:1010A0001030006840F020001249103108600846F6
:1010B000006800F02000009000BF6DE01749206834
:1010C000884239D100BF002000900A4814300068DF
:1010D00040F400300749143108600846006800F405
:1010E0000030009000BF00BF0022052119201FF032
:1010F00097F81DE030380240000002400004004034
:10110000000802400018004000040240B0C1012065
:10111000F8C101200014004040C2012000440140F9
:1011200088C20120D0C201200020004018C3012045
:1011300019201FF0B3F82FE03E49206888420FD1F4
:1011400000BF002000903C48006840F040003A4951
:1011500008600846006800F04000009000BF1BE0F7
:1011600036492068884217D100BF002000903248DD
:10117000006840F48070304908600846006800F458
:101180008070009000BF00BF002205212D201FF0BD
:1011900047F82D201FF082F838BD10B504462068AE
:1011A000B0F1804F06D12448006820F001002249A8
:1011B00008603DE022492068884206D11E48006848
:1011C00020F002001C49086032E01E492068884275
:1011D00006D11948006820F020001749086027E070
:1011E0001949206888420BD11348001D006820F47B
:1011F00000301149091D086019201FF063F817E03D
:101200000C492068884206D10B48006820F0400055
:10121000094908600CE009492068884208D106485D
:10122000006820F48070044908602D201FF04AF8FF
:1012300010BD00000018004040380240002000406F
:1012400000040040001400400044014010B567480D
:10125000674908604FF4E1304860002164488160CC
:10126000C16001610C21416100218161C16125F0F2
:1012700017FE08B1FFF7C8F810BD10B55D485E490C
:1012800008604FF4E130486000215B488160C16034
:1012900001610C21416100218161C16125F000FEE5
:1012A00008B1FFF7B1F810BD10B586B0044614219F
:1012B00001A83CF0E3FB4D492068884237D100BFCC
:1012C000002000904D48006840F400204B49086021
:1012D0000846006800F40020009000BF00BF00BF77
:1012E0000020009045481038006840F00100434954
:1012F000103908600846006800F00100009000BF47
:1013000000BF03200190022002900390002004906F
:101310000820059001A93A481EF02CF90022052169
:1013200034201EF07DFF34201EF0B8FF35E0314937
:101330002068884231D100BF002000902F48001D56
:10134000006840F010002D49091D0860084600683B
:1013500000F01000009000BF00BF00BF0020009010
:1013600026481038006840F0010024491039086010
:101370000846006800F00100009000BF00BF4FF475
:10138000C06001900220029000200390049007208A
:10139000059001A91A481EF0EDF806B010BD10B571
:1013A00004461249206888420DD11448006820F490
:1013B000002012490860032111481EF0BEF93420B4
:1013C0001EF080FF10E00B49206888420CD10B48CA
:1013D000001D006820F010000849091D08604FF446
:1013E000C06107481EF0A9F910BD0000004C004084
:1013F00060C3012000100140A8C301204038024012
:10140000000002401DF0A9FC00BFFEE700BFFEE7A0
:1014100000BFFEE700BFFEE700BFFEE77047704772
:1014200010B516481EF045FD10BD10B514481FF04C
:10143000FCFC10BD10B5134816F0AAFF10BD10B586
:10144000114816F0A5FF10BD10B5104826F034FF66
:1014500010BD10B50E48007910B10D4820F04FFEB8
:101460000C4816F095FF10BD10B50B481EF021FD7D
:1014700010BD10B509481BF07BF810BD28010020F5
:10148000F8C0012088C2012018C3012060C30120D8
:1014900014010020DC01002040C10120C0400120D7
:1014A00008B500BF002000901548006840F4804057
:1014B000134908600846006800F48040009000BFAF
:1014C00000BF00BF00200090081F006840F080505F
:1014D000091F08600846006800F08050009000BFB7
:1014E00000BF00220F21901E1EF09AFE002205214F
:1014F00008461EF095FE05201EF0D0FE08BD000037
:10150000443802402DE9F04188B004460027B8462F
:1015100000BF002001902C48006840F010002A49CC
:1015200008600846006800F01000019000BF00BF8E
:1015300002A903A81DF0EFFB069F1FB91DF045FB94
:10154000054602E01DF041FB45002048B5FBF0F0E8
:10155000A0F101081E481F49086040F2E7311D480C
:10156000C160C0F80480002101618160816114F0D4
:1015700027FA064696B9174814F0EAFA06466EB9F5
:1015800036201EF08BFE102C07D20022214636207A
:101590001EF046FE1048046000E00126304608B008
:1015A000BDE8F0810B480068C06820F001000949DF
:1015B0000968C860704707480068C06840F00100CB
:1015C00004490968C86070474038024040420F0033
:1015D00000100040DC0100208C0000202F48006833
:1015E00040F470002D4908602D482C49803908606E
:1015F000704770B500200022022300240221294DEB
:101600002D6805F00C0020B1042806D0082834D13C
:1016100007E0254D254E356033E0254D234E3560DE
:101620002FE0204D2D1F2D68C5F380541D4D2D1F1B
:101630002D6805F03F0154B11D4DB5FBF1F5194E74
:10164000361F3668C6F3881605FB06F209E0164D0C
:10165000B5FBF1F5134E361F3668C6F3881605FB49
:1016600006F2104D2D1F2D68C5F301456D1C6B0052
:10167000B2FBF3F50D4E356003E00B4D0B4E3560BC
:1016800000BF00BF074D2D68C5F30315094E705DFF
:10169000064D2D68C540054E356070BD88ED00E0F3
:1016A00000000108083802400024F40008C00120AE
:1016B00040787D01A810050810B5024600230FE010
:1016C00012F8014B3448008884EA2020334C34F867
:1016D0001000314C247880EA04202F4C20805B1CC1
:1016E0008B42EDD32C4800884FF6FF74604010BD4C
:1016F000014608464A1CD1B2274A128880EA2220B5
:10170000C0B2264A32F81000234A127880EA02203A
:10171000214A1080104600884FF6FF7250407047F3
:101720004FF6FF701C49088070471B4908807047BE
:1017300010B502460B4600210EE0505C184C247890
:101740006040C0B2174C54F82000154C246880EA61
:101750001420134C2060491C9942EED310480068B5
:10176000C04310BD01460E4800784840C0B20D4A43
:1017700052F820000A4A126880EA1220084A1060D3
:1017800010460068C04370474FF0FF3004490860BE
:10179000704703490860704708000020C010050822
:1017A0000C000020C012050880ED000AC0ED010AFF
:1017B00080ED021A9FED732A80ED032A9FED712AB6
:1017C00080ED042A9FED6F2A80ED052AC0ED061AF0
:1017D0000021C1617047B0EE401AF0EEC12AF0EE70
:1017E000621AF0EEE02AB0EE622AF7EE002AB0EEBE
:1017F000620AF0EE082AF4EEE21AF1EE10FA04DDC5
:10180000DFED612AB0EE620A0FE0F7EE002AF4EE97
:10181000E21AF1EE10FA04DDDFED5C2AB0EE620AA6
:1018200003E0DFED5B2AB0EE620AF7EE082AB4EEC1
:10183000E22AF1EE10FA05DDDFED562A60EE222AEB
:10184000B0EE620A704710B52DED088B0446F0EE3D
:10185000408AB0EE609A38EEC90AB0EE408A94ED44
:10186000030A38EE400AF0EE409AF0EE690AB0EE54
:10187000480AFFF7B0FFB0EE40AA94ED000A20EE50
:10188000080A20EE0A0AB0EE40BA94ED040AD4ED3C
:10189000010A00EE880A84ED040A94ED040ADFEDE3
:1018A0003E0AB4EEE00AF1EE10FA03DD9FED3A0ACB
:1018B00084ED040A94ED040AB5EEC00AF1EE10FAC4
:1018C00003D29FED300A84ED040A94ED020A20EE63
:1018D000290A60EE0AAA94ED040A30EE0B0A30EEF3
:1018E0002A0A84ED050A94ED050ADFED2B0AB4EE11
:1018F000E00AF1EE10FA03DD9FED270A84ED050AF8
:1019000094ED050AB5EEC00AF1EE10FA03D29FED90
:101910001D0A84ED050A84ED038A94ED050ABDECE9
:10192000088B10BD0146C86968B9D1ED060A9FED64
:101930001B1A70EE810AF4EEC00AF1EE10FA0FD213
:101940000120C8610CE0D1ED060A9FED141A71EE7A
:10195000600AF4EEC00AF1EE10FA01DD0020C86161
:10196000C86970479FED070A80ED030A9FED050ADD
:1019700080ED040A9FED030A80ED050A0021C16194
:1019800070470000000000006666E63F9A99993FA4
:101990009A99193F6666A63F0000C8420000484277
:1019A000012080F3138800BF00BFBFF34F8FFE48B4
:1019B000006800F4E060FD490843001DFA49086032
:1019C000BFF34F8F00BF00BF00BFFDE770477047F8
:1019D00070B50446204600F09FFFE21704EB127238
:1019E0001211F34B33F812202146E31704EB137363
:1019F0001B11A4EB03150123AB401A4312B220467E
:101A0000E31704EB13731B11E94D25F8132070BD88
:101A100070B50446204600F07FFFE21704EB127217
:101A20001211E34B33F812202146E31704EB137332
:101A30001B11A4EB03150123AB409A4312B22046BD
:101A4000E31704EB13731B11D94D25F8132070BD58
:101A500070B50446204600F05FFF2046E21704EB15
:101A600012721211D24B33F912202146E31704EB04
:101A700013731B11A4EB03131A4102F0010515B1F6
:101A8000FFF7C6FF02E02046FFF7A2FF70BD70B56A
:101A900004460025204600F03FFF2046E21704EBF5
:101AA00012721211C24B33F912202146E31704EBD4
:101AB00013731B11A4EB03131A4102F001050DB1BE
:101AC000012070BD0020FCE770B5044600252046CB
:101AD00000F022FF2046E21704EB12721211B44B01
:101AE00033F912202146E31704EB13731B11A4EB07
:101AF00003131A4102F001050DB1002070BD012051
:101B0000FCE770B5044600250026204600F004FFDF
:101B10002046E21704EB12721211A54B33F9122082
:101B20002146E31704EB13731B11A4EB03131A41B3
:101B300002F00105E21704EB127212119D4B33F90A
:101B40001220E31704EB13731B11A4EB03131A41C8
:101B500002F0010615B10EB9012070BD0020FCE7AE
:101B600070B5044600250026204600F0D5FE20462C
:101B7000E21704EB127212118D4B33F91220214639
:101B8000E31704EB13731B11A4EB03131A4102F0C8
:101B90000105E21704EB12721211864B33F9122081
:101BA000E31704EB13731B11A4EB03131A4102F0A8
:101BB00001061DB9012E01D1012070BD0020FCE7F6
:101BC0002DE9F04104460D461646EDB304F58A4072
:101BD000FFF7FEFE04F59360754931F91000B0423D
:101BE0001EDBE21704EB1272121102F244420B46A2
:101BF00033F812202146E31704EB13731B11A4EBF7
:101C000003170123BB401A4313B22046E21704EB2B
:101C10001272121102F24442654F27F8123048E066
:101C2000E21704EB1272121102F24442604B33F8D5
:101C300012202146E31704EB13731B11A4EB0317C7
:101C40000123BB409A4300E00BE013B22046E217A9
:101C500004EB1272121102F24442554F27F812306F
:101C600027E004F58A40FFF7D3FEE21704EB127277
:101C7000121102F244424E4B33F812202146E31770
:101C800004EB13731B11A4EB03170123BB409A430E
:101C900013B22046E21704EB1272121102F2444210
:101CA000434F27F81230002104F593603A4622F89A
:101CB0001010BDE8F0812DE9F04104460D461646AE
:101CC000F5B344F240516018FFF782FE04F59B60C3
:101CD000374931F91000B0421EDBE21704EB1272F3
:101CE000121102F589620B4633F812202146E317E0
:101CF00004EB13731B11A4EB03170123BB401A431E
:101D000013B22046E21704EB1272121102F5896237
:101D1000274F27F8123052E0E21704EB127212112B
:101D200002F58962224B33F812202146E31704EBB7
:101D300013731B11A4EB03170123BB409A4300E06C
:101D40000BE013B22046E21704EB1272121102F5F7
:101D50008962174F27F8123031E044F24051601881
:101D6000FFF756FEE21704EB1272121102F58962B8
:101D70000F4B33F812202146E31704EB13731B11AA
:101D8000A4EB03170123BB409A4313B22046E2178A
:101D900004EB1272121102F58962054F27F8123016
:101DA000002104F59B6007E00CED00E00000FA055F
:101DB00024020020940D00203A4622F81010BDE8BD
:101DC000F08110B50446204600F0ADFD0020FE492C
:101DD00021F8140010BD10B50446204600F0A3FD04
:101DE000611C88B200F09FFD0020F74921F8140023
:101DF0000021F54A601C22F8101010BD70B5054690
:101E00000C46284600F08FFD204600F08CFDEE4881
:101E100030F81400EC4921F8150070BD70B5054686
:101E20000C46284600F07FFD691C88B200F07BFD5F
:101E3000204600F078FD611C88B200F074FDE24895
:101E400030F81400E04921F81500601C31F810103A
:101E5000DD4A681C22F8101070BD10B5DA4B33F95A
:101E60001030D94C34F91240A34205DBD64B33F87D
:101E70001230D54C24F81030D34B33F91030D24CFB
:101E800034F91140A34205DCCF4B33F81130CE4C6E
:101E900024F8103010BD70B52DED0E8B05460C46A4
:101EA000284600F040FD204600F03DFD0020C649D8
:101EB000A1F8F00A40F6FF70A1F8F20A40F2795258
:101EC000511E2046FFF7C9FFBF4830F914000A2809
:101ED00055DBBD48B0F9820A002820DDBB480088E8
:101EE00000EE100AB8EE400ADFEDB90A60EE200AF3
:101EF000B54830F9140000EE100AB8EEC00A60EEE2
:101F0000800AB148B0F9820A00EE100AB8EEC00AA1
:101F10009FEDB01A20EE010A80EE808A16E0AB48F1
:101F2000008800EE100AB8EE400ADFEDA90A60EE64
:101F3000200AA54830F9140000EE100AB8EEC00AD5
:101F400020EE800ADFEDA30A80EE208A9FEDA00A32
:101F5000B4EE408AF1EE10FA04D19FED9F0AB0EE84
:101F6000408A0EE09FED9D0A28EE000ADFED980AF8
:101F700070EEC80A80EE201AB0EE418A01E09FEDB3
:101F8000988A9FED980AC8EE000A10EE906A3046D3
:101F90003EF068FF41EC1E0BB0EE4E0AF0EE6E0A0A
:101FA0003DF0A2FEB0EE40DAF0EE60DA9FED8E0B6F
:101FB00053EC102B51EC1D0B3EF02AFD41EC1C0B99
:101FC0009FED8B0B53EC102B3EF00EFA41EC1B0BEC
:101FD00053EC1B2B9FED880B51EC100B3EF0C0FA1D
:101FE00041EC1A0B9FED860B53EC102B3EF050FE8C
:101FF00041EC190B3EF0C6F908EE100A9FED820A7B
:10200000B4EEC08AF1EE10FA03DB9FED7F0AB0EE6A
:10201000408A9FED7E0AB4EEC08AF1EE10FA03D832
:102020009FED7A0AB0EE408AB2EE040A28EE000A6A
:10203000BDEEC00A10EE100A00B2634921F8150087
:10204000BDEC0E8B70BD70B52DED0E8B05460C46AC
:10205000284600F068FC204600F065FC00205A4944
:10206000A1F8F00A40F6FF70A1F8F20A40F27952A6
:10207000511E2046FFF7F1FE534830F914000A289C
:1020800053DB5148B0F9820A002820DD4F48008810
:1020900000EE100AB8EE400ADFED4D0A60EE200AAD
:1020A000494830F9140000EE100AB8EEC00A60EE9C
:1020B000800A4548B0F9820A00EE100AB8EEC00A5C
:1020C0009FED441A20EE010A80EE808A16E03F4818
:1020D000008800EE100AB8EE400ADFED3D0A60EE1F
:1020E000200A394830F9140000EE100AB8EEC00A90
:1020F00020EE800ADFED370A80EE208A9FED370A56
:10210000B4EE408AF1EE10FA04D19FED330AB0EE3E
:10211000408A0CE0DFED3E0A80EE880ADFED2F0AF0
:1021200030EE600AB0EE408A01E09FED2D8A9FED0F
:102130002D0AC8EE000A10EE906A30463EF092FE7C
:1021400041EC1E0BB0EE4E0AF0EE6E0A3DF0CCFDF7
:10215000B0EE40DAF0EE60DA9FED230B53EC102B7B
:1021600051EC1D0B3EF054FC41EC1C0B9FED200B81
:1021700053EC102B3EF038F941EC1B0B53EC1B2BAE
:102180009FED1D0B51EC100B3EF0EAF941EC1A0BE0
:102190009FED1B0B53EC102B3EF07AFD41EC190B1D
:1021A0003EF0F0F808EE100A9FED170AB4EEC08A70
:1021B000F1EE10FA03DB9FED140AB0EE408A9FEDBA
:1021C000130AB4EEC08A25E0240200202A7AFF1FF9
:1021D00000404E4500008045FE23744900E09245D2
:1021E000CDCCCC3D00401C46000000E032D9323F4F
:1021F000000000E0E1796B3F000000000000F03FCC
:1022000066666666661271400000C8420000C8C279
:10221000F0A96C4BF1EE10FA03D81FED040AB0EEF2
:10222000408AB2EE040A28EE000ABDEEC00A10EEA3
:10223000100A00B2FE4921F81500BDEC0E8B70BDEE
:10224000FB4AB2F9822A002A20DDFA4A128800EEFF
:10225000902AF8EE600A1FED221A20EE811AF44A45
:1022600032F9112000EE902AF8EEE00A21EE201A51
:10227000EF4AB2F9822A00EE902AF8EEE00A5FED0A
:102280002B1A60EEA10A81EE200A16E0E94A1288B4
:1022900000EE902AF8EE600A1FED331A20EE811A44
:1022A000E34A32F9112000EE902AF8EEE00A61EEDE
:1022B000200A1FED381A80EE810ADFEDDF0A30EECA
:1022C000601AF0EE041AC1EE210AB3EE091A70EE9C
:1022D000810AB0EE600A5FED340AB4EEE00AF1EE76
:1022E00010FA03DB5FED380AB0EE600AFBEE090A74
:1022F000B4EEE00AF1EE10FA03D8FBEE090AB0EEF4
:10230000600AF2EE040A60EE200AFDEEE00A10EE2A
:10231000902A12B2C64B23F810207047C44931F8F6
:102320001010491C09B2C24A22F810107047C04967
:1023300031F9101047F6FF72914207DABC4931F8C3
:102340001010491C09B2BA4A22F810107047B84957
:1023500031F81010491E09B2B54A22F81010704722
:10236000B34931F9101011F5004F07DDB04931F8CC
:102370001010491E09B2AE4A22F810107047AC4A3C
:1023800002EB40010A68521C0A6070470146A84AE5
:1023900002EB41006FF0004302689A4202D00268EB
:1023A000521C02607047A24A02EB40010A68521EAA
:1023B0000A60704701469E4A02EB41000268B2F192
:1023C000004F02DD0268521E0260704710B5984B44
:1023D00033F81030964C34F8114023441BB2944C1F
:1023E00024F8123010BD30B50346914C34F9134037
:1023F0008F4D35F91150601947F6FF74A04200DB8C
:10240000204610F5004F00DC8C4804B2884D25F8BA
:10241000124030BD70B5864E56F8103056F8114057
:102420001D1946F8125070BDF0B503460C46804F9A
:1024300057F8135057F81460AF19F91738466FF072
:10244000004CB0EB0C0C71F1000702DB6FF00040A8
:1024500000214FF0004C4FF0FF37BCEB000C8F41D8
:1024600001DB4FF00040724F47F81200F0BDF0B5AD
:1024700003460C466E4F57F8135057F81460AF19C7
:10248000F91738466FF0004CB0EB0C0C71F10007F7
:1024900002DB6FF0004000214FF0004C4FF0FF379F
:1024A000BCEB000C8F4101DB4FF00040604F47F860
:1024B0001200F0BD10B55E4B33F810305C4C34F8B0
:1024C00011401B1B1BB25A4C24F8123010BD30B502
:1024D0000346574C34F91340554D35F91150601BE4
:1024E00047F6FF74A04200DB204610F5004F00DCE9
:1024F000524804B24E4D25F8124030BDF0B50346A7
:102500000C4617464A4E56F8132056F81450561BE0
:10251000F11730466FF0004CB0EB0C0C71F1000677
:1025200002DB6FF0004000214FF0004C4FF0FF360F
:10253000BCEB000C8E4100DB00BFF0BD30B53C4C65
:1025400034F810403A4D35F8115014FB05F31CB225
:10255000374D25F8124030BD30B50346344C34F8C1
:102560001340334D35F8115014FB05F047F6FF7456
:10257000A04200DB204610F5004F00DC2F4804B2DB
:102580002B4D25F8124030BDF0B500230024002566
:10259000274F461C37F91630294E06EA03433E46BC
:1025A00036F9106033434E1C37F91640244E06EAC4
:1025B00004443E4636F91160344303FB04F52EB261
:1025C00027F812602E14BC46571C2CF81760F0BD7B
:1025D00070B503460024002000BF06E01D18144E0D
:1025E00036F915502C44451CA8B2114D35F911503F
:1025F0008542F3DC0E4D45F8124070BD70B50346C0
:102600000020002400BF0BE01D18094E36F91550BC
:10261000A54203DD1D1836F81550ACB2451CA8B212
:10262000034D35F911508542EEDC25B2004E09E02C
:10263000240200202A7AFF1F00003E440080FFFF92
:102640000000FFFF26F8125070BD70B50346002051
:10265000002400BF0BE01D188A4E36F91550A54224
:1026600003DD1D1836F81550ACB2451CA8B2854DD7
:1026700035F911508542EEDC25B2824E26F8125013
:1026800070BD70B503460020002400BF0AE01D188D
:102690007C4E36F91550A54202DD1D1836F915405D
:1026A000451CA8B2774D35F911508542EFDC754DC8
:1026B00025F8124070BD70B503460020002400BF0D
:1026C0000AE01D186F4E36F91550A54202DD1D189F
:1026D00036F91540451CA8B26A4D35F911508542AE
:1026E000EFDC684D25F8124070BD664A32F91120C2
:1026F000002A06DB634A32F81120624B23F81020CF
:1027000007E0604A32F81120524212B25D4B23F8C2
:10271000102070475B4A32F91120002A06DB594A23
:1027200032F81120574B23F8102007E0554A32F8B1
:102730001120524212B2534B23F81020704710B5AB
:102740000246002300204F4C14F8113034F8114099
:10275000C4F3072018434B4C24F8120010BD70B589
:102760000346002009E00C18464D35F814401D18AA
:10277000444E26F81540441CA0B29042F3DB70BDD5
:1027800010B500F0C6F800F02AF900F0C1F810BD4D
:1027900010B500F0BEF800F052F900F0B9F810BD25
:1027A00010B500F0B6F800F0C4F800F0B1F810BDB4
:1027B00010B500F0AEF800F0E1F900F0A9F810BD96
:1027C00010B5044600F0A5F81F2C00DD1F24002CD6
:1027D00000DA00242C4B03EBC4114FF4087202EB17
:1027E000C41290B2802200F03BFF284B40F2ED1261
:1027F00027A12DA03AF0E0FD00F08AF810BD10B539
:1028000000F087F800F09EF900F082F810BD7047E4
:1028100070B505460E462C462CA03AF0CDFD314849
:102820003AF0CAFD30483AF0C7FD4FF6F07005EABD
:10283000000422E0B4F5803F06DB2CA03AF0BCFD9A
:102840002BA03AF0B9FD1BE004F00F0030B94FF6B1
:10285000F07004EA00012AA03AF0AEFD094830F910
:10286000141029A03AF0A8FD04F00F000F2802D19F
:1028700022A03AF0A1FD601C84B2A819A042D9DCC4
:1028800000BF70BD2402002004190020C0160508F6
:102890002E2E5C2E2E5C73506C635C73506C634602
:1028A000756E2E630000000025732C25642C2573A3
:1028B0003A73617665204F6E65204644204E56522D
:1028C000414D20646F6E652E2E2E0A004E565241E9
:1028D0004D204D454D4F5259205441424C453A0AE6
:1028E00000000000D42305082C2405080A0A000073
:1028F000454E44204F46204E5652414D0A0000009E
:102900002535643A000000002C25303458000000C2
:102910007047704700BFFEE745F67F31884201D916
:1029200000BFFEE77047B0F5B76F01DB00BFFEE701
:1029300070477FB54FF43761F9483BF07DF840228E
:10294000F749002000F024FE03A941F6645000F08E
:1029500097FD1022F249F3481FF056FA04464FF44F
:102960008062EF494031202000F012FE02A941F6BA
:10297000685000F085FD4FF48072E9494031E94824
:102980001FF042FA05464FF43762E549E6483AF04F
:10299000D4FF0398E54B4322E5A1CDE90004E9A06B
:1029A0003AF00AFD0298E14B4422E1A1CDE900058D
:1029B000F1A03AF001FD0398A04209D00298A84284
:1029C00006D0DA4B4622DAA1F8A03AF0F5FC05E091
:1029D000D64B4922D6A1FEA03AF0EEFC7FBD1FB532
:1029E0004022CF49002000F03BFE1022CC49CD48C8
:1029F0001FF00AFA039003A941F6645000F0A5FD08
:102A00004FF48062C6494031202000F029FE4FF487
:102A10008072C3494031C3481FF0F6F9029002A901
:102A200041F6685000F091FDDDE90210F04B5622AE
:102A3000CDE90001BEA1EFA03AF0BEFC1FBD2DE91B
:102A4000FE434FF00008B64DB74E00240DE0287845
:102A50003178884205D0A0B2294600F033FD48F015
:102A6000FF086D1C761C601C84B2402CEFDBB8F1B3
:102A7000000F0AD01022AA49AA481FF0C5F90290F7
:102A800002A941F6645000F060FD0027A44D4035D6
:102A9000A54E403600240FE028783178884207D0D0
:102AA00004F1200188B2294600F00CFD47F0FF0731
:102AB0006D1C761C601C84B2B4F5806FECDB67B1D2
:102AC0004FF480729649403196481FF09DF901906D
:102AD00001A941F6685000F038FD4FF43762904983
:102AE00091483AF02AFFB8F1000F07D00298D04B76
:102AF0007F228FA10090CFA03AF05EFC3FB10198F9
:102B0000CB4B82228AA10090D7A03AF055FCBDE8B9
:102B1000FE8310B5FFF7FDFE022000F045FE4FF4E6
:102B200037617F483AF088FF4FF437617E483AF0CA
:102B300083FFFFF7EDFED94B8B227DA1D8A03AF0A1
:102B40003BFC10BD10B5FFF7E4FE4FF48052DC49AA
:102B50004FF4087000F01CFD0446FFF7D9FE34B1B5
:102B6000D84B932272A1D8A03AF026FC05E0D54BB1
:102B700096226FA1DDA03AF01FFC10BD10B5FFF743
:102B8000C8FE4FF48052CE494FF4087000F068FD43
:102B9000044634B1DD4B9E2265A1DDA03AF00CFC69
:102BA00005E0DA4BA12262A1E1A03AF005FCFFF7B3
:102BB000AFFE10BD10B5FFF7ACFE032000F0F4FD32
:102BC0004FF48051BE483AF037FFE14BA92258A19B
:102BD000E0A03AF0F1FBFFF79BFE10BD10B5FFF748
:102BE00098FE052000F0E0FDE34BAF2250A1D9A0F4
:102BF0003AF0E2FBFFF78CFE10BD10B5FFF789FE3F
:102C0000062000F0D1FDDD4BB52249A1DCA03AF051
:102C1000D3FBFFF77DFE10BD10B545F28260FEF7D5
:102C200070FF00287AD045F2B160FEF730FF78B12E
:102C300047F6FF703A49A1F8A80A0020A1F8A60AB1
:102C400045F2B160FEF7E4FE45F2B060FEF7E0FE4B
:102C50003348B0F9A80A3249B1F9A61A884212DB02
:102C600000202F49A1F8A80A0846B0F8A00AA1F848
:102C7000A20A0846B0F8A40AA1F8A60A45F2B06074
:102C8000FEF7A6FE1CE02648B0F9A80A2449B1F9CF
:102C9000A21A88420CD12248B0F8A80A401C00B2FF
:102CA0001F49A1F8A80A45F2B060FEF7B1FE07E09F
:102CB0001B48B0F8A80A401C00B21949A1F8A80A9C
:102CC00045F2B360FEF7E3FE78B147F6FF701449B2
:102CD000A1F8B20A0020A1F8B00A45F2B360FEF7ED
:102CE00097FE45F2B260FEF793FE0D48B0F9B20AC6
:102CF0000B49B1F9B01A884211DB00200849A1F84C
:102D0000B20A0846B0F8AA0AA1F8AC0A0846B0F818
:102D1000AE0AA1F8B00A45F2B26043E1FCE144E139
:102D20002402002000C00120940D0020CA160508CE
:102D30002E2E5C2E2E5C73506C635C73506C632E75
:102D40006300000025732C25642C25733A4D522016
:102D50004550524F4D204352433A30782530385831
:102D60002C4D522043414C43204352433A30782566
:102D70003038580A0000000025732C25642C257378
:102D80003A444D204550524F4D204352433A3078FB
:102D9000253038582C444D2043414C432043524366
:102DA0003A3078253038580A0000000025732C2569
:102DB000642C25733A6C6F6164204E5652414D204D
:102DC000637263206661696C2E2E2E0A000000007B
:102DD00025732C25642C25733A6C6F6164204E5644
:102DE00052414D20646F6E652E2E2E0A00000000A9
:102DF000D816050825732C25642C25733A73617643
:102E000065204E5652414D20646F6E652E2E2E2841
:102E10004D52204352433A3078253038582C444D97
:102E2000204352433A307825303858290A000000B0
:102E3000E616050825732C25642C25733A757064F5
:102E4000617465204D52204E5652414D20646F6E84
:102E5000652E2E2E284D52204352433A307825308D
:102E60003858290A0000000025732C25642C25738E
:102E70003A75706461746520444D204E5652414D40
:102E800020646F6E652E2E2E28444D204352433A07
:102E9000307825303858290A00000000F616050859
:102EA00025732C25642C25733A636C656172204E62
:102EB0005652414D20646F6E652E2E2E0A00000082
:102EC000041900200517050825732C25642C25738B
:102ED0003A6C6F6164204644204E5652414D206347
:102EE0007263206661696C2121210A0025732C25FB
:102EF000642C25733A6C6F6164204644204E565210
:102F0000414D20646F6E652E2E2E0A0013170508A2
:102F100025732C25642C25733A736176652046440D
:102F2000204E5652414D206661696C2E2E2E0A00AD
:102F300025732C25642C25733A73617665204644ED
:102F4000204E5652414D20646F6E652E2E2E0A0083
:102F50002117050825732C25642C25733A636C65AD
:102F60006172204644204E5652414D20646F6E657A
:102F70002E2E2E0A000000003017050846170508FF
:102F800025732C25642C25733A636C65617220646B
:102F90006576696365206C6F6720646F6E652E2EA1
:102FA0002E0A0000FEF714FD1CE0D948B0F9B20A61
:102FB000D749B1F9AC1A88420CD1D548B0F8B20A59
:102FC000401C00B2D249A1F8B20A45F2B260FEF745
:102FD0001FFD07E0CE48B0F8B20A401C00B2CC4951
:102FE000A1F8B20A45F2B560FEF751FD78B147F697
:102FF000FF70C749A1F8BC0A0020A1F8B00A45F249
:10300000B560FEF705FD45F2B460FEF701FDC0486E
:10301000B0F9BC0ABE49B1F9BA1A884212DB0020E5
:10302000BB49A1F8BC0A0846B0F8B40AA1F8B60A30
:103030000846B0F8B80AA1F8BA0A45F2B460FEF73B
:10304000C7FC1CE0B248B0F9BC0AB149B1F9B61AE4
:1030500088420CD1AE48B0F8BC0A401C00B2AC4962
:10306000A1F8BC0A45F2B460FEF7D2FC07E0A8481C
:10307000B0F8BC0A401C00B2A549A1F8BC0A45F250
:10308000B760FEF704FD78B147F6FF70A049A1F8DC
:10309000C60A0020A1F8C40A45F2B760FEF7B8FCE2
:1030A00045F2B660FEF7B4FC9948B0F9C60A9849F3
:1030B000B1F9C41A884212DB00209549A1F8C60A6A
:1030C0000846B0F8BE0AA1F8C00A0846B0F8C20A1D
:1030D000A1F8C40A45F2B660FEF77AFC1CE08C4801
:1030E000B0F9C60A8A49B1F9C01A88420CD1884899
:1030F000B0F8C60A401C00B28549A1F8C60A45F2DC
:10310000B660FEF785FC07E08148B0F8C60A401CAF
:1031100000B27F49A1F8C60A10BD08B57D4B40F248
:103120001112AFF2F4317CA03AF046F900F0F4FA53
:1031300010F047FD05F068FFFFF7FBFBFFF702FD0E
:1031400002F0C4F97B49086002F0D1F97A490860BD
:10315000784800686F4B4FF48E72AFF22C410090AC
:1031600076A03AF029F9744800686A4B40F21D12C3
:10317000AFF24441009079A03AF01EF94FF4AD400F
:10318000FEF726FC45F28160FEF722FC00F0EEFE21
:1031900000F0E2FF02F05AFF02F0B4FC01F03CF94B
:1031A00002F070FB02F0E7FA0421734813F082FB8F
:1031B0000821714813F07EFB00216F4813F07AFB61
:1031C00045F20320FEF724FC6C4890F93F000028EC
:1031D00004DD6A4890F93F00642804DD0A2066494E
:1031E0000968C86305E0654890F93F0062490968CD
:1031F000C863624890F93E00002804DD5F4890F9FA
:103200003E00642804DD0A205B490968886305E004
:103210005A4890F93E00584909688863574890F920
:103220004000002804DD554890F94000642804DD82
:103230000A2051490968486305E0504890F9400068
:103240004D490968486308BD10B54D48007801280C
:1032500015DB45F28260FEF7FBFB00204849087051
:103260002B48B0F9CE0A47F6FF71884207DA2848A2
:10327000B0F8CE0A401C00B22549A1F8CE0A414858
:103280000078012806DB45F28460FEF7E1FB0020B0
:103290003C4908703C480078012806DB45F285600F
:1032A000FEF7D6FB0020384908703848007801281E
:1032B00006DB45F28660FEF7CBFB00203349087041
:1032C00033480078012806DB45F28760FEF7C0FB33
:1032D00000202F4908702F480078012806DB45F2AE
:1032E0008860FEF7B5FB00202A49087000F04AFE0E
:1032F000FFF792FC02F026FC10BD10B500F055FF60
:10330000FFF79DFB45F28160FEF782FB10BD0000D8
:10331000240200205917050825732C25642C2573D9
:103320003A7374617274204170702E2E2E2E2E2EE0
:103330000A000000100000201400002025732C2536
:10334000642C25733A626F6F746C6F6164206372D2
:10335000633A3078253038580A00000025732C2550
:10336000642C25733A617070206372633A3078255B
:103370003038580A00000000F8C10120F0C50120D3
:103380002400002025000020260000202700002027
:10339000280000202900002038B504460D46E0B280
:1033A00000904FF47A73012269460A4823F028FFFF
:1033B000204638BD38B504466423012269460548D5
:1033C00023F07DFF9DF8000038BD00BF704700BFAF
:1033D00070470000A8C3012030B503460C46002109
:1033E00007E0585C655CA84201D0002030BD481C55
:1033F00081B29142F5DB0120F8E7FEB505460E46A5
:10340000B5F5005F02DB01242046FEBD4FF47A7063
:10341000012110232A46CDE900610290A121F9483B
:1034200020F097FE04463CB1F6481FF0CCF8044665
:10343000F4481EF0E8FF04462046E6E7FEB50546E0
:103440000E46681CB0F5005F02DB01242046FEBD7D
:103450004FF47A70022110232A46CDE900610290D0
:10346000A121E84820F075FE04463CB1E5481FF074
:10347000AAF80446E3481EF0C6FF04462046E6E7E5
:10348000FEB505460E46E81CB0F5005F02DB0124E0
:103490002046FEBD4FF47A70042110232A46CDE960
:1034A00000610290A121D74820F053FE04463CB1B0
:1034B000D4481FF088F80446D2481EF0A4FF044602
:1034C0002046E6E7FEB505460E46B5F5005F02DB91
:1034D00001242046FEBD4FF47A70012110232A46B4
:1034E000CDE900610290A021C64820F0CCFC044642
:1034F0003CB1C4481FF067F80446C2481EF083FF81
:1035000004462046E6E7FEB505460E46681CB0F5C3
:10351000005F02DB01242046FEBD4FF47A700221D9
:1035200010232A46CDE900610290A021B54820F081
:10353000AAFC04463CB1B3481FF045F80446B14824
:103540001EF061FF04462046E6E7FEB505460E463E
:10355000E81C41F6FF71884202DB01242046FEBDD3
:103560004FF47A70042110232A46CDE900610290BD
:10357000A021A44820F087FC04463CB1A1481FF0DC
:1035800022F804469F481EF03EFF04462046E6E728
:103590002DE9F04188B00746884614463819B0F541
:1035A000005F04DD0125284608B0BDE8F081204613
:1035B000E11704EB5171C1F3CF010691E11704EB60
:1035C0005171C910A4EBC10189B205910797464614
:1035D0000020049021E04FF47A7008211023CDE9F7
:1035E00000610290BDF81C20A121864820F0B1FDA9
:1035F00005463DB183481EF0E6FF054681481EF0B2
:1036000002FF0546BDF81C00083080B2079008365E
:10361000BDF81000401C80B20490BDF81000BDF849
:1036200018108842D7DBBDF81400B8B14FF47A7097
:10363000BDF814101023CDE900610290BDF81C20E4
:10364000A121704820F085FD05463DB16D481EF072
:10365000BAFF05466B481EF0D6FE05462846A3E78E
:103660002DE9F74F84B0074614463819B0F5005FCE
:1036700004DD0125284607B0BDE8F08F2046E1179C
:1036800004EB5171C1F3CF0BE11704EB5171C91079
:10369000A4EBC1011FFA81F9B846059E4FF0000A5C
:1036A0001EE04FF47A70082110234246CDE90061F4
:1036B0000290A021534820F0E6FB05463DB1514859
:1036C0001EF081FF05464F481EF09DFE054608F19D
:1036D00008001FFA80F808360AF101001FFA80FA84
:1036E000DA45DEDBB9F1000F14D04FF47A70102305
:1036F0004246A021CDE900690290424820F0C3FB78
:1037000005463DB13F481EF05EFF05463D481EF0B0
:103710007AFE05462846AEE710B520231F22002179
:1037200039A039F049FE4FF4007340F21F222021E6
:103730003EA039F041FE4FF4006340F61F224FF4E3
:10374000087143A039F038FE41F66752D11E49A0F6
:1037500039F032FE41F66B52D11E4EA039F02CFEEC
:1037600041F66F52D11E53A039F026FE41F6735236
:10377000D11E5AA039F020FE41F67752D11E5FA02B
:1037800039F01AFE4FF4007341F67F724FF4EC519A
:1037900062A039F011FE802341F6FF724FF4FC5114
:1037A00068A039F009FE10BD38B50546002000902C
:1037B000072D26D2DFE805F025040FF3F1F0EF0026
:1037C000002404E0A0B26946FFF77CFE641CB4F557
:1037D000005FF7D32CE1002404E0A0B26946FFF7B4
:1037E00071FE641C1F2CF8D9202404E0A0B26946A5
:1037F000FFF768FE641CB4F5087FF7D341F6645404
:10380000B9E014E1880100204D52204550524F4D3F
:103810003A3078253034582D2D2D307825303458D5
:103820002873697A653A2564290A0000444D2045C9
:1038300050524F4D3A3078253034582D2D2D307858
:10384000253034582873697A653A2564290A0000BE
:103850004644204550524F4D3A3078253034582D4B
:103860002D2D3078253034582873697A653A2564CF
:10387000290A00004D5220435243204550524F4DDB
:103880003A3078253034582D2D2D30782530345865
:103890000A000000444D20435243204550524F4DF2
:1038A0003A3078253034582D2D2D30782530345845
:1038B0000A000000464420435243204550524F4DD9
:1038C0003A3078253034582D2D2D30782530345825
:1038D0002C28756E757365290A0000004D4355202C
:1038E000435243204550524F4D3A3078253034589A
:1038F0002D2D2D3078253034580A00004C434420BB
:10390000435243204550524F4D3A30782530345879
:103910002D2D2D3078253034580A0000434F4E4667
:103920004947204550524F4D3A3078253034582D74
:103930002D2D3078253034582873697A653A2564FE
:10394000290A00004C4F47494E464F204550524FE0
:103950004D3A3078253034582D2D2D30782530349F
:10396000582873697A653A2564290A00A0B2694625
:10397000FFF7A8FD641C41F667508442F6D9441C49
:1039800004E0A0B26946FFF79DFD641C41F66B5050
:103990008442F6D94CE03EE031E018E0FFE74FF416
:1039A000087404E0A0B26946FFF78CFD641CB4F50E
:1039B000226FF7D341F66C5404E0A0B26946FFF7DA
:1039C00081FD641C41F66F508442F6D930E041F627
:1039D000705404E0A0B26946FFF774FD641C41F620
:1039E00073508442F6D9441C04E0A0B26946FFF744
:1039F00069FD641C41F677508442F6D918E04FF413
:103A0000EC5404E0A0B26946FFF75CFD641CB4F519
:103A1000FC5FF7D30CE04FF4FC5404E0A0B269461D
:103A2000FFF750FD641CB4F5005FF7D300E000BF62
:103A300000BF38BD10B502460B46002105E0545CBE
:103A4000FF2C01D0002010BD491C9942F7D3012062
:103A5000F9E72DE9F047A2B00027B846B946CD48AE
:103A60000068806840F00100CA4909688860002445
:103A700020E0C94823F099F80090A0B26946FFF70A
:103A800021FD611C88B20DF10101FFF71BFDA11C96
:103A900088B20DF10201FFF715FDE11C88B20DF1AE
:103AA0000301FFF70FFD01226946BA481EF098F99D
:103AB0008046241DB4F5005FDBD3B64800688068FB
:103AC00040F00100B3490968886000241CE0A0B2FE
:103AD00001A9FFF792FC611C88B20DF10501FFF707
:103AE0008CFCA11C88B20DF10601FFF786FCE11CDD
:103AF00088B20DF10701FFF780FC012201A9A5485A
:103B00001EF06EF90746241DB4F5005FDFD347456C
:103B100007D1A24B4FF4A972A1A1A8A039F04CFC87
:103B200008E09E4B40F255129DA1B0A039F044FC34
:103B30004FF0000997480068806840F001009549FF
:103B400009688860002414E0934823F02EF8009060
:103B5000A0B26946FFF7D7FCA11C88B20DF10201A3
:103B6000FFF7D1FC012269468A481EF039F98046E8
:103B7000241DB4F5005FE7D386480068806840F0F4
:103B80000100844909688860002410E0A0B201A9FE
:103B9000FFF754FCA11C88B20DF10601FFF74EFCA3
:103BA000012201A97B481EF01BF90746241DB4F52C
:103BB000005FEBD3474507D1784B40F2671278A1FD
:103BC00096A039F0F9FB08E0744B4FF4B57274A17C
:103BD0009EA039F0F1FB4FF000096E480068806844
:103BE00040F001006B490968886000240EE06A48D3
:103BF00022F0DBFF0090A0B26946FFF7A6FC01228D
:103C0000694664481EF0ECF88046241D41F6FC70BD
:103C10008442ECD35F480068806840F001005D4951
:103C20000968886000240AE0A0B201A9FFF728FC17
:103C3000012201A957481EF0D3F80746241D41F67A
:103C4000FC708442F0D3474507D1544B4FF4BD720A
:103C500053A18AA039F0B0FB08E0504B40F27D122E
:103C60004FA192A039F0A8FB4FF000098025002653
:103C7000002426E0E2B2402102A839F0D5FE40211E
:103C800012A839F0FBFE05EB841188B2402202A98C
:103C9000FFF7E6FC05EB841188B2402212A9FFF77A
:103CA00077FC402212A912A8FFF796FB40B93B4BC4
:103CB00040F289123AA189A039F07EFB4FF0000949
:103CC000641CAC42D6D3FCF765FBFF2190FBF1F2FC
:103CD00001FB120A5246402102A839F0A5FE4021FC
:103CE00012A839F0CBFEC6F5005188B2324602A9BF
:103CF000FFF7B6FCC6F5005188B2324612A9FFF7AD
:103D000047FC402212A912A8FFF766FB40B9234BDB
:103D10004FF4C97222A171A039F04EFB4FF0000997
:103D20001E4B40F295121EA176A039F045FB0024EF
:103D300021E0194822F039FF41F6FC71B0FBF1F2A5
:103D400001FB12000090042269462846FFF788FC18
:103D5000042201A92846FFF71BFCDDE90001884287
:103D600008D00E4B4FF4CE720DA170A039F024FB99
:103D70004FF00009641C42F210708442D9D3074B03
:103D80004FF4D07206A171A039F016FB484622B05C
:103D9000BDE8F08700C00120A0C10120621705081E
:103DA0002E2E5C2E2E5C73506C63506F72745C739D
:103DB000506C634570726F6D2E63000025732C2567
:103DC000642C25733A6279746528386269742920F5
:103DD00073657175656E7469616C2077726974655D
:103DE0002070617373210D0A0000000025732C25DB
:103DF000642C25733A6279746528386269742920C5
:103E000073657175656E7469616C2077697274652C
:103E1000206661696C210D0A0000000025732C25C5
:103E2000642C25733A68776F72642831366269743E
:103E3000292073657175656E7469616C207772698C
:103E400074652070617373210D0A000025732C25A1
:103E5000642C25733A686F7772642831366269740E
:103E6000292073657175656E7469616C207769725C
:103E70007465206661696C210D0A000025732C258C
:103E8000642C25733A64776F7264283332626974E4
:103E9000292073657175656E7469616C207772692C
:103EA00074652070617373210D0A000025732C2541
:103EB000642C25733A64776F7264283332626974B4
:103EC000292073657175656E7469616C20776972FC
:103ED0007465206661696C210D0A000025732C252C
:103EE000642C25733A626C6F636B20736571756522
:103EF0006E7469616C205772697465206661696CC3
:103F0000210D0A0025732C25642C25733A626C6FF1
:103F1000636B2073657175656E7469616C2057728F
:103F20006974652070617373210D0A0025732C2557
:103F3000642C25733A72616E646F6D2077726974B8
:103F400065206661696C210D0A00000025732C252F
:103F5000642C25733A72616E646F6D207772697498
:103F6000652070617373210D0A00000010B5802177
:103F7000664839F061FD664B072266A16CA039F0F6
:103F80001BFA10BD10B54FF4804170481BF077FC50
:103F90000446A4B95D4890F90000082806DA5B4899
:103FA0000078401C40B2594908701DE06848B0F9DB
:103FB000300A40F001006649A1F8300A14E0534885
:103FC00090F9000010F1080F06DD50480078401EFF
:103FD00040B24E49087007E05D48B0F9300A20F061
:103FE00001005B49A1F8300A022158481BF047FC48
:103FF0000446A4B9454890F90100082806DA434868
:104000004078401C40B2414948701DE05048B0F92A
:10401000300A40F002004E49A1F8300A14E03B4853
:1040200090F9010010F1080F06DD38484078401E75
:1040300040B23649487007E04548B0F9300A20F0F0
:1040400002004349A1F8300A012140481BF017FC47
:104050000446A4B92D4890F90200082806DA2B4836
:104060008078401C40B2294988701DE03848B0F97A
:10407000300A40F004003649A1F8300A14E0234821
:1040800090F9020010F1080F06DD20488078401EEC
:1040900040B21E49887007E02D48B0F9300A20F080
:1040A00004002B49A1F8300A20212A481BF0E7FB25
:1040B0000446012C14D1154890F90300082806DAAB
:1040C0001248C078401C40B21049C8701DE020481A
:1040D000B0F9300A40F008001D49A1F8300A14E098
:1040E0000A4890F9030010F1080F06DD0748C07870
:1040F000401E40B20549C87007E01548B0F9300AC3
:1041000020F008001249A1F8300A10BD043900203F
:10411000701705082E2E5C2E2E5C73506C63506F4A
:1041200072745C73506C63496F496E2E63000000BB
:1041300025732C25642C25733A696E70757420697B
:104140006E69742E2E2E2E2E2E0A000000040240C0
:10415000240200200008024010B500204E49A1F8BA
:10416000400A00224FF400614C481BF090FB0421F0
:104170004B4812F09FFB0821494812F09BFB00219D
:10418000474812F097FB00224FF4805143481BF040
:104190007EFB0122910243481BF079FB424B0D222A
:1041A00042A149A039F008F910BD10B54FF4A44060
:1041B000FDF7A7FC18B10821394812F004FB4FF4B1
:1041C000A440FDF7CDFC18B10821354812F072FB70
:1041D00045F20120FDF795FC18B10421304812F09A
:1041E000F2FA45F20120FDF7BBFC18B104212C487E
:1041F00012F060FB45F20220FDF783FC18B10021AC
:10420000274812F0E0FA45F20220FDF7A9FC18B1A8
:104210000021234812F04EFB45F20320FDF771FC0C
:1042200020B1012211031D481BF031FB45F2032090
:10423000FDF796FC28B100224FF4805117481BF07F
:1042400026FB45F20420FDF75CFC20B1012291021F
:1042500014481BF01CFB45F20420FDF781FC20B143
:10426000012291020F481BF012FB45F20620FDF7D8
:1042700048FC20B10122D10208481BF008FB45F29E
:104280000620FDF76DFC28B100224FF400610348C1
:104290001BF0FDFA10BD00002402002000040240C3
:1042A000F8C10120000802407E1705082E2E5C2E62
:1042B0002E5C73506C63506F72745C73506C634906
:1042C0006F4F75742E63000025732C25642C2573A5
:1042D0003A6F757470757420696E69742E2E2E2E67
:1042E0002E2E0A0010B5A54B7F22A5A1ABA039F058
:1042F00063F8B048B0F84000022809D1AD48B0F9E1
:104300004200022804DC1520AA49A1F8CC0A0DE0DD
:1043100042F21720FDF7BBFB20B11420A549A1F8FC
:10432000CC0A03E01220A349A1F8CC0A40F24C4089
:10433000A049A1F8CA0A0846B0F84400A1F8C80A82
:104340000020A1F8CE0A9C4908809C4908809C491D
:1043500008809C4908709C4908709C49096848621B
:104360009A4811F0F5FB10BD10B50446002C00DA98
:1043700000249748006844633CB10021944812F03F
:1043800022FA01209349087006E00021904812F0BB
:1043900091FA00208F49087010BD10B58948007847
:1043A00001281DD1002202218B481BF070FA002247
:1043B0004FF4005188481BF06AFA00221021874808
:1043C0001BF065FA7B49B1F84610854A92F9412005
:1043D00011FB02F108B2FFF7C7FF0020794908700E
:1043E00010BD10B57F4B972265A17FA038F0E4FF88
:1043F0000020764909684862744811F0EEFBFFF727
:10440000CCFF00206C4908806C4908806D49087019
:1044100001206D49087010BD10B5002202216E48C0
:104420001BF035FA00224FF400516B481BF02FFAB5
:104430000022102169481BF02AFA0020FFF794FFA0
:1044400000206F4908705C4908806E4908806E49F9
:1044500008805A4908806D4908806D4908806D4977
:1044600008805749088057490870574908706A4BB7
:10447000B02243A169A038F09FFF10BD10B551488C
:10448000007868BB4B4890F8EE0400F0010020B1C2
:104490000122022150481BF0FAF9464890F8EE0438
:1044A00000F0020048B1012251034B481BF0EFF924
:1044B0000122102149481BF0EAF93E4890F8EE0429
:1044C00000F0050048B13B49B1F8FA144FF47A7294
:1044D00011FB02F108B2FFF747FF012039490870CC
:1044E00010BD10B5464890F90000012802D00228FE
:1044F00040D10BE03048008838B9FFF7BFFF2E48A5
:104500000088401C00B22C49088034E02A48B0F9E9
:104510000000002809DB2848B0F900003949B1F94A
:104520000010884201DAFFF7A9FF2348B0F9000024
:104530003449B1F90010884209DB1F48B0F9000086
:104540003149B1F90010884201DAFFF726FF1A4815
:10455000B0F900002C49B1F90010884203DB4FF09C
:10456000FF301549088014480088401C00B21249E9
:10457000088000E000BF00BF10BD00008D170508D7
:104580002E2E5C2E2E5C73506C63506F72745C73B5
:10459000506C634C617365722E63000025732C258B
:1045A000642C25733A6C6173657220737461727444
:1045B000210A0000240200202C00002032000020EC
:1045C0003A0000203C0000203E00002088C201206C
:1045D000B0C101202A00002000080240000402406F
:1045E000F0C501209317050825732C25642C25732D
:1045F0003A6C617365722073746F70210A00000059
:104600002B0000202E00002030000020340000206D
:1046100036000020380000209917050825732C2546
:10462000642C25733A6C617365722074696D6572D0
:1046300020696E69742E2E2E2E2E2E0A0000000088
:10464000014600200AE000BF00BF00BF00BF00BF5E
:1046500000BF00BF00BF00BF00BF401CB0F57A7FA5
:10466000F1D3704700B587B01C21684639F006FACF
:10467000FD48FE490860002048600021FB48816039
:1046800040F61F51C16000210161816112F02BF8D9
:10469000602000904FF4D2600190002002900490BE
:1046A00000226946F14814F031F907B000BD00B5A9
:1046B00087B000BF00200190ED48006840F0010085
:1046C000EB4908600846006800F00100019000BF57
:1046D00000BF00228914E7481BF0D9F84FF480503E
:1046E000029001200390022004900020059002A96E
:1046F000E0481AF03FFF00224FF48051DD481BF0E4
:10470000C6F86420FFF79CFF01221103D9481BF073
:10471000BEF86420FFF794FF4FF48051D5481BF09A
:104720000CF8D348006820F00100D149086000BFB0
:10473000002001900846006840F0400008600846EC
:10474000006800F04000019000BF00BF0022891502
:10475000C9481BF09CF84FF4807002900120039030
:10476000022004900020059002A9C3481AF002FF1D
:10477000C820FFF765FF4FF48051BF481AF0DDFFF6
:10478000BB48006820F04000B9490860081D006877
:1047900020F08000091D086043201BF093FD43209A
:1047A0001BF0A9FE07B000BD00B593B0302107A8EB
:1047B00039F064F9142102A839F060F90020AF49FA
:1047C0000860012008600020AD4908660860A8481C
:1047D0001030006820F08050A5491031086000BFFB
:1047E000002001900846006840F0805008600846AC
:1047F000006800F08050019000BF00BF00BF0020A3
:104800000190A048006840F480409E490860084636
:10481000006800F48040019000BF00BF02200790B4
:1048200001200A9010200B9000200D9007A819F08D
:1048300005FE08B1FBF7E8FD0F2002900020039071
:1048400004904FF48050059000200690002102A8AB
:104850001AF090F808B1FBF7D7FD13B000BD10B502
:104860001BF0D5FE8848FCF7AAF88848FCF725FA23
:104870008748FCF792FC7D48FCF78FFC8548FCF7E5
:104880008CFC8548FCF789FC8448FCF786FC84484E
:10489000FCF783FC8348FCF7CCF98348FCF77FFDE9
:1048A0008248FCF77CFD8248FCF743F88148FCF71E
:1048B000B1F8814830F0EEF9FFF776FFFFF7F7FE29
:1048C00062B610BD10B50446204625F02FFE10BD7F
:1048D00038B504467948B0F90000A0421BD0642CDA
:1048E00000DD6424002C00DA00246C480068846336
:1048F00024B10421694811F066FF03E004216748F0
:1049000011F0D8FF6D4804806D4BB1226DA174A0E9
:10491000009438F051FD38BD10B50446A4F13000C4
:104920001E287DD2DFE810F01E006B00030150014D
:104930009D01EA0137028402D10221037C007C0040
:104940007C007C007C007C007C006E038B03C80331
:10495000050432043F047D04AA04EA040705440563
:104960007105AE050421414811F02DFF4FF49670FA
:1049700025F0DCFD04213D4811F09CFF40F6B830E5
:1049800025F0D4FD0421394811F01DFF4FF461706A
:1049900025F0CCFD0421354811F08CFF40F6B830ED
:1049A00025F0C4FD0421314811F00DFF4FF4617072
:1049B00025F0BCFD04212D4811F07CFF40F6B830F5
:1049C00025F0B4FD0421294811F0FDFE4FF461707B
:1049D00025F0ACFD0421254811F06CFF40F6B830FD
:1049E00025F0A4FD0421214811F0EDFE4FF4617083
:1049F00025F09CFD04211D4811F05CFF17E2042105
:104A00001A4811F0E0FE4FF4967025F08FFD042156
:104A1000164811F04FFF40F6B83025F087FD00E052
:104A2000FEE30421114811F0CEFE4FF4617025F031
:104A30007DFD04210D4811F03DFF40F6B83025F012
:104A400075FD0421094811F0BEFE4FF4617025F098
:104A50006DFD0421054811F02DFF40F6B83025F01A
:104A600065FD0421014847E000040040F8C1012031
:104A7000303802400000024000180240400E474219
:104A8000000047420070004000C00120A0C101208A
:104A9000B0C1012040C2012088C20120D0C2012043
:104AA00018C3012088010020A8C3012060C3012091
:104AB000F8C001201401002074CB012014C0012093
:104AC000A71705082E2E5C2E2E5C73506C63506F5A
:104AD00072745C73506C634D6973632E63000000E5
:104AE00025732C25642C25733A7365742066616EDA
:104AF0003A25640A0000000011F065FE4FF4617071
:104B000025F014FD0421FE4811F0D4FE40F6B83023
:104B100025F00CFD0421FA4811F055FE4FF46170A8
:104B200025F004FD0421F64811F0C4FE66E70421D7
:104B3000F34811F048FE4FF4967025F0F7FC04217D
:104B4000EF4811F0B7FE40F6B83025F0EFFC042135
:104B5000EB4811F038FE4FF4967025F0E7FC042185
:104B6000E74811F0A7FE40F6B83025F0DFFC04213D
:104B7000E34811F028FE4FF4617025F0D7FC0421C2
:104B8000DF4811F097FE40F6B83025F0CFFC042145
:104B9000DB4811F018FE4FF4617025F0C7FC0421CA
:104BA000D74811F087FE40F6B83025F0BFFC04214D
:104BB000D34811F008FE4FF4617025F0B7FC0421D2
:104BC000CF4811F077FE19E70421CD4811F0FBFD25
:104BD0004FF4967025F0AAFC0421C94811F06AFE32
:104BE00040F6B83025F0A2FC0421C54811F0EBFDD9
:104BF0004FF4967025F09AFC0421C14811F05AFE3A
:104C000040F6B83025F092FC0421BD4811F0DBFDE0
:104C10004FF4617025F08AFC0421B94811F04AFE76
:104C200040F6B83025F082FC0421B54811F0CBFDE8
:104C30004FF4617025F07AFC0421B14811F03AFE7E
:104C400040F6B83025F072FC0421AD4811F0BBFDF0
:104C50004FF4617025F06AFC0421A94811F02AFE86
:104C6000CCE60421A64811F0AEFD4FF4967025F075
:104C70005DFC0421A24811F01DFE40F6B83025F07D
:104C800055FC04219E4811F09EFD4FF4967025F0CE
:104C90004DFC04219A4811F00DFE40F6B83025F085
:104CA00045FC0421964811F08EFD4FF4617025F00B
:104CB0003DFC0421924811F0FDFD40F6B83025F08E
:104CC00035FC04218E4811F07EFD4FF4967025F0DE
:104CD0002DFC04218A4811F0EDFD40F6B83025F096
:104CE00025FC0421864811F06EFD4FF4617025F01B
:104CF0001DFC0421824811F0DDFDE1E30421804820
:104D000011F061FD4FF4967025F010FC04217C48F1
:104D100011F0D0FD40F6B83025F008FC04217848A9
:104D200011F051FD4FF4967025F000FC04217448F9
:104D300011F0C0FD40F6B83025F0F8FB04217048B2
:104D400011F041FD4FF4967025F0F0FB04216C4802
:104D500011F0B0FD40F6B83025F0E8FB04216848BA
:104D600011F031FD4FF4967025F0E0FB042164480A
:104D700011F0A0FD40F6B83025F0D8FB04216048C2
:104D800011F021FD4FF4967025F0D0FB04215C4812
:104D900011F090FD94E30421594811F014FD4FF4F3
:104DA000617025F0C3FB0421554811F083FD40F6E6
:104DB000B83025F0BBFB0421514811F004FD4FF43D
:104DC000967025F0B3FB04214D4811F073FD40F6B9
:104DD000B83025F0ABFB0421494811F0F4FC4FF446
:104DE000967025F0A3FB0421454811F063FD40F6C1
:104DF000B83025F09BFB0421414811F0E4FC4FF44E
:104E0000967025F093FB04213D4811F053FD40F6C8
:104E1000B83025F08BFB0421394811F0D4FC4FF455
:104E2000967025F083FB0421354811F043FD47E3DC
:104E30000421334811F0C7FC4FF4617025F076FB74
:104E400004212F4811F036FD40F6B83025F06EFBF6
:104E500004212B4811F0B7FC4FF4617025F066FB7C
:104E60000421274811F026FD40F6B83025F05EFBFE
:104E70000421234811F0A7FC4FF4967025F056FB4F
:104E800004211F4811F016FD40F6B83025F04EFB06
:104E900004211B4811F097FC4FF4967025F046FB57
:104EA0000421174811F006FD40F6B83025F03EFB0E
:104EB0000421134811F087FC4FF4967025F036FB5F
:104EC00004210F4811F0F6FCFAE204210C4811F01D
:104ED0007AFC4FF4617025F029FB0421084811F099
:104EE000E9FC40F6B83025F021FB0421044811F01C
:104EF0006AFC4FF4617025F019FB0421004801E0C1
:104F0000F8C1012011F0D6FC40F6B83025F00EFBB8
:104F10000421F94811F057FC4FF4617025F006FBAD
:104F20000421F54811F0C6FC40F6B83025F0FEFA31
:104F30000421F14811F047FC4FF4967025F0F6FA81
:104F40000421ED4811F0B6FC40F6B83025F0EEFA39
:104F50000421E94811F037FC4FF4967025F0E6FA89
:104F60000421E54811F0A6FCAAE20421E24811F070
:104F70002AFC4FF4617025F0D9FA0421DE4811F0C3
:104F800099FC40F6B83025F0D1FA0421DA4811F046
:104F90001AFC4FF4617025F0C9FA0421D64811F0CB
:104FA00089FC40F6B83025F0C1FA0421D24811F04E
:104FB0000AFC4FF4617025F0B9FA0421CE4811F0D3
:104FC00079FC40F6B83025F0B1FA0421CA4811F056
:104FD000FAFB4FF4617025F0A9FA0421C64811F0DC
:104FE00069FC40F6B83025F0A1FA0421C24811F05E
:104FF000EAFB4FF4967025F099FA0421BE4811F0AF
:1050000059FC5DE20421BC4811F0DDFB4FF49670C1
:1050100025F08CFA0421B84811F04CFC40F6B83069
:1050200025F084FA0421B44811F0CDFB4FF46170EF
:1050300025F07CFA0421B04811F03CFC40E2042148
:10504000AD4811F0C0FB4FF4617025F06FFA0421F8
:10505000A94811F02FFC40F6B83025F067FA04217A
:10506000A54811F0B0FB4FF4967025F05FFA0421CB
:10507000A14811F01FFC40F6B83025F057FA042182
:105080009D4811F0A0FB4FF4967025F04FFA0421D3
:10509000994811F00FFC40F6B83025F047FA04218A
:1050A000954811F090FB4FF4967025F03FFA0421DB
:1050B000914811F0FFFB03E204218F4811F083FBBC
:1050C0004FF4617025F032FA04218B4811F0F2FBA5
:1050D00040F6B83025F02AFA0421874811F073FB16
:1050E0004FF4967025F022FA0421834811F0E2FB78
:1050F00040F6B83025F01AFA04217F4811F063FB1E
:105100004FF4617025F012FA04217B4811F0D2FBB4
:1051100040F6B83025F00AFA0421774811F053FB25
:105120004FF4967025F002FA0421734811F0C2FB87
:10513000C6E10421704811F046FB4FF4617025F080
:10514000F5F904216C4811F0B5FB40F6B83025F0B4
:10515000EDF90421684811F036FB4FF4967025F004
:10516000E5F90421644811F0A5FB40F6B83025F0BC
:10517000DDF90421604811F026FB4FF4967025F00C
:10518000D5F904215C4811F095FB99E104215A48B6
:1051900011F019FB4FF4967025F0C8F90421564818
:1051A00011F088FB8CE10421534811F00CFB4FF403
:1051B000967025F0BBF904214F4811F07BFB40F6B7
:1051C000B83025F0B3F904214B4811F0FCFA4FF444
:1051D000967025F0ABF90421474811F06BFB40F6BF
:1051E000B83025F0A3F90421434811F0ECFA4FF44C
:1051F000617025F09BF904213F4811F05BFB40F6FC
:10520000B83025F093F904213B4811F0DCFA4FF453
:10521000967025F08BF90421374811F04BFB4FE1D4
:105220004DE10421344811F0CEFA4FF4617025F0BD
:105230007DF90421304811F03DFB40F6B83025F0EF
:1052400075F904212C4811F0BEFA4FF4617025F075
:105250006DF90421284811F02DFB40F6B83025F0F7
:1052600065F90421244811F0AEFA4FF4967025F048
:105270005DF90421204811F01DFB21E104211E48A5
:1052800011F0A1FA4FF4967025F050F904211A4854
:1052900011F010FB40F6B83025F048F9042116480B
:1052A00011F091FA4FF4967025F040F9042112485C
:1052B00011F000FB40F6B83025F038F904210E4813
:1052C00011F081FA4FF4967025F030F904210A4864
:1052D00011F0F0FA40F6B83025F028F9042106481C
:1052E00011F071FA4FF4967025F020F9042102486C
:1052F00011F0E0FAE4E00000F8C101200421844844
:1053000011F061FA4FF4967025F010F904218048ED
:1053100011F0D0FA40F6B83025F008F904217C48A5
:1053200011F051FA4FF4967025F000F904217848F5
:1053300011F0C0FAC4E00421754811F044FA4FF4AA
:10534000967025F0F3F80421714811F0B3FA40F695
:10535000B83025F0EBF804216D4811F034FA4FF421
:10536000617025F0E3F80421694811F0A3FA40F6D2
:10537000B83025F0DBF80421654811F024FA4FF429
:10538000617025F0D3F80421614811F093FA40F6DA
:10539000B83025F0CBF804215D4811F014FA4FF431
:1053A000617025F0C3F80421594811F083FA87E0B1
:1053B0000421574811F007FA4FF4617025F0B6F850
:1053C0000421534811F076FA40F6B83025F0AEF8D3
:1053D00004214F4811F0F7F94FF4967025F0A6F824
:1053E00004214B4811F066FA40F6B83025F09EF8DB
:1053F0000421474811F0E7F94FF4617025F096F861
:105400000421434811F056FA5AE00421404811F0B3
:10541000DAF94FF4967025F089F804213C4811F030
:1054200049FA40F6B83025F081F80421384811F0E7
:10543000CAF94FF4617025F079F80421344811F06D
:1054400039FA40F6B83025F071F80421304811F0EF
:10545000BAF94FF4967025F069F804212C4811F040
:1054600029FA40F6B83025F061F80421284811F0F7
:10547000AAF94FF4967025F059F80421244811F048
:1054800019FA1DE00421224811F09DF94FF46170D2
:1054900025F04CF804211E4811F00CFA40F6B83003
:1054A00025F044F804211A4811F08DF94FF4617089
:1054B00025F03CF80421164811F0FCF900E000BF8B
:1054C00000BF40F6B83025F031F810BD70B5FCF7DC
:1054D0005BF94FF0006405E025782846FCF742F9B7
:1054E0000646641C0B488442F6D3304670BD70B546
:1054F000FCF74AF9074C641C05E025782846FCF7C0
:1055000031F90646641C04488442F6D3304670BD27
:10551000F8C10120FFFF0008FFFF0F0810B52DEDB7
:10552000028B82B00446A74810F0F9FA0021A64881
:105530001CF0B3FD41F29410844200DD0446B4F542
:10554000FA7F01DA4FF4FA7419F03FFB400A400089
:10555000B0FBF4F000EE100AB8EE408A9B4899497F
:10556000086001204860002196488160BCEEC80AAE
:1055700010EE100A81B29348C160002101618021C0
:10558000816110F01DFA38B1914B352291A199A09B
:1055900037F012FFFAF738FF8A4810F081FA00203E
:1055A0004FF480739A4A0146009087481CF0E3FC50
:1055B00002B0BDEC028B10BD10B59648007838B132
:1055C0000122510394481AF062F9002091490870B1
:1055D00010BD10B52DED0C8B0446642C00DD642449
:1055E000002C00DA002420463BF0ABF941EC1A0B0A
:1055F0009FED8A0B53EC102B3AF0B2FF41EC190BE4
:105600009FED880B53EC102B51EC190B3BF000F97C
:1056100028D053EC192B51EC190B3BF0F9F941EC64
:105620001C0B53EC192B9FED810B51EC100B3AF036
:10563000DBFE41EC1D0B53EC1C2B3BF029FB41EC3A
:105640001A0B53EC192B9FED790B51EC100B3BF01F
:10565000DFF941EC1B0B53EC1A2B3AF081FF41ECC4
:10566000180B01E09FED6F8B9FED720B53EC102B2D
:1056700051EC180B3BF0CCF941EC180B9FED690B8A
:1056800053EC102B51EC180B3BF086F905D29FED33
:10569000650BB0EE408AF0EE608A9FED680B53EC2C
:1056A000102B51EC180B3BF0B1FA05D29FED630BB8
:1056B000B0EE408AF0EE608A51EC180B3AF062FED0
:1056C00000EE100ABDEC0C8B10BD70B52DED068BF5
:1056D00005469FED540BB0EE408AF0EE608A5948C3
:1056E00090F90000A84243D02846FFF772FF10EE61
:1056F000106A30463BF0B6FB41EC180B002418E072
:105700009FED510B53EC102B51EC180B3BF080F933
:1057100041EC1A0B9FED4E0B53EC102B3AF064FE4C
:1057200041EC190B3BF0B0F8394921F81400601C2A
:1057300004B27F2CE4DB7F2418E09FED430B53EC95
:10574000102B51EC180B3BF063F941EC1A0B9FED59
:10575000400B53EC102B3BF08FFA41EC190B3BF054
:1057600093F82B4921F81400601C04B2FF2CE4DDEF
:10577000BDEC068B70BD10B545F2A060FCF748F992
:105780003549B1F94400FFF7A0FFFFF715FF40F2DC
:105790004C40FFF7C3FE314B0B220EA130A037F077
:1057A0000BFE10BD10B51B480078012808D0002260
:1057B0004FF4005118481AF06AF801201549087092
:1057C00010BD000040C20120140100200014004060
:1057D000C31705082E2E5C2E2E5C73506C63506F21
:1057E00072745C73506C63537065616B65722E6389
:1057F0000000000025732C25642C25733A74696D14
:105800003720696E6974206661696C210A000000A6
:10581000F0C301203F00002000040240000000000F
:105820000000594000000000000000009A9999997A
:105830009999C93F000000606666E63F00000000DD
:105840000000F03F400000200000000000FC9F40EE
:10585000000000000000A04024020020B31705084B
:1058600025732C25642C25733A737065616B657202
:1058700020646D6120696E69742E2E2E2E2E2E0AE4
:105880000000000010B5804810F062F900207F4948
:1058900008707F4908707F4908707F4908707F4908
:1058A00008707F4908807F4908807F4908807F49C8
:1058B00008807F4908807F4908807F4908607F4BC6
:1058C00013227FA185A037F077FD10BD10B56E487B
:1058D00010F083F910BD10B56B4810F039F910BD08
:1058E00010B54FF48B641EE0A4F58B6144F2C04206
:1058F000114488B2FCF7CBF878B1804830F9140035
:1059000047F6FF7188420CDA7C4830F81400401CDE
:1059100000B27A4921F8140003E00020774921F809
:105920001400601C84B2B4F5936FDDDB5C48008822
:105930000A2829DD4FF493641DE0A4F5936101F575
:105940008A4188B2FCF7A3F878B16C4830F91400AA
:1059500047F6FF7188420CDA684830F81400401CA2
:1059600000B2664921F8140003E00020634921F8E1
:105970001400601C84B2B4F59B6FDEDB0120434948
:1059800008700020464908804648008864282BDDBE
:105990004FF49B641EE0A4F59B6144F24052114415
:1059A00088B2FCF774F878B1544830F9140047F61F
:1059B000FF7188420CDA514830F81400401C00B2E4
:1059C0004E4921F8140003E000204C4921F814004E
:1059D000601C84B240F217508442DCDB01202C4969
:1059E000087000202F4908802F480088C82805DD4E
:1059F00001202849087000202B4908802B48008886
:105A0000B0F5FA7F05DD0120234908700020274901
:105A1000088027480088B0F57A7F05DD01201F49FE
:105A20000870002022490880224800884EF6602134
:105A3000884205DD01203249087000201D49088098
:105A400017480088401C1649088016480088401CEA
:105A50001449088014480088401C134908801348E2
:105A60000088401C1149088011480088401C1049DA
:105A7000088010480088401C0E4908800E480068C5
:105A8000401C0D49086010BD18C3012024000020EF
:105A900025000020260000202700002028000020EC
:105AA000180000201A0000201C0000201E0000200A
:105AB000200000202200002018C00120D317050874
:105AC0002E2E5C2E2E5C73506C63506F72745C7360
:105AD000506C6354696D65722E63000025732C252C
