:020000040801F1
:1000000088940120C90301088D110108931101088A
:1000100095110108971101089911010800000000CD
:10002000000000000000000000000000D5020108F0
:100030009B11010800000000310301080D3A03087C
:10004000E3030108E3030108E3030108E3030108F4
:10005000E30301089D110108E3030108E30301081C
:10006000E3030108E3030108E3030108E3030108D4
:10007000E3030108E3030108E3030108E3030108C4
:100080009F110108E3030108A5110108E30301081A
:10009000E3030108E3030108E3030108E3030108A4
:1000A000E3030108AB110108E3030108E3030108BE
:1000B000E3030108E3030108E3030108E303010884
:1000C000E3030108E3030108E3030108E303010874
:1000D000E3030108E3030108E3030108E303010864
:1000E000E3030108E3030108E3030108E303010854
:1000F000E3030108B1110108E3030108E303010868
:10010000E3030108E3030108E3030108E303010833
:10011000B7110108E3030108BD110108E303010859
:10012000D7110108E3030108E3030108E303010811
:10013000E30301080000000000000000E3030108E1
:10014000E3030108E3030108E3030108DD110108EB
:10015000E3030108E3030108E3030108E3030108E3
:10016000E3030108E3030108E3030108E3030108D3
:10017000E3030108E30301080000000000000000A1
:10018000E3030108E303010800F002F800F092F82D
:100190000AA090E8000C82448344AAF10107DA45E2
:1001A00001D100F087F8AFF2090EBAE80F0013F0A2
:1001B000010F18BFFB1A43F0010318474C700300EE
:1001C0008C7003000A444FF0000C10F8013B13F050
:1001D000070408BF10F8014B1D1108BF10F8015BA0
:1001E000641E05D010F8016B641E01F8016BF9D193
:1001F00013F0080F1EBF10F8014BAD1C0C1B09D1EA
:100200006D1E58BF01F801CBFAD505E014F8016B5B
:1002100001F8016B6D1EF9D59142D6D370470000ED
:10022000103A24BF78C878C1FAD8520724BF30C822
:1002300030C144BF04680C607047000000230024F4
:1002400000250026103A28BF78C1FBD8520728BFE6
:1002500030C148BF0B607047662935F015836429AB
:1002600031F0AE85752931F0AB85782931F0E48520
:10027000632932F0DA83732932F0DF83002070477C
:100280001FB535F0F4FA9DE8030032F0FDF831F0C7
:100290009CFF32F0ADFE04000020002134F0E4FCAD
:1002A000401C60600020002134F0C8FCE0601FBDED
:1002B00010B510BD33F083F91146FFF7E1FF00F0F0
:1002C000EDF833F0D3FB03B4FFF7F2FF03BC02F009
:1002D00019FB00002C4B19680868B0E8F04F80F358
:1002E0000988BFF36F8F4FF0000080F311887047CB
:1002F0000000000008480068006880F308884FF09C
:10030000000080F3148862B661B6BFF34F8FBFF36D
:100310006F8F00DF00BF00BF08ED00E0DFF80C00CA
:10032000016841F470010160704700BF88ED00E092
:10033000EFF30980BFF36F8F134B1A681EF0100F95
:1003400008BF20ED108A20E9F04F106009B44FF08B
:10035000500080F31188BFF34F8FBFF36F8F22F0EF
:100360007CF94FF0000080F3118809BC1968086817
:10037000B0E8F04F1EF0100F08BFB0EC108A80F309
:100380000988BFF36F8F704750C00120EFF30580DD
:10039000704700000B49D1F800C04A685CF8043B84
:1003A0001068184442F8040B8C4528BFA1F1DC0CFE
:1003B0008A4228BFA1F1DC02C1F800C04A6020F0E7
:1003C000004070471CD40120094880470948004775
:1003D000FEE7FEE7FEE7FEE7FEE7FEE7FEE7FEE7F5
:1003E000FEE7FEE704480549054A064B7047000052
:1003F000091301088901010888540120889401200B
:10040000887401208874012072B6FEE730B593B07D
:10041000302107A831F0C6FF142102A831F0C2FF35
:1004200000253F48016841F080510160006800F0FC
:10043000805001903B48016841F4804101600068B0
:1004400000F48040019001200790000408900224ED
:100450000D9480010E9019200F904FF4A870109009
:1004600011940720129007A818F0E6F908B1FFF7D9
:10047000CBFF0F200290039404954FF4A0500590F9
:100480004FF480500690052102A818F0DBFB08B15C
:10049000FFF7BAFF18F0C2FC13B030BD19F05AFFD5
:1004A000FFF7B4FF00F046F800F0BCFA00F028F9BE
:1004B00000F02EFA00F0DCFA00F0C1FB00F0B0FD15
:1004C00000F0C6FD00F0F6F900F03AFB00F061FC28
:1004D00000F080FC00F0D3FC00F094FC00F0F8FB8E
:1004E00024F0C2FE23F09FFA00F0F2F823F0D0FAD5
:1004F000FEE710B504460C492068884201D119F086
:100500005DFF0A492068884201D104F068FA084971
:100510002068884203D1BDE8104003F09DB910BDAA
:1005200040380240007000400010004000200040B1
:10053000004401402DE9F04F87B0142102A831F0AA
:1005400031FF00245A48016841F00401016001684C
:1005500001F004010191016841F08001016001682E
:1005600001F080010191016841F001010160016821
:1005700001F001010191016841F00201016001688F
:1005800001F002010191016841F008010160006879
:1005900000F008000190DFF81C8100224FF61F4197
:1005A000404619F089F9DFF81091002242F6FC016B
:1005B000484619F081F901221103484619F07CF9E7
:1005C000DFF8F8A04FF4807700223946504619F042
:1005D00073F9DFF8ECB000220421584619F06CF9E9
:1005E0004FF60E40029001250395022604960594CD
:1005F00002A9404618F0FAFF029503950495059468
:1006000002A9404618F0F2FF1020029003950494CE
:10061000059402A9404618F0E9FF4FF408700290D3
:100620000394049502A9404618F0E0FF44F201400B
:1006300002900394049502A9484618F0D7FF029649
:100640000394049402A9484618F0D0FF41F28400B4
:10065000029003950495059402A9484618F0C6FF38
:10066000E802029003950494059402A9484618F004
:10067000BDFF42F27800029003950496059402A90A
:10068000484618F0B3FF029703950496059402A913
:10069000504618F0ABFF0420029003950495059492
:1006A00002A9584618F0A2FF07B0BDE8F08F00007D
:1006B00030380240000802400004024000000240BE
:1006C000000C024024F0F2FD012023F0A7FCFBE720
:1006D00010B5084A0021AFF2130023F08AFA064C45
:1006E0002060044A00212432044823F082FA60602A
:1006F00010BD000088590408000000208D02020887
:100700002DE9FF410021009101910291039164487C
:10071000624A02604FF480324260816001240461C9
:10072000047680F82010C1625E4A8262C1600725AB
:10073000C56180F83040416119F06AFF08B1FFF7E8
:1007400063FE0327009701940624029469465448E7
:100750001AF061FB08B1FFF757FE0526009602204C
:10076000019069464E481AF056FB08B1FFF74CFE5F
:100770000094019769464A481AF04DFB08B1FFF70B
:1007800043FE009504200190694645481AF043FB5A
:1007900008B1FFF739FE10200090019669464048E5
:1007A0001AF039FB08B1FFF72FFE112000900194D9
:1007B00069463B481AF02FFB08B1FFF725FE1220CF
:1007C00000900195694636481AF025FB002801D0B3
:1007D000FFF71AFEBDE8FF8170B586B0064614210A
:1007E00001A831F0DFFD2D49306888423CD1002559
:1007F0002D48016841F480710160006800F4807048
:10080000009029481438016841F001010160006836
:1008100000F001000090E820019003200290039571
:1008200001A9224818F0E2FE1D4C214848342060FE
:100830006560A560E5600015206140006061800092
:10084000A061E56125626562204619F0C6F808B12D
:10085000FFF7DAFDB463A66300220521122019F028
:1008600008FC122019F023FC06B070BD10B5044638
:100870000A492068884210D10B48016821F4807130
:100880000160E821094818F083FFA06B19F00DF909
:10089000BDE81040122019F017BC10BD0020014027
:1008A0000CC101200100000F44380240000002404A
:1008B0001064024010B514491248086008461AF046
:1008C00046FF002803D0BDE81040FFF79DBD10BDD6
:1008D00008B500680B49884208D10C48016841F40A
:1008E00080510160006800F48050009008BD0068ED
:1008F0000449884204D10548016821F4805101600F
:1009000070470000003002400800002030380240EC
:100910001CB50024009401943E493D4808600846F7
:100920001AF071FF08B1FFF76FFD142000900194D9
:100930000022694637481BF0DBF8002801D0FFF79A
:1009400063FD1CBD70B586B00546142101A831F0C9
:1009500029FD2F492868884240D100262E48016889
:1009600041F000510160006800F0005000902A48FA
:100970001038016841F001010160006800F00100D9
:1009800000901020019003200290039601A92348B3
:1009900018F02CFE1F4C2248143420604FF0606089
:1009A00060604020A060E66000012061400060615E
:1009B0008000A0614011E06126626662204619F065
:1009C0000CF808B1FFF720FDAC60A56300220F21F1
:1009D000362019F04EFB362019F069FB06B070BDC9
:1009E00010B504460A492068884210D10A480168B7
:1009F00021F0005101601021084818F0C9FEA068DC
:100A000019F053F8BDE81040362019F05DBB10BD59
:100A100000740040F4000020403802400000024012
:100A20008860024008B51148016841F40011016076
:100A3000016801F400110091016841F48001016036
:100A4000006800F48000009000220521102019F0B9
:100A500010FB102019F02BFB00220521382019F083
:100A600008FBBDE80840382019F021BB30380240AF
:100A700010B52F482D4901602E4941600021816049
:100A8000C1604FF48042026141618161C1610162D4
:100A90001BF017F9002803D0BDE81040FFF7B4BCE5
:100AA00010BD10B586B00446142101A831F07AFCBF
:100AB0001E492068884220D11F48016841F0020188
:100AC0000160006800F0020000904FF44070019057
:100AD000122002900120039004900420059001A9A7
:100AE000164818F083FD14481030016841F40011D5
:100AF0000160006800F40010009006B010BD10B551
:100B000000680A49884210D10B481030016821F46E
:100B100000110160094C8115204618F039FE61155D
:100B20002046BDE8104018F033BE10BD0054004010
:100B3000B4C10120A0860100303802400004024008
:100B400010B514491248086008461EF0EAFD002856
:100B500003D0BDE81040FFF757BC10BD08B50068D2
:100B60000B49884208D10C48016841F040010160FE
:100B7000006800F04000009008BD00680449884209
:100B800004D10548016821F0400101607047000070
:100B90000008065008C201203438024030B587B042
:100BA0000446142102A831F0FDFB20680022F74919
:100BB00002234FF40044B0F1804F17D0F44DA84207
:100BC00027D1086840F004000860086800F00400BD
:100BD00001904FF4E0700290039304920592069303
:100BE00002A9EC4818F002FD07B030BD086840F0DB
:100BF00001000860086800F001000190029403936E
:100C0000049305920120069002A9E34818F0EEFC37
:100C1000EAE7E24DA842E7D1086840F00200086028
:100C2000086800F002000190029403930492059278
:100C30000920069002A9DA4818F0D8FCD4E730B5AC
:100C40008DB0002409940A940B940C940794089492
:100C50001C21684631F0A6FBD2484FF0804101606C
:100C600060254560846041F28831C1600461802163
:100C7000816111F05EFB08B1FFF7C6FB4FF48050B5
:100C8000099009A9C74814F078FA08B1FFF7BCFB2E
:100C9000C44812F076F808B1FFF7B6FB0794089441
:100CA00007A9C04815F0D3FC08B1FFF7ADFB0095CC
:100CB00001940294049400226946BA4813F044FE59
:100CC00008B1FFF7A1FBB748FFF768FF0DB030BDD3
:100CD00010B58EB000240A940B940C940D940894D3
:100CE00009941C2101A831F05DFBAE48A8494830A9
:100CF00001604FF49651416084606421C1600461D9
:100D00008021816111F015FB08B1FFF77DFB4FF4E5
:100D100080500A90A3480AA9483014F02EFA08B16E
:100D2000FFF772FB9F48483012F02BF808B1FFF72D
:100D30006BFB089409949B4808A9483015F087FC80
:100D400008B1FFF761FB60200190029403940594C1
:100D50009448002201A9483013F0F6FD08B1FFF7CE
:100D600053FB9048042201A9483013F0EDFD08B16F
:100D7000FFF74AFB8B48082201A9483013F0E4FD35
:100D800008B1FFF741FB87484830FFF707FF0EB077
:100D900010BD1CB500240094019482488249903013
:100DA00001600A21416084601E21C160802181614F
:100DB00011F0BFFA08B1FFF727FB20200090019443
:100DC00078486946903015F042FC002801D0FFF7C2
:100DD0001BFB1CBD10B573487449D8300160A821B5
:100DE0004160002181604FF47A72C260016180210C
:100DF000816111F09EFA002803D0BDE81040FFF792
:100E000003BB10BD10B58CB00024089409940A945B
:100E10000B941C2101A831F0C5FA65485F490160B7
:100E20002321416084606421C1600461802181616B
:100E300011F07FFA08B1FFF7E7FA4FF480500890FD
:100E400008A95B4814F099F908B1FFF7DDFA584892
:100E500011F097FF08B1FFF7D7FA602001900294D4
:100E600003940594042201A9514813F06DFD08B1C3
:100E7000FFF7CAFA4E48FFF791FE0CB010BD10B54F
:100E80004B484C4948300160542141600021816049
:100E90004FF47A72C26001618021816111F049FAD8
:100EA000002803D0BDE81040FFF7AEBA10BD08B56A
:100EB000364900681031B0F1804F0BD0344A90426F
:100EC00011D1086840F002000860086800F00200D4
:100ED000009008BD086840F001000860086800F054
:100EE0000100009008BD304A904208D1086840F0E7
:100EF00020000860086800F02000009008BD2B4A20
:100F0000904213D121481430016841F4003101604E
:100F1000006800F40030009000220521192019F02B
:100F2000A8F8BDE80840192019F0C1B81B4A904242
:100F300008D1086840F040000860086800F04000F0
:100F4000009008BD1B4A9042FBD1086840F48070B5
:100F50000860086800F480700090002205212D20B0
:100F600019F087F8BDE808402D2019F0A0B807490E
:100F700000681031B0F1804F1ED0054A904220D158
:100F8000086820F002000860704700003038024016
:100F90000004004000080240000002400018004029
:100FA0000004024018C20120001400400044014027
:100FB00038C3012000200040086820F001000860CC
:100FC000E2E7124A904204D1086820F0200008604D
:100FD000DAE70F4A904207D10E48016821F4003148
:100FE0000160192019F070B80B4A904204D10868CA
:100FF00020F040000860C7E7084A9042C4D1086862
:1010000020F4807008602D2019F05EB800140040B4
:1010100000440140443802400018004000200040D5
:1010200010B55648544901604FF4E1314160002148
:101030008160C16001610C2242618161C1611EF069
:10104000D5FC002803D0BDE81040FFF7DDB910BD86
:1010500010B54A484A49483001604FF4E1314160D7
:1010600000218160C16001610C2242618161C16126
:101070001EF0BCFC002803D0BDE81040FFF7C4B947
:1010800010BD30B587B00446142102A831F08AF9AA
:10109000394D216800243B4A02233B48A94225D10F
:1010A000384910310D6845F400250D60096801F4D8
:1010B00000210191116841F001011160116801F0F6
:1010C00001010191032102910393049305940821E6
:1010D000069102A918F08AFA00220521342018F09E
:1010E000C8FF342018F0E3FF07B030BD244DA942FB
:1010F000FAD1244914310D6845F010050D600968D6
:1011000001F010010191116841F0010111601168B5
:1011100001F0010101914FF4C06102910393049425
:1011200005940721069102A918F060FADCE710B5D2
:10113000114A0168144891420DD1124910310A68D0
:1011400022F400220A60032118F022FBBDE81040BF
:10115000342018F0B9BF0A4A91420BD10949143121
:101160000A6822F010020A60BDE810404FF4C06126
:1011700018F00EBB10BD0000004C004068010020BC
:1011800000100140303802400000024017F0DEFE3F
:10119000FEE7FEE7FEE7FEE7FEE77047704711480F
:1011A00018F010BE104819F060BC104813F068B970
:1011B0000F4813F065B90F481FF026BC10B50E4854
:1011C0000079002802D00C481AF041FCBDE810401C
:1011D0000A4813F055B90A4818F0F4BD094816F04A
:1011E0004BB80000080100200CC10120F0C2012012
:1011F00080C3012068010020F4000020F8010020D5
:1012000054C10120B440012008B51148016841F4DF
:1012100080410160006800F4804000900C48001F8D
:10122000016841F080510160006800F0805000903A
:1012300000220F21901E18F01CFF052100220846F5
:1012400018F017FFBDE80840052018F030BF000077
:101250004438024030B587B005460024254801686F
:1012600041F010010160006800F01000009001A939
:1012700002A817F04FFE0598A8B117F0DAFD40005C
:101280001D49B0FBF1F1491E1D481C4A026040F2A5
:10129000E732C260416004618460846111F049F802
:1012A00004461CB115E017F0C4FDE9E7144811F03D
:1012B000CFF804466CB9362018F0F9FE102D07D28D
:1012C00000222946362018F0D4FE0E48056000E0C2
:1012D000012407B0204630BD09480068C16821F0EC
:1012E0000101C160704706480068C16841F0010112
:1012F000C16070474038024040420F00001000407B
:10130000F801002048C001202248016841F4700122
:1013100001602049204880390860704770B51F4E31
:10132000306800F00C001E4B1E4900280ED01E4DE8
:1013300004280DD008280DD00B6030681B4AC0F37C
:101340000310105C0A68C2400A6070BD0B60F4E7CD
:101350000D60F2E7114A121F1068C0F38054106844
:1013600000F03F0034B1B5FBF0F01368C3F388130D
:10137000584305E0B3FBF0F01368C3F388135843F8
:101380001268C2F30142521C5200B0FBF2F0086036
:10139000D3E7000088ED00E00000010808380240B3
:1013A0000024F40000C0012040787D01D0590408D9
:1013B00070B50022294C2A4D0AE010F8016B2388F1
:1013C00086EA132635F8166086EA03232380521C2A
:1013D0008A42F2D320884FF6FF71484070BD1F4A01
:1013E0001F4B118880EA112033F8100080EA012099
:1013F00080B210804FF6FF714840704717494FF692
:10140000FF700880704715490880704770B500224A
:10141000124C144D09E0865C63685E40F6B255F8E4
:10142000266086EA13236360521C8A42F3D3606805
:10143000C04370BD094A0B4B51684840C0B253F8D5
:10144000200080EA11205060C043704703494FF0EC
:10145000FF304860704701494860704704C0012070
:10146000E8590408E85B0408012080F31388BFF3FF
:101470004F8FFE480168FE4A01F4E06111430160AC
:10148000BFF34F8F00BFFDE77047704710B50446AC
:10149000204600F08EFDF748210904F00F0430F8D3
:1014A00011200123A3401A4320F8112010BD10B5CC
:1014B0000446204600F07DFDEE48210904F00F04AB
:1014C00030F811200123A3409A4320F8112010BDC9
:1014D00010B50446204600F06CFDE649200931F9BC
:1014E000100004F00F01084100F0010018B120467F
:1014F000BDE81040DBE72046BDE81040C6E710B568
:101500000446204600F055FDDA49200931F9100063
:1015100004F00F01084100F0010008B1012010BDE6
:10152000002010BD10B50446204600F042FDD14910
:10153000200931F9100004F00F01084100F001000A
:1015400008B1002010BD012010BD10B50446204692
:1015500000F02FFDC748210930F9112004F00F00D9
:10156000024102F00102C44B33F91110014101F0B4
:10157000010002B108B1002010BD012010BD10B55E
:101580000446204600F015FDBA48210930F9112023
:1015900004F00F00024102F00102B74B33F91110C1
:1015A000014101F001000AB9012801D0002010BD5D
:1015B000012010BD2DE9F041904600F00F020125F9
:1015C00040F244449540AB4F00F58A4300F59366E2
:1015D00004EB1014002913D01846FFF757FF37F912
:1015E0001600404506DB37F81400284327F814009E
:1015F000BDE8F08137F81400A84327F81400F7E796
:101600001846FFF754FF37F81400A84327F81400D2
:10161000002027F81600EBE72DE9F041904644F250
:101620004052831800F00F0201254FF48964954061
:10163000904F00F59B6604EB1014002912D0184659
:10164000FFF724FF37F91600404505DB37F8140093
:10165000284327F81400CBE737F81400A84327F8ED
:101660001400C5E71846FFF722FF37F81400A84317
:1016700027F81400002027F81600B9E710B5044633
:10168000204600F09CFC7B4A002122F8141010BD7B
:1016900070B50546284600F092FC6C1CA0B200F024
:1016A0008EFC7449002021F8150021F8140070BD4B
:1016B00070B505460C46284600F081FC204600F037
:1016C0007EFC6C4830F8141020F8151070BD2DE920
:1016D000F04107460E46384600F071FC7D1CA8B26A
:1016E00000F06DFC304600F06AFC741CA0B200F003
:1016F00066FC604830F8161020F8171030F8141007
:1017000020F8151074E710B55A4B33F9104033F92F
:101710001220944201DB23F8102033F9102033F912
:1017200011108A4201DC23F8101010BD70B5054677
:101730000E46284600F043FC304600F040FC4D4C7D
:101740000020A4F8F00A40F6FF70A4F8F20A40F274
:101750007952511E3046FFF7D6FF34F916000A2899
:1017600040DBB4F9821A454ADFED450A002917DD4E
:10177000128800EE102AB8EE400A20EE201A00EE81
:10178000100AB8EEC00A21EE001A00EE101AB8EEE8
:10179000C00ADFED3C1A60EE211A81EE210A10E04A
:1017A000118800EE101AB8EE400A20EE201A00EE62
:1017B000100AB8EEC00A21EE000A9FED331A20EE9F
:1017C000010A324910EE100A884202D19FED300A18
:1017D0000AE09FED301A70EEC00A20EE011A81EE89
:1017E000200A01E09FED2C0A9FED2C1AC0EE010AA1
:1017F00010EE900A33F0CAFF41EC100B32F008FFF4
:101800009FED271B51EC100B53EC112B33F094FD83
:101810009FED251B53EC112B33F07AFA41EC100BA2
:1018200053EC102B9FED220B51EC100B33F02CFBE3
:101830009FED211B53EC112B33F0BEFE33F036FA33
:1018400000EE100A1E4910EE100A884201DB9FEDDF
:101850001D0A1D4910EE100A884201D39FED1B0A94
:10186000F2EE040A20EE200A32E000000CED00E067
:101870000400FA0540020020B00D00202A7AFF1F64
:1018800000404E45000080450000803900404E4534
:10189000FE23744900E09245CDCCCC3D00401C466F
:1018A000000000E032D9323F000000E0E1796B3FF8
:1018B000000000000000F03F666666666612714038
:1018C0000000C8420000C8420000C8C20000C8C2F0
:1018D000BDEEC00A10EE100A24F8150070BD70B5F8
:1018E00005460E46284600F06AFB304600F067FBCE
:1018F000FE4C0020A4F8F00A40F6FF70A4F8F20AAB
:1019000040F27952511E3046FFF7FDFE34F91600C1
:101910000A2840DBB4F9821AF54A1FED270A00298C
:1019200017DD12881FED291A00EE902AF8EE600AE2
:1019300060EE800A00EE100AB8EEC00A60EE800A7F
:1019400000EE101AB8EEC00A20EE011A80EE810AED
:1019500010E0118800EE901AF8EE600A60EE800A3E
:1019600000EE100AB8EEC00A20EE800A5FED3A0AD7
:1019700020EE200ADF4910EE100A884202D11FED46
:101980003C0A0AE09FEDDC1AC1EE000A1FED3F0A97
:1019900030EEC00A01E01FED400A1FED401AC0EE14
:1019A000010A10EE900A33F0F1FE41EC100B32F018
:1019B0002FFE1FED451B51EC100B53EC112B33F098
:1019C000BBFC1FED471B53EC112B33F0A1F941EC8D
:1019D000100B53EC102B1FED4A0B51EC100B33F096
:1019E00053FA1FED4B1B53EC112B33F0E5FD33F095
:1019F0005DF900EE100AC14910EE100A884201DBC1
:101A00001FED500ABE4910EE100A884201D31FEDA7
:101A1000510AF2EE040A20EE200ABDEEC00A10EED2
:101A2000100A24F8150070BD30B5B04CB04BB4F9B5
:101A3000822A1FED6D0A2546002A35F9111017DD9F
:101A40001B8800EE903AF8EE600A60EE800A00EE25
:101A5000101AB8EEC00A60EE800A00EE102AB8EE46
:101A6000C00A1FED781A20EE011A80EE810A10E0FC
:101A70001A8800EE902AF8EE600A60EE800A00EE06
:101A8000101AB8EEC00A20EE800A5FED810A20EE3F
:101A9000200ADFED9C0AB0EE041A70EE600A80EEB8
:101AA000810AF3EE090A30EE200A944A10EE101A69
:101AB000914201DB1FED7D0A934A10EE101A91420C
:101AC00001D3BBEE090AF2EE040A20EE200ABDEEB5
:101AD000C00A10EE101A24F8101030BD834931F8F6
:101AE0001020521C21F810207047804A47F6FF73DF
:101AF00032F91010994202DA491C22F8101070478E
:101B00007A4931F81020521E21F810207047774A88
:101B100032F9101011F5004F02DD491E22F81010A5
:101B20007047724901EB40000168491C0160704731
:101B30006E4901EB40006FF000420168914201D014
:101B4000491C01607047694901EB40000168491E6A
:101B500001607047654901EB40000168B1F1004F39
:101B600001DD491E01607047604B33F8100033F807
:101B70001110084423F8120070475C4B33F9100031
:101B800033F91110084447F6FF71884200DB08461C
:101B90005E49884200DC084623F812007047534B28
:101BA00053F8100053F81110084443F8120070471E
:101BB00030B54E4B53F8100053F811100844C117BC
:101BC0006FF00044041B71F1000402DB6FF0004071
:101BD00000210C464FF00045E9172D1AA14101DB09
:101BE0004FF0004043F8120030BD30B53F4B53F882
:101BF000100053F811100844C1176FF00044041B83
:101C000071F1000402DB6FF0004000210C464FF040
:101C10000045E9172D1AA14101DB4FF0004043F8C0
:101C2000120030BD314B33F8100033F81110401A58
:101C300023F8120070472D4B33F9100033F91110BF
:101C4000401A47F6FF71884200DB08462F49884258
:101C500000DC084623F812007047244A52F81000AE
:101C600052F81110401AC1176FF00042821A71F138
:101C7000000202DB6FF0004000214FF00043DA1752
:101C8000181A8A417047194B33F8100033F81110B5
:101C900010FB01F023F812007047144B33F81000CA
:101CA00033F8111010FB01F047F6FF71884200DB9A
:101CB00008461649884200DC084623F8120070479F
:101CC00010B50A4B441C33F81440240433F91000B7
:101CD00020434C1C33F81440240433F911102143E1
:101CE000484323F812000014521C11E04002002067
:101CF0002A7AFF1F00E09245F0A96C4B0000C84211
:101D00000000C8C200003E440000C8C10080FFFFC0
:101D100023F8120010BD70B500240023844D35F95E
:101D2000111005E0C61835F9166034445B1C9BB2EF
:101D30009942F7DC45F8124070BDF0B5002300244D
:101D40007B4D35F9116008E0C11835F91170A742D3
:101D500001DD35F811405B1C9BB29E42F4DC25F896
:101D60001240F0BDF0B500230024714D35F911602B
:101D700008E0C11835F91170A74201DD35F81140AE
:101D80005B1C9BB29E42F4DC25F81240F0BD70B59E
:101D900000230024664D35F9116007E0C11835F9BC
:101DA0001110A14200DD0C465B1C9BB29E42F5DC8B
:101DB00025F8124070BD70B5002300245C4D35F944
:101DC000116007E0C11835F91110A14200DD0C4681
:101DD0005B1C9BB29E42F5DC25F8124070BD544A54
:101DE00032F91110002902DB22F810107047494225
:101DF00022F8101070474E4A32F91110002902DB08
:101E000022F810107047494222F810107047484BD2
:101E100033F81110CAB2C1F30721114323F810108F
:101E2000704770B50023424C07E0CD18C61834F84F
:101E3000155024F816505B1C9BB29342F5D370BD2D
:101E400010B500F0B4F800F016F9BDE8104000F04D
:101E5000ADB810B500F0ABF800F03EF9BDE81040A9
:101E600000F0A4B810B500F0A2F800F0ADF8BDE89D
:101E7000104000F09BB810B500F099F800F0D1F9CF
:101E8000BDE8104000F092B810B5044600F08FF89D
:101E90001F2C00DD1F24002C00DA0024254880229E
:101EA00000EBC4114FF4087000EBC41080B200F0D6
:101EB0003BFE214B40F2ED1220A126A02FF010FF97
:101EC000BDE8104000F072B810B500F070F800F0F6
:101ED00089F9BDE8104000F069B870472DE9F0417C
:101EE00006460F4624A02FF0FBFE29482FF0F8FEEF
:101EF00028482FF0F5FE26F00F040D4D3E4413E068
:101F0000200704D124F00F0123A02FF0E9FE35F9BA
:101F1000141023A02FF0E4FEE043000702D122A01A
:101F20002FF0DEFE641CA4B2A642E9D8BDE8F08121
:101F30004002002020190020E85F04082E2E5C2EAD
:101F40002E5C73506C635C73506C6346756E2E63CD
:101F50000000000025732C25642C25733A736176EC
:101F600065204F6E65204644204E5652414D2064F8
:101F70006F6E652E2E2E0A004E5652414D204D4555
:101F80004D4F5259205441424C453A0A000000003E
:101F9000E46C04083C6D04082535643A0000000038
:101FA0002C253034580000000A00000070477047AC
:101FB000FEE745F67F31884200D9FEE77047B0F56D
:101FC000B76F00D3FEE770477FB54FF437663146F1
:101FD000F54830F0C5F94022F349002000F052FDE9
:101FE00003A941F6645000F0D9FC1022EE49EF48F5
:101FF00019F0EEFB0546EC494FF4806240310C4687
:10200000202000F03FFD02A941F6685000F0C6FC18
:102010004FF480722146E54819F0DAFB0446E249A4
:10202000324601F5376030F01CF90398CDE9000520
:10203000DF4B4322DFA1E4A02FF052FE0298CDE94E
:102040000004DB4B4422DBA1ECA02FF049FE0398F7
:10205000A84209D00298A04206D0D54B4622D5A16D
:10206000F3A02FF03DFE7FBDD14B4922D1A1F9A0B5
:102070002FF036FE7FBD1FB54022CB49002000F077
:1020800053FD1022C849C94819F0A2FB039003A9C7
:1020900041F6645000F0D8FCC3494FF480624031EF
:1020A0000C46202000F040FD4FF480722146BF48CE
:1020B00019F08EFB029002A941F6685000F0C4FCB2
:1020C000DDE90210BA4BCDE900010E335622B9A169
:1020D000E8A02FF005FE1FBD2DE9FE4F0026B24DF2
:1020E00005F53767002428783978884205D02946D5
:1020F000204600F070FC46F0FF066D1C7F1C641C3F
:10210000A4B2402CEFD356B11022A749A74819F02A
:102110005FFB029002A941F6645000F095FC002795
:10212000A14D4035AA4605F5376800244FF4806973
:10213000287898F80010884207D004F1200080B277
:10214000294600F048FC47F0FF076D1C08F1010824
:10215000641CA4B24C45EBD35FB14FF4807251467E
:10216000924819F035FB019001A941F6685000F042
:102170006BFC8D494FF4376201F5376030F071F830
:1021800046B102988A4B00901C337F2289A1C8A0D7
:102190002FF0A6FD002F08D00198854B00901C332E
:1021A000822284A1CFA02FF09BFDBDE8FE8F10B549
:1021B000FFF7FDFE022000F03FFD4FF4376421469B
:1021C000794830F0CDF82146D34830F0C9F8FFF710
:1021D000EDFE774BBDE810402C338B2275A1CFA0CC
:1021E0002FF07EBD10B5FFF7E2FE4FF48052D349C9
:1021F0004FF4087000F046FCFFF7D8FE40B16C4B7E
:10220000BDE810403B3393226AA1CDA02FF068BDFA
:10221000674BBDE810403B33962266A1D1A02FF05A
:102220005FBD10B5FFF7C3FE4FF48052C3494FF4B2
:10223000087000F079FC38B15D4B9E2249335DA1F6
:10224000D0A02FF04DFD06E0594BA122493359A1F2
:10225000D4A02FF045FDBDE81040A7E610B5FFF76C
:10226000A6FE032000F0E8FC4FF48051B34830F0A4
:1022700077F84F4BA92257334EA1D2A02FF030FD53
:10228000BDE8104092E610B5FFF791FE052000F082
:10229000D3FC474BAF22663346A1CAA02FF020FDE6
:1022A000BDE8104082E610B5FFF781FE062000F081
:1022B000C3FC3F4BB5227C333EA1CBA02FF010FDD9
:1022C000BDE8104072E62DE9F04145F28260FFF76B
:1022D0003CF9002866D045F2B1684046FFF70FF997
:1022E000314D45F2B06747F6FF76002448B1A5F8B6
:1022F000A86AA5F8A64A4046FFF7D9F83846FFF77E
:10230000D6F8B5F9A81AB5F9A60A81420CDB05F58D
:102310002A652C8128886880A888E880A5F52A6528
:102320003846FFF7B3F80DE0B5F9A20A814206D1AD
:10233000491CA5F8A81A3846FFF7B9F802E0491C6D
:10234000A5F8A81A45F2B3684046FFF7D8F845F259
:10235000B26748B1A5F8B26AA5F8B04A4046FFF79F
:10236000A6F83846FFF7A3F8B5F9B21AB5F9B00ADE
:1023700081420CDB05F6AA252C8128886880A88874
:10238000E880A5F6AA253846FFF780F841E1B5F9BF
:10239000AC0A814207D1491CA5F8B21A3846FFF7AA
:1023A00086F836E19BE131E1400200200800002080
:1023B000F25F04082E2E5C2E2E5C73506C635C73EF
:1023C000506C632E6300000025732C25642C25734C
:1023D0003A4D52204550524F4D204352433A3078A7
:1023E000253038582C4D522043414C432043524312
:1023F0003A3078253038580A0000000025732C2523
:10240000642C25733A444D204550524F4D20435281
:10241000433A3078253038582C444D2043414C43C2
:10242000204352433A3078253038580A00000000E3
:1024300025732C25642C25733A6C6F6164204E56ED
:1024400052414D20637263206661696C2E2E2E0A04
:102450000000000025732C25642C25733A6C6F61F5
:1024600064204E5652414D20646F6E652E2E2E0A0A
:102470000000000025732C25642C25733A736176C7
:1024800065204E5652414D20646F6E652E2E2E28CB
:102490004D52204352433A3078253038582C444D21
:1024A000204352433A307825303858290A0000003A
:1024B00025732C25642C25733A757064617465202E
:1024C0004D52204E5652414D20646F6E652E2E2E79
:1024D000284D52204352433A307825303858290A43
:1024E0000000000025732C25642C25733A75706458
:1024F00061746520444D204E5652414D20646F6EEC
:10250000652E2E2E28444D204352433A30782530F4
:102510003858290A00000000B00D002025732C2532
:10252000642C25733A636C656172204E5652414D9E
:1025300020646F6E652E2E2E0A00000020190020E8
:1025400025732C25642C25733A6C6F6164204644F6
:10255000204E5652414D20637263206661696C21A2
:1025600021210A0025732C25642C25733A6C6F6198
:1025700064204644204E5652414D20646F6E652EB5
:102580002E2E0A0025732C25642C25733A73617650
:1025900065204644204E5652414D206661696C2E9E
:1025A0002E2E0A0025732C25642C25733A73617630
:1025B00065204644204E5652414D20646F6E652E74
:1025C0002E2E0A0025732C25642C25733A636C6526
:1025D0006172204644204E5652414D20646F6E6514
:1025E0002E2E2E0A0000000025732C25642C257346
:1025F0003A636C65617220646576696365206C6F0F
:102600006720646F6E652E2E2E0A0000491CA5F807
:10261000B21A45F2B5684046FEF771FF45F2B4675D
:1026200048B1A5F8BC6AA5F8B04A4046FEF73FFF9E
:102630003846FEF73CFFB5F9BC1AB5F9BA0A814233
:102640000CDB05F6B4252C8128886880A888E880F2
:10265000A5F6B4253846FEF719FF0DE0B5F9B60A20
:10266000814206D1491CA5F8BC1A3846FEF71FFF67
:1026700002E0491CA5F8BC1A45F2B7684046FEF7CF
:102680003EFF45F2B66748B1A5F8C66AA5F8C44A48
:102690004046FEF70CFF3846FEF709FFB5F9C61AAB
:1026A000B5F9C40A81420BDB05F6BE252C812888CA
:1026B0006880A888E8803846BDE8F041FEF7E6BEAD
:1026C000B5F9C00A814207D1491CA5F8C61A384697
:1026D000BDE8F041FEF7EBBE491CA5F8C61ABDE8FF
:1026E000F08138B5614B40F21112AFF2383160A081
:1026F0002FF0F6FA00F058FA0EF01FFA05F085FCFC
:10270000FFF762FCFFF76EFD01F098FF5F4CA060E1
:1027100001F0A1FFE060A068544B4FF48E72AFF25D
:102720006C3100905AA02FF0DBFAE0684F4B40F27A
:102730001D12AFF2803100905DA02FF0D1FA4FF45E
:10274000AD40FEF7A3FE45F28160FEF79FFE00F06C
:102750000DFE00F0C9FE02F08FFC02F021FA01F03C
:1027600021F802F011F902F08CF80421574810F01A
:10277000B1FB0821554810F0ADFB0021534810F083
:10278000A9FB45F20320FEF792FE514B0A224F4867
:1027900093F93F10002901DD642902DD0168CA6355
:1027A00001E00468E16393F93E10002901DD64292A
:1027B00002DD01688A6301E00468A16393F94010B7
:1027C000002901DD642902DD0068426338BD00682C
:1027D000416338BD70B52D4D0024287800280ED0F7
:1027E00045F28260FEF774FE2C703A4947F6FF729C
:1027F000B1F9CE0A904202DA401CA1F8CE0A6878FC
:1028000020B145F28460FEF763FE6C70A87820B1B9
:1028100045F28560FEF75CFEAC70E87820B145F2C9
:102820008660FEF755FEEC70287920B145F287608E
:10283000FEF74EFE2C71687920B145F28860FEF7F4
:1028400047FE6C7100F09FFDFFF73DFDBDE8704055
:1028500002F0C8B910B500F071FEFFF73DFCBDE80D
:10286000104045F28160FEF722BE0000816004083E
:1028700025732C25642C25733A737461727420417E
:1028800070702E2E2E2E2E2E0A0000001400002016
:1028900025732C25642C25733A626F6F746C6F61FD
:1028A00064206372633A3078253038580A0000009B
:1028B00025732C25642C25733A6170702063726334
:1028C0003A3078253038580A0000000060C20120F4
:1028D000E84F00204002002038B5044600944FF431
:1028E0007A730122694608481DF0F1F9204638BD87
:1028F00008B564230122694603481DF042FA9DF899
:10290000000008BD70477047B001002030B50023BB
:1029100007E0C45CCD5CAC4201D0002030BD5B1C44
:102920009BB29342F5D3012030BD0EB5B0F5005FE8
:1029300001D301200EBD4FF47A720123CDE901329B
:10294000009102461023A121F8481AF021FE002828
:10295000F0D0F64819F07AFABDE80E40F34819F0C5
:10296000B0B90EB5421CB2F5005F01D301200EBD17
:102970004FF47A720223CDE901320091024610230E
:10298000A121EA481AF004FE0028F0D0E74819F027
:102990005DFABDE80E40E54819F093B90EB5C21CCA
:1029A000B2F5005F01D301200EBD4FF47A7204230B
:1029B000CDE90132009102461023A121DB481AF033
:1029C000E7FD0028F0D0D94819F040FABDE80E40E4
:1029D000D64819F076B90EB5B0F5005F01D30120E5
:1029E0000EBD4FF47A720123CDE901320091024607
:1029F0001023A021CD481AF085FC0028F0D0CB4848
:102A000019F024FABDE80E40C84819F05AB90EB5BD
:102A1000421CB2F5005F01D301200EBD4FF47A7263
:102A20000223CDE90132009102461023A021BF48C4
:102A30001AF068FC0028F0D0BC4819F007FABDE88D
:102A40000E40BA4819F03DB90EB5C21C41F6FF73ED
:102A50009A4201D301200EBD4FF47A720423CDE9CE
:102A60000132009102461023A021B0481AF04AFC1E
:102A70000028F0D0AD4819F0E9F9BDE80E40AB48A8
:102A800019F01FB970B588B003460C469D18B5F50E
:102A9000005F02D9012008B070BDD508069502F08C
:102AA000070205920793002104914FF47A750826D6
:102AB00019E0CDE90165BDF81C2010230094A12187
:102AC0009A481AF065FD28B1984819F0BFF997485F
:102AD00019F0F7F8BDF81C10083107910834BDF85B
:102AE0001010491C0491BDF81010BDF81820914237
:102AF000DFD3BDF814100029CDD0BDF81400CDE906
:102B00000105BDF81C2010230094A12187481AF06C
:102B10003FFD0028BFD0854819F098F908B08348D8
:102B2000BDE8704019F0CDB82DE9FE4F06460C46C1
:102B3000B118B1F5005F02D90120BDE8FE8F4FEA60
:102B4000D20802F0070700254FF47A794FF0080AFF
:102B500014E0CDE901A910233246A0217348009466
:102B60001AF0D0FB28B1714819F070F96F4819F0CC
:102B7000A8F80836B6B208346D1CADB24545E8D3A6
:102B8000002FDAD08DE8900210233246A02167484A
:102B90001AF0B8FB0028D0D0644819F057F9BDE806
:102BA000FE4F624819F08DB810B520231F22002176
:102BB0005FA02FF095F84FF40074234640F21F22D7
:102BC000202164A02FF08CF8A30040F61F224FF4C0
:102BD000087169A02FF084F841F66752D11E6FA0EA
:102BE0002FF07EF841F66B52D11E74A02FF078F8CA
:102BF00041F66F52D11E79A02FF072F841F6735250
:102C0000D11E80A02FF06CF841F67752D11E85A01E
:102C10002FF066F8234641F67F724FF4EC5189A0FD
:102C20002FF05EF8BDE81040802341F6FF724FF4AC
:102C3000FC518EA02FF054B8F8B5002100914FF44C
:102C400008744FF4FC554FF4005607280DD2DFE806
:102C500000F00C040D32465B65000024A0B269460A
:102C6000FFF7B9FE641CB442F8D3F8BD0025A8B242
:102C70006946FFF7B0FE6D1C1F2DF8D92025A8B2BC
:102C80006946FFF7A8FE6D1CA542F8D341F66454CF
:102C9000E51CA0B26946FFF79EFE641CAC42F8D961
:102CA00041F66854E51CA0B26946FFF794FE641C27
:102CB000AC42F8D9F8BD4FF42265A0B26946FFF7DF
:102CC0008AFE641CAC42F8D341F66C54E51CA0B2F9
:102CD0006946FFF780FE641CAC42F8D9F8BD41F6A6
:102CE0007054E51CA0B26946FFF775FE641CAC4247
:102CF000F8D941F67454E51CA0B26946FFF76BFEA3
:102D0000641CAC42F8D9F8BD4FF4EC54A0B269464B
:102D1000FFF761FE641CAC42F8D3F8BDA8B2694667
:102D2000FFF759FE6D1CB542F8D3F8BDB4C10120C0
:102D30004D52204550524F4D3A3078253034582D61
:102D40002D2D3078253034582873697A653A2564FA
:102D5000290A0000444D204550524F4D3A30782505
:102D60003034582D2D2D3078253034582873697A19
:102D7000653A2564290A00004644204550524F4DCB
:102D80003A3078253034582D2D2D30782530345870
:102D90002873697A653A2564290A00004D52204358
:102DA0005243204550524F4D3A3078253034582DFB
:102DB0002D2D3078253034580A000000444D204332
:102DC0005243204550524F4D3A3078253034582DDB
:102DD0002D2D3078253034580A0000004644204319
:102DE0005243204550524F4D3A3078253034582DBB
:102DF0002D2D3078253034582C28756E7573652943
:102E00000A0000004D435520435243204550524F85
:102E10004D3A3078253034582D2D2D3078253034EA
:102E2000580A00004C434420435243204550524F1F
:102E30004D3A3078253034582D2D2D3078253034CA
:102E4000580A0000434F4E464947204550524F4DC7
:102E50003A3078253034582D2D2D3078253034589F
:102E60002873697A653A2564290A00004C4F47495E
:102E70004E464F204550524F4D3A30782530345809
:102E80002D2D2D3078253034582873697A653A25F0
:102E900064290A00002205E0835CFF2B01D000209A
:102EA0007047521C8A42F7D3012070472DE9F04742
:102EB000A2B00025B74E3068816841F00101816001
:102EC0000024EA464FF40058B3481CF0B4FC0090CC
:102ED000A0B26946FFF77FFD601C80B20AF10101D4
:102EE000FFF779FDA01C80B20AF10201FFF773FD24
:102EF000E01C80B20AF10301FFF76DFD0122694673
:102F0000A44818F053FC8146241D4445DCD33068A6
:102F1000816841F001018160002401AFA0B201A9E4
:102F2000FFF703FD601C80B2791CFFF7FEFCA01CBC
:102F300080B2B91CFFF7F9FCE01C80B2F91CFFF766
:102F4000F4FC012201A9934818F030FC241D4445EB
:102F5000E4D3484507D1914B4FF4A97290A197A0B3
:102F60002EF0BEFE07E08D4B40F255128CA19FA0C3
:102F70002EF0B6FE00253068816841F001018160C5
:102F8000002485481CF057FC0090A0B26946FFF76A
:102F90003EFDA01C80B20AF10201FFF738FD0122BC
:102FA00069467C4818F002FC8146241D4445E8D35C
:102FB0003068816841F0010181600024A0B201A95C
:102FC000FFF7CFFCA01C80B2B91CFFF7CAFC01229E
:102FD00001A9704818F0EAFB241D4445EED348458A
:102FE00007D16E4B40F267126DA18CA02EF078FED7
:102FF00007E06A4B4FF4B57269A194A02EF070FE01
:1030000000253068816841F001018160002441F6AB
:10301000FC7761481CF00FFC0090A0B26946FFF7F6
:1030200013FD012269465B4818F0C0FB8046241D51
:10303000BC42EED33068816841F001018160002418
:10304000A0B201A9FFF7AAFC012201A9514818F07A
:10305000ADFB241DBC42F3D3404507D14F4B4FF489
:10306000BD724FA185A02EF03BFE07E04B4B40F216
:103070007D124BA18DA02EF033FE00254FF080086D
:103080004FF00009002423E0E2B2402102A82FF013
:103090005FF9402112A82FF085F908EB8416B0B231
:1030A000402202A9FFF740FDB0B2402212A9FFF76B
:1030B000E9FC402212A912A8FFF728FC38B9374BC7
:1030C00040F2891236A185A02EF00AFE0025641C6C
:1030D0004445D9D3FDF75EF9FF2190FBF1F201FBE6
:1030E0001202402102A82FF033F9402112A82FF03C
:1030F00059F9C9F50054A0B24A4602A9FFF714FDD8
:10310000A0B24A4612A9FFF7BDFC402212A912A89C
:10311000FFF7FCFB38B9214B4FF4C97220A16FA017
:103120002EF0DEFD00251D4B40F295121CA175A06E
:103130002EF0D6FD00244FF4CE7942F210761648D8
:103140001CF079FBB0FBF7F107FB110000900422A3
:1031500069464046FFF7E8FC042201A94046FFF714
:1031600091FCDDE90001884206D00C4B4A460CA1D7
:103170006EA02EF0B5FD0025641CB442DFD3074BD2
:103180004FF4D07206A171A02EF0AAFD22B02846FD
:10319000BDE8F0870800002008C201208A6004080A
:1031A0002E2E5C2E2E5C73506C63506F72745C73A9
:1031B000506C634570726F6D2E63000025732C2573
:1031C000642C25733A627974652838626974292001
:1031D00073657175656E7469616C20777269746569
:1031E0002070617373210D0A0000000025732C25E7
:1031F000642C25733A6279746528386269742920D1
:1032000073657175656E7469616C20776972746538
:10321000206661696C210D0A0000000025732C25D1
:10322000642C25733A68776F72642831366269744A
:10323000292073657175656E7469616C2077726998
:1032400074652070617373210D0A000025732C25AD
:10325000642C25733A686F7772642831366269741A
:10326000292073657175656E7469616C2077697268
:103270007465206661696C210D0A000025732C2598
:10328000642C25733A64776F7264283332626974F0
:10329000292073657175656E7469616C2077726938
:1032A00074652070617373210D0A000025732C254D
:1032B000642C25733A64776F7264283332626974C0
:1032C000292073657175656E7469616C2077697208
:1032D0007465206661696C210D0A000025732C2538
:1032E000642C25733A626C6F636B2073657175652E
:1032F0006E7469616C205772697465206661696CCF
:10330000210D0A0025732C25642C25733A626C6FFD
:10331000636B2073657175656E7469616C2057729B
:103320006974652070617373210D0A0025732C2563
:10333000642C25733A72616E646F6D2077726974C4
:1033400065206661696C210D0A00000025732C253B
:10335000642C25733A72616E646F6D2077726974A4
:10336000652070617373210D0A00000010B5802183
:103370004A482EF0F5FFBDE81040494B072249A10D
:103380004FA02EF0ADBC2DE9F041544F4FF48041D9
:10339000384616F08AFA524D404C6FF0070630B1AD
:1033A00094F90010B14210DD491E217013E094F928
:1033B0000010082902DA491C21700CE0B5F8300A27
:1033C00040F00100A5F8300A05E0B5F8300A20F019
:1033D0000100A5F8300A0221384616F066FA30B12D
:1033E00094F90110B14210DD491E617013E094F9A7
:1033F0000110082902DA491C61700CE0B5F8300AA6
:1034000040F00200A5F8300A05E0B5F8300A20F0D7
:103410000200A5F8300A0121384616F046FA30B10C
:1034200094F90200B04210DD401EA07013E094F940
:103430000200082802DA401CA0700CE0B5F8300A3F
:1034400040F00400A5F8300A05E0B5F8300A20F095
:103450000400A5F8300A2021224816F026FA012897
:1034600007D094F90300B04211DD401EE070BDE8C2
:10347000F08194F90300082802DA401CE070F6E7B6
:10348000B5F8300A40F00800A5F8300AEFE7B5F8C3
:10349000300A20F00800A5F8300AE8E7C8C3012088
:1034A000986004082E2E5C2E2E5C73506C63506F57
:1034B00072745C73506C63496F496E2E6300000038
:1034C00025732C25642C25733A696E7075742069F8
:1034D0006E69742E2E2E2E2E2E0A0000000402403D
:1034E000400200200008024010B555490020A1F814
:1034F000400A544C00224FF40061204616F0DCF9DB
:10350000042151480FF0E6FC08214F480FF0E2FC7F
:1035100000214D480FF0DEFC0022A114204616F0D9
:10352000CBF901229102494816F0C6F9BDE81040D6
:10353000474B0D2247A14EA02EF0D2BB2DE9F04102
:103540004FF4A4442046FEF700F818B108213E4885
:103550000FF061FC2046FEF712F818B108213A4836
:103560000FF0B8FC45F201242046FDF7EEFF18B13C
:10357000042135480FF04FFC2046FEF700F818B143
:10358000042131480FF0A6FC45F202242046FDF745
:10359000DCFF18B100212C480FF03DFC2046FDF760
:1035A000EEFF18B1002128480FF094FC45F20326E5
:1035B0003046FDF7CAFF234C4FF4805520B101225D
:1035C0002946204616F078F93046FDF7D8FF20B19D
:1035D00000222946204616F06FF945F204273846A6
:1035E000FDF7B3FF194E4FF4806520B10122294643
:1035F000304616F061F93846FDF7C1FF20B10122CF
:103600002946304616F058F945F206263046FDF7B1
:103610009CFF4FF4006520B101222946204616F098
:103620004BF93046FDF7ABFF002806D0294620466F
:10363000BDE8F041002216F03FB9BDE8F08100007E
:10364000400200200004024060C201200008024045
:10365000A66004082E2E5C2E2E5C73506C63506F97
:1036600072745C73506C63496F4F75742E63000005
:1036700025732C25642C25733A6F7574707574202E
:10368000696E69742E2E2E2E2E2E0A0010B58C4BCC
:103690007F228CA192A02EF023FB974CB4F840001F
:1036A000022807D1B4F94200022803DC1520A4F84F
:1036B000CC0A0BE042F21720FDF721FF18B11420CD
:1036C000A4F8CC0A02E01220A4F8CC0A40F24C4044
:1036D000A4F8CA0AB4F84400A4F8C80A0020A4F860
:1036E000CE0A86498880488148828870C87084499B
:1036F00009684862BDE8104081480EF0A9BE10B5C7
:10370000002800DA00207F49096848637B4C30B10B
:1037100000217C480FF07FFB0120207010BD0021AC
:1037200078480FF0D7FB0020207010BD70B5734CA7
:10373000A07801281DD1744D00220221284616F0E0
:10374000BBF800224FF40051284616F0B5F80022CD
:1037500010216E4816F0B0F867486D49B0F8460081
:1037600091F9411010FB01F000B2FFF7C8FF0020F3
:10377000A07070BD10B5524B97229B1D51A165A042
:103780002EF0AEFA5E480024006844625C480EF0F9
:1037900096FEFFF7CBFF5948848044818470012155
:1037A000C17010BD10B5584C00220221204616F001
:1037B00083F800224FF40051204616F07DF80022D5
:1037C0001021524816F078F80020FFF798FF4B4878
:1037D000002141708180C180018141818181C1814D
:1037E000018241828170C170354BBDE810400C33BD
:1037F000B02234A14DA02EF073BA70B53F4DA87819
:10380000002828D13C4C404E94F8EE04C10704D067
:1038100001220221304616F04FF894F8EE14890781
:1038200009D501225103304616F046F80122102135
:10383000364816F041F894F8EE0410F0050F08D061
:10384000B4F8FA044FF47A7110FB01F000B2FFF7FC
:1038500056FF0120A87070BD10B5284C204694F981
:103860000110B0F90400012922D002291FD100283B
:1038700005DBB4F90610884201DAFFF7BEFFB4F9A0
:103880000400B4F90610884205DBB4F90810884238
:1038900001DAFFF74BFFB4F90400B4F908108842CD
:1038A00002DB4FF0FF30A080A088401CA08010BD3C
:1038B0000028FCD1FFF7A1FFA088401CA08010BD0C
:1038C000B56004082E2E5C2E2E5C73506C63506F16
:1038D00072745C73506C634C617365722E6300008C
:1038E00025732C25642C25733A6C617365722073E3
:1038F00074617274210A00004002002014C001208B
:10390000F0C2012018C20120000802400004024059
:10391000E84F002025732C25642C25733A6C6173C5
:1039200065722073746F70210A00000025732C25C6
:10393000642C25733A6C617365722074696D6572CD
:1039400020696E69742E2E2E2E2E2E0A0000000085
:1039500000204FF47A7100BF00BF00BF00BF00BF5E
:1039600000BF00BF00BF00BF00BF401C8842F2D3B1
:10397000704710B588B01C2101A82EF013FDFF4838
:10398000FD49016000244460846040F61F51C1601D
:10399000046184610FF0F5F9602001904FF4D2606A
:1039A000029003940594002201A9F44810F0CCFF82
:1039B00008B010BD2DE9F04786B00026F04C206815
:1039C00040F001002060206800F001000090ED4F01
:1039D0004FF4805900224946384615F06DFFCDF866
:1039E00004904FF00108CDF8088002250395049655
:1039F00001A9384615F0FAFD00224946384615F06F
:103A00005BFF6420FFF7A4FF01224946384615F00A
:103A100053FF6420FFF79CFF4946384615F0B8FE77
:103A2000206820F001002060206840F04000206005
:103A3000206800F040000090DFF84CA3A71500229A
:103A40003946504615F038FF0197CDF808800395A8
:103A5000049601A9504615F0C9FDC820FFF778FF6C
:103A60004946504615F094FE206820F04000206042
:103A7000201D016821F080010160432016F024FB25
:103A8000432016F001FC06B0BDE8F08710B592B0F7
:103A9000302106A82EF086FC142101A82EF082FC0D
:103AA000BA480024046001210160B948046604603A
:103AB000B3481030026822F080520260026842F07F
:103AC00080520260006800F080500090B1480268A7
:103AD00042F480420260006800F4804000900220BE
:103AE0000690099110200A900C9406A814F0A4FEE8
:103AF00008B1FCF789FC0F200190029403944FF465
:103B0000805004900594002101A815F09BF800282E
:103B100001D0FCF779FC12B010BD10B516F033FCE3
:103B20009D48FCF7E4FE9D48FDF727F89C48FDF70B
:103B30001EFA9248FDF71BFA9A48FDF718FA9A48C0
:103B4000FDF715FA9948FDF712FA9948FDF70FFAB3
:103B50009848FCF7D4FF9848FDF7E9FA9748FDF735
:103B6000E6FA9748FCF782FE9648FCF7EBFE96488B
:103B700027F0E8FAFFF78AFFFFF71CFF62B610BDD7
:103B80001EF09ABC38B50446904DB5F90000A0422D
:103B90001AD0642C00DD6424002C00DA0024834851
:103BA0000068846324B1042180480FF034F903E0F5
:103BB00004217E480FF08EF92C80854BB12285A11F
:103BC0008BA000942EF08CF838BD70B530384FF4CF
:103BD00096754FF4617640F6B8341E2862D2DFE85D
:103BE00010F01E006200A60033017701BB01FF0147
:103BF00043028702CB026100610061006100610045
:103C00006100610011032B0361039703BF03CB0322
:103C1000010429045F047904AF04D7040F050421CB
:103C200056480FF0F8F828461EF046FC0421534889
:103C30000FF050F920461EF03FFC04214F480FF0D2
:103C4000EAF830461EF038FC04214C480FF042F9E7
:103C500020461EF031FC042148480FF0DCF83046C5
:103C60001EF02AFC042145480FF034F920461EF0CE
:103C700023FC042141480FF0CEF830461EF01CFC16
:103C800004213E480FF026F920461EF015FC0421C1
:103C90003A480FF0C0F830461EF00EFC04213748B9
:103CA0000FF018F923E2042134480FF0B4F8284645
:103CB0001EF002FC042131480FF00CF920461EF0E2
:103CC000FBFB04212D480FF0A6F830461EF0F4FB54
:103CD00004212A480FF0FEF820461EF0EDFB0421D7
:103CE00026480FF098F830461EF0E6FB04212348E2
:103CF0000FF0F0F820461EF0DFFB04211F480FF004
:103D00008AF830461EF0D8FB04211C480FF0E2F878
:103D100020461EF0D1FB042118480FF07CF83046F5
:103D20001EF0CAFB042115480FF0D4F8BAE70421AD
:103D300012480FF070F828461EF0BEFB04210F4811
:103D40000FF0C8F820461EF0B7FB04210B480FF017
:103D500062F828461EF0B0FB042108480FF0BAF8BC
:103D600020461EF0A9FB042104480FF054F8304609
:103D70001EF0A2FB042147E00004004060C20120C5
:103D8000303802400000024000180240400E474216
:103D900000004742007000400800002008C20120D7
:103DA00018C20120A8C20120F0C2012038C301209E
:103DB00080C30120B4C10120B001002068010020AF
:103DC0000CC10120F40000204CCB01202800002071
:103DD000CF6004082E2E5C2E2E5C73506C63506FE7
:103DE00072745C73506C634D6973632E63000000E2
:103DF00025732C25642C25733A7365742066616ED7
:103E00003A25640A00000000FD480FF063F82046E0
:103E10001EF052FB0421FA480EF0FDFF30461EF062
:103E20004BFB0421F6480FF055F820461EF044FBEA
:103E30000421F3480EF0EFFF30461EF03DFB042155
:103E4000EF480FF047F8F4E30421ED480EF0E3FFEC
:103E500028461EF031FB0421E9480FF03BF82046CC
:103E60001EF02AFB0421E6480EF0D5FF28461EF07E
:103E700023FB0421E2480FF02DF820461EF01CFB26
:103E80000421DF480EF0C7FF30461EF015FB042169
:103E9000DB480FF01FF820461EF00EFB0421D84827
:103EA0000EF0B9FF30461EF007FB0421D4480FF096
:103EB00011F820461EF000FB0421D1480EF0ABFFA4
:103EC00030461EF0F9FA0421CD480FF003F8B0E3B4
:103ED0000421CB480EF09FFF28461EF0EDFA042186
:103EE000C7480EF0F7FF20461EF0E6FA0421C4484A
:103EF0000EF091FF28461EF0DFFA0421C0480EF0B4
:103F0000E9FF20461EF0D8FA0421BD480EF083FFD9
:103F100030461EF0D1FA0421B9480EF0DBFF2046EE
:103F20001EF0CAFA0421B6480EF075FF28461EF0AE
:103F3000C3FA0421B2480EF0CDFF20461EF0BCFAB1
:103F40000421AF480EF067FF30461EF0B5FA042199
:103F5000AB480EF0BFFF6CE30421A9480EF05BFFF5
:103F600028461EF0A9FA0421A5480EF0B3FF20460A
:103F70001EF0A2FA0421A2480EF04DFF28461EF0C2
:103F80009BFA04219E480EF0A5FF20461EF094FAED
:103F900004219B480EF03FFF28461EF08DFA0421B5
:103FA00097480EF097FF20461EF086FA04219448A9
:103FB0000EF031FF28461EF07FFA042190480EF0E3
:103FC00089FF20461EF078FA04218D480EF023FF69
:103FD00028461EF071FA042189480EF07BFF28E381
:103FE000042187480EF017FF30461EF065FA0421C1
:103FF00083480EF06FFF20461EF05EFA04218048D1
:104000000EF009FF28461EF057FA04217C480EF0F6
:1040100061FF20461EF050FA042179480EF0FBFEA5
:1040200028461EF049FA042175480EF053FF204639
:104030001EF042FA042172480EF0EDFE28461EF0F2
:104040003BFA04216E480EF045FF20461EF034FA7C
:1040500004216B480EF0DFFE28461EF02DFA0421E5
:1040600067480EF037FFE4E2042165480EF0D3FE06
:1040700030461EF021FA042161480EF02BFF204645
:104080001EF01AFA04215E480EF0C5FE30461EF0FE
:1040900013FA04215A480EF01DFF20461EF00CFAB8
:1040A000042157480EF0B7FE28461EF005FA0421F9
:1040B00053480EF00FFF20461EF0FEF90421504831
:1040C0000EF0A9FE28461EF0F7F904214C480EF028
:1040D00001FF20461EF0F0F9042149480EF09BFE36
:1040E00028461EF0E9F9042145480EF0F3FEA0E24F
:1040F000042143480EF08FFE30461EF0DDF9042106
:104100003F480EF0E7FE20461EF0D6F904213C4859
:104110000EF081FE30461EF0CFF9042138480EF033
:10412000D9FE20461EF0C8F9042135480EF073FE72
:1041300030461EF0C1F9042131480EF0CBFE204676
:104140001EF0BAF904212E480EF065FE28461EF036
:10415000B3F904212A480EF0BDFE20461EF0ACF94A
:10416000042127480EF057FE28461EF0A5F9042129
:1041700023480EF0AFFE5CE2042121480EF04BFE16
:1041800030461EF099F904211D480EF0A3FE20468A
:104190001EF092F904211A480EF03DFE30461EF042
:1041A0008BF9042116480EF095FE20461EF084F986
:1041B000042113480EF02FFE30461EF07DF9042135
:1041C0000F480EF087FE20461EF076F904210C48B9
:1041D0000EF021FE30461EF06FF9042108480EF063
:1041E00079FE20461EF068F9042105480EF013FE02
:1041F00028461EF061F9042101480EF06BFE18E21A
:1042000060C201200421FD480EF005FE28461EF084
:1042100053F90421F9480EF05DFE20461EF04CF9DA
:104220000421F6480EF0F7FD30461EF045F9042152
:10423000F2480EF04FFEFCE10421F0480EF0EBFDD9
:1042400030461EF039F90421EC480EF043FE2046BA
:104250001EF032F90421E9480EF0DDFD28461EF07B
:104260002BF90421E5480EF035FE20461EF024F916
:104270000421E2480EF0CFFD28461EF01DF904216E
:10428000DE480EF027FE20461EF016F90421DB481A
:104290000EF0C1FD28461EF00FF90421D7480EF09C
:1042A00019FEC6E10421D5480EF0B5FD30461EF0DA
:1042B00003F90421D1480EF00DFE20461EF0FCF853
:1042C0000421CE480EF0A7FD28461EF0F5F8042183
:1042D000CA480EF0FFFD20461EF0EEF80421C74844
:1042E0000EF099FD30461EF0E7F80421C3480EF0A9
:1042F000F1FD20461EF0E0F80421C0480EF08BFDD1
:1043000028461EF0D9F80421BC480EF0E3FD90E1E8
:104310000421BA480EF07FFD30461EF0CDF804218E
:10432000B6480EF0D7FD20461EF0C6F80421B3486B
:104330000EF071FD28461EF0BFF80421AF480EF0C4
:10434000C9FD20461EF0B8F80421AC480EF063FD0C
:1043500028461EF0B1F80421A8480EF0BBFD68E124
:104360000421A6480EF057FD28461EF0A5F80421AA
:10437000A2480EF0AFFD5CE10421A0480EF04BFD19
:1043800028461EF099F804219C480EF0A3FD204613
:104390001EF092F8042199480EF03DFD28461EF0CB
:1043A0008BF8042195480EF095FD20461EF084F808
:1043B000042192480EF02FFD30461EF07DF80421B6
:1043C0008E480EF087FD20461EF076F804218B48BB
:1043D0000EF021FD28461EF06FF8042187480EF0EC
:1043E00079FD26E1042185480EF015FD30461EF0CA
:1043F00063F8042181480EF06DFD20461EF05CF844
:1044000004217E480EF007FD30461EF055F80421C9
:104410007A480EF05FFD20461EF04EF804217748E2
:104420000EF0F9FC28461EF047F8042173480EF000
:1044300051FDFEE0042171480EF0EDFC28461EF00F
:104440003BF804216D480EF045FD20461EF034F87F
:1044500004216A480EF0DFFC28461EF02DF80421E6
:1044600066480EF037FD20461EF026F8042163480A
:104470000EF0D1FC28461EF01FF804215F480EF014
:1044800029FD20461EF018F804215C480EF0C3FCFC
:1044900028461EF011F8042158480EF01BFDC8E014
:1044A000042156480EF0B7FC28461EF005F80421FA
:1044B00052480EF00FFD20461DF0FEFF04214F482C
:1044C0000EF0A9FC28461DF0F7FF04214B480EF022
:1044D00001FDAEE0042149480EF09DFC28461DF088
:1044E000EBFF042145480EF0F5FC20461DF0E4FFEB
:1044F000042142480EF08FFC30461DF0DDFF042100
:104500003E480EF0E7FC20461DF0D6FF04213B4854
:104510000EF081FC30461DF0CFFF042137480EF02D
:10452000D9FC20461DF0C8FF042134480EF073FC6E
:1045300030461DF0C1FF042130480EF0CBFC78E07E
:1045400004212E480EF067FC30461DF0B5FF042113
:104550002A480EF0BFFC20461DF0AEFF042127487C
:104560000EF059FC28461DF0A7FF042123480EF049
:10457000B1FC20461DF0A0FF042120480EF04BFCAA
:1045800030461DF099FF04211C480EF0A3FC50E0BA
:1045900004211A480EF03FFC28461DF08DFF04212F
:1045A00016480EF097FC20461DF086FF04211348A4
:1045B0000EF031FC30461DF07FFF04210F480EF055
:1045C00089FC20461DF078FF04210C480EF023FCE6
:1045D00028461DF071FF042108480EF07BFC2046A0
:1045E0001DF06AFF042105480EF015FC28461DF059
:1045F00063FF042101480EF06DFC1AE060C2012047
:1046000004211B480EF007FC30461DF055FF042125
:1046100017480EF05FFC20461DF04EFF04211448A1
:104620000EF0F9FB30461DF047FF042110480EF054
:1046300051FC2046BDE870401DF03EBF70B5FCF750
:1046400005FF4FF000640B4D2078FCF7F3FE641C6F
:10465000AC42F9D370BD70B5FCF7F8FE054C641C94
:10466000054D2078FCF7E6FE641CAC42F9D370BD22
:1046700060C20120FFFF0008FFFF0F0838B50446A5
:1046800093480DF0D2FE0021924817F0B4F941F2A0
:104690009410844200DD04464FF4FA70844200DA3C
:1046A000044614F0C6FB400A4000B0FBF4F000EEF4
:1046B000100AB8EE400A864887490160012141602E
:1046C00000248460BCEEC00A10EE101A89B2C160EA
:1046D0000461802181610DF02CFE38B17F4B3522C1
:1046E0007FA187A02DF0FCFAFBF78EFE78480DF035
:1046F0006AFE4FF48073894A00217648009417F0CF
:1047000008F938BD10B5864C2078002806D0012263
:104710005103844815F0D0F80020207010BD10B56A
:104720002DED0A8B642800DD64209FED7FAB9FEDAB
:1047300080BB002800DA002030F097FD9FED7E1B43
:1047400053EC112B30F0A0FB41EC190B53EC1A2B5E
:1047500051EC190B30F0F0FC22D053EC192B51EC3A
:10476000190B30F0E9FD41EC180B9FED75CB51ECC6
:10477000190B53EC1C2B30F0CBFA53EC182B30F008
:104780001BFF41EC180B53EC1C2B51EC190B30F0B8
:10479000D3FD53EC182B30F077FB41EC180B03E002
:1047A000B0EE4A8AF0EE6A8A9FED670B51EC180B67
:1047B00053EC102B30F0C0FD41EC180B53EC1A2BCE
:1047C00051EC180B30F07CFD03D2B0EE4A8AF0EECB
:1047D0006A8A53EC1B2B51EC180B30F0ABFE03D262
:1047E000B0EE4B8AF0EE6B8A51EC180B30F05EFAAB
:1047F000BDEC0A8B00EE100A10BD2DE9F0412DED45
:10480000028B474991F90110814236D0FFF787FFAB
:1048100010EE100A30F0BAFF41EC100B00249FEDAF
:104820004C1B51EC100B53EC112B30F085FD0F4657
:1048300006469FED498B394D47EC106B53EC182B16
:1048400051EC100B30F064FA30F0B2FC25F8140093
:10485000641C24B27F2CEFDB7F2447EC106B53ECFD
:10486000182B51EC100B30F09BFE30F0A1FC25F81A
:104870001400641C24B2FF2CEFDDBDEC028BBDE8FC
:10488000F08110B545F2A060FCF711FE3448B0F994
:104890004400FFF7B2FFFFF735FF40F24C40FFF74F
:1048A000EDFE0E4BBDE81040103B0B220CA12DA0DD
:1048B0002DF016BA10B51A4C2078012807D0002226
:1048C0004FF40051174814F0F7FF0120207010BD7D
:1048D000A8C20120F400002000140040EB6004088E
:1048E0002E2E5C2E2E5C73506C63506F72745C7352
:1048F000506C63537065616B65722E63000000003D
:1049000025732C25642C25733A74696D3720696EE4
:104910006974206661696C210A00000048C40120A6
:1049200028C0012000040240000000000000000038
:10493000000000000000F03F0000000000005940AF
:104940009A9999999999C93F000000606666E63F77
:104950000000000000FC9F40000000000000A0409C
:104960004002002025732C25642C25733A73706552
:10497000616B657220646D6120696E69742E2E2EE4
:104980002E2E2E0A0000000010B566480DF060FDC6
:1049900065490020087065490870654908706549D7
:1049A000087065490870654908806549088065494F
:1049B000088065490880654908806549088065491F
:1049C0000860BDE81040644B132264A16AA02DF07A
:1049D00087B954480DF073BD52480DF039BD2DE92B
:1049E000F05F4FF48B686C4F4FF4936444F26806A9
:1049F00047F6FF79002508EB060080B2FCF77FFD43
:104A000038B137F91800484505DA401C27F8180076
:104A100001E027F8185008F101081FFA88F8A045AE
:104A2000E9D3DFF818A14FF49B6B4FF00108BAF8F7
:104A300000000A2817D9A01980B2FCF760FD38B130
:104A400037F91400484505DA401C27F8140001E046
:104A500027F81450641CA4B25C45ECD3324880F8AB
:104A60000080AAF80050364C208864281BD90BEB34
:104A7000060080B2FCF743FD38B137F91B0048450A
:104A800005DA401C27F81B0001E027F81B500BF14A
:104A9000010B1FFA8BFB40F217508345E7D32348E5
:104AA00080F80080258027480188C82903D920493B
:104AB00081F80080058024490A88B2F5FA7F03D97D
:104AC0001C4A82F800800D80204A1388B3F57A7F53
:104AD00003D9194B83F8008015801D4B4EF66027D3
:104AE0001E88BE4203D92D4E86F800801D80BAF87C
:104AF00000506D1CAAF8005025886D1C2580048884
:104B0000641C04800888401C08801088401C1080A9
:104B10001888401C18800F490868401C0860BDE8D0
:104B2000F09F000080C30120140000201500002029
:104B30001600002017000020180000200CC00120E3
:104B40000EC001201000002010C001201200002023
:104B500012C001202CC00120FB6004082E2E5C2E08
:104B60002E5C73506C63506F72745C73506C635442
:104B7000696D65722E63000025732C25642C2573E6
:104B80003A73706C632074696D657220696E697424
:104B90002E2E2E2E2E2E0A0040020020190000205C
:104BA00010B58E490020087070218D482DF0D8FB7B
:104BB0008B48702170302DF0D3FB3822884989480A
:104BC00016F034F8BDE81040874B0D2287A18EA067
:104BD0002DF086B800689449884202D17F490120AF
:104BE00048707047F0B52DED028B87B07B4E707822
:104BF0000028FCD00027777030788C4DB4EE008A06
:104C00006C46002876D0774816F0CCF838227449E4
:104C1000744816F00BF837701C2168462DF0C2FB63
:104C200000206F4A70320021C1EBC106064454F8DF
:104C3000203032F81660334444F82030491CC9B2A1
:104C40000829F1D3401CC0B20728ECD39DED000A1F
:104C500005F67825B8EE400A20EE080ABCEEC00A38
:104C600010EE100AE8809DED010AB8EE400A20EE31
:104C7000080ABCEEC00A10EE100AA8809DED020AD8
:104C8000B8EE400A20EE080ABCEEC00A10EE100A88
:104C900068809DED030AB8EE400A20EE080ABCEEDB
:104CA000C00A10EE100A28809DED040AB8EE400AF2
:104CB00020EE080ABCEEC00A10EE100A28819DED15
:104CC000050AB8EE400A20EE080ABCEEC00A10EE53
:104CD000100A68819DED060AB8EE400A20EE080A27
:104CE000BCEEC00A10EE100AA88107B0BDEC028B22
:104CF000F0BDFFE73B4816F055F8394938227031CE
:104D0000384815F093FF012030701C2168462DF0C3
:104D100049FB0020324A0021C1EBC106064454F889
:104D2000203032F81660334444F82030491CC9B2B0
:104D30000829F1D3401CC0B20728ECD39DED000A2E
:104D400005F67825B8EE400A20EE080ABCEEC00A47
:104D500010EE100AE8809DED010AB8EE400A20EE40
:104D6000080ABCEEC00A10EE100AA8809DED020AE7
:104D7000B8EE400A20EE080ABCEEC00A10EE100A97
:104D800068809DED030AB8EE400A20EE080ABCEEEA
:104D9000C00A10EE100A28809DED040AB8EE400A01
:104DA00020EE080ABCEEC00A10EE100A28819DED24
:104DB000050AB8EE400A20EE080ABCEEC00A10EE62
:104DC000100A68819DED060AB8EE400A20EE080A36
:104DD000BCEEC00A10EE100AA88186E72A00002067
:104DE000203900200CC10120096104082E2E5C2E00
:104DF0002E5C73506C63506F72745C73506C6341C3
:104E000064632E630000000025732C25642C257339
:104E10003A73746172742061646320696E69742EE0
:104E20002E2E2E2E2E0A00000020014040020020CF
:104E300070B50446D94D00221021284614F03CFDDF
:104E4000C4F30B0040F4805040F4005600BF00BF94
:104E500000BF00BF00BF00BF00BF00BF00BF00BF5A
:104E60000024C4F10F0026FA00F101F00102042130
:104E7000284614F021FD00BF00BF00BF00BF00BFE7
:104E800000BF00BF00BF00BF00BF012208212846AD
:104E900014F012FD00BF00BF00BF00BF00BF00BF85
:104EA00000BF00BF00BF00BF00220821284614F049
:104EB00003FD00BF00BF00BF00BF00BF00BF00BFB9
:104EC00000BF00BF00BF641CE4B2102CC9D300BFF8
:104ED00000BF00BF00BF00BF00BF00BF00BF00BFDA
:104EE00000BF01222846BDE87040102114F0E4BC48
:104EF0002DE9F0410446A94D00220121284614F075
:104F0000DBFCC4F30B0040F4805040F4005800BFB9
:104F100000BF00BF00BF00BF00BF00BF00BF00BF99
:104F200000BF00244FF480477E00C4F10F0028FA30
:104F300000F202F001023946284614F0BDFC00BF21
:104F400000BF00BF00BF00BF00BF00BF00BF00BF69
:104F500000BF01223146284614F0AEFC00BF00BF5E
:104F600000BF00BF00BF00BF00BF00BF00BF00BF49
:104F700000223146284614F09FFC00BF00BF00BF4E
:104F800000BF00BF00BF00BF00BF00BF00BF641C68
:104F9000E4B2102CC9D300BF00BF00BF00BF00BFE8
:104FA00000BF00BF00BF00BF00BF01222846BDE810
:104FB000F041114614F080BC70B50446784D0022D3
:104FC0008021284614F078FCC4F30B0040F4805094
:104FD00040F4005600BF00BF00BF00BF00BF00BFCD
:104FE00000BF00BF00BF00BF0024C4F10F0026FABD
:104FF00000F101F001022021284614F05DFC00BF01
:1050000000BF00BF00BF00BF00BF00BF00BF00BFA8
:1050100000BF01224021284614F04EFC00BF00BF13
:1050200000BF00BF00BF00BF00BF00BF00BF00BF88
:1050300000224021284614F03FFC00BF00BF00BF03
:1050400000BF00BF00BF00BF00BF00BF00BF641CA7
:10505000E4B2102CC9D300BF00BF00BF00BF00BF27
:1050600000BF00BF00BF00BF00BF01222846BDE84F
:105070007040802114F020BC70B5484C01221021F2
:10508000204614F019FC01221146204614F014FCAD
:10509000434D01228021284614F00EFC01220821F4
:1050A000284614F009FC00220821204614F004FCD4
:1050B00000224FF40041204614F0FEFB0022402164
:1050C000284614F0F9FB00220421364814F0F4FBC2
:1050D00000BF00BF00BF00BF00BF00BF00BF00BFD8
:1050E00000BF00BF00BF00BF00BF00BF00BF00BFC8
:1050F00000BF00BF00BF00BF0020FFF799FE0020E7
:10510000FFF7F6FE0020FFF757FF274B492227A1A4
:105110002DA02CF0E5FDBDE87040234B4A2223A1D1
:1051200031A02CF0DDBD38B53648B0F88C0AC0F39C
:105130000B042046FFF77CFE1B4B51220E3B1BA1AC
:1051400031A000942CF0CCFD38BD38B52D48B0F816
:105150008E0AC0F30B042046FFF7CAFE2046FFF775
:105160002BFF114B5822DB1F10A12EA000942CF016
:10517000B7FD38BD10B50020FFF75AFE0020FFF73D
:10518000B7FE0020FFF718FF074BBDE81040143BA7
:105190005F2206A12AA02CF0A3BD00000008024057
:1051A00000040240000C0240296104082E2E5C2EEF
:1051B0002E5C73506C63506F72745C73506C6344FC
:1051C00061632E630000000025732C25642C257379
:1051D0003A696E69742064616320767265663D3257
:1051E0003034386D560A000025732C25642C257345
:1051F0003A696E69742064616320646F6E65210A88
:10520000000000004002002025732C25642C25732B
:105210003A75706461746520646163303D25640A89
:105220000000000025732C25642C25733A757064EA
:1052300061746520646163313D25640A00000000EB
:1052400025732C25642C25733A636C65617220618B
:105250006C6C20646163210A000000002D4900206D
:10526000488008802C4948600880704710B5294B59
:105270001A88511CC1F30B015C888C4202D01C1DA2
:105280001055198010BD234A51881388994206D0C1
:10529000131DCB5C0370491CC1F30B005080704799
:1052A0001C4801884088081A00F58050C11700EB9F
:1052B00011516FF30B01401A80B270472DE9F8438A
:1052C00005460E4600270097134C6FF440381CE04B
:1052D0006846FFF7D8FF22881AB99DF80000EE282B
:1052E00013D1B24204D29DF80010501C2080A95462
:1052F0009DF80000616840EA01226260424504D1E5
:10530000208867602780BDE8F883FFF7C9FF002881
:10531000DED1F8E7003A00202C0000204FF47A722A
:1053200004E01146491E0029FCDC401E0028F8DC80
:10533000704710B5044602E002F078FA641C207849
:105340000028F9D110BD70B505460E46002404E0D2
:10535000285D02F06BFA641CA4B2B442F8D370BDAD
:1053600070B505460E4600240AE035F81400000A20
:1053700002F05CFA15F8140002F058FA641CA4B2AA
:10538000B442F2D370BD10B5EE2002F04FFA042003
:1053900002F04CFAFF2002F049FAFC2002F046FA33
:1053A000FF2002F043FABDE81040FF2002F03EBAB1
:1053B00010B50446EE2002F039FA412002F036FA28
:1053C000200A02F033FAE0B202F030FAFF2002F0D5
:1053D0002DFAFC2002F02AFAFF2002F027FABDE89D
:1053E0001040FF2002F022BA10B50446EE2002F071
:1053F0001DFA422002F01AFA200A02F017FAE0B26F
:1054000002F014FAFF2002F011FAFC2002F00EFA6A
:10541000FF2002F00BFABDE81040FF2002F006BAB0
:1054200070B506460C461546EE2002F0FFF9A320A3
:1054300002F0FCF9304602F0F9F9200A02F0F6F920
:10544000E0B202F0F3F9280A02F0F0F9E8B202F053
:10545000EDF9FF2002F0EAF9FC2002F0E7F9FF2065
:1054600002F0E4F9BDE87040FF2002F0DFB910B5AA
:10547000EE2002F0DBF9012002F0D8F9FF2002F063
:10548000D5F9FC2002F0D2F9FF2002F0CFF9BDE8F7
:105490001040FF2002F0CAB970B505460C46EE2058
:1054A00002F0C4F9432002F0C1F9284602F0BEF927
:1054B000204602F0BBF9FF2002F0B8F9FC2002F010
:1054C000B5F9FF2002F0B2F9BDE87040FF2002F00C
:1054D000ADB970B506460C461546EE2002F0A6F9A9
:1054E000452002F0A3F9304602F0A0F9200A02F0AC
:1054F0009DF9E0B202F09AF9280A02F097F9E8B2B1
:1055000002F094F9FF2002F091F9FC2002F08EF9EC
:10551000FF2002F08BF9BDE87040FF2002F086B951
:1055200070B504460D46EE2002F080F9442002F0EA
:105530007DF9200A02F07AF9E0B202F077F9280A40
:1055400002F074F9E8B202F071F9FF2002F06EF98E
:10555000FC2002F06BF9FF2002F068F9BDE8704012
:10556000FF2002F063B92DE9F0410446DDF8188010
:105570000D4616461F46EE2002F058F9202002F094
:1055800055F9200A02F052F9E0B202F04FF9280A68
:1055900002F04CF9E8B202F049F9304602F046F95F
:1055A000384602F043F94046FFF7C3FEFF2002F001
:1055B0003DF9FC2002F03AF9FF2002F037F9BDE88E
:1055C000F041FF2002F032B92DE9F0418046069FFC
:1055D0000C4615461E46EE2002F028F9212002F066
:1055E00025F9404602F022F9200A02F01FF9E0B244
:1055F00002F01CF9280A02F019F9E8B202F016F9D3
:10560000304602F013F9384602F010F9FF2002F09C
:105610000DF9FC2002F00AF9FF2002F007F9BDE8BD
:10562000F041FF2002F002B970B504460D46EE20AD
:1056300002F0FCF8312002F0F9F8200A02F0F6F846
:10564000E0B202F0F3F8284602F0F0F8FF2002F092
:10565000EDF8FC2002F0EAF8FF2002F0E7F8BDE8E0
:105660007040FF2002F0E2B82DE9F04104460D46FB
:1056700016461F46EE2002F0D9F8322002F0D6F886
:10568000200A02F0D3F8E0B202F0D0F8280A02F0C3
:10569000CDF8E8B202F0CAF8300A02F0C7F8F0B26A
:1056A00002F0C4F8384602F0C1F8FF2002F0BEF85C
:1056B000FC2002F0BBF8FF2002F0B8F8BDE8F04192
:1056C000FF2002F0B3B82DE9F05F0446DDE90CAB32
:1056D000DDE90A890D4616461F46EE2002F0A6F8BF
:1056E000332002F0A3F8200A02F0A0F8E0B202F0A2
:1056F0009DF8280A02F09AF8E8B202F097F8300A0A
:1057000002F094F8F0B202F091F8380A02F08EF844
:10571000F8B202F08BF84FEA182002F087F808F090
:10572000FF0002F083F84FEA192002F07FF809F039
:10573000FF0002F07BF84FEA1A2002F077F80AF037
:10574000FF0002F073F8584602F070F8FF2002F0F4
:105750006DF8FC2002F06AF8FF2002F067F8BDE85F
:10576000F05FFF2002F062B82DE9F0410446DDF859
:1057700018800D4616461F46EE2002F057F880208E
:1057800002F054F8200A02F051F8E0B202F04EF8AC
:10579000280A02F04BF8E8B202F048F8300A02F0AA
:1057A00045F8F0B202F042F8384602F03FF84046C1
:1057B00002F03CF8FF2002F039F8FC2002F036F845
:1057C000FF2002F033F8BDE8F041FF2002F02EB8D0
:1057D00070B504460D46EE2002F028F8502002F085
:1057E00025F8200A02F022F8E0B202F01FF8280A99
:1057F00002F01CF8E8B202F019F8FF2002F016F8E7
:10580000FC2002F013F8FF2002F010F8BDE8704011
:10581000FF2002F00BB82DE9F04104460D46164674
:105820001F46EE2002F002F8512001F0FFFF200A8F
:1058300001F0FCFFE0B201F0F9FF280A01F0F6FFE9
:10584000E8B201F0F3FF300A01F0F0FFF0B201F02E
:10585000EDFF380A01F0EAFFF8B201F0E7FFFF20A0
:1058600001F0E4FFFC2001F0E1FFFF2001F0DEFF8A
:10587000BDE8F041FF2001F0D9BF70B506460D46E6
:105880001446EE2001F0D2FF632001F0CFFF304636
:1058900001F0CCFF4FF6FF7101EA44012846FFF703
:1058A0005FFDFF2001F0C2FFFC2001F0BFFFFF20E1
:1058B00001F0BCFFBDE87040FF2001F0B7BF2DE94B
:1058C000F04104460D4616461F46EE2001F0AEFF9D
:1058D000592001F0ABFF200A01F0A8FFE0B201F06F
:1058E000A5FF280A01F0A2FFE8B201F09FFF3946A8
:1058F0003046FFF735FDFF2001F098FFFC2001F056
:1059000095FFFF2001F092FFBDE8F041FF2001F07C
:105910008DBF2DE9F04104460D4616461F46EE2088
:1059200001F084FF752001F081FF200A01F07EFF65
:10593000E0B201F07BFF280A01F078FFE8B201F045
:1059400075FF39463046FFF70BFDFF2001F06EFF73
:10595000FC2001F06BFFFF2001F068FFBDE8F04183
:10596000FF2001F063BF2DE9F04104460D461646C5
:105970001F46EE2001F05AFF762001F057FF200A63
:1059800001F054FFE0B201F051FF280A01F04EFF90
:10599000E8B201F04BFF39463046FFF7E1FCFF204B
:1059A00001F044FFFC2001F041FFFF2001F03EFF29
:1059B000BDE8F041FF2001F039BF2DE9F041074675
:1059C0000C4615461E46EE2001F030FF772001F010
:1059D0002DFF384601F02AFF204601F027FF284618
:1059E00001F024FF304601F021FFFF2001F01EFFEF
:1059F000FC2001F01BFFFF2001F018FFBDE8F04183
:105A0000FF2001F013BF70B505460C46EE2001F0F3
:105A10000DFF682001F00AFF4FF6FF7101EA440113
:105A20002846FFF79DFCFF2001F000FFFC2001F05D
:105A3000FDFEFF2001F0FAFEBDE87040FF2001F0FE
:105A4000F5BE70B505460C46EE2001F0EFFE69206C
:105A500001F0ECFE4FF6FF7101EA44012846FFF722
:105A60007FFCFF2001F0E2FEFC2001F0DFFEFF20C2
:105A700001F0DCFEBDE87040FF2001F0D7BE70B53C
:105A800004460D461646EE2001F0D0FE522001F0ED
:105A9000CDFE200A01F0CAFEE0B201F0C7FE280ADE
:105AA00001F0C4FEE8B201F0C1FE300A01F0BEFE12
:105AB000F0B201F0BBFEFF2001F0B8FEFC2001F0C7
:105AC000B5FEFF2001F0B2FEBDE87040FF2001F0FE
:105AD000ADBE70B504460D461646EE2001F0A6FE9A
