:020000040801F1
:1000000098940120C9030108091201080F12010880
:100010001112010813120108151201080000000056
:10002000000000000000000000000000D5020108F0
:10003000171201080000000031030108E55A030807
:10004000E3030108E3030108E3030108E3030108F4
:10005000E303010819120108E3030108E30301089F
:10006000E3030108E3030108E3030108E3030108D4
:10007000E3030108E3030108E3030108E3030108C4
:100080001B120108E303010821120108E303010820
:10009000E3030108E3030108E3030108E3030108A4
:1000A000E303010827120108E3030108E303010841
:1000B000E3030108E3030108E3030108E303010884
:1000C000E3030108E3030108E3030108E303010874
:1000D000E3030108E3030108E3030108E303010864
:1000E000E3030108E3030108E3030108E303010854
:1000F000E30301082D120108E3030108E3030108EB
:10010000E3030108E3030108E3030108E303010833
:1001100033120108E303010839120108E30301085F
:1001200053120108E3030108E3030108E303010894
:10013000E30301080000000000000000E3030108E1
:10014000E3030108E3030108E3030108591201086E
:10015000E3030108E3030108E3030108E3030108E3
:10016000E3030108E3030108E3030108E3030108D3
:10017000E3030108E30301080000000000000000A1
:10018000E3030108E303010800F002F800F092F82D
:100190000AA090E8000C82448344AAF10107DA45E2
:1001A00001D100F087F8AFF2090EBAE80F0013F0A2
:1001B000010F18BFFB1A43F001031847BC9E030050
:1001C000FC9E03000A444FF0000C10F8013B13F0B2
:1001D000070408BF10F8014B1D1108BF10F8015BA0
:1001E000641E05D010F8016B641E01F8016BF9D193
:1001F00013F0080F1EBF10F8014BAD1C0C1B09D1EA
:100200006D1E58BF01F801CBFAD505E014F8016B5B
:1002100001F8016B6D1EF9D59142D6D370470000ED
:10022000103A24BF78C878C1FAD8520724BF30C822
:1002300030C144BF04680C607047000000230024F4
:1002400000250026103A28BF78C1FBD8520728BFE6
:1002500030C148BF0B607047662938F04D82642971
:1002600034F0E684752934F0E384782934F01C8571
:10027000632935F01283732935F017830020704706
:100280001FB538F02CFA9DE8030035F035F834F04E
:10029000D4FE35F0E5FD04000020002137F01CFC01
:1002A000401C60600020002137F000FCE0601FBDB2
:1002B00010B510BD36F0BBF81146FFF7E1FF00F0B6
:1002C000EEF836F00BFB03B4FFF7F2FF03BC02F0CD
:1002D00075FC00002C4B19680868B0E8F04F80F3FB
:1002E0000988BFF36F8F4FF0000080F311887047CB
:1002F0000000000008480068006880F308884FF09C
:10030000000080F3148862B661B6BFF34F8FBFF36D
:100310006F8F00DF00BF00BF08ED00E0DFF80C00CA
:10032000016841F470010160704700BF88ED00E092
:10033000EFF30980BFF36F8F134B1A681EF0100F95
:1003400008BF20ED108A20E9F04F106009B44FF08B
:10035000500080F31188BFF34F8FBFF36F8F24F0ED
:1003600097F94FF0000080F3118809BC19680868FC
:10037000B0E8F04F1EF0100F08BFB0EC108A80F309
:100380000988BFF36F8F704750C00120EFF30580DD
:10039000704700000B49D1F800C04A685CF8043B84
:1003A0001068184442F8040B8C4528BFA1F1DC0CFE
:1003B0008A4228BFA1F1DC02C1F800C04A6020F0E7
:1003C000004070472CD40120094880470948004765
:1003D000FEE7FEE7FEE7FEE7FEE7FEE7FEE7FEE7F5
:1003E000FEE7FEE704480549054A064B7047000052
:1003F000851301088901010898540120989401206F
:10040000987401209874012072B6FEE730B593B05D
:100410000024089409940A940B9401940294039480
:10042000049405944248016841F0805101600068DD
:1004300000F0805000903F48016841F48041016025
:10044000006800F4804000900120069000040790AE
:1004500002250C9580010D9019200E904FF4A87084
:100460000F9010950720119006A819F059FC08B1BB
:10047000FFF7CAFF0F200190029503944FF4A0509C
:1004800004904FF480500590052101A819F0B8FEA2
:1004900008B1FFF7B9FF19F0ABFF13B030BD1BF087
:1004A0000FFBFFF7B3FF00F047F800F0CFFA00F0C2
:1004B00027F900F039FA00F0EFFA00F0DFFB00F066
:1004C000E3FD00F0F9FD00F0FDF900F053FB00F052
:1004D0007DFC00F09CFC00F0F1FC00F0AFFC00F0B3
:1004E00019FC26F085FF25F00AFB00F0F1F825F055
:1004F0003EFBFEE710B504462068A0F18041B1F54F
:10050000805101D11BF00FFB2068A0F18041B1F5B3
:10051000005101D104F0F9FC2068A0F18041B1F54F
:10052000A23103D1BDE8104003F070BB10BD000044
:1005300040380240007000402DE9F04786B00024AA
:10054000019402940394049405945948016841F07D
:1005500004010160016801F004010091016841F0AB
:1005600080010160016801F080010091016841F0A3
:1005700001010160016801F001010091016841F091
:1005800002010160016801F002010091016841F07F
:1005900008010160006800F008000090454F00224B
:1005A0004FF61F4138461AF0F4FCDFF80C810022A8
:1005B00042F6FC0140461AF0ECFC012211034046D1
:1005C0001AF0E7FCDFF8F4900022B91548461AF05B
:1005D000E0FCDFF8ECA00022042150461AF0D9FC20
:1005E0004FF60E40019001250295022603960494D1
:1005F00001A938461AF018FB019502950395049459
:1006000001A938461AF010FB1020019002950394BE
:10061000049401A938461AF007FB4FF408700190C2
:100620000294039501A938461AF0FEFA44F20140FB
:1006300001900294039501A940461AF0F5FA01963B
:100640000294039401A940461AF0EEFA41F28400A4
:10065000019002950395049401A940461AF0E4FA2A
:10066000E802019002950394049401A940461AF00F
:10067000DBFA42F27800019002950396049401A9F6
:1006800040461AF0D1FA280201900295039604948C
:1006900001A948461AF0C8FA042001900295039572
:1006A000049401A950461AF0BFFA06B0BDE8F087DD
:1006B00030380240000802400004024000000240BE
:1006C000000C024026F0B6FE012025F022FDFBE7DB
:1006D00010B5074A0021AFF2130025F0F9FA054CD6
:1006E0002060054A0021054825F0F2FA606010BD3F
:1006F000F8870408000000201C8804086D0F020819
:10070000F0B585B0002000900190029003906649FA
:10071000644A0A604FF480324A60886001240C61A8
:100720000C7681F82000C862604A8A62C86007259A
:10073000CD6181F83040486108461BF023FB08B1C9
:10074000FFF762FE0327009701940624029469468E
:1007500055481BF064FF08B1FFF756FE05260096CA
:1007600002200190694650481BF059FF08B1FFF77D
:100770004BFE0094019769464B481BF050FF08B1AF
:10078000FFF742FE009504200190694646481BF0A1
:1007900046FF08B1FFF738FE102000900196694629
:1007A00041481BF03CFF08B1FFF72EFE11200090DE
:1007B000019469463C481BF032FF08B1FFF724FE64
:1007C000122000900195694637481BF028FF002849
:1007D00001D0FFF719FE05B0F0BD70B586B0064632
:1007E0000024019402940394049405943168A1F1C7
:1007F0008040B0F5903038D12D48016841F48071C7
:100800000160006800F4807000902A48016841F09F
:1008100001010160006800F001000090E8200190F3
:100820000320029001A924481AF0FEF9244D234820
:1008300028606C60AC60EC60001528614000686165
:100840008000A861EC612C626C6228461AF031FCD1
:1008500008B1FFF7D9FDB563AE6300220521122070
:100860001AF0B3FF12201AF0E1FF06B070BD10B508
:1008700004462068A0F18041B1F5903110D10C48B8
:10088000016821F480710160E8210B481AF0D9FA5F
:10089000A06B1AF081FCBDE8104012201AF0D4BF02
:1008A00010BD0000002001400CC101200100000F1C
:1008B00044380240303802400000024010640240D8
:1008C00054C1012010B516491448086008461CF0B0
:1008D000B2FB002803D0BDE81040FFF795BD10BD66
:1008E00081B00068A0F18041B1F50C3108D10D480C
:1008F000016841F480510160006800F4805000906C
:1009000001B070470068A0F18041B1F50C3104D10D
:100910000448016821F480510160704700300240B2
:10092000080000203038024010B582B00024009446
:10093000019440493E48086008461CF0E0FB08B1BD
:10094000FFF762FD142000900194002269463948A7
:100950001CF065FD002801D0FFF756FD02B010BD68
:1009600070B586B006460024019402940394049462
:1009700005943168A1F18040B0F5E8403CD12E48A3
:10098000016841F000510160006800F000500090E3
:100990002A48016841F001010160006800F001008F
:1009A0000090102001900320029001A924481AF021
:1009B0003BF9254D234828604FF060606860402077
:1009C000A860EC6000012861400068618000A861B7
:1009D0004011E8612C626C6228461AF06AFB08B18B
:1009E000FFF712FDB560AE6300220F2136201AF02A
:1009F000ECFE36201AF01AFF06B070BD10B50446A2
:100A00002068A0F18041B1F5E84110D10A480168A1
:100A100021F000510160102109481AF012FAA06873
:100A20001AF0BAFBBDE8104036201AF00DBF10BD19
:100A300000740040F400002040380240303802408A
:100A400000000240886002400801002008B51148FB
:100A5000016841F400110160016801F40011009186
:100A6000016841F480010160006800F4800000909A
:100A70000022052110201AF0A8FE10201AF0D6FE40
:100A80000022052138201AF0A0FEBDE808403820D9
:100A90001AF0CCBE3038024010B531482F49016001
:100AA0003049416000218160C1604FF480420261A1
:100AB00041618161C16101621CF0BDFD002803D06C
:100AC000BDE81040FFF7A0BC10BD00B587B0002105
:100AD000029103910491059106910068A0F1804173
:100AE000B1F5A8411FD12048016841F00201016021
:100AF000006800F0020001904FF440700290122054
:100B000003900120049005900420069002A9174844
:100B10001AF08AF81648016841F400110160006873
:100B200000F40010019007B000BD10B50068A0F1FE
:100B30008041B1F5A8410FD10D48016821F40011A1
:100B400001600A4C811520461AF07BF96115204698
:100B5000BDE810401AF075B910BD00000054004007
:100B6000B4C10120A08601003038024000040240D8
:100B70004038024010B5164914480860084620F075
:100B80004AFD002803D0BDE81040FFF73DBC10BD72
:100B900081B00068A0F1A041B1F5C12108D10D4894
:100BA000016841F040010160006800F040000090E1
:100BB00001B070470068A0F1A041B1F5C12104D196
:100BC0000448016821F040010160704700080650A8
:100BD00008C201203438024000B587B000210291DC
:100BE00003910491059106910068FE4902224FF499
:100BF0000043B0F1804F2ED0A0F1804CBCF5806C4A
:100C000016D0A0F1804CBCF5C05C0FD1086840F054
:100C100002000860086800F002000190029303924D
:100C20000920069002A9F04819F0FEFF07B000BDA8
:100C3000086840F004000860086800F004000190B3
:100C40004FF4E07002900392069202A9E74819F06F
:100C5000EBFF07B000BD086840F0010008600868BD
:100C600000F001000190029303920492012006908B
:100C700002A9DF4819F0D8FF07B000BD30B58FB02A
:100C800000240A940B940C940D94089409940194F4
:100C9000029403940494059406940794D5484FF065
:100CA0008041016060254560846041F28831C16007
:100CB00004618021816112F03DFA08B1FFF7A4FBC5
:100CC0004FF480500A900AA9CA4815F0ECFA08B10E
:100CD000FFF79AFBC74812F0C7FF08B1FFF794FB74
:100CE0000894099408A9C34816F0E5FD08B1FFF778
:100CF0008BFB0195029403940594002201A9BD4841
:100D000014F099FE08B1FFF77FFBBA48FFF764FFC4
:100D10000FB030BD10B58EB000240A940B940C9423
:100D20000D940894099401940294039404940594F6
:100D300006940794B148B04901604FF49651416060
:100D400084606421C16004618021816112F0F2F944
:100D500008B1FFF759FB4FF480500A900AA9A74841
:100D600015F0A1FA08B1FFF74FFBA44812F07CFF81
:100D700008B1FFF749FB0894099408A99F4816F0A9
:100D80009AFD08B1FFF740FB6020019002940394A4
:100D90000594002201A9994814F04DFE08B1FFF70F
:100DA00033FB042201A9954814F045FE08B1FFF772
:100DB0002BFB082201A9914814F03DFE08B1FFF772
:100DC00023FB8E48FFF708FF0EB010BD10B582B0B0
:100DD0000024009401948B48894901600A214160F4
:100DE00084601E21C1608021816112F0A3F908B1E5
:100DF000FFF70AFB2020009001946946814816F015
:100E00005AFD002801D0FFF7FFFA02B010BD10B55F
:100E10007E487D490160A8214160002181604FF436
:100E20007A72C26001618021816112F083F9002829
:100E300003D0BDE81040FFF7E7BA10BD10B58CB085
:100E40000024089409940A940B9401940294039446
:100E500004940594069407946E486D49016023211B
:100E6000416084606421C16004618021816112F06D
:100E700061F908B1FFF7C8FA4FF48050089008A94B
:100E8000644815F010FA08B1FFF7BEFA614812F095
:100E9000EBFE08B1FFF7B8FA6020019002940394CA
:100EA0000594042201A95B4814F0C5FD08B1FFF7C1
:100EB000ABFA5848FFF790FE0CB010BD10B557487C
:100EC0005549016054214160002181604FF47A72DC
:100ED000C26001618021816112F02CF9002803D0E9
:100EE000BDE81040FFF790BA10BD08B500684C4946
:100EF000B0F1804F32D0A0F18042B2F5806224D0B0
:100F0000A0F18042B2F5A05231D0A0F18042B2F5FA
:100F1000A23235D0A0F18042B2F5C05243D0A0F148
:100F20008042B2F5005218D1086840F48070086021
:100F3000086800F48070009005212D201AF045FC0F
:100F4000BDE808402D201AF071BC086840F002008E
:100F50000860086800F00200009008BD086840F0D2
:100F600001000860086800F00100009008BD0868F2
:100F700040F020000860086800F02000009008BDE4
:100F80002848016841F400310160006800F4003035
:100F900000900022052119201AF017FCBDE8084036
:100FA00019201AF043BC086840F040000860086847
:100FB00000F04000009008BD00681949B0F1804F72
:100FC00048D0A0F18042B2F580623ED0A0F18042CC
:100FD000B2F5A05243D0A0F18042B2F5A23243D084
:100FE00022E00000303802400004024000080240C5
:100FF0000000024018C201200004004060C201202D
:1010000000140040A8C2012000440140F0C20120A9
:101010000018004038C301200020004080C3012098
:101020004038024044380240A0F18042B2F5C0523C
:1010300022D0A0F18042B2F500520AD1086820F413
:10104000807008602D201AF0FFBB086820F00200B5
:1010500008607047086820F0010008607047086861
:1010600020F02000086070470648016821F4003134
:10107000016019201AF0E8BB086820F04000086001
:10108000704700004438024010B558485649016086
:101090004FF4E131416000218160C16001610C22A7
:1010A00042618161C16120F01AFC002803D0BDE8D3
:1010B0001040FFF7A9B910BD10B54E484C4901606A
:1010C0004FF4E131416000218160C16001610C2277
:1010D00042618161C16120F002FC002803D0BDE8BB
:1010E0001040FFF791B910BD00B587B00021029103
:1010F000039104910591069101683F4A02233F48FC
:10110000A1F1804CBCF5984C22D0A1F1804CBCF5EB
:10111000883C1BD13A49D1F800C04CF0100CC1F802
:1011200000C0096801F010010191116841F001014E
:101130001160116801F0010101914FF4C061029149
:1011400003930721069102A919F06EFD07B000BDB7
:101150002C49D1F800C04CF4002CC1F800C009683B
:1011600001F400210191116841F001011160116841
:1011700001F00101019103210291039304930821DD
:10118000069102A919F050FD0022052134201AF021
:101190001CFB34201AF04AFB07B000BD10B50168F3
:1011A0001648A1F18042B2F598420FD0A1F18042D9
:1011B000B2F5883217D112490A6822F010020A608B
:1011C000BDE810404FF4C06119F03BBE0D490A68FC
:1011D00022F400220A60032119F033FEBDE810401A
:1011E00034201AF031BB10BD004C0040C8C30120B0
:1011F0000010014010C401203038024000000240BD
:10120000443802404038024019F094F9FEE7FEE706
:10121000FEE7FEE7FEE77047704711481AF06CB929
:1012200010481BF00EB8104814F05FB90F4814F0C6
:101230005CB90F4821F0ABBB10B50E48007900280F
:1012400002D00C481CF091F8BDE810400A4814F098
:101250004CB90A481AF050B9094817F08EB9000085
:10126000080100200CC10120F0C2012080C3012030
:10127000C8C30120F40000206801002054C10120EF
:10128000C440012008B51048016841F48041016064
:10129000006800F4804000900C48016841F08051E3
:1012A0000160006800F08050009000220F21901E25
:1012B0001AF08BFA0521002208461AF086FABDE8DA
:1012C000084005201AF0B2BA4438024040380240C3
:1012D00030B587B0054600242548016841F010016B
:1012E0000160006800F01000009001A902A819F048
:1012F00006F90598A8B119F086F840001D49B0FB21
:10130000F1F0411E1D481C4A026040F2E732C26003
:10131000416004618460846111F00CFF04461CB1DB
:1013200015E019F070F8E9E7144811F0B3FF04462E
:101330006CB936201AF07AFA102D07D2002229460D
:1013400036201AF042FA0E48056000E0012407B08A
:10135000204630BD09480068C16821F00101C16024
:10136000704706480068C16841F00101C1607047DC
:101370004038024040420F00001000406801002049
:1013800048C001202348016841F4700101602349ED
:1013900021480860704730B4214C206800F00C00F0
:1013A000204D2149002811D0DFF880C004280FD03B
:1013B000082810D00D602068C0F303121C48805C20
:1013C0000A6822FA00F0086030BC70470D60F2E74E
:1013D000C1F800C0EFE7174A1068C0F380531068E7
:1013E00000F03F0033B1BCFBF0F01368C3F3881387
:1013F000584305E0B5FBF0F01368C3F38813584376
:101400001268C2F30142521C5200B0FBF2F00860B5
:10141000D1E7000088ED00E00000010808ED00E0E1
:10142000083802400024F40000C0012040787D010B
:10143000408804080438024030B40022DFF8BCC001
:1014400000290FD92E4C10F8015BBCF8003085EA5A
:10145000132534F8155085EA0323ACF80030521CEC
:101460008A42F0D3BCF800004FF6FF7130BC484010
:101470007047224A224B118880EA112033F810006D
:1014800080EA012080B210804FF6FF71484070471B
:101490001A494FF6FF700880704718490880704756
:1014A00030B40022DFF854C000290ED9154C855CF9
:1014B000DCF804305D40EDB254F8255085EA132382
:1014C000CCF80430521C8A42F1D3DCF8040030BC62
:1014D000C0437047094A0B4B51684840C0B253F8AB
:1014E000200080EA11205060C043704703494FF04C
:1014F000FF304860704701494860704704C00120D0
:1015000058880408588A040880ED000AC0ED010AD2
:1015100080ED021A9FED540A80ED030A80ED040A63
:1015200080ED050AC0ED061A0021C1617047B0EEDA
:10153000C00AF0EEE00A10EE100A4C49884202DDC3
:101540009FED4B0A09E010EE100AB0F17E5F02DD5C
:101550009FED480A01E09FED480A10EE900AB0F1B5
:101560007F5F03DDDFED450A20EE200A704710B5EE
:1015700004462DED028B30EE608A94ED030A78EE7E
:10158000408AB0EE480AF0EE680AFFF7D0FFD4EDCB
:10159000000A60EE880A60EE800A94ED041AD4ED29
:1015A000011A01EE881A84ED041A11EE100A34496A
:1015B000DFED341A884201DDC4ED041A94ED042AEB
:1015C0009FED291AB5EEC02AF1EE10FA01D284ED92
:1015D000041A94ED022A22EE282A22EE000A94ED43
:1015E000042A72EE200A30EE800A84ED050A10EE1D
:1015F000100A884201DDC4ED051A94ED050AB5EE26
:10160000C00AF1EE10FA01D284ED051A84ED038AC6
:1016100094ED050ABDEC028B10BDC1699FED1A1A4D
:10162000D0ED060A00290AD071EE600AF4EEC00A75
:10163000F1EE10FA01DD0021C161C069704770EE62
:10164000810AF4EEC00AF1EE10FAF6D20121C1616E
:10165000F3E79FED050A80ED030A80ED040A80EDB3
:10166000050A0021C16170470000000000004040F1
:101670006666E63F9A99993F9A99193F6666A63F32
:101680000000C8420000C8420000484200000000BC
:10169000012080F31388BFF34F8FFD480168FD4A96
:1016A00001F4E06111430160BFF34F8F00BFFDE71C
:1016B0007047704710B50446204600F0BCFDF64860
:1016C000210904F00F0330F811204FF0010C0CFA3F
:1016D00003F31A4320F8112010BD10B5044620462C
:1016E00000F0A9FDEC48210904F00F0330F81120A7
:1016F0004FF0010C0CFA03F39A4320F8112010BDAF
:1017000010B50446204600F096FDE349200931F962
:10171000100004F00F01084100F0010018B120464C
:10172000BDE81040D9E72046BDE81040C2E710B53B
:101730000446204600F07FFDD749200931F910000A
:1017400004F00F01084100F0010008B1012010BDB4
:10175000002010BD10B50446204600F06CFDCE49B7
:10176000200931F9100004F00F01084100F00100D8
:1017700008B1002010BD012010BD10B50446204660
:1017800000F059FDC448210930F9112004F00F0080
:10179000024102F00102C14B33F9111041FA00F08D
:1017A00000F0010002B108B1002010BD012010BD01
:1017B00010B50446204600F03EFDB748210930F937
:1017C000112004F00F00024102F00102B34B33F983
:1017D000111041FA00F000F001000AB9012801D00F
:1017E000002010BD012010BD2DE9F041904600F011
:1017F0000F034FF0010C40F244420CFA03F5A64FE0
:1018000000F5936602EB1014002915D000F58A400C
:10181000FFF750FF37F91600404506DB37F8140094
:10182000284327F81400BDE8F08137F81400A843D6
:1018300027F81400BDE8F08100F58A40FFF74DFF5E
:1018400037F81400A84327F81400002027F81600E2
:10185000BDE8F0812DE9F041904644F240528318F2
:1018600000F00F0C01224FF4896402FA0CF58A4F44
:1018700000F59B6604EB1014002914D01846FFF7FE
:1018800019FF37F91600404506DB37F814002843E6
:1018900027F81400BDE8F08137F81400A84327F8B2
:1018A0001400BDE8F0811846FFF717FF37F8140061
:1018B000A84327F81400002027F81600BDE8F0819F
:1018C00010B50446204600F0BCFC734A002122F803
:1018D000141010BD70B50546284600F0B2FC6C1C13
:1018E000A0B200F0AEFC6C48002120F8151020F8E2
:1018F000141070BD70B505460C46284600F0A1FCDA
:10190000204600F09EFC644830F8141020F81510B2
:1019100070BD2DE9F04107460E46384600F091FCB7
:101920007C1CA0B200F08DFC304600F08AFC751CD7
:10193000A8B200F086FC584830F8161020F81710AE
:1019400030F8151020F81410BDE8F081524B33F92F
:1019500010C033F91220944501DB23F8102033F92D
:10196000102033F911108A4201DC23F8101070475F
:1019700070B505460E46284600F063FC304600F080
:1019800060FC454C0020A4F8F00A40F6FF70A4F873
:10199000F20A40F27952511E3046FFF7D7FF34F970
:1019A00016000A2840DBB4F9821A3D4ADFED3D0AF1
:1019B000002917DD1288DFED3C1A00EE102AB8EE80
:1019C000400A20EE201A00EE100AB8EEC00A21EEFE
:1019D000001A00EE101AB8EEC00A60EE211A81EE6D
:1019E000210A10E0118800EE101AB8EE400A20EE2D
:1019F000201A00EE100AB8EEC00A21EE000A9FED90
:101A00002B1A20EE010A2A4910EE100A884202D150
:101A10009FED280A0AE09FED281A70EEC00A20EE1A
:101A2000011A81EE200A01E09FED240A9FED241A9D
:101A3000C0EE010A10EE900A36F0E0FD41EC100B0A
:101A400035F01EFD9FED201B51EC100B53EC112BBC
:101A500036F0AAFB9FED1E1B53EC112B36F090F8CD
:101A600041EC100B53EC102B9FED1B0B51EC100BAA
:101A700036F042F99FED1A1B53EC112B36F0D4FCD3
:101A800036F04CF800EE100A174910EE100A2DE05F
:101A90000CED00E00400FA05B0010020200D00204C
:101AA0002A7AFF1F00404E45000080450000803923
:101AB00000404E45FE23744900E09245CDCCCC3D1C
:101AC00000401C4600000000000000E032D9323F18
:101AD000000000E0E1796B3F000000000000F03FF3
:101AE00066666666661271400000C842884201DB85
:101AF0009FEDF90AF94910EE100A884201D39FEDD3
:101B0000F80AF2EE040A20EE200ABDEEC00A10EE3A
:101B1000100A24F8150070BD70B505460E4628461B
:101B200000F08FFB304600F08CFBEE4C0020A4F858
:101B3000F00A40F6FF70A4F8F20A40F27952511E02
:101B40003046FFF703FF34F916000A2842DBB4F9E8
:101B5000821AE54A1FED2D0A002917DD12881FEDB4
:101B60002E1A00EE902AF8EE600A60EE800A00EE6F
:101B7000100AB8EEC00A60EE800A00EE101AB8EE45
:101B8000C00A20EE011A80EE810A10E0118800EEF2
:101B9000901AF8EE600A60EE800A00EE100AB8EEC5
:101BA000C00A20EE800A5FED3F0A20EE200A10EE08
:101BB000100AA0F18B41B1F5971108D09FEDCB1A17
:101BC000C1EE000A1FED440A30EEC00A04E01FED2A
:101BD000470A01E01FED470A1FED471AC0EE010A50
:101BE00010EE900A36F00AFD41EC100B35F048FC7F
:101BF0001FED4B1B51EC100B53EC112B36F0D4FAAC
:101C00001FED4D1B53EC112B35F0BAFF41EC100BBF
:101C100053EC102B1FED500B51EC100B36F06CF801
:101C20001FED511B53EC112B36F0FEFB35F076FF08
:101C300000EE100AAE4910EE100A884201DB9FED5B
:101C4000A60AA64910EE100A884201D39FEDA40A05
:101C5000F2EE040A20EE200ABDEEC00A10EE100AD1
:101C600024F8150070BD10B4DFF878C29E4BBCF9A3
:101C7000822A1FED740A6446002A34F9111017DD18
:101C80001B8800EE903AF8EE600A60EE800A00EEE3
:101C9000101AB8EEC00A60EE800A00EE102AB8EE04
:101CA000C00A1FED7F1A20EE011A80EE810A10E0B3
:101CB0001A8800EE902AF8EE600A60EE800A00EEC4
:101CC000101AB8EEC00A20EE800A5FED880A20EEF6
:101CD000200ADFED880AB0EE041A70EE600A80EE8A
:101CE000810AF3EE090A30EE200A814A10EE101A3A
:101CF000914201DB9FED780A7F4A10EE101A914263
:101D000001D3BBEE090AF2EE040A20EE200ABDEE72
:101D1000C00A10EE101A2CF8101010BC7047714950
:101D200031F81020521C21F8102070476D4A47F6F8
:101D3000FF7332F91010994202DA491C22F8101090
:101D40007047684931F81020521E21F81020704762
:101D5000644A32F9101011F5004F02DD491E22F8D5
:101D6000101070475F4901EB40000168491C016099
:101D700070475C4901EB40006FF0004201689142FE
:101D800001D0491C01607047564901EB40000168D1
:101D9000491E01607047534901EB40000168B1F1F1
:101DA000004F01DD491E016070474E4B33F81000B3
:101DB00033F81110084423F812007047494B33F9E7
:101DC000100033F91110084447F6FF71884200DB18
:101DD000084610F5004F00DC484823F81200704711
:101DE000404B53F8100053F81110084443F8120008
:101DF000704710B43B4B53F8100053F811100844CF
:101E0000C1176FF0004CB0EB0C0C71F1000C02DB51
:101E10006FF0004000218C464FF0FF31D0F10044BC
:101E200071EB0C0101DB4FF0004043F8120010BCD5
:101E3000704710B42B4B53F8100053F8111008449E
:101E4000C1176FF0004CB0EB0C0C71F1000C02DB11
:101E50006FF0004000218C464FF0FF31D0F100447C
:101E600071EB0C0101DB4FF0004043F8120010BC95
:101E700070471C4B33F8100033F81110401A23F848
:101E800012007047174B33F9100033F91110401A44
:101E900047F6FF71884200DB084610F5004F00DC72
:101EA000164823F8120070470E4A52F8100052F8F4
:101EB0001110401AC1176FF00042821A71F100022E
:101EC00002DB6FF0004000214FF0FF33D0F1004003
:101ED00073EB0100704700000000C8420000C8C258
:101EE0000000C8C2B00100202A7AFF1FF0A96C4B85
:101EF0000000C84200003E440000C8C10080FFFF4F
:101F0000AB4B33F8100033F8111010FB01F023F83D
:101F100012007047A64B33F8100033F8111010FB75
:101F200001F047F6FF71884200DB084610F5004FCC
:101F300000DCA04823F8120070479D4B00F1010C13
:101F400033F81CC04FEA0C4C33F9100040EA0C0087
:101F500001F1010C33F81CC04FEA0C4C33F911109D
:101F600041EA0C01484323F812000014511C23F8E5
:101F70001100704730B44FF0000C00238C4C34F942
:101F80001110002907DDC51834F91550AC445B1C4D
:101F90009BB29942F7DC44F812C030BC704770B471
:101FA00000239C46824C34F91150002D0ADDC118E3
:101FB00034F91160664501DD34F811C0591C8BB24B
:101FC0009D42F4DC24F812C070BC704770B400234A
:101FD0009C46774C34F91150002D0ADDC11834F9B4
:101FE0001160664501DD34F811C0591C8BB29D4269
:101FF000F4DC24F812C070BC704730B400239C4657
:102000006B4C34F91150002D09DDC11834F9111051
:10201000614500DD8C46591C8BB29D42F5DC24F8ED
:1020200012C030BC704730B400239C46604C34F979
:102030001150002D09DDC11834F91110614500DD82
:102040008C46591C8BB29D42F5DC24F812C030BC82
:102050007047574A32F91110002902DB22F810109C
:102060007047494222F810107047514A32F9111056
:10207000002902DB22F810107047494222F81010A4
:1020800070474B4B33F81110CAB2C1F3072111430B
:1020900023F81010704730B40023002A0BD9DFF862
:1020A00010C1CC18C5183CF814402CF815405B1C26
:1020B0009BB29342F5D330BC704710B500F0B9F82D
:1020C00000F01FF9BDE8104000F0B2B810B500F004
:1020D000B0F800F049F9BDE8104000F0A9B810B51B
:1020E00000F0A7F800F0B2F8BDE8104000F0A0B88A
:1020F00010B500F09EF800F0DAF9BDE8104000F0ED
:1021000097B810B5044600F094F81F2C00DD1F248A
:10211000002C00DA00242848802200EBC4114FF480
:10212000087000EBC41080B200F084FE234B40F234
:10213000ED1223A128A032F00BFDBDE8104000F005
:1021400077B810B500F075F800F094F9BDE81040CC
:1021500000F06EB870472DE9F04105460E4627A005
:1021600032F0F6FC2B4832F0F3FC2B4832F0F0FC56
:1021700025F00F042E44A64218D90D4D0F2714F058
:102180000F0F04D124F00F0124A032F0E1FC35F947
:10219000141024A032F0DCFC37EA040002D123A0A2
:1021A00032F0D6FC601C84B2A642E8D8BDE8F081CB
:1021B000B00100200080FFFF90180020588E040816
:1021C0002E2E5C2E2E5C73506C635C73506C6346D9
:1021D000756E2E630000000025732C25642C25737A
:1021E0003A73617665204F6E65204644204E565204
:1021F000414D20646F6E652E2E2E0A004E565241C0
:102200004D204D454D4F5259205441424C453A0ABC
:1022100000000000549B0408AC9B04082535643A78
:10222000000000002C253034580000000A00000097
:1022300070477047FEE745F67F31884200D9FEE7D8
:102240007047B0F5B76F00D3FEE7704730B585B083
:102250004FF43761F64832F0BBFF4022F4490020CA
:1022600000F08EFD04A941F6645000F001FD10223B
:10227000EF49F0481AF023FF0546ED4C4FF4806219
:1022800004F14001202000F07BFD03A941F66850D5
:1022900000F0EEFC4FF4807204F14001E5481AF0C2
:1022A0000EFF0446E2494FF4376201F5376032F021
:1022B00010FF04980090E04B4322E0A10195E4A0B8
:1022C00032F046FC03980090DB4B4422DBA10194E2
:1022D000ECA032F03DFC0498A8420AD00398A0423A
:1022E00007D0D54B4622D5A1F3A032F031FC05B082
:1022F00030BDD14B4922D1A1F8A032F029FC05B064
:1023000030BD10B584B04022C949002000F092FDD4
:102310001022C749C7481AF0D2FE039003A941F61C
:10232000645000F00AFDC24C4FF4806204F1400199
:10233000202000F07FFD4FF4807204F14001BD4881
:102340001AF0BDFE029002A941F6685000F0F5FCBB
:102350000299039801910090E84B5622B7A1E8A09A
:1023600032F0F6FB04B010BD2DE9F04383B0002538
:10237000AF4C04F53767002620783978884205D0BD
:102380002146304600F096FC45F0FF05641C7F1C9A
:10239000701C86B2402EEFD355B11022A449A54837
:1023A0001AF08DFE029002A941F6645000F0C5FCBF
:1023B0000026DFF87C9209F1400709F53B6800240C
:1023C000387898F80010884207D004F1200080B2D5
:1023D000394600F06FFC46F0FF067F1C08F101084B
:1023E000601C84B2B4F5806FEAD366B14FF480729A
:1023F00009F140018F481AF062FE019001A941F6EF
:10240000685000F09AFC8A494FF4376201F5376052
:1024100032F05FFE3DB102980090C84B7F2287A149
:10242000C7A032F095FB002E07D001980090C34B57
:10243000822282A1CFA032F08BFB03B0BDE8F083F3
:1024400010B5FFF7F6FE022000F087FD4FF437616C
:10245000774832F0BDFE4FF43761D34832F0B8FE12
:10246000FFF7E6FEBDE81040D04B8B2273A1D0A051
:1024700032F06EBB10B5FFF7DCFE4FF48052D4494A
:102480004FF4087000F07CFCFFF7D2FE38B1BDE8D5
:102490001040D04B932269A1CFA032F059BBBDE8C8
:1024A0001040CC4B962265A1D4A032F051BB10B5A0
:1024B000FFF7BFFE4FF48052C5494FF4087000F09B
:1024C000B9FC30B1D54B9E225CA1D5A032F040FBC7
:1024D00005E0D24BA12259A1D9A032F039FBBDE8C9
:1024E0001040A5E610B5FFF7A4FE032000F035FD6F
:1024F0004FF48051B64832F06BFED94BA9224FA160
:10250000D8A032F025FBBDE8104091E610B5FFF7EA
:1025100090FE052000F021FDDB4BAF2247A1D1A0AA
:1025200032F016FBBDE8104082E610B5FFF781FEE1
:10253000062000F012FDD54BB52240A1D4A032F008
:1025400007FBBDE8104073E670B545F28260FFF707
:1025500014F900286AD045F2B160FFF7E8F8344D6D
:1025600047F6FF76002458B1A5F8A86AA5F8A64A50
:1025700045F2B160FFF7B1F845F2B060FFF7ADF892
:10258000B5F9A80AB5F9A61A88420EDBA5F8A84A3B
:10259000B5F8A00AA5F8A20AB5F8A40AA5F8A60AF3
:1025A00045F2B060FFF786F80EE0B5F9A21A88424E
:1025B00007D1401CA5F8A80A45F2B060FFF78DF8D6
:1025C00002E0401CA5F8A80A45F2B360FFF7AFF897
:1025D00058B1A5F8B26AA5F8B04A45F2B360FFF762
:1025E0007CF845F2B260FFF778F8B5F9B20AB5F9B0
:1025F000B01A88420EDBA5F8B24AB5F8AA0AA5F8C7
:10260000AC0AB5F8AE0AA5F8B00A45F2B260FFF719
:1026100051F852E1B5F9AC1A884208D1401CA5F82E
:10262000B20A45F2B260FFF758F846E1B1E141E184
:10263000B001002008000020628E04082E2E5C2EBF
:102640002E5C73506C635C73506C632E63000000EF
:1026500025732C25642C25733A4D52204550524F3A
:102660004D204352433A3078253038582C4D522073
:1026700043414C43204352433A3078253038580A7E
:102680000000000025732C25642C25733A444D204E
:102690004550524F4D204352433A307825303858F8
:1026A0002C444D2043414C43204352433A3078253B
:1026B0003038580A0000000025732C25642C25733F
:1026C0003A6C6F6164204E5652414D206372632014
:1026D0006661696C2E2E2E0A0000000025732C25E1
:1026E000642C25733A6C6F6164204E5652414D2024
:1026F000646F6E652E2E2E0A00000000708E040896
:1027000025732C25642C25733A73617665204E560B
:1027100052414D20646F6E652E2E2E284D5220435F
:1027200052433A3078253038582C444D2043524398
:102730003A307825303858290A0000007E8E040887
:1027400025732C25642C25733A757064617465209B
:102750004D52204E5652414D20646F6E652E2E2EE6
:10276000284D52204352433A307825303858290AB0
:102770000000000025732C25642C25733A757064C5
:1027800061746520444D204E5652414D20646F6E59
:10279000652E2E2E28444D204352433A3078253062
:1027A0003858290A00000000200D00208E8E0408F1
:1027B00025732C25642C25733A636C656172204E59
:1027C0005652414D20646F6E652E2E2E0A00000079
:1027D000901800209D8E040825732C25642C2573E9
:1027E0003A6C6F6164204644204E5652414D20633E
:1027F0007263206661696C2121210A0025732C25F2
:10280000642C25733A6C6F6164204644204E565206
:10281000414D20646F6E652E2E2E0A00AB8E04088B
:1028200025732C25642C25733A7361766520464404
:10283000204E5652414D206661696C2E2E2E0A00A4
:1028400025732C25642C25733A73617665204644E4
:10285000204E5652414D20646F6E652E2E2E0A007A
:10286000B98E040825732C25642C25733A636C6596
:102870006172204644204E5652414D20646F6E6571
:102880002E2E2E0A00000000C88E0408DE8E0408DA
:1028900025732C25642C25733A636C656172206462
:1028A0006576696365206C6F6720646F6E652E2E98
:1028B0002E0A0000401CA5F8B20A45F2B560FEF7EA
:1028C00036FF58B1A5F8BC6AA5F8B04A45F2B56024
:1028D000FEF703FF45F2B460FEF7FFFEB5F9BC0A50
:1028E000B5F9BA1A88420EDBA5F8BC4AB5F8B40AA5
:1028F000A5F8B60AB5F8B80AA5F8BA0A45F2B46060
:10290000FEF7D8FE0EE0B5F9B61A884207D1401C92
:10291000A5F8BC0A45F2B460FEF7DFFE02E0401CF9
:10292000A5F8BC0A45F2B760FEF701FF58B1A5F85B
:10293000C66AA5F8C44A45F2B760FEF7CEFE45F276
:10294000B660FEF7CAFEB5F9C60AB5F9C41A8842E0
:102950000FDBA5F8C64AB5F8BE0AA5F8C00AB5F857
:10296000C20AA5F8C40ABDE8704045F2B660FEF799
:10297000A1BEB5F9C01A884208D1401CA5F8C60A04
:10298000BDE8704045F2B660FEF7A7BE401CA5F852
:10299000C60A70BD38B5634B40F21112AFF2643114
:1029A00061A032F0D5F800F08FFA0EF05EFF05F06E
:1029B000EAFDFFF74BFCFFF75DFD02F0CEF8614C3E
:1029C000A06002F0D7F8E060A068564B4FF48E721A
:1029D000AFF2983100905CA032F0BAF8E068514B49
:1029E00040F21D12AFF2AC3100905FA032F0B0F8AF
:1029F0004FF4AD40FEF75EFE45F28160FEF75AFEF1
:102A000000F06EFE00F050FF02F0E0FD02F064FB0B
:102A100001F0A1F802F04EFA02F0C6F9042159487B
:102A200011F0E8F90821574811F0E4F90021554860
:102A300011F0E0F945F20320FEF74FFE524A0A2357
:102A4000504992F93F00002801DD642802DD086842
:102A5000C36303E0D1F800C0CCF83C0092F93E001B
:102A6000002801DD642802DD0868836303E0D1F8F3
:102A700000C0CCF8380092F94000002801DD64283D
:102A800002DD0868436338BD0968486338BD70B526
:102A90002C4D0024287800280ED045F28260FEF7E5
:102AA0002FFE2C70394947F6FF72B1F9CE0A9042D9
:102AB00002DA401CA1F8CE0A687820B145F28460A1
:102AC000FEF71EFE6C70A87820B145F28560FEF717
:102AD00017FEAC70E87820B145F28660FEF710FE74
:102AE000EC70287920B145F28760FEF709FE2C7161
:102AF000687920B145F28860FEF702FE6C7100F043
:102B0000FCFDFFF721FDBDE8704002F008BB10B5E9
:102B100000F0F4FEFFF728FCBDE8104045F28160AC
:102B2000FEF7DBBDF18E040825732C25642C25737C
:102B30003A7374617274204170702E2E2E2E2E2ED8
:102B40000A0000001400002025732C25642C257336
:102B50003A626F6F746C6F6164206372633A3078AD
:102B6000253038580A00000025732C25642C257365
:102B70003A617070206372633A3078253038580AB1
:102B80000000000060C20120F84F0020B0010020CA
:102B900038B5044600944FF47A7301226946084818
:102BA0001FF01FF8204638BD08B56423012269468E
:102BB00003481FF074F89DF8000008BD7047704787
:102BC00010C4012010B40023002A0BD910F803C050
:102BD000CC5CA44502D010BC002070475B1C9BB2AB
:102BE0009342F3D310BC0120704700B583B0B0F519
:102BF000005F02D3012003B000BD4FF47A734FF0A1
:102C0000010C029300910246CDF804C01023A121CB
:102C1000FA481CF0A9FA0028EDD0F8481AF0D9FDBE
:102C200003B0F6485DF804EB1AF005BD00B583B0BB
:102C3000431CB3F5005F02D3012003B000BD4FF485
:102C40007A734FF0020C029300910246CDF804C053
:102C50001023A121E9481CF087FA0028EDD0E748AD
:102C60001AF0B7FD03B0E5485DF804EB1AF0E3BCD9
:102C700000B583B0C31CB3F5005F02D3012003B0DD
:102C800000BD4FF47A734FF0040C0293009102469A
:102C9000CDF804C01023A121D8481CF065FA002803
:102CA000EDD0D6481AF095FD03B0D4485DF804EB9A
:102CB0001AF0C1BC00B583B0B0F5005F02D30120AB
:102CC00003B000BD4FF47A734FF0010C02930091F2
:102CD0000246CDF804C01023A021C8481CF0E7F834
:102CE0000028EDD0C5481AF074FD03B0C3485DF864
:102CF00004EB1AF0A0BC00B583B0431CB3F5005F31
:102D000002D3012003B000BD4FF47A734FF0020CE0
:102D1000029300910246CDF804C01023A021B748C9
:102D20001CF0C5F80028EDD0B4481AF052FD03B0ED
:102D3000B2485DF804EB1AF07EBC00B583B0C31C4A
:102D400041F6FF7C634502D3012003B000BD4FF480
:102D50007A734FF0040C029300910246CDF804C040
:102D60001023A021A5481CF0A2F80028EDD0A3480C
:102D70001AF02FFD03B0A1485DF804EB1AF05BBC1C
:102D800070B588B003460C4603EB020CBCF5005F3F
:102D900002D9012008B070BD4FEAD20CCDF818C09E
:102DA00002F007020592079300210491BDF810205C
:102DB000BDF818104FF47A758A4220D20826029581
:102DC000BDF81C20102301960094A1218B481CF013
:102DD000CBF928B189481AF0FCFC88481AF02BFC82
:102DE000BDF81C10083107910834BDF81010491CBB
:102DF0000491BDF81010BDF818209142DFD3BDF842
:102E000014100029C6D0BDF814000295BDF81C208E
:102E1000102300940190A12178481CF0A5F9002806
:102E2000B8D076481AF0D5FC08B07448BDE87040B8
:102E30001AF001BC2DE9F04784B006460C46B118E3
:102E4000B1F5005F03D9012004B0BDE8F087D708D1
:102E500002F0070800254FF47A79002F1BD94FF0B4
:102E6000080A10233246A0216448CDF804A0CDF80A
:102E7000089000941CF01BF828B160481AF0A9FCD7
:102E80005E481AF0D8FB06F108018EB20834691CBE
:102E90008DB2BD42E5D3B8F1000FD5D01023324634
:102EA000A0215648CDF80890CDF8048000941BF07E
:102EB000FEFF0028C8D051481AF08BFC04B04F48E0
:102EC000BDE8F0471AF0B7BB10B520231F22002140
:102ED0004BA031F03DFE4FF4007340F21F22202141
:102EE00050A031F035FE4FF4006340F61F224FF43E
:102EF000087155A031F02CFE41F66752D11E5BA03F
:102F000031F026FE41F66B52D11E60A031F020FE5A
:102F100041F66F52D11E65A031F01AFE41F6735290
:102F2000D11E6CA031F014FE41F67752D11E71A073
:102F300031F00EFE4FF4007341F67F724FF4EC5106
:102F400074A031F005FEBDE81040802341F6FF7209
:102F50004FF4FC5179A031F0FBBD38B50021009150
:102F600007280ED2DFE800F00D040E34FFFE490002
:102F70000024A0B26946FFF79DFE641CB4F5005F13
:102F8000F7D338BD0024A0B26946FFF793FE641C56
:102F90001F2CF8D92024A0B26946FFF78BFE641CD1
:102FA000B4F5087FF7D341F66454E51CA0B2694636
:102FB000FFF780FE641CAC42F8D941F66854E51C6A
:102FC000A0B26946FFF776FE641CAC42F8D938BD62
:102FD0004FF40874A0B26946FFF76CFE641CB4F5A8
:102FE000226FF7D341F66C54E51CA0B26946FFF797
:102FF00061FE641CAC42F8D938BDD5E0B4C10120F3
:103000004D52204550524F4D3A3078253034582D8E
:103010002D2D3078253034582873697A653A256427
:10302000290A0000444D204550524F4D3A30782532
:103030003034582D2D2D3078253034582873697A46
:10304000653A2564290A00004644204550524F4DF8
:103050003A3078253034582D2D2D3078253034589D
:103060002873697A653A2564290A00004D52204385
:103070005243204550524F4D3A3078253034582D28
:103080002D2D3078253034580A000000444D20435F
:103090005243204550524F4D3A3078253034582D08
:1030A0002D2D3078253034580A0000004644204346
:1030B0005243204550524F4D3A3078253034582DE8
:1030C0002D2D3078253034582C28756E7573652970
:1030D0000A0000004D435520435243204550524FB3
:1030E0004D3A3078253034582D2D2D307825303418
:1030F000580A00004C434420435243204550524F4D
:103100004D3A3078253034582D2D2D3078253034F7
:10311000580A0000434F4E464947204550524F4DF4
:103120003A3078253034582D2D2D307825303458CC
:103130002873697A653A2564290A00004C4F47498B
:103140004E464F204550524F4D3A30782530345836
:103150002D2D2D3078253034582873697A653A251D
:1031600064290A0015E0FFE741F67054E51CA0B29F
:103170006946FFF79FFD641CAC42F8D941F67454D0
:10318000E51CA0B26946FFF795FD641CAC42F8D976
:1031900038BD4FF4EC54A0B26946FFF78BFD641CB8
:1031A000B4F5FC5FF7D338BD4FF4FC54A0B26946C8
:1031B000FFF780FD641CB4F5005FF7D338BD002233
:1031C000002907D9835CFF2B01D000207047521CD7
:1031D0008A42F7D3012070472DE9F047A2B00026BC
:1031E000C84D2868816841F0010181600024E846EB
:1031F000C5481EF09FFA0090A0B26946FFF75AFD3D
:10320000601C80B208F10101FFF754FDA01C80B2E0
:1032100008F10201FFF74EFDE01C80B208F1030146
:10322000FFF748FD01226946B64819F033FF814691
:10323000241DB4F5005FDBD32868816841F00101EB
:103240008160002401AFA0B201A9FFF7CEFC601C91
:1032500080B2791CFFF7C9FCA01C80B2B91CFFF733
:10326000C4FCE01C80B2F91CFFF7BFFC012201A9DD
:10327000A44819F00FFF241DB4F5005FE3D34845BF
:1032800007D1A24B4FF4A972A1A1A8A031F060FC14
:1032900007E09E4B40F255129DA1B0A031F058FCC2
:1032A00000262868816841F0010181600024964869
:1032B0001EF040FA0090A0B26946FFF71CFDA01C6A
:1032C00080B208F10201FFF716FD012269468D4820
:1032D00019F0E0FE8146241DB4F5005FE7D32868AD
:1032E000816841F0010181600024A0B201A9FFF7CB
:1032F0009DFCA01C80B2B91CFFF798FC012201A91B
:10330000804819F0C7FE241DB4F5005FEDD3484591
:1033100007D17E4B40F267127DA19CA031F018FCD2
:1033200007E07A4B4FF4B57279A1A4A031F010FCFC
:1033300000262868816841F001018160002441F67F
:10334000FC7771481EF0F6F90090A0B26946FFF7CD
:10335000F4FC012269466B4819F09CFE8046241D4E
:10336000BC42EED32868816841F0010181600024ED
:10337000A0B201A9FFF77CFC012201A9614819F064
:1033800089FE241DBC42F3D3404507D15F4B4FF467
:10339000BD725FA195A031F0DBFB07E05B4B40F213
:1033A0007D125BA19DA031F0D3FB00264FF0800978
:1033B0004FF0000A00250024EAB2402102A831F0B3
:1033C000FFFE129413941494159416941794189461
:1033D00019941A941B941C941D941E941F94209469
:1033E000219409EB85181FFA88F0402202A9FFF703
:1033F00021FD1FFA88F0402212A9FFF7C1FC4022EC
:1034000012A912A8FFF7DEFB38B9404B40F289122F
:103410003FA18EA031F09CFB00266D1C4D45CBD307
:10342000FCF7B8FF934B01462246C3FB0020C211B4
:10343000A2EBE070A0EB00204218402102A831F07E
:10344000BFFE129413941494159416941794189420
:1034500019941A941B941C941D941E941F942094E8
:103460002194CAF50054A0B2524602A9FFF7E2FC2B
:10347000A0B2524612A9FFF783FC402212A912A85B
:10348000FFF7A0FB38B9214B4FF4C97220A16FA000
:1034900031F05EFB00261D4B40F295121CA176A078
:1034A00031F056FB002442F2107517481EF042F925
:1034B000B0FBF7F107FB1100009004226946484673
:1034C000FFF7B8FC042201A94846FFF759FC01990F
:1034D0000098884207D00D4B4FF4CE720CA170A01B
:1034E00031F036FB0026641CAC42DED3074B4FF4B0
:1034F000D07207A172A031F02BFB22B03046BDE89C
:10350000F08700000800002008C20120FA8E04089D
:103510002E2E5C2E2E5C73506C63506F72745C7335
:10352000506C634570726F6D2E63000025732C25FF
:10353000642C25733A62797465283862697429208D
:1035400073657175656E7469616C207772697465F5
:103550002070617373210D0A0000000025732C2573
:10356000642C25733A62797465283862697429205D
:1035700073657175656E7469616C207769727465C5
:10358000206661696C210D0A0000000025732C255E
:10359000642C25733A68776F7264283136626974D7
:1035A000292073657175656E7469616C2077726925
:1035B00074652070617373210D0A000025732C253A
:1035C000642C25733A686F777264283136626974A7
:1035D000292073657175656E7469616C20776972F5
:1035E0007465206661696C210D0A000025732C2525
:1035F000642C25733A64776F72642833326269747D
:10360000292073657175656E7469616C20777269C4
:1036100074652070617373210D0A000025732C25D9
:10362000642C25733A64776F72642833326269744C
:10363000292073657175656E7469616C2077697294
:103640007465206661696C210D0A000025732C25C4
:10365000642C25733A626C6F636B207365717565BA
:103660006E7469616C205772697465206661696C5B
:10367000210D0A008180808025732C25642C257300
:103680003A626C6F636B2073657175656E74696106
:103690006C2057726974652070617373210D0A0084
:1036A00025732C25642C25733A72616E646F6D202E
:1036B0007772697465206661696C210D0A000000EB
:1036C00025732C25642C25733A72616E646F6D200E
:1036D00077726974652070617373210D0A000000B0
:1036E00010B580215C4831F073FDBDE810405B4BA4
:1036F00007225BA161A031F02BBA70B5664E4FF482
:103700008041304617F03EFC644D534C38B194F97B
:10371000001011F1080F10DD481E207013E094F91D
:103720000010082902DA481C20700CE0B5F8300AB5
:1037300040F00100A5F8300A05E0B5F8300A20F0A5
:103740000100A5F8300A0221304617F01BFC38B101
:1037500094F9011011F1080F10DD481E607013E09C
:1037600094F90110082902DA481C60700CE0B5F8E1
:10377000300A40F00200A5F8300A05E0B5F8300A3A
:1037800020F00200A5F8300A0121304617F0FAFBBC
:1037900038B194F9020010F1080F10DD401EA0703E
:1037A00013E094F90200082802DA401CA0700CE033
:1037B000B5F8300A40F00400A5F8300A05E0B5F885
:1037C000300A20F00400A5F8300A2021344817F010
:1037D000D9FB012807D094F9030010F1080F10DD80
:1037E000401EE07013E094F90300082802DA401C40
:1037F000E0700CE0B5F8300A40F00800A5F8300A97
:1038000005E0B5F8300A20F00800A5F8300A25498F
:10381000B5F9780AB1F9421088420DDC94F9040038
:10382000082802DA401C207170BDB5F8300A40F05B
:103830001000A5F8300A70BD94F9040010F1080FCB
:1038400002DD401E207170BDB5F8300A20F0100076
:10385000A5F8300A70BD000090380020088F0408D9
:103860002E2E5C2E2E5C73506C63506F72745C73E2
:10387000506C63496F496E2E6300000025732C2540
:10388000642C25733A696E70757420696E69742EA4
:103890002E2E2E2E2E0A000000040240B001002021
:1038A00000080240F84F002010B552490020A1F84E
:1038B000400A514C00224FF40061204617F069FB8A
:1038C00004214E4810F096FA08214C4810F092FA64
:1038D00000214A4810F08EFA0022A114204617F069
:1038E00058FB01229102464817F053FBBDE81040F7
:1038F000444B0D2244A14BA031F02AB970B54FF4CE
:10390000A440FDF73AFF18B108213C4810F009FA2D
:103910004FF4A440FDF74CFF18B10821374810F0D0
:1039200069FA45F20120FDF728FF18B10421334858
:1039300010F0F7F945F20120FDF73AFF18B1042124
:103940002E4810F057FA45F20220FDF716FF18B185
:1039500000212A4810F0E5F945F20220FDF728FF82
:1039600018B10021254810F045FA45F20320FDF773
:1039700004FF214C20B101221103204617F009FB5E
:1039800045F20320FDF714FF28B100224FF48051C7
:10399000204617F0FEFA45F20420FDF7EEFE184D22
:1039A00020B101229102284617F0F3FA45F20420D3
:1039B000FDF7FEFE20B101229102284617F0E9FA38
:1039C00045F20620FDF7D9FE20B10122D1022046A2
:1039D00017F0DFFA45F20620FDF7EAFE002807D0CF
:1039E0002046BDE8704000224FF4006117F0D1BAC4
:1039F00070BD0000B00100200004024060C2012040
:103A000000080240168F04082E2E5C2E2E5C735088
:103A10006C63506F72745C73506C63496F4F757454
:103A20002E63000025732C25642C25733A6F757462
:103A300070757420696E69742E2E2E2E2E2E0A003B
:103A400010B58C4B7F228CA192A031F081F8974C5D
:103A5000B4F84000022807D1B4F94200022803DC80
:103A60001520A4F8CC0A0BE042F21720FDF75FFE08
:103A700018B11420A4F8CC0A02E01220A4F8CC0A51
:103A800040F24C40A4F8CA0AB4F84400A4F8C80AAA
:103A90000020A4F8CE0A8649888048814882887030
:103AA000C870844909684862BDE8104081480FF039
:103AB000F1BB10B5002800DA00207F49096848638F
:103AC0007B4C30B100217C4810F02BF90120207094
:103AD00010BD0021784810F08DF90020207010BD35
:103AE00070B5734CA07801281DD1744D00220221BD
:103AF000284617F04EFA00224FF40051284617F0DE
:103B000048FA002210216E4817F043FA67486D49C1
:103B1000B0F8460091F9411010FB01F000B2FFF738
:103B2000C8FF0020A07070BD10B5674B972252A14E
:103B300066A031F00DF85F480024006844625D48DB
:103B40000FF0EDFBFFF7CCFF59488480448184706F
:103B50000121C17010BD10B5584C00220221204631
:103B600017F017FA00224FF40051204617F011FA0F
:103B700000221021524817F00CFA0020FFF799FF9D
:103B80004B48002141708180C18001814181818148
:103B9000C181018241828170C170BDE81040514BEA
:103BA000B02235A150A030F0D3BF70B5404DA878F9
:103BB00000282AD13D4C414E94F8EE0410F0010F3C
:103BC00004D001220221304617F0E3F994F8EE14F4
:103BD00011F0020F09D001225103304617F0D9F934
:103BE00001221021364817F0D4F994F8EE0410F0B1
:103BF000050F08D0B4F8FA044FF47A7110FB01F005
:103C000000B2FFF756FF0120A87070BD10B5284C18
:103C1000204694F90110B0F90400012922D00229AC
:103C20001FD1002805DBB4F90610884201DAFFF73E
:103C3000BCFFB4F90400B4F90610884205DBB4F9FE
:103C40000810884201DAFFF74BFFB4F90400B4F919
:103C50000810884202DB4FF0FF30A080A088401C93
:103C6000A08010BD0028FCD1FFF79FFFA088401C5A
:103C7000A08010BD258F04082E2E5C2E2E5C735064
:103C80006C63506F72745C73506C634C61736572DB
:103C90002E63000025732C25642C25733A6C617308
:103CA0006572207374617274210A0000B0010020F3
:103CB00014C00120F0C2012018C2012000080240F7
:103CC00000040240F84F00202B8F040825732C2598
:103CD000642C25733A6C617365722073746F702164
:103CE0000A000000318F040825732C25642C2573ED
:103CF0003A6C617365722074696D657220696E69D2
:103D0000742E2E2E2E2E2E0A00000000002000BF42
:103D100000BF00BF00BF00BF00BF00BF00BF00BFAB
:103D200000BF401CB0F57A7FF1D3704710B588B062
:103D30000024019402940394049405940694079437
:103D4000FE48FD4901604460846040F61F51C16037
:103D5000046184610FF088FF602001904FF4D2600D
:103D6000029003940594002201A9F44811F063FE27
:103D700008B010BD2DE9F04186B00026F04C206857
:103D800040F001002060206800F001000090DFF8A2
:103D9000B4830022A114404617F0FBF8A014019050
:103DA0000127029702250395049601A9404616F0C3
:103DB0003BFF0022A114404617F0EBF86420FFF708
:103DC000A5FF01221103404617F0E3F86420FFF736
:103DD0009DFFA114404617F034F8206820F0010040
:103DE0002060206840F040002060206800F0400023
:103DF0000090DFF854830022A115404617F0C9F85F
:103E0000A015019002970395049601A9404616F06B
:103E10000BFFC820FFF77AFFA114404617F011F8F6
:103E2000206820F040002060201D016821F0800102
:103E30000160432017F008FD432017F0DFFD06B0B6
:103E4000BDE8F08110B592B00024079408940B945B
:103E50000C940D940E940F94109411940194029468
:103E6000039404940594B948046001210160B848A2
:103E700004660460B748026822F08052026002685B
:103E800042F080520260006800F080500090B2481A
:103E9000026842F480420260006800F480400090B2
:103EA00002200690099110200A9006A815F038FF0C
:103EB00008B1FCF7A9FA0F200190029403944FF483
:103EC000805004900594002101A816F099F900286B
:103ED00001D0FCF799FA12B010BD10B517F009FE29
:103EE0009E48FCF70FFD9E48FCF764FE9D48FDF7D9
:103EF00063F89248FDF760F89B48FDF75DF89B4832
:103F0000FDF75AF89A48FDF757F89A48FDF754F824
:103F10009948FCF70AFE9948FDF740F99848FDF7E3
:103F20003DF99848FCF7A3FC9748FCF719FD974822
:103F300029F07FFCFFF786FFFFF71CFF62B610BD7C
:103F400020F0CFBA38B50446914DB5F90000A04233
:103F50001AD0642C00DD6424002C00DA002484488C
:103F60000068846324B1042181480FF0DAFE03E085
:103F700004217F480FF03EFF2C80864BB12286A1A2
:103F80008CA0009430F0E4FD38BD10B530381E2808
:103F900080F0DD85DFE810F01E006C00BA005401EF
:103FA000A201F0013E028C02DA022B03DB05DB05E5
:103FB000DB05DB05DB05DB05DB0579039703D503B3
:103FC000130441044F048D04BB04F804180555057F
:103FD0008205BF05042159480FF0A3FE4FF49670E7
:103FE00020F07FFA042155480FF004FF40F6B83066
:103FF00020F077FA042151480FF093FE4FF46170DE
:1040000020F06FFA04214D480FF0F4FE40F6B8306E
:1040100020F067FA042149480FF083FE4FF46170E5
:1040200020F05FFA042145480FF0E4FE40F6B83076
:1040300020F057FA042141480FF073FE4FF46170ED
:1040400020F04FFA04213D480FF0D4FE40F6B8307E
:1040500020F047FA042139480FF063FE4FF46170F5
:1040600020F03FFA042135480FF0C4FE00F06FBD88
:10407000042132480FF055FE4FF4967020F031FACB
:1040800004212E480FF0B6FE40F6B83020F029FA91
:1040900004212A480FF045FE4FF4617020F021FA08
:1040A000042126480FF0A6FE40F6B83020F019FA99
:1040B000042122480FF035FE4FF4617020F011FA10
:1040C00004211E480FF096FE40F6B83020F009FAA1
:1040D00004211A480FF025FE4FF4617020F001FA18
:1040E000042116480FF086FE40F6B83020F0F9F9AA
:1040F000042112480FF015FE4FF4617020F0F1F921
:1041000004210E480FF076FE00F021BD04210B487B
:104110000FF007FE4FF4967020F0E3F904210748F2
:104120000FF068FE40F6B83020F0DBF904210348B8
:104130000FF0F7FD4AE000000004004060C20120DB
:10414000303802400000024000180240400E474252
:104150000000474240380240007000400800002044
:1041600008C2012018C20120A8C20120F0C201200B
:1041700038C3012080C30120B4C1012010C4012034
:10418000C8C301200CC10120F40000205CCB012039
:10419000280000203F8F04082E2E5C2E2E5C7350CA
:1041A0006C63506F72745C73506C634D6973632EF3
:1041B0006300000025732C25642C25733A73657405
:1041C0002066616E3A25640A000000004FF4967084
:1041D00020F087F90421FE480FF00CFE40F6B830BD
:1041E00020F07FF90421FA480FF09BFD4FF4617035
:1041F00020F077F90421F6480FF0FCFD40F6B830C6
:1042000020F06FF90421F2480FF08BFD4FF461703C
:1042100020F067F90421EE480FF0ECFD40F6B830CD
:1042200020F05FF90421EA480FF07BFD4FF4617044
:1042300020F057F90421E6480FF0DCFD00F087BCC0
:104240000421E3480FF06DFD4FF4967020F049F91A
:104250000421DF480FF0CEFD40F6B83020F041F9E0
:104260000421DB480FF05DFD4FF4967020F039F922
:104270000421D7480FF0BEFD40F6B83020F031F9E8
:104280000421D3480FF04DFD4FF4617020F029F95F
:104290000421CF480FF0AEFD40F6B83020F021F9F0
:1042A0000421CB480FF03DFD4FF4617020F019F967
:1042B0000421C7480FF09EFD40F6B83020F011F9F8
:1042C0000421C3480FF02DFD4FF4617020F009F96F
:1042D0000421BF480FF08EFD00F039BC0421BC481A
:1042E0000FF01FFD4FF4967020F0FBF80421B84842
:1042F0000FF080FD40F6B83020F0F3F80421B44808
:104300000FF00FFD4FF4967020F0EBF80421B04849
:104310000FF070FD40F6B83020F0E3F80421AC480F
:104320000FF0FFFC4FF4617020F0DBF80421A84887
:104330000FF060FD40F6B83020F0D3F80421A44817
:104340000FF0EFFC4FF4967020F0CBF80421A0485A
:104350000FF050FD40F6B83020F0C3F804219C481F
:104360000FF0DFFC4FF4617020F0BBF80421984897
:104370000FF040FD00F0EBBB042195480FF0D1FC9D
:104380004FF4967020F0ADF8042191480FF032FD03
:1043900040F6B83020F0A5F804218D480FF0C1FC9C
:1043A0004FF4967020F09DF8042189480FF022FD0B
:1043B00040F6B83020F095F8042185480FF0B1FCA4
:1043C0004FF4967020F08DF8042181480FF012FD13
:1043D00040F6B83020F085F804217D480FF0A1FCAC
:1043E0004FF4967020F07DF8042179480FF002FD1B
:1043F00040F6B83020F075F8042175480FF091FCB4
:104400004FF4967020F06DF8042171480FF0F2FC23
:1044100000F09DBB04216E480FF083FC4FF46170E7
:1044200020F05FF804216A480FF0E4FC40F6B83051
:1044300020F057F8042166480FF073FC4FF4967093
:1044400020F04FF8042162480FF0D4FC40F6B83059
:1044500020F047F804215E480FF063FC4FF496709B
:1044600020F03FF804215A480FF0C4FC40F6B83061
:1044700020F037F8042156480FF053FC4FF49670A3
:1044800020F02FF8042152480FF0B4FC40F6B83069
:1044900020F027F804214E480FF043FC4FF49670AB
:1044A00020F01FF804214A480FF0A4FC00F04FBB95
:1044B000042147480FF035FC4FF4617020F011F8EB
:1044C000042143480FF096FC40F6B83020F009F87C
:1044D00004213F480FF025FC4FF4617020F001F8F3
:1044E00004213B480FF086FC40F6B8301FF0F9FF7E
:1044F000042137480FF015FC4FF496701FF0F1FFC0
:10450000042133480FF076FC40F6B8301FF0E9FF85
:1045100004212F480FF005FC4FF496701FF0E1FFC7
:1045200004212B480FF066FC40F6B8301FF0D9FF8D
:10453000042127480FF0F5FB4FF496701FF0D1FFD0
:10454000042123480FF056FC00F001BB0421204851
:104550000FF0E7FB4FF461701FF0C3FF04211C480C
:104560000FF048FC40F6B8301FF0BBFF042118489C
:104570000FF0D7FB4FF461701FF0B3FF0421144814
:104580000FF038FC40F6B8301FF0ABFF04211048A4
:104590000FF0C7FB4FF461701FF0A3FF04210C481C
:1045A0000FF028FC40F6B8301FF09BFF04210848AC
:1045B0000FF0B7FB4FF496701FF093FF04210448EF
:1045C0000FF018FC40F6B8301FF08BFF042101E01B
:1045D00060C20120FB480FF0A4FB4FF496701FF05F
:1045E00080FF0421F7480FF005FC00F0B0BA042169
:1045F000F4480FF096FB4FF461701FF072FF042136
:10460000F0480FF0F7FB40F6B8301FF06AFF0421C6
:10461000EC480FF086FB4FF461701FF062FF04213D
:10462000E8480FF0E7FB40F6B8301FF05AFF0421CE
:10463000E4480FF076FB4FF461701FF052FF042145
:10464000E0480FF0D7FB40F6B8301FF04AFF0421D6
:10465000DC480FF066FB4FF461701FF042FF04214D
:10466000D8480FF0C7FB40F6B8301FF03AFF0421DE
:10467000D4480FF056FB4FF496701FF032FF042120
:10468000D0480FF0B7FB00F062BA0421CD480FF01C
:1046900048FB4FF496701FF024FF0421C9480FF027
:1046A000A9FB40F6B8301FF01CFF0421C5480FF0ED
:1046B00038FB4FF461701FF014FF0421C1480FF064
:1046C00099FB00F044BA0421BE480FF02AFB4FF4D6
:1046D00061701FF006FF0421BA480FF08BFB40F613
:1046E000B8301FF0FEFE0421B6480FF01AFB4FF45D
:1046F00096701FF0F6FE0421B2480FF07BFB40F6E7
:10470000B8301FF0EEFE0421AE480FF00AFB4FF464
:1047100096701FF0E6FE0421AA480FF06BFB40F6EE
:10472000B8301FF0DEFE0421A6480FF0FAFA4FF46D
:1047300096701FF0D6FE0421A2480FF05BFB00F03C
:1047400006BA04219F480FF0ECFA4FF461701FF095
:10475000C8FE04219B480FF04DFB40F6B8301FF017
:10476000C0FE042197480FF0DCFA4FF496701FF05A
:10477000B8FE042193480FF03DFB40F6B8301FF01F
:10478000B0FE04218F480FF0CCFA4FF461701FF097
:10479000A8FE04218B480FF02DFB40F6B8301FF027
:1047A000A0FE042187480FF0BCFA4FF496701FF06A
:1047B00098FE042183480FF01DFB00F0C8B90421C6
:1047C00080480FF0AEFA4FF461701FF08AFE0421AA
:1047D0007C480FF00FFB40F6B8301FF082FE04213A
:1047E00078480FF09EFA4FF496701FF07AFE04217D
:1047F00074480FF0FFFA40F6B8301FF072FE042143
:1048000070480FF08EFA4FF496701FF06AFE042184
:104810006C480FF0EFFA00F09AB9042169480FF0E4
:1048200080FA4FF496701FF05CFE042165480FF08B
:10483000E1FA00F08CB9042162480FF072FA4FF4EB
:1048400096701FF04EFE04215E480FF0D3FA40F63A
:10485000B8301FF046FE04215A480FF062FA4FF4B8
:1048600096701FF03EFE042156480FF0C3FA40F642
:10487000B8301FF036FE042152480FF052FA4FF4C0
:1048800061701FF02EFE04214E480FF0B3FA40F67F
:10489000B8301FF026FE04214A480FF042FA4FF4C8
:1048A00096701FF01EFE042146480FF0A3FA00F098
:1048B0004EB9042143480FF034FA4FF461701FF0F1
:1048C00010FE04213F480FF095FA40F6B8301FF073
:1048D00008FE04213B480FF024FA4FF461701FF0EA
:1048E00000FE042137480FF085FA40F6B8301FF07B
:1048F000F8FD042133480FF014FA4FF496701FF0BE
:10490000F0FD04212F480FF075FA00F020B90421C2
:104910002C480FF006FA4FF496701FF0E2FD0421C8
:1049200028480FF067FA40F6B8301FF0DAFD04218E
:1049300024480FF0F6F94FF496701FF0D2FD0421D1
:1049400020480FF057FA40F6B8301FF0CAFD042196
:104950001C480FF0E6F94FF496701FF0C2FD0421D9
:1049600018480FF047FA40F6B8301FF0BAFD04219E
:1049700014480FF0D6F94FF496701FF0B2FD0421E1
:1049800010480FF037FAE2E004210E480FF0C9F9A1
:104990004FF496701FF0A5FD04210A480FF02AFA83
:1049A00040F6B8301FF09DFD042106480FF0B9F91C
:1049B0004FF496701FF095FD042102480FF01AFA8B
:1049C000C5E0000060C20120042170480FF0A9F981
:1049D0004FF496701FF085FD04216C480FF00AFA21
:1049E00040F6B8301FF07DFD042168480FF099F9BA
:1049F0004FF461701FF075FD042164480FF0FAF95F
:104A000040F6B8301FF06DFD042160480FF089F9C1
:104A10004FF461701FF065FD04215C480FF0EAF966
:104A200040F6B8301FF05DFD042158480FF079F9C9
:104A30004FF461701FF055FD042154480FF0DAF96E
:104A400085E0042151480FF06CF94FF461701FF0BC
:104A500048FD04214D480FF0CDF940F6B8301FF065
:104A600040FD042149480FF05CF94FF496701FF0A7
:104A700038FD042145480FF0BDF940F6B8301FF06D
:104A800030FD042141480FF04CF94FF461701FF0E4
:104A900028FD04213D480FF0ADF958E004213B48C2
:104AA0000FF03FF94FF496701FF01BFD04213748BB
:104AB0000FF0A0F940F6B8301FF013FD0421334881
:104AC0000FF02FF94FF461701FF00BFD04212F48F8
:104AD0000FF090F940F6B8301FF003FD04212B4889
:104AE0000FF01FF94FF496701FF0FBFC04212748CC
:104AF0000FF080F940F6B8301FF0F3FC0421234892
:104B00000FF00FF94FF496701FF0EBFC04211F48D3
:104B10000FF070F91BE004211C480FF002F94FF46C
:104B200061701FF0DEFC042118480FF063F940F6B5
:104B3000B8301FF0D6FC042114480FF0F2F84FF4FF
:104B400061701FF0CEFC042110480FF053F9BDE84E
:104B5000104040F6B8301FF0C4BC70B5FCF7C6FC7E
:104B60004FF000640A4D2078FCF7B4FC641CAC42A2
:104B7000F9D370BD70B5FCF7B9FC064C064D207832
:104B8000FCF7A8FC641CAC42F9D370BD60C20120E4
:104B9000FFFF000800000108FFFF0F0800000000F1
:104BA00038B5044694480EF062FB0021934818F093
:104BB000ADFB41F29410844200DD0446B4F5FA7F67
:104BC00001DA4FF4FA7415F01EFC400A4000B0FB05
:104BD000F4F000EE100AB8EE400A874888490160F8
:104BE0000121416000248460BCEEC00A10EE101A5E
:104BF00089B2C1600461802181610EF09BFA38B1F5
:104C0000804B352280A188A02FF0A2FFFBF7FCFB90
:104C100079480EF0ECFA4FF480738A4A0021774805
:104C2000009418F0F8FA38BD10B5874C20780028A9
:104C300006D001225103854816F0ABF90020207000
:104C400010BD10B52DED0A8B642800DD64209FEDAA
:104C500080BB9FED81CB002800DA002033F03DFAC5
:104C60009FED7F1B53EC112B33F046F841EC190BF1
:104C700053EC1B2B51EC190B33F096F922D053EC6B
:104C8000192B51EC190B33F08FFA41EC1A0B9FEDF5
:104C9000768B51EC190B53EC182B32F071FF53EC5F
:104CA0001A2B33F0C1FB41EC1A0B53EC182B51ECCF
:104CB000190B33F079FA53EC1A2B33F01DF841EC51
:104CC000180B03E0B0EE4B8AF0EE6B8A9FED680B99
:104CD00051EC180B53EC102B33F066FA41EC180B27
:104CE00053EC1B2B51EC180B33F022FA03D2B0EE2D
:104CF0004B8AF0EE6B8A53EC1C2B51EC180B33F003
:104D000051FB03D2B0EE4C8AF0EE6C8A51EC180BDA
:104D100032F004FFBDEC0A8B00EE100A10BD2DE945
:104D2000F0412DED028B484991F90110814237D0B5
:104D3000FFF787FF10EE100A33F060FC41EC100B18
:104D400000249FED4D1B51EC100B53EC112B33F055
:104D50002BFA0F4606469FED4A8B3A4D47EC106BF7
:104D600053EC182B51EC100B32F00AFF33F058F9CA
:104D700025F81400601C04B27F2CEFDB7F2447EC85
:104D8000106B53EC182B51EC100B33F041FB33F04C
:104D900047F925F81400601C04B2B4F5807FEEDBFF
:104DA000BDEC028BBDE8F08110B545F2A060FCF7C8
:104DB00094FC3548B0F94400FFF7B1FFFFF734FF2A
:104DC00040F24C40FFF7ECFEBDE810402F4B0B22A9
:104DD0000DA12FA02FF0BCBE10B51B4C20780128D0
:104DE00007D000224FF40051184816F0D2F80120E5
:104DF000207010BD00000000A8C20120F4000020B7
:104E0000001400405B8F04082E2E5C2E2E5C735025
:104E10006C63506F72745C73506C63537065616B3C
:104E200065722E630000000025732C25642C257309
:104E30003A74696D3720696E6974206661696C2106
:104E40000A00000058C4012028C0012000040240CC
:104E50000000000000000000000000000000F03F23
:104E600000000000000059409A9999999999C93F0A
:104E7000000000606666E63F0000000000FC9F4006
:104E8000000000000000A040B00100204B8F04088B
:104E900025732C25642C25733A737065616B6572DC
:104EA00020646D6120696E69742E2E2E2E2E2E0ABE
:104EB0000000000010B569480EF0ECF968490020C8
:104EC000087068490870684908706849087068493E
:104ED00008706849088068490880684908806849FE
:104EE0000880684908806849088068490860BDE80A
:104EF0001040674B132267A16DA02FF029BE5748C1
:104F00000EF00DBA55480EF0C5B92DE9F05F4FF41B
:104F10008B646F4F44F2680647F6FF790025A019AD
:104F200080B2FCF704FC38B137F91400484505DAC3
:104F3000401C27F8140001E027F81450601C84B2CC
:104F4000B4F5936FEBD3DFF82CA14FF00108BAF85A
:104F500000000A281AD94FF49364A01980B2FCF714
:104F6000E6FB38B137F91400484505DA401C27F84C
:104F7000140001E027F81450601C84B2B4F59B6F54
:104F8000EBD3374880F80080AAF80050DFF8E8B08B
:104F9000BBF8000064281BD94FF49B64A01980B2B1
:104FA000FCF7C5FB38B137F91400484505DA401C59
:104FB00027F8140001E027F81450601C84B240F276
:104FC00017508442EAD3274880F80080ABF800509D
:104FD0002A490888C82803D9234880F800800D8012
:104FE000274A1088B0F5FA7F03D9204880F800805E
:104FF0001580244B1888B0F57A7F03D91C4880F8B7
:1050000000801D80DFF880C04EF66024BCF80000F0
:10501000A04204D92F4880F80080ACF80050BAF8BC
:105020000000401CAAF80000BBF80000401CABF8D0
:1050300000000888401C08801088401C10801888D8
:10504000401C1880BCF80000401CACF800000F4861
:105050000168491C0160BDE8F09F000080C3012089
:10506000140000201500002016000020170000206A
:10507000180000200CC001200EC0012010000020EC
:1050800010C001201200002012C001202CC00120FD
:105090006B8F04082E2E5C2E2E5C73506C63506F49
:1050A00072745C73506C6354696D65722E6300009A
:1050B00025732C25642C25733A73706C63207469F6
:1050C0006D657220696E69742E2E2E2E2E2E0A00AA
:1050D000B00100201900002010B59649002008708A
:1050E0007021954830F074F87021944830F070F8D1
:1050F00038229149924817F090F9BDE81040914B41
:105100000D2291A197A02FF023BD0068A0F180414E
:10511000B1F5903102D18749012048707047F0B550
:105120002DED028B87B0834F78780028FCD00026C5
:105130007E703878934CB4EE008A6D4600287DD09E
:105140007F4817F031FA38227B497D4817F065F91E
:105150003E70009601960296039604960596069672
:105160000020764A0021C1EBC10C844455F8203060
:1051700032F81CC0634445F82030491CC9B20829E4
:10518000F1D3401CC0B20728ECD39DED000AB8EE65
:10519000400A20EE080ABCEEC00A10EE100AA4F87D
:1051A0007E0A9DED010AB8EE400A20EE080ABCEE28
:1051B000C00A10EE100AA4F87C0A9DED020AB8EEAF
:1051C000400A20EE080ABCEEC00A10EE100AA4F84D
:1051D0007A0A9DED030AB8EE400A20EE080ABCEEFA
:1051E000C00A10EE100AA4F8780A9DED040AB8EE81
:1051F000400A20EE080ABCEEC00A10EE100AA4F81D
:10520000800A9DED050AB8EE400A20EE080ABCEEC1
:10521000C00A10EE100AA4F8820A9DED060AB8EE44
:10522000400A20EE080ABCEEC00A10EE100AA4F8EC
:10523000840A07B0BDEC028BF0BDFFE7404817F0D1
:10524000B3F938223D493E4817F0E7F8012038709D
:1052500000960196029603960496059606960020FF
:10526000354A0021C1EBC10C844455F8203032F896
:105270001CC0634445F82030491CC9B20829F1D349
:10528000401CC0B20728ECD39DED000AB8EE400ADE
:1052900020EE080ABCEEC00A10EE100AA4F87E0A3E
:1052A0009DED010AB8EE400A20EE080ABCEEC00AE5
:1052B00010EE100AA4F87C0A9DED020AB8EE400A2E
:1052C00020EE080ABCEEC00A10EE100AA4F87A0A12
:1052D0009DED030AB8EE400A20EE080ABCEEC00AB3
:1052E00010EE100AA4F8780A9DED040AB8EE400A00
:1052F00020EE080ABCEEC00A10EE100AA4F8800ADC
:105300009DED050AB8EE400A20EE080ABCEEC00A80
:1053100010EE100AA4F8820A9DED060AB8EE400AC3
:1053200020EE080ABCEEC00A10EE100AA4F8840AA7
:105330007FE700002A00002010390020803900207B
:105340000CC10120798F04082E2E5C2E2E5C735028
:105350006C63506F72745C73506C634164632E6352
:105360000000000025732C25642C25733A737461AA
:1053700072742061646320696E69742E2E2E2E2E45
:105380002E0A0000B001002070B50446D64E00225F
:105390001021304615F0FDFDC4F30B0040F48050A1
:1053A00040F4005500BF00BF00BF00BF00BF00BFFA
:1053B00000BF00BF00BF00BF0024C4F10F0025FAEA
:1053C00000F000F001020421304615F0E2FD00BFBC
:1053D00000BF00BF00BF00BF00BF00BF00BF00BFD5
:1053E00000BF01220821304615F0D3FD00BF00BFE9
:1053F00000BF00BF00BF00BF00BF00BF00BF00BFB5
:1054000000220821304615F0C4FD00BF00BF00BFD8
:1054100000BF00BF00BF00BF00BF00BF00BF601CD7
:10542000C4B2102CC9D300BF00BF00BF00BF00BF73
:1054300000BF00BF00BF00BF00BF01223046BDE873
:105440007040102115F0A5BD70B50446A64E00228F
:105450000121304615F09DFDC4F30B0040F480504F
:1054600040F4005500BF00BF00BF00BF00BF00BF39
:1054700000BF00BF00BF00BF0024C4F10F0025FA29
:1054800000F000F001024FF48041304615F081FD3C
:1054900000BF00BF00BF00BF00BF00BF00BF00BF14
:1054A00000BF00BF0122D103304615F072FD00BFDE
:1054B00000BF00BF00BF00BF00BF00BF00BF00BFF4
:1054C00000BF00224FF40041304615F062FD00BFDE
:1054D00000BF00BF00BF00BF00BF00BF00BF00BFD4
:1054E00000BF601CC4B2102CC7D300BF00BF00BFF8
:1054F00000BF00BF00BF00BF00BF00BF00BF012250
:105500003046BDE87040114615F043BD70B5044605
:10551000764E00228021304615F03BFDC4F30B008F
:1055200040F4805040F4005500BF00BF00BF00BFF2
:1055300000BF00BF00BF00BF00BF00BF0024C4F118
:105540000F0025FA00F000F001022021304615F08E
:1055500020FD00BF00BF00BF00BF00BF00BF00BFF5
:1055600000BF00BF00BF01224021304615F011FDF1
:1055700000BF00BF00BF00BF00BF00BF00BF00BF33
:1055800000BF00BF00224021304615F002FD00BFE1
:1055900000BF00BF00BF00BF00BF00BF00BF00BF13
:1055A00000BF601CC4B2102CC9D300BF00BF00BF35
:1055B00000BF00BF00BF00BF00BF00BF00BF01228F
:1055C0003046BDE87040802115F0E3BC70B5464C14
:1055D00001221021204615F0DCFC01221146204654
:1055E00015F0D7FC414D01228021284615F0D1FC51
:1055F00001220821284615F0CCFC00220821204673
:1056000015F0C7FC00224FF40041204615F0C1FC04
:1056100000224021284615F0BCFC00220421344819
:1056200015F0B7FC00BF00BF00BF00BF00BF00BF48
:1056300000BF00BF00BF00BF00BF00BF00BF00BF72
:1056400000BF00BF00BF00BF00BF00BF0020FFF7CA
:105650009BFE0020FFF7F8FE0020FFF757FF254BC9
:10566000492225A12BA02FF073FABDE87040214BF1
:105670004A2221A12FA02FF06BBA38B53448B0F8D8
:105680008C0AC0F30B042046FFF77EFE314B5122FB
:1056900019A131A000942FF05BFA38BD38B52C4821
:1056A000B0F88E0AC0F30B042046FFF7CDFE20466B
:1056B000FFF72CFF2F4B58220FA12FA000942FF0A3
:1056C00047FA38BD10B50020FFF75EFE0020FFF757
:1056D000BBFE0020FFF71AFFBDE810402D4B5F22F4
:1056E00005A12DA02FF034BA0008024000040240AA
:1056F000000C0240998F04082E2E5C2E2E5C7350F5
:105700006C63506F72745C73506C634461632E639E
:105710000000000025732C25642C25733A696E69FE
:10572000742064616320767265663D323034386D72
:10573000560A000025732C25642C25733A696E697E
:10574000742064616320646F6E65210A00000000AC
:10575000B00100208B8F040825732C25642C257341
:105760003A75706461746520646163303D25640A34
:1057700000000000928F040825732C25642C2573EB
:105780003A75706461746520646163313D25640A13
:1057900000000000858F040825732C25642C2573D8
:1057A0003A636C65617220616C6C20646163210AEC
:1057B0000000000030490020488008802F494860E0
:1057C000088070472C4B1A88511CC1F30B01B3F8A9
:1057D00002C08C4504D003F1040C02F80C001980BF
:1057E0007047254A51881388994206D0131DCB5C17
:1057F0000370481CC0F30B00508070471E4801889E
:105800004088081A00F58050C11700EB11516FF362
:105810000B01401A80B270472DE9F84304460D464B
:1058200000270097FFF7EAFF18B3144E6FF44038D3
:105830006846FFF7D6FF32881AB99DF80000EE28B7
:1058400013D1AA4204D29DF80010501C3080A154FC
:105850009DF80000716840EA01227260424504D15F
:10586000308877603780BDE8F883FFF7C7FF0028EE
:10587000DED10020BDE8F883F03900202C000020A4
:10588000002807DD4FF47A71491E0029FCDC401E18
:105890000028F7DC704710B504462078002806D0B1
:1058A000207802F079FA641C20780028F8D110BD25
:1058B00070B506460D460024002D06D9305D02F075
:1058C0006BFA601C84B2AC42F8D370BD70B505466B
:1058D0000E460024002E0CD935F81400000A02F000
:1058E0005BFA15F8140002F057FA601C84B2B44257
:1058F000F2D370BD10B5EE2002F04EFA042002F093
:105900004BFAFF2002F048FAFC2002F045FAFF2093
:1059100002F042FABDE81040FF2002F03DBA10B597
:105920000446EE2002F038FA412002F035FA200A4F
:1059300002F032FAE0B202F02FFAFF2002F02CFA65
:10594000FC2002F029FAFF2002F026FABDE8104000
:10595000FF2002F021BA10B50446EE2002F01CFA36
:10596000422002F019FA200A02F016FAE0B202F020
:1059700013FAFF2002F010FAFC2002F00DFAFF20CB
:1059800002F00AFABDE81040FF2002F005BA70B537
:1059900006460C461546EE2002F0FEF9A32002F062
:1059A000FBF9304602F0F8F9200A02F0F5F9E0B20E
:1059B00002F0F2F9280A02F0EFF9E8B202F0ECF98D
:1059C000FF2002F0E9F9FC2002F0E6F9FF2002F0E6
:1059D000E3F9BDE87040FF2002F0DEB910B5EE201B
:1059E00002F0DAF9012002F0D7F9FF2002F0D4F931
:1059F000FC2002F0D1F9FF2002F0CEF9BDE8104002
:105A0000FF2002F0C9B970B505460C46EE2002F041
:105A1000C3F9432002F0C0F9284602F0BDF9204640
:105A200002F0BAF9FF2002F0B7F9FC2002F0B4F955
:105A3000FF2002F0B1F9BDE87040FF2002F0ACB9E0
:105A400070B506460C461546EE2002F0A5F9452035
:105A500002F0A2F9304602F09FF9200A02F09CF908
:105A6000E0B202F099F9280A02F096F9E8B202F0E1
:105A700093F9FF2002F090F9FC2002F08DF9FF204D
:105A800002F08AF9BDE87040FF2002F085B970B5D8
:105A900004460D46EE2002F07FF9442002F07CF926
:105AA000200A02F079F9E0B202F076F9280A02F051
:105AB00073F9E8B202F070F9FF2002F06DF9FC20F2
:105AC00002F06AF9FF2002F067F9BDE87040FF209C
:105AD00002F062B92DE9F0410446069E0D461746D4
