:020000040801F1
:10000000886801204D030108DD110108E311010892
:10001000E5110108E7110108E911010800000000DD
:100020000000000000000000000000008D02010838
:10003000EB11010800000000E9020108553C02082C
:1000400067030108670301086703010867030108E4
:1000500067030108ED110108670301086703010840
:1000600067030108670301086703010867030108C4
:1000700067030108670301086703010867030108B4
:10008000EF11010867030108F51101086703010872
:100090006703010867030108670301086703010894
:1000A00067030108FB1101086703010867030108E2
:1000B0006703010867030108670301086703010874
:1000C0006703010867030108670301086703010864
:1000D0006703010867030108670301086703010854
:1000E0006703010867030108670301086703010844
:1000F00001120108071201086703010867030108DC
:100100006703010867030108670301086703010823
:100110000D120108670301081312010867030108A3
:100120001912010867030108670301086703010842
:1001300067030108000000000000000067030108D9
:100140006703010867030108670301081F1201081C
:1001500067030108670301086703010867030108D3
:1001600067030108670301086703010867030108C3
:100170006703010867030108000000000000000099
:10018000670301086703010800F002F800F06EF849
:100190000AA090E8000C82448344AAF10107DA45E2
:1001A00001D100F063F8AFF2090EBAE80F0013F0C6
:1001B000010F18BFFB1A43F00103184740E9010083
:1001C00060E901000A444FF0000C10F8013B13F005
:1001D000070408BF10F8014B1D1108BF10F8015BA0
:1001E000641E05D010F8016B641E01F8016BF9D193
:1001F00013F0080F1EBF10F8014BAD1C0C1B09D1EA
:100200006D1E58BF01F801CBFAD505E014F8016B5B
:1002100001F8016B6D1EF9D59142D6D370470000ED
:100220000023002400250026103A28BF78C1FBD8FF
:10023000520728BF30C148BF0B60704764291DF0CA
:10024000858575291DF0828578291DF0BB85732968
:100250001EF04A80002070471FB51EF0FFF89DE891
:1002600003001DF087FF1FBD10B510BD1EF07BF809
:100270001146FFF7F1FF00F0D4F81EF099F803B42F
:10028000FFF7F2FF03BC01F0CDF800002C4B19681A
:100290000868B0E8F04F80F30988BFF36F8F4FF024
:1002A000000080F3118870470000000008480068D3
:1002B000006880F308884FF0000080F3148862B66D
:1002C00061B6BFF34F8FBFF36F8F00DF00BF00BF7A
:1002D00008ED00E0DFF80C00016841F470010160F6
:1002E000704700BF88ED00E0EFF30980BFF36F8F28
:1002F000134B1A681EF0100F08BF20ED108A20E97A
:10030000F04F106009B44FF0500080F31188BFF334
:100310004F8FBFF36F8F12F073FA4FF0000080F32E
:10032000118809BC19680868B0E8F04F1EF0100F7A
:1003300008BFB0EC108A80F30988BFF36F8F704755
:1003400030000020EFF30580704700000948804727
:1003500009480047FEE7FEE7FEE7FEE7FEE7FEE7A7
:10036000FEE7FEE7FEE7FEE704480549054A064BBF
:1003700070470000491301088901010888280120FD
:1003800088680120884801208848012072B6FEE76D
:1003900030B593B00024089409940A940B94019406
:1003A00002940394049405943948016841F0805103
:1003B0000160006800F0805000903648016841F408
:1003C00080410160006800F48040009001200690A8
:1003D0000004079002250C9580010D9019200E90C5
:1003E0004FF4A8700F9010950720119006A808F000
:1003F000A9F808B1FFF7CAFF0F20019002950394F6
:100400004FF4A05004904FF480500590052101A8AE
:1004100008F008FB08B1FFF7B9FF08F0FBFB13B0C9
:1004200030BD09F015FCFFF7B3FF00F035F800F020
:10043000A9FA00F00BF900F013FA00F0C9FA00F085
:10044000B9FB00F0BDFD00F0D3FD00F0E9FD00F0C8
:10045000D5F900F02BFB00F055FC00F074FC00F027
:10046000CBFC00F087FC00F0F1FB15F079F813F0FD
:10047000FEFB00F0DDF813F032FCFEE70068A0F1AF
:100480008041B1F5E05101D109F015BC7047000081
:1004900040380240007000402DE9F04786B000244B
:1004A000019402940394049405945948016841F01E
:1004B00004010160016801F004010091016841F04C
:1004C00080010160016801F080010091016841F044
:1004D00001010160016801F001010091016841F032
:1004E00002010160016801F002010091016841F020
:1004F00008010160006800F008000090454F0022EC
:100500004FF61F41384608F00CFEDFF80C81002240
:1005100042F6FC01404608F004FE01221103404669
:1005200008F0FFFDDFF8F4900022B915484608F006
:10053000F8FDDFF8ECA000220421504608F0F1FDA0
:100540004FF60E4001900125029502260396049471
:1005500001A9384608F030FC0195029503950494F2
:1005600001A9384608F028FC102001900295039458
:10057000049401A9384608F01FFC4FF4087001905C
:100580000294039501A9384608F016FC44F2014094
:1005900001900294039501A9404608F00DFC0196D4
:1005A0000294039401A9404608F006FC41F284003D
:1005B000019002950395049401A9404608F0FCFBC4
:1005C000E802019002950394049401A9404608F0C2
:1005D000F3FB42F27800019002950396049401A97E
:1005E000404608F0E9FB2802019002950396049426
:1005F00001A9484608F0E0FB04200190029503950C
:10060000049401A9504608F0D7FB06B0BDE8F08776
:10061000303802400008024000040240000002405E
:10062000000C024014F0BEFF012013F02AFEFBE78D
:1006300010B5044A0021AFF2130013F001FC024987
:10064000086010BD68E402080000002070B584B0A6
:100650000020009001900290039061495F4A0A6077
:100660004FF480324A60886001250D610D7681F873
:100670002000C8625B4A8A62C8600624CC6181F8A7
:1006800030504861084609F045FC08B1FFF77EFE8E
:100690000526009601950294694651480AF08DF8A6
:1006A00008B1FFF773FE00940220019069464C48A0
:1006B0000AF083F808B1FFF769FE072000900320D5
:1006C0000190694646480AF078F808B1FFF75EFEE7
:1006D0001020009004200190694641480AF06DF80E
:1006E00008B1FFF753FE11200090019669463C487F
:1006F0000AF063F808B1FFF749FE12200090019458
:10070000694637480AF059F8002801D0FFF73EFE45
:1007100004B070BD70B586B0064600240194029402
:100720000394049405943168A1F18040B0F59030B1
:1007300038D12D48016841F480710160006800F4EF
:10074000807000902948016841F001010160006853
:1007500000F001000090E02001900320029001A928
:10076000234808F029FB244D224828606C60AC60C7
:10077000EC6000152861400068618000A861EC61B0
:100780002C626C62284608F05CFD08B1FFF7FEFDA4
:10079000B563AE6300220521122009F0DEF81220B5
:1007A00009F00CF906B070BD10B504462068A0F140
:1007B0008041B1F5903110D10B48016821F480716E
:1007C0000160E0210A4808F004FCA06B08F0ACFDD1
:1007D000BDE81040122009F0FFB810BD0020014014
:1007E000800100200100000F4438024030380240F0
:1007F0000000024010640240C801002010B51649F4
:100800001448086008460AF0E6FC002803D0BDE85A
:100810001040FFF7BBBD10BD81B00068A0F1804162
:10082000B1F50C3108D10D48016841F480510160E7
:10083000006800F48050009001B070470068A0F19B
:100840008041B1F50C3104D10448016821F4805194
:100850000160704700300240040000203038024040
:1008600010B582B000240094019440493E480860CD
:1008700008460AF014FD08B1FFF788FD1420009027
:1008800001940022694639480AF099FE002801D0F7
:10089000FFF77CFD02B010BD70B586B0064600249F
:1008A000019402940394049405943168A1F180406A
:1008B000B0F5E8403CD12E48016841F0005101609C
:1008C000006800F0005000902A48016841F00101E2
:1008D0000160006800F001000090102001900320EA
:1008E000029001A9244808F067FA254D23482860A2
:1008F0004FF0606068604020A860EC6000012861F3
:10090000400068618000A8614011E8612C626C625F
:10091000284608F096FC08B1FFF738FDB560AE63D5
:1009200000220521362009F018F8362009F046F893
:1009300006B070BD10B504462068A0F18041B1F545
:10094000E84110D10A48016821F0005101601021EE
:10095000094808F03EFBA06808F0E6FCBDE810403E
:10096000362009F039B810BD00740040280200207C
:1009700040380240303802400000024088600240A7
:100980003C02002008B51148016841F400110160E3
:10099000016801F400110091016841F480010160D7
:1009A000006800F48000009000220521102008F06B
:1009B000D4FF102009F002F800220521382008F0A9
:1009C000CCFFBDE80840382008F0F8BF30380240BE
:1009D00010B531482F4901603049416000218160E4
:1009E000C1604FF48042026141618161C161016275
:1009F0000AF0F1FE002803D0BDE81040FFF7C6BCA6
:100A000010BD00B587B000210291039104910591BA
:100A100006910068A0F18041B1F5A8411FD120489E
:100A2000016841F002010160006800F002000190DD
:100A30004FF4407002901220039001200490059022
:100A40000420069002A9174808F0B6F91648016874
:100A500041F400110160006800F40010019007B03B
:100A600000BD10B50068A0F18041B1F5A8410FD1DB
:100A70000D48016821F4001101600A4C81152046DF
:100A800008F0A7FA61152046BDE8104008F0A1BAA9
:100A900010BD0000005400409C020020A086010010
:100AA00030380240000402404038024010B5164978
:100AB0001448086008460EF07EFE002803D0BDE80A
:100AC0001040FFF763BC10BD81B00068A0F1A041E9
:100AD000B1F5C12108D10D48016841F04001016024
:100AE000006800F04000009001B070470068A0F17D
:100AF000A041B1F5C12104D10448016821F04001B1
:100B00000160704700080650F002002034380240AF
:100B100000B587B0002102910391049105910691DF
:100B20000068FE4902224FF40043B0F1804F2ED0FE
:100B3000A0F1804CBCF5806C16D0A0F1804CBCF5C7
:100B4000C05C0FD1086840F002000860086800F03F
:100B500002000190029303920920069002A9F04836
:100B600008F02AF907B000BD086840F004000860EA
:100B7000086800F0040001904FF4E07002900392C6
:100B8000069202A9E74808F017F907B000BD086807
:100B900040F001000860086800F001000190029335
:100BA000039204920120069002A9DF4808F004F99C
:100BB00007B000BD30B58FB000240A940B940C949C
:100BC0000D94089409940194029403940494059458
:100BD00006940794D5484FF0804101606025456038
:100BE000846041F28831C16004618021816100F03C
:100BF000B7FE08B1FFF7CAFB4FF480500A900AA96C
:100C0000CA4803F068FF08B1FFF7C0FBC74801F00E
:100C100043FC08B1FFF7BAFB0894099408A9C3483C
:100C200005F061FA08B1FFF7B1FB01950294039456
:100C30000594002201A9BD4803F015FB08B1FFF798
:100C4000A5FBBA48FFF764FF0FB030BD10B58EB0FA
:100C500000240A940B940C940D9408940994019424
:100C6000029403940494059406940794B148B049FF
:100C700001604FF49651416084606421C160046159
:100C80008021816100F06CFE08B1FFF77FFB4FF41B
:100C900080500A900AA9A74803F01DFF08B1FFF78A
:100CA00075FBA44801F0F8FB08B1FFF76FFB08944F
:100CB000099408A99F4805F016FA08B1FFF766FBEA
:100CC00060200190029403940594002201A99948A0
:100CD00003F0C9FA08B1FFF759FB042201A99548AE
:100CE00003F0C1FA08B1FFF751FB082201A99148AE
:100CF00003F0B9FA08B1FFF749FB8E48FFF708FF88
:100D00000EB010BD10B582B00024009401948B4841
:100D1000894901600A21416084601E21C1608021EF
:100D2000816100F01DFE08B1FFF730FB202000902C
:100D300001946946814805F0D6F9002801D0FFF7F3
:100D400025FB02B010BD10B57E487D490160A82189
:100D50004160002181604FF47A72C260016180219C
:100D6000816100F0FDFD002803D0BDE81040FFF7D1
:100D70000DBB10BD10B58CB00024089409940A94E2
:100D80000B9401940294039404940594069407949C
:100D90006E486D4901602E21416084606421C1600C
:100DA0004FF4807101618021816100F0D9FD08B1AB
:100DB000FFF7ECFA4FF48050089008A9634803F05D
:100DC0008AFE08B1FFF7E2FA604801F065FB08B15E
:100DD000FFF7DCFA6020019002940394059404224A
:100DE00001A95A4803F03FFA08B1FFF7CFFA574874
:100DF000FFF78EFE0CB010BD10B556485449016087
:100E000054214160002181604FF47A72C260016117
:100E10008021816100F0A4FD002803D0BDE81040CE
:100E2000FFF7B4BA10BD08B500684B49B0F1804F68
:100E300032D0A0F18042B2F5806224D0A0F180428D
:100E4000B2F5A05231D0A0F18042B2F5A23235D035
:100E5000A0F18042B2F5C05243D0A0F18042B2F579
:100E6000005218D1086840F480700860086800F4E7
:100E70008070009005212D2008F06FFDBDE808402E
:100E80002D2008F09BBD086840F00200086008684B
:100E900000F00200009008BD086840F00100086002
:100EA000086800F00100009008BD086840F02000CC
:100EB0000860086800F02000009008BD274801681D
:100EC00041F400310160006800F40030009000221D
:100ED0000521192008F041FDBDE80840192008F05F
:100EE0006DBD086840F040000860086800F04000F0
:100EF000009008BD00681849B0F1804F47D0A0F1BC
:100F00008042B2F580623DD0A0F18042B2F5A0529D
:100F100042D0A0F18042B2F5A23221E03038024046
:100F200000040240000802400000024000030020CC
:100F300000040040480300200014004090030020FB
:100F400000440140D8030020001800402004002085
:100F5000002000406804002040380240443802402D
:100F60001FD0A0F18042B2F5C05222D0A0F1804241
:100F7000B2F500520AD1086820F4807008602D2074
:100F800008F02ABD086820F0020008607047086871
:100F900020F0010008607047086820F02000086019
:100FA00070470648016821F400310160192008F0FB
:100FB00013BD086820F040000860704744380240C4
:100FC00010B57D487B4901604FF4E131416000215B
:100FD0008160C16001610C2242618161C1610EF0DA
:100FE0004EFD002803D0BDE81040FFF7CFB910BD7B
:100FF00010B57348714901604FF4E131416000213F
:101000008160C16001610C2242618161C1610EF0A9
:1010100036FD002803D0BDE81040FFF7B7B910BD7A
:1010200010B56948674901604FF4E1314160002122
:101030008160C16001610C2242618161C1610EF079
:101040001EFD002803D0BDE81040FFF79FB910BD7A
:1010500030B587B00021029103910491059106916A
:1010600001685A4B5A4A5B48A1F180444FF0020C88
:10107000B4F5984428D00724A1F18045B5F588350A
:1010800047D0A1F18045B5F588451BD1196841F4D9
:1010900000311960196801F400310191116841F0C3
:1010A00001011160116801F0010101910C2102910F
:1010B000CDF80CC0CDF810C001210591069402A90D
:1010C00007F07AFE07B030BD196841F400211960BD
:1010D000196801F400210191116841F001011160CA
:1010E000116801F00101019103210291CDF80CC0BA
:1010F000CDF810C00821069102A907F05DFE00227C
:101100000521342008F029FC342008F057FC07B0F2
:1011100030BD31490B6843F010030B60096801F0E2
:1011200010010191116841F001011160116801F095
:10113000010101914FF4C0610291CDF80CC00694F9
:1011400002A907F039FE07B030BD10B501681F4A8B
:101150002048A1F18043B3F5984312D0A1F1804318
:10116000B3F5883319D0A1F18043B3F588431FD17B
:10117000116821F400311160BDE810400C2107F026
:1011800028BF116821F400211160032107F021FF1D
:10119000BDE81040342008F01FBC0F490A6822F057
:1011A00010020A60BDE810404FF4C06107F011BFA3
:1011B00010BD0000004C0040B004002000100140B1
:1011C000F804002000440040400500204038024060
:1011D00030380240000002404438024007F0BCFDB5
:1011E000FEE7FEE7FEE7FEE7FEE7704770470D48C3
:1011F00008F04ABA0C4809F0ECB80C4802F08DBD72
:101200000B4802F08ABD0B4802F087BD0A480FF078
:1012100081BC0A480AF079B9094808F035BA09488A
:1012200005F0C3BD3C02002080010020D80300204F
:101230008805002068040020B00400202802002057
:10124000C80100200424012008B51048016841F4B9
:1012500080410160006800F4804000900C48016803
:1012600041F080510160006800F080500090002241
:101270000F21901E08F071FB05210022084608F09E
:101280006CFBBDE80840052008F098BB44380240DC
:101290004038024030B587B0054600242548016833
:1012A00041F080010160006800F08000009001A919
:1012B00002A807F036FD0598A8B107F0B6FC40007B
:1012C0001D49B0FBF1F0411E1D481C4A026040F26E
:1012D000E732C260416004618460846100F040FBD9
:1012E00004461CB115E007F0A0FCE9E7144800F043
:1012F000E7FB04466CB92C2008F060FB102D07D2E8
:10130000002229462C2008F028FB0E48056000E04A
:10131000012407B0204630BD09480068C16821F0AB
:101320000101C160704706480068C16841F00101D1
:10133000C16070474038024040420F00001C00402E
:1013400088050020280000202348016841F470012E
:10135000016022494FF000600860704730B4204CB3
:10136000206800F00C001F4D1F49002811D0DFF845
:101370007CC004280FD0082810D00D602068C0F36E
:1013800003121B48805C0A6822FA00F0086030BC37
:1013900070470D60F2E7C1F800C0EFE7154A10682A
:1013A000C0F38053106800F03F0033B1BCFBF0F095
:1013B0001368C3F38813584305E0B5FBF0F01368D6
:1013C000C3F3881358431268C2F30142521C5200FF
:1013D000B0FBF2F00860D1E788ED00E008ED00E036
:1013E000083802400024F4000C00002040787D0101
:1013F0008CE402080438024038B5044600944FF4E7
:101400007A730122694608480EF0BBFC204638BDBD
:1014100008B564230122694603480EF010FD9DF8CB
:10142000000008BD70477047F804002010B58A49D5
:1014300000200870602189481CF033FE6021884834
:101440001CF02FFE30228549864809F0AEF8BDE831
:101450001040854B0D2285A18BA01CF041BC00687B
:10146000A0F18041B1F5903102D17B490120487053
:101470007047F0B52DED028B87B0774F7878002854
:10148000FCD000267E703878874DB4EE008A6C461A
:10149000002871D0734809F055F930226F4971481E
:1014A00009F083F83E700096019602960396049622
:1014B000059600206A4A002101EB410C00EB4C0C20
:1014C00054F8203032F81CC0634444F82030491CE2
:1014D000C9B20829F0D3401CC0B20628EBD39DED59
:1014E000000AB8EE400A20EE080ABCEEC00A10EE70
:1014F000100AA5F8660A9DED010AB8EE400A20EE32
:10150000080ABCEEC00A10EE100AA5F8680A9DEDA4
:10151000020AB8EE400A20EE080ABCEEC00A10EE3D
:10152000100AA5F86A0A9DED030AB8EE400A20EEFB
:10153000080ABCEEC00A10EE100AA5F86C0A9DED70
:10154000040AB8EE400A20EE080ABCEEC00A10EE0B
:10155000100AA5F86E0A9DED050AB8EE400A20EEC5
:10156000080ABCEEC00A10EE100AA5F8700A07B00F
:10157000BDEC028BF0BDFFE73A4809F0E3F83022FA
:101580003749384809F011F8012038700096019663
:1015900002960396049605960020304A002101EB3E
:1015A000410C00EB4C0C54F8203032F81CC0634462
:1015B00044F82030491CC9B20829F0D3401CC0B2FD
:1015C0000628EBD39DED000AB8EE400A20EE080A8B
:1015D000BCEEC00A10EE100AA5F8660A9DED010ADD
:1015E000B8EE400A20EE080ABCEEC00A10EE100A5F
:1015F000A5F8680A9DED020AB8EE400A20EE080A36
:10160000BCEEC00A10EE100AA5F86A0A9DED030AA6
:10161000B8EE400A20EE080ABCEEC00A10EE100A2E
:10162000A5F86C0A9DED040AB8EE400A20EE080AFF
:10163000BCEEC00A10EE100AA5F86E0A9DED050A70
:10164000B8EE400A20EE080ABCEEC00A10EE100AFE
:10165000A5F8700A8BE7000014000020B02C0020D1
:10166000102D002080010020A4E402082E2E5C2E04
:101670002E5C73506C63506F72745C73506C63417A
:1016800064632E630000000025732C25642C2573F1
:101690003A73746172742061646320696E69742E98
:1016A0002E2E2E2E2E0A0000D005002030490020BC
:1016B000488008802F494860088070472C4B1A8862
:1016C000511CC1F30B01B3F802C08C4504D003F1E7
:1016D000040C02F80C0019807047254A51881388C1
:1016E000994206D0131DCB5C0370481CC0F30B005D
:1016F000508070471E4801884088081A00F58050C5
:10170000C11700EB11516FF30B01401A80B2704703
:101710002DE9F84304460D4600270097FFF7EAFF3E
:1017200018B3144E6FF440386846FFF7D6FF32887E
:101730001AB99DF80000EE2813D1AA4204D29DF8F0
:101740000010501C3080A1549DF80000716840EAE0
:1017500001227260424504D1308877603780BDE84D
:10176000F883FFF7C7FF0028DED10020BDE8F8832B
:10177000702D00201800002010B5012227492848AC
:101780000EF0F0FBBDE81040264B282226A12DA02C
:101790001CF0A6BA01B54FF47A73012269462048BD
:1017A0000EF0EFFA002805D02F4B33221EA12FA0F8
:1017B0001CF096FA08BD10B50068A0F18041B1F5A3
:1017C00098410AD115480078FFF778FFBDE810402E
:1017D0000122124912480EF0C5BB10BD10B50068B9
:1017E000A0F18041B1F598410AD10C480078FFF78B
:1017F00065FFBDE810400122084909480EF0B2BB60
:1018000010BD0068A0F18041B1F5984104D10122DA
:10181000024903480EF0A6BB7047000020000020DC
:10182000B0040020B0E402082E2E5C2E2E5C64630F
:10183000486D695C686D6955736572556172742E87
:101840006300000025732C25642C25733A737461A2
:10185000727420686D69207561727420696E697494
:101860002E2E2E2E2E2E0A00BCE4020825732C25C7
:10187000642C25733A686D692075617274207478E0
:101880002074696D656F7574212121210A000000A3
:10189000F0B40268FC4BDFF8F4C3FD4DFD4EFE4C86
:1018A00098420AD0B0F1804F07D0604505D0A842D9
:1018B00003D0B04201D0A04203D122F070024F68A1
:1018C0003A43984228D0B0F1804F25D0604523D0CC
:1018D000A84221D0B0421FD0A0421DD0A0F1804C20
:1018E000BCF5A03C18D0A0F1804CBCF5A23C13D0B4
:1018F000A0F1804CBCF5A43C0ED0A0F1804CBCF50E
:10190000C05C09D0A0F1804CBCF5E05C04D0A0F133
:10191000804CBCF5005C05D122F44072D1F80CC0BB
:101920004CEA0202D1F814C022F0800242EA0C0212
:1019300002608A68C2620A688262984201D0A0424C
:1019400001D10969016301214161016911F0010FB0
:1019500003D0016921F001010161F0BC70477047BB
:1019600010B50446002C03D094F83D0010B107E0F8
:10197000012010BD002084F83C002046FFF753FAF8
:10198000022084F83D00211D2068FFF781FF01201F
:1019900084F8460084F83E0084F83F0084F8400054
:1019A00084F8410084F8420084F8430084F844003D
:1019B00084F8450084F83D00002010BD704710B544
:1019C0000446022084F83D002068016A41F21112A9
:1019D000114207D1016A9210114203D1016821F02E
:1019E000010101602046FFF785FA002084F84600D7
:1019F00084F83E0084F83F0084F8400084F84100F9
:101A000084F8420084F8430084F8440084F84500D8
:101A100084F83D0084F83C0010BD90F83D10012989
:101A200001D001207047022180F83D100068A0F12C
:101A30008041B1F5803126D0B0F1804F23D0A0F1A4
:101A40008041B1F580611ED0A0F18041B1F5006107
:101A500019D0A0F18041B1F5406114D0A0F18041CE
:101A6000B1F582310FD0A0F18041B1F5A0310AD09B
:101A7000A0F18041B1F5C05105D0016841F00101EC
:101A8000016000207047816801F007010629F8D045
:101A9000016841F001010160F3E701680A6A41F25F
:101AA00011131A4207D10A6A9B101A4203D10A681D
:101AB00022F001020A60012180F83D1000207047E9
:101AC00090F83D10012901D001207047022180F8D3
:101AD0003D100168CA6842F00102CA600068A0F1C6
:101AE0008041B1F5803126D0B0F1804F23D0A0F1F4
:101AF0008041B1F580611ED0A0F18041B1F5006157
:101B000019D0A0F18041B1F5406114D0A0F180411D
:101B1000B1F582310FD0A0F18041B1F5A0310AD0EA
:101B2000A0F18041B1F5C05105D0016841F001013B
:101B3000016000207047816801F007010629F8D094
:101B4000016841F001010160F3E70168CA6822F011
:101B50000102CA6001680A6A41F211131A4207D1F0
:101B60000A6A9B101A4203D10A6822F001020A6035
:101B7000012180F83D1000207047704710B5846B3C
:101B80000121626A824203D1217784F83E1019E074
:101B9000A26A824204D10220207784F83F1011E02B
:101BA000E26A824204D10420207784F8401009E0E0
:101BB000226B824204D10820207784F8411001E092
:101BC00084F83D102046FFF7D8FF0020207710BD95
:101BD000704710B5806BFFF7FBFF10BD704710B565
:101BE000806B016AC969002902D1012180F83D108A
:101BF000FEF744FC10BD10B5044694F83D000228E1
:101C000005D094F83D00012803D0012010BD02202A
:101C100010BDC1B1BAB1022084F83D00236A1F484B
:101C2000D863236A1E481864AFF2AF00236AD864F1
:101C30002068134600F12C0C6246206A07F0EAFB8C
:101C400018B1012010BD012010BD2068C16841F409
:101C50008071C1602068A0F18041B1F5803136D03B
:101C6000B0F1804F33D0A0F18041B1F580612ED02A
:101C7000A0F18041B1F5006129D0A0F18041B1F51A
:101C8000406124D00EE0000000000140000400404C
:101C900000080040000C004000040140DF1B010868
:101CA000D31B0108A0F18041B1F582310FD0A0F122
:101CB0008041B1F5A0310AD0A0F18041B1F5C05109
:101CC00005D0016841F001010160002010BD81686C
:101CD00001F007010629F8D0016841F00101016017
:101CE000F3E710B504462068C16821F48071C16033
:101CF000206A07F018FC2068016A41F211121142B3
:101D000007D1016A9210114203D1016821F001014B
:101D10000160012084F83D00002010BD704710B51F
:101D20000446002C03D094F83D0010B107E00120D8
:101D300010BD002084F83C002046FFF7EFFF022092
:101D400084F83D00211D2068FFF7A2FD012084F8E2
:101D5000460084F83E0084F83F0084F8400084F890
:101D6000410084F8420084F8430084F8440084F879
:101D7000450084F83D00002010BD704710B50446B2
:101D8000022084F83D002068016A41F211121142DC
:101D900007D1016A9210114203D1016821F00101BB
:101DA00001602046FFF7E9FF002084F8460084F830
:101DB0003E0084F83F0084F8400084F8410084F835
:101DC000420084F8430084F8440084F8450084F815
:101DD0003D0084F83C0010BD01F01F0101238B4041
:101DE000D0F820C02CEA03030362036A02FA01F16F
:101DF00019430162704710B50446002909D004292F
:101E00000AD008290BD094F8410001280AD00120FB
:101E100010BD94F83E00F8E794F83F00F5E794F819
:101E20004000F2E70220D9B3042947D0082948D05E
:101E300084F8410001222068FFF7CEFFF74A2068AE
:101E4000F749904201D0884203D1436C43F40043E8
:101E500043642068904224D0B0F1804F21D0A0F19B
:101E60008042B2F580621CD0A0F18042B2F50062DF
:101E700017D0A0F18042B2F5406212D0884210D053
:101E8000A0F18041B1F5A0310BD0A0F18041B1F5B6
:101E9000C05106D0016841F001010160002010BD71
:101EA00009E0816801F007010629F7D0016841F0D7
:101EB00001010160F2E784F83E00BBE784F83F00CF
:101EC000B8E784F84000B5E730B504460D46002277
:101ED00029462068FFF780FF206841F211118A101F
:101EE000A0F18043B3F5803304D0A0F18043B3F573
:101EF000823309D1036A0B4206D1036A134203D12C
:101F0000436C23F4004343642068036A0B4206D108
:101F1000016A114203D1016821F001010160012031
:101F20003DB1042D08D0082D09D084F841000020CF
:101F300030BD84F83E00FAE784F83F00F7E784F804
:101F40004000F4E730B504460025002909D00429F3
:101F50000AD008290BD094F8410001280AD00120AA
:101F600030BD94F83E00F8E794F83F00F5E794F8A8
:101F70004000F2E7022079B1042910D0082911D0DD
:101F800084F8410089B1042915D0082919D00C29F9
:101F90001DD001250DB354E084F83E00F2E784F82B
:101FA0003F00EFE784F84000ECE72068C26842F0A9
:101FB0000202C260EEE72068C26842F00402C2601A
:101FC000E8E72068C26842F00802C260E2E72068E1
:101FD000C26842F01002C260DCE701222068FFF70D
:101FE000FBFE8E4A20688E49904201D0884203D180
:101FF000436C43F4004343642068904223D0B0F123
:10200000804F20D0A0F18042B2F580621BD0A0F1B9
:102010008042B2F5006216D0A0F18042B2F5406273
:1020200011D088420FD0A0F18041B1F5A0310AD083
:10203000A0F18041B1F5C05105D0016841F0010126
:102040000160284630BD816801F007010629F8D0FB
:10205000016841F001010160F3E770B504460D46E7
:102060000026002D08D0042D0CD0082D10D00C2DEA
:1020700014D00126C6B147E02068C16821F00201F2
:10208000C160F7E72068C16821F00401C160F1E791
:102090002068C16821F00801C160EBE72068C168D1
:1020A00021F01001C160E5E7002229462068FFF712
:1020B00093FE206841F211118A10A0F18043B3F51C
:1020C000803304D0A0F18043B3F5823309D1036A91
:1020D0000B4206D1036A134203D1436C23F400433D
:1020E00043642068036A0B4206D1016A114203D19E
:1020F000016821F00101016001203DB1042D08D0EB
:10210000082D09D084F84100304670BD84F83E00A7
:10211000FAE784F83F00F7E784F84000F4E77047F7
:1021200010B5846B616A814202D10120207710E0F2
:10213000A16A814202D1022020770AE0E16A81424D
:1021400002D10420207704E0216B814201D10820D4
:1021500020772046FFF7E3FF0020207710BD70476F
:1021600010B5846B0121626A824205D12177C06972
:10217000F8B984F83E101CE0A26A824206D102221D
:102180002277C069A8B984F83F1012E0E26A82425F
:1021900006D104222277C06958B984F8401008E0BB
:1021A000226B824205D108222277C06908B984F8DF
:1021B00041102046FFF7D3FF0020207710BD2DE906
:1021C000F04104460D4617460026002D13D0042D7D
:1021D00014D0082D15D094F84100022814D0B5B1C0
:1021E000042D17D0082D1DD094F8410001281CD0D3
:1021F0000120BDE8F08194F83E00EEE794F83F003E
:10220000EBE794F84000E8E70220BDE8F08194F89D
:102210003E00EBE794F83F00E8E7000000000140D3
:102220000004014094F84000E0E74FB143B10220C0
:102230004DB1042D0AD0082D0BD084F841000AE0DE
:102240000120BDE8F08184F83E0004E084F83F00FE
:1022500001E084F84000FE48AFF23B11AFF2E36CBE
:102260004DB1042D1FD0082D35D00C2D4BD001269B
:10227000002E60D094E0626AD063606A0164606A94
:10228000C0F84CC02068394600F13402606A07F09B
:10229000C1F810B10120BDE8F0812068C16841F4A7
:1022A0000071C160E4E7A26AD063A06A0164A06A19
:1022B000C0F84CC02068394600F13802A06A07F027
:1022C000A9F810B10120BDE8F0812068C16841F48F
:1022D0008061C160CCE7E26AD063E06A0164E06AD1
:1022E000C0F84CC02068394600F13C02E06A07F0B3
:1022F00091F810B10120BDE8F0812068C16841F477
:102300000061C160B4E7226BD063206B0164206B75
:10231000C0F84CC02068394600F14002206B07F03D
:1023200079F810B10120BDE8F0812068C16841F45E
:102330008051C1609CE7012229462068FFF74CFDCF
:10234000C4492068C44A884201D0904203D1436CFA
:1023500043F4004343642068884224D0B0F1804FA6
:1023600021D0A0F18041B1F580611CD0A0F1804165
:10237000B1F5006117D0A0F18041B1F5406112D0F4
:10238000904210D0A0F18041B1F5A0310BD0A0F166
:102390008041B1F5C05106D0016841F001010160F2
:1023A0003046BDE8F081816801F007010629F7D0C9
:1023B000016841F001010160F2E770B504460D4685
:1023C0000026002D08D0042D0FD0082D16D00C2D7E
:1023D0001DD0012626B353E02068C16821F40071A6
:1023E000C160606A07F09FF8F4E72068C16821F4D3
:1023F0008061C160A06A07F096F8EBE72068C168C9
:1024000021F40061C160E06A07F08DF8E2E720681E
:10241000C16821F48051C160206B07F084F8D9E7CE
:10242000002229462068FFF7D7FC206841F21111ED
:102430008A10A0F18043B3F5803304D0A0F180432B
:10244000B3F5823309D1036A0B4206D1036A134202
:1024500003D1436C23F4004343642068036A0B42B6
:1024600006D1016A114203D1016821F00101016026
:1024700001203DB1042D08D0082D09D084F8410079
:10248000304670BD84F83E00FAE784F83F00F7E775
:1024900084F84000F4E7704710B50446002C03D0E0
:1024A00094F83D0010B107E0012010BD002084F831
:1024B0003C002046FFF7EFFF022084F83D00211D7D
:1024C0002068FFF7E5F9012084F8460084F83E0013
:1024D00084F83F0084F8400084F8410084F842000A
:1024E00084F8430084F8440084F8450084F83D00F3
:1024F000002010BD704710B50446022084F83D004E
:102500002068016A41F21112114207D1016A92104A
:10251000114203D1016821F0010101602046FFF75B
:10252000E9FF002084F8460084F83E0084F83F006C
:1025300084F8400084F8410084F8420084F84300A5
:1025400084F8440084F8450084F83D0084F83C0099
:1025500010BD10B50446002909D004290AD0082965
:102560000BD094F8410001280AD0012010BD94F846
:102570003E00F8E794F83F00F5E794F84000F2E7F2
:102580000220D9B3042947D0082948D084F8410053
:1025900001222068FFF720FC2E4A20682E49904235
:1025A00001D0884203D1436C43F400434364206864
:1025B000904224D0B0F1804F21D0A0F18042B2F5FA
:1025C00080621CD0A0F18042B2F5006217D0A0F169
:1025D0008042B2F5406212D0884210D0A0F1804112
:1025E000B1F5A0310BD0A0F18041B1F5C05106D0BA
:1025F000016841F001010160002010BD09E081681F
:1026000001F007010629F7D0016841F001010160DE
:10261000F2E784F83E00BBE784F83F00B8E784F8AF
:102620004000B5E730B504460D4600222946206833
:10263000FFF7D2FB206841F211118A10A0F180430C
:10264000B3F580330BD0A0F18043B3F5823305E0BE
:1026500061210108000001400004014009D1036A22
:102660000B4206D1036A134203D1436C23F40043A7
:1026700043642068036A0B4206D1016A114203D108
:10268000016821F00101016001203DB1042D08D055
:10269000082D09D084F84100002030BD84F83E00A8
:1026A000FAE784F83F00F7E784F84000F4E730B534
:1026B00004460025002909D004290AD008290BD096
:1026C00094F8410001280AD0012030BD94F83E0062
:1026D000F8E794F83F00F5E794F84000F2E70220AD
:1026E00079B1042910D0082911D084F8410089B1AA
:1026F000042915D0082919D00C291DD001250DB3A6
:1027000054E084F83E00F2E784F83F00EFE784F8F5
:102710004000ECE72068C26842F00202C260EEE7C7
:102720002068C26842F00402C260E8E72068C2681C
:1027300042F00802C260E2E72068C26842F010027C
:10274000C260DCE701222068FFF746FBFD4A2068F3
:10275000FD49904201D0884203D1436C43F40043C9
:1027600043642068904223D0B0F1804F20D0A0F184
:102770008042B2F580621BD0A0F18042B2F50062C7
:1027800016D0A0F18042B2F5406211D088420FD03D
:10279000A0F18041B1F5A0310AD0A0F18041B1F59E
:1027A000C05105D0016841F001010160284630BDEB
:1027B000816801F007010629F8D0016841F00101A4
:1027C0000160F3E770B504460D460026002D08D0E1
:1027D000042D0CD0082D10D00C2D14D00126C6B11C
:1027E00047E02068C16821F00201C160F7E7206876
:1027F000C16821F00401C160F1E72068C16821F0DF
:102800000801C160EBE72068C16821F01001C160D8
:10281000E5E7002229462068FFF7DEFA206841F24A
:1028200011118A10A0F18043B3F5803304D0A0F1D8
:102830008043B3F5823309D1036A0B4206D1036AA0
:10284000134203D1436C23F4004343642068036ABA
:102850000B4206D1016A114203D1016821F0010146
:10286000016001203DB1042D08D0082D09D084F865
:102870004100304670BD84F83E00FAE784F83F001E
:10288000F7E784F84000F4E72DE9F04104460D46EF
:1028900017460026002D13D0042D14D0082D15D076
:1028A00094F84100022814D0B5B1042D17D0082D9A
:1028B00018D094F84100012817D00120BDE8F0811C
:1028C00094F83E00EEE794F83F00EBE794F8400000
:1028D000E8E70220BDE8F08194F83E00EBE794F8C9
:1028E0003F00E8E794F84000E5E74FB143B102202C
:1028F0004DB1042D0AD0082D0BD084F841000AE018
:102900000120BDE8F08184F83E0004E084F83F0037
:1029100001E084F840008D48AFF2FB71AFF6A35C94
:102920004DB1042D1FD0082D35D00C2D4BD00126D4
:10293000002E60D094E0626AD063606A0164606ACD
:10294000C0F84CC02068394600F13402606A06F0D5
:1029500061FD10B10120BDE8F0812068C16841F43B
:102960000071C160E4E7A26AD063A06A0164A06A52
:10297000C0F84CC02068394600F13802A06A06F061
:1029800049FD10B10120BDE8F0812068C16841F423
:102990008061C160CCE7E26AD063E06A0164E06A0A
:1029A000C0F84CC02068394600F13C02E06A06F0ED
:1029B00031FD10B10120BDE8F0812068C16841F40B
:1029C0000061C160B4E7226BD063206B0164206BAF
:1029D000C0F84CC02068394600F14002206B06F078
:1029E00019FD10B10120BDE8F0812068C16841F4F3
:1029F0008051C1609CE7012229462068FFF7ECF96D
:102A000050492068504A884201D0904203D1436C1B
:102A100043F4004343642068884224D0B0F1804FDF
:102A200021D0A0F18041B1F580611CD0A0F180419E
:102A3000B1F5006117D0A0F18041B1F5406112D02D
:102A4000904210D0A0F18041B1F5A0310BD0A0F19F
:102A50008041B1F5C05106D0016841F0010101602B
:102A60003046BDE8F081816801F007010629F7D002
:102A7000016841F001010160F2E770B504460D46BE
:102A80000026002D08D0042D0FD0082D16D00C2DB7
:102A90001DD0012626B353E02068C16821F40071DF
:102AA000C160606A06F03FFDF4E72068C16821F468
:102AB0008061C160A06A06F036FDEBE72068C1685E
:102AC00021F40061C160E06A06F02DFDE2E72068B4
:102AD000C16821F48051C160206B06F024FDD9E764
:102AE000002229462068FFF777F9206841F211118A
:102AF0008A10A0F18043B3F5803304D0A0F1804365
:102B0000B3F5823309D1036A0B4206D1036A13423B
:102B100003D1436C23F4004343642068036A0B42EF
:102B200006D1016A114203D1016821F0010101605F
:102B300001206DB1042D0ED0082D0FD084F8410076
:102B4000304670BD000001400004014061210108D1
:102B500084F83E00F4E784F83F00F1E784F8400091
:102B6000EEE7704710B50446002C03D094F83D0002
:102B700010B107E0012010BD002084F83C00204681
:102B8000FFF7EFFF022084F83D00211D2068FEF7CB
:102B90007FFE012084F8460084F83E0084F83F0060
:102BA00084F8400084F8410084F8420084F843002F
:102BB00084F8440084F8450084F83D00002010BDEE
:102BC000704710B50446022084F83D002068016A71
:102BD00041F21112114207D1016A9210114203D140
:102BE000016821F0010101602046FFF7E9FF0020A4
:102BF00084F8460084F83E0084F83F0084F84000E2
:102C000084F8410084F8420084F8430084F84400CA
:102C100084F8450084F83D0084F83C0010BD10B5F0
:102C2000044600290FD0042910D0082911D094F8A7
:102C3000410089B1042912D0082913D094F8452005
:102C4000012814D111E094F83E00F2E794F83F0017
:102C5000EFE794F84000ECE794F84220F0E794F8AE
:102C60004320EDE794F84420EAE7012A01D001204F
:102C700010BD0220E9B304294AD008294BD084F8BA
:102C80004100B9B304294CD008294DD084F845003F
:102C900001222068FFF7A0F82068A0F18041B1F57B
:102CA000803128D0B0F1804F25D0A0F18041B1F51E
:102CB000806120D0A0F18041B1F500611BD0A0F16E
:102CC0008041B1F5406116D0A0F18041B1F582316B
:102CD00011D0A0F18041B1F5A0310CD0A0F180411C
:102CE000B1F5C05107D0016841F001010160002039
:102CF00010BD0AE012E0816801F007010629F6D054
:102D0000016841F001010160F1E784F83E00B8E795
:102D100084F83F00B5E784F84000B2E784F8420049
:102D2000B6E784F84300B3E784F84400B0E730B571
:102D300004460D46002229462068FFF74DF820681A
:102D4000016A41F21112114207D1016A9210114237
:102D500003D1016821F001010160012075B1042D4A
:102D60000FD0082D10D084F8410085B1042D11D06A
:102D7000082D12D084F84500002030BD84F83E00B4
:102D8000F3E784F83F00F0E784F84000EDE784F8CB
:102D90004200F1E784F84300EEE784F84400EBE7F3
:102DA00030B50446002500290FD0042910D0082989
:102DB00011D094F8410089B1042912D0082913D008
:102DC00094F84520012814D111E094F83E00F2E770
:102DD00094F83F00EFE794F84000ECE794F84220C5
:102DE000F0E794F84320EDE794F84420EAE7012A5D
:102DF00001D0012030BD0220B1B1042917D008292B
:102E000018D084F84100C1B1042919D008291AD07A
:102E100084F84500D1B104291ED0082922D00C29FC
:102E200026D0012555B358E084F83E00EBE784F83E
:102E30003F00E8E784F84000E5E784F84200E9E76E
:102E400084F84300E6E784F84400E3E72068C268BA
:102E500042F00202C260E5E72068C26842F0040264
:102E6000C260DFE72068C26842F00802C260D9E7AA
:102E70002068C26842F01002C260D3E701222068D5
:102E8000FEF7AAFF2068A0F18041B1F5803126D07D
:102E9000B0F1804F23D0A0F18041B1F580611ED008
:102EA000A0F18041B1F5006119D0A0F18041B1F5E8
:102EB000406114D0A0F18041B1F582310FD0A0F172
:102EC0008041B1F5A0310AD0A0F18041B1F5C051E7
:102ED00005D0016841F001010160284630BD8168DC
:102EE00001F007010629F8D0016841F001010160F5
:102EF000F3E770B504460D460026002D08D0042DDA
:102F00000CD0082D10D00C2D14D00126C6B139E0FC
:102F10002068C16821F00201C160F7E72068C1683C
:102F200021F00401C160F1E72068C16821F00801C7
:102F3000C160EBE72068C16821F01001C160E5E7DE
:102F4000002229462068FEF747FF2068016A41F207
:102F50001112114207D1016A9210114203D1016886
:102F600021F001010160012075B1042D0FD0082D61
:102F700010D084F8410085B1042D11D0082D12D055
:102F800084F84500304670BD84F83E00F3E784F8CD
:102F90003F00F0E784F84000EDE784F84200F1E7F5
:102FA00084F84300EEE784F84400EBE7704710B57F
:102FB000846B616A814202D10120207710E0A16A0E
:102FC000814202D1022020770AE0E16A814202D1E7
:102FD0000420207704E0216B814201D10820207772
:102FE0002046FFF7E3FF0020207710BD704710B5A3
:102FF000846B0121626A824207D12177C06938BBA4
:1030000084F83E1084F8421022E0A26A824208D17D
:1030100002222277C069D8B984F83F1084F843109F
:1030200016E0E26A824208D104222277C06978B9A8
:1030300084F8401084F844100AE0226B824207D1E1
:1030400008222277C06918B984F8411084F8451025
:103050002046FFF7CBFF0020207710BD2DE9F0417F
:1030600004460D46174698460026002D13D0042D21
:1030700014D0082D15D094F84100ADB1042D16D010
:10308000082D17D094F84510022816D0022914D024
:10309000012815D016E094F83E00EEE794F83F00C2
:1030A000EBE794F84000E8E794F84210ECE794F876
:1030B0004310E9E794F84410E6E70220BDE8F08108
:1030C000012902D00120BDE8F08197B1B8F1000FCD
:1030D0000FD0022085B1042D11D0082D12D084F814
:1030E000410095B1042D13D0082D14D084F845006B
:1030F00013E00120BDE8F08184F83E00F1E784F898
:103100003F00EEE784F84000EBE784F8420004E07B
:1031100084F8430001E084F8440001222946206835
:10312000FEF75AFEAFF23910AFF27D11FE4AA5B399
:10313000042D55D0082D6BD00C2D7BD00126206896
:10314000A0F18041B1F5803128D0B0F1804F25D079
:10315000A0F18041B1F5806120D0A0F18041B1F5AE
:1031600000611BD0A0F18041B1F5406116D0A0F103
:103170008041B1F5823111D0A0F18041B1F5A0318B
:103180000CD0A0F18041B1F5C05107D0016841F0E9
:10319000010101603046BDE8F08109E0816801F07D
:1031A00007010629F6D0016841F001010160F1E74D
:1031B000636AD863606A0164606AC26420684346D7
:1031C00000F134013A46606A06F024F910B101209A
:1031D000BDE8F0812068C16841F40071C160AEE7CC
:1031E000A36AD863A06A0164A06AC26420684346E7
:1031F00000F138013A46A06A06F00CF910B101203E
:10320000BDE8F0812068C16841F48061C16096E743
:10321000E36AD863E06A0164E06AC26420684346F6
:1032200000F13C013A46E06A06F0F4F818B10120DA
:10323000BDE8F08105E02068C16841F40061C1602B
:103240007DE7236BD863206B0164206BC264206828
:10325000434600F140013A46206B06F0DBF810B11E
:103260000120BDE8F0812068C16841F48051C1604F
:1032700065E770B504460D46002600222946206801
:10328000FEF7AAFD45B1042D0FD0082D16D00C2D48
:103290001DD0012626B340E02068C16821F40071EA
:1032A000C160606A06F03FF9F4E72068C16821F464
:1032B0008061C160A06A06F036F9EBE72068C1685A
:1032C00021F40061C160E06A06F02DF9E2E72068B0
:1032D000C16821F48051C160206B06F024F9D9E760
:1032E0002068016A41F21112114207D1016A92105D
:1032F000114203D1016821F001010160012075B183
:10330000042D0FD0082D10D084F8410085B1042D74
:1033100011D0082D12D084F84500304670BD84F8D5
:103320003E00F3E784F83F00F0E784F84000EDE763
:1033300084F84200F1E784F84300EEE784F84400A3
:10334000EBE7704770B504460D46002C03D094F8A7
:103350003D0010B107E0012070BD002084F83C0062
:103360002046FFF7EEFF022084F83D00211D206873
:10337000FEF78EFA2068016821F0080101602068DC
:10338000016829430160012084F8460084F83E006A
:1033900084F83F0084F8420084F8430084F83D003C
:1033A000002070BD704710B50446022084F83D002F
:1033B0002068016A41F21112114207D1016A92108C
:1033C000114203D1016821F0010101602046FFF79D
:1033D000E9FF002084F8460084F83E0084F83F00AE
:1033E00084F8420084F8430084F83D0084F83C00EF
:1033F00010BD10B5044694F83E3094F83F0094F8A0
:10340000421094F84320012B05D1012803D1012952
:1034100001D1012A01D0012010BD022084F83E0014
:1034200084F83F0084F8420084F843000122002120
:103430002068FEF7D1FC012204212068FEF7CCFCB5
:103440002068A0F18041B1F5803104D0A0F1804125
:10345000B1F5823103D1416C41F400414164002057
:1034600010BD10B50446002211462068FEF7B4FCDA
:10347000002204212068FEF7AFFC206841F2111100
:103480008A10A0F18043B3F5803304D0A0F18043CB
:10349000B3F5823309D1036A0B4206D1036A1342A2
:1034A00003D1436C23F4004343642068036A0B4256
:1034B00006D1016A114203D1016821F001010160C6
:1034C000012084F83E0084F83F0084F8420084F82C
:1034D0004300002010BD10B5044694F83E2094F837
:1034E0003F0094F8421094F84330012A05D1012896
:1034F00003D1012901D1012B01D0012010BD0220EF
:1035000084F83E0084F83F0084F8420084F84300C9
:103510002068C16841F00201C1602068C16841F0C3
:103520000401C160012201E07D1B01080021206827
:10353000FEF752FC012204212068FEF74DFC2068B2
:10354000A0F18041B1F5803104D0A0F18041B1F506
:10355000823103D1416C41F400414164002010BD2F
:1035600010B504462068C16821F00201C1602068DE
:10357000C16821F00401C160002211462068FEF7F5
:103580002BFC002204212068FEF726FC206841F273
:1035900011129110A0F18043B3F5803304D0A0F153
:1035A0008043B3F5823309D1036A134206D1036A1B
:1035B0000B4203D1436C23F4004343642068036A45
:1035C000134206D1026A0A4203D1016821F00101C7
:1035D0000160012084F83E0084F83F0084F8420036
:1035E00084F84300002010BD704770B504460D46B6
:1035F000002C03D094F83D0010B107E0012070BD0D
:10360000002084F83C002046FFF7EEFF022084F8FB
:103610003D002068816821F0070121F4804181602C
:10362000211D2068FEF734F9206883688269016AE9
:10363000D5F800C04CEA030322F0030222F44072E2
:10364000AE69D5F808C042EA06224CEA020222F02E
:103650000C0222F4406222F0F00222F47042EE6981
:10366000D5F80CC042EA06224CEA0202D5F810C096
:103670002E6A4FEA0C1C4CEA063C4CEA020221F08E
:10368000220121F08801D5F804C06D6941EA0511D5
:103690004CEA010183602068826120680162012098
:1036A00084F8460084F83E0084F83F0084F8420025
:1036B00084F8430084F83D00002070BD704710B5C9
:1036C0000446022084F83D002068016A41F211128C
:1036D000114207D1016A9210114203D1016821F011
:1036E000010101602046FFF7E9FF002084F8460051
:1036F00084F83E0084F83F0084F8420084F84300D8
:1037000084F83D0084F83C0010BD30B5044694F8C0
:103710003E0094F83F2094F8423094F843C00225CC
:10372000002904D004290DD001281ED116E001285B
:1037300001D1012B01D0012030BD84F83E5084F826
:1037400042501CE0012A02D1BCF1010F01D001203E
:1037500030BD84F83F5084F8435010E0012A04D172
:10376000012B02D1BCF1010F01D0012030BD84F842
:103770003E5084F83F5084F8425084F8435091B151
:10378000042916D0012200212068FEF725FB012222
:1037900004212068FEF720FB2068016841F0010148
:1037A0000160002030BD012200212068FEF714FBDB
:1037B000F2E7012204212068FEF70EFBECE730B5AA
:1037C00004460D462068002D26D0042D29D0002265
:1037D0001146FEF701FB002204212068FEF7FCFAE7
:1037E0002068016A41F21112114207D1016A921058
:1037F000114203D1016821F0010101600120ADB146
:10380000042D13D084F83E0084F83F0084F8420071
:1038100084F84300002030BD00221146FEF7DCFA98
:10382000DEE700220421FEF7D7FAD9E76DB1042DB7
:103830000ED0082D0FD084F841007DB1042D10D09A
:10384000082D11D084F84500E4E784F83E00F4E741
:1038500084F83F00F1E784F84000EEE784F8420086
:10386000D8E784F84300D5E784F84400D2E730B5C0
:10387000044694F83E0094F83F2094F8423094F8BF
:1038800043C00225002904D004290DD001281ED1EF
:1038900016E0012801D1012B01D0012030BD84F8B0
:1038A0003E5084F842501CE0012A02D1BCF1010FC5
:1038B00001D0012030BD84F83F5084F8435010E01F
:1038C000012A04D1012B02D1BCF1010F01D001204A
:1038D00030BD84F83E5084F83F5084F8425084F85C
:1038E0004350E1B1042925D0012200212068FEF7D0
:1038F00073FA012204212068FEF76EFA2068C1687D
:1039000041F00201C1602068C16841F00401C1605A
:103910002068016841F001010160002030BD0122F2
:1039200000212068FEF758FA2068C16841F00201C2
:10393000C160EDE7012204212068FEF74DFA2068FE
:10394000C16841F00401C160E2E730B504460D46AC
:103950002068002D30D0042D38D000221146FEF70B
:103960003BFA002204212068FEF736FA2068C1687D
:1039700021F00201C1602068C16821F00401C1602A
:103980002068016A41F21112114207D1016A9210B6
:10399000114203D1016821F0010101600120FDB154
:1039A000042D1DD084F83E0084F83F0084F84200C6
:1039B00084F84300002030BD00221146FEF70CFAC7
:1039C0002068C16821F00201C160D9E7002204210A
:1039D000FEF702FA2068C16821F00401C160CFE758
:1039E0006DB1042D0ED0082D0FD084F841007DB1AB
:1039F000042D10D0082D11D084F84500DAE784F8A2
:103A00003E00F4E784F83F00F1E784F84000EEE779
:103A100084F84200CEE784F84300CBE784F8440002
:103A2000C8E72DE9F0470446089E1F4694F83E007B
:103A300094F83F3094F842C094F843504FF0020895
:103A400000290DD0042926D002283DD0022B3BD0DE
:103A5000BCF1020F38D0022D36D0012837D03DE01E
:103A6000022805D0BCF1020F02D0012803D005E0E6
:103A70000220BDE8F087BCF1010F02D00120BDE8B3
:103A8000F0872AB126B184F83E8084F8428033E082
:103A90000120BDE8F087022B04D0022D02D0012BBB
:103AA00003D004E00220BDE8F087012D02D0012000
:103AB000BDE8F0872FB126B184F83F8084F84380B9
:103AC0001AE00120BDE8F0870220BDE8F087012B55
:103AD00004D1BCF1010F01D1012D02D00120BDE8BC
:103AE000F0872AB327B31EB384F83E8084F83F8062
:103AF00084F8428084F84380AFF60D35AFF6513834
:103B0000DFF8E897B9B1042938D0606AC563606A04
:103B1000C0F84080606AC0F84C902068334600F1DD
:103B20003401606A05F076FCE0B30120BDE8F0875F
:103B30000120BDE8F087606AC563606AC0F8408014
:103B4000606AC0F84C902068334600F13401606A26
:103B500005F060FC10B10120BDE8F0872068C16865
:103B600041F40071C160012200212068FEF734F9A0
:103B70002068016841F00101016051E0A06AC5635D
:103B8000A06AC0F84080A06AC0F84C902068334614
:103B900000F138013A46A06A05F03CFC18B101205A
:103BA000BDE8F0870FE02068C16841F48061C16022
:103BB000012204212068FEF70FF92068016841F016
:103BC000010101602CE0A06AC563A06AC0F84080D2
:103BD000A06AC0F84C902068334600F138013A469C
:103BE000A06A05F017FC10B10120BDE8F08720683D
:103BF000C16841F40071C1602068C16841F480610E
:103C0000C160012200212068FEF7E6F801220421AC
:103C10002068FEF7E1F82068016841F001010160C9
:103C20000020BDE8F08770B504460D462068002DE1
:103C300036D0042D41D000221146FEF7CDF80022E7
:103C400004212068FEF7C8F82068C16821F40071DB
:103C5000C1602068C16821F48061C160606A05F0BC
:103C600062FCA06A05F05FFC2068016A41F2111253
:103C7000114207D1016A9210114203D1016821F06B
:103C80000101016001202DB3042D23D084F83E00F2
:103C900084F83F0084F8420084F84300002070BD9F
:103CA00000221146FEF798F82068C16821F40071DF
:103CB000C160606A05F037FCD6E700220421FEF7F8
:103CC0008BF82068C16821F48061C160A06A05F0AA
:103CD0002AFCC9E76DB1042D0ED0082D0FD084F851
:103CE00041007DB1042D10D0082D11D084F845007D
:103CF000D4E784F83E00F4E784F83F00F1E784F865
:103D00004000EEE784F84200C8E784F84300C5E7C6
:103D100084F84400C2E7704770472DE9F04104463B
:103D20002068C56806694FF0000716F0020F16D02C
:103D300015F0020F13D0F91E0161012020772068D1
:103D4000806910F0030F03D02046FFF74FF905E01C
:103D50002046FFF7E1FF2046FEF701FA277716F02D
:103D6000040F18D015F0040F15D021686FF004006F
:103D70000861022020772068806910F4407F03D01A
:103D80002046FFF733F905E02046FFF7C5FF204640
:103D9000FEF7E5F9277716F0080F18D015F0080F91
:103DA00015D021686FF00800086104202077206892
:103DB000C06910F0030F03D02046FFF717F905E0A4
:103DC0002046FFF7A9FF2046FEF7C9F9277716F02E
:103DD000100F18D015F0100F15D021686FF01000DB
:103DE0000861082020772068C06910F4407F03D064
:103DF0002046FFF7FBF805E02046FFF78DFF204641
:103E0000FEF7ADF9277716F0010F09D015F0010F75
:103E100006D021686FF0010008612046FCF72EFBF8
:103E200016F0800F09D015F0800F06D021686FF0D2
:103E300080000861204602F0E6F916F0400F09D034
:103E400015F0400F06D021686FF040000861204651
:103E5000FFF761FF16F0200F0BD015F0200F08D0F0
:103E600021686FF0200008612046BDE8F04102F0B3
:103E7000EBB8BDE8F08110B4036A026A22F4805204
:103E800002624268D0F81CC02CF4E04C2CF4407C58
:103E90000C684CEA042C23F400538C6843EA043386
:103EA000A0F18044B4F5803404D0A0F18044B4F58E
:103EB000823404D122F480424C6942EA8412426086
:103EC000C0F81CC049680164036210BC704770B43C
:103ED000026A036A23F4807303624368D0F81CC04B
:103EE0002CF0700C2CF0030C0C6844EA0C0C22F43F
:103EF00000728C6842EA0422FD4CFE4DA04201D0C3
:103F0000A84206D122F40062CE6842EA062222F4D8
:103F10008062A04201D0A84209D123F4805323F447
:103F200000534C6943EA04138C6943EA0413436069
:103F3000C0F81CC04968C163026270BC704770B4AD
:103F4000026A036A23F0100303624368D0F818C0C2
:103F50002CF4E04C2CF4407C0C684CEA042C22F04D
:103F600020028C6842EA0412E14CE24DA04201D0EA
:103F7000A84206D122F08002CE6842EA061222F060
:103F80004002A04201D0A84209D123F4806323F467
:103F900000634C6943EA84038C6943EA8403436009
:103FA000C0F818C049688163026270BC704770B481
:103FB000026A036A23F0010303624368D0F818C061
:103FC0002CF0700C2CF0030C0C6844EA0C0C22F062
:103FD00002028C682243C64CC64DA04201D0A842C2
:103FE00005D122F00802CE68324322F00402A0423A
:103FF00001D0A84207D123F4807323F400734C69E5
:1040000023438C6923434360C0F818C04968416367
:10401000026270BC704770B50446002594F83C00FD
:1040200001280FD0012084F83C006AB1042A0FD087
:10403000082A11D00C2A13D00125002084F83C0056
:10404000284670BD022070BD2068FFF7B0FFF4E77E
:104050002068FFF774FFF0E72068FFF738FFECE710
:104060002068FFF708FFE8E710B4D0F820C0046A22
:1040700024F480540462C46924F4407444EA0222A3
:1040800022F470424FF4704404EA03331A432CF4D0
:1040900020434FF4204C0CEA01311943C261016204
:1040A00010BC704710B4D0F820C0046A24F48074A7
:1040B0000462C46924F00304224322F0F002F024D5
:1040C00004EA03131A432CF420634FF4206C0CEA27
:1040D00001211943C261016210BC704710B4D0F8CD
:1040E00020C0046A24F010040462846924F440743B
:1040F00044EA022222F470424FF4704404EA03338B
:104100001A432CF0A0034FF0A00C0CEA0111194344
:104110008261016210BC704730B4046AD0F820C0DC
:104120002CF0010CC0F820C0D0F818C0A0F18045D8
:10413000B5F5803532D0B0F1804F2FD0A0F1804559
:10414000B5F580652AD0A0F18045B5F5006525D08C
:10415000A0F18045B5F5406520D0A0F18045B5F5CA
:1041600082351BD0A0F18045B5F5A03516D0A0F161
:104170008045B5F5C05511D04CF0010222F0F00297
:104180004FF0F00C0CEA03131A4324F00A0301F079
:104190000A0119438261016230BC70472CF0030CA4
:1041A0004CEA0202EAE770B505460C46002695F88F
:1041B0003C0001280FD0012085F83C006AB1042A98
:1041C0001CD0082A2CD00C2A3BD00126002085F8D0
:1041D0003C00304670BD022070BDE3686268216813
:1041E0002868FFF799FF2868816921F00C01816137
:1041F00028688169A26811438161E7E7E368626822
:1042000021682868FFF76AFF2868816921F4406106
:10421000816128688169A26841EA02218161D5E74C
:10422000E368626821682868FFF73CFF2868C16975
:1042300021F00C01C1612868C169A2681143C16104
:10424000C4E7E368626821682868FFF70DFF286803
:10425000C16921F44061C1612868C169A26841EA6D
:104260000221C161B2E770B504460D46002694F8FC
:104270003C0001280FD0012084F83C006AB1042AD8
:104280001FD0082A38D00C2A4AD00126002084F8F2
:104290003C00304670BD022070BD29462068FFF703
:1042A00086FE2068816941F008018161206881698A
:1042B00021F004018161206881692A6911438161CB
:1042C000E4E729462068FFF73AFE2068816941F457
:1042D000006181612068816921F4806181612068C9
:1042E00081692A6941EA02218161CFE77D1B0108CA
:1042F000000001400004014029462068FFF7E7FD67
:104300002068C16941F00801C1612068C16921F0DC
:104310000401C1612068C1692A691143C161B5E71F
:1043200029462068FFF7A7FD2068C16941F40061B4
:10433000C1612068C16921F48061C1612068C169DF
:104340002A6941EA0221C161A0E72DE9F04188B064
:1043500004460D469846002642457AD094F83C0023
:10436000012817D0012784F83C70022084F83D0012
:104370002868019068680290A8680390E868049033
:10438000286906906869079042B1042A0BD001267B
:1043900076B114E008B00220BDE8F08101A92068E0
:1043A000FFF705FEF4E701A92068FFF7C8FDEFE776
:1043B000B8F1000F0CD0B8F1040F29D0012684F811
:1043C0003D70002084F83C0008B03046BDE8F08124
:1043D0002B6AEA69A9692068FFF79EFE2068816957
:1043E00021F00C0181612068816821F070018160F9
:1043F0002068816841F0500181602068816821F067
:10440000070181602068816841F006018160D6E77C
:104410002B6AEA69A9692068FFF760FE2068816954
:1044200021F4406181612068816821F07001816020
:104430002068816841F0600181602068816821F016
:10444000070181602068816841F006018160B6E75C
:10445000FFE708B00120BDE8F081704710B5806B20
:10446000FFF7FBFF10BD10B5806B816BC969002998
:1044700002D1012180F83D10FFF74DFC10BD2DE960
:10448000F0479C46089F099B04468846154600262F
:1044900094F84600022804D094F84600012803D07E
:1044A0000CE00220BDE8F087BCF1000F03D117B18A
:1044B0000120BDE8F087022084F84600F648F7495D
:1044C000F74AB5F5006F53D009DCB5F5807F13D0FE
:1044D000B5F5007F24D0B5F5806F09D134E0B5F58E
:1044E000805F59D0B5F5005F6AD0B5F5804F7DD0BB
:1044F0000126002E79D096E0226AEA49D163226A29
:10450000E9491164216AC8642068614600F14C02DF
:10451000206A04F07FFF0028EBD00120BDE8F0877F
:10452000D4F82490C9F83C10616A0A64616AC864CE
:104530002068614600F14C02606A04F06BFF0028BD
:10454000D7D00120BDE8F087D4F82890C9F83C10F6
:10455000A16A0A64A16AC8642068614600F14C023D
:10456000A06A04F057FF0028C3D00120BDE8F087FF
:10457000D4F82C90C9F83C10E16A0A64E16AC86476
:104580002068614600F14C02E06A04F043FF002815
:10459000AFD00120BDE8F087D4F83090C9F83C10C6
:1045A000216B0A64216BC8642068614600F14C02EB
:1045B000206B04F02FFF00289BD00120BDE8F0877E
:1045C000626BBA49D163626BB9491164616BC864AB
:1045D0002068614600F14C02606B04F01BFF00286C
:1045E00087D00120BDE8F08700E014E0A26BB1495C
:1045F000D163A26BB0491164A16BC86420686146A5
:1046000000F14C02A06B04F005FF00283FF471AFED
:104610000120BDE8F087216848EA07008864206827
:10462000C1682943C1603046BDE8F08710B582B04B
:10463000DDF810C0CDF800C04FEA1C24641C0194C2
:10464000FFF71DFF02B010BD70B504460D460026F1
:10465000B5F5006F22D009DCB5F5807F12D0B5F535
:10466000007F13D0B5F5806F09D113E0B5F5805FF9
:1046700018D0B5F5005F19D0B5F5804F1AD00126D6
:10468000E6B122E0206A04F04EFFF9E7606A04F028
:104690004AFFF5E7A06A04F046FFF1E7E06A04F09C
:1046A00042FFEDE7206B04F03EFFE9E7606B04F0AA
:1046B0003AFFE5E7A06B04F036FFE1E72068C16848
:1046C000A943C160012084F84600304670BD2DE941
:1046D000F0479C46089F099B0446884615460026DD
:1046E00094F84600022804D094F84600012803D02C
:1046F0000CE00220BDE8F087BCF1000F03D117B138
:104700000120BDE8F087022084F8460062486B4A29
:104710006B49B5F5006F53D009DCB5F5807F13D038
:10472000B5F5007F24D0B5F5806F09D134E0B5F53B
:10473000805F59D0B5F5005F6AD0B5F5804F7DD068
:104740000126002E79D096E0226A5649D163226A6A
:1047500055491164216AC8642068624600F14C0121
:10476000206A04F057FE0028EBD00120BDE8F08756
:10477000D4F82490C9F83C20626A1164616AC86464
:104780002068624600F14C01606A04F043FE002894
:10479000D7D00120BDE8F087D4F82890C9F83C2094
:1047A000A26A1164A16AC8642068624600F14C01E3
:1047B000A06A04F02FFE0028C3D00120BDE8F087D6
:1047C000D4F82C90C9F83C20E26A1164E16AC8640C
:1047D0002068624600F14C01E06A04F01BFE0028EC
:1047E000AFD00120BDE8F087D4F83090C9F83C2064
:1047F000226B1164216BC8642068624600F14C0191
:10480000206B04F007FE00289BD00120BDE8F08754
:10481000626B2649D163626B25491164616BC86480
:104820002068624600F14C01606B04F0F3FD002843
:1048300087D00120BDE8F08700E014E0A26B1D499D
:10484000D163A26B1C491164A16BC86420686246E5
:1048500000F14C01A06B04F0DDFD00283FF471AFC6
:104860000120BDE8F087216848EA070088642068D5
:10487000C1682943C1603046BDE8F08710B582B0F9
:10488000DDF810C0CDF800C04FEA1C24641C019470
:10489000FFF71DFF02B010BD7D1B0108612101085B
:1048A00021210108DF1B0108D31B01084B6001080F
:1048B00039600108674401085D440108EF2F0108D1
:1048C000AF2F010870B504460D460026B5F5006F00
:1048D00022D009DCB5F5807F12D0B5F5007F13D06A
:1048E000B5F5806F09D113E0B5F5805F18D0B5F547
:1048F000005F19D0B5F5804F1AD00126E6B122E04D
:10490000206A04F010FEF9E7606A04F00CFEF5E797
:10491000A06A04F008FEF1E7E06A04F004FEEDE7A7
:10492000206B04F000FEE9E7606B04F0FCFDE5E7B6
:10493000A06B04F0F8FDE1E72068C168A943C160FD
:10494000012084F84600304670BD90F83C20012AD2
:104950000ED0012280F83C20022380F83D3003680D
:10496000596180F83D20002180F83C1000207047FC
:1049700002207047D0F808C02CF47F4C42EA032292
:10498000114341EA0C01816070472DE9F043044670
:104990000D461646002794F83C0001280ED04FF033
:1049A000010884F83C80022084F83D006868B9461C
:1049B00038B101280BD00127C7B156E00220BDE86D
:1049C000F0832068816821F47F418160F4E7E96821
:1049D00031B184F83D8084F83C900120BDE8F0833B
:1049E0002B69AA682068FFF7C5FFE5E736B1042EFA
:1049F00012D0082E1ED00C2E37D129E0286828B1FD
:104A00002068816941F0800181612EE02068816920
:104A100021F08001816128E0286828B1206881693F
:104A200041F40041816120E02068816921F4004166
:104A300081611AE0286828B12068C16941F08001CD
:104A4000C16112E02068C16921F08001C1610CE000
:104A5000286828B12068C16941F40041C16104E0BF
:104A60002068C16921F40041C16184F83D8084F867
:104A70003C903846BDE8F083826822F07002114312
:104A800041F0070181607047036AD0F820C02CF024
:104A9000010CC0F820C0D0F818C02CF0F00C4CEA83
:104AA000021223F00A031943826101627047036A0C
:104AB000D0F820C02CF0100CC0F820C0D0F818C0DE
:104AC0002CF4704C4CEA023223F0A00343EA0111AB
:104AD00082610162704770B50446002594F83C007D
:104AE000012818D0012684F83C60022084F83D009B
:104AF0002068826822F0770222F47F428260086890
:104B0000502839D00EDC202854D006DC002851D0A3
:104B1000102811D14EE0022070BD30284AD0402824
:104B20000AD13DE0602831D070280DD0B0F5805F0B
:104B300003D0B0F5005F13D0012584F83D6000205C
:104B400084F83C00284670BDCB684A6889682068B4
:104B5000FFF710FF2068816841F077018160ECE782
:104B6000CB684A6889682068FFF704FF206881687D
:104B700041F480418160E0E7CA6849682068FFF736
:104B800083FF50212068FFF777FFD6E7CA6849689E
:104B90002068FFF78CFF60212068FFF76DFFCCE7EE
:104BA000CA6849682068FFF76FFF40212068FFF757
:104BB00063FFC2E7226801461046FFF75DFFBCE7CE
:104BC0000068426822F08002114341600020704773
:104BD00010B500240268936823F07003D1F804C074
:104BE0004CEA030323F00703D1F800C04CEA0303A7
:104BF00093604A6812F00F0F34D11211082A31D293
:104C0000DFE802F0313131310B242A040B698A6864
:104C1000C9680068FFF7AEFE25E00A68052A13D0D0
:104C20000268136AD2F820C02CF0010CC2F820C030
:104C30000268D2F818C02CF0F00C09694CEA011196
:104C40009161006803620EE0012010BD0A69896865
:104C50000068FFF719FF06E00A6989680068FFF736
:104C600026FF00E00124204610BD70B5044694F8EC
:104C70003C00012810D0012584F83C50022084F823
:104C80003D002046FFF7A4FF002138B184F83D50D5
:104C900084F83C10012070BD022070BD2068C268FD
:104CA00022F04002C2602068C26822F48042C260E2
:104CB00084F83D5084F83C10002070BD70B5044667
:104CC00094F83C00012810D0012584F83C500220C3
:104CD00084F83D002046FFF77BFF002138B184F8BF
:104CE0003D5084F83C10012070BD022070BD20684A
:104CF000C26842F04002C2602068C26822F480426A
:104D0000C26084F83D5084F83C10002070BD02461B
:104D10000020002908D0042909D008290AD00C292C
:104D200001D11068006C70471068406B70471068C4
:104D3000806B70471068C06B704790F83D007047FB
:104D400090F83D00704790F83D00704790F83D00A6
:104D5000704790F83D00704790F83D007047007F25
:104D60007047002906D0042907D0082908D090F8F8
:104D70004100704790F83E00704790F83F00704740
:104D800090F84000704790F846007047704770B543
:104D900088B004460D46002C04D094F83D0000264F
:104DA00018B107E008B0012070BD84F83C602046CF
:104DB000FFF7ECFF022084F83D00211D2068FCF77E
:104DC00067FDAB68296803222068FFF7A5F9206812
:104DD000816921F00C018161206881696A68114351
:104DE00081612068416841F08001416020688168EC
:104DF00021F0700181602068816841F0400181608C
:104E00002068816821F0070181602068816841F095
:104E1000040181600596069670200190079604961D
:104E20000396E868029001A92068FFF788F82068D7
:104E3000416821F0700141602068416841F05001F3
:104E40004160012084F8460084F83E0084F83F0069
:104E500084F8420084F8430084F83D0008B0002044
:104E600070BD704710B50446022084F83D002068EC
:104E7000016A41F21112114207D1016A92101142E6
:104E800003D1016821F0010101602046FFF7E9FF2D
:104E9000002084F8460084F83E0084F83F0084F83F
:104EA000420084F8430084F83D0084F83C0010BDC3
:104EB00010B5044694F83E1094F83F2094F8420050
:104EC00094F84330012905D1012A03D1012801D1E9
:104ED000012B01D0012010BD022084F83E0084F88F
:104EE0003F0084F8420084F843000122002120683A
:104EF000FCF772FF2068A0F18041B1F5803126D027
:104F0000B0F1804F23D0A0F18041B1F580611ED077
:104F1000A0F18041B1F5006119D0A0F18041B1F557
:104F2000406114D0A0F18041B1F582310FD0A0F1E1
:104F30008041B1F5A0310AD0A0F18041B1F5C05156
:104F400005D0016841F001010160002010BD8168B9
:104F500001F007010629F8D0016841F00101016064
:104F6000F3E710B50446002211462068FCF734FF31
:104F70002068016A41F21112114207D1016A9210B0
:104F8000114203D1016821F001010160012084F880
:104F90003E0084F83F0084F8420084F8430000207B
:104FA00010BD10B5044694F83E0094F83F1094F8F4
:104FB000422094F84330012805D1012903D1012A68
:104FC00001D1012B01D0012010BD022084F83E0048
:104FD00084F83F0084F8420084F843002068C168E8
:104FE00041F00201C160012200212068FCF7F4FEBB
:104FF0002068A0F18041B1F5803126D0B0F1804F1A
:1050000023D0A0F18041B1F580611ED0A0F1804194
:10501000B1F5006119D0A0F18041B1F5406114D023
:10502000A0F18041B1F582310FD0A0F18041B1F5FE
:10503000A0310AD0A0F18041B1F5C05105D001687E
:1050400041F001010160002010BD816801F00701FD
:105050000629F8D0016841F001010160F3E710B5BD
:105060000446002211462068FCF7B6FE2068C1689D
:1050700021F00201C1602068016A41F2111211425F
:1050800007D1016A9210114203D1016821F0010198
:105090000160012084F83E0084F83F0084F842005B
:1050A00084F84300002010BD70B504460D46164636
:1050B00094F83E0094F84210022804D0022902D04D
:1050C000012802D003E0022070BD012901D0012097
:1050D00070BDF5B1EEB1022084F83E0084F84200C4
:1050E000012200212068FCF777FE616AFC48C86352
:1050F000616AFC480864616AFB48C86420683346FA
:1051000000F134012A46606A04F084F918B10120E4
:1051100070BD012070BD2068C16841F40071C1609C
:105120002068A0F18041B1F5803126D0B0F1804FE8
:1051300023D0A0F18041B1F580611ED0A0F1804163
:10514000B1F5006119D0A0F18041B1F5406114D0F2
:10515000A0F18041B1F582310FD0A0F18041B1F5CD
:10516000A0310AD0A0F18041B1F5C05105D001684D
:1051700041F001010160002070BD816801F007016C
:105180000629F8D0016841F001010160F3E710B58C
:105190000446002211462068FCF71EFE2068C16804
:1051A00021F40071C160606A04F0BDF92068016AF1
:1051B00041F21112114207D1016A9210114203D13A
:1051C000016821F001010160012084F83E0084F8AB
:1051D0004200002010BD01F00F0104238B40D0F8E5
:1051E00020C02CEA03030362036A02FA01F11943A7
:1051F0000162704710B50446002909D004290AD07D
:1052000008290BD094F8450001280AD0012010BDD0
:1052100094F84200F8E794F84300F5E794F8440066
:10522000F2E70220D9B3042947D0082948D084F8EE
:10523000450004222068FFF7CEFF2068416C41F44E
:10524000004141642068A0F18041B1F5803127D050
:10525000B0F1804F24D0A0F18041B1F580611FD022
:10526000A0F18041B1F500611AD0A0F18041B1F503
:10527000406115D0A0F18041B1F5823110D0A0F18C
:105280008041B1F5A0310BD0A0F18041B1F5C05102
:1052900006D0016841F001010160002010BD09E065
:1052A000816801F007010629F7D0016841F001018A
:1052B0000160F2E784F84200BBE784F84300B8E7F6
:1052C00084F84400B5E770B504460D46002229462F
:1052D0002068FFF780FF2068026A41F211110A423C
:1052E00040F2444206D1036A134203D1436C23F4D3
:1052F000004343642068036A0B4206D1016A1142ED
:1053000003D1016821F00101016001203DB1042DAC
:1053100008D0082D09D084F84500002070BD84F81D
:105320004200FAE784F84300F7E784F84400F4E722
:1053300070B504460025002909D004290AD008299F
:105340000BD094F8450001280AD0012070BD94F8D4
:105350004200F8E794F84300F5E794F84400F2E7D8
:10536000022069B104290ED008290FD084F8450025
:1053700079B1042913D0082917D00125DDB153E0F4
:1053800084F84200F4E784F84300F1E784F844002D
:10539000EEE72068C26842F00202C260EEE72068D1
:1053A000C26842F00402C260E8E72068C26842F0C6
:1053B0000802C260E2E72068C26842F08002C26070
:1053C00004222068FFF707FF2068416C41F4004188
:1053D00041642068A0F18041B1F5803126D0B0F160
:1053E000804F23D0A0F18041B1F580611ED0A0F1A3
:1053F0008041B1F5006119D0A0F18041B1F5406163
:1054000014D0A0F18041B1F582310FD0A0F18041DC
:10541000B1F5A0310AD0A0F18041B1F5C05105D05D
:10542000016841F001010160284670BD816801F00A
:1054300007010629F8D0016841F001010160F3E796
:1054400070B504460D460026002D06D0042D0AD066
:10545000082D0ED0012696B140E02068C16821F0E9
:105460000201C160F7E72068C16821F00401C16052
:10547000F1E72068C16821F00801C160EBE7002274
:1054800029462068FFF7A7FE2068016A40F24442DF
:10549000114203D1C16821F08001C1602068036A14
:1054A00041F211110B4206D1036A134203D1436C3E
:1054B00023F4004343642068036A0B4206D1016A67
:1054C000114203D1016821F00101016001206DB199
:1054D000042D0ED0082D0FD084F84500304670BD45
:1054E000EF2F0108AF2F01087D1B010884F842004F
:1054F000F4E784F84300F1E784F84400EEE710B5E0
:10550000846B0121626A824203D1217784F84210C0
:105510000EE0A26A824204D10220207784F8431070
:1055200006E0E26A824203D10420207784F8441026
:105530002046FCF722FB0020207710BD10B5846BBD
:105540000121626A824205D12177C069A8B984F835
:10555000421012E0A26A824206D102222277C0697A
:1055600058B984F8431008E0E26A824205D1042267
:105570002277C06908B984F844102046FCF7EFFD93
:105580000020207710BD2DE9F04104460D469446D9
:105590000026002D13D0042D14D0082D15D094F81A
:1055A0004500022814D0B5B1042D17D0082D18D00D
:1055B00094F84500012817D00120BDE8F08194F847
:1055C0004200EEE794F84300EBE794F84400E8E784
:1055D0000220BDE8F08194F84200EBE794F8430024
:1055E000E8E794F84400E5E7BCF1000F09D043B1C7
:1055F00002204DB1042D0AD0082D0BD084F84500AF
:105600000AE00120BDE8F08184F8420004E084F85B
:10561000430001E084F84400FD48FE49FE4A35B1EC
:10562000042D1BD0082D31D0012676B37AE0676AAD
:10563000F863606A0164606AC2642068614600F1D0
:105640003402606A03F0E6FE10B10120BDE8F0818B
:105650002068C16841F40071C160E6E7A76AF86399
:10566000A06A0164A06AC2642068614600F1380241
:10567000A06A03F0CFFE10B10120BDE8F0812068E0
:10568000C16841F48061C160CFE716E0E76AF86362
:10569000E06A0164E06AC2642068614600F13C028D
:1056A000E06A03F0B7FE10B10120BDE8F081206888
:1056B000C16841F40061C160B7E70422294620684F
:1056C000FFF789FD2068416C41F400414164206886
:1056D000A0F18041B1F5803127D0B0F1804F24D0C6
:1056E000A0F18041B1F580611FD0A0F18041B1F5FA
:1056F00000611AD0A0F18041B1F5406115D0A0F150
:105700008041B1F5823110D0A0F18041B1F5A031D6
:105710000BD0A0F18041B1F5C05106D0016841F035
:10572000010101603046BDE8F081816801F00701A8
:105730000629F7D0016841F001010160F2E770B578
:1057400004460D460026002D06D0042D0DD0082D50
:1057500014D00126DEB141E02068C16821F4007157
:10576000C160606A03F0DFFEF4E72068C16821F4DD
:105770008061C160A06A03F0D6FEEBE72068C168D3
:1057800021F40061C160E06A03F0CDFEE2E700228F
:1057900029462068FFF71FFD2068016A41F21112B7
:1057A000114240F2444106D1036A0B4203D1436CDB
:1057B00023F4004343642068036A134206D1026A5B
:1057C0000A4203D1016821F00101016001203DB1CD
:1057D000042D08D0082D09D084F84500304670BD4E
:1057E00084F84200FAE784F84300F7E784F84400BD
:1057F000F4E710B50446002909D004290AD0082985
:105800000BD094F8450001280AD0012010BD94F86F
:105810004200F8E794F84300F5E794F84400F2E713
:105820000220D9B3042947D0082948D084F845007C
:1058300004222068FFF7CFFC2068416C41F400414E
:1058400041642068A0F18041B1F5803127D0B0F1EA
:10585000804F24D0A0F18041B1F580611FD0A0F12C
:105860008041B1F500611AD0A0F18041B1F54061ED
:1058700015D0A0F18041B1F5823110D0A0F1804166
:10588000B1F5A0310BD0A0F18041B1F5C05106D0E7
:10589000016841F001010160002010BD09E081684C
:1058A00001F007010629F7D0016841F0010101600C
:1058B000F2E784F84200BBE784F84300B8E784F8D5
:1058C0004400B5E770B504460D460022294620681D
:1058D000FFF781FC2068026A41F211110A4240F28E
:1058E000444206D1036A134203D1436C23F40043BC
:1058F00043642068036A0B4206D1016A114203D156
:10590000016821F00101016001203DB1042D08D0A2
:10591000082D09D084F84500002070BD84F84200AD
:10592000FAE784F84300F7E784F84400F4E770B539
:1059300004460025002909D004290AD008290BD0E3
:1059400094F8450001280AD0012070BD94F8420067
:10595000F8E794F84300F5E794F84400F2E70220F2
:1059600069B104290ED008290FD084F8450079B117
:10597000042913D0082917D00125DDB15AE084F895
:105980004200F4E784F84300F1E784F84400EEE7CE
:105990002068C26842F00202C260EEE72068C26876
:1059A00042F00402C260E8E72068C26842F00802E0
:1059B000C260E2E72068C26842F08002C26004224E
:1059C0002068FFF708FC2068416C41F40041416405
:1059D0002068A0F18041B1F580312DD0B0F1804F29
:1059E0002AD0A0F18041B1F5806125D0A0F180419D
:1059F000B1F5006120D0A0F18041B1F540611BD02C
:105A0000A0F18041B1F5823116D0A0F1804105E0CE
:105A10003D55010821210108FF540108B1F5A031CD
:105A20000AD0A0F18041B1F5C05105D0016841F024
:105A300001010160284670BD816801F00701062957
:105A4000F8D0016841F001010160F3E770B5044648
:105A50000D460026002D06D0042D0AD0082D0ED0AC
:105A6000012696B140E02068C16821F00201C160C2
:105A7000F7E72068C16821F00401C160F1E7206800
:105A8000C16821F00801C160EBE7002229462068C7
:105A9000FFF7A1FB2068016A40F24442114203D1A2
:105AA000C16821F08001C1602068036A41F21111D0
:105AB0000B4206D1036A134203D1436C23F4004323
:105AC00043642068036A0B4206D1016A114203D184
:105AD000016821F00101016001203DB1042D08D0D1
