:020000040801F1
:10000000887801204D030108011401080914010832
:100010000D14010811140108151401080000000056
:100020000000000000000000000000008D02010838
:100030001914010800000000E9020108317B0208E0
:1000400067030108670301086703010867030108E4
:10005000670301081B14010867030108670301080F
:1000600067030108670301086703010867030108C4
:1000700067030108670301086703010867030108B4
:100080001D1401086703010827140108670301080C
:100090006703010867030108670301086703010894
:1000A00067030108311401086703010867030108A9
:1000B0006703010867030108670301086703010874
:1000C0006703010867030108670301086703010864
:1000D0006703010867030108670301086703010854
:1000E0006703010867030108670301086703010844
:1000F0003B14010845140108670301086703010860
:100100006703010867030108670301086703010823
:100110004F14010867030108591401086703010817
:1001200063140108670301086703010867030108F6
:1001300067030108000000000000000067030108D9
:100140006703010867030108670301086D140108CC
:1001500067030108670301086703010867030108D3
:1001600067030108670301086703010867030108C3
:100170006703010867030108000000000000000099
:10018000670301086703010800F002F800F06EF849
:100190000AA090E8000C82448344AAF10107DA45E2
:1001A00001D100F063F8AFF2090EBAE80F0013F0C6
:1001B000010F18BFFB1A43F0010318475043020018
:1001C000704302000A444FF0000C10F8013B13F09A
:1001D000070408BF10F8014B1D1108BF10F8015BA0
:1001E000641E05D010F8016B641E01F8016BF9D193
:1001F00013F0080F1EBF10F8014BAD1C0C1B09D1EA
:100200006D1E58BF01F801CBFAD505E014F8016B5B
:1002100001F8016B6D1EF9D59142D6D370470000ED
:100220000023002400250026103A28BF78C1FBD8FF
:10023000520728BF30C148BF0B607047642923F0C4
:100240008D82752923F08A82782923F0C38273294D
:1002500023F05285002070471FB523F007FE9DE86C
:10026000030023F08FFC1FBD10B510BD23F083FDEC
:100270001146FFF7F1FF00F0E4F823F0A1FD03B40D
:10028000FFF7F2FF03BC01F02EFA00002C4B1968B7
:100290000868B0E8F04F80F30988BFF36F8F4FF024
:1002A000000080F3118870470000000008480068D3
:1002B000006880F308884FF0000080F3148862B66D
:1002C00061B6BFF34F8FBFF36F8F00DF00BF00BF7A
:1002D00008ED00E0DFF80C00016841F470010160F6
:1002E000704700BF88ED00E0EFF30980BFF36F8F28
:1002F000134B1A681EF0100F08BF20ED108A20E97A
:10030000F04F106009B44FF0500080F31188BFF334
:100310004F8FBFF36F8F15F086FF4FF0000080F313
:10032000118809BC19680868B0E8F04F1EF0100F7A
:1003300008BFB0EC108A80F30988BFF36F8F704755
:1003400030000020EFF30580704700000948804727
:1003500009480047FEE7FEE7FEE7FEE7FEE7FEE7A7
:10036000FEE7FEE7FEE7FEE704480549054A064BBF
:1003700070470000D915010889010108883801205B
:1003800088780120885801208858012072B600BF63
:10039000FEE700B593B0302107A823F0ACFB142191
:1003A00002A823F0A8FB00BF00200190404800688D
:1003B00040F080503E4908600846006800F08050D8
:1003C000019000BF00BF00BF0020019039480068C5
:1003D00040F48040374908600846006800F48040D7
:1003E000019000BF00BF0120079000040890022088
:1003F0000D9041050E9119210F914FF4A8711091A4
:10040000022111910721129107A80AF081F908B180
:10041000FFF7BCFF0F200290022003900020049001
:100420004FF4A05005904FF480500690052102A88B
:100430000AF00AFC08B1FFF7A9FF0AF025FD13B086
:1004400000BD0BF038FEFFF7A4FF00F037F800F016
:1004500005FB00F041F900F061FA00F033FB00F019
:100460004CFC00F093FE00F0A8FE00F0BDFE00F092
:1004700023FA00F09FFB00F0EDFC00F00CFD00F013
:1004800062FD00F01EFD00F087FC19F015FA17F070
:100490005AFB00F012F917F095FB00BFFEE710B50C
:1004A000044605492068884201D10BF03FFE10BD8B
:1004B0004038024000700040001C004000B587B08A
:1004C000142102A823F017FB00BF002001907248FE
:1004D000006840F00400704908600846006800F0B9
:1004E0000400019000BF00BF00BF0020019008463B
:1004F000006840F0800008600846006800F0800056
:10050000019000BF00BF00BF0020019008460068B6
:1005100040F0010008600846006800F0010001900A
:1005200000BF00BF00BF002001900846006840F0F7
:10053000020008600846006800F00200019000BF59
:1005400000BF00BF002001900846006840F008008E
:1005500008600846006800F00800019000BF00BF76
:1005600000224FF61F414D480AF001FF002242F6DB
:10057000FC014B480AF0FBFE0122110348480AF037
:10058000F6FE00224FF4807146480AF0F0FE002289
:10059000042145480AF0EBFE4FF60E400290012080
:1005A0000390022004900020059002A93B480AF025
:1005B00051FD01200290039004900020059002A9B3
:1005C00036480AF047FD10200290012003900020D9
:1005D0000490059002A931480AF03CFD4FF40870E0
:1005E0000290002003900120049002A92B480AF0F9
:1005F00031FD44F20140029000200390012004905C
:1006000002A927480AF026FD02200290002003904C
:10061000049002A922480AF01DFD41F284000290D4
:100620000120039004900020059002A91C480AF0C4
:1006300011FD4FF40060029001200390002004900F
:10064000059002A916480AF005FD42F278000290D2
:1006500001200390022004900020059002A9104878
:100660000AF0F8FC4FF48070029001200390022001
:1006700004900020059002A90A480AF0EBFC04202F
:1006800002900120039004900020059002A90648E2
:100690000AF0E0FC07B000BD30380240000802401C
:1006A0000004024000000240000C024019F02DF945
:1006B00000BF012017F0BBFDFBE710B5044A002185
:1006C000AFF2170017F058FB0249086010BD000098
:1006D000783E0308000000201FB500200090019024
:1006E000029003906D486E4908604FF48030486076
:1006F00000216B488160012101610176002180F8B1
:100700002010C162674981620021C1600621C16178
:10071000012180F83010002141610BF060FE08B12A
:10072000FFF734FE05200090012001900620029082
:1007300069465B480CF009FB08B1FFF727FE06206D
:10074000009002200190694655480CF0FEFA08B16D
:10075000FFF71CFE072000900320019069465048D7
:100760000CF0F3FA08B1FFF711FE102000900420FE
:10077000019069464A480CF0E8FA08B1FFF706FE16
:100780001120009005200190694645480CF0DDFAE3
:1007900008B1FFF7FBFD122000900620019069468A
:1007A0003F480CF0D2FA08B1FFF7F0FD1FBD10B5BD
:1007B00086B00446142101A823F09DF9374920682A
:1007C000884251D100BF002000903748006840F4B3
:1007D0008070354908600846006800F48070009019
:1007E00000BF00BF00BF002000902F4814380068F1
:1007F00040F001002C49143908600846006800F0F8
:100800000100009000BF00BFE02001900320029093
:100810000020039001A925480AF01CFC2448254922
:10082000086000204860002122488160C1604FF4C8
:100830008061016149004161890081610021C161DC
:10084000016241620AF04CFE08B1FFF79FFD00BF54
:100850001848A063846300BF0022052112200BF01A
:100860004FFA12200BF08AFA06B010BD10B50446FC
:100870000A49206888420FD10B48006820F4807034
:1008800009490860E02109480AF0C7FCA06B0AF09A
:100890009BFE12200BF086FA10BD000000200140E4
:1008A000800100200100000F443802400000024097
:1008B00010640240C801002010B5154815490860B1
:1008C00008460CF0C6FF08B1FFF760FD10BD08B583
:1008D0000F4A016891420FD100BF002100910E49DB
:1008E000096841F480510C4A11601146096801F40D
:1008F0008051009100BF00BF08BD054A01689142C8
:1009000005D10549096821F48051034A11607047F7
:100910000030024004000020303802401CB50020A6
:100920000090019047484849086008460CF0F3FFE2
:1009300008B1FFF72BFD1420009000200190002249
:10094000694641480DF0AAF908B1FFF71FFD1CBD2B
:1009500010B586B00446142101A823F0CCF839491B
:100960002068884254D100BF0020009037480068BA
:1009700040F00050354908600846006800F000501B
:10098000009000BF00BF00BF002000902F4810382B
:10099000006840F001002D491039086008460068E1
:1009A00000F00100009000BF00BF10200190032064
:1009B00002900020039001A925480AF04BFB25482E
:1009C000254908604FF060604860402122488160FE
:1009D0000021C1604FF480610161490041618900DB
:1009E00081614911C1610021016241620AF078FD13
:1009F00008B1FFF7CBFC00BF1748A060846300BFBD
:100A00000022052136200BF07BF936200BF0B6F9D9
:100A100006B010BD10B504460A49206888420FD1BF
:100A20000A48006820F00050084908601021084872
:100A30000AF0F3FBA0680AF0C7FD36200BF0B2F90C
:100A400010BD000000740040280200204038024021
:100A500000000240886002403C02002008B500BF50
:100A6000002000901648006840F400101449086007
:100A70000846006800F40010009000BF00BF00BFEF
:100A8000002000900846006840F480000860084696
:100A9000006800F48000009000BF00BF0022052124
:100AA00010200BF02DF910200BF068F90022052121
:100AB00038200BF025F938200BF060F908BD000054
:100AC0003038024010B5364836490860364848602C
:100AD000002134488160C1604FF4804101610021F0
:100AE00041618161C16101620DF0F9F908B1FFF75F
:100AF0004DFC10BD10B586B00446142101A822F0AB
:100B0000FAFF2749206888422FD100BF00200090BB
:100B10002648006840F00200244908600846006842
:100B200000F00200009000BF00BF4FF44070019041
:100B3000122002900120039004900420059001A946
:100B40001B480AF087FA00BF0020009017481030B9
:100B5000006840F40010154910310860084600682C
:100B600000F40010009000BF00BF06B010BD10B52B
:100B700004460B492068884210D10C4810300068A8
:100B800020F40010094910310860891508480AF05E
:100B900044FB4FF4007106480AF03FFB10BD000013
:100BA000005400409C020020A08601003038024022
:100BB0000004024010B5154815490860084611F0B8
:100BC000C8FC08B1FFF7E2FB10BD08B50F4A016889
:100BD00091420FD100BF002100910E49096841F0F8
:100BE00040010C4A11601146096801F04001009172
:100BF00000BF00BF08BD054A0168914205D1054903
:100C0000096821F04001034A11607047000806504E
:100C1000F00200203438024010B586B0044614219A
:100C200001A822F068FF2068B0F1804F1ED100BFFC
:100C300000200090FE48006840F00100FC49086078
:100C40000846006800F00100009000BF00BF4FF4AC
:100C500000400190022002900390002004900120A7
:100C6000059001A9F3480AF0F5F944E0F24920683B
:100C700088421ED100BF00200090ED48006840F07F
:100C80000400EB4908600846006800F0040000908A
:100C900000BF00BF4FF4E0700190022002900020DE
:100CA000039004900220059001A9E4480AF0D2F9CB
:100CB00021E0E349206888421DD100BF0020009058
:100CC000DB48006840F00200D94908600846006827
:100CD00000F00200009000BF00BF4FF40040019000
:100CE000022002900020039004900920059001A9A1
:100CF000D4480AF0AFF906B010BD00B58DB00020A1
:100D000009900A900B900C90079008901C2168465F
:100D100022F0F1FE4FF08040CB490860602048602F
:100D20000021C948816041F28831C1600021016120
:100D30008021816100F0B6FF08B1FFF727FB4FF477
:100D40008050099009A9C04804F0F7FB08B1FFF7EB
:100D50001DFBBD4801F039FE08B1FFF717FB00206D
:100D60000790089007A9B84806F0AFF808B1FFF758
:100D70000DFB602000900020019002900490002262
:100D80006946B14803F034FF08B1FFF7FFFAAE48F7
:100D9000FFF742FF0DB000BD00B58DB000200990F7
:100DA0000A900B900C90079008901C21684622F046
:100DB000A2FEA148A54908604FF496504860002162
:100DC000A24881606421C1600021016180218161AC
:100DD00000F068FF08B1FFF7D9FA4FF4805009908E
:100DE00009A99A4804F0A9FB08B1FFF7CFFA974880
:100DF00001F0EBFD08B1FFF7C9FA00200790089059
:100E000007A9924806F061F808B1FFF7BFFA602021
:100E100000900020019002900490002269468B48C7
:100E200003F0E6FE08B1FFF7B1FA042269468748ED
:100E300003F0DEFE08B1FFF7A9FA082269468348ED
:100E400003F0D6FE08B1FFF7A1FA8048FFF7E4FEF1
:100E50000DB000BD1CB50020009001907C487D497C
:100E600008600A20486000217A4881601E21C16024
:100E70008021816100F016FF08B1FFF787FA20207A
:100E80000090002001906946724806F01EF808B1F3
:100E9000FFF77CFA1CBD10B56F4870490860A820A8
:100EA000486000216D4881604FF47A71C160002173
:100EB00001618021816100F0F5FE08B1FFF766FA5B
:100EC00010BD00B58BB000200790089009900A90E3
:100ED0001C21684622F00FFE5948614908602E2007
:100EE000486000215E4881606421C1604FF48071D8
:100EF00001618021816100F0D5FE08B1FFF746FA5B
:100F00004FF48050079007A9554804F016FB08B12C
:100F1000FFF73CFA524801F058FD08B1FFF736FAE6
:100F20006020009000200190029004900422694605
:100F30004B4803F05DFE08B1FFF728FA4848FFF779
:100F40006BFE0BB000BD10B5464847490860542001
:100F500048600021444881604FF47A71C1600021EB
:100F600001618021816100F09DFE08B1FFF70EFA5A
:100F700010BD38B504462068B0F1804F11D100BFD4
:100F8000002000902A481030006840F001002849F5
:100F9000103108600846006800F00100009000BFB2
:100FA0009AE025492068884211D100BF00200090B6
:100FB0001F481030006840F002001D4910310860E1
:100FC0000846006800F00200009000BF84E020495D
:100FD0002068884211D100BF0020009014481030D2
:100FE000006840F02000124910310860084600688F
:100FF00000F02000009000BF6EE017492068884292
:101000003AD100BF0020009009481430006840F435
:1010100000300749143108600846006800F40030C9
:10102000009000BF00BF0022052119201EE0000033
:101030003038024000000240000400400008024036
:101040000018004000040240000300204803002074
:10105000001400409003002000440140D803002009
:101060002004002000200040680400200AF048FE10
:1010700019200AF083FE2FE03E49206888420FD1F4
:1010800000BF002000903C48006840F040003A4912
:1010900008600846006800F04000009000BF1BE0B8
:1010A00036492068884217D100BF0020009032489E
:1010B000006840F48070304908600846006800F419
:1010C0008070009000BF00BF002205212D200AF093
:1010D00017FE2D200AF052FE38BD10B504462068D8
:1010E000B0F1804F06D12448006820F00100224969
:1010F00008603DE022492068884206D11E48006809
:1011000020F002001C49086032E01E492068884235
:1011100006D11948006820F020001749086027E030
:101120001949206888420BD11348001D006820F43B
:1011300000301149091D086019200AF033FE17E03C
:101140000C492068884206D10B48006820F0400016
:10115000094908600CE009492068884208D106481E
:10116000006820F48070044908602D200AF01AFEFF
:1011700010BD000000180040403802400020004030
:1011800000040040001400400044014010B59448A1
:10119000944908604FF4E130486000219148816033
:1011A000C16001610C21416100218161C16111F0C7
:1011B000E5FB08B1FFF7EAF810BD10B58A488B4986
:1011C00008604FF4E1304860002188488160C160C8
:1011D00001610C21416100218161C16111F0CEFBEF
:1011E00008B1FFF7D3F810BD10B5814881490860F8
:1011F0004FF4E130486000217E488160C1600161A8
:101200000C21416100218161C16111F0B7FB08B17E
:10121000FFF7BCF810BD10B586B00446142101A834
:1012200022F069FC6E492068884237D100BF002057
:1012300000907148006840F400206F49086008463B
:10124000006800F40020009000BF00BF00BF002035
:10125000009069481038006840F001006649103974
:1012600008600846006800F00100009000BF00BF61
:101270000320019002200290039000200490082097
:10128000059001A95D4809F0E5FE00220521342002
:101290000AF036FD34200AF071FD69E052492068F9
:1012A000884232D100BF002000905348001D0068E2
:1012B00040F010005049091D08600846006800F021
:1012C0001000009000BF00BF00BF002000904A48FF
:1012D0001038006840F0010047491039086008469E
:1012E000006800F00100009000BF00BF4FF4C06034
:1012F00001900220029000200390049007200590A6
:1013000001A93E4809F0A6FE32E03949206888422A
:101310002ED100BF002000903748006840F4003014
:10132000354908600846006800F40030009000BFAE
:1013300000BF00BF002000902F481038006840F028
:1013400001002D49103908600846006800F00100CE
:10135000009000BF00BF0C2001900220029003907B
:10136000012004900720059001A9244809F072FE8D
:1013700006B010BD10B504461949206888420DD149
:101380001D48006820F400201B49086003211B4809
:1013900009F043FF34200AF005FD1FE012492068E0
:1013A00088420DD11448001D006820F01000124939
:1013B000091D08604FF4C061104809F02EFF0DE0D0
:1013C0000B492068884209D10B48006820F400309E
:1013D000094908600C21094809F01FFF10BD0000F1
:1013E000004C0040B004002000100140F804002030
:1013F0000044004040050020403802400000024008
:1014000009F015FE00BFFEE700BFFEE700BFFEE7E4
:1014100000BFFEE700BFFEE77047704710B51648F3
:101420000AF0B7FA10BD10B514480BF06EFA10BDF3
:1014300010B5134803F01EF910BD10B5114803F0A4
:1014400019F910BD10B5104803F014F910BD10B50E
:101450000E4812F090FC10BD10B50D480CF0BBFB0F
:1014600010BD10B50B480AF094FA10BD10B50A482B
:1014700007F0F0F910BD00003C02002080010020C0
:10148000D80300208805002068040020B004002054
:1014900028020020C80100200434012008B500BF44
:1014A000002000901548006840F48040134908600F
:1014B0000846006800F48040009000BF00BF00BFF5
:1014C00000200090081F006840F08050091F08604D
:1014D0000846006800F08050009000BF00BF002266
:1014E0000F21901E0AF00CFC0022052108460AF08C
:1014F00007FC05200AF042FC08BD00004438024009
:101500002DE9F04188B004460027B84600BF00200E
:1015100001902C48006840F080002A490860084685
:10152000006800F08000019000BF00BF02A903A87E
:1015300009F05BFD069F1FB909F0B1FC054602E00A
:1015400009F0ADFC45002048B5FBF0F0A0F1010822
:101550001E481F49086040F2E7311D48C160C0F8CD
:101560000480002101618160816100F09BFB0646DF
:1015700096B9174800F05EFC06466EB92C200AF0BA
:10158000FDFB102C07D2002221462C200AF0B8FBCC
:101590001048046000E00126304608B0BDE8F08144
:1015A0000B480068C06820F0010009490968C8605C
:1015B000704707480068C06840F0010004490968A6
:1015C000C86070474038024040420F00001C004095
:1015D00088050020280000203048006840F4700092
:1015E0002E4908604FF000602C4980390860704730
:1015F00070B500200022022300240221284D2D680E
:1016000005F00C0020B1042806D0082834D107E0EA
:10161000244D254E356033E0244D234E35602FE0B8
:101620001F4D2D1F2D68C5F380541D4D2D1F2D6896
:1016300005F03F0154B11D4DB5FBF1F5184E361FB5
:101640003668C6F3881605FB06F209E0154DB5FBB2
:10165000F1F5134E361F3668C6F3881605FB06F201
:101660000F4D2D1F2D68C5F301456D1C6B00B2FB9E
:10167000F3F50D4E356003E00A4D0B4E356000BFAB
:1016800000BF074D2D68C5F30315094E705D064D6B
:101690002D68C540044E356070BD000088ED00E047
:1016A000083802400024F4000C00002040787D013E
:1016B0009C3E030838B504460D46E0B200904FF456
:1016C0007A73012269460A4811F008FB204638BDAA
:1016D00038B50446642301226946054811F05DFBD4
:1016E0009DF8000038BD00BF704700BF7047000084
:1016F000F804002010B500209C49087060219C4827
:1017000022F0D7F960219B4822F0D3F93022984982
:1017100099480BF0FFF9994B0D2299A19FA021F058
:10172000E7FF10BDA54A0168914202D10121A44AF8
:101730001170704730B587B000BFA148007800280D
:10174000FBD000209E4908708848007800287DD191
:1017500089480BF0B6FA3022864987480BF0DAF94F
:10176000012082490870182101A822F0C4F9002440
:1017700015E000250FE001A850F8240005EB450115
:1017800004EB41017A4A32F81110084401A941F8EA
:101790002400681CC5B2082DEDDB601CC4B2062C09
:1017A000E7DB9DED010AB8EE400AF2EE000A80EE9A
:1017B000201ABCEEC10A10EE100A00B28149A1F84D
:1017C000660A9DED020AB8EE400AF2EE000A80EECB
:1017D000201ABCEEC10A10EE100A00B2A1F8680A85
:1017E0009DED030AB8EE400AF2EE000A80EE201AE0
:1017F000BCEEC10A10EE100A00B2A1F86A0A9DED13
:10180000040AB8EE400AF2EE000A80EE201ABCEE9E
:10181000C10A10EE100A00B2A1F86C0A9DED050A8B
:10182000B8EE400AF2EE000A80EE201ABCEEC10AC1
:1018300010EE100A00B2A1F86E0A9DED060AB8EE8D
:10184000400AF2EE000A80EE201A00E007E0BCEE4B
:10185000C10A10EE100A00B2A1F8700A83E04648EF
:101860000BF02FFA3022424943480BF053F9002085
:101870003E490870182101A822F03DF9002415E026
:1018800000250FE001A850F8240005EB450104EB0A
:101890004101384A32F81110084401A941F82400E6
:1018A000681CC5B2082DEDDB601CC4B2062CE7DB5A
:1018B0009DED010AB8EE400AF2EE000A80EE201A11
:1018C000BCEEC10A10EE100A00B23E49A1F8660A49
:1018D0009DED020AB8EE400AF2EE000A80EE201AF0
:1018E000BCEEC10A10EE100A00B2A1F8680A9DED24
:1018F000030AB8EE400AF2EE000A80EE201ABCEEAF
:10190000C10A10EE100A00B2A1F86A0A9DED040A9D
:10191000B8EE400AF2EE000A80EE201ABCEEC10AD0
:1019200010EE100A00B2A1F86C0A9DED050AB8EE9F
:10193000400AF2EE000A80EE201ABCEEC10A10EE58
:10194000100A00B2A1F86E0A9DED060AB8EE400A30
:10195000F2EE000A80EE201ABCEEC10A10EE100A68
:1019600000B2A1F8700A07B030BD000018000020D6
:10197000B03C0020103D002080010020B43E030850
:101980002E2E5C2E2E5C73506C63506F72745C73E1
:10199000506C634164632E630000000025732C25A6
:1019A000642C25733A7374617274206164632069D6
:1019B0006E69742E2E2E2E2E2E0A0000002001405D
:1019C00019000020D00500200020414948800880EF
:1019D0004049086040490880704701463C4B1B88DD
:1019E000581CC31700EB13531B13A0EB03339AB21D
:1019F00037484088904205D035480388001DC154BF
:101A0000001F02807047014631484088304A1288E2
:101A100090420FD02E484288001D805C08702C4AEE
:101A20005288501CC21700EB12521213A0EB023264
:101A3000274B5A8070472648008800F58050244A7A
:101A40005288811AC81701EB10500013A1EB003027
:101A500080B27047F8B504460D460026002000907D
:101A60002FE06846FFF7CFFF1B48008820B99DF89C
:101A70000000EE2800D024E017480088A84208DAC9
:101A80009DF80010144802880088401C124B1880F2
:101A9000A1549DF800000F49096840EA01200D4952
:101AA0000860084600686FF44031884208D10A484F
:101AB0000688002007490860074908803046F8BDBD
:101AC00000BFFFF7B8FF0028CBDC0020F7E70000DD
:101AD000703D00201C0000202000002010B50122D5
:101AE0002349244811F0F6F9234B282223A12AA0E8
:101AF00021F0FEFD10BD31B54FF47A730122694625
:101B00001C4811F0EBF804462CB12C4B33221BA1DE
:101B10002BA021F0EDFD38BD10B5044631492068F9
:101B2000884208D112480078FFF757FF0122104978
:101B3000104811F0CFF910BD10B5044629492068AE
:101B4000884208D10A480078FFF747FF0122084978
:101B5000084811F0BFF910BD10B5044621492068AE
:101B6000884204D101220249024811F0B3F910BDA4
:101B700022000020B0040020C03E03082E2E5C2E60
:101B80002E5C6463486D695C686D69557365725558
:101B90006172742E6300000025732C25642C25735C
:101BA0003A737461727420686D6920756172742073
:101BB000696E69742E2E2E2E2E2E0A00CC3E03083E
:101BC00025732C25642C25733A686D692075617224
:101BD000742074782074696D656F757421212121DA
:101BE0000A000000004C004010B50268FD4B98420E
:101BF0000ED0B0F1804F0BD0FB4B984208D0FB4B7E
:101C0000984205D0FA4B984202D0FA4B984203D141
:101C100022F070024B681A43F24B984220D0B0F188
:101C2000804F1DD0F04B98421AD0F04B984217D0FD
:101C3000EF4B984214D0EF4B984211D0EE4B9842A4
:101C40000ED0EE4B98420BD0ED4B984208D0ED4BA6
:101C5000984205D0EC4B984202D0EC4B984203D10D
:101C600022F44072CB681A4322F080034C6943EAA5
:101C7000040202608B68C3620B688362D94B98428E
:101C800002D0DC4B984201D10B690363012343610D
:101C9000036903F001031BB1036923F0010303612E
:101CA00010BD704710B504460CB9012010BD94F862
:101CB0003D0028B9002084F83C002046FFF759F980
:101CC000022084F83D00211D2068FFF78DFF0120D0
:101CD00084F8460000BF84F83E0001213F200155F2
:101CE000402001554120015500BF00BF012084F86C
:101CF000420043200155442001554520015500BFB5
:101D0000012084F83D000020D0E7704710B504465C
:101D1000022084F83D0000BF2068006A41F21111E2
:101D2000084050B92068006A8910084028B9206826
:101D3000006820F001002168086000BF2046FFF71E
:101D4000CCF9002084F8460000BF84F83E00002152
:101D50003F200155402001554120015500BF00BFE3
:101D6000002084F8420043200155442001554520BD
:101D7000015500BF002084F83D0000BF84F83C00FE
:101D800000BF10BD014691F83D00012801D001209F
:101D90007047022081F83D00924B086898421BD0A2
:101DA0000868B0F1804F17D08F4B0868984213D065
:101DB0008E4B086898420FD08D4B086898420BD024
:101DC0008C4B0868984207D08B4B0868984203D028
:101DD0008C4B086898420CD10868806800F00702B4
:101DE000062A0CD00868006840F001000B681860F3
:101DF00005E00868006840F001000B6818600020EA
:101E0000C6E7014600BF0868006A41F2111210409F
:101E100050B90868006A9210104028B90868006834
:101E200020F001000A68106000BF012081F83D0029
:101E300000207047014691F83D00012801D00120A3
:101E40007047022081F83D000868C06840F001003A
:101E50000B68D860634B086898421BD00868B0F1E3
:101E6000804F17D0604B0868984213D05F4B0868CA
:101E700098420FD05E4B086898420BD05D4B0868C3
:101E8000984207D05C4B0868984203D05D4B0868C5
:101E900098420CD10868806800F00702062A0CD02E
:101EA0000868006840F001000B68186005E00868E9
:101EB000006840F001000B6818600020C0E7014690
:101EC0000868C06820F001000A68D06000BF086898
:101ED000006A41F21112104050B90868006A92106D
:101EE000104028B90868006820F001000A681060F6
:101EF00000BF012081F83D0000207047704770B599
:101F00000546AC6B606AA84204D10120207784F8B2
:101F10003E001DE0A06AA84205D1022020770121E1
:101F20003F20015514E0E06AA84205D10420207743
:101F30000121402001550BE0206BA84205D108206B
:101F4000207701214120015502E0012084F83D0065
:101F50002046FFF7D3FF0020207770BD704770B593
:101F60000446A56B2846FFF7F9FF70BD704770B5B2
:101F70000546AC6B206AC06910B9012084F83D00A9
:101F80002046FEF78CFA70BD2DE9F04104460E465E
:101F9000154694F83D00022801D1BDE8F08194F87F
:101FA0003D00012807D106B10DB90120F5E7022057
:101FB00084F83D0001E00120EFE71548216AC8637D
:101FC0001448216A0864AFF2C900216AC864216814
:101FD00001F12C022B463146206A09F076FBD8B17C
:101FE0000120DAE700000140000400400008004042
:101FF000000C00400004014000400140004401404A
:102000000048014000180040001C00400020004033
:102010006F1F01085F1F01082068C06840F48070CE
:102020002168C860F849206888421BD02068B0F158
:10203000804F17D0F5492068884213D0F4492068B2
:1020400088420FD0F349206888420BD0F2492068BB
:10205000884207D0F1492068884203D0F0492068BF
:1020600088420CD12068806800F00707062F0CD04A
:102070002068006840F001002168086005E02068E1
:10208000006840F0010021680860002085E710B575
:1020900004462068C06820F480702168C860206A07
:1020A00009F0B6FB00BF2068006A41F21111084038
:1020B00050B92068006A8910084028B92068006873
:1020C00020F001002168086000BF012084F83D0075
:1020D000002010BD704710B504460CB9012010BD9A
:1020E00094F83D0028B9002084F83C002046FFF712
:1020F000F1FF022084F83D00211D2068FFF774FDE8
:10210000012084F8460000BF84F83E0001213F20F2
:102110000155402001554120015500BF00BF01205D
:1021200084F84200432001554420015545200155C3
:1021300000BF012084F83D000020D0E7704710B5B3
:102140000446022084F83D0000BF2068006A41F286
:102150001111084050B92068006A8910084028B958
:102160002068006820F001002168086000BF204658
:10217000FFF7E4FF002084F8460000BF84F83E002B
:1021800000213F200155402001554120015500BF4D
:1021900000BF002084F8420043200155442001552F
:1021A0004520015500BF002084F83D0000BF84F8A1
:1021B0003C0000BF10BD30B501F01F05012404FA3A
:1021C00005F3046A9C430462046A01F01F0502FAE5
:1021D00005F52C43046230BD70B504460D4615B9B3
:1021E00094F83E000BE0042D02D13F20005D06E094
:1021F000082D02D14020005D01E04120005D012852
:1022000001D0012070BD1DB9022084F83E000EE00F
:10221000042D03D102213F20015508E0082D03D1F0
:1022200002214020015502E00221412001550122F6
:1022300029462068FFF7BFFF73492068884203D012
:1022400075492068884201D1012000E0002028B1B2
:102250002068406C40F40040216848646A49206866
:1022600088421BD02068B0F1804F17D067492068A2
:10227000884213D06649206888420FD0654920689B
:1022800088420BD064492068884207D0634920689F
:10229000884203D06249206888420CD12068806857
:1022A00000F00706062E0CD02068006840F0010000
:1022B0002168086005E02068006840F0010021689E
:1022C000086000209EE730B504460D4600222946EE
:1022D0002068FFF770FF4C492068884203D04E49C0
:1022E0002068884201D1012000E0002090B100BFA9
:1022F0002068006A41F21111084050B92068006A54
:102300008910084028B92068406C20F400402168FA
:10231000486400BF00BF2068006A41F21111084004
:1023200050B92068006A8910084028B92068006800
:1023300020F001002168086000BF1DB9012084F869
:102340003E000EE0042D03D101213F20015508E09D
:10235000082D03D101214020015502E00121412037
:102360000155002030BDF0B504460D46002615B9D4
:1023700094F83E000BE0042D02D13F20005D06E002
:10238000082D02D14020005D01E04120005D0128C0
:1023900001D00120F0BD1DB9022084F83E000EE0FE
:1023A000042D03D102213F20015508E0082D03D15F
:1023B00002214020015502E002214120015535B1A2
:1023C000042D0BD0082D10D00C2D2BD114E020683B
:1023D000C06840F002002168C86025E02068C0683D
:1023E00040F004002168C8601EE02068C06840F02A
:1023F00008002168C86017E02068C06840F010003D
:102400002168C86010E000000000014000040040A6
:1024100000080040000C0040000401400040014062
:1024200000180040012600BF00BFEEBB0122294674
:102430002068FFF7C0FEFA492068884203D0F949B6
:102440002068884201D1012000E0002028B12068E6
:10245000406C40F4004021684864F149206888429B
:102460001BD02068B0F1804F17D0EF492068884218
:1024700013D0EE49206888420FD0ED492068884289
:102480000BD0E8492068884207D0EA492068884292
:1024900003D0E949206888420ED12068806800F0A6
:1024A0000707062F0ED000E00CE02068006840F01F
:1024B00001002168086005E02068006840F0010024
:1024C00021680860304665E770B504460D46002671
:1024D00035B1042D0BD0082D10D00C2D1CD114E0DB
:1024E0002068C06820F002002168C86016E02068FB
:1024F000C06820F004002168C8600FE02068C06850
:1025000020F008002168C86008E02068C06820F05A
:1025100010002168C86001E0012600BF00BF002E46
:102520004AD1002229462068FFF745FEBC492068B1
:10253000884203D0BB492068884201D1012000E0D5
:10254000002090B100BF2068006A41F211110840DC
:1025500050B92068006A8910084028B92068406C8A
:1025600020F400402168486400BF00BF2068006A72
:1025700041F21111084050B92068006A89100840E2
:1025800028B92068006820F001002168086000BFB9
:102590001DB9012084F83E000EE0042D03D1012175
:1025A0003F20015508E0082D03D1012140200155AD
:1025B00002E0012141200155304670BD704770B5E1
:1025C0000546AC6B606AA84202D10120207710E07A
:1025D000A06AA84202D1022020770AE0E06AA8425D
:1025E00002D10420207704E0206BA84201D108200A
:1025F00020772046FFF7E2FF0020207770BD70476C
:1026000070B50546AC6B606AA84207D101202077FF
:10261000E86918BB012084F83E001FE0A06AA842C8
:1026200007D102202077E869C0B901213F20015578
:1026300014E0E06AA84207D104202077E86968B96D
:1026400001214020015509E0206BA84206D1082055
:102650002077E86910B90121412001552046FFF794
:10266000CEFF0020207770BD2DE9F04704460D46CF
:1026700016461F464FF0000815B994F83E000BE0CF
:10268000042D02D13F20005D06E0082D02D140203C
:10269000005D01E04120005D022801D1BDE8F08726
:1026A00015B994F83E000BE0042D02D13F20005DE7
:1026B00006E0082D02D14020005D01E04120005DD0
:1026C000012818D106B10FB90120E7E71DB9022092
:1026D00084F83E0011E0042D03D102213F20015572
:1026E0000BE0082D03D102214020015505E0022115
:1026F0004120015501E00120D0E735B1042D21D062
:10270000082D3CD00C2D75D156E04C49606AC16350
:10271000AFF25511606A0164AFF61D01606AC164D1
:10272000216801F134023B463146606A08F0CDFF72
:1027300008B10120B2E72068C06840F40070216849
:10274000C8605AE03D49A06AC163AFF28D11A06A2A
:102750000164AFF65501A06AC164216801F1380235
:102760003B463146A06A08F0B0FF08B1012095E76A
:102770002068C06840F480602168C8603DE02F494F
:10278000E06AC163AFF2C911E06A0164AFF691017A
:10279000E06AC164216801F13C023B463146E06ACF
:1027A00008F093FF08B1012078E72068C06840F482
:1027B00000602168C86020E02049206BC163AFF24F
:1027C0000121206B0164AFF6C901206BC16421684F
:1027D00001F140023B463146206B08F076FF08B11C
:1027E00001205BE72068C06840F480502168C86021
:1027F00003E0FFE74FF0010800BF00BFB8F1000F92
:102800005AD1012229462068FFF7D5FC04492068E7
:10281000884203D003492068884211D1012010E08A
:102820000000014000040140000400400008004096
:10283000000C004000400140001800400126010843
:10284000002028B12068406C40F4004021684864B2
:10285000F749206888421BD02068B0F1804F17D01C
:10286000F4492068884213D0F349206888420FD089
:10287000F249206888420BD0F1492068884207D08D
:10288000F0492068884203D0EF49206888420DD182
:102890002068806800F00709B9F1060F0CD02068A5
:1028A000006840F001002168086005E020680068C9
:1028B00040F00100216808604046EFE670B504462C
:1028C0000D46002635B1042D0ED0082D16D00C2D46
:1028D00028D11DE02068C06820F400702168C8601D
:1028E000606A08F095FF1FE02068C06820F48060EF
:1028F0002168C860A06A08F08BFF15E02068C068F6
:1029000020F400602168C860E06A08F081FF0BE0F5
:102910002068C06820F480502168C860206B08F0EF
:1029200077FF01E0012600BF00BF002E4AD1002240
:1029300029462068FFF73FFCBD492068884203D044
:10294000BF492068884201D1012000E0002090B1F9
:1029500000BF2068006A41F21111084050B9206898
:10296000006A8910084028B92068406C20F40040B3
:102970002168486400BF00BF2068006A41F211115D
:10298000084050B92068006A8910084028B92068BA
:10299000006820F001002168086000BF1DB9012017
:1029A00084F83E000EE0042D03D101213F200155A3
:1029B00008E0082D03D101214020015502E001214A
:1029C00041200155304670BD704710B504460CB922
:1029D000012010BD94F83D0028B9002084F83C0087
:1029E0002046FFF7F1FF022084F83D00211D2068FA
:1029F000FFF7FAF8012084F8460000BF84F83E0093
:102A000001213F200155402001554120015500BFC3
:102A100000BF012084F842004320015544200155A5
:102A20004520015500BF012084F83D000020D0E77B
:102A3000704710B50446022084F83D0000BF2068AE
:102A4000006A41F21111084050B92068006A8910EB
:102A5000084028B92068006820F00100216808605B
:102A600000BF2046FFF7E4FF002084F8460000BFC7
:102A700084F83E0000213F200155402001554120AF
:102A8000015500BF00BF002084F8420043200155DB
:102A9000442001554520015500BF002084F83D0029
:102AA00000BF84F83C0000BF10BD70B504460D4661
:102AB00015B994F83E000BE0042D02D13F20005DD3
:102AC00006E0082D02D14020005D01E04120005DBC
:102AD000012801D0012070BD1DB9022084F83E00FC
:102AE0000EE0042D03D102213F20015508E0082DFE
:102AF00003D102214020015502E00221412001556D
:102B0000012229462068FFF756FB49492068884280
:102B100003D04B492068884201D1012000E0002009
:102B200028B12068406C40F4004021684864404966
:102B3000206888421BD02068B0F1804F17D03D49F3
:102B40002068884213D03C49206888420FD03B4916
:102B5000206888420BD03A492068884207D039491A
:102B60002068884203D03849206888420CD1206808
:102B7000806800F00706062E0CD02068006840F040
:102B800001002168086005E02068006840F001004D
:102B90002168086000209EE730B504460D460022FB
:102BA00029462068FFF707FB21492068884203D0A7
:102BB00023492068884201D1012000E0002090B123
:102BC00000BF2068006A41F21111084050B9206826
:102BD000006A8910084028B92068406C20F4004041
:102BE0002168486400BF00BF2068006A41F21111EB
:102BF000084050B92068006A8910084028B9206848
:102C0000006820F001002168086000BF1DB90120A4
:102C100084F83E001DE0042D03D101213F20015521
:102C200017E0082D12D101214020015511E00000CC
:102C3000000001400004004000080040000C00407B
:102C400000040140004001400018004001214120E3
:102C50000155002030BDF0B504460D46002615B9DB
:102C600094F83E000BE0042D02D13F20005D06E009
:102C7000082D02D14020005D01E04120005D0128C7
:102C800001D00120F0BD1DB9022084F83E000EE005
:102C9000042D03D102213F20015508E0082D03D166
:102CA00002214020015502E002214120015535B1A9
:102CB000042D0BD0082D10D00C2D1CD114E0206851
:102CC000C06840F002002168C86016E02068C06853
:102CD00040F004002168C8600FE02068C06840F040
:102CE00008002168C86008E02068C06840F0100053
:102CF0002168C86001E0012600BF00BFF6BB0122C9
:102D000029462068FFF757FAF7492068884203D020
:102D1000F6492068884201D1012000E0002028B156
:102D20002068406C40F4004021684864EE49206807
:102D300088421BD02068B0F1804F17D0EC49206842
:102D4000884213D0EB49206888420FD0EA492068B6
:102D500088420BD0E5492068884207D0E7492068BF
:102D6000884203D0E649206888420ED120688068F6
:102D700000F00707062F0ED0206800E00BE0006887
:102D800040F001002168086005E02068006840F01C
:102D9000010021680860304674E770B504460D46AE
:102DA000002635B1042D0BD0082D10D00C2D1CD1D0
:102DB00014E02068C06820F002002168C86016E0B6
:102DC0002068C06820F004002168C8600FE0206817
:102DD000C06820F008002168C86008E02068C0686A
:102DE00020F010002168C86001E0012600BF00BF8C
:102DF000002E4AD1002229462068FFF7DCF9BA49A3
:102E00002068884203D0B9492068884201D1012056
:102E100000E0002090B100BF2068006A41F211116B
:102E2000084050B92068006A8910084028B9206815
:102E3000406C20F400402168486400BF00BF206857
:102E4000006A41F21111084050B92068006A8910E7
:102E5000084028B92068006820F001002168086057
:102E600000BF1DB9012084F83E000EE0042D03D1FF
:102E700001213F20015508E0082D03D10121402008
:102E8000015502E0012141200155304670BD2DE978
:102E9000F04704460D4616461F464FF0000815B988
:102EA00094F83E000BE0042D02D13F20005D06E0C7
:102EB000082D02D14020005D01E04120005D022884
:102EC00001D1BDE8F08715B994F83E000BE0042D60
:102ED00002D13F20005D06E0082D02D14020005DB8
:102EE00001E04120005D012818D106B10FB9012091
:102EF000E7E71DB9022084F83E0011E0042D03D15C
:102F000002213F2001550BE0082D03D10221402072
:102F1000015505E002214120015501E00120D0E7E3
:102F200035B1042D20D0082D3AD00C2D71D153E0AD
:102F30007449606AC163AFF67911606A01647249CD
:102F4000606AC164216801F134023B463146606A1F
:102F500008F0BBFB08B10120B3E72068C06840F46B
:102F600000702168C86057E06649A06AC163AFF687
:102F7000B111A06A01646449A06AC164216801F1C9
:102F800038023B463146A06A08F09FFB08B1012099
:102F900097E72068C06840F480602168C8603BE023
:102FA0005849E06AC163AFF6E911E06A0164564925
:102FB000E06AC164216801F13C023B463146E06AA7
:102FC00008F083FB08B101207BE72068C06840F46B
:102FD00000602168C8601FE04A49206BC163AFF6FA
:102FE0002121206B01644849206BC164216801F1F3
:102FF00040023B463146206B08F067FB08B10120D8
:103000005FE72068C06840F480502168C86003E032
:10301000FFE74FF0010800BF00BFB8F1000F4AD131
:10302000012229462068FFF7C6F82F492068884208
:1030300003D02E492068884201D1012000E0002001
:1030400028B12068406C40F400402168486426495B
:10305000206888421BD02068B0F1804F17D02449E7
:103060002068884213D02349206888420FD0224923
:10307000206888420BD01D492068884207D01F492C
:103080002068884203D01E49206888420DD12068FC
:10309000806800F00709B9F1060F0CD020680068BD
:1030A00040F001002168086005E02068006840F0F9
:1030B000010021680860404603E770B504460D46EC
:1030C000002635B1042D21D0082D29D00C2D3BD15F
:1030D00030E02068C06820F400702168C860606A31
:1030E00008F096FB32E000000000014000040140BF
:1030F0000004004000080040000C00400040014077
:103100000018004001260108FF1E01082068C06861
:1031100020F480602168C860A06A08F079FB15E09F
:103120002068C06820F400602168C860E06A08F088
:103130006FFB0BE02068C06820F480502168C860F5
:10314000206B08F065FB01E0012600BF00BF002EE8
:103150004AD1002229462068FFF72DF8FA49206855
:10316000884203D0F9492068884201D1012000E05B
:10317000002090B100BF2068006A41F211110840A0
:1031800050B92068006A8910084028B92068406C4E
:1031900020F400402168486400BF00BF2068006A36
:1031A00041F21111084050B92068006A89100840A6
:1031B00028B92068006820F001002168086000BF7D
:1031C0001DB9012084F83E000EE0042D03D1012139
:1031D0003F20015508E0082D03D101214020015571
:1031E00002E0012141200155304670BD704710B505
:1031F00004460CB9012010BD94F83D0028B9002008
:1032000084F83C002046FFF7F1FF022084F83D00DF
:10321000211D2068FEF7E8FC012084F8460000BF6D
:1032200084F83E0001213F200155402001554120F6
:10323000015500BF00BF012084F842004320015522
:10324000442001554520015500BF012084F83D0070
:103250000020D0E7704710B50446022084F83D00F6
:1032600000BF2068006A41F21111084050B920687F
:10327000006A8910084028B92068006820F0010021
:103280002168086000BF2046FFF7E4FF002084F8B3
:10329000460000BF84F83E0000213F200155402039
:1032A00001554120015500BF00BF002084F84200B5
:1032B00043200155442001554520015500BF002001
:1032C00084F83D0000BF84F83C0000BF10BD2DE92C
:1032D000F04104460D4615B994F83E000BE0042D6C
:1032E00002D13F20005D06E0082D02D14020005DA4
:1032F00001E04120005D074615B994F842000BE05B
:10330000042D02D14320005D06E0082D02D14420A7
:10331000005D01E04520005D8046012F02D1B8F13B
:10332000010F02D00120BDE8F0811DB9022084F810
:103330003E000EE0042D03D102213F20015508E09C
:10334000082D03D102214020015502E00221412035
:1033500001551DB9022084F842000EE0042D03D16E
:1033600002214320015508E0082D03D10221442009
:10337000015502E00221452001550122294620681D
:10338000FEF719FF7049206888421BD02068B0F111
:10339000804F17D06E492068884213D06D4920684D
:1033A00088420FD06C49206888420BD0674920685A
:1033B000884207D069492068884203D0684920685C
:1033C00088420CD12068806800F00706062E0CD0D9
:1033D0002068006840F001002168086005E020686E
:1033E000006840F001002168086000209BE730B5CC
:1033F00004460D46002229462068FEF7DCFE00BF89
:103400002068006A41F21111084050B92068006A32
:103410008910084028B92068006820F00100216860
:10342000086000BF1DB9012084F83E000EE0042DA5
:1034300003D101213F20015508E0082D03D10121CE
:103440004020015502E00121412001551DB9012014
:1034500084F842000EE0042D03D1012143200155E0
:1034600008E0082D03D101214420015502E001218B
:1034700045200155002030BD2DE9F04304460D469E
:10348000002615B994F83E000BE0042D02D13F2030
:10349000005D06E0082D02D14020005D01E04120E2
:1034A000005D804615B994F842000BE0042D02D16E
:1034B0004320005D06E0082D02D14420005D01E0BC
:1034C0004520005D8146B8F1010F02D1B9F1010F2D
:1034D00002D00120BDE8F0831DB9022084F83E002F
:1034E0000EE0042D03D102213F20015508E0082DF4
:1034F00003D102214020015502E002214120015563
:103500001DB9022084F842000EE0042D03D10221EF
:103510004320015508E0082D03D102214420015524
:1035200002E002214520015535B1042D1AD0082DA5
:103530001FD00C2D2BD123E02068C06840F0020082
:103540002168C86025E0000000000140000401403F
:103550000004004000080040000C00400040014012
:10356000001800402068C06840F004002168C8606E
:103570000FE02068C06840F008002168C86008E0DB
:103580002068C06840F010002168C86001E0012692
:1035900000BF00BF86BB012229462068FEF70BFE54
:1035A000F649206888421BD02068B0F1804F17D0C0
:1035B000F3492068884213D0F249206888420FD02E
:1035C000F149206888420BD0F0492068884207D032
:1035D000EF492068884203D0EE49206888420CD128
:1035E0002068806800F00707062F0CD0206800686C
:1035F00040F001002168086005E02068006840F0A4
:10360000010021680860304664E770B504460D4645
:10361000002635B1042D0BD0082D10D00C2D1CD157
:1036200014E02068C06820F002002168C86016E03D
:103630002068C06820F004002168C8600FE020689E
:10364000C06820F008002168C86008E02068C068F1
:1036500020F010002168C86001E0012600BF00BF13
:10366000002E3FD1002229462068FEF7A4FD00BFAE
:103670002068006A41F21111084050B92068006AC0
:103680008910084028B92068006820F001002168EE
:10369000086000BF1DB9012084F83E000EE0042D33
:1036A00003D101213F20015508E0082D03D101215C
:1036B0004020015502E00121412001551DB90120A2
:1036C00084F842000EE0042D03D10121432001556E
:1036D00008E0082D03D101214420015502E0012119
:1036E00045200155304670BD704770B50546AC6B3E
:1036F000606AA84202D10120207710E0A06AA842A7
:1037000002D1022020770AE0E06AA84202D1042018
:10371000207704E0206BA84201D1082020772046C2
:10372000FFF7E2FF0020207770BD704770B50546B7
:10373000AC6B606AA8420AD101202077E8690028B2
:103740002BD1012084F83E0084F8420025E0A06AD5
:10375000A84209D102202077E869F0B901213F2071
:1037600001554320015518E0E06AA84209D1042020
:103770002077E86988B9012140200155442001558E
:103780000BE0206BA84208D108202077E86920B917
:10379000012141200155452001552046FFF7C5FF75
:1037A0000020207770BD2DE9F05F04460D461646D7
:1037B0001F464FF0000B15B994F83E000BE0042DA6
:1037C00002D13F20005D06E0082D02D14020005DBF
:1037D00001E04120005D814615B994F842000BE0FC
:1037E000042D02D14320005D06E0082D02D14420C3
:1037F000005D01E04520005D8246B9F1020F02D074
:10380000BAF1020F02D10220BDE8F09FB9F1010F19
:103810002FD1BAF1010F2CD106B10FB90120F3E776
:103820001DB9022084F83E000EE0042D03D10221D0
:103830003F20015508E0082D03D102214020015509
:1038400002E00221412001551DB9022084F8420006
:1038500011E0042D03D10221432001550BE0082D76
:1038600003D102214420015505E0022145200155E4
:1038700001E00120C8E7012229462068FEF79BFCF1
:1038800035B1042D21D0082D3CD00C2D74D156E03B
:10389000AFF26711606AC163AFF2B111606A01648F
:1038A0003D49606AC164226802F134013B463246F8
:1038B000606A07F00AFF08B10120A5E72068C06828
:1038C00040F400702168C8606BE0AFF29F11A06AFD
:1038D000C163AFF2E911A06A01642F49A06AC16413
:1038E000226802F138013B463246A06A07F0EDFE3D
:1038F00008B1012088E72068C06840F48060216832
:10390000C8604EE0AFF2DB11E06AC163AFF225217F
:10391000E06A01642049E06AC164226802F13C0166
:103920003B463246E06A07F0D0FE08B101206BE763
:103930002068C06840F400602168C86031E0AFF2E0
:103940001321206BC163AFF25D21206B016412492A
:10395000206BC164226802F140013B463246206B75
:1039600007F0B3FE08B101204EE72068C06840F4BC
:1039700080502168C86014E010E0000000000140A1
:103980000004004000080040000C0040000401401A
:103990000040014000180040FF1E01084FF0010BDD
:1039A00000BF00BFF849206888421BD02068B0F1F2
:1039B000804F17D0F5492068884213D0F449206819
:1039C00088420FD0F349206888420BD0F249206822
:1039D000884207D0F1492068884203D0F049206826
:1039E00088420DD12068806800F00708B8F1060F02
:1039F0000CD02068006840F001002168086005E0F4
:103A00002068006840F00100216808605846FBE625
:103A100070B504460D460026002229462068FEF7B0
:103A2000CAFB35B1042D0ED0082D16D00C2D28D18F
:103A30001DE02068C06820F400702168C860606ADA
:103A400007F0E6FE1FE02068C06820F4806021686F
:103A5000C860A06A07F0DCFE15E02068C06820F4AA
:103A600000602168C860E06A07F0D2FE0BE02068C1
:103A7000C06820F480502168C860206B07F0C8FE41
:103A800001E0012600BF00BF56BB00BF2068006AEE
:103A900041F21111084050B92068006A89100840AD
:103AA00028B92068006820F001002168086000BF84
:103AB0001DB9012084F83E000EE0042D03D1012140
:103AC0003F20015508E0082D03D101214020015578
:103AD00002E00121412001551DB9012084F8420076
:103AE0000EE0042D03D101214320015508E0082DEB
:103AF00003D101214420015502E001214520015557
:103B0000304670BD704770B504460D460CB90120B3
:103B100070BD94F83D0028B9002084F83C00204690
:103B2000FFF7F0FF022084F83D00211D2068FEF71A
:103B30005BF82068006820F00800216808602068B1
:103B40000068284321680860012084F8460084F852
:103B50003E0001213F200155012084F8420043200E
:103B60000155012084F83D000020D1E7704710B5D1
:103B70000446022084F83D0000BF2068006A41F23C
:103B80001111084050B92068006A8910084028B90E
:103B90002068006820F001002168086000BF20460E
:103BA000FFF7E4FF002084F8460084F83E0000217F
:103BB0003F200155002084F8420043200155002099
:103BC00084F83D0000BF84F83C0000BF10BD2DE923
:103BD000F0430446894694F83E503F20065D94F831
:103BE0004270432010F80480012D06D1012E04D12B
:103BF000012F02D1B8F1010F02D00120BDE8F083FE
:103C0000022084F83E0002213F200155022084F862
:103C1000420043200155012200212068FEF7CBFA23
:103C2000012204212068FEF7C6FA5749206888421D
:103C300003D059492068884201D1012000E00020CA
:103C400028B12068406C40F400402168486400209E
:103C5000D4E730B504460D46002211462068FEF731
:103C6000AAFA002204212068FEF7A5FA4649206836
:103C7000884203D048492068884201D1012000E0F1
:103C8000002090B100BF2068006A41F21111084085
:103C900050B92068006A8910084028B92068406C33
:103CA00020F400402168486400BF00BF2068006A1B
:103CB00041F21111084050B92068006A891008408B
:103CC00028B92068006820F001002168086000BF62
:103CD000012084F83E0001213F200155012084F895
:103CE000420043200155002030BD2DE9F043044639
:103CF000894694F83E503F20065D94F84270432078
:103D000010F80480012D06D1012E04D1012F02D11B
:103D1000B8F1010F02D00120BDE8F083022084F841
:103D20003E0002213F200155022084F8420043203A
:103D300001552068C06840F002002168C860206812
:103D4000C06840F004002168C8600122002120689A
:103D5000FEF731FA012204212068FEF72CFA0A4905
:103D60002068884203D00C492068884201D1012094
:103D700000E0002028B12068406C40F40040216839
:103D800048640020C8E70000000001400004004033
:103D900000080040000C00400004014000400140C9
:103DA0000018004030B504460D462068C06820F079
:103DB00002002168C8602068C06820F00400216803
:103DC000C860002211462068FEF7F5F900220421A0
:103DD0002068FEF7F0F9FC492068884203D0FB49CF
:103DE0002068884201D1012000E0002090B100BF8E
:103DF0002068006A41F21111084050B92068006A39
:103E00008910084028B92068406C20F400402168DF
:103E1000486400BF00BF2068006A41F211110840E9
:103E200050B92068006A8910084028B920680068E5
:103E300020F001002168086000BF012084F83E00E6
:103E400001213F200155012084F842004320015503
:103E5000002030BD70472DE9F04104460D4614B9ED
:103E60000120BDE8F08194F83D0028B9002084F8D5
:103E70003C002046FFF7EEFF022084F83D0020685A
:103E8000806844F20701884321688860211D20680A
:103E9000FDF7AAFE2068D0F80880206886692068AF
:103EA000076A286840EA080840F203308643A96997
:103EB000A86840EA0120064340F60C4086434FF2D2
:103EC000F0008643E969E86840EA01200643286972
:103ED0000001296A40EA0130064327F0220727F053
:103EE00088076969686840EA011007432068C0F8DC
:103EF00008802068866120680762012084F84600F7
:103F000084F83E0001213F200155012084F8420041
:103F100043200155012084F83D000020A1E77047AF
:103F200010B50446022084F83D0000BF2068006AF6
:103F300041F21111084050B92068006A8910084008
:103F400028B92068006820F001002168086000BFDF
:103F50002046FFF7E4FF002084F8460084F83E0086
:103F600000213F200155002084F8420043200155E4
:103F7000002084F83D0000BF84F83C0000BF10BD65
:103F80002DE9F04304460D4694F83E603F20075D5E
:103F900094F84280432010F804906DB9012E02D1AC
:103FA000B8F1010F02D00120BDE8F083022084F8AF
:103FB0003E0084F8420025E0042D0CD1012F02D1EF
:103FC000B9F1010F01D00120EEE702213F20015598
:103FD0004320015516E0012E07D1012F05D1B8F17C
:103FE000010F02D1B9F1010F01D00120DCE702205D
:103FF00084F83E0002213F200155022084F842004F
:104000004320015515B1042D0CD105E001220021FA
:104010002068FEF7D0F810E0012204212068FEF7A6
:10402000CAF80AE0012200212068FEF7C4F8012244
:1040300004212068FEF7BFF800BF00BF20680068B9
:1040400040F00100216808600020ADE730B504466B
:104050000D4615B1042D0CD105E000221146206853
:10406000FEF7A9F810E0002204212068FEF7A3F86B
:104070000AE0002211462068FEF79DF80022042184
:104080002068FEF798F800BF00BF00BF2068006AF4
:1040900041F21111084050B92068006A89100840A7
:1040A00028B92068006820F001002168086000BF7E
:1040B0000DB1042D28D11DB9012084F83E000EE079
:1040C000042D03D101213F20015508E0082D03D123
:1040D00001214020015502E00121412001551DB977
:1040E000012084F842001AE0042D03D1012143206D
:1040F000015514E0082D03D10121442001550EE0A3
:104100000121452001550AE0012084F83E000121EB
:104110003F200155012084F8420043200155002032
:1041200030BD2DE9F04304460D4694F83E603F2033
:10413000075D94F84280432010F804906DB9012E79
:1041400002D1B8F1010F02D00120BDE8F0830220B6
:1041500084F83E0084F8420025E0042D0CD1012FA4
:1041600002D1B9F1010F01D00120EEE702213F2079
:1041700001554320015516E0012E07D1012F05D12D
:10418000B8F1010F02D1B9F1010F01D00120DCE734
:10419000022084F83E0002213F200155022084F8CD
:1041A00042004320015515B1042D1DD110E001221C
:1041B00000212068FDF7FFFF2068C06840F0020082
:1041C0002168C86027E000000000014000040140B1
:1041D000012204212068FDF7EEFF2068C06840F04E
:1041E00004002168C86016E0012200212068FDF764
:1041F000E2FF012204212068FDF7DDFF2068C0688E
:1042000040F002002168C8602068C06840F00400E7
:104210002168C86000BF00BF2068006840F001004E
:1042200021680860002090E730B504460D465DB96E
:10423000002211462068FDF7BEFF2068C06820F00C
:1042400002002168C86023E0042D0BD10022042164
:104250002068FDF7B0FF2068C06820F004002168E6
:10426000C86015E0002211462068FDF7A4FF002277
:1042700004212068FDF79FFF2068C06820F002003D
:104280002168C8602068C06820F004002168C86008
:1042900000BF2068006A41F21111084050B920683F
:1042A000006A8910084028B92068006820F00100E1
:1042B0002168086000BF0DB1042D28D11DB901206F
:1042C00084F83E000EE0042D03D101213F2001556A
:1042D00008E0082D03D101214020015502E0012111
:1042E000412001551DB9012084F842001AE0042D37
:1042F00003D101214320015514E0082D03D10121F0
:10430000442001550EE00121452001550AE001201D
:1043100084F83E0001213F200155012084F842002D
:1043200043200155002030BD2DE9FF5F04460D46B6
:104330001E460E9F94F83E803F2010F8049094F89B
:1043400042A0432010F804B0E5B9B8F1020F02D042
:10435000BAF1020F03D1022004B0BDE8F09FB8F11A
:10436000010F0DD1BAF1010F0AD1029800B10FB9B6
:104370000120F1E7022084F83E0084F842004BE07F
:104380000120E9E7042D19D1B9F1020F02D0BBF1E8
:10439000020F01D10220DFE7B9F1010F0CD1BBF10F
:1043A000010F09D106B10FB90120D5E702213F2045
:1043B0000155432001552FE00120CDE7B8F1020F50
:1043C00008D0B9F1020F05D0BAF1020F02D0BBF14B
:1043D000020F01D10220BFE7B8F1010F1AD1B9F1E4
:1043E000010F17D1BAF1010F14D1BBF1010F11D197
:1043F000029808B106B10FB90120ADE7022084F898
:104400003E0002213F200155022084F84200432053
:10441000015501E001209FE715B1042D50D127E09F
:10442000AFF6F741606AC163AFF64151606A01645B
:10443000FE49606AC164226802F134013B46606A49
:10444000029A07F042F908B1012085E72068C068A8
:1044500040F400702168C860012200212068FDF747
:10446000AAFE2068006840F001002168086070E042
:10447000AFF64751A06AC163AFF69151A06A0164DB
:10448000EA49A06AC164226802F138013B4632461B
:10449000A06A07F01AF908B101205DE72068C0683A
:1044A00040F480602168C860012204212068FDF783
:1044B00082FE2068006840F001002168086048E042
:1044C000AFF69751606AC163AFF6E151606A01646B
:1044D000D649606AC164226802F134013B46606AD1
:1044E000029A07F0F2F808B1012035E7AFF6C351A0
:1044F000A06AC163AFF60D61A06A0164CB49A06AEE
:10450000C164226802F138013B463246A06A07F0D6
:10451000DCF808B101201FE72068C06840F4007093
:104520002168C8602068C06840F480602168C86065
:10453000012200212068FDF73EFE012204212068AF
:10454000FDF739FE2068006840F00100216808602E
:1045500000BF00BF0020FFE670B504460D4675B9E8
:10456000002211462068FDF726FE2068C06820F46E
:1045700000702168C860606A07F04AF92CE0042DD9
:104580000ED1002204212068FDF715FE2068C068C6
:1045900020F480602168C860A06A07F039F91BE048
:1045A000002211462068FDF706FE00220421206843
:1045B000FDF701FE2068C06820F400702168C86023
:1045C0002068C06820F480602168C860606A07F0D5
:1045D0001FF9A06A07F01CF900BF2068006A41F2C9
:1045E0001111084050B92068006A8910084028B9A4
:1045F0002068006820F001002168086000BF0DB14C
:10460000042D28D11DB9012084F83E000EE0042DB0
:1046100003D101213F20015508E0082D03D10121DC
:104620004020015502E00121412001551DB9012022
:1046300084F842001AE0042D03D1012143200155E2
:1046400014E0082D03D10121442001550EE0012181
:10465000452001550AE0012084F83E0001213F2059
:104660000155012084F8420043200155002070BD0F
:104670007047704770B504462068C56820680669B1
:1046800006F00200022819D105F00200022815D117
:10469000401F21680861012020772068806900F0B0
:1046A000030018B12046FFF740F805E02046FFF769
:1046B000E0FF2046FDF7A3FF0020207706F004006E
:1046C000042819D105F00400042815D1C04321683D
:1046D0000861022020772068806900F4407018B1DA
:1046E0002046FFF722F805E02046FFF7C2FF2046EC
:1046F000FDF785FF0020207706F00800082819D173
:1047000005F00800082815D1C0432168086104207D
:1047100020772068C06900F0030018B12046FFF739
:1047200004F805E02046FFF7A4FF2046FDF767FFE9
:104730000020207706F01000102819D105F0100095
:10474000102815D1C043216808610820207720680F
:10475000C06900F4407018B12046FEF7E6FF05E09E
:104760002046FFF786FF2046FDF749FF002020770F
:1047700006F0010048B105F0010030B16FF0010012
:10478000216808612046FBF78AFE06F08000802839
:1047900009D105F08000802805D1C0432168086157
:1047A000204602F02CFC06F04000402809D105F01C
:1047B0004000402805D1C043216808612046FFF72A
:1047C00057FF06F02000202809D105F020002028FE
:1047D00005D1C04321680861204602F01DFB70BD71
:1047E00030B5036A056A25F4805505624468C269DC
:1047F00022F4E04222F440720D6842EA052223F4DA
:1048000000538D6843EA0533094DA84202D0094D93
:10481000A84204D124F480444D6944EA85144460DC
:10482000C2614D680564036230BD0000FF1E0108CF
:10483000000001400004014030B5026A056A25F419
:10484000807505624368C46924F0700424F0030491
:104850000D682C4322F400728D6842EA0522FD4D5A
:10486000A84200D103E0FC4DA84207D100BF22F4CA
:104870000062CD6842EA052222F48062F54DA8422A
:1048800002D0F54DA84209D123F4805323F40053FC
:104890004D6943EA05138D6943EA05134360C4611A
:1048A0004D68C563026230BD30B5026A056A25F005
:1048B000100505624368846924F4E04424F44074DC
:1048C0000D6844EA052422F020028D6842EA0512B0
:1048D000E04DA84200D103E0DF4DA84207D100BF60
:1048E00022F08002CD6842EA051222F04002D94D42
:1048F000A84202D0D84DA84209D123F4806323F402
:1049000000634D6943EA85038D6943EA850343608B
:1049100084614D688563026230BD30B5026A056A04
:1049200025F0010505624368846924F0700424F0D1
:1049300003040D682C4322F002028D682A43C54D02
:10494000A84200D103E0C44DA84206D100BF22F026
:104950000802CD682A4322F00402BE4DA84202D0CC
:10496000BD4DA84207D123F4807323F400734D6931
:104970002B438D692B43436084614D68456302621C
:1049800030BD2DE9F04104460E461546002700BF14
:1049900094F83C00012802D10220BDE8F0810120FA
:1049A00084F83C0000BF35B1042D09D0082D0CD08F
:1049B0000C2D14D10EE031462068FFF7AEFF10E059
:1049C00031462068FFF770FF0BE031462068FFF7A3
:1049D00033FF06E031462068FFF702FF01E00127C0
:1049E00000BF00BF00BF002084F83C0000BF384675
:1049F000D3E770B50C461546026A066A26F480565F
:104A00000662C16921F4407141EA052121F4704137
:104A10004FF4704606EA0336314322F420424FF445
:104A2000204606EA04363243C161026270BD70B5A9
:104A30000C461546026A066A26F480760662C1694B
:104A400021F00301294321F0F001F02606EA0316C4
:104A5000314322F420624FF4206606EA04263243F2
:104A6000C161026270BD70B50C461546026A066AE5
:104A700026F010060662816921F4407141EA0521A1
:104A800021F470414FF4704606EA0336314322F0B8
:104A9000A002A02606EA041632438161026270BDBC
:104AA00070B50C461546026A066A26F001060662D3
:104AB0008169684EB04214D0B0F1804F11D0674E7A
:104AC000B0420ED0664EB0420BD0664EB04208D017
:104AD000614EB04205D0644EB04202D0634EB04247
:104AE00001D1012600E000261EB121F00301294377
:104AF00001E041F0010121F0F001F02606EA031681
:104B0000314322F00A0204F00A0632438161026254
:104B100070BD2DE9F04104460D461646002700BF42
:104B200094F83C00012802D10220BDE8F081012068
:104B300084F83C0000BF96B9EB68D5E90012206804
:104B4000FFF7AEFF2068806920F00C0021688861C3
:104B500020688069A96808432168886141E0042EC3
:104B600013D1EB68D5E900122068FFF77CFF2068BD
:104B7000806920F440602168886120688069A968A4
:104B800040EA0120216888612BE0082E12D1EB68F1
:104B9000D5E900122068FFF74AFF2068C06920F0BD
:104BA0000C002168C8612068C069A96808432168B1
:104BB000C86116E00C2E13D1EB68D5E9001220680D
:104BC000FFF717FF2068C06920F440602168C861C2
:104BD0002068C069A96840EA01202168C86100E036
:104BE000012700BF002084F83C0000BF38469CE746
:104BF0002DE9F04104460D461646002700BF94F803
:104C00003C00012802D10220BDE8F081012084F897
:104C10003C0000BF36B1042E2AD0082E40D00C2E06
:104C20006DD154E029462068FFF777FE206880693F
:104C300040F00800216888612068806920F0040045
:104C40002168886120688069296908432168886132
:104C500057E0000000000140000401400004004053
:104C600000080040000C00400040014000180040D7
:104C700029462068FFF718FE2068806940F400602C
:104C8000216888612068806920F4806021688861DB
:104C900020688069296940EA01202168886130E044
:104CA00029462068FFF7C8FD2068C06940F0080069
:104CB0002168C8612068C06920F004002168C861CB
:104CC0002068C069296908432168C86119E029463C
:104CD0002068FFF785FD2068C06940F40060216806
:104CE000C8612068C06920F480602168C8612068BC
:104CF000C069296940EA01202168C86101E00127F3
:104D000000BF00BF00BF002084F83C0000BF384651
:104D10007AE72DE9F04188B004460D4616461F4655
:104D20004FF00008BE427DD000BF94F83C0001283F
:104D300003D1022008B0BDE8F081012084F83C00D6
:104D400000BF022084F83D00286801906868029046
:104D5000A8680390E868049028690690686907903D
:104D600016B1042E0AD104E001A92068FFF7D5FD91
:104D700007E001A92068FFF797FD02E04FF0010866
:104D800000BF00BFB8F1000F53D117B1042F4CD1B1
:104D900024E0D5E90723A9692068FFF781FE206890
:104DA000806920F00C00216888612068806820F00C
:104DB0007000216888602068806840F05000216899
:104DC00088602068806820F007002168886020687B
:104DD000806840F006002168886029E0D5E9072353
:104DE000A9692068FFF73FFE2068806920F44060D1
:104DF000216888612068806820F0700021688860E0
:104E00002068806840F060002168886020688068C1
:104E100020F00700216888602068806840F0060064
:104E2000216800E00FE0886002E04FF0010800BF59
:104E300000BF012084F83D0000BF002084F83C0042
:104E400000BF404676E7012074E7704770B504461E
:104E5000A56B2846FFF7F9FF70BD70B50546AC6B32
:104E6000A06BC06910B9012084F83D002046FFF70F
:104E7000FFFB70BD2DE9F04704460F4615461E4660
:104E8000DDE9088A4FF0000994F84600022801D1B4
:104E9000BDE8F08794F84600012807D11EB9B8F1A3
:104EA000000F00D0F4E7022084F84600B5F5006F4B
:104EB00053D009DCB5F5807F10D0B5F5007F22D046
:104EC000B5F5806F72D133E0B5F5805F5AD0B5F596
:104ED000005F6ED0B5F5804FF4D17FE0F848216ACD
:104EE000C863F848216A0864F748216AC8642168E1
:104EF00001F14C0253463146206A06F0E6FB08B148
:104F00000120C5E782E0F149606AC163F049606A47
:104F10000164ED49606AC164216801F14C025346A5
:104F20003146606A06F0D1FB08B10120B0E76DE0C0
:104F3000E649A06AC163E649A06A0164E249A06A41
:104F4000C164216801F14C0253463146A06A06F063
:104F5000BCFB08B101209BE758E0DC49E06AC16373
:104F6000DB49E06A0164D849E06AC164216801F163
:104F70004C0253463146E06A06F0A7FB08B1012017
:104F800086E743E0D149206BC163D149206B0164BE
:104F9000CD49206BC164216801F14C025346314672
:104FA000206B06F092FB18B1012071E72BE000E0C6
:104FB0002CE0C849606BC163C749606B0164C2499A
:104FC000606BC164216801F14C0253463146606B4D
:104FD00006F07BFB08B101205AE717E0BF49A06B40
:104FE000C163BF49A06B0164B749A06BC16421686C
:104FF00001F14C0253463146A06B06F066FB08B146
:10500000012045E702E04FF0010900BF00BFB9F100
:10501000000F08D147EA0800216888642068C0684A
:1050200028432168C860484632E72DE9FC47054619
:105030000E46174698460A9C200A401C43463A46AC
:105040003146CDE900402846FFF714FF8146484627
:10505000BDE8FC8770B504460D460026B5F5006F27
:1050600020D009DCB5F5807F10D0B5F5007F11D0D8
:10507000B5F5806F26D111E0B5F5805F16D0B5F596
:10508000005F17D0B5F5804F1CD117E0206A06F0FD
:10509000BFFB19E0606A06F0BBFB15E0A06A06F0F2
:1050A000B7FB11E0E06A06F0B3FB0DE0206B06F001
:1050B000AFFB09E0606B06F0ABFB05E0A06B06F010
:1050C000A7FB01E0012600BF00BF3EB92068C06811
:1050D000A8432168C860012084F84600304670BDAE
:1050E0002DE9F04704460F4615461E46DDE9088ABD
:1050F0004FF0000994F84600022801D1BDE8F0877E
:1051000094F84600012807D11EB9B8F1000F00D06D
:10511000F4E7022084F84600B5F5006F53D009DCAF
:10512000B5F5807F10D0B5F5007F22D0B5F5806F42
:1051300072D133E0B5F5805F5AD0B5F5005F6ED01F
:10514000B5F5804FF4D17FE05D48216AC8635D48C2
:10515000216A08645C48216AC864226802F14C0133
:1051600053463246206A06F0B0FA08B10120C5E77E
:1051700082E05C49606AC1635B49606A01645249CC
:10518000606AC164226802F14C0153463246606A8B
:1051900006F09BFA08B10120B0E76DE05149A06A22
:1051A000C1635149A06A01644749A06AC164226889
:1051B00002F14C0153463246A06A06F086FA08B165
:1051C00001209BE758E04749E06AC1634649E06A2D
:1051D00001643D49E06AC164226802F14C01534612
:1051E0003246E06A06F071FA08B1012086E743E032
:1051F0003C49206BC1633C49206B01643249206B00
:10520000C164226802F14C0153463246206B06F01D
:105210005CFA18B1012071E72BE000E02CE02D4989
:10522000606BC1632C49606B01642749606BC1648A
:10523000226802F14C0153463246606B06F045FA93
:1052400008B101205AE717E02449A06BC163244943
:10525000A06B01641C49A06BC164226802F14C017F
:1052600053463246A06B06F030FA08B1012045E7FC
:1052700002E04FF0010900BF00BFB9F1000F08D1F3
:1052800047EA0800216888642068C06828432168CC
:10529000C860484632E72DE9FC4705460E461746EA
:1052A00098460A9C200A401C43463A463146CDE9BE
:1052B00000402846FFF714FF81464846BDE8FC87BA
:1052C0006F1F01085F1F0108FF1E0108012601086A
:1052D000BF2501081B6E0108056E01085B4E010821
:1052E0004D4E01082D370108EB36010870B5044614
:1052F0000D460026B5F5006F20D009DCB5F5807F9E
:1053000010D0B5F5007F11D0B5F5806F26D111E032
:10531000B5F5805F16D0B5F5005F17D0B5F5804FB5
:105320001CD117E0206A06F073FA19E0606A06F0F3
:105330006FFA15E0A06A06F06BFA11E0E06A06F079
:1053400067FA0DE0206B06F063FA09E0606B06F087
:105350005FFA05E0A06B06F05BFA01E0012600BFF2
:1053600000BF3EB92068C068A8432168C86001201A
:1053700084F84600304670BD024600BF92F83C00FB
:10538000012801D102207047012082F83C0000BFB3
:10539000022082F83D0010684161012082F83D0042
:1053A00000BF002082F83C0000BF00BFEBE730B533
:1053B0000C46816821F47F4142EA032525432943B5
:1053C000816030BDF0B504460D461646002700BF8B
:1053D00094F83C00012801D10220F0BD012084F89E
:1053E0003C0000BF022084F83D00686810B101282D
:1053F0001AD106E02068806820F47F402168886028
:1054000014E0E86848B1012084F83D0000BF0020A6
:1054100084F83C0000BF0120DFE7D5E90313AA6848
:105420002068FFF7C4FF01E0012700BF00BF002F85
:1054300049D136B1042E14D0082E22D00C2E40D1E2
:105440002FE0286830B12068806940F08000216832
:10545000886105E02068806920F08000216888610B
:1054600030E0286830B12068806940F4004021684D
:10547000886105E02068806920F400402168886127
:1054800020E0286830B12068C06940F080002168C1
:10549000C86105E02068C06920F080002168C8610B
:1054A00010E0286830B12068C06940F400402168ED
:1054B000C86105E02068C06920F400402168C86127
:1054C00000E000BF00BF012084F83D0000BF0020C5
:1054D00084F83C0000BF38467FE70A46816821F027
:1054E000700142F0070319438160704730B50B46E5
:1054F0001446026A056A25F001050562816921F0FA
:10550000F00141EA041122F00A021A4381610262A9
:1055100030BD30B50B461446026A056A25F0100509
:105520000562816921F4704141EA043122F0A00250
:1055300042EA03128161026230BD2DE9F041044666
:105540000D46002700BF94F83C00012802D102203C
:10555000BDE8F081012084F83C0000BF022084F8FF
:105560003D002068866826F0770626F47F4620688E
:1055700086602868502833D00CDC202850D004DC0A
:1055800000284BD0102851D149E0302849D040287C
:105590004CD139E060282DD0702807D0B0F5805F5D
:1055A00003D0B0F5005F41D10DE041E0D5E9021331
:1055B0006A682068FFF7FBFE2068866846F0770679
:1055C0002068866034E0D5E902136A682068FFF736
:1055D000EEFE2068806840F480402168886027E003
:1055E000EA6869682068FFF781FF50212068FFF7AB
:1055F00074FF1DE0EA6869682068FFF78AFF602190
:105600002068FFF76AFF13E0EA6869682068FFF71F
:105610006DFF40212068FFF760FF09E000BF00BF79
:1056200000BF29682068FFF758FF01E0012700BF8D
:1056300000BF012084F83D0000BF002084F83C003A
:1056400000BF384684E702460B461068416821F0E7
:105650008001194310684160002070472DE9F04730
:1056600005460C464FF000092868866826F070064B
:105670006068064326F007062068064328688660AF
:10568000606800F00F0100293BD10011082838D2D2
:10569000DFE800F0333435360B272D04D4E903134B
:1056A000A2682868FFF783FE2EE02068052802D153
:1056B0000120BDE8F0872868D0F820802868006ABB
:1056C00020F00100296808622868876927F0F00740
:1056D000206947EA0017286887612868C0F8208099
:1056E00012E02269A1682868FFF700FF0CE0226938
:1056F000A1682868FFF70DFF06E000BF00BF00BFEC
:1057000002E04FF0010900BF00BF4846D1E770B585
:1057100004460D4600BF94F83C00012801D1022048
:1057200070BD012084F83C0000BF022084F83D00D9
:1057300029462046FFF792FF48B1012084F83D003A
:1057400000BF002084F83C0000BF0120E8E720688B
:10575000C06820F040002168C8602068C06820F45C
:1057600080402168C860012084F83D0000BF00200F
:1057700084F83C0000BF00BFD2E770B504460D4678
:1057800000BF94F83C00012801D1022070BD012027
:1057900084F83C0000BF022084F83D0029462046E2
:1057A000FFF75CFF48B1012084F83D0000BF0020F6
:1057B00084F83C0000BF0120E8E72068C06840F0A2
:1057C00040002168C8602068C06820F480402168DB
:1057D000C860012084F83D0000BF002084F83C0030
:1057E00000BF00BFD2E70246002031B1042907D034
:1057F000082908D00C290CD108E01368586B09E07F
:105800001368986B06E01368D86B03E01368186C94
:1058100000E000BF00BF7047014691F83D007047AF
:10582000014691F83D007047014691F83D007047F0
:10583000014691F83D007047014691F83D007047E0
:10584000014691F83D0070470146087F70470246C7
:1058500011B992F83E300BE0042902D13F239B5C42
:1058600006E0082902D140239B5C01E041239B5CB8
:1058700018467047014691F846007047704730B5AA
:1058800087B004460D4614B9012007B030BD94F826
:105890003D0028B9002084F83C002046FFF7EEFFC9
:1058A000022084F83D00211D2068FCF79DF9AB68BB
:1058B000296803222068FFF7F3F82068806920F048
:1058C0000C00216888612068806969680843216844
:1058D00088612068406840F0800021684860206846
:1058E000806820F07000216888602068806840F03F
:1058F0004000216888602068806820F007002168E7
:1059000088602068806840F004002168886000207A
:105910000490059070200090002006900390029063
:10592000E868019069462068FEF7BEFF206840687D
:1059300020F07000216848602068406840F0500006
:1059400021684860012084F8460084F83E00012167
:105950003F200155012084F84200432001550120D9
:1059600084F83D00002090E7704710B504460220FF
:1059700084F83D0000BF2068006A41F21111084020
:1059800050B92068006A8910084028B9206800686A
:1059900020F001002168086000BF2046FFF7E4FF07
:1059A000002084F8460084F83E0000213F20015585
:1059B000002084F8420043200155002084F83D0077
:1059C00000BF84F83C0000BF10BD2DE9F04704463D
:1059D00094F83E603F20075D94F84280432010F821
:1059E0000490012E07D1012F05D1B8F1010F02D18A
:1059F000B9F1010F02D00120BDE8F087022084F840
:105A00003E0002213F200155022084F8420043203D
:105A10000155012200212068FCF7CDFBFE492068DA
:105A200088421BD02068B0F1804F17D0FB49206816
:105A3000884213D0FA49206888420FD0F94920687B
:105A400088420BD0F8492068884207D0F74920687F
:105A5000884203D0F649206888420CD120688068CB
:105A600000F00705062D0CD02068006840F001000A
:105A70002168086005E02068006840F001002168A6
:105A800008600020B8E710B50446002211462068DF
:105A9000FCF791FB00BF2068006A41F21111084039
:105AA00050B92068006A8910084028B92068006849
:105AB00020F001002168086000BF012084F83E004A
:105AC00001213F200155012084F842004320015567
:105AD000002010BD2DE9F047044694F83E603F20B9
