:020000040800F2
:10000000D8310120550300085B4D0008B9410008B4
:10001000594D0008C9140008E1B0000800000000B4
:100020000000000000000000000000009502000831
:10003000FF16000800000000F10200080751000848
:100040006F0300086F0300086F0300086F030008C8
:100050006F030008F95000086F0300086F030008E1
:100060006F0300086F0300086F0300086F030008A8
:100070006F0300086F0300086F0300086F03000898
:10008000F11500086F030008951300086F030008BE
:100090006F0300086F0300086F0300086F03000878
:1000A0006F030008C95100086F0300086F030008C0
:1000B0006F0300086F0300086F0300086F03000858
:1000C0006F0300086F0300086F0300086F03000848
:1000D0006F0300086F0300086F0300086F03000838
:1000E0006F0300086F0300086F0300086F03000828
:1000F000ED510008E15100086F0300086F0300088C
:100100006F0300086F0300086F0300086F03000807
:10011000C15400086F030008D55100086F030008A0
:10012000FD1500086F0300086F0300086F03000847
:100130006F03000800000000000000006F030008CB
:100140006F0300086F0300086F030008614D00088B
:100150006F0300086F0300086F0300086F030008B7
:100160006F0300086F0300086F0300086F030008A7
:100170006F0300086F03000800000000000000008B
:100180006F0300086F03000800F002F800F072F837
:100190000AA090E8000C82448344AAF10107DA45E2
:1001A00001D100F067F8AFF2090EBAE80F0013F0C2
:1001B000010F18BFFB1A43F0010318470CCC0000D5
:1001C0002CCC00000A444FF0000C10F8013B13F057
:1001D000070408BF10F8014B1D1108BF10F8015BA0
:1001E000641E05D010F8016B641E01F8016BF9D193
:1001F00013F0080F1EBF10F8014BAD1C0C1B09D1EA
:100200006D1E58BF01F801CBFAD505E014F8016B5B
:1002100001F8016B6D1EF9D59142D6D370470000ED
:100220000023002400250026103A28BF78C1FBD8FF
:10023000520728BF30C148BF0B607047642900F0E7
:10024000AD81752900F0AA81782900F0E381732936
:1002500000F0F183002070471FB50CF075FC9DE89D
:10026000030000F047FB00F037FC1FBD10B500F0A5
:100270009CFC10BD00F007FD1146FFF7EDFF0AF0F2
:100280004DFF00F0CFFE03B4FFF7F0FF03BC00F01A
:1002900007FF00002C4B19680868B0E8F04F80F3A6
:1002A0000988BFF36F8F4FF0000080F3118870470B
:1002B0000000000008480068006880F308884FF0DC
:1002C000000080F3148862B661B6BFF34F8FBFF3AE
:1002D0006F8F00DF00BF00BF08ED00E0DFF80C000B
:1002E000016841F470010160704700BF88ED00E0D3
:1002F000EFF30980BFF36F8F134B1A681EF0100FD6
:1003000008BF20ED108A20E9F04F106009B44FF0CB
:10031000500080F31188BFF34F8FBFF36F8F0BF046
:1003200077FE4FF0000080F3118809BC1968086857
:10033000B0E8F04F1EF0100F08BFB0EC108A80F349
:100340000988BFF36F8F704724000020EFF305800A
:10035000704700000948804709480047FEE7FEE76C
:10036000FEE7FEE7FEE7FEE7FEE7FEE7FEE7FEE765
:1003700004480549054A064B70470000B95100087A
:1003800089010008D8F10020D8310120D8110120BE
:10039000D811012070B5064600F090FA056806F104
:1003A0000B0020F00704B4429CBF002070BD2B4618
:1003B0006A68BAB11068A04210D304F108018842FB
:1003C0003CBF5068586007D35168101941601168EC
:1003D000091B016058601460101D70BD13465268FF
:1003E000002AE7D12146284600F070FA0028DED125
:1003F00070BD70B50446051F00F060FA0068002C5F
:1004000014BF446870BD002C18BFAC423CBF2046EE
:100410006468F8D301680A18AA4218BF456003D17E
:100420002A6805461144016028684119A1421CBF91
:100430006C6070BD6168696021680844286070BDA7
:1004400053EA020C00F069802DE9F04B4FF00006F2
:10045000002B1FBFB3FA83F503FA05F424FA05F65F
:100460005E4012BF1643B2FA82F502FA05F4C5F1F6
:1004700020051EBF22FA05FC44EA0C04203556EA8A
:10048000044C4FEA144418BF641C4FF000084FF0AE
:100490000009904271EB030C39D3002919BFB1FA5E
:1004A00081F701FA07F6B0FA80F700FA07F6C7F10C
:1004B00020071EBF20FA07FC46EA0C062037B6FBD1
:1004C000F4FCA7EB0507103F07F01F0BCBF120064C
:1004D0000CFA0BFB2CFA06F644BFB3460026202F7D
:1004E000A4BF5E464FF0000B5BEA060C08BF4FF05E
:1004F000010B19EB0B09ABFB027C48EB0608C01B98
:1005000006FB02CC0BFB03CC71EB0C01C1E70B46E5
:10051000024641464846BDE8F08B13B54FF0000057
:100520004FF00001AFF30080BDE81C4070470000B1
:100530000FB4044910B503AA029800F081FA10BC68
:100540005DF814FBCCF0002070B50C460546012A7E
:1005500005D02878800600D5EA69002302E001234F
:1005600005E05B1C934202D2E05C0028F9D1A86947
:10057000E618C01AA861286A184428622846AFF312
:10058000008004E0D5E9012114F8010B9047B44242
:10059000F8D32846AFF3008070BD00002DE9F0418C
:1005A0000646002410687529314616A510D0AFF311
:1005B0000080002802DA404213A507E031688A076C
:1005C00001D512A502E0490704D511A5012401E0D7
:1005D000AFF3008000210A2206F1240709E0B0FBF6
:1005E000F2FCB0FBF2F302FB1C00303078541846EA
:1005F000491C0028F3D123462A463046BDE8F04185
:1006000000F0AEB9000000002D0000002B0000003B
:100610002000000070B504460D4621461068AFF377
:1006200000802188090502D50F4A7A4402E00E4A6B
:100630007A440E32002104F1240305E000F00F0695
:100640000009965D5E54491C0028F7D120780023EC
:10065000000704D5702D02D009B1022311322046C3
:10066000BDE8704000F07CB97EC500002DE9F04186
:100670000F460546002028622846E968884770B37F
:10068000252805D0D5E901219047286A401CF2E7CA
:10069000E9682846002688476C2804460AD0682C5A
:1006A00008D04C2C35D06A2C31D0742C31D07A2C17
:1006B0002FD016E0E968064628468847B04204462F
:1006C00008D16C2E23D04FF480662846E96888470D
:1006D000044606E06C2E03D04FF4807601E01EE065
:1006E0004026E4B1A4F14100192802D8203446F490
:1006F00000663A46214628462E60FFF79FFD60B10E
:10070000012808D0FF1D27F007070837B4E7802627
:10071000DBE70026D9E73F1DAEE72046B2E7286AAF
:10072000BDE8F081032A40F2308010F0030C00F0A5
:10073000158011F8013BBCF1020F624498BF11F81B
:1007400001CB00F8013B38BF11F8013BA2F10402D4
:1007500098BF00F801CB38BF00F8013B11F003034C
:1007600000F02580083AC0F0088051F8043B083AB0
:1007700051F804CBA0E80810F5E7121D5CBF51F852
:10078000043B40F8043BAFF30080D20724BF11F8CC
:10079000013B11F801CB48BF11F8012B24BF00F831
:1007A000013B00F801CB48BF00F8012B704710B5A2
:1007B000203AC0F00B80B1E81850203AA0E8185059
:1007C000B1E81850A0E81850BFF4F5AF5FEA027C1A
:1007D00024BFB1E81850A0E8185044BF18C918C089
:1007E000BDE810405FEA827C24BF51F8043B40F82A
:1007F000043B08BF7047D20728BF31F8023B48BF0F
:1008000011F8012B28BF20F8023B48BF00F8012B4C
:10081000704702F0FF0343EA032242EA024200F07B
:1008200002B84FF000020429C0F0128010F0030C4F
:1008300000F01B80CCF1040CBCF1020F18BF00F8D3
:10084000012BA8BF20F8022BA1EB0C0100F00DB882
:100850005FEAC17C24BF00F8012B00F8012B48BFE0
:1008600000F8012B70474FF0000200B51346944684
:100870009646203922BFA0E80C50A0E80C50B1F1F8
:100880002001BFF4F7AF090728BFA0E80C5048BF0C
:100890000CC05DF804EB890028BF40F8042B08BFAA
:1008A000704748BF20F8022B11F0804F18BF00F8A6
:1008B000012B704770477047704700000048704731
:1008C0007CF10020704770477047704738B5044688
:1008D0000A4600206946AFF30080002808BF38BDF3
:1008E00002460099204600F0C1F8012038BD0120E1
:1008F00000F08EB9F8B5AFF30080054600200C4635
:10090000102000BF0646A819A0420DD932466946FC
:100910000020AFF30080070008BF00F079F90098CD
:10092000A04218BF0546C419FFF7C8FF0560074677
:10093000F01D20F007004619284600F00AF8B442DE
:1009400008BFF8BDA21B31463868BDE8F84000F08A
:100950008DB800210160C0E9011070471020704778
:100960002DE9F0470D4699469246044600F12408C9
:100970000168880604D5E06921F01001216000E0DB
:100980000120A84201DD471B00E00027A1697A1978
:1009900002EB0900081AA0612078C00602D42046A4
:1009A000AFF30080002608E0D4E901211AF8060020
:1009B0009047206A401C761C20624E45F4DB20786C
:1009C000C0060AD52046AFF3008006E0D4E9012135
:1009D00030209047206A401C2062381EA7F1010792
:1009E000F4DC07E0D4E9012118F805009047206AFB
:1009F000401C2062281EA5F10105F3DC2046AFF360
:100A000000802078000602D50220BDE8F087012092
:100A1000FBE710B5436913B1AFF3008001E0FFF7C6
:100A200093FD012010BD127800F124010A7000220C
:100A30004A700122EDE711684FF0FF32E9E700004C
:100A4000074B70B50D467B4400F02FF8044628464E
:100A500000F03EF810B14FF0FF3070BD204670BD81
:100A6000B9A600000048704774F1002003464068B2
:100A70008C46002818BF88423CBF03464068F8D324
:100A800018681844884207D00CF1030020F00700D2
:100A9000001D411A521A0146081D0A60FFF7A9BC41
:100AA00001694A1C02610878704700B58FB0CDE932
:100AB00001310021059105497944CDE90310114622
:100AC0006846FFF7D3FD0FB000BD0000E5FFFFFF54
:100AD000007B00F08000704710B542485421FFF7BA
:100AE000C2FE41485421FFF7BEFE40485421FFF7A3
:100AF000BAFE3F493B483C4A3F4B08603D490A60CB
:100B00003A491960531C0365481C106501200865AB
:100B10003B48344A39A1784400F0E8F920B9384814
:100B200078440A3800F08CFA37482F4A35A17844C7
:100B300000F0DCF920B9344878440A3800F080FA33
:100B400032482A4A2FA1784400F0D0F920B92F4822
:100B500078440A3800F074FA40232248DC0000216F
:100B6000224600F0A0F920B125487844543800F01E
:100B700067FA1D4822464023002100F094F920B175
:100B800021487844543800F05BFA18482246102374
:100B9000002100F088F9002806D01C487844BDE800
:100BA0001040563800F04CBA10BD104870B5006DBA
:100BB00020F001040B4800F00FFA0B4800F00CFA8B
:100BC0000A4800F009FA09E0206D20F001052046EE
:100BD00000F002FA2046FFF70CFC2C46002CF3D163
:100BE00070BD000078F00020CCF0002020F1002043
:100BF0006C010020700100207401002072000000D0
:100C0000BAC0000077000000A6C0000092C000003B
:100C100010B500F01DFABDE8104000F00CBA0EB59A
:100C2000CDE9000100F06AFB029069460120ABBEED
:100C30000EBD08B5694600900220ABBE08BD1FB5C9
:100C40008DE8070069460520ABBE04B010BD1FB596
:100C50008DE80F0069460620ABBEF6E708B5694689
:100C600000900920ABBE08BD1CB5CDE90001694666
:100C70000A20ABBE1CBD704708B5694600900C2029
:100C8000ABBE08BD70477546FFF7ECFEAE460500EB
:100C90006946534620F00700854618B020B5FFF797
:100CA00067FBBDE820404FF000064FF000074FF013
:100CB00000084FF0000B21F00701AC46ACE8C0097A
:100CC000ACE8C009ACE8C009ACE8C0098D46704783
:100CD0002DE9F04705460C46C86820F4201040F482
:100CE0008000C860800602D5084600F0B2FAE068CD
:100CF00041F282014FF0FF390140022903D0204622
:100D000000F050FAB5E000F42041B1F5004F0FD1EA
:100D1000C00306D56168E06A884200D80846606072
:100D200006E02069E06260606069FFF7A5FFA061EE
:100D3000A0680022EEB200280DDAE1688B050AD423
:100D4000C043A06041F490302260E0606068411CC4
:100D500061600670A5E0E0689046226040F40050B3
:100D6000E060206968BB6069FFF778FF012704F144
:100D70002405A0B1A08910F4407F08D0E069FFF7F6
:100D800009FB206118B1E06840F4006016E0E761FB
:100D90002561E06820F4407040F480600EE0E06976
:100DA000FFF7F8FA00282061F1D0E06840F4006015
:100DB00010F4407FE06002D140F48070E060206970
:100DC0006060E06825696FF0010AC1051FD56168A0
:100DD000E06A884200D80846411B04D022462846D3
:100DE00000F0EAF9F0BBE068010203D5E562C4E96E
:100DF000015854E0691CE1626160E16940F48030AF
:100E0000491EC4E9021030462E70BDE8F087010289
:100E100002D500F480320AE06068411C616006700F
:100E2000E0680A2E40F48030E06006D00022E16ADB
:100E30006068814203D90B4602E00122F7E70346CE
:100E4000A7895B1B7F0503D4E7699F4200DDE2B100
:100E5000814200D80146E5620F1AC4E90158002B0F
:100E600009DD00E005E022461946284600F0A4F915
:100E700008B14846C9E747B1A069E5626560C01B93
:100E8000A061E06840F01000E060E068000208D572
:100E90006168A069E562491B08446560A06150462D
:100EA000B3E73046B1E770B5C468A50713D0650253
:100EB00011D4B2F5807F09D0B2F5007F06D0B2F52B
:100EC000806F08D1012300F1240106E05D1E6FF060
:100ED0007F46B54201D3012070BD0161C36141600D
:100EE00024F470611143C160002070BD2DE9F04110
:100EF0000C4607461646104600F06EF82078611C36
:100F000061280AD0722802D077283CD102E001255E
:100F1000002405E00225042402E0082448F202052A
:100F200011F8010B2B2806D0622809D011F8010C0A
:100F300074280AD00BE045F0030544F00204EFE703
:100F400045F0040544F00104EAE744F01004384693
:100F50002146FFF764FE411C15D00021316171600C
:100F60004FF40071F560F1617061200704D53046DF
:100F70000222002100F09AF8306D40F00100306547
:100F80003046BDE8F0810020FBE72DE9F0410D4639
:100F90000646104C206DC10704D0410804D020F053
:100FA0000104F7E722460EE05420FFF7F3F90700AB
:100FB0000ED0206D47F001010843542120653846CA
:100FC000FFF751FC3A4629463046BDE8F0418DE72F
:100FD0000020D6E778F000202DE9F04704464FF0D6
:100FE00000094FF0FF37C568D4E90486A80707D089
:100FF000204600F00BF93046FFF71BFE002802DA0E
:101000003846BDE8F087280502D54046FFF7F1F9DC
:101010004C212046FFF727FC206D20F001002065C1
:101020004846EEE710B50446AFF300802046BDE821
:101030001040FFF728B9002801D000F031B8704700
:1010400010B500F041F9BDE81040FFF7F4BF000013
:1010500010B5012805D0002103A000F01BF90120E4
:1010600010BD09A1F8E7000053494752544D454DC2
:101070003A204F7574206F662068656170206D6539
:101080006D6F7279000000003A2048656170206D34
:10109000656D6F727920636F72727570746564002C
:1010A00001491820ABBEFEE7260002002DE9F04101
:1010B000044616460D464769007B80072ED0384609
:1010C000FFF7CCFD50BB3EB3012E02D0022E25D13E
:1010D00004E0204600F038F905441DE03846FFF7EB
:1010E000CBFDE168002841F01001E16005DA2046FF
:1010F00000F058F80120BDE8F081C9030BD5626803
:10110000E16A914200D81146A26911442269891A04
:10111000814200DD08460544002D01DA0220EAE79D
:10112000E16A6068E268814206D29103E06203D519
:1011300022F4003141F01002A6690027AE4213DC10
:10114000E16A814201D90B4600E0034603EB060C3D
:101150002369ACEB030CAC4506DD814201D98C461A
:1011600000E084469C4505D1A760276042F020003E
:10117000A5620DE0AD1BE669AE1B8142A66000D9F9
:101180000846C01A281A20605819606022F0200012
:1011900003490840E060002084F84870ABE7000095
:1011A000BFCFD7FFC16821F4001141F08001C160B9
:1011B00000218160016070472DE9F04781461446A7
:1011C0000E464FF0FF383248D5685769054209D0BE
:1011D0003846A169FFF748FD002811DB2C48C043C1
:1011E0000540E5602B46324649463846FFF727FD65
:1011F000A16920F00042B21A11440028A16103D075
:101200002046FFF7CFFF4046BDE8F08770B50446A3
:101210000569C06A6168884200D80846E16821F41F
:101220002011E160C90312D5A84208D02246411B13
:101230002846FFF7C1FF10B14FF0FF3070BD00200E
:10124000E562C4E90150E06820F48030E0600020ED
:1012500070BD10B50446C06820F02000E060A16AAF
:10126000A06988420DD02046FFF7D0FFE06820F447
:10127000405040F01000E060A06AA0612069E06288
:10128000606044F24001E0688843E06010BD000007
:101290001000020070B505460C460A2000E06D1CE7
:1012A00000F04BF835B128780028F8D102E0641C32
:1012B00000F043F814B120780028F8D1BDE8704060
:1012C0000A2000F03AB8000010B5014602A0FFF76E
:1012D000E1FF012010BD00005349475254524544DC
:1012E0003A2052656469726563743A2063616E27BF
:1012F00074206F70656E3A200000000010B5431C2A
:1013000002E010F8011B71B18107FAD14FF00132F0
:1013100002C88C1A8C4314EAC211F9D0C01A0A060A
:1013200003D0C01E10BDC01A10BD0A0401D0801E1B
:1013300010BD0902FCD0401E10BD08B569468DF8ED
:1013400000000320ABBE08BD10B50146C26890077F
:1013500003D0900607D5886A0AE000F017F801214B
:101360000160881E10BD8B69486818440B69C01A5B
:1013700091F848301BB191F84910401A10BD110383
:10138000FCD50028FADD401E10BD00000048704763
:1013900074F10020014800F08DBA000078010020AF
:1013A000464910B54A6822F440324A604A684368A8
:1013B0001A434A6001684A6822F480724A600168F0
:1013C0004A68036942EA03224A6001684A6822F0D7
:1013D00040724A6001684A6883681A434A6001683B
:1013E0008A6822F400628A6001688A68C3681A43C6
:1013F0008A60816A6FF07062D14201688A6822F067
:1014000070628A6001688A680CD0836A1A438A60B5
:1014100001688A6822F040528A6001688A68C36A5B
:101420001A4301E022F040528A6001688A6822F083
:1014300002028A6001688A68037E42EA43028A6087
:1014400090F82010002901684A680FD042F4006229
:101450004A6001684A6822F460424A6001684A684A
:10146000174C436A04EB43331A4301E022F4006251
:101470004A600168CA6A22F47002CA620168CA6AD4
:10148000838B104C04EB03531A43CA6201688A68C9
:1014900022F400728A6001688A6890F8303042EA6B
:1014A00043228A6001688A6822F480628A60016847
:1014B0008A68406942EA8020886010BD00230140AC
:1014C00000E0FFFF0000F0FFFEE770B50546D0F832
:1014D0004C070426C46994F84E0003281AD0042847
:1014E00020D1217B284606F0C5FB01281AD1217B9B
:1014F000284606F09CFBA16A814214D0628B82428E
:1015000011D1091AA162216A08442062032084F8DB
:101510004E000EE0237B628B2846216A05F0CBF853
:1015200084F84E6070BD002084F84E00284605F017
:10153000CEFAC5F8B06705F5F661D5F8A807BDE89D
:10154000704000231A4609F0AFBE2DE9F843054666
:10155000D0F84C070126C46994F84D0001281AD030
:10156000022826D1617B284606F084FB042705F576
:10157000F661884601281ED002281AD184F84D60F1
:10158000C5F8B0770023D5F8A8071A4601B0BDE822
:10159000F04309F089BE228B606A0096637B90421B
:1015A00000D882B22846E16905F095F8022084F857
:1015B0004D00BDE8F883208B626A0021824208D981
:1015C000121A6262E3691844E06103D084F84D6046
:1015D00005E0616284F84D10284605F07BFAC5F8F5
:1015E000B07700231A464146D5F8A807CEE7000099
:1015F000014800F0C1BB000034020020014800F0A7
:10160000BBBB0000C001002001681823CAB2103A19
:10161000B2FBF3F2054B6FF30901032A9B5CC36530
:1016200000D9091D81650846704700008CCB000871
:1016300010B5014600208B698A6A4FF0C07453B11F
:10164000B3F5005F15D072B1012A0CD0022A0AD07E
:10165000032A09D104E01AB1012A06D0022A03D1D3
:10166000C96AC90100D5012010BDC96AA142FAD0DA
:1016700010BD002AF7D0012AF2D0022AF3D0032AA3
:10168000F3D010BD70B504460021084604EB81027A
:10169000491CC2F854071029F8D300224FF4806582
:1016A000A118521C81F81C01AA42F9D32070607065
:1016B0000121A170C4F8940721764022A2716076BE
:1016C00084F81C0584F81D1584F81F0584F81E0590
:1016D000090204F11C00FFF7C6F8294604F58E70D4
:1016E000FFF7C1F8122104F22650FFF79AF84FF4E1
:1016F000FF7104F5A760FFF7B6F8002070BD7047D2
:1017000072B6FEE7002200F001B8000030B50E4BC3
:10171000054601205C7A002C14D1587A1C54587A62
:1017200003EB800045605D7A03F108002A54587A83
:10173000421C5A72303008703A2048702F2088704E
:10174000CC70002030BD00005C110020A12202748A
:10175000212242740022428282820722C28205F044
:10176000DDB9704778B50024009490F83C20012A38
:1017700019D0012280F83C200A6807230568092A4D
:1017800013D9EE680A3A02EB420293409E43EE60A0
:101790000B788A680A3B03EB43039A400368DD68D1
:1017A0002A43DA6010E0022078BD2E6902EB420283
:1017B00093409E432E610B788A6803EB43039A4063
:1017C00003681D692A431A614A681F23072A13D236
:1017D00005686E6B521E02EB820293409E436E635D
:1017E0000B790A885B1E92B203EB83039A4003686D
:1017F0005D6B2A435A6327E005680D2A12D22E6BCF
:10180000D21F02EB820293409E432E630B790A881B
:10181000DB1F92B203EB83039A4003681D6B2A43DC
:101820001A6311E0EE6A0D3A02EB820293409E4386
:10183000EE620B790A880D3B92B203EB83039A4068
:101840000368DD6A2A43DA62164B0568144A9D4232
:1018500006D10D68122D03D1556845F480055560F9
:1018600005689D4218D10B68102B01D0112B13D1A4
:10187000536843F400035360096810290CD10A49E6
:101880000A4A0968B1FBF2F101EB8101490000E06D
:10189000491E00910029FBD180F83C40002078BD12
:1018A00000230140002001402000002040420F00A2
:1018B0007047704770B5044600680668456816F0C2
:1018C000020F05F020012AD049B3216CC90603D4C8
:1018D000216C41F400712164816811F0405F17D1DF
:1018E000217EA9B9C16A11F4700F02D0816849053F
:1018F0000ED4416821F020014160206C20F48070FA
:101900002064206CC00403D4206C40F001002064EB
:101910002046FFF7CDFF21686FF01200086016F037
:10192000040F05F0800132D089B3206CC00603D4C7
:10193000206C40F4005020642068816811F4401F3E
:101940001ED1816B11F4401F02D08168490517D464
:101950004168490514D4816811F0405F10D1217E9F
:1019600071B9416821F080014160206C20F4805001
:101970002064206CC00503D4206C40F0010020647A
:101980002046FFF7EEFE21686FF00C00086016F0AD
:10199000010F05F040010FD071B120680068C00749
:1019A0000AD0206C40F480302064204600F043F8D8
:1019B00021686FF00100086016F0200F05F08061CB
:1019C0000ED000290CD0606C40F0020060642068EA
:1019D0006FF0200505602046FFF76BFF206805606B
:1019E00070BD70B504004FF0000503D0206C0026D8
:1019F00010B107E0012070BD204600F01DF86664BC
:101A000084F83C60206CC00610D4206C20F4885010
:101A100040F0020020642046FFF7C2FC6664206CA0
:101A200020F0020040F00100206400E0012584F86D
:101A30003C60284670BD704770B586B006461421DC
:101A40006846FEF710FF2149306888423BD12048A4
:101A50000025016841F480710160006800F4807025
:101A600005901B481438016841F0010101600068CD
:101A7000694600F001000590E02000900320CDE9C8
:101A80000105144800F0C4FA144C1348C4E90005D9
:101A90000015A560C4E90350400060618000C4E9FE
:101AA000060525622046656200F036FA08B1FFF7A8
:101AB00027FEB463002205211220A66300F072FF06
:101AC000122000F061FF06B070BD00000020014050
:101AD000443802400000024010640240C00100206F
:101AE00010B5040002D0607910B106E0012010BDED
:101AF00000202071204600F005F8012060710020D0
:101B000010BD000008B500680649884208D10648A3
:101B1000016841F480510160006800F48050009039
:101B200008BD00000030024030380240704770B5F8
:101B300000B3F9B14379012B1ED00126467102236F
:101B4000037105682C6802F0100340F6FE729A409B
:101B50009443D1E900210A439A4022432A60016854
:101B60000A68C0249C40A2430A60067100214171AA
:101B7000084670BD012070BD022070BD70472DE980
:101B8000F041044600680668456BB1044FF0040755
:101B900010D5A9040ED52771216941F001012161F9
:101BA000F90241632068016821F4805101602046F8
:101BB000FFF7E4FFB00014D5A80012D52771206903
:101BC00040F00200206121684FF000504863206817
:101BD000016821F0805101602046BDE8F041FFF727
:101BE000A5BFBDE8F08170B5040003D020790025C1
:101BF00010B105E0012070BD6571204600F008F8C5
:101C000002202071256101202071002070BD00009C
:101C100070B586B0054614216846FEF724FE2349B8
:101C2000286888423FD122480026016841F00051CF
:101C30000160006800F0005005901D4810380168F0
:101C400041F0010101600068694600F00100059063
:101C5000102000900320CDE90106164800F0D8F9C5
:101C6000164C154820604FF0606060604020C4E969
:101C7000020600012061400060618000A061401107
:101C8000C4E907062046666200F046F908B1FFF78E
:101C900037FDAC60002205213620A56300F082FEEE
:101CA000362000F071FE06B070BD000000740040E8
:101CB00040380240000002408860024034020020A8
:101CC0002DE9F0410446876D00F0A0FA064694F82D
:101CD00035000025022806D08020606584F8345045
:101CE0000120BDE8F0812068016821F01601016043
:101CF0002068416921F080014161206C08B9A06C25
:101D000020B12068016821F00801016020680168A5
:101D100021F0010101600CE000F078FA801B052839
:101D200007D920206065032084F8350084F83450FA
:101D3000D7E720680068C007EED194F85C103F2018
:101D40008840B860012084F8350084F834500020C1
:101D5000C7E790F83510022903D0802141650120A2
:101D60007047052180F835100068016821F00101F5
:101D700001600020704700002DE9F84304464FF051
:101D80000009CDF8009063484FF41651A56D006826
:101D9000B0FBF1F72E6894F85C10082000FA01F10E
:101DA00031420FD021680A6852070BD50A6822F029
:101DB00004020A6094F85C108840A860606D40F0EE
:101DC0000100606594F85C104FF0010808FA01F01A
:101DD000304208D021684969090604D5A860606DC1
:101DE00040F00200606594F85C10042088403042A6
:101DF00008D021680968890704D5A860606D40F0A3
:101E00000400606594F85C1010208840304218D0BF
:101E100021680968090714D5A8602068016849038A
:101E200004D50068000308D5A16C07E00168C90566
:101E300003D4016821F008010160216C09B120463A
:101E4000884794F85C1020208840304231D02168C7
:101E50000968C9062DD5A86094F8350005282068C2
:101E6000016806D0490347D5006800031DD4616CA2
:101E70001CE021F0160101602068416921F0800119
:101E80004161206C08B9A06C20B12068016821F084
:101E90000801016094F85C103F208840A86084F835
:101EA000358084F83490216D1FE0E16B09B1204644
:101EB0008847606D00282BD0606DC00714D00520C6
:101EC00084F835002068016821F001010160009864
:101ED000401C0090B84203D820680068C007F6D1C3
:101EE00084F8358084F83490E16C002910D001B07A
:101EF0002046BDE8F04308470168C905D5D401680C
:101F000021F01001016084F8358084F83490CCE72A
:101F1000BDE8F883200000202DE9F041044600F0E0
:101F200075F906465CB1022084F83500002584F876
:101F300034502068016821F0010101600DE00120AA
:101F4000BDE8F08100F062F9801B052805D920204A
:101F50006065032084F83500F2E720680068C00758
:101F6000F0D12268116820480140D4E901031843E8
:101F7000D4E903363343184363691843A36918430C
:101F8000E3691843236A18430843616A042903D1AB
:101F9000D4E90B1319430843106020684069666A4E
:101FA00020F0070130460E43012704280CD1A06A17
:101FB0000643E06A40B12046FFF73AFB20B14020DB
:101FC000606584F83570BAE7206846612046FFF7FF
:101FD0001BFB94F85C203F2191408160656584F88B
:101FE00035700020ACE700003F8010F070B504466B
:101FF00000F00CF90546601C02D004480078044447
:1020000000F004F9401BA042FAD370BD1400002078
:102010002DE9F84FDFF8BCA10022012503264FF07F
:102020000F090AF1040BAAF1040E00BF0B6805FAB0
:1020300002F42340A34270D10F7907F00307012F68
:1020400001D0022F16D187684FEA420806FA08FC31
:1020500027EA0C07D1F80CC00CFA08FC4CEA070C74
:10206000C0F808C04768A7430C79C4F30014944033
:102070003C4344600C79E443A4070AD0C4684FEAA7
:10208000420C06FA0CF7BC438F6807FA0CF727439B
:10209000C7600C7904F00304022C12D1D40800EBC1
:1020A000840CDCF820405707FF0E09FA07F824EAF1
:1020B0000804D1F8108008FA07F848EA0408CCF8B8
:1020C000208004684FEA420C06FA0CF7BC430F79F3
:1020D00007F0030707FA0CF7274307604C6814F46E
:1020E000403F70D03C4C276847F480472760246805
:1020F00022F0030704F480440094384C07EB040CEE
:10210000DCF8084897074FEA177809FA08F7BC4344
:10211000334FB84202D1002724E054E0314FB84297
:1021200001D101271EE0304FB84201D1022719E04A
:102130002E4FB84201D1032714E02D4FB84201D1F0
:1021400004270FE02B4FB84201D105270AE02A4FA0
:10215000B84201D1062705E0284FB84201D1072730
:1021600000E0082707FA08F72743CCF80878DAF8E0
:1021700000405746D1F804C09C435FEACC2C00D500
:102180001C433C60DBF800405F46D1F804C09C4330
:102190005FEA8C2C00D51C433C60DEF8004077469B
:1021A000D1F804C09C435FEA8C3C00D51C433C60E2
:1021B000084F083F3C68D1F804C09C435FEACC3C20
:1021C00000D51C433C60521C102AFFF42FAFBDE821
:1021D000F88F0000083C01404438024000300140C4
:1021E000000002400004024000080240000C0240CF
:1021F000001002400014024000180240001C02407F
:102200000AB1816170470904FBE70000014880685A
:102210007047000014000020D0F8DC0305F0C4BCB7
:10222000D0F8DC0305F0D5BC006808F0CFBB00682F
:1022300008F0D0BBC1EB011100EB8100002200F8D7
:102240001A2F4270C272827210467047C1EB0111A0
:1022500000EB810090F84C007047C1EB011100EBDE
:102260008100806B704710B5044690F8D4030128B4
:1022700009D0012084F8D403206808F0B6FB0020C0
:1022800084F8D40310BD022010BD2DE9FF4F83B0A8
:102290000546DDE9117690F8D403DDF840809346D9
:1022A0008A4601281CD0CAEB0A11012305EB8104E0
:1022B00085F8D4334FF0000984F8199006982075FA
:1022C00084F815A084F826700BF07F00A0755146A5
:1022D0002846FFF7AFFF5FEA0B6005D5E37505E021
:1022E000022007B0BDE8F08F84F81790286808F046
:1022F00071FB012F06D1B8F1010F03D110B9BC2E2B
:1023000000D9BC2684F81880B0B22085CDF80080B2
:10231000CDE9017028685A465146069B08F0D0FB6B
:1023200085F8D493DDE7D0F8DC0305F0DFBC2DE9B8
:10233000F0030E46DDE906C9DDE90874C1EB0611BC
:1023400000EB81010225CA7581F82630BCF1000F2F
:102350000AD081F82A50002463B1012B31D0022B1E
:1023600028D0032B16D125E04FF0030881F82A80EE
:102370004C76F0E7BCF1010F0CD11AB18A7E012A2C
:1023800019D007E0D7B9012281F83D2000E0C2B1A1
:1023900081F82A50C1F82C904F6381F84C408C632F
:1023A0004E7581F84D4082790068BDE8F003143124
:1023B00008F016BC12B191F83C20E8E791F83D20F6
:1023C000E5E781F82A40E5E72DE9F0410668044693
:1023D000304608F006FB012877D1206808F0BCFDE4
:1023E000002872D0206808F0B7FD800203D521686C
:1023F0004FF400104861206808F0AEFDC00203D51C
:1024000021684FF480104861206808F0A5FD400164
:1024100003D521684FF080604861206808F09CFD7A
:10242000800702D5216802204861206808F094FDE9
:10243000800018D521684FF000504861D6F840045C
:10244000C00710D11021304608F0A2FA304608F03B
:1024500083FA607A022803D10121206808F058FD30
:102460002046FFF7DDFE206808F076FDC00102D5AA
:10247000204601F014FE206808F06EFD000705D527
:10248000204600F0C8F8216808204861206808F05C
:1024900063FD800124D5206808F09EFB07460025D7
:1024A0004FF0010815E000BF05F00F0108FA01F038
:1024B00038420DD006EB4510D0F80005E9B2000413
:1024C000204603D501F0B2FA02E01CE001F06CFCFA
:1024D0006D1C6079A842E7D821684FF00070486110
:1024E000206808F039FDC043C0060CD4206881691B
:1024F00021F010018161204601F01BFE20688169F6
:1025000041F010018161BDE8F081F8B5040005D00B
:1025100094F8D5032568002610B106E00120F8BD27
:1025200084F8D463204600F029F8032084F8D5030A
:10253000B5F1A04F00D1A671206808F0D9F9207C30
:102540008DF8000094E80F0008F072F9022560B9D8
:102550000121206808F03CFD38B9207C8DF800008E
:1025600094E80F0008F06CFC10B184F8D553D5E75F
:10257000012084F8D5030020F8BD000010B586B016
:10258000044614216846FEF76EF92068B0F1A04FAA
:102590002FD119480021026842F001020260006850
:1025A00000F0010005904FF4C05000900220CDE9EA
:1025B0000101032003900A20049069460F48FFF7A9
:1025C00027FD0D48001D016841F0800101600A48A7
:1025D0001430016841F4804101600068002200F479
:1025E000804005900521432000F0DCF9432000F0F5
:1025F000CBF906B010BD00003038024000000240A8
:10260000D0F8DC0305F08FBBD0F8DC0305F08FBBFE
:10261000006808F0C4BCD0F8DC0305F02FBB10B58F
:10262000044690F8D40301280DD0012084F8D40387
:102630000121206808F074F9206808F087F900206B
:1026400084F8D40310BD022010BD10B5044690F8E4
:10265000D403012809D0012084F8D403206808F0AD
:10266000E5FC002084F8D40310BD022010BD00005A
:1026700070B5040025D094F83D00002520B984F8F9
:102680003C50204600F0B8F8242084F83D00206833
:10269000016821F0010101602068016841F40041F6
:1026A00001602068016821F40041016000F06EFAC9
:1026B0004D4A6168914201D84C4900E04C4988423A
:1026C00001D2012070BD4B492368B0FBF1F15E6877
:1026D00026F03F060E435E606368934206D94FF4CE
:1026E000967359434FF47A73B1FBF3F12368491C95
:1026F0001E6A26F03F06314319626168914210D884
:102700004900401EB0FBF1F2521CC2F30B02042A36
:1027100001D2042022E0B0FBF1F0401CC0F30B001A
:102720001CE0A268F2B301EBC10303EB0116431EE8
:10273000B3FBF6F35B1C43F480431B0549D092B313
:1027400001EBC10202EB0111401EB0FBF1F0401C95
:10275000C0F30B0040F4804040F400402168CA6997
:102760004CF6FF739A431043C861D4E90710014344
:102770002068026822F0C00211430160D4E903011D
:1027800001432068826848F2FF339A431143816015
:10279000D4E9050108432168CA6822F0FF0210430A
:1027A000C86001E00EE016E02068016841F0010118
:1027B00001602564202084F83D00256384F83E50A4
:1027C000002070BD01EB4106431EB3FBF6F35B1C1A
:1027D000B3E70120C2E701EB4101401EB0FBF1F07D
:1027E000401CC0F30B00B7E7A086010080841E00E8
:1027F00000093D0040420F0010B586B00446142188
:102800006846FEF730F813492068884220D1124804
:10281000016841F0020101600068694600F00200B1
:1028200005904FF44070009012200190012002901A
:102830000390042004900948FFF7EAFB0648103093
:10284000016841F400110160006800F40010059077
:1028500006B010BD00540040303802400004024071
:10286000024881680278114481607047140000209A
:102870000B4810B5016841F400710160016841F432
:1028800080610160016841F480710160032000F003
:10289000A9F80F2000F006F800F050F8002010BD55
:1028A000003C024030B505461F4887B0002401684F
:1028B00041F080010160006806A900F080000090EE
:1028C00001A800F043F90498A8B100F05FF94000B6
:1028D0001649174AB0FBF1F11648491E026040F252
:1028E000E732C0E90324C0E90114846100F0DCFB95
:1028F000040003D015E000F049F9E9E70D4800F0C5
:1029000067FC04000DD12C2000F03EF8102D07D2FA
:10291000002229462C2000F045F80748056000E019
:10292000012407B0204630BD4038024040420F002D
:10293000001C00408005002018000020114808B548
:10294000016841F480410160006800F4804000901B
:102950000C48001F016841F08051016000680022AE
:1029600000F0805000900F21901E00F01BF8052110
:102970000022084600F016F8BDE80840052000F0E7
:1029800003B8000044380240002809DB00F01F02B1
:10299000012191404009800000F1E020C0F80011C1
:1029A00070470000F0B40E4B1B680C46C3F30223C3
:1029B000C3F10705042D00D90425191D072901D2EB
:1029C000002300E0DB1E012606FA05F1491E214026
:1029D00099409E40761E16403143F0BC08F081BB02
:1029E0000CED00E0064900F0070208684FF6FF030F
:1029F000184040EA0220034A104308607047000074
:102A00000CED00E00000FA05704700002DE9F047EA
:102A10000E46050065D0DFF81481D8F80000F7B243
:102A200000F00700B04207D288F80070D8F8000024
:102A300000F00700B04254D128683D4C810712D500
:102A4000400703D5206840F4E05020602878000754
:102A500003D5206840F4604020602068A96820F019
:102A6000F000084320602878C0072DD030496868FE
:102A70000839012812D0022813D0032811D0096880
:102A8000890700292DDA216821F003010143216023
:102A9000FFF7BCFB814641F2883A0EE009688903E2
:102AA000EFE709688901ECE7FFF7B0FBA0EB09014C
:102AB000514502D90320BDE8F0872068696800F01D
:102AC0000C00B0EB810FEFD1D8F80010404601F0B8
:102AD0000701B14207D90770006800F00700B04253
:102AE00001D00120E7E72878400705D52068E9688C
:102AF00020F4E050084320602878000706D52068BD
:102B0000296920F4604040EAC100206000F05EF8CE
:102B10002168084AC1F30311515CC84006490860A6
:102B200006480068FFF7BEFE0020C4E7003C0240F4
:102B30000838024094CB0008200000201800002034
:102B400001490120C8647047000047420F2202601B
:102B50000C4A136803F003034360136803F0F003A7
:102B60008360136803F4E053C36012684FF4E053CA
:102B700003EAD20202610448006800F0070008601E
:102B80007047000008380240003C024004480549F4
:102B900000680968044AC1F38221515CC84070474B
:102BA0002000002008380240A4CB00080448054952
:102BB00000680968044AC1F34231515CC84070475B
:102BC0002000002008380240A4CB0008154810B5AA
:102BD000006810F00C02144813D01449042A0FD0D6
:102BE000082A0ED10F4C241F2268236802F03F02EE
:102BF0005B0207D52068C0F38810A0FB010106E046
:102C0000084610BD2168C1F38811A1FB0001002313
:102C1000FDF716FC2168C1F30141491C4900B0FBD6
:102C2000F1F010BD083802400024F40040787D0126
:102C3000054810B50068000605D5FFF7E5FE024916
:102C40008020891C087010BD0C3802402DE9F84F17
:102C500004006ED02078DFF84C93C007A9F104057A
:102C60004AD009F104000168C1F38101012908D0AB
:102C70000068C0F3810002280AD1D9F800004002A0
:102C800006D52868800337D560680028E1D033E096
:102C90006068B0F5803F10D0B0F5A02F286810D044
:102CA00020F480302860286820F480202860606844
:102CB000A8B1FFF7ABFA06460DE0286840F4803073
:102CC000F4E740F480202860F7E700BFFFF79EFAA2
:102CD000801B642873D828688003F7D50CE0FFF7C1
:102CE00095FA064605E000BFFFF790FA801B6428BE
:102CF000F0D828688003F7D42078DFF8AC8280070A
:102D00004FF0000A3ED5A748001D016811F00C0FD6
:102D100008D00068C0F3810002280BD1D9F8000068
:102D2000400207D42868800716D5E068012800D142
:102D300012E033E1E068B8B10120C8F80000FFF705
:102D400065FA064605E000BFFFF760FA801B02281F
:102D5000C0D828688007F7D52868216920F0F800D6
:102D600040EAC10028600DE0C8F800A0FFF74EFA65
:102D7000064604E0FFF74AFA801B02281FD828689D
:102D80008007F7D42078000722D5864F87486169ED
:102D9000703771B101210160FFF738FA064604E08F
:102DA000FFF734FA801B022809D838688007F7D566
:102DB0000EE0C0F800A0FFF729FA064605E082E021
:102DC000FFF724FA801B02287DD838688007F7D4E3
:102DD0002078400768D5DFF8CCB100270BF13C0B19
:102DE000DBF80000C0000BD4DBF8001041F080518C
:102DF000CBF80010DBF80000012700F080500090B5
:102E00006B4E3068C00510D4306840F4807030607C
:102E1000FFF7FCF9009005E0FFF7F8F90099401A78
:102E2000022850D83068C005F6D55E4EA0686C36D2
:102E300001280FD00528306810D020F00100306044
:102E4000306820F004003060A068B8B1FFF7DEF908
:102E500000900FE0306840F00100F4E740F004001B
:102E60003060F7E7FFF7D2F90099411A41F2883054
:102E7000814266D830688007F4D50EE0FFF7C6F9C6
:102E8000009007E0FFF7C2F90099411A41F288303B
:102E9000814256D830688007F4D42FB1DBF8001097
:102EA00021F08051CBF80010A069C8B33D49091D3D
:102EB0000968C1F3810102294AD00228504607D08F
:102EC000C8F8600000E03CE0FFF7A0F904463BE0F2
:102ED0004746C8F86000FFF799F9064605E000BFCD
:102EE000FFF794F9801B02282BD828688001F7D4BB
:102EF000D4E907010843A16A2E4A490802EB0141BF
:102F0000626A41EA8211084394F82C1040EA016198
:102F1000C9F8001001203866FFF778F9044606E08A
:102F20003EE000BFFFF772F9001B022809D82868AD
:102F30008001F7D534E000BFFFF768F9001B0228D5
:102F400002D90320BDE8F88F28688001F4D427E077
:102F50000128F7D0D9F80000E26900F4800191421D
:102F60001CD1226A00F03F01914217D147F6C0718F
:102F7000626A0140B1EB821F10D1A26A4FF0FF33A9
:102F800000F4403103EB5202B1EB024F06D194F84A
:102F90002C1000F07060B0EB016F01D00120D1E780
:102FA0000020CFE70438024000004742800E47422D
:102FB000007000400000FFFF70B5040003D060798E
:102FC000002510B105E0012070BD2571204600F0FC
:102FD0000DF8022060712068016841F00401016071
:102FE00001206071A560002070BD000008B5006878
:102FF0000649884208D10648016841F04001016055
:10300000006800F04000009008BD00000008065075
:10301000343802407047704770B590F83C20012A60
:1030200032D0012480F83C40022280F83D20036821
:103030005A689D6822F070060A6832435A60134B42
:1030400002689A4214D0B2F1804F11D0104B9A42CC
:103050000ED0104B9A420BD00F4B9A4208D00F4B18
:103060009A4205D00E4B9A4202D00E4B9A4204D19E
:10307000496825F080031943916080F83D400021A4
:1030800080F83C10084670BD022070BD0000014071
:103090000004004000080040000C00400004014013
:1030A000004001400018004010B5040003D094F81F
:1030B0003D0010B107E0012010BD002084F83C0065
:1030C000204600F01FF8022084F83D00211D2068F2
:1030D00002F092F8012084F8460084F83E0084F85B
:1030E0003F0084F8400084F8410084F8420084F8EE
:1030F000430084F8440084F8450084F83D00002033
:1031000010BD000008B501682B48B1F1804F0BD00D
:103110002A4A914210D1016841F002010160006821
:1031200000F00200009008BD016841F0010101605B
:10313000006800F00100F5E7214A914207D10168DB
:1031400041F020010160006800F02000EAE71D4A1C
:10315000914210D11848001D016841F4003101600E
:103160000068002200F40030009005211920FFF7CC
:1031700019FC19201BE0144A914207D1016841F063
:1031800040010160006800F04000CBE70F4A914227
:10319000C9D1016841F4807101600068002200F427
:1031A0008070009005212D20FFF7FCFB2D20BDE84D
:1031B0000840FFF7E9BB000040380240000400402F
:1031C000001400400044014000180040002000406E
:1031D00090F83D10012901D001207047022180F8AC
:1031E0003D100168CA6842F00102CA6000681149D6
:1031F000884214D0B0F1804F11D00F4988420ED0D0
:103200000E4988420BD00E49884208D00D498842A9
:1032100005D00D49884202D00C49884204D181680A
:1032200001F00701062903D0016841F001010160A6
:1032300000207047000001400004004000080040EA
:10324000000C004000040140004001400018004014
:1032500070B5044690F83C000025012817D00126DF
:1032600084F83C60022084F83D002068826822F0E7
:10327000770222F47F4282600868502838D00DDC43
:1032800020284FD005DC90B3102811D14AE002204D
:1032900070BD302846D040280AD13BE060282FD0AE
:1032A00070280DD0B0F5805F03D0B0F5005F12D06C
:1032B000012584F83D60002084F83C00284670BD5C
:1032C000CB68D1E90121206802F002F8206881680A
:1032D00041F0770109E0CB68D1E90121206801F0D4
:1032E000F7FF2068816841F480418160E1E719E0DF
:1032F000CA684968206802F0BFF85021206806E0DB
:10330000CA684968206802F0C8F86021206801F0A6
:10331000E9FFCEE7CA684968206802F0ADF84021AD
:103320002068F4E7226801461046F0E770472DE96F
:10333000F04104460068C66805694FF00007A90718
:1033400013D5B10711D5F91E01610120207720683E
:1033500080698007204602D0FFF7E8FF04E000F014
:10336000D9F8204600F06BF92777680716D5700763
:1033700014D521686FF004000861022020772068CE
:10338000806910F4407F204602D0FFF7CFFF04E0B1
:1033900000F0C0F8204600F052F92777280715D52D
:1033A000300713D521686FF00800086104202077EA
:1033B0002068C0698007204602D0FFF7B7FF04E00D
:1033C00000F0A8F8204600F03AF92777E80616D56D
:1033D000F00614D521686FF01000086108202077EE
:1033E0002068C06910F4407F204602D0FFF79EFF9E
:1033F00004E000F08FF8204600F021F92777E80775
:1034000008D0F00706D021686FF00100086120465F
:1034100000F016F9280608D5300606D521686FF0A9
:10342000800008612046FFF7F5FD680608D57006A4
:1034300006D521686FF040000861204600F00AF9C7
:10344000A8060AD5B00608D521686FF020000861EB
:103450002046BDE8F041FFF7DEBDBDE8F081000089
:1034600030B587B0044614216846FDF7FCF923689F
:103470000021224802224FF40044B3F1804F17D0BC
:103480001F4DAB4225D1036843F00403036000687D
:1034900000F0040005904FF4E0700090CDE90121A8
:1034A000CDE9031269461748FEF7B2FD07B030BDFB
:1034B000036843F0010303600068029200F001001A
:1034C0000590CDE900420120CDE9031069460E4880
:1034D000EAE70E4DAB42E9D1036843F00203036013
:1034E0000068009400F002000590CDE90121092058
:1034F000CDE9031069460648D6E70000303802409F
:103500000004004000080240000002400018004093
:1035100000040240704770B5044690F83C00002655
:103520000D4601280FD0012084F83C006AB1042A1E
:103530001DD0082A2FD00C2A3FD00126002084F865
:103540003C00304670BD022070BD206801F0D2FE04
:103550002068816941F0080181612068816921F05A
:1035600004018161206881692A69114311E02068A2
:1035700001F0F0FE2068816941F4006181612068FA
:10358000816921F480618161206881692A6941EA49
:1035900002218161D2E7206801F012FF2068C16931
:1035A00041F00801C1612068C16921F00401C161D5
:1035B0002068C1692A69114311E0206801F034FFD5
:1035C0002068C16941F40061C1612068C16921F4CA
:1035D0008061C1612068C1692A6941EA0221C16133
:1035E000ACE710B5040003D094F83D0010B107E03B
:1035F000012010BD002084F83C00204600F01EF899
:10360000022084F83D00211D206801F0F5FD012015
:1036100084F8460084F83E0084F83F0084F84000B7
:1036200084F8410084F8420084F8430084F84400A0
:1036300084F8450084F83D00002010BD70477047B5
:1036400000680349884201D1FFF70AB970470000BA
:10365000001C00407047704770470000F8B50168D3
:1036600004460868CA684B6910F00F0F4FF0000558
:1036700059D003F0010602F49077374365D0C107B3
:1036800005D0D10503D5616C41F0010161644107AA
:1036900005D5D90703D0616C41F00201616481074F
:1036A00005D5D90703D0616C41F0040161640107BD
:1036B00007D502F02001314303D0616C41F00801CD
:1036C0006164616C00293AD0800604D5900602D569
:1036D000204601F02AFF20684069616CC0F3801029
:1036E000090700D460B3204601F0F8FE2068406965
:1036F000400621D52068143050E8001F21F0400119
:1037000040E80012002AF5D1E06BA8B16E490165CE
:10371000E06BFEF71EFB002811D0E06B016D01B0DD
:10372000BDE8F040084783060FD593060DD5204627
:10373000BDE8F84001F0F9BE2046FFF78DFFF8BD67
:103740002046FFF789FF6564F8BD266B2023012E14
:103750007DD1C6067BD5D60679D508684868009025
:1037600048694FF00206400641D5E16B08684068A1
:103770000004000CE8D0A28D8242E5D9E085C8693A
:10378000B0F5807F2DD020680C3050E8001F21F468
:10379000807140E80012002AF5D12068143050E80A
:1037A000001F21F0010140E80012002AF5D1206835
:1037B000143050E8001F21F0400140E80012002AB8
:1037C000F5D184F84230256320680C3050E8001FA2
:1037D00021F0100140E80012002AF5D1E06BFEF75D
:1037E0006FFA6663A08DE18D401A81B22AE0A08D48
:1037F000E18D401A81B2E08D0028A5D00029A3D028
:1038000022680C3252E8000F20F4907042E8000762
:10381000002FF5D12068143050E8002F22F001026B
:1038200040E80027002FF5D184F842302563206856
:103830000C3050E8002F22F0100240E80023002B4B
:10384000F5D166632046FFF706FFF8BDFFE70506E2
:103850002BD5150629D594F841002128F5D1A0686B
:10386000B0F5805F01D12069B0B1206A411C2162AE
:10387000216800784860E08C401E0004000CE08461
:10388000E3D12068C16821F08001C1602068C1686F
:1038900041F04001C160D8E7206A0088C0F3080009
:1038A0004860206A801C2062E5E74006CDD55006BE
:1038B000CBD5CA68204622F04002CA6084F8413065
:1038C00000F0B3F8C1E70000CD54000870B5040063
:1038D00004D094F84100002510B106E0012070BD2D
:1038E00084F84050204600F023F8242084F841005A
:1038F0002068C16821F40051C160204601F076FEC5
:103900002068016921F4904101612068416921F03A
:103910002A0141612068C16841F40051C1606564B9
:10392000202084F8410084F842006563002070BDC7
:10393000F0B587B0044614216846FCF794FF364979
:10394000344E25680022344C103902233348B542E6
:1039500023D1256845F400252560246804F400245B
:1039600005940C6844F001040C600968029301F0AE
:10397000010105910321CDE900130821CDE90321BF
:103980006946FEF745FB002205213420FFF70AF8BF
:103990003420FEF7F9FF07B0F0BD214F0726BD42E6
:1039A0001AD11D4C241D256845F01005256024689A
:1039B00004F0100405940C6844F001040C600968DC
:1039C00001F0010105914FF4C0610091CDE9013290
:1039D000CDE9032669461AE0124A9542DBD12268F6
:1039E00042F400322260226802F4003205920A6832
:1039F00042F001020A600968049601F00101059194
:103A00000C21CDE900130121CDE902316946FEF711
:103A1000FFFAC0E7004C004040380240000002407E
:103A20000010014000440040704770472DE9F05FEE
:103A3000054600680E46074607F086FAC6EB0611F3
:103A400040074FF007084FF0040905EB810401D54A
:103A5000484633E03146286807F076FAC0054FF053
:103A6000080A08D507EB46114FF48070C1F8080525
:103A700084F84DA028E03146286807F065FA000771
:103A800005D507EB4611C1F808A506200CE0314624
:103A9000286807F059FA400509D507EB46114FF49D
:103AA0008060C1F80805092084F84D000CE031461B
:103AB000286807F049FA00060AD5802007EB46116E
:103AC000C1F8080584F84D803146286806F08DFF5E
:103AD0003146286807F038FA80052868314604D551
:103AE00006F083FF4FF4007059E107F02DFAC0078C
:103AF0004FF0200B4FF0010A4FF000084ED007EBBB
:103B00004617C7F808B5E07E012807D184F81B8066
:103B1000D7F8040520F48030C7F80405A87930B13F
:103B2000206BD7F81015C1F31201401AA06384F876
:103B30004DA0C4F844805246C7F808A594F8260062
:103B400030B1022804D003280AD0012808D013E09D
:103B50003146286806F049FF1020C7F808050BE039
:103B6000D7F8000540F00050C7F8000584F84C2055
:103B700031462846FEF7D7FBA879012807D1208DCA
:103B8000A16B0144491EB1FBF0F0C00704D014F84A
:103B90003C0F80F001002070BDE8F09F314628689E
:103BA00007F0D2F980060CD507EB4611C1F808B52D
:103BB000A07E0128F0D184F81BA0032084F84D00DA
:103BC000B4E03146286807F0BFF980074FF0050BD5
:103BD00075D507EB46100221C0F8081594F84D2062
:103BE000012A16D0062A19D0072A1CD0092A1AD071
:103BF000052A33D0032A63D0042A7DD0082A7ED038
:103C0000022AC9D094F84C2031462846FEF78BFB97
:103C1000C2E784F84D1084F84CA0F3E784F84D1007
:103C200084F84CB0EEE784F84D10626C521C62646C
:103C3000022A10D9C4F84480A27E4146012A07D145
:103C4000E1762177D0F8041521F48031C0F804150D
:103C500084F84C90D6E784F84C1022E084F84D109C
:103C6000E27E012ACED194F82620032AF3D1A26C59
:103C7000521CA264022A11D9C4F8488084F81B801F
:103C8000616C032901D284F81CA0D0F8041521F43A
:103C90008031C0F8041584F84C9002E084F84C1090
:103CA000B0E794F8261009B10229ABD1D0F800157D
:103CB00021F0804141F00041C0F80015A2E724E066
:103CC00084F84D10E27E012A9CD184F84C10D0F883
:103CD000041541F48031C0F80415D0F80C1541F0FA
:103CE0004001C0F80C15D0F80C1521F02001C0F8E7
:103CF0000C15D6E700E002E084F84D10ABE784F83D
:103D00004D10606C401C6064A2E73146286807F0E3
:103D10001BF9400610D507EB46114020C1F80805F5
:103D200084F84DB0A07E08B9C4F8448031462868B4
:103D3000BDE8F05F06F059BE3146286807F004F987
:103D4000C0067FF565AF94F82600032803D028B19C
:103D5000022803D00FE0C4F8448006E0C4F8448091
:103D6000A87910B1E07E012818D184F84D90314631
:103D7000286806F03AFEE07E01280FD107EB4610D6
:103D800084F81B80D0F8041521F48031C0F80415A4
:103D9000D0F80C1541F02001C0F80C15102007EBED
:103DA0004611C1F80805F7E62DE9F05F0546006801
:103DB0000F46064607F0C8F8C7EB071140074FF05B
:103DC000040A05EB810405D506EB4711C1F808A5E7
:103DD000072089E03946286807F0B6F880064FF0DA
:103DE00000084FF001094FF0020B28D506EB4711F0
:103DF0002020C1F80805607E0326012809D184F837
:103E0000198084F84CB084F84D603946286806F073
:103E1000ECFDA07E012810D1E07E00280DD194F8A1
:103E20002600012801D084F81B9084F84D603946A3
:103E3000286806F0DAFDC4F84480BDE8F09F3946F2
:103E4000286807F081F8800506D506EB47114FF486
:103E50000070C1F8080549E03946286807F074F891
:103E6000C00720D0C4F844803946286807F06CF8B1
:103E7000400606D506EB471184F819904020C1F89A
:103E80000805E07E48B106EB471084F81B80D0F8A7
:103E9000041521F48031C0F8041506EB471148469B
:103EA000C1F8089520E03946286807F04DF840062B
:103EB0000ED5052084F84D00A07E08B984F819902D
:103EC000C4F844803946286806F08FFD402028E079
:103ED0003946286807F038F800070DD506EB47117A
:103EE0000820C1F80805062084F84D0039462868E6
:103EF000BDE8F05F06F079BD3946286807F024F880
:103F0000C00613D5C4F8448084F84DA0607E18B96B
:103F1000207E08B984F819903946286806F065FDB6
:103F2000102006EB4711C1F8080586E739462868D6
:103F300007F00AF8000626D5A87970B1606C401C1D
:103F40006064022811D9C4F84480524684F84CA019
:103F500039462846FEF7E7F913E0072084F84D00BC
:103F60003946286806F041FD0BE006EB471084F85F
:103F70004CB0D0F8001521F0804141F00041C0F86C
:103F800000158020CDE73946286806F0DDFF4005A2
:103F900009D5092084F84D003946286806F025FD2A
:103FA0004FF48060BDE73946286806F0CDFF8007F2
:103FB000BBD506EB47125846C2F808B594F84D1029
:103FC000012917D003293AD004293ED005294CD025
:103FD00006294DD0072901D00929A6D184F84D0022
:103FE000616C491C6164022948D9C4F8448084F892
:103FF0004CA04DE084F84D0084F84C9094F82600D5
:10400000022801D0032843D1A87928B994F83D00AB
:1040100080F0010084F83D00A879012838D1606B58
:1040200010B3218D0844401EB0FBF1F0C0072FD023
:1040300094F83D0080F0010084F83D0028E084F809
:104040004D00E17E012916D022E084F84D0084F86D
:104050004C00E07E01281BD184F81B80D2F80405B7
:1040600020F48030C2F8040512E084F84D0002E02C
:1040700084F84D00052084F84C0009E084F84C00D9
:10408000D2F8000520F0804040F00040C2F8000562
:1040900094F84C2039462846FEF745F9CDE67CB524
:1040A00004680546D4F840040190D4F8400420F098
:1040B0002E0000900198800709D50198C00702D012
:1040C0002846FEF7A9F8009840F0020000900198F9
:1040D000000724D5009840F00800009001984007A0
:1040E0001AD5687A022803D0E87901280CD00FE0AD
:1040F0000198C0F341400228286803D0012106F04E
:1041000007FF05E00221FAE74EF66020C4F8040438
:104110002846FEF779FA02E02846FEF771FA019880
:104120008006009802D540F020000090C4F84004BA
:104130007CBD2DE9F041024600680646016AC1F3E4
:10414000434301F00F07C1F30A15022B2ED1002DB6
:104150002CD0C7EB071102EB8104E16A002925D0BE
:10416000A26B636B2A449A4222D82A4606F0F8FED4
:10417000E06A2844E062A06B2844A06306EB471085
:10418000D0F81015228DC1F3C941AA420ED10029E1
:104190000CD0D0F8001521F0804141F00041C0F86A
:1041A000001514F83C0F80F001002070BDE8F0818C
:1041B000042084F84C00F9E7FEE700002DE9F04107
:1041C0000746D0F84C07C46904F58050B0F84E5D3E
:1041D000D0F8546DA5F580400F286ED2DFE800F0CE
:1041E0000811252E374049525B646E778089920012
:1041F0004DA0FCF79DF904F500544EA0D4F8A81189
:1042000007E049A0FCF794F904F5005452A0D4F853
:10421000A811FCF78DF95BA0FCF78AF93246294614
:10422000384604F058FEBDE8F0813FA0FCF780F965
:1042300004F5005454A0D4F8A811EAE73AA0FCF71A
:1042400077F904F500545AA0D4F8A811E1E736A094
:10425000FCF76EF904F500545FA0D4F8A811D8E774
:1042600031A0FCF765F904F5005465A0D4F8A81155
:10427000CFE72DA0FCF75CF904F500546AA0D4F850
:10428000A811C6E728A0FCF753F904F5005471A063
:10429000D4F8A811BDE724A0FCF74AF904F50054AE
:1042A00077A0D4F8A811B4E71FA0FCF741F904F5F2
:1042B00000547EA0D4F8A811ABE72CE01AA0FCF7BC
:1042C00037F904F5005485A0D4F8A811A1E716A089
:1042D000FCF72EF904F5005489A0D4F8A81198E74A
:1042E00011A0FCF725F904F500548FA0D4F8A8110B
:1042F0008FE70DA0FCF71CF904F5005496A0D4F844
:10430000A81186E708A0FCF713F904F500549DA056
:10431000D4F8A8117DE704A0FCF70AF904F50054CD
:10432000A3A0D4F8A81174E74445425547203A2089
:10433000000000004556543A205054505F45435FFA
:10434000556E646566696E656420696E2073657379
:1043500073696F6E202575004556543A20505450AD
:104360005F45435F43616E63656C5472616E736158
:104370006374696F6E20696E2073657373696F6E05
:10438000202575000A0000004556543A205054502C
:104390005F45435F4F626A6563744164646564208E
:1043A000696E2073657373696F6E20257500000058
:1043B0004556543A205054505F45435F4F626A65FA
:1043C000637452656D6F76656420696E20736573E2
:1043D00073696F6E202575004556543A205054502D
:1043E0005F45435F53746F7265416464656420691F
:1043F0006E2073657373696F6E2025750000000071
:104400004556543A205054505F45435F53746F7281
:104410006552656D6F76656420696E207365737390
:10442000696F6E20257500004556543A205054504F
:104430005F45435F44657669636550726F7043689A
:10444000616E67656420696E2073657373696F6E52
:10445000202575004556543A205054505F45435F1F
:104460004F626A656374496E666F4368616E676523
:104470006420696E2073657373696F6E2025750003
:104480004556543A205054505F45435F4465766921
:104490006365496E666F4368616E67656420696E27
:1044A0002073657373696F6E202575004556543A05
:1044B000205054505F45435F526571756573744F6A
:1044C000626A6563745472616E7366657220696EA8
:1044D0002073657373696F6E202575004556543AD5
:1044E000205054505F45435F53746F726546756C3E
:1044F0006C20696E2073657373696F6E202575007B
:104500004556543A205054505F45435F44657669A0
:104510006365526573657420696E20736573736992
:104520006F6E2025750000004556543A20505450B7
:104530005F45435F53746F72616765496E666F4391
:1045400068616E67656420696E2073657373696F57
:104550006E202575000000004556543A20505450F6
:104560005F45435F43617074757265436F6D706C36
:1045700065746520696E2073657373696F6E20259D
:10458000750000004556543A205054505F45435F33
:10459000556E7265706F727465645374617475736F
:1045A00020696E2073657373696F6E202575000036
:1045B000526563656976656420756E6B6E6F776EA4
:1045C000206576656E7420696E2073657373696FFC
:1045D0006E202575000000007FB500213048009155
:1045E000019102912D4A0391026001244FF480321F
:1045F0000461C0E90121047680F82010294AC0E94D
:104600000A210625C561C16080F830404161FDF78F
:10461000E8F908B1FDF774F80526009669462048C8
:10462000CDE90145FDF79EF808B1FDF769F80220D4
:10463000CDE9005069461A48FDF794F808B1FDF736
:104640005FF8072000900320019069461448FDF7A9
:1046500089F808B1FDF754F810200090042001906B
:1046600069460F48FDF77EF808B1FDF749F81120BB
:10467000CDE9000669460A48FDF774F808B1FDF770
:104680003FF81220CDE9000569460548FDF76AF8B4
:10469000002801D0FDF734F87FBD00000020014064
:1046A000780100200100000F074910B50548086097
:1046B0000846FDF715FA002803D0BDE81040FDF7C5
:1046C0001FB810BD00300240040000201CB50024BB
:1046D0000C4900940A48019408600846FDF783FAE3
:1046E00008B1FDF70DF81420CDE900040022694659
:1046F0000448FDF71CFA002801D0FDF701F81CBDA5
:104700000074004020020020114808B5016841F4FF
:1047100000110160016801F400110091016841F489
:10472000800101600068002200F4800000900521F3
:104730001020FEF737F91020FEF726F90022052198
:104740003820FEF72FF9BDE808403820FEF71CB9E5
:104750003038024028B101224FF480710248FDF741
:104760004FBD0022F8E700000000024010B50449E8
:104770000448FCF7C7FF0249491E087010BD00003D
:104780000D00002078CB000810B5044A0021044831
:1047900006F0BEFD0349086010BD000054CB0008C0
:1047A000FB500008000000202DE9F04F87B01421D5
:1047B0006846FCF758F859480024016841F00401A4
:1047C0000160016801F004010591016841F0800178
:1047D0000160016801F080010591016841F001016B
:1047E0000160016801F001010591016841F00201D9
:1047F0000160016801F002010591016841F00801C2
:1048000001600068DFF8188100F0080005900022C0
:104810004FF61F414046FDF7F3FCDFF808910022F8
:1048200042F6FC014846FDF7EBFC01221103484625
:10483000FDF7E6FCDFF8F0A04FF480770022394660
:104840005046FDF7DDFCDFF8E4B0002204215846B5
:10485000FDF7D6FC4FF60E400125022603948DE8A5
:10486000610069464046FDF7D3FBCDE9025400954F
:10487000694640460195FDF7CBFB10200090CDE93D
:104880000154694640460394FDF7C2FB4FF408709B
:104890008DE8310069464046FDF7BAFB44F201401D
:1048A0008DE8310069464846FDF7B2FBCDE900646A
:1048B000694648460294FDF7ABFB41F28400CDE91E
:1048C0000005CDE9025469464846FDF7A1FBE80220
:1048D0000090CDE90154694648460394FDF798FBE2
:1048E00042F2780003948DE8610069464846FDF77E
:1048F0008FFBCDE90264CDE9007569465046FDF7AE
:1049000087FB0420CDE90005CDE9025469465846ED
:10491000FDF77EFB07B0BDE8F08F000030380240A5
:10492000000802400004024000000240000C024067
:104930000D4810B50B4901600C49416000214FF44E
:1049400080428160C0E9031241618161C1610162FD
:10495000FDF78EFE002803D0BDE81040FCF7D0BE66
:1049600010BD00000054004094020020A086010009
:10497000074910B5054808600846FEF71DFB0028EA
:1049800003D0BDE81040FCF7BBBE10BD00080650C8
:10499000E80200200C4810B50A490160A8214160D6
:1049A00000214FF47A72C0E9021201618021816115
:1049B000FEF77AFB002803D0BDE81040FCF7A0BE4C
:1049C00010BD000000440140D003002010B58CB0A1
:1049D00000240794089409941C2168460A94FBF764
:1049E00042FF1B48194901602E21C0E901146421CE
:1049F000C1604FF48071016180218161FEF754FB39
:104A000008B1FCF77DFE4FF48050079007A91048CD
:104A1000FEF71EFC08B1FCF773FE0D48FEF7E1FD42
:104A200008B1FCF76DFE6020CDE900040294042279
:104A3000694607480494FEF76EFD08B1FCF760FE76
:104A40000348FEF70DFD0CB010BD0000001800403B
:104A5000180400200C4810B50A4901605421416037
:104A600000214FF47A72C0E9021201618021816154
:104A7000FEF71AFB002803D0BDE81040FCF740BE4B
:104A800010BD0000002000406004002030B58DB053
:104A900000240794089409940A940B941C216846F6
:104AA0000C94FBF7E0FE1E484FF080416025C0E902
:104AB000001541F28831C0E9024180210461816121
:104AC000FEF7F2FA08B1FCF71BFE4FF48050079096
:104AD00007A91348FEF7BCFB08B1FCF711FE10480C
:104AE000FEF77FFD08B1FCF70BFE0B940BA90C48F9
:104AF0000C94FEF791FA08B1FCF702FECDE90054E0
:104B000002940022694606480494FEF704FD08B1A9
:104B1000FCF7F6FD0248FEF7A3FC0DB030BD000027
:104B2000F802002010B58EB0002407940894099470
:104B30000A940B941C2168460C94FBF794FE2748BA
:104B4000254901604FF49651C0E901146421C0E980
:104B5000031480218161FEF7A7FA08B1FCF7D0FDAC
:104B60004FF48050079007A91C48FEF771FB08B16D
:104B7000FCF7C6FD1948FEF734FD08B1FCF7C0FD8F
:104B80000B940BA915480C94FEF746FA08B1FCF7F4
:104B9000B7FD6020CDE900040294002269460F4869
:104BA0000494FEF7B8FC08B1FCF7AAFD042269469C
:104BB0000A48FEF7B0FC08B1FCF7A2FD08226946DE
:104BC0000648FEF7A8FC08B1FCF79AFD0348FEF77B
:104BD00047FC0EB010BD0000000400404003002060
:104BE0001CB500240F4800940D49019401600A216E
:104BF000C0E901141E21C16080218161FEF754FAD1
:104C000008B1FCF77DFD2020CDE900046946054888
:104C1000FEF702FA002801D0FCF772FD1CBD00006F
:104C200000140040880300200C4810B50A490160B8
:104C30004FF4E1314160002181600C22C160C0E984
:104C400004128161C161FEF741FE002803D0BDE876
:104C50001040FCF755BD10BD004C0040A8040020DA
:104C60000C4810B50A4901604FF4E1314160002160
:104C700081600C22C160C0E904128161C161FEF74C
:104C800025FE002803D0BDE81040FCF739BD10BD5B
:104C900000100140F00400200C4810B50A490160E2
:104CA0004FF4E1314160002181600C22C160C0E914
:104CB00004128161C161FEF709FE002803D0BDE83E
:104CC0001040FCF71DBD10BD004400403805002019
:104CD00010B5012219491A4802F0E4FE08B1FCF7A8
:104CE0000FFD1849164805F0C1FB08B1FCF708FD97
:104CF0001549134805F0BAFB08B1FCF701FD13494B
:104D00000F4805F0B3FB08B1FCF7FAFC10490C485A
:104D100005F0ACFB08B1FCF7F3FC0E49084805F0C0
:104D2000A5FB08B1FCF7ECFC054805F091FC002858
:104D300003D0BDE81040FCF7E3BC10BD65A6000839
:104D4000C8050020A4000020C40000202C01002081
:104D5000E40000204C010020FEE7FDF769FFFEE7BC
:104D60000148FDF731BB00007C0D002010B5D0F8E4
:104D70004C1741F68A526FF48053C969525AD218BF
:104D80001BD0082A03D00C2A1BD01A2A14D101F5F3
:104D90000054D4F8BC0100280ED141F69053D4F849
:104DA000C4014FF47D72194404F5D874FBF7BAFCC2
:104DB000606900F57D70206010BDBDE8104000F016
:104DC0000DB801F50051D1F8BC010028F4D1D1F89B
:104DD000C40100F57D70C1F8B00110BDF8B5D0F880
:104DE0004C070C46C66941F69050351846A0FBF7B3
:104DF0009FFB4848FBF79CFB47A0FBF799FB06F598
:104E00000056D6F8BC0100287CD12888208069791A
:104E1000D5F802006A4661F31F606060E88820816F
:104E200005F1080104F10A0000F001F9BDF80000E5
:104E3000012101EB4006A81906F10A020089A4F835
:104E40000A01294604F5887000F068F806EB400274
:104E5000161DC4F80C010E32294604F5EE7000F060
:104E60005DF806EB4002161DC4F8D8010E32294643
:104E700004F52A7000F052F806EB4002161DC4F843
:104E8000A4020E32294604F55D7000F047F806EBE7
:104E90004002161DC4F870030E32294604F58860DE
:104EA00000F03CF806EB4006361DA919C4F83C0496
:104EB0006A4604F5A1600A3100F0B9F8BDF80000B7
:104EC0006A4606EB4006761CA91904F207600A310F
:104ED00000F0ADF8BDF800006A4606EB4006761C0F
:104EE000A91904F206700A3100F0A1F8BDF800001B
:104EF0006A4606EB4000401C291804F605000A31FA
:104F000000F095F8F8BD00004445425547203A208E
:104F10000000000064CD00080A00000030B504461F
:104F200000238818C578006865F31F6007E000BF9C
:104F300002EB43050D442D7924F813505B1C984275
:104F4000F6D830BD70B5044600238818C5780068CF
:104F500065F31F600AE000BF02EB83050D44EE79A4
:104F60006D6866F31F6544F823505B1C9842F3D8C4
:104F700070BD38B5D0F84C0741F690511546C06960
:104F800044182088108060885080A0889080E27942
:104F9000A179237A100E41EA022141EA034140EA55
:104FA0001340637AA27A40EA13201043E27A41EA7E
:104FB000036140EA0220227B40EA0240627B40EA31
:104FC0000260C5E90210E27BA07B237C110E40EA5F
:104FD000022040EA034041EA1341637CA27C41EA9B
:104FE00013211143E27C40EA036041EA0221227D61
:104FF00041EA0241627D41EA0261C5E90401617E44
:10500000D4F816006A4661F31F60A86104F11A0122
:1050100005F11C0000F00BF8BDF800006A4604EB37
:10502000400105F21B101B3100F001F838BD10B52E
:105030000B78138011F8012B5300002204E08C5CE4
:10504000921C00F8014B92B29A42F8D300210170F1
:1050500010BD012902D0022938D04BE091780729F0
:1050600048D2DFE801F04704060F2A211800026049
:1050700040E0B0F87E1000EB8103491CA0F87E10E0
:105080005A6037E0B0F8801000EB8103491CA0F8AB
:1050900080105A612EE0B0F8821000EB8103491CA9
:1050A000A0F882105A6225E0B0F8841000EB81036A
:1050B000491CA0F884105A641CE0B0F8861000EB7C
:1050C0008103491CA0F886105A6313E091780129E6
:1050D00002D002290ED105E0B0F87C1000EBC1002F
:1050E000426507E0B0F87C1000EBC103491CA0F852
:1050F0007C109A65002070477047FFF7E9FD01209A
:1051000006F039F8FBE710B54FF0E020006907F032
:1051100065FB012803D0BDE8104007F025B810BD9D
:1051200030B593B030216846FBF79DFB14210CA8E5
:10513000FBF799FB1E480025016841F08051016092
:10514000006800F0805011901A48016841F48041D5
:1051500001600068022400F480401190012000905A
:10516000000401908001CDE90640192008904FF419
:10517000A870CDE9090407200B906846FDF766FD8D
:1051800008B172B6FEE70CA90F2081E831004FF498
:10519000A0500F904FF48050109005210CA8FDF7FF
:1051A00035FC08B172B6FEE7FDF7CAFC13B030BD9E
:1051B00040380240007000400248016841F470012C
:1051C0000160704788ED00E00148FEF7B0B80000CC
:1051D000D00300200148FCF7D2BC000020020020D0
:1051E0000148FEF7A4B80000600400200148FEF763
:1051F0009EB8000080050020F0B50268294C2A4DB9
:105200002A4E2B4F2B4B4FF0804CA04209D06045CB
:1052100007D0A84205D0B04203D0B84201D098428E
:1052200004D122F0700E4A6842EA0E02A0421BD05E
:10523000604519D0A84217D0B04215D0B84213D05B
:10524000984211D01C4DA8420ED01C4DA8420BD044
:105250001B4DA84208D01B4DA84205D01A4DA842AC
:1052600002D01A4DA84203D122F44075CA682A43DD
:105270004D6922F080022A4302608A68C2620A688D
:105280008262A04201D0984201D1096901630121E3
:1052900041610169C90703D0016921F00101016180
:1052A000F0BD000000000140000400400008004084
:1052B000000C004000040140004001400044014057
:1052C0000048014000180040001C00400020004041
:1052D00010B5846842EA032224F47F440A4322433F
:1052E000826010BD826822F070020A4342F007011A
:1052F00081607047F0B5036A026A22F0010202621F
:1053000042688469124E24F073050C682C4323F024
:1053100002058B682B430D4DA84201D0B04205D148
:1053200023F00807CB683B4323F00403A84201D0D5
:10533000B04205D14D6922F4407215438A692A436F
:1053400042608461496841630362F0BD000001402E
:1053500000040140F0B5026A036A23F010030362FF
:10536000436884690D6824F4E64444EA05248D68A2
:1053700022F0200242EA05120F4D104EA84201D041
:10538000B04206D1CF6822F0800242EA071222F032
:105390004002A84201D0B04207D14D6923F44063D6
:1053A00043EA85038D6943EA850343608461496864
:1053B00081630262F0BD0000000001400004014072
:1053C000F0B5026A036A23F4807303624368C46918
:1053D00022F4007224F073050C68124E2C438D6881
:1053E00042EA05220E4DA84201D0B04206D1CF6854
:1053F00022F4006242EA072222F48062A84201D02D
:10540000B04207D14D6923F4405343EA05138D6937
:1054100043EA05134360C4614968C1630262F0BD99
:10542000000001400004014030B5046A026A22F421
:10543000805202624268C3690D6823F4E64343EA7E
:1054400005238D6824F4005444EA0534084DA8422D
:1054500002D0084DA84204D14D6922F4804242EAAC
:1054600085124260C36149680164046230BD000076
:10547000000001400004014010B5036A046A24F0F2
:1054800001040462846924F0F00444EA021423F065
:105490000A020A438461026210BD10B5036A046AFD
:1054A00024F010040462846923F0A00324F47044FF
:1054B00044EA023243EA01118261016210BD000038
:1054C0000148FEF7CBB80000A804002010B5806B9F
:1054D0000021C185C184FEF7BFF810BD01680C3101
:1054E00051E8002F22F4907241E80023002BF5D1FF
:1054F0000168143151E8002F22F0010241E8002335
:10550000002BF5D1016B012909D101680C3151E85B
:10551000002F22F0100241E80023002BF5D12021BA
:1055200080F8421000210163704708B590F84210DE
:10553000222901D0022008BD82684FF480539A428C
:1055400001D1016921B1816A9A421BD04AB10AE0B6
:105550000268816A5268C2F308020A80816A891C63
:1055600008E0026972B10268526802F07F020A70B4
:10557000816A491C8162C18D491E0904090CC185DB
:1055800003D01BE002685268F1E70168CA6822F0A4
:105590002002CA600168CA6822F48072CA60016889
:1055A0004A6922F001024A61202180F8421000215C
:1055B0004163026B012A03D0FEF736FA002008BDD2
:1055C000016301680C3151E8002F22F0100241E81C
:1055D0000023002BF5D101680A68D20602D50A68BB
:1055E00049680091818DFEF736F8E7E770B504460B
:1055F00000680169E26821F44051114301612169A9
:10560000A068E26908436169114308432168CA68D8
:1056100049F20C639A430243CA6020684169A26957
:1056200021F440711143416131492068884202D020
:105630003049884202D1FDF7B9FA01E0FDF7A6FA38
:10564000E2690023192164253226B2F5004F626811
:1056500028D0A0FB0101930F9200FAF7F1FE01465A
:10566000B0FBF5F06FF01802504301EB800006EB41
:105670000010B0FBF5F000F0F002B1FBF5F002EB2A
:105680000012B1FBF5F06FF01803584301EB8000F6
:1056900006EB0010B0FBF5F000F00F00216810449D
:1056A000886070BDA0FB010192185B41FAF7C8FE4B
:1056B0000146B0FBF5F00201B1FBF5F06FF0180305
:1056C000584301EB800006EBC000B0FBF5F000F0A2
:1056D000F80002EB4002B1FBF5F0584301EB80000B
:1056E00006EBC000B0FBF5F000F00700D6E70000C5
:1056F0000010014000140140F0B40F46D0F84C17E0
:10570000DDE904C60025C9694FF48074022F06D074
:10571000032F17D0062F0AD0F0BC022070470A6F63
:10572000D27845EA02250022A1F890210FE001EB92
:1057300082024CEA0324D2F89020D27845EA02256E
:10574000324605E0D1F88020D27845EA02250122D0
:10575000A12303748123437444828582C282F0BCF6
:1057600001F5C87101F0DAB9F0B40F46D0F84C1762
:10577000DDE904C60025C9694FF48074022F06D004
:10578000032F17D0062F0AD0F0BC022070470A6FF3
:10579000D27845EA02250022A1F890210FE001EB22
:1057A00082024CEA0324D2F89020D27845EA0225FE
:1057B000324605E0D1F88020D27845EA0225012260
:1057C000A12303748323437444828582C282F0BC84
:1057D00001F5C87101F0A2B9F0B40F46D0F84C172A
:1057E000DDE904C60025C9694FF48074022F06D094
:1057F000032F17D0062F0AD0F0BC022070470A6F83
:10580000D27845EA02250022A1F890210FE001EBB1
:1058100082024CEA0324D2F89020D27845EA02258D
:10582000324605E0D1F88020D27845EA02250122EF
:10583000A12303748223437444828582C282F0BC14
:1058400001F5C87101F06AB9F0B40F46D0F84C17F1
:10585000DDE904C60025C9694FF48074022F06D023
:10586000032F17D0062F0AD0F0BC022070470A6F12
:10587000D27845EA02250022A1F890210FE001EB41
:1058800082024CEA0324D2F89020D27845EA02251D
:10589000324605E0D1F88020D27845EA022501227F
:1058A000A12303748423437444828582C282F0BCA2
:1058B00001F5C87101F032B9F0B40C46D0F84C17BC
:1058C000DDE90465C969022C04D0062C0ED0F0BCB9
:1058D000022070470A6F0023D27843EA0224002294
:1058E000A1F890214FF4807301220AE001EB8202BB
:1058F0000024D2F8902046EA0323D27844EA022416
:105900002A46212505740125457443828482C2827A
:10591000F0BC01F5C87101F001B970472DE9F04103
:105920000646D0F84C0700210D46C4690A4640F2ED
:105930000113B4F8EA000FE004EB82073F6FBF8861
:105940009F4207D104EB8200006FC178C07984F8D0
:10595000090103E0521CD2B29042EDD80020B4F805
:10596000E8200BE004EBC003D3F8C030DB788B42B7
:1059700002D184F8040103E0401CC0B28242F1D895
:10598000304600F0EBFA01000ED0C1F30722C8B296
:10599000C1F30741032A13D0042A0BD0052A0CD0E7
:1059A000062A04D00225EBE70220BDE8F08184F846
:1059B0000701E5E784F80501E2E784F80601DFE77F
:1059C00084F8080104280AD204EB8000D0F8800093
:1059D0008088A0F58071033902D00020E5E7022518
:1059E0002846E2E72DE9F0410646D0F84C070021B1
:1059F0000D46C4690A4640F20123B4F8EA000FE0FC
:105A000004EB82073F6FBF889F4207D104EB8200FF
:105A1000006FC178C07984F8510103E0521CD2B202
:105A20009042EDD8304600F099FA70B1C0F30723E8
:105A3000C2B2C0F30741032B13D0042B0BD0052BAC
:105A40000CD0062B04D00225ECE70220BDE8F08143
:105A500084F84F21E6E784F84D21E3E784F84E21EE
:105A6000E0E784F850212846F0E72DE9FC4107469D
:105A7000D0F84C0701264FF6FF75C4690220637801
:105A80001B1F052B65D2DFE803F0192F034D6300C0
:105A9000CDE900200A46022306213846FFF72CFEF6
:105AA000012856D004206070B4F89211B4F8900127
:105AB00005EA01210843C4F834014AE0CDE9002099
:105AC0000A46022306213846FFF786FE012840D009
:105AD00005206070B4F89211B4F8900105EA012134
