:020000040801F1
:10000000A0940120C9030108191301081F13010856
:100010002113010823130108251301080000000023
:10002000000000000000000000000000D5020108F0
:100030002713010800000000310301083D570308A1
:10004000E3030108E3030108E3030108E3030108F4
:10005000E303010829130108E3030108E30301088E
:10006000E3030108E3030108E3030108E3030108D4
:10007000E3030108E3030108E3030108E3030108C4
:100080002B130108E303010831130108E3030108FE
:10009000E3030108E3030108E3030108E3030108A4
:1000A000E303010837130108E3030108E303010830
:1000B000E3030108E3030108E3030108E303010884
:1000C000E3030108E3030108E3030108E303010874
:1000D000E3030108E3030108E3030108E303010864
:1000E000E3030108E3030108E3030108E303010854
:1000F0003D13010843130108E3030108E30301086A
:10010000E3030108E3030108E3030108E303010833
:1001100049130108E30301084F130108E303010831
:1001200055130108E3030108E3030108E303010891
:10013000E30301080000000000000000E3030108E1
:10014000E3030108E3030108E30301085B1301086B
:10015000E3030108E3030108E3030108E3030108E3
:10016000E3030108E3030108E3030108E3030108D3
:10017000E3030108E30301080000000000000000A1
:10018000E3030108E303010800F002F800F092F82D
:100190000AA090E8000C82448344AAF10107DA45E2
:1001A00001D100F087F8AFF2090EBAE80F0013F0A2
:1001B000010F18BFFB1A43F001031847C89D030045
:1001C000089E03000A444FF0000C10F8013B13F0A6
:1001D000070408BF10F8014B1D1108BF10F8015BA0
:1001E000641E05D010F8016B641E01F8016BF9D193
:1001F00013F0080F1EBF10F8014BAD1C0C1B09D1EA
:100200006D1E58BF01F801CBFAD505E014F8016B5B
:1002100001F8016B6D1EF9D59142D6D370470000ED
:10022000103A24BF78C878C1FAD8520724BF30C822
:1002300030C144BF04680C607047000000230024F4
:1002400000250026103A28BF78C1FBD8520728BFE6
:1002500030C148BF0B607047662938F02582642999
:1002600034F0BC84752934F0B984782934F0F284F0
:10027000632935F0E882732935F0ED82002070475C
:100280001FB538F004FA9DE8030035F00BF834F0A0
:10029000AAFE35F0BBFD04000020002137F0F4FB7E
:1002A000401C60600020002137F0D8FBE0601FBDDB
:1002B00010B510BD36F091F81146FFF7E1FF00F0E0
:1002C000EEF836F0E1FA03B4FFF7F2FF03BC02F0F8
:1002D0004BFB00002C4B19680868B0E8F04F80F326
:1002E0000988BFF36F8F4FF0000080F311887047CB
:1002F0000000000008480068006880F308884FF09C
:10030000000080F3148862B661B6BFF34F8FBFF36D
:100310006F8F00DF00BF00BF08ED00E0DFF80C00CA
:10032000016841F470010160704700BF88ED00E092
:10033000EFF30980BFF36F8F134B1A681EF0100F95
:1003400008BF20ED108A20E9F04F106009B44FF08B
:10035000500080F31188BFF34F8FBFF36F8F23F0EE
:10036000C3FF4FF0000080F3118809BC19680868CA
:10037000B0E8F04F1EF0100F08BFB0EC108A80F309
:100380000988BFF36F8F704748000020EFF30580A6
:10039000704700000B49D1F800C04A685CF8043B84
:1003A0001068184442F8040B8C4528BFA1F1DC0CFE
:1003B0008A4228BFA1F1DC02C1F800C04A6020F0E7
:1003C000004070472CD40120094880470948004765
:1003D000FEE7FEE7FEE7FEE7FEE7FEE7FEE7FEE7F5
:1003E000FEE7FEE704480549054A064B7047000052
:1003F0008514010889010108A0540120A09401205E
:10040000A0740120A074012072B6FEE730B593B04D
:100410000024089409940A940B9401940294039480
:10042000049405944448016841F0805101600068DB
:1004300000F0805000904148016841F48041016023
:10044000006800F4804000900120069000040790AE
:1004500002250C9580010D9019200E904FF4A87084
:100460000F9010950720119006A814F0B7FD08B161
:10047000FFF7CAFF0F200190029503944FF4A0509C
:1004800004904FF480500590052101A815F016F84E
:1004900008B1FFF7B9FF15F009F913B030BD03F04B
:1004A0001AFF16F075FCFFF7B1FF00F049F800F0F5
:1004B000C7FA00F029F900F031FA00F0E7FA00F08D
:1004C00017FC00F01BFE00F031FE00F047FE00F0CC
:1004D000F3F900F089FB00F0B3FC00F0D2FC00F06F
:1004E00029FD00F0E5FC00F04FFC26F0ADFD25F005
:1004F00032F900F0F1F825F066F9FEE710B5044690
:100500002068A0F18041B1F5E05101D116F073FCF3
:100510002068A0F18041B1F5005101D104F069FDDE
:100520002068A0F18041B1F5A23103D1BDE81040AF
:1005300003F090BD10BD0000403802400070004044
:100540002DE9F04786B000240194029403940494AA
:1005500005945948016841F004010160016801F007
:1005600004010091016841F080010160016801F01F
:1005700080010091016841F001010160016801F012
:1005800001010091016841F002010160016801F080
:1005900002010091016841F008010160006800F06B
:1005A00008000090454F00224FF61F41384615F0D5
:1005B00066FEDFF80C81002242F6FC01404615F091
:1005C0005EFE01221103404615F059FEDFF8F4905B
:1005D0000022B915484615F052FEDFF8ECA00022C3
:1005E0000421504615F04BFE4FF60E4001900125B8
:1005F000029502260396049401A9384615F08AFC58
:10060000019502950395049401A9384615F082FCE2
:100610001020019002950394049401A9384615F026
:1006200079FC4FF4087001900294039501A93846B3
:1006300015F070FC44F2014001900294039501A969
:10064000404615F067FC01960294039401A94046C8
:1006500015F060FC41F2840001900295039504942A
:1006600001A9404615F056FCE8020190029503945A
:10067000049401A9404615F04DFC42F27800019027
:1006800002950396049401A9404615F043FC280204
:10069000019002950396049401A9484615F03AFC8E
:1006A0000420019002950395049401A9504615F089
:1006B00031FC06B0BDE8F087303802400008024047
:1006C0000004024000000240000C024026F0DEFC64
:1006D000012025F04AFBFBE710B5074A0021AFF2E5
:1006E000130025F021F9054C2060054A002105483A
:1006F00025F01AF9606010BDA887040800000020EA
:10070000CC87040845A7010870B584B0002000908C
:1007100001900290039061495F4A0A604FF4803271
:100720004A60886001250D610D7681F82000C8625D
:100730005B4A8A62C8600624CC6181F83050486107
:10074000084616F087FC08B1FFF75EFE0526009606
:10075000019502946946514817F0CFF808B1FFF7A8
:1007600053FE00940220019069464C4817F0C5F8EA
:1007700008B1FFF749FE0720009003200190694669
:10078000464817F0BAF808B1FFF73EFE1020009077
:10079000042001906946414817F0AFF808B1FFF70F
:1007A00033FE11200090019669463C4817F0A5F8E9
:1007B00008B1FFF729FE12200090019469463748DE
:1007C00017F09BF8002801D0FFF71EFE04B070BDA3
:1007D00070B586B0064600240194029403940494F4
:1007E00005943168A1F18040B0F5903038D12D48A2
:1007F000016841F480710160006800F4807000902D
:100800002948016841F001010160006800F0010021
:100810000090E02001900320029001A9234815F0E8
:1008200079FB244D224828606C60AC60EC600015B8
:100830002861400068618000A861EC612C626C62F4
:10084000284615F0ACFD08B1FFF7DEFDB563AE63D9
:1008500000220521122016F02EF9122016F05CF964
:1008600006B070BD10B504462068A0F18041B1F516
:10087000903110D10B48016821F480710160E021B2
:100880000A4815F054FCA06B15F0FCFDBDE81040C3
:10089000122016F04FB910BD0020014014010020B5
:1008A0000100000F4438024030380240000002408E
:1008B000106402405C01002010B51649144808601D
:1008C000084617F028FD002803D0BDE81040FFF7C8
:1008D0009BBD10BD81B00068A0F18041B1F50C3125
:1008E00008D10D48016841F480510160006800F4AE
:1008F0008050009001B070470068A0F18041B1F5D0
:100900000C3104D10448016821F480510160704722
:1009100000300240080000203038024010B582B09C
:1009200000240094019440493E480860084617F0AE
:1009300056FD08B1FFF768FD1420009001940022D5
:100940006946394817F0DBFE002801D0FFF75CFD4F
:1009500002B010BD70B586B0064600240194029422
:100960000394049405943168A1F18040B0F5E84007
:100970003CD12E48016841F000510160006800F050
:10098000005000902A48016841F0010101600068B0
:1009900000F001000090102001900320029001A9B6
:1009A000244815F0B7FA254D234828604FF06060C1
:1009B00068604020A860EC60000128614000686128
:1009C0008000A8614011E8612C626C62284615F035
:1009D000E6FC08B1FFF718FDB560AE630022052103
:1009E000362016F068F8362016F096F806B070BD7E
:1009F00010B504462068A0F18041B1F5E84110D15E
:100A00000A48016821F0005101601021094815F0E1
:100A10008EFBA06815F036FDBDE81040362016F0BC
:100A200089B810BD00740040BC010020403802406D
:100A3000303802400000024088600240D0010020AF
:100A400008B51148016841F400110160016801F422
:100A500000110091016841F480010160006800F418
:100A60008000009000220521102016F024F81020AC
:100A700016F052F800220521382016F01CF8BDE8C7
:100A80000840382016F048B83038024010B55148B8
:100A90004F4901605049416000218160C1604FF4BD
:100AA0008042026141618161C161016217F033FFDF
:100AB000002803D0BDE81040FFF7A6BC10BD2DE90B
:100AC000F04387B0054600240294039404940594EF
:100AD00006942868A0F18041B1F5A8415CD13F4E51
:100AE000306840F400103060306800F4001001906D
:100AF0004FF44078CDF80880012703970320059034
:100B0000DFF8DC9002A9484615F004FA0122110230
:100B1000484615F0B4FB01225102484615F0AFFBE0
:100B200000BF00BF00BF00BF00BF00BF00BF00BFCD
:100B300000BF00BF00BF00BF00BF00BF00BF00BFBD
:100B400000BF00BF00BF00BF29684FF4004008602D
:100B500000BF00BF00BF00BF00BF2868046021487D
:100B6000016841F002010160006800F0020001909C
:100B7000CDF8088012200390049705970420069072
:100B800002A9484615F0C6F9306840F400103060FC
:100B9000306800F40010019007B0BDE8F08310B594
:100BA0000068A0F18041B1F5A8410FD10B48016860
:100BB00021F4001101600A4C8115204615F0B7FAA6
:100BC00061152046BDE8104015F0B1BA10BD000017
:100BD00000540040ECC00120A086010040380240D3
:100BE000000402403038024010B51649144808602D
:100BF00008461BF080FE002803D0BDE81040FFF738
:100C000003BC10BD81B00068A0F1A041B1F5C121C5
:100C100008D10D48016841F040010160006800F012
:100C20004000009001B070470068A0F1A041B1F50C
:100C3000C12104D10448016821F0400101607047DE
:100C400000080650300200203438024000B587B05A
:100C50000021029103910491059106910068FE49DB
:100C600002224FF40043B0F1804F2ED0A0F1804C0F
:100C7000BCF5806C16D0A0F1804CBCF5C05C0FD1E7
:100C8000086840F002000860086800F00200019067
:100C9000029303920920069002A9F04815F03AF950
:100CA00007B000BD086840F004000860086800F064
:100CB000040001904FF4E07002900392069202A9A2
:100CC000E74815F027F907B000BD086840F00100BB
:100CD0000860086800F001000190029303920492FA
:100CE0000120069002A9DF4815F014F907B000BDF5
:100CF00030B58FB000240A940B940C940D94089492
:100D0000099401940294039404940594069407941E
:100D1000D5484FF08041016060254560846041F214
:100D20008831C1600461802181611BF033FF08B10B
:100D3000FFF76AFB4FF480500A900AA9CA481EF0D8
:100D4000E4FF08B1FFF760FBC7481CF0BFFC08B127
:100D5000FFF75AFB0894099408A9C34820F0DDFA6C
:100D600008B1FFF751FB019502940394059400220A
:100D700001A9BD481EF091FB08B1FFF745FBBA4839
:100D8000FFF764FF0FB030BD10B58EB000240A9499
:100D90000B940C940D940894099401940294039478
:100DA0000494059406940794B148B04901604FF447
:100DB0009651416084606421C16004618021816139
:100DC0001BF0E8FE08B1FFF71FFB4FF480500A90BC
:100DD0000AA9A7481EF099FF08B1FFF715FBA44820
:100DE0001CF074FC08B1FFF70FFB0894099408A9E4
:100DF0009F4820F092FA08B1FFF706FB60200190AF
:100E0000029403940594002201A999481EF045FB21
:100E100008B1FFF7F9FA042201A995481EF03DFB3D
:100E200008B1FFF7F1FA082201A991481EF035FB3D
:100E300008B1FFF7E9FA8E48FFF708FF0EB010BDC2
:100E400010B582B00024009401948B488949016058
:100E50000A21416084601E21C160802181611BF0F4
:100E600099FE08B1FFF7D0FA20200090019469465E
:100E7000814820F052FA002801D0FFF7C5FA02B0ED
:100E800010BD10B57E487D490160A8214160002158
:100E900081604FF47A72C2600161802181611BF030
:100EA00079FE002803D0BDE81040FFF7ADBA10BDB1
:100EB00010B58CB00024089409940A940B94019402
:100EC0000294039404940594069407946E486D4923
:100ED00001602E21416084606421C1604FF4807103
:100EE0000161802181611BF055FE08B1FFF78CFA8A
:100EF0004FF48050089008A963481EF006FF08B11F
:100F0000FFF782FA60481CF0E1FB08B1FFF77CFABA
:100F100060200190029403940594042201A95A4888
:100F20001EF0BBFA08B1FFF76FFA5748FFF78EFEC5
:100F30000CB010BD10B556485449016054214160B1
:100F4000002181604FF47A72C26001618021816169
:100F50001BF020FE002803D0BDE81040FFF754BA74
:100F600010BD08B500684B49B0F1804F32D0A0F1F8
:100F70008042B2F5806224D0A0F18042B2F5A05246
:100F800031D0A0F18042B2F5A23235D0A0F180423A
:100F9000B2F5C05243D0A0F18042B2F5005218D150
:100FA000086840F480700860086800F48070009061
:100FB00005212D2015F07FFDBDE808402D2015F0FE
:100FC000ABBD086840F002000860086800F002004D
:100FD000009008BD086840F001000860086800F053
:100FE0000100009008BD086840F020000860086813
:100FF00000F02000009008BD2748016841F400314E
:101000000160006800F400300090002205211920E2
:1010100015F051FDBDE80840192015F07DBD0868A8
:1010200040F040000860086800F04000009008BDF3
:1010300000681849B0F1804F47D0A0F18042B2F566
:1010400080623DD0A0F18042B2F5A05242D0A0F122
:101050008042B2F5A23221E0303802400004024062
:10106000000802400000024040C10120000400408E
:1010700088C1012000140040D0C10120004401407B
:1010800018C201200018004060C20120002000406A
:10109000A8C2012040380240443802401FD0A0F1CD
:1010A0008042B2F5C05222D0A0F18042B2F5005287
:1010B0000AD1086820F4807008602D2015F03ABD30
:1010C000086820F0020008607047086820F00100FE
:1010D00008607047086820F02000086070470648E4
:1010E000016821F400310160192015F023BD086862
:1010F00020F04000086070474438024010B57D4839
:101100007B4901604FF4E131416000218160C160A1
:1011100001610C2242618161C16120F024FA002842
:1011200003D0BDE81040FFF76FB910BD10B573488C
:10113000714901604FF4E131416000218160C1607B
:1011400001610C2242618161C16120F00CFA00282A
:1011500003D0BDE81040FFF757B910BD10B569487E
:10116000674901604FF4E131416000218160C16055
:1011700001610C2242618161C16120F0F4F9002813
:1011800003D0BDE81040FFF73FB910BD30B587B0C0
:1011900000210291039104910591069101685A4B37
:1011A0005A4A5B48A1F180444FF0020CB4F59844D0
:1011B00028D00724A1F18045B5F5883547D0A1F1A5
:1011C0008045B5F588451BD1196841F40031196097
:1011D000196801F400310191116841F001011160B9
:1011E000116801F0010101910C210291CDF80CC0B0
:1011F000CDF810C001210591069402A914F08AFED1
:1012000007B030BD196841F400211960196801F474
:1012100000210191116841F001011160116801F094
:101220000101019103210291CDF80CC0CDF810C04D
:101230000821069102A914F06DFE00220521342038
:1012400015F039FC342015F067FC07B030BD31498A
:101250000B6843F010030B60096801F01001019165
:10126000116841F001011160116801F00101019163
:101270004FF4C0610291CDF80CC0069402A914F09D
:1012800049FE07B030BD10B501681F4A2048A1F1E2
:101290008043B3F5984312D0A1F18043B3F588336E
:1012A00019D0A1F18043B3F588431FD1116821F40F
:1012B00000311160BDE810400C2114F038BF1168F6
:1012C00021F400211160032114F031FFBDE810402A
:1012D000342015F02FBC0F490A6822F010020A6072
:1012E000BDE810404FF4C06114F021BF10BD0000F4
:1012F000004C004040020020001001408802002005
:1013000000440040D0020020403802403038024003
:10131000000002404438024014F06AFAFEE7FEE79B
:10132000FEE7FEE7FEE7704770470D4815F05ABA32
:101330000C4816F0EEB80C481DF009BE0B481DF025
:1013400006BE0B481DF003BE0A4821F057B90A48F3
:1013500017F07BB9094815F045BA094812F073BA7D
:10136000D00100201401002018C201201803002021
:10137000A8C2012040020020BC0100205C01002026
:101380009840012008B51048016841F4804101608F
:10139000006800F4804000900C48016841F08051E2
:1013A0000160006800F08050009000220F21901E24
:1013B00015F081FB05210022084615F07CFBBDE8F5
:1013C0000840052015F0A8BB4438024040380240D0
:1013D00030B587B0054600242548016841F08001FA
:1013E0000160006800F08000009001A902A814F0DC
:1013F000E4F90598A8B114F064F940001D49B0FB68
:10140000F1F0411E1D481C4A026040F2E732C26002
:1014100041600461846084611BF0BCFB04461CB124
:1014200015E014F04EF9E9E714481BF063FC04469C
:101430006CB92C2015F070FB102D07D20022294624
:101440002C2015F038FB0E48056000E0012407B0A1
:10145000204630BD09480068C16821F00101C16023
:10146000704706480068C16841F00101C1607047DB
:101470004038024040420F00001C0040180300208A
:1014800058C001202348016841F4700101602349DC
:1014900021480860704730B4214C206800F00C00EF
:1014A000204D2149002811D0DFF880C004280FD03A
:1014B000082810D00D602068C0F303121C48805C1F
:1014C0000A6822FA00F0086030BC70470D60F2E74D
:1014D000C1F800C0EFE7174A1068C0F380531068E6
:1014E00000F03F0033B1BCFBF0F01368C3F3881386
:1014F000584305E0B5FBF0F01368C3F38813584375
:101500001268C2F30142521C5200B0FBF2F00860B4
:10151000D1E7000088ED00E00000010808ED00E0E0
:10152000083802400024F40000C0012040787D010A
:10153000F08704080438024030B40022DFF8BCC051
:1015400000290FD92E4C10F8015BBCF8003085EA59
:10155000132534F8155085EA0323ACF80030521CEB
:101560008A42F0D3BCF800004FF6FF7130BC48400F
:101570007047224A224B118880EA112033F810006C
:1015800080EA012080B210804FF6FF71484070471A
:101590001A494FF6FF700880704718490880704755
:1015A00030B40022DFF854C000290ED9154C855CF8
:1015B000DCF804305D40EDB254F8255085EA132381
:1015C000CCF80430521C8A42F1D3DCF8040030BC61
:1015D000C0437047094A0B4B51684840C0B253F8AA
:1015E000200080EA11205060C043704703494FF04B
:1015F000FF304860704701494860704704C00120CF
:1016000008880408088A040870477047FEE745F612
:101610007F31884200D9FEE77047B0F5B76F00D33D
:10162000FEE7704730B585B04FF43761F64833F0C8
:10163000A5FD4022F449002001F0CAFD04A941F6AD
:10164000645001F03DFD1022EF49F04816F0A7FE6E
:101650000546ED4C4FF4806204F14001202001F07A
:10166000B7FD03A941F6685001F02AFD4FF48072DE
:1016700004F14001E54816F092FE0446E2494FF4B9
:10168000376201F5376033F0FAFC04980090E04BC4
:101690004322E0A10195E3A033F030FA03980090D3
:1016A000DB4B4422DBA10194EBA033F027FA049832
:1016B000A8420AD00398A04207D0D54B4622D5A114
:1016C000F2A033F01BFA05B030BDD14B4922D1A1B5
:1016D000F7A033F013FA05B030BD10B584B0402246
:1016E000C949002001F0CEFD1022C749C74816F0B5
:1016F00056FE039003A941F6645001F046FDC24C2A
:101700004FF4806204F14001202001F0BBFD4FF452
:10171000807204F14001BD4816F041FE029002A91A
:1017200041F6685001F031FD029903980191009053
:10173000E74B5622B7A1E7A033F0E0F904B010BDA3
:101740002DE9F04383B00025AF4C04F53767002640
:1017500020783978884205D02146304601F0D2FC05
:1017600045F0FF05641C7F1C701C86B2402EEFD331
:1017700055B11022A449A54816F011FE029002A905
:1017800041F6645001F001FD0026DFF87C9209F17A
:10179000400709F53B680024387898F80010884223
:1017A00007D004F1200080B2394601F0ABFC46F0CE
:1017B000FF067F1C08F10108601C84B2B4F5806F3D
:1017C000EAD366B14FF4807209F140018F4816F0F8
:1017D000E6FD019001A941F6685001F0D6FC8A4966
:1017E0004FF4376201F5376033F049FC3DB10298A0
:1017F0000090C74B7F2287A1C6A033F07FF9002E4F
:1018000007D001980090C24B822282A1CEA033F073
:1018100075F903B0BDE8F08310B5FFF7F6FE0220BE
:1018200001F0C3FD4FF43761774833F0A7FC4FF464
:101830003761D24833F0A2FCFFF7E6FEBDE8104066
:10184000CF4B8B2273A1CFA033F058B910B5FFF75F
:10185000DCFE4FF48052D3494FF4087001F0B8FC1D
:10186000FFF7D2FE38B1BDE81040CF4B932269A1FB
:10187000CEA033F043B9BDE81040CB4B962265A112
:10188000D3A033F03BB910B5FFF7BFFE4FF4805241
:10189000C4494FF4087001F0F5FC30B1D44B9E22DE
:1018A0005CA1D4A033F02AF905E0D14BA12259A1C3
:1018B000D8A033F023F9BDE81040A5E610B5FFF736
:1018C000A4FE032001F071FD4FF48051B54833F0C0
:1018D00055FCD84BA9224FA1D7A033F00FF9BDE892
:1018E000104091E610B5FFF790FE052001F05DFD78
:1018F000DA4BAF2247A1D0A033F000F9BDE8104089
:1019000082E610B5FFF781FE062001F04EFDD44BB4
:10191000B52240A1D3A033F0F1F8BDE8104073E642
:1019200070B545F2826000F094FB00286AD045F261
:10193000B16000F068FB344D47F6FF76002458B1E3
:10194000A5F8946AA5F8924A45F2B16000F031FB1F
:1019500045F2B06000F02DFBB5F9940AB5F9921A82
:1019600088420EDBA5F8944AB5F88C0AA5F88E0AD1
:10197000B5F8900AA5F8920A45F2B06000F006FBAF
:101980000EE0B5F98E1A884207D1401CA5F8940ADA
:1019900045F2B06000F00DFB02E0401CA5F8940A8F
:1019A00045F2B36000F02FFB58B1A5F89E6AA5F888
:1019B0009C4A45F2B36000F0FCFA45F2B26000F0D8
:1019C000F8FAB5F99E0AB5F99C1A88420EDBA5F81B
:1019D0009E4AB5F8960AA5F8980AB5F89A0AA5F8A5
:1019E0009C0A45F2B26000F0D1FA50E1B5F9981ABC
:1019F000884208D1401CA5F89E0A45F2B26000F06A
:101A0000D8FA44E1AFE13FE1600300200800002084
:101A1000088E04082E2E5C73506C635C73506C63EC
:101A20002E63000025732C25642C25733A4D52201B
:101A30004550524F4D204352433A30782530385864
:101A40002C4D522043414C43204352433A30782599
:101A50003038580A0000000025732C25642C2573AB
:101A60003A444D204550524F4D204352433A30782E
:101A7000253038582C444D2043414C432043524399
:101A80003A3078253038580A0000000025732C259C
:101A9000642C25733A6C6F6164204E5652414D2080
:101AA000637263206661696C2E2E2E0A00000000AE
:101AB00025732C25642C25733A6C6F6164204E5677
:101AC00052414D20646F6E652E2E2E0A00000000DC
:101AD000168E040825732C25642C25733A736176C1
:101AE00065204E5652414D20646F6E652E2E2E2875
:101AF0004D52204352433A3078253038582C444DCB
:101B0000204352433A307825303858290A000000E3
:101B1000248E040825732C25642C25733A75706473
:101B2000617465204D52204E5652414D20646F6EB7
:101B3000652E2E2E284D52204352433A30782530C0
:101B40003858290A0000000025732C25642C2573C1
:101B50003A75706461746520444D204E5652414D73
:101B600020646F6E652E2E2E28444D204352433A3A
:101B7000307825303858290A00000000D00E0020A7
:101B8000348E040825732C25642C25733A636C6508
:101B90006172204E5652414D20646F6E652E2E2E7E
:101BA0000A000000401A0020438E040825732C25EB
:101BB000642C25733A6C6F6164204644204E565263
:101BC000414D20637263206661696C2121210A0006
:101BD00025732C25642C25733A6C6F616420464470
:101BE000204E5652414D20646F6E652E2E2E0A00F7
:101BF000518E040825732C25642C25733A73617665
:101C000065204644204E5652414D206661696C2E37
:101C10002E2E0A0025732C25642C25733A736176C9
:101C200065204644204E5652414D20646F6E652E0D
:101C30002E2E0A005F8E040825732C25642C257334
:101C40003A636C656172204644204E5652414D20E5
:101C5000646F6E652E2E2E0A000000006E8E040842
:101C6000848E040825732C25642C25733A636C65D7
:101C7000617220646576696365206C6F6720646FAC
:101C80006E652E2E2E0A0000401CA5F89E0A45F215
:101C9000B56000F0B8F958B1A5F8A86AA5F89C4A53
:101CA00045F2B56000F085F945F2B46000F081F9C5
:101CB000B5F9A80AB5F9A61A88420EDBA5F8A84A14
:101CC000B5F8A00AA5F8A20AB5F8A40AA5F8A60ACC
:101CD00045F2B46000F05AF90EE0B5F9A21A884254
:101CE00007D1401CA5F8A80A45F2B46000F061F9DC
:101CF00002E0401CA5F8A80A45F2B76000F083F99D
:101D000058B1A5F8B26AA5F8B04A45F2B76000F03C
:101D100050F945F2B66000F04CF9B5F9B20AB5F9E0
:101D2000B01A88420FDBA5F8B24AB5F8AA0AA5F89E
:101D3000AC0AB5F8AE0AA5F8B00ABDE8704045F2A5
:101D4000B66000F023B9B5F9AC1A884208D1401C3E
:101D5000A5F8B20ABDE8704045F2B66000F029B9B6
:101D6000401CA5F8B20A70BD38B5634B40F21112A1
:101D7000AFF2603161A032F0C1FE01F0CDFA0FF098
:101D800098FB09F076F8FFF74DFCFFF75FFD03F0D5
:101D9000E4F8614CA06003F0EDF8E060A068564BF9
:101DA0004FF48E72AFF2943100905CA032F0A6FE38
:101DB000E068514B40F21D12AFF2A83100905FA0D5
:101DC00032F09CFE4FF4AD4000F0E0F845F2816047
:101DD00000F0DCF801F0AAFE01F088FF01F028F81D
:101DE00000F0C6FD02F0DBF803F0D8F803F0F3FAD8
:101DF000042159481BF030FD002157481BF02CFDF1
:101E0000082155481BF028FD45F2032000F0D1F8C9
:101E1000524A0A23504992F93F00002801DD642804
:101E200002DD0868436303E0D1F800C0CCF8340059
:101E300092F93E00002801DD642802DD0868836312
:101E400003E0D1F800C0CCF8380092F94000002837
:101E500001DD642802DD0868C36338BD0968C86312
:101E600038BD70B52C4D0024287800280ED045F2DE
:101E7000826000F0B1F82C70394947F6FF72B1F971
:101E8000C40A904202DA401CA1F8C40A687820B162
:101E900045F2846000F0A0F86C70A87820B145F29B
:101EA000856000F099F8AC70E87820B145F2866062
:101EB00000F092F8EC70287920B145F2876000F0CC
:101EC0008BF82C71687920B145F2886000F084F8B5
:101ED0006C7101F038FEFFF723FDBDE8704000F0A3
:101EE0006ABD10B501F02CFFFFF72AFCBDE81040D9
:101EF00045F2816000F05DB8978E040825732C25AB
:101F0000642C25733A7374617274204170702E2EA4
:101F10002E2E2E2E0A00000014C0012025732C2521
:101F2000642C25733A626F6F746C6F616420637206
:101F3000633A3078253038580A00000025732C2584
:101F4000642C25733A617070206372633A3078258F
:101F50003038580A0000000088C10120F84F0020E6
:101F60006003002000000000012080F31388BFF30D
:101F70004F8FFD480168FD4A01F4E06111430160A3
:101F8000BFF34F8F00BFFDE77047704710B50446A1
:101F90002046FFF73CFBF648210904F00F0330F818
:101FA00011204FF0010C0CFA03F31A4320F8112012
:101FB00010BD10B504462046FFF729FBEC48210967
:101FC00004F00F0330F811204FF0010C0CFA03F36A
:101FD0009A4320F8112010BD10B504462046FFF7A3
:101FE00016FBE349200931F9100004F00F01084104
:101FF00000F0010018B12046BDE81040D9E72046A6
:10200000BDE81040C2E710B504462046FFF7FFFACE
:10201000D749200931F9100004F00F01084100F000
:10202000010008B1012010BD002010BD10B504460C
:102030002046FFF7ECFACE49200931F9100004F0F0
:102040000F01084100F0010008B1002010BD01207F
:1020500010BD10B504462046FFF7D9FAC44821093F
:1020600030F9112004F00F00024102F00102C14BCF
:1020700033F9111041FA00F000F0010002B108B18B
:10208000002010BD012010BD10B504462046FFF70A
:10209000BEFAB748210930F9112004F00F000241BF
:1020A00002F00102B34B33F9111041FA00F000F0D5
:1020B00001000AB9012801D0002010BD012010BD87
:1020C0002DE9F041904600F00F034FF0010C40F273
:1020D00044420CFA03F5A64F00F5936602EB101488
:1020E000002915D000F58A40FFF750FF37F9160098
:1020F000404506DB37F81400284327F81400BDE8F4
:10210000F08137F81400A84327F81400BDE8F081E7
:1021100000F58A40FFF74DFF37F81400A84327F871
:102120001400002027F81600BDE8F0812DE9F041E9
:10213000904644F24052831800F00F0C01224FF4F5
:10214000896402FA0CF58A4F00F59B6604EB1014C3
:10215000002914D01846FFF719FF37F9160040453B
:1021600006DB37F81400284327F81400BDE8F08197
:1021700037F81400A84327F81400BDE8F08118468A
:10218000FFF717FF37F81400A84327F814000020C2
:1021900027F81600BDE8F08110B504462046FFF789
:1021A0003CFA734A002122F8141010BD70B50546A0
:1021B0002846FFF732FA6C1CA0B2FFF72EFA6C48E3
:1021C000002120F8151020F8141070BD70B50546D8
:1021D0000C462846FFF721FA2046FFF71EFA64480E
:1021E00030F8141020F8151070BD2DE9F0410746A5
:1021F0000E463846FFF711FA7C1CA0B2FFF70DFA25
:102200003046FFF70AFA751CA8B2FFF706FA5848DD
:1022100030F8161020F8171030F8151020F81410A8
:10222000BDE8F081524B33F910C033F912209445C8
:1022300001DB23F8102033F9102033F911108A4202
:1022400001DC23F81010704770B505460E4628468D
:10225000FFF7E3F93046FFF7E0F9454C0020A4F81A
:10226000F00A40F6FF70A4F8F20A40F27952511ECB
:102270003046FFF7D7FFB4F86E0A10B90120A4F872
:102280006E0A34F916000A2824DB3B490988DFED81
:102290003B0A00EE101ADFED3A1AB8EE400A20EEC3
:1022A000201A00EE100AB4F96E0AB8EEC00A21EE48
:1022B000001A00EE100AB8EEC00A60EE211A81EE94
:1022C000210A9FED301A20EE011A70EEC00A81EE4D
:1022D000200A01E09FED2C0A9FED2C1AC0EE010AA6
:1022E00010EE900A36F062F941EC100B35F0A0F8D0
:1022F0009FED271B51EC100B53EC112B35F02CFFED
:102300009FED251B53EC112B35F012FC41EC100B0B
:1023100053EC102B9FED220B51EC100B35F0C4FC4D
:102320009FED211B53EC112B36F056F835F0CEFB08
:1023300000EE100A1E4910EE100A884201DB9FEDE4
:102340001D0A1D4910EE100A884201D39FED1B0A99
:10235000F2EE040A20EE200ABDEEC00A10EE100ACA
:1023600024F8150070BD00000CED00E00400FA0533
:1023700060030020D00E00202A7AFF1F00404E4547
:102380000000804500E09245CDCCCC3D00401C468D
:10239000000000E032D9323F000000E0E1796B3FFD
:1023A000000000000000F03F66666666661271403D
:1023B0000000C8420000C8420000C8C20000C8C2F5
:1023C000FC4A12885FED130A00EE102AFA4A1FED4C
:1023D000141AB8EE400A32F9111060EE200A00EE2D
:1023E000101AB2F96E1AB8EEC00A60EE800A00EE5A
:1023F000101AB8EEC00A20EE011A80EE810ADFED55
:10240000EF0AB0EE041A30EE600AC0EE010AB3EE35
:10241000090A30EE800AEA4B10EE101A994201DBED
:102420001FED1C0AE74B10EE101A994201D3BBEEC8
:10243000090AF2EE040A20EE200ABDEEC00A10EEF0
:10244000101A22F810107047DB4931F81020521C86
:1024500021F810207047D84A47F6FF7332F9101060
:10246000994202DA491C22F810107047D24931F81B
:102470001020521E21F810207047CF4A32F9101058
:1024800011F5004F02DD491E22F810107047CA49AD
:1024900001EB40000168491C01607047C64901EB2F
:1024A00040006FF000420168914201D0491C016078
:1024B0007047C14901EB40000168491E0160704747
:1024C000BD4901EB40000168B1F1004F01DD491E3B
:1024D00001607047B84B33F8100033F8111008440E
:1024E00023F812007047B44B33F9100033F9111080
:1024F000084447F6FF71884200DB084610F5004F9C
:1025000000DCB14823F812007047AB4B53F81000C1
:1025100053F81110084443F81200704710B4A64B4A
:1025200053F8100053F811100844C1176FF0004C15
:10253000B0EB0C0C71F1000C02DB6FF000400021DD
:102540004FF0FF34D0F1004C74EB010100DBE007E9
:1025500043F8120010BC704710B4974B53F81000AA
:1025600053F811100844C1176FF0004CB0EB0C0C7D
:1025700071F1000C02DB6FF0004000214FF0FF34DE
:10258000D0F1004C74EB010100DBE00743F81200CE
:1025900010BC7047884B33F8100033F81110401A04
:1025A00023F812007047844B33F9100033F91110EF
:1025B000401A47F6FF71884200DB084610F5004FCD
:1025C00000DC814823F8120070477B4A52F8100063
:1025D00052F81110401AC1176FF00042821A71F1BF
:1025E000000202DB6FF0004000214FF0FF33D0F11A
:1025F000004073EB010070476F4B33F8100033F865
:10260000111010FB01F023F8120070476A4B33F8E9
:10261000100033F8111010FB01F047F6FF718842EB
:1026200000DB084610F5004F00DC674823F8120075
:102630007047614B00F1010C33F81CC04FEA0C4CA1
:1026400033F9100040EA0C0001F1010C33F81CC012
:102650004FEA0C4C33F9111041EA0C01484323F8BE
:1026600012000014511C23F81100704730B44FF0D1
:10267000000C0023504C34F91110002907DDC51857
:1026800034F91550AC445B1C9BB29942F7DC44F81A
:1026900012C030BC704770B400239C46464C34F9DD
:1026A0001150002D0ADDC11834F91160664501DDB5
:1026B00034F811C0591C8BB29D42F4DC24F812C0CE
:1026C00070BC704770B400239C463B4C34F91150E9
:1026D000002D0ADDC11834F91160664501DD34F8BA
:1026E00011C0591C8BB29D42F4DC24F812C070BC9E
:1026F000704730B400239C462F4C34F91150002D04
:1027000009DDC11834F91110614500DD8C46591CF2
:102710008BB29D42F5DC24F812C030BC704730B457
:1027200000239C46244C34F91150002D09DDC118BA
:1027300034F91110614500DD8C46591C8BB29D4265
:10274000F5DC24F812C030BC70471B4A32F9111076
:10275000002902DB22F810107047494222F81010BD
:102760007047154A32F91110002902DB22F81010C7
:102770007047494222F8101070470F4B33F8111080
:10278000CAB2C1F30721114323F81010704730B4C7
:102790000023002A0BD9DFF820C0CC18C5183CF85C
:1027A00014402CF815405B1C9BB29342F5D330BC0F
:1027B000704700002A7AFF1F6003002000003E449B
:1027C0000000C8420000C8C10080FFFF10B5FEF73E
:1027D0001CFFFEF782FFBDE81040FEF715BF10B5E5
:1027E000FEF713FFFEF7ACFFBDE81040FEF70CBF8D
:1027F00010B5FEF70AFFFEF715FFBDE81040FEF723
:1028000003BF10B5FEF701FFFFF73DF8BDE810402C
:10281000FEF7FABE10B50446FEF7F7FE1F2C00DDEA
:102820001F24002C00DA00242648802200EBC4116B
:102830004FF4087000EBC41080B200F023FD224B6F
:102840004FF4E07221A126A032F058F9BDE8104003
:10285000FEF7DABE10B5FEF7D8FEFEF7F7FFBDE8CB
:102860001040FEF7D1BE70472DE9F04105460E46F7
:1028700024A032F043F9294832F040F9284832F0D8
:102880003DF925F00F042E44A64218D9254D0F27F7
:1028900014F00F0F04D124F00F0123A032F02EF911
:1028A00035F9141022A032F029F937EA040002D1D8
:1028B00021A032F023F9601C84B2A642E8D8BDE81A
:1028C000F0810000401A0020A08E04082E2E5C73B8
:1028D000506C635C73506C6346756E2E6300000031
:1028E00025732C25642C25733A73617665204F6E11
:1028F00065204644204E5652414D20646F6E652E31
:102900002E2E0A004E5652414D204D454D4F5259E4
:10291000205441424C453A0A00000000049B040840
:102920005C9B0408600300202535643A0000000029
:102930002C253034580000000A00000038B5044649
:1029400000944FF47A730122694608481EF08DFF07
:10295000204638BD08B564230122694603481EF0AD
:10296000E2FF9DF8000008BD704770478802002014
:1029700010B58A49002008706021894832F0FEFBBA
:102980006021884832F0FAFB30228549864814F0ED
:10299000ACFEBDE81040854B0D2285A18AA032F027
:1029A000ADB80068A0F18041B1F5903102D17B490A
:1029B000012048707047F0B52DED028B87B0774F3E
:1029C00078780028FCD000267E703878864DB4EEEA
:1029D000008A6C46002871D0734814F053FF3022EF
:1029E0006F49714814F081FE3E7000960196029680
:1029F00003960496059600206A4A002101EB410CDB
:102A000000EB4C0C54F8203032F81CC0634444F8FE
:102A10002030491CC9B20829F0D3401CC0B2062896
:102A2000EBD39DED000AB8EE400A20EE080ABCEE9A
:102A3000C00A10EE100AA5F8660A9DED010AB8EE6C
:102A4000400A20EE080ABCEEC00A10EE100AA5F8F3
:102A5000680A9DED020AB8EE400A20EE080ABCEEB4
:102A6000C00A10EE100AA5F86A0A9DED030AB8EE36
:102A7000400A20EE080ABCEEC00A10EE100AA5F8C3
:102A80006C0A9DED040AB8EE400A20EE080ABCEE7E
:102A9000C00A10EE100AA5F86E0A9DED050AB8EE00
:102AA000400A20EE080ABCEEC00A10EE100AA5F893
:102AB000700A07B0BDEC028BF0BDFFE73A4814F096
:102AC000E1FE30223749384814F00FFE01203870FB
:102AD0000096019602960396049605960020304AC9
:102AE000002101EB410C00EB4C0C54F8203032F883
:102AF0001CC0634444F82030491CC9B20829F0D3F3
:102B0000401CC0B20628EBD39DED000AB8EE400A87
:102B100020EE080ABCEEC00A10EE100AA5F8660AFC
:102B20009DED010AB8EE400A20EE080ABCEEC00A8C
:102B300010EE100AA5F8680A9DED020AB8EE400AE8
:102B400020EE080ABCEEC00A10EE100AA5F86A0AC8
:102B50009DED030AB8EE400A20EE080ABCEEC00A5A
:102B600010EE100AA5F86C0A9DED040AB8EE400AB2
:102B700020EE080ABCEEC00A10EE100AA5F86E0A94
:102B80009DED050AB8EE400A20EE080ABCEEC00A28
:102B900010EE100AA5F8700A8BE70000180000205C
:102BA000F0C2012050C3012014010020AA8E0408A5
:102BB0002E2E5C73506C63506F72745C73506C6338
:102BC0004164632E6300000025732C25642C25735B
:102BD0003A73746172742061646320696E69742E43
:102BE0002E2E2E2E2E0A00006003002070B5044603
:102BF000D64E00221021304613F041FBC4F30B00E7
:102C000040F4805040F4005500BF00BF00BF00BF3B
:102C100000BF00BF00BF00BF00BF00BF0024C4F161
:102C20000F0025FA00F000F001020421304613F0F5
:102C300026FB00BF00BF00BF00BF00BF00BF00BF3A
:102C400000BF00BF00BF01220821304613F017FB70
:102C500000BF00BF00BF00BF00BF00BF00BF00BF7C
:102C600000BF00BF00220821304613F008FB00BF60
:102C700000BF00BF00BF00BF00BF00BF00BF00BF5C
:102C800000BF601CC4B2102CC9D300BF00BF00BF7E
:102C900000BF00BF00BF00BF00BF00BF00BF0122D8
:102CA0003046BDE87040102113F0E9BA70B5044613
:102CB000A64E00220121304613F0E1FAC4F30B00C6
:102CC00040F4805040F4005500BF00BF00BF00BF7B
:102CD00000BF00BF00BF00BF00BF00BF0024C4F1A1
:102CE0000F0025FA00F000F001024FF48041304659
:102CF00013F0C5FA00BF00BF00BF00BF00BF00BF98
:102D000000BF00BF00BF00BF0122D103304613F057
:102D1000B6FA00BF00BF00BF00BF00BF00BF00BFCA
:102D200000BF00BF00BF00224FF40041304613F047
:102D3000A6FA00BF00BF00BF00BF00BF00BF00BFBA
:102D400000BF00BF00BF601CC4B2102CC7D300BFBF
:102D500000BF00BF00BF00BF00BF00BF00BF00BF7B
:102D600000BF01223046BDE87040114613F087BA1B
:102D700070B50446764E00228021304613F07FFA6B
:102D8000C4F30B0040F4805040F4005500BF00BF76
:102D900000BF00BF00BF00BF00BF00BF00BF00BF3B
:102DA0000024C4F10F0025FA00F000F001022021F8
:102DB000304613F064FA00BF00BF00BF00BF00BF81
:102DC00000BF00BF00BF00BF00BF0122402130464E
:102DD00013F055FA00BF00BF00BF00BF00BF00BF27
:102DE00000BF00BF00BF00BF00224021304613F0EB
:102DF00046FA00BF00BF00BF00BF00BF00BF00BF5A
:102E000000BF00BF00BF601CC4B2102CC9D300BFFC
:102E100000BF00BF00BF00BF00BF00BF00BF00BFBA
:102E200000BF01223046BDE87040802113F027BA70
:102E300070B5464C01221021204613F020FA0122E1
:102E40001146204613F01BFA414D012280212846ED
:102E500013F015FA01220821284613F010FA002277
:102E60000821204613F00BFA00224FF400412046BF
:102E700013F005FA00224021284613F000FA002240
:102E80000421344813F0FBF900BF00BF00BF00BFAE
:102E900000BF00BF00BF00BF00BF00BF00BF00BF3A
:102EA00000BF00BF00BF00BF00BF00BF00BF00BF2A
:102EB0000020FFF79BFE0020FFF7F8FE0020FFF741
:102EC00057FF254B482225A12AA031F017FEBDE867
:102ED0007040214B492221A12EA031F00FBE38B500
:102EE0003348B0F8780AC0F30B042046FFF77EFEA3
:102EF000304B4F2219A130A0009431F0FFFD38BDB6
:102F000038B52B48B0F87A0AC0F30B042046FFF717
:102F1000CDFE2046FFF72CFF2E4B56220FA12EA0F0
:102F2000009431F0EBFD38BD10B50020FFF75EFED8
:102F30000020FFF7BBFE0020FFF71AFFBDE810409E
:102F40002C4B5D2205A12CA031F0D8BD0008024019
:102F500000040240000C0240CA8E04082E2E5C734E
:102F6000506C63506F72745C73506C634461632E79
:102F70006300000025732C25642C25733A696E6963
:102F8000742064616320767265663D323034386D3A
:102F9000560A000025732C25642C25733A696E6946
:102FA000742064616320646F6E65210A0000000074
:102FB00060030020BC8E040825732C25642C257327
:102FC0003A75706461746520646163303D25640AFC
:102FD00000000000C38E040825732C25642C257383
:102FE0003A75706461746520646163313D25640ADB
:102FF00000000000B68E040825732C25642C257370
:103000003A636C65617220616C6C20646163210AB3
:103010000000000010B40023002A0BD910F803C0F0
:10302000CC5CA44502D010BC002070475B1C9BB256
:103030009342F3D310BC0120704700B583B0B0F5C4
:10304000005F02D3012003B000BD4FF47A734FF04C
:10305000010C029300910246CDF804C01023A12177
:10306000FA4817F0F1F90028EDD0F84815F021FDE5
:1030700003B0F6485DF804EB15F04DBC00B583B025
:10308000431CB3F5005F02D3012003B000BD4FF431
:103090007A734FF0020C029300910246CDF804C0FF
:1030A0001023A121E94817F0CFF90028EDD0E74817
:1030B00015F0FFFC03B0E5485DF804EB15F02BBC00
:1030C00000B583B0C31CB3F5005F02D3012003B089
:1030D00000BD4FF47A734FF0040C02930091024646
:1030E000CDF804C01023A121D84817F0ADF900286D
:1030F000EDD0D64815F0DDFC03B0D4485DF804EB04
:1031000015F009BC00B583B0B0F5005F02D3012013
:1031100003B000BD4FF47A734FF0010C029300919D
:103120000246CDF804C01023A021C84817F02FF89C
:103130000028EDD0C54815F0BCFC03B0C3485DF8CD
:1031400004EB15F0E8BB00B583B0431CB3F5005F9A
:1031500002D3012003B000BD4FF47A734FF0020C8C
:10316000029300910246CDF804C01023A021B74875
:1031700017F00DF80028EDD0B44815F09AFC03B014
:10318000B2485DF804EB15F0C6BB00B583B0C31CB4
:1031900041F6FF7C634502D3012003B000BD4FF42C
:1031A0007A734FF0040C029300910246CDF804C0EC
:1031B0001023A021A54816F0EAFF0028EDD0A3486F
:1031C00015F077FC03B0A1485DF804EB15F0A3BB44
:1031D00070B588B003460C4603EB020CBCF5005FEB
:1031E00002D9012008B070BD4FEAD20CCDF818C04A
:1031F00002F007020592079300210491BDF8102008
:10320000BDF818104FF47A758A4220D2082602952C
:10321000BDF81C20102301960094A1218B4817F0C3
:1032200013F928B1894815F044FC884815F073FB60
:10323000BDF81C10083107910834BDF81010491C66
:103240000491BDF81010BDF818209142DFD3BDF8ED
:1032500014100029C6D0BDF814000295BDF81C203A
:10326000102300940190A121784817F0EDF8002870
:10327000B8D0764815F01DFC08B07448BDE8704021
:1032800015F049BB2DE9F04784B006460C46B1184D
:10329000B1F5005F03D9012004B0BDE8F087D7087D
:1032A00002F0070800254FF47A79002F1BD94FF060
:1032B000080A10233246A0216448CDF804A0CDF8B6
:1032C0000890009416F063FF28B1604815F0F1FBF8
:1032D0005E4815F020FB06F108018EB20834691C27
:1032E0008DB2BD42E5D3B8F1000FD5D010233246E0
:1032F000A0215648CDF80890CDF80480009416F02F
:1033000046FF0028C8D0514815F0D3FB04B04F4801
:10331000BDE8F04715F0FFBA10B520231F220021A9
:103320004BA031F0EBFB4FF4007340F21F22202141
:1033300050A031F0E3FB4FF4006340F61F224FF43E
:10334000087155A031F0DAFB41F66752D11E5BA03F
:1033500031F0D4FB41F66B52D11E60A031F0CEFBB0
:1033600041F66F52D11E65A031F0C8FB41F6735291
:10337000D11E6CA031F0C2FB41F67752D11E71A074
:1033800031F0BCFB4FF4007341F67F724FF4EC5107
:1033900074A031F0B3FBBDE81040802341F6FF720A
:1033A0004FF4FC5179A031F0A9BB38B50021009150
:1033B00007280ED2DFE800F00D040E34FFFE4900AE
:1033C0000024A0B26946FFF79DFE641CB4F5005FBF
:1033D000F7D338BD0024A0B26946FFF793FE641C02
:1033E0001F2CF8D92024A0B26946FFF78BFE641C7D
:1033F000B4F5087FF7D341F66454E51CA0B26946E2
:10340000FFF780FE641CAC42F8D941F66854E51C15
:10341000A0B26946FFF776FE641CAC42F8D938BD0D
:103420004FF40874A0B26946FFF76CFE641CB4F553
:10343000226FF7D341F66C54E51CA0B26946FFF742
:1034400061FE641CAC42F8D938BDD5E0ECC0012067
:103450004D52204550524F4D3A3078253034582D3A
:103460002D2D3078253034582873697A653A2564D3
:10347000290A0000444D204550524F4D3A307825DE
:103480003034582D2D2D3078253034582873697AF2
:10349000653A2564290A00004644204550524F4DA4
:1034A0003A3078253034582D2D2D30782530345849
:1034B0002873697A653A2564290A00004D52204331
:1034C0005243204550524F4D3A3078253034582DD4
:1034D0002D2D3078253034580A000000444D20430B
:1034E0005243204550524F4D3A3078253034582DB4
:1034F0002D2D3078253034580A00000046442043F2
:103500005243204550524F4D3A3078253034582D93
:103510002D2D3078253034582C28756E757365291B
:103520000A0000004D435520435243204550524F5E
:103530004D3A3078253034582D2D2D3078253034C3
:10354000580A00004C434420435243204550524FF8
:103550004D3A3078253034582D2D2D3078253034A3
:10356000580A0000434F4E464947204550524F4DA0
:103570003A3078253034582D2D2D30782530345878
:103580002873697A653A2564290A00004C4F474937
:103590004E464F204550524F4D3A307825303458E2
:1035A0002D2D2D3078253034582873697A653A25C9
:1035B00064290A0015E0FFE741F67054E51CA0B24B
:1035C0006946FFF79FFD641CAC42F8D941F674547C
:1035D000E51CA0B26946FFF795FD641CAC42F8D922
:1035E00038BD4FF4EC54A0B26946FFF78BFD641C64
:1035F000B4F5FC5FF7D338BD4FF4FC54A0B2694674
:10360000FFF780FD641CB4F5005FF7D338BD0022DE
:10361000002907D9835CFF2B01D000207047521C82
:103620008A42F7D3012070472DE9F047A2B0002667
:10363000C84D2868816841F0010181600024E84696
:10364000C54819F0E7F90090A0B26946FFF75AFDA6
:10365000601C80B208F10101FFF754FDA01C80B28C
:1036600008F10201FFF74EFDE01C80B208F10301F2
:10367000FFF748FD01226946B64814F07BFE8146FB
:10368000241DB4F5005FDBD32868816841F0010197
:103690008160002401AFA0B201A9FFF7CEFC601C3D
:1036A00080B2791CFFF7C9FCA01C80B2B91CFFF7DF
:1036B000C4FCE01C80B2F91CFFF7BFFC012201A989
:1036C000A44814F057FE241DB4F5005FE3D3484529
:1036D00007D1A24B4FF4A572A1A1A7A031F00EFA19
:1036E00007E09E4B40F24D129DA1AFA031F006FACB
:1036F00000262868816841F0010181600024964815
:1037000019F088F90090A0B26946FFF71CFDA01CD3
:1037100080B208F10201FFF716FD012269468D48CB
:1037200014F028FE8146241DB4F5005FE7D3286815
:10373000816841F0010181600024A0B201A9FFF776
:103740009DFCA01C80B2B91CFFF798FC012201A9C6
:10375000804814F00FFE241DB4F5005FEDD34845FA
:1037600007D17E4B40F25F127DA19BA031F0C6F9DC
:1037700007E07A4B4FF4B17279A1A3A031F0BEF902
:1037800000262868816841F001018160002441F62B
:10379000FC77714819F03EF90090A0B26946FFF736
:1037A000F4FC012269466B4814F0E4FD8046241DB8
:1037B000BC42EED32868816841F001018160002499
:1037C000A0B201A9FFF77CFC012201A9614814F015
:1037D000D1FD241DBC42F3D3404507D15F4B4FF4CC
:1037E000B9725FA194A031F089F907E05B4B40F218
:1037F00075125BA19CA031F081F900264FF0800981
:103800004FF0000A00250024EAB2402102A831F05E
:10381000ADFC129413941494159416941794189460
:1038200019941A941B941C941D941E941F94209414
:10383000219409EB85181FFA88F0402202A9FFF7AE
:1038400021FD1FFA88F0402212A9FFF7C1FC402297
:1038500012A912A8FFF7DEFB38B9404B40F28112E3
:103860003FA18DA031F04AF900266D1C4D45CBD308
:10387000FCF790FD924B01462246C3FB0020C2118B
:10388000A2EBE070A0EB00204218402102A831F02A
:103890006DFC129413941494159416941794189420
:1038A00019941A941B941C941D941E941F94209494
:1038B0002194CAF50054A0B2524602A9FFF7E2FCD7
:1038C000A0B2524612A9FFF783FC402212A912A807
:1038D000FFF7A0FB38B9214B4FF4C57220A16EA0B1
:1038E00031F00CF900261D4B40F28D121CA175A081
:1038F00031F004F9002442F21075174819F08AF8E3
:10390000B0FBF7F107FB110000900422694648461E
:10391000FFF7B8FC042201A94846FFF759FC0199BA
:103920000098884207D00D4B4FF4CA720CA16FA0CB
:1039300031F0E4F80026641CAC42DED3074B4FF4B0
:10394000CC7207A171A031F0D9F822B03046BDE8A1
:10395000F08700000800002030020020D68E040806
:103960002E2E5C73506C63506F72745C73506C637A
:103970004570726F6D2E630025732C25642C2573A2
:103980003A627974652838626974292073657175A3
:10399000656E7469616C20777269746520706173FB
:1039A00073210D0A0000000025732C25642C25735B
:1039B0003A62797465283862697429207365717573
:1039C000656E7469616C20776972746520666169DF
:1039D0006C210D0A0000000025732C25642C257332
:1039E0003A68776F7264283136626974292073658A
:1039F0007175656E7469616C207772697465207089
:103A0000617373210D0A000025732C25642C257326
:103A10003A686F7772642831366269742920736559
:103A20007175656E7469616C207769727465206662
:103A300061696C210D0A000025732C25642C257307
:103A40003A64776F7264283332626974292073652F
:103A50007175656E7469616C207772697465207028
:103A6000617373210D0A000025732C25642C2573C6
:103A70003A64776F726428333262697429207365FF
:103A80007175656E7469616C207769727465206602
:103A900061696C210D0A000025732C25642C2573A7
:103AA0003A626C6F636B2073657175656E746961E2
:103AB0006C205772697465206661696C210D0A007B
:103AC0008180808025732C25642C25733A626C6F6D
:103AD000636B2073657175656E7469616C205772D4
:103AE0006974652070617373210D0A0025732C259C
:103AF000642C25733A72616E646F6D2077726974FD
:103B000065206661696C210D0A00000025732C2573
:103B1000642C25733A72616E646F6D2077726974DC
:103B2000652070617373210D0A00000010B58021BB
:103B30005B4831F023FBBDE810405A4B07225AA1E5
:103B40005FA030F0DBBF70B5644E4FF4804130466B
:103B500012F08EFB624D524C38B194F9001011F105
:103B6000080F10DD481E207013E094F9001008299A
:103B700002DA481C20700CE0B5F8300A40F0010071
:103B8000A5F8300A05E0B5F8300A20F00100A5F8E4
:103B9000300A0221304612F06BFB38B194F9011063
:103BA00011F1080F10DD481E607013E094F9011048
:103BB000082902DA481C60700CE0B5F8300A40F0C1
:103BC0000200A5F8300A05E0B5F8300A20F002003E
:103BD000A5F8300A0121304612F04AFB38B194F9B9
:103BE000020010F1080F10DD401EA07013E094F9E0
:103BF0000200082802DA401CA0700CE0B5F8300A78
:103C000040F00400A5F8300A05E0B5F8300A20F0CD
:103C10000400A5F8300A2021324812F029FB38B1FF
:103C200094F9030010F1080F10DD401EE07013E05E
:103C300094F90300082802DA401CE0700CE0B5F8A3
:103C4000300A40F00800A5F8300A05E0B5F8300A5F
:103C500020F00800A5F8300A2349B5F96A0AB1F93D
:103C6000421088420DDC94F90400082802DA401C56
:103C7000207170BDB5F8300A40F01000A5F8300A88
:103C800070BD94F9040010F1080F02DD401E207190
:103C900070BDB5F8300A20F01000A5F8300A70BDEC
:103CA000B0C30120E48E04082E2E5C73506C635068
:103CB0006F72745C73506C63496F496E2E630000C1
:103CC00025732C25642C25733A696E7075742069F0
:103CD0006E69742E2E2E2E2E2E0A00000004024035
:103CE0006003002000080240F84F002010B5524940
:103CF0000020A1F8400A514C00224FF400612046F8
:103D000012F0BDFA04214E4819F0A6FD00214C48DE
:103D100019F0A2FD08214A4819F09EFD0022A114C5
:103D2000204612F0ACFA00222115464812F0A7FAFC
:103D3000BDE81040444B0D2244A14AA030F0DEBE45
:103D400070B54FF4A440FEF784F918B100213C4847
:103D500019F019FD4FF4A440FEF796F918B10021AF
:103D6000374819F079FD45F20120FEF772F918B1D4
:103D70000421334819F007FD45F20120FEF784F9CC
:103D800018B104212E4819F067FD45F20220FEF714
:103D900060F918B108212A4819F0F5FC45F2022013
:103DA000FEF772F918B10821254819F055FD45F2C2
:103DB0000320FEF74EF9214C20B1012211032046C9
:103DC00012F05DFA45F20320FEF75EF928B10022F9
:103DD0004FF48051204612F052FA45F20420FEF7CB
:103DE00038F9184D20B101229102284612F047FA05
:103DF00045F20420FEF748F928B100224FF4806113
:103E0000284612F03CFA45F20520FEF722F920B1CF
:103E10000122D102204612F032FA45F20520FEF7C7
:103E200033F9002807D02046BDE8704000224FF447
:103E3000006112F024BA70BD60030020000402404B
:103E400088C1012000080240F28E04082E2E5C7307
:103E5000506C63506F72745C73506C63496F4F7534
:103E6000742E630025732C25642C25733A6F7574AA
:103E700070757420696E69742E2E2E2E2E2E0A00F7
:103E800010B58E4B7F228EA193A030F037FE984C58
:103E9000B4F84000022807D1B4F94200022803DC3C
:103EA0001520A4F8C20A0BE042F21720FEF7ABF887
:103EB00018B11420A4F8C20A02E01220A4F8C20A21
:103EC00040F24C40A4F8C00AB4F84400A4F8BE0A7A
:103ED0000020A4F8C40A87498880488148828870F5
:103EE000C870854909684862BDE81040824818F0EA
:103EF00001BF10B5814AD168814200D808B20028BC
:103F000000DA0020116848637A4C30B100217B4808
:103F100019F039FC0120207010BD0021774819F0FC
:103F20009BFC0020207010BD70B5724CA078012859
:103F30001DD1734D00220221284612F0A0F9002263
:103F40004FF40051284612F09AF9002210216D48D2
:103F500012F095F966486C49B0F8460091F94110A5
:103F600010FB01F000B2FFF7C4FF0020A07070BD8D
:103F700010B5664B972252A165A030F0BFFD5E4898
:103F80000024006844625C4818F0F9FEFFF7CCFF9B
:103F900058488480448184700121C17010BD10B5DF
:103FA000574C00220221204612F069F900224FF4FA
:103FB0000051204612F063F900221021514812F0FE
:103FC0005EF90020FFF795FF4A480021417081808B
:103FD000C180018141818181C181018241828170E1
:103FE000C170BDE81040504BB02235A14FA030F059
:103FF00085BD70B53F4DA87800282AD13C4C404E75
:1040000094F8F20410F0010F04D00122022130468E
:1040100012F035F994F8F21411F0020F09D00122D0
:104020005103304612F02BF901221021354812F0CD
:1040300026F994F8F20410F0040F08D0B4F8FA044A
:104040004FF47A7110FB01F000B2FFF752FF01202C
:10405000A87070BD10B5274C204694F90110B0F936
:104060000400012922D002291FD1002805DBB4F960
:104070000610884201DAFFF7BCFFB4F90400B4F976
:104080000610884205DBB4F90810884201DAFFF710
:104090004BFFB4F90400B4F90810884202DB4FF07A
:1040A000FF30A080A088401CA08010BD0028FCD15B
:1040B000FFF79FFFA088401CA08010BD018F04085F
:1040C0002E2E5C73506C63506F72745C73506C6313
:1040D0004C617365722E630025732C25642C257347
:1040E0003A6C61736572207374617274210A000006
:1040F000600300201A00002018C2012040C10120E6
:104100000008024000040240F84F0020078F040816
:1041100025732C25642C25733A6C617365722073AA
:10412000746F70210A0000000D8F040825732C2580
:10413000642C25733A6C617365722074696D6572C5
:1041400020696E69742E2E2E2E2E2E0A000000007D
:10415000002000BF00BF00BF00BF00BF00BF00BF06
:1041600000BF00BF00BF401CB0F57A7FF1D370479D
:104170002DE9F04186B00026FE4C206840F0010099
:104180002060206800F001000090DFF8EC8300223E
:10419000A114404612F073F8A01401900127029771
:1041A00002250395049601A9404611F0B3FE0022B2
:1041B000A114404612F063F86420FFF7C9FF012202
:1041C0001103404612F05BF86420FFF7C1FFA11411
:1041D000404611F0ACFF206820F00100206020680C
:1041E00040F040002060206800F040000090DFF8C0
:1041F0008C830022A115404612F041F8A0150190D1
:1042000002970395049601A9404611F083FEC82049
:10421000FFF79EFFA114404611F089FF206820F0AF
:1042200040002060201D016821F0800101604320D2
:1042300012F080FC432012F04AFD06B0BDE8F08188
:1042400010B592B00024079408940B940C940D942C
:104250000E940F9410941194019402940394049476
:104260000594C748046001210160C64804660460E3
:10427000C548026822F080520260026842F0805213
:104280000260006800F080500090C048026842F46C
:1042900080420260006800F4804000900220069096
:1042A000099110200A9006A810F098FE08B1FCF7BA
:1042B000ABF80F200190029403944FF480500490C7
:1042C0000594002101A811F0F9F8002801D0FCF7AD
:1042D0009BF812B010BD10B512F073FDAC48FCF79E
:1042E0000BFBAC48FCF7A0FCAB48FCF7A1FEAB48CD
:1042F000FCF79EFEAA48FCF79BFEAA48FCF798FE36
:10430000A948FCF795FEA948FCF792FEA848FCF7DF
:1043100046FCA848FCF7B7FFA748FCF7B4FFA7483E
:10432000FCF7B1FFA648FCF79DFAA648FCF712FB84
:10433000A54829F0DDF8FFF783FFFFF719FF62B604
:1043400010BD1FF0FABE38B50446A04DB5F9000007
:10435000A0421AD0642C00DD6424002C00DA002472
:1043600091480068846324B104218F4819F00BFA46
:1043700003E004218C4819F06FFA2C80944B7422CE
:1043800094A19AA0009430F0B9FB38BD10B5303834
:104390001E2880F0DC85DFE810F01E006C00BA00FB
:1043A00051019F01ED013B028902D7022503DA0585
:1043B000DA05DA05DA05DA05DA05DA0577039503B1
:1043C000D30311043F044D048B04B904F604130510
:1043D00054058105BE050421704819F0D4F94FF445
:1043E00096701FF0AAFE04216C4819F035FA40F6C9
:1043F000B8301FF0A2FE0421684819F0C4F94FF448
:1044000061701FF09AFE0421644819F025FA40F605
:10441000B8301FF092FE0421604819F0B4F94FF44F
:1044200061701FF08AFE04215C4819F015FA40F60D
:10443000B8301FF082FE0421584819F0A4F94FF457
:1044400061701FF07AFE0421544819F005FA40F615
:10445000B8301FF072FE0421504819F094F94FF45F
:1044600061701FF06AFE04214C4819F0F5F900F064
:104470006EBD0421494819F086F94FF496701FF07B
:104480005CFE0421454819F0E7F940F6B8301FF00A
:1044900054FE0421414819F076F94FF461701FF081
:1044A0004CFE04213D4819F0D7F940F6B8301FF012
:1044B00044FE0421394819F066F94FF461701FF089
:1044C0003CFE0421354819F0C7F940F6B8301FF01A
:1044D00034FE0421314819F056F94FF461701FF091
:1044E0002CFE04212D4819F0B7F940F6B8301FF022
:1044F00024FE0421294819F046F94FF461701FF099
:104500001CFE0421254819F0A7F900F020BD042164
:10451000224819F038F94FF496701FF00EFE04216E
:104520001E4819F099F940F6B8301FF006FE042134
:104530001A4819F028F94FF496701FF0FEFD042177
:10454000164819F089F940F6B8301FF0F6FD04213D
:10455000124819F018F94FF461701FF0EEFD0421B4
:104560000E4819F079F940F6B8301FF0E6FD042145
:104570000A4847E03038024000000240001802407C
:10458000400E474200004742403802400070004061
:10459000080000203002002040C1012088C1012015
:1045A000D0C1012018C2012060C20120A8C2012090
:1045B000ECC0012088020020D00200204002002030
:1045C00014010020BC01002090CB012024C0012058
:1045D0001B8F04082E2E5C73506C63506F72745CDA
:1045E00073506C634D6973632E63000025732C2533
:1045F000642C25733A7365742066616E3A25640AEB
:104600000000000019F0BFF84FF461701FF095FD35
:104610000421FE4819F020F940F6B8301FF08DFD56
:104620000421FA4819F0AFF84FF461701FF085FDCE
:104630000421F64819F010F900F089BC0421F34870
:1046400019F0A1F84FF496701FF077FD0421EF48A0
:1046500019F002F940F6B8301FF06FFD0421EB4865
:1046600019F091F84FF496701FF067FD0421E748A8
:1046700019F0F2F840F6B8301FF05FFD0421E3486E
:1046800019F081F84FF461701FF057FD0421DF48E5
:1046900019F0E2F840F6B8301FF04FFD0421DB4876
:1046A00019F071F84FF461701FF047FD0421D748ED
:1046B00019F0D2F840F6B8301FF03FFD0421D3487E
:1046C00019F061F84FF461701FF037FD0421CF48F5
:1046D00019F0C2F800F03BBC0421CC4819F053F8A3
:1046E0004FF496701FF029FD0421C84819F0B4F862
:1046F00040F6B8301FF021FD0421C44819F043F8FA
:104700004FF496701FF019FD0421C04819F0A4F869
:1047100040F6B8301FF011FD0421BC4819F033F801
:104720004FF461701FF009FD0421B84819F094F8A6
:1047300040F6B8301FF001FD0421B44819F023F809
:104740004FF496701FF0F9FC0421B04819F084F87A
:1047500040F6B8301FF0F1FC0421AC4819F013F812
:104760004FF461701FF0E9FC0421A84819F074F8B7
:1047700000F0EDBB0421A54819F005F84FF4967040
:104780001FF0DBFC0421A14819F066F840F6B830B0
:104790001FF0D3FC04219D4818F0F5FF4FF49670EC
:1047A0001FF0CBFC0421994819F056F840F6B830B8
:1047B0001FF0C3FC0421954818F0E5FF4FF49670F4
:1047C0001FF0BBFC0421914819F046F840F6B830C0
:1047D0001FF0B3FC04218D4818F0D5FF4FF49670FC
:1047E0001FF0ABFC0421894819F036F840F6B830C8
:1047F0001FF0A3FC0421854818F0C5FF4FF4967004
:104800001FF09BFC0421814819F026F800F09FBBA3
:1048100004217E4818F0B7FF4FF461701FF08DFC43
:1048200004217A4819F018F840F6B8301FF085FCDA
:104830000421764818F0A7FF4FF496701FF07DFC16
:104840000421724819F008F840F6B8301FF075FCE2
:1048500004216E4818F097FF4FF496701FF06DFC1E
:1048600004216A4818F0F8FF40F6B8301FF065FCE4
:104870000421664818F087FF4FF496701FF05DFC26
:104880000421624818F0E8FF40F6B8301FF055FCEC
:1048900004215E4818F077FF4FF496701FF04DFC2E
:1048A00004215A4818F0D8FF00F051BB04215748A2
:1048B00018F069FF4FF461701FF03FFC042153486A
:1048C00018F0CAFF40F6B8301FF037FC04214F48FB
:1048D00018F059FF4FF461701FF02FFC04214B4872
:1048E00018F0BAFF40F6B8301FF027FC0421474803
:1048F00018F049FF4FF496701FF01FFC0421434845
:1049000018F0AAFF40F6B8301FF017FC04213F480A
:1049100018F039FF4FF496701FF00FFC04213B484C
:1049200018F09AFF40F6B8301FF007FC0421374812
:1049300018F029FF4FF496701FF0FFFB0421334855
:1049400018F08AFF00F003BB0421304818F01BFF69
:104950004FF461701FF0F1FB04212C4818F07CFF2C
:1049600040F6B8301FF0E9FB0421284818F00BFF8F
:104970004FF461701FF0E1FB0421244818F06CFF34
:1049800040F6B8301FF0D9FB0421204818F0FBFE98
:104990004FF461701FF0D1FB04211C4818F05CFF3C
:1049A00040F6B8301FF0C9FB0421184818F0EBFEA0
:1049B0004FF496701FF0C1FB0421144818F04CFF0F
:1049C00040F6B8301FF0B9FB0421104818F0DBFEA8
:1049D0004FF496701FF0B1FB04210C4818F03CFF17
:1049E00000F0B5BA0421094818F0CDFE4FF461700B
:1049F0001FF0A3FB0421054818F02EFF40F6B83045
:104A00001FF09BFB0421014802E0000088C1012047
:104A100018F0B9FE4FF461701FF08FFB0421FE48BF
:104A200018F01AFF40F6B8301FF087FB0421FA484F
:104A300018F0A9FE4FF461701FF07FFB0421F648C7
:104A400018F00AFF40F6B8301FF077FB0421F24857
:104A500018F099FE4FF461701FF06FFB0421EE48CF
:104A600018F0FAFE40F6B8301FF067FB0421EA4860
:104A700018F089FE4FF496701FF05FFB0421E648A2
:104A800018F0EAFE00F063BA0421E34818F07BFE58
:104A90004FF496701FF051FB0421DF4818F0DCFE44
:104AA00040F6B8301FF049FB0421DB4818F06BFEDC
:104AB0004FF461701FF041FB0421D74818F0CCFE81
:104AC00000F045BA0421D44818F05DFE4FF461703F
:104AD0001FF033FB0421D04818F0BEFE40F6B8307A
:104AE0001FF02BFB0421CC4818F04DFE4FF49670BC
:104AF0001FF023FB0421C84818F0AEFE40F6B83082
:104B00001FF01BFB0421C44818F03DFE4FF49670C3
:104B10001FF013FB0421C04818F09EFE40F6B83089
:104B20001FF00BFB0421BC4818F02DFE4FF49670CB
:104B30001FF003FB0421B84818F08EFE00F007BAFE
:104B40000421B54818F01FFE4FF461701FF0F5FA0C
:104B50000421B14818F080FE40F6B8301FF0EDFA9D
:104B60000421AD4818F00FFE4FF496701FF0E5FADF
:104B70000421A94818F070FE40F6B8301FF0DDFAA5
:104B80000421A54818F0FFFD4FF461701FF0D5FA1D
:104B90000421A14818F060FE40F6B8301FF0CDFAAD
:104BA00004219D4818F0EFFD4FF496701FF0C5FAF0
:104BB0000421994818F050FE00F0C9B90421964824
:104BC00018F0E1FD4FF461701FF0B7FA042192482C
:104BD00018F042FE40F6B8301FF0AFFA04218E48BC
:104BE00018F0D1FD4FF496701FF0A7FA04218A48FF
:104BF00018F032FE40F6B8301FF09FFA04218648C4
:104C000018F0C1FD4FF496701FF097FA0421824806
:104C100018F022FE00F09BB904217F4818F0B3FD84
:104C20004FF496701FF089FA04217B4818F014FEA7
:104C300000F08DB90421784818F0A5FD4FF4967066
:104C40001FF07BFA0421744818F006FE40F6B830D5
:104C50001FF073FA0421704818F095FD4FF4967018
:104C60001FF06BFA04216C4818F0F6FD40F6B830DE
:104C70001FF063FA0421684818F085FD4FF4617055
:104C80001FF05BFA0421644818F0E6FD40F6B830E6
:104C90001FF053FA0421604818F075FD4FF4967028
:104CA0001FF04BFA04215C4818F0D6FD00F04FB914
:104CB0000421594818F067FD4FF461701FF03DFA68
:104CC0000421554818F0C8FD40F6B8301FF035FAF9
:104CD0000421514818F057FD4FF461701FF02DFA70
:104CE00004214D4818F0B8FD40F6B8301FF025FA01
:104CF0000421494818F047FD4FF496701FF01DFA43
:104D00000421454818F0A8FD00F021B904214248CB
:104D100018F039FD4FF496701FF00FFA04213E4849
:104D200018F09AFD40F6B8301FF007FA04213A480F
:104D300018F029FD4FF496701FF0FFF90421364852
:104D400018F08AFD40F6B8301FF0F7F90421324818
:104D500018F019FD4FF496701FF0EFF904212E485A
:104D600018F07AFD40F6B8301FF0E7F904212A4820
:104D700018F009FD4FF496701FF0DFF90421264862
:104D800018F06AFDE3E00421234818F0FCFC4FF41E
:104D900096701FF0D2F904211F4818F05DFD40F60F
:104DA000B8301FF0CAF904211B4818F0ECFC4FF48E
:104DB00096701FF0C2F90421174818F04DFDC6E0A7
:104DC0000421154818F0DFFC4FF496701FF0B5F978
:104DD0000421114818F040FD40F6B8301FF0ADF93D
:104DE00004210D4818F0CFFC4FF461701FF0A5F9B5
:104DF0000421094818F030FD40F6B8301FF09DF945
:104E00000421054818F0BFFC4FF461701FF095F9BC
:104E10000421014802E0000088C1012018F01CFDB7
:104E200040F6B8301FF089F90421584818F0ABFC5F
:104E30004FF461701FF081F90421544818F00CFD03
:104E400085E00421514818F09EFC4FF461701FF07A
:104E500074F904214D4818F0FFFC40F6B8301FF0FB
:104E60006CF90421494818F08EFC4FF496701FF03D
:104E700064F90421454818F0EFFC40F6B8301FF003
:104E80005CF90421414818F07EFC4FF461701FF07A
:104E900054F904213D4818F0DFFC58E004213B4858
:104EA00018F071FC4FF496701FF047F90421374851
:104EB00018F0D2FC40F6B8301FF03FF90421334817
:104EC00018F061FC4FF461701FF037F904212F488E
:104ED00018F0C2FC40F6B8301FF02FF904212B481F
:104EE00018F051FC4FF496701FF027F90421274861
:104EF00018F0B2FC40F6B8301FF01FF90421234827
:104F000018F041FC4FF496701FF017F904211F4868
:104F100018F0A2FC1BE004211C4818F034FC4FF4EC
:104F200061701FF00AF90421184818F095FC40F64A
:104F3000B8301FF002F90421144818F024FC4FF493
:104F400061701FF0FAF80421104818F085FCBDE8E4
:104F5000104040F6B8301FF0F0B870B5FCF746FBD3
:104F60004FF000640A4D2078FCF734FB641CAC421F
:104F7000F9D370BD70B5FCF739FB064C064D2078AF
:104F8000FCF728FB641CAC42F9D370BD88C101203A
:104F9000FFFF000800000108FFFF0F0810B5694877
:104FA00017F0A8FE68490020087068490870684931
:104FB000087068490870684908706849088068493D
:104FC00008806849088068490880684908806849FD
:104FD000088068490860BDE81040674B132267A14C
:104FE0006CA02FF08BBD574817F0C9BE554817F07D
:104FF00081BE2DE9F05F4FF48B646E4F44F268067A
:1050000047F6FF790025A01980B2FCF7FCFF38B104
:1050100037F91400484505DA401C27F8140001E070
:1050200027F81450601C84B2B4F5936FEBD3DFF80B
:105030002CA14FF00108BAF800000A281AD94FF441
:105040009364A01980B2FCF7DEFF38B137F9140081
:10505000484505DA401C27F8140001E027F81450F1
:10506000601C84B2B4F59B6FEBD3374880F80080A6
:10507000AAF80050DFF8E8B0BBF8000064281BD99C
:105080004FF49B64A01980B2FCF7BDFF38B137F92B
:105090001400484505DA401C27F8140001E027F801
:1050A0001450601C84B240F217508442EAD327485F
:1050B00080F80080ABF800502A490888C82803D936
:1050C000234880F800800D80274A1088B0F5FA7FC9
:1050D00003D9204880F800801580244B1888B0F54B
:1050E0007A7F03D91C4880F800801D80DFF880C0DB
:1050F0004EF66024BCF80000A04204D92E4880F887
:105100000080ACF80050BAF80000401CAAF800007B
:10511000BBF80000401CABF800000888401C088069
:105120001088401C10801888401C1880BCF80000B3
:10513000401CACF800000F480168491C0160BDE844
:10514000F09F0000A8C2012014C0012015C001205A
:1051500016C0012017C0012018C001200CC001207A
:105160000EC001201000002010C0012012000020FD
:1051700012C0012028C00120278F04082E2E5C7346
:10518000506C63506F72745C73506C6354696D65DE
:10519000722E630025732C25642C25733A73706C72
:1051A000632074696D657220696E69742E2E2E2ECF
:1051B0002E2E0A006003002019C00120000000000C
:1051C00038B50446A04817F082FD00219F4813F02F
:1051D0000DFA41F29410844200DD0446B4F5FA7FE2
:1051E00001DA4FF4FA7410F06CFA400A4000B0FB98
:1051F000F4F000EE100AB8EE400A934894490160BA
:105200000121416000248460BCEEC00A10EE101A37
:1052100089B2C16004618021816117F0BBFC38B1A3
:105220008C4B35228CA193A02FF068FCFBF7ECF897
:10523000854817F00CFD4FF48073954A0021834890
:10524000009413F058F938BD10B5924C207800281E
:105250000DD001225103904811F011F87A4817F04F
:1052600036FD0021794813F0C1F90020207010BDEF
:1052700010B52DED0A8B642800DD64209FED88BBFE
:105280009FED89CB002800DA002032F0FEFE9FED72
:10529000881B53EC112B32F007FD41EC190B53EC3A
:1052A0001B2B51EC190B32F057FE22D053EC192B6B
:1052B00051EC190B32F050FF41EC1A0B9FED7E8B35
:1052C00051EC190B53EC182B32F032FC53EC1A2B27
:1052D00033F082F841EC1A0B53EC182B51EC190BFC
:1052E00032F03AFF53EC1A2B32F0DEFC41EC180B93
:1052F00003E0B0EE4B8AF0EE6B8A9FED710B51EC40
:10530000180B53EC102B32F027FF41EC180B53EC29
:105310001B2B51EC180B32F0E3FE03D2B0EE4B8A9C
:10532000F0EE6B8A53EC1C2B51EC180B33F012F897
:1053300003D2B0EE4C8AF0EE6C8A51EC180B32F0CE
:10534000C5FBBDEC0A8B00EE100A10BD2DE9F04143
:105350002DED028B4F4991F90110814237D0FFF7B3
:1053600087FF10EE100A33F021F941EC100B0024F6
:105370009FED551B51EC100B53EC112B32F0ECFE52
:105380000F4606469FED528B414D47EC106B53EC98
:10539000182B51EC100B32F0CBFB32F019FE25F834
:1053A0001400601C04B27F2CEFDB7F2447EC106BF1
:1053B00053EC182B51EC100B33F002F832F008FECE
:1053C00025F81400601C04B2B4F5807FEEDBBDEC60
:1053D000028BBDE8F08110B5012251032E4810F078
:1053E0004EFF45F2A060FCF7E4FD3B48B0F94400F5
:1053F000FFF7ACFFFFF728FF40F24C40FFF7E0FE5D
:10540000BDE81040354B0F2213A135A02FF076BB1D
:1054100038B5204C2078012813D000224FF40051D9
:105420001D4810F02CFF084817F011FC0020014621
:1054300000904FF48073164A044813F05CF8012082
:10544000207038BD00000000D0C10120BC01002048
:1054500000140040458F04082E2E5C73506C63507E
:105460006F72745C73506C63537065616B65722E00
:105470006300000025732C25642C25733A74696D34
:105480003720696E6974206661696C210A0000002A
:1054900030C401202E000020000402400000000063
:1054A0000000000000000000000000000000F03FCD
:1054B00000000000000059409A9999999999C93FB4
:1054C000000000606666E63F0000000000FC9F40B0
:1054D000000000000000A04060030020358F040899
:1054E00025732C25642C25733A737065616B657286
:1054F00020646D6120696E69742E2E2E2E2E2E0A68
:105500000000000030490020488008802F49486092
:10551000088070472C4B1A88511CC1F30B01B3F85B
:1055200002C08C4504D003F1040C02F80C00198071
:105530007047254A51881388994206D0131DCB5CC9
:105540000370481CC0F30B00508070471E48018850
:105550004088081A00F58050C11700EB11516FF315
:105560000B01401A80B270472DE9F84304460D46FE
:1055700000270097FFF7EAFF18B3144E6FF4403886
:105580006846FFF7D6FF32881AB99DF80000EE286A
:1055900013D1AA4204D29DF80010501C3080A154AF
:1055A0009DF80000716840EA01227260424504D112
:1055B000308877603780BDE8F883FFF7C7FF0028A1
:1055C000DED10020BDE8F883403A00203000002002
:1055D000002807DD4FF47A71491E0029FCDC401ECB
:1055E0000028F7DC704710B504462078002806D064
:1055F000207802F079FA641C20780028F8D110BDD8
:1056000070B506460D460024002D06D9305D02F027
:105610006BFA601C84B2AC42F8D370BD70B505461D
:105620000E460024002E0CD935F81400000A02F0B2
:105630005BFA15F8140002F057FA601C84B2B44209
:10564000F2D370BD10B5EE2002F04EFA042002F045
:105650004BFAFF2002F048FAFC2002F045FAFF2046
:1056600002F042FABDE81040FF2002F03DBA10B54A
:105670000446EE2002F038FA412002F035FA200A02
:1056800002F032FAE0B202F02FFAFF2002F02CFA18
:10569000FC2002F029FAFF2002F026FABDE81040B3
:1056A000FF2002F021BA10B50446EE2002F01CFAE9
:1056B000422002F019FA200A02F016FAE0B202F0D3
:1056C00013FAFF2002F010FAFC2002F00DFAFF207E
:1056D00002F00AFABDE81040FF2002F005BA70B5EA
:1056E00006460C461546EE2002F0FEF9A32002F015
:1056F000FBF9304602F0F8F9200A02F0F5F9E0B2C1
:1057000002F0F2F9280A02F0EFF9E8B202F0ECF93F
:10571000FF2002F0E9F9FC2002F0E6F9FF2002F098
:10572000E3F9BDE87040FF2002F0DEB910B5EE20CD
:1057300002F0DAF9012002F0D7F9FF2002F0D4F9E3
:10574000FC2002F0D1F9FF2002F0CEF9BDE81040B4
:10575000FF2002F0C9B970B505460C46EE2002F0F4
:10576000C3F9432002F0C0F9284602F0BDF92046F3
:1057700002F0BAF9FF2002F0B7F9FC2002F0B4F908
:10578000FF2002F0B1F9BDE87040FF2002F0ACB993
:1057900070B506460C461546EE2002F0A5F94520E8
:1057A00002F0A2F9304602F09FF9200A02F09CF9BB
:1057B000E0B202F099F9280A02F096F9E8B202F094
:1057C00093F9FF2002F090F9FC2002F08DF9FF2000
:1057D00002F08AF9BDE87040FF2002F085B970B58B
:1057E00004460D46EE2002F07FF9442002F07CF9D9
:1057F000200A02F079F9E0B202F076F9280A02F004
:1058000073F9E8B202F070F9FF2002F06DF9FC20A4
:1058100002F06AF9FF2002F067F9BDE87040FF204E
:1058200002F062B92DE9F0410446069E0D46174686
:105830009846EE2002F058F9202002F055F9200A8F
:1058400002F052F9E0B202F04FF9280A02F04CF9E6
:10585000E8B202F049F9384602F046F9404602F053
:1058600043F93046FFF7BFFEFF2002F03DF9FC2070
:1058700002F03AF9FF2002F037F9BDE8F041FF20CD
:1058800002F032B92DE9F0418046069E0C461546DD
:105890001F46EE2002F028F9212002F025F94046AB
:1058A00002F022F9200A02F01FF9E0B202F01CF91E
:1058B000280A02F019F9E8B202F016F9384602F0A7
:1058C00013F9304602F010F9FF2002F00DF9FC2028
:1058D00002F00AF9FF2002F007F9BDE8F041FF20CD
:1058E00002F002B970B504460D46EE2002F0FCF855
:1058F000312002F0F9F8200A02F0F6F8E0B202F0E6
:10590000F3F8284602F0F0F8FF2002F0EDF8FC2052
:1059100002F0EAF8FF2002F0E7F8BDE87040FF204F
:1059200002F0E2B82DE9F04104460D4616461F4646
:10593000EE2002F0D9F8322002F0D6F8200A02F068
:10594000D3F8E0B202F0D0F8280A02F0CDF8E8B2BD
:1059500002F0CAF8300A02F0C7F8F0B202F0C4F858
:10596000384602F0C1F8FF2002F0BEF8FC2002F039
:10597000BBF8FF2002F0B8F8BDE8F041FF2002F0CC
:10598000B3B82DE9F05F0AAC074694E87008884682
:1059900091469A46EE2002F0A7F8332002F0A4F8D0
:1059A000380A02F0A1F8F8B202F09EF84FEA182087
:1059B00002F09AF808F0FF0002F096F84FEA19207A
:1059C00002F092F809F0FF0002F08EF84FEA1A2078
:1059D00002F08AF80AF0FF0002F086F8200A02F0CE
:1059E00083F8E0B202F080F8280A02F07DF8E8B20D
:1059F00002F07AF8300A02F077F8F0B202F074F8A8
:105A0000584602F071F8FF2002F06EF8FC2002F018
:105A10006BF8FF2002F068F8BDE8F05FFF2002F0AD
:105A200063B82DE9F0410446069F0D461646984698
:105A3000EE2002F059F8802002F056F8200A02F019
:105A400053F8E0B202F050F8280A02F04DF8E8B23C
:105A500002F04AF8300A02F047F8F0B202F044F8D7
:105A6000404602F041F8384602F03EF8FF2002F0CE
:105A70003BF8FC2002F038F8FF2002F035F8BDE8D2
:105A8000F041FF2002F030B870B504460D46EE201C
:105A900002F02AF8502002F027F8200A02F024F839
:105AA000E0B202F021F8280A02F01EF8E8B202F093
:105AB0001BF8FF2002F018F8FC2002F015F8FF2078
:105AC00002F012F8BDE87040FF2002F00DB82DE999
:105AD000F04104460D4616461F46EE2002F004F83B
