:020000040801F1
:1000000090880120C9030108C9140108CF14010810
:10001000D1140108D3140108D51401080000000010
:10002000000000000000000000000000D5020108F0
:10003000D71401080000000031030108B12D0308A6
:10004000E3030108E3030108E3030108E3030108F4
:10005000E3030108D9140108E3030108E3030108DD
:10006000E3030108E3030108E3030108E3030108D4
:10007000E3030108E3030108E3030108E3030108C4
:10008000E3030108E3030108DB140108E3030108AB
:10009000E3030108E3030108E3030108E3030108A4
:1000A000E3030108E1140108E3030108E303010885
:1000B000E3030108E3030108E3030108E303010884
:1000C000E3030108E3030108E3030108E303010874
:1000D000E3030108E3030108E3030108E71401084F
:1000E000E3030108E3030108E3030108E303010854
:1000F000ED140108F3140108E3030108E303010808
:10010000E3030108E3030108E3030108E303010833
:10011000E3030108E3030108E3030108E303010823
:10012000F9140108E3030108E3030108E3030108EC
:10013000E30301080000000000000000E3030108E1
:10014000E3030108E3030108E3030108FF140108C6
:10015000E3030108E3030108E3030108E3030108E3
:10016000E3030108E3030108E3030108E3030108D3
:10017000E3030108E30301080000000000000000A1
:10018000E3030108E303010800F002F800F092F82D
:100190000AA090E8000C82448344AAF10107DA45E2
:1001A00001D100F087F8AFF2090EBAE80F0013F0A2
:1001B000010F18BFFB1A43F0010318478C750300A9
:1001C000CC7503000A444FF0000C10F8013B13F00B
:1001D000070408BF10F8014B1D1108BF10F8015BA0
:1001E000641E05D010F8016B641E01F8016BF9D193
:1001F00013F0080F1EBF10F8014BAD1C0C1B09D1EA
:100200006D1E58BF01F801CBFAD505E014F8016B5B
:1002100001F8016B6D1EF9D59142D6D370470000ED
:10022000103A24BF78C878C1FAD8520724BF30C822
:1002300030C144BF04680C607047000000230024F4
:1002400000250026103A28BF78C1FBD8520728BFE6
:1002500030C148BF0B607047662935F0D1856429ED
:1002600032F05880752932F05580782932F08E802E
:10027000632932F08486732932F089860020704722
:100280001FB535F0B0FD9DE8030032F0A7FB32F05A
:1002900046FA33F057F904000020002134F0D0FF73
:1002A000401C60600020002134F0B4FFE0601FBDFE
:1002B00010B510BD33F02DFC1146FFF7E1FF00F043
:1002C000EEF833F07DFE03B4FFF7F2FF03BC02F05B
:1002D00001FD00002C4B19680868B0E8F04F80F36E
:1002E0000988BFF36F8F4FF0000080F311887047CB
:1002F0000000000008480068006880F308884FF09C
:10030000000080F3148862B661B6BFF34F8FBFF36D
:100310006F8F00DF00BF00BF08ED00E0DFF80C00CA
:10032000016841F470010160704700BF88ED00E092
:10033000EFF30980BFF36F8F134B1A681EF0100F95
:1003400008BF20ED108A20E9F04F106009B44FF08B
:10035000500080F31188BFF34F8FBFF36F8F21F0F0
:10036000FDFA4FF0000080F3118809BC1968086895
:10037000B0E8F04F1EF0100F08BFB0EC108A80F309
:100380000988BFF36F8F70473CC00120EFF30580F1
:10039000704700000B49D1F800C04A685CF8043B84
:1003A0001068184442F8040B8C4528BFA1F1DC0CFE
:1003B0008A4228BFA1F1DC02C1F800C04A6020F0E7
:1003C00000407047244801200948804709480047F9
:1003D000FEE7FEE7FEE7FEE7FEE7FEE7FEE7FEE7F5
:1003E000FEE7FEE704480549054A064B7047000052
:1003F00021160108890101089048012090880120F8
:10040000906801209068012072B6FEE730B593B085
:100410000024089409940A940B9401940294039480
:10042000049405944548016841F0805101600068DA
:1004300000F0805000904248016841F48041016022
:10044000006800F4804000900120069000040790AE
:1004500002250C9580010D9019200E904FF4A87084
:100460000F9010950720119006A816F0CFFD08B147
:10047000FFF7CAFF0F200190029503944FF4A0509C
:1004800004904FF480500590052101A817F02EF834
:1004900008B1FFF7B9FF17F021F913B030BD03F031
:1004A00096FD18F083FCFFF7B1FF00F04BF800F069
:1004B000C1FA00F00DF900F055FA00F02BFC00F045
:1004C000EDFE00F01DFA00F081FB00F034FD00F0BD
:1004D00053FD00F0C3FD00F066FD00F06EFC24F05B
:1004E000EDF800F0BDFA00F0CAFC00F0BFFE00F02D
:1004F000EDFE22F06AFC00F0D3F822F09EFCFEE74D
:1005000010B504462068A0F18041B1F5E05101D159
:1005100018F07FFC2068A0F18041B1F5005101D1B5
:1005200004F0D7FD2068A0F18041B1F5A23103D1DC
:10053000BDE8104003F0E5BB10BD000040380240AC
:10054000007000402DE9F04387B00024029403942A
:100550000494059406944B48016841F0040101603D
:10056000016801F004010191016841F0800101601E
:10057000016801F080010191016841F00101016011
:10058000016801F001010191016841F0020101607F
:10059000016801F002010191016841F00801016068
:1005A000006800F008000190374F00224CF2E10192
:1005B000384617F064FEDFF8D48000224FF4E07173
:1005C000404617F05CFEDFF8C890002247F20301B6
:1005D000484617F054FE42F210200290039402267F
:1005E000049602A9384617F095FC4FF4404002905B
:1005F000012503950495059402A9384617F08AFC55
:10060000029503950495059502A9384617F082FCDA
:100610004FF4E070029003950496059402A94046B9
:1006200017F078FCE020029003950496059402A947
:10063000384617F06FFC032002900395049605944A
:1006400002A9484617F066FC4FF4E040029003957B
:100650000495059502A9484617F05CFCE803029052
:100660000394049402A9404617F054FC40200290E1
:100670000394049602A9484617F04CFC07B0BDE865
:10068000F0830000303802400008024000000240C1
:100690000004024024F034F8012022F0A0FEFBE721
:1006A00010B5074A0021AFF2130022F077FC054C89
:1006B0002060054A0021054822F070FC606010BDF2
:1006C000005F040800000020245F040825F40108EE
:1006D000F0B585B0002400940194029403948048FE
:1006E0007E4901604FF480314160846001250561DD
:1006F000057680F82040C4627A498162C4600A2687
:10070000C66180F83050446118F0B2FC08B1FFF7C0
:100710007BFE00940195062702976946704819F000
:10072000FAF808B1FFF770FE0095022401946946BB
:100730006B4819F0F0F808B1FFF766FE0094032447
:1007400001946946664819F0E6F808B1FFF75CFEC7
:100750000094042001906946614819F0DCF808B162
:10076000FFF752FE0B2000900520019069465C487F
:1007700019F0D1F808B1FFF747FE0C20009001975F
:100780006946574819F0C7F808B1FFF73DFE0D203C
:100790000090072001906946514819F0BCF808B153
:1007A000FFF732FE102000900820019069464C4867
:1007B00019F0B1F808B1FFF727FE112000900920C9
:1007C00001906946464819F0A6F808B1FFF71CFEEB
:1007D0001220009001966946414819F09CF80028C3
:1007E00001D0FFF711FE05B0F0BD70B586B006462A
:1007F0000024019402940394049405943068A0F1B9
:100800008041B1F5903148D13748016841F4807199
:100810000160006800F4807000903448016841F085
:1008200004010160016801F004010091016841F0D8
:1008300001010160006800F0010000900E200190AD
:100840000325029501A92A4817F064FB0F200190A7
:100850000295039401A9274817F05CFB274D264811
:1008600028606C60AC60EC60001528614000686135
:100870008000A861EC612C626C62284617F08FFD45
:1008800008B1FFF7C1FDB563AE6300220521122058
:1008900018F011F9122018F03FF906B070BD10B52C
:1008A00004462068A0F18041B1F5903114D10E4882
:1008B000016821F4807101600E210D4817F037FCAA
:1008C0000F210C4817F033FCA06B17F0DBFDBDE8DF
:1008D0001040122018F02EB910BD00000020014079
:1008E00004C101200100000F4438024030380240AA
:1008F0000008024000000240106402404CC1012088
:1009000010B5164914480860084619F012FD002871
:1009100003D0BDE81040FFF777BD10BD81B000687F
:10092000A0F18041B1F50C3108D10D48016841F4C6
:1009300080510160006800F48050009001B0704761
:100940000068A0F18041B1F50C3104D10448016880
:1009500021F48051016070470030024008000020FF
:100960003038024010B582B00024009401942D4923
:100970002B480860084619F040FD08B1FFF744FD18
:100980000094019400226946264819F0C6FE08B179
:10099000FFF73AFD10226946224819F0BEFE0028F2
:1009A00001D0FFF731FD02B010BD00B587B00021C6
:1009B000029103910491059106910068A0F1804194
:1009C000B1F5E84119D11848016841F000510160C2
:1009D000006800F0005001901448016841F00101E6
:1009E0000160006800F001000190302002900320B7
:1009F000039002A90E4817F08DFA07B000BD0068F9
:100A0000A0F18041B1F5E84108D10748016821F023
:100A1000005101603021064817F089BB7047000083
:100A200000740040ACC10120403802403038024020
:100A30000000024008B50948016841F480010160E6
:100A4000006800F48000009000220521382018F092
:100A500032F8BDE80840382018F05EB8303802405F
:100A600010B55548534901605449416000218160E7
:100A7000C1604FF48042026141618161C1610162E4
:100A800019F057FF002803D0BDE81040FFF7BCBCA9
:100A900010BD2DE9F04786B005460024019402946C
:100AA0000394049405942868A0F18041B1F5B04105
:100AB00064D1434E306840F480003060306800F408
:100AC000800000904FF4406701974FF00108CDF887
:100AD00008804FF00309CDF81090DFF8E8A001A9D5
:100AE000504617F017FA01229102504617F0C7FB43
:100AF0000122D102504617F0C2FB00BF00BF00BF69
:100B000000BF00BF00BF00BF00BF00BF00BF00BFED
:100B100000BF00BF00BF00BF00BF00BF00BF00BFDD
:100B200000BF29684FF40040086000BF00BF00BF4D
:100B300000BF00BF28680460306820F48000306087
:100B40002148016841F002010160006800F00200E4
:100B50000090019712200290CDF80C80CDF81090F3
:100B60000420059001A9504617F0D4F9306840F4EC
:100B700080003060306800F48000009006B0BDE86E
:100B8000F08710B50068A0F18041B1F5B0410FD1F8
:100B90000B48016821F4800101600A4C01152046D0
:100BA00017F0C5FAE1142046BDE8104017F0BFBAAF
:100BB00010BD000000580040C0C10120A086010007
:100BC00040380240000402403038024010B5164957
:100BD0001448086008461DF09CFE002803D0BDE8BC
:100BE0001040FFF711BC10BD81B00068A0F1A0411A
:100BF000B1F5C12108D10D48016841F04001016003
:100C0000006800F04000009001B070470068A0F15B
:100C1000A041B1F5C12104D10448016821F040018F
:100C20000160704700080650F80000203438024088
:100C300010B586B0002101910291039104910591B4
:100C40000168F94A0223F9484FF0010CB1F1804FD5
:100C500037D0A1F18044B4F580641ED0A1F1804466
:100C6000B4F5006443D0A1F18044B4F5C05412D16E
:100C7000116841F002011160116801F00201009158
:100C80009903019102930393CDF810C009210591B6
:100C900001A917F03FF906B010BD116841F002013B
:100CA0001160116801F002010091102101911221DF
:100CB0000291CDF810C0059301A917F02BF906B0E9
:100CC00010BD116841F002011160116801F00201CC
:100CD0000091082101910293CDF80CC0CDF810C00D
:100CE000CDF814C001A917F015F906B010BD1168B0
:100CF00041F002011160116801F0020100914FF40E
:100D00006071019102930393059301A917F002F911
:100D100006B010BD30B58FB000240A940B940C942B
:100D20000D940894099401940294039404940594F6
:100D300006940794BE4D4FF0804028604FF47A70BF
:100D40006860AC60E8602C618020A86128460FF0E4
:100D50006BFB08B1FFF758FB4FF480500A900AA9CB
:100D6000B34812F01CFC08B1FFF74EFBB0480FF07F
:100D70003AFD08B1FFF748FB0894099408A9AC486C
:100D800013F015FF08B1FFF73FFB30200190012061
:100D9000029003940594042201A9A54811F09FFE36
:100DA00008B1FFF731FB2868816941F40061816176
:100DB0009F48FFF73DFF0FB030BD10B592B0002443
:100DC0000E940F94109411940C940D940594069421
:100DD0000794089409940A940B9400940194029443
:100DE0000394954893490160202141608460642107
:100DF000C1600461802181610FF016FB08B1FFF72B
:100E000003FB4FF480500E900EA98B4812F0C7FBE5
:100E100008B1FFF7F9FA884810F0A2F808B1FFF717
:100E2000F3FA854810F002FC08B1FFF7EDFA0C94D4
:100E30000D940CA9804813F0BAFE08B1FFF7E4FA4C
:100E400060200590069407940994002205A97A4829
:100E500011F06DFF08B1FFF7D7FA0094012001905F
:100E60000294039404226946734811F000FF08B10C
:100E7000FFF7CAFA7048FFF7DBFE12B010BD10B5DD
:100E80008EB000240A940B940C940D940894099449
:100E9000019402940394049405940694079468487A
:100EA000664901604FF49651416084606421C160DD
:100EB0000461802181610FF0B7FA08B1FFF7A4FA4D
:100EC0004FF480500A900AA95D4812F068FB08B1FF
:100ED000FFF79AFA5A4810F043F808B1FFF794FA6E
:100EE0000894099408A9564813F061FE08B1FFF769
:100EF0008BFA60200190029403940594042201A9C6
:100F00004F4811F014FF08B1FFF77EFA082201A93B
:100F10004B4811F00CFF08B1FFF776FA0C2201A93B
:100F2000474811F004FF08B1FFF76EFA4448FFF795
:100F30007FFE0EB010BD10B582B000240094019465
:100F40004148404901600A21416084601E21C1601E
:100F5000802181610FF068FA08B1FFF755FA20206F
:100F6000009001946946384813F021FE002801D012
:100F7000FFF74AFA02B010BD10B535483349016099
:100F8000A8214160002181604FF47A72C260016142
:100F9000802181610FF048FA002803D0BDE810409D
:100FA000FFF732BA10BD30B58DB000240894099413
:100FB0000A940B9401940294039404940594069467
:100FC000079425482349016060254560846041F20B
:100FD0008831C1600461802181610FF025FA08B178
:100FE000FFF712FA4FF48050089008A91A4812F03F
:100FF000D6FA08B1FFF708FA17480FF0B1FF08B1A9
:10100000FFF702FA0195029403940594042201A9C2
:10101000114811F08CFE08B1FFF7F6F90E48FFF702
:1010200007FE0DB030BD0000303802400004024021
:10103000080100200004004050010020000800408A
:101040009801002000140040E0010020004401400D
:1010500028020020001800407002002010B57E48D1
:101060007C49016054214160002181604FF47A7213
:10107000C2600161802181610FF0D6F9002803D0A0
:10108000BDE81040FFF7C0B910BD00B587B0002122
:101090000291039104910591069100686F49B0F1A6
:1010A000804F4DD0A0F18042B2F5806229D0A0F1EE
:1010B0008042B2F500624DD0A0F18042B2F5A0525C
:1010C00052D0A0F18042B2F5A23257D0A0F18042B6
:1010D000B2F5C05265D0A0F18042B2F500520ED1F7
:1010E000086840F480700860086800F4807001901F
:1010F00005212D2017F0DFFC2D2017F00DFD07B086
:1011000000BD086840F002000860086800F00200B6
:1011100001905348016841F002010160006800F04D
:1011200002000190202002901220039001200590DF
:101130000220069002A94B4816F0ECFE07B000BD55
:10114000086840F001000860086800F001000190A4
:1011500007B000BD086840F004000860086800F0AF
:101160000400019007B000BD086840F0200008604E
:10117000086800F02000019007B000BD3A480168FF
:1011800041F400310160006800F400300190002259
:101190000521192017F08FFC192017F0BDFC07B0AE
:1011A00000BD086840F040000860086800F040009A
:1011B000019007B000BD00682849B0F1804F2CD0E5
:1011C000A0F18042B2F580621FD0A0F18042B2F55A
:1011D000006227D0A0F18042B2F5A05227D0A0F142
:1011E0008042B2F5A23227D0A0F18042B2F5C052BF
:1011F0002AD0A0F18042B2F5005212D1086820F442
:10120000807008602D2017F095BC086820F002005F
:1012100008603021134816F08ABF086820F00100EA
:1012200008607047086820F004000860704708688C
:1012300020F02000086070470B48016821F400315D
:101240000160192017F076BC086820F040000860A3
:101250007047000000200040B802002040380240E3
:1012600030380240000402404438024010B58B4838
:10127000894901604FF4E131416000218160C16022
:1012800001610C2242618161C1611DF0A6FC002850
:1012900003D0BDE81040FFF7B7B810BD10B58148C6
:1012A0007F4901604FF4E131416000218160C160FC
:1012B00001610C2242618161C1611DF08EFC002838
:1012C00003D0BDE81040FFF79FB810BD10B57748B8
:1012D000754901604FF4E131416000218160C160D6
:1012E00001610C2242618161C1611DF076FC002820
:1012F00003D0BDE81040FFF787B810BD70B586B0C9
:101300000021019102910391049105910168684BBC
:10131000684A022401256848A1F1804CBCF5A04C24
:1013200030D0A1F180464FF0070CB6F5883658D082
:10133000A1F18046B6F5904622D1196841F480218A
:101340001960196801F480210091116841F00401CD
:101350001160116801F0040100914FF440610191A6
:10136000029403950494CDF814C001A916F0D2FD9F
:1013700000220521272017F09EFB272017F0CCFB29
:1013800006B070BD196841F480111960196801F444
:1013900080110091116841F004011160116801F0A1
:1013A00004010091116841F008011160116801F019
:1013B000080100914FF48051019102940395049427
:1013C0000826059601A916F0A5FD042001900294B7
:1013D00003950494059601A9384816F09BFD06B0C4
:1013E00070BD3748016841F010010160006800F0ED
:1013F00010000090106840F001001060106800F0CC
:10140000010000904FF4C060019002940395049491
:10141000CDF814C001A92B4816F07CFD06B070BDB4
:1014200010B50168224A2448A1F18043B3F5A043D6
:1014300016D0A1F18043B3F588331FD0A1F18043CA
:10144000B3F5904326D1116821F4802111604FF447
:10145000406116F06CFEBDE81040272017F06ABB13
:10146000116821F4801111604FF4805116F05FFE75
:10147000BDE810400421114816F059BE104801681B
:1014800021F010010160BDE810404FF4C0610D482B
:1014900016F04DBE10BD00000050004014C20120E7
:1014A000001001405CC2012000480040A4C201209D
:1014B000403802403038024000080240000C024030
:1014C000443802400000024016F0AAF9FEE7FEE7A9
:1014D000FEE7FEE7FEE7704770470A4818F027B8B6
:1014E000094811F07EB909481EF0C2BB084811F046
:1014F00078B9084811F075B9074817F073B907486B
:1015000014F0B7B904C1012028020020A4C20120B0
:1015100000030020B80200204CC1012078C4012043
:1015200008B51048016841F480410160006800F48A
:10153000804000900C48016841F0805101600068D3
:1015400000F08050009000220F21901E17F0B3FA97
:1015500005210022084617F0AEFABDE80840052034
:1015600017F0DABA443802404038024030B587B04C
:10157000054600242548016841F0800101600068AB
:1015800000F08000009001A902A816F02EF905983D
:10159000A8B116F0AEF840001D49B0FBF1F0411EB5
:1015A0001D481C4A026040F2E732C260416004619B
:1015B000846084610EF038FF04461CB115E016F01B
:1015C00098F8E9E714480EF0DFFF04466CB92C20C8
:1015D00017F0A2FA102D07D2002229462C2017F06E
:1015E0006AFA0E48056000E0012407B0204630BDCD
:1015F00009480068C16821F00101C16070470648D0
:101600000068C16841F00101C16070474038024084
:1016100040420F00001C00400003002034C00120A5
:101620002348016841F470010160234921480860A2
:10163000704730B4214C206800F00C00204D214947
:10164000002811D0DFF880C004280FD0082810D05F
:101650000D602068C0F303121C48805C0A6822FAFF
:1016600000F0086030BC70470D60F2E7C1F800C0C0
:10167000EFE7174A1068C0F38053106800F03F008E
:1016800033B1BCFBF0F01368C3F38813584305E093
:10169000B5FBF0F01368C3F3881358431268C2F324
:1016A0000142521C5200B0FBF2F00860D1E700008A
:1016B00088ED00E00000010808ED00E00838024075
:1016C0000024F40000C0012040787D01485F040838
:1016D0000438024030B40022DFF8BCC000290FD922
:1016E0002E4C10F8015BBCF8003085EA132534F865
:1016F000155085EA0323ACF80030521C8A42F0D31F
:10170000BCF800004FF6FF7130BC48407047224AD9
:10171000224B118880EA112033F8100080EA012062
:1017200080B210804FF6FF71484070471A494FF65B
:10173000FF700880704718490880704730B4002255
:10174000DFF854C000290ED9154C855CDCF8043054
:101750005D40EDB254F8255085EA1323CCF80430EF
:10176000521C8A42F1D3DCF8040030BCC0437047FD
:10177000094A0B4B51684840C0B253F8200080EA38
:1017800011205060C043704703494FF0FF3048605C
:10179000704701494860704704C00120605F040839
:1017A0006061040800000000012080F31388BFF38B
:1017B0004F8FFD480168FD4A01F4E061114301606B
:1017C000BFF34F8F00BFFDE77047704710B5044669
:1017D000204600F0BCFDF648210904F00F0330F864
:1017E00011204FF0010C0CFA03F31A4320F81120DA
:1017F00010BD10B50446204600F0A9FDEC482109B3
:1018000004F00F0330F811204FF0010C0CFA03F331
:101810009A4320F8112010BD10B50446204600F070
:1018200096FDE349200931F9100004F00F01084149
:1018300000F0010018B12046BDE81040D9E720466D
:10184000BDE81040C2E710B50446204600F07FFD19
:10185000D749200931F9100004F00F01084100F0C8
:10186000010008B1012010BD002010BD10B50446D4
:10187000204600F06CFDCE49200931F9100004F03B
:101880000F01084100F0010008B1002010BD012047
:1018900010BD10B50446204600F059FDC44821098A
:1018A00030F9112004F00F00024102F00102C14B97
:1018B00033F9111041FA00F000F0010002B108B153
:1018C000002010BD012010BD10B50446204600F0D8
:1018D0003EFDB748210930F9112004F00F00024104
:1018E00002F00102B34B33F9111041FA00F000F09D
:1018F00001000AB9012801D0002010BD012010BD4F
:101900002DE9F041904600F00F034FF0010C40F23A
:1019100044420CFA03F5A64F00F5936602EB10144F
:10192000002915D000F58A40FFF750FF37F916005F
:10193000404506DB37F81400284327F81400BDE8BB
:10194000F08137F81400A84327F81400BDE8F081AF
:1019500000F58A40FFF74DFF37F81400A84327F839
:101960001400002027F81600BDE8F0812DE9F041B1
:10197000904644F24052831800F00F0C01224FF4BD
:10198000896402FA0CF58A4F00F59B6604EB10148B
:10199000002914D01846FFF719FF37F91600404503
:1019A00006DB37F81400284327F81400BDE8F0815F
:1019B00037F81400A84327F81400BDE8F081184652
:1019C000FFF717FF37F81400A84327F8140000208A
:1019D00027F81600BDE8F08110B50446204600F057
:1019E000BCFC734A002122F8141010BD70B50546E6
:1019F000284600F0B2FC6C1CA0B200F0AEFC6C48B3
:101A0000002120F8151020F8141070BD70B505469F
:101A10000C46284600F0A1FC204600F09EFC6448DD
:101A200030F8141020F8151070BD2DE9F04107466C
:101A30000E46384600F091FC7C1CA0B200F08DFCF4
:101A4000304600F08AFC751CA8B200F086FC5848AD
:101A500030F8161020F8171030F8151020F8141070
:101A6000BDE8F081524B33F910C033F91220944590
:101A700001DB23F8102033F9102033F911108A42CA
:101A800001DC23F81010704770B505460E46284655
:101A900000F063FC304600F060FC454C0020A4F8E8
:101AA000F00A40F6FF70A4F8F20A40F27952511E93
:101AB0003046FFF7D7FF34F916000A2840DBB4F9A7
:101AC000821A3D4ADFED3D0A002917DD1288DFED5D
:101AD0003C1A00EE102AB8EE400A20EE201A00EE62
:101AE000100AB8EEC00A21EE001A00EE101AB8EE85
:101AF000C00A60EE211A81EE210A10E0118800EE82
:101B0000101AB8EE400A20EE201A00EE100AB8EEC5
:101B1000C00A21EE000A9FED2B1A20EE010A2A4985
:101B200010EE100A884202D19FED280A0AE09FEDCC
:101B3000281A70EEC00A20EE011A81EE200A01E098
:101B40009FED240A9FED241AC0EE010A10EE900AC0
:101B500034F0D8F841EC100B33F006F89FED201B61
:101B600051EC100B53EC112B33F0A2FE9FED1E1B1A
:101B700053EC112B33F0B8FB41EC100B53EC102B52
:101B80009FED1B0B51EC100B33F06AFC9FED1A1B01
:101B900053EC112B33F0CCFF33F074FB00EE100A42
:101BA000174910EE100A2DE00CED00E00400FA05D4
:101BB00048030020B80E00202A7AFF1F00404E453F
:101BC000000080450000803900404E45FE237449E6
:101BD00000E09245CDCCCC3D00401C46000000000A
:101BE000000000E032D9323F000000E0E1796B3FB5
:101BF000000000000000F03F6666666666127140F5
:101C00000000C842884201DB9FEDF90AF94910EE55
:101C1000100A884201D39FEDF80AF2EE040A20EE82
:101C2000200ABDEEC00A10EE100A24F8150070BD9F
:101C300070B505460E46284600F08FFB304600F092
:101C40008CFBEE4C0020A4F8F00A40F6FF70A4F8DC
:101C5000F20A40F27952511E3046FFF703FF34F981
:101C600016000A2842DBB4F9821AE54A1FED2D0A54
:101C7000002917DD12881FED2E1A00EE902AF8EECB
:101C8000600A60EE800A00EE100AB8EEC00A60EE4C
:101C9000800A00EE101AB8EEC00A20EE011A80EE9B
:101CA000810A10E0118800EE901AF8EE600A60EEEA
:101CB000800A00EE100AB8EEC00A20EE800A5FED3E
:101CC0003F0A20EE200A10EE100AA0F18B41B1F578
:101CD000971108D09FEDCB1AC1EE000A1FED440A00
:101CE00030EEC00A04E01FED470A01E01FED470A8D
:101CF0001FED471AC0EE010A10EE900A34F002F808
:101D000041EC100B32F030FF1FED4B1B51EC100B70
:101D100053EC112B33F0CCFD1FED4D1B53EC112B6D
:101D200033F0E2FA41EC100B53EC102B1FED500B8B
:101D300051EC100B33F094FB1FED511B53EC112BA6
:101D400033F0F6FE33F09EFA00EE100AAE4910EEC4
:101D5000100A884201DB9FEDA60AA64910EE100A80
:101D6000884201D39FEDA40AF2EE040A20EE200A75
:101D7000BDEEC00A10EE100A24F8150070BD10B4B4
:101D8000DFF878C29E4BBCF9822A1FED740A6446C4
:101D9000002A34F9111017DD1B8800EE903AF8EE96
:101DA000600A60EE800A00EE101AB8EEC00A60EE1B
:101DB000800A00EE102AB8EEC00A1FED7F1A20EE4E
:101DC000011A80EE810A10E01A8800EE902AF8EEDF
:101DD000600A60EE800A00EE101AB8EEC00A20EE2B
:101DE000800A5FED880A20EE200ADFED880AB0EE57
:101DF000041A70EE600A80EE810AF3EE090A30EEF2
:101E0000200A814A10EE101A914201DB9FED780AF8
:101E10007F4A10EE101A914201D3BBEE090AF2EE8E
:101E2000040A20EE200ABDEEC00A10EE101A2CF8AB
:101E3000101010BC7047714931F81020521C21F865
:101E4000102070476D4A47F6FF7332F9101099421F
:101E500002DA491C22F810107047684931F8102046
:101E6000521E21F810207047644A32F9101011F503
:101E7000004F02DD491E22F8101070475F4901EB48
:101E800040000168491C016070475C4901EB40005B
:101E90006FF000420168914201D0491C0160704717
:101EA000564901EB40000168491E016070475349E3
:101EB00001EB40000168B1F1004F01DD491E0160F6
:101EC00070474E4B33F8100033F81110084423F8D4
:101ED00012007047494B33F9100033F911100844D0
:101EE00047F6FF71884200DB084610F5004F00DC22
:101EF000484823F812007047404B53F8100053F83D
:101F00001110084443F81200704710B43B4B53F8CB
:101F1000100053F811100844C1176FF0004CB0EBDB
:101F20000C0C71F1000C02DB6FF0004000218C46BC
:101F30004FF0FF31D0F1004471EB0C0101DB4FF0A9
:101F4000004043F8120010BC704710B42B4B53F8FC
:101F5000100053F811100844C1176FF0004CB0EB9B
:101F60000C0C71F1000C02DB6FF0004000218C467C
:101F70004FF0FF31D0F1004471EB0C0101DB4FF069
:101F8000004043F8120010BC70471C4B33F810009F
:101F900033F81110401A23F812007047174B33F929
:101FA000100033F91110401A47F6FF71884200DB28
:101FB000084610F5004F00DC164823F81200704761
:101FC0000E4A52F8100052F81110401AC1176FF063
:101FD0000042821A71F1000202DB6FF00040002122
:101FE0004FF0FF33D0F1004073EB01007047000069
:101FF0000000C8420000C8C20000C8C24803002058
:102000002A7AFF1FF0A96C4B0000C84200003E4432
:102010000000C8C10080FFFFAB4B33F8100033F85D
:10202000111010FB01F023F812007047A64B33F893
:10203000100033F8111010FB01F047F6FF718842D1
:1020400000DB084610F5004F00DCA04823F8120022
:1020500070479D4B00F1010C33F81CC04FEA0C4C4B
:1020600033F9100040EA0C0001F1010C33F81CC0F8
:102070004FEA0C4C33F9111041EA0C01484323F8A4
:1020800012000014511C23F81100704730B44FF0B7
:10209000000C00238C4C34F91110002907DDC51801
:1020A00034F91550AC445B1C9BB29942F7DC44F800
:1020B00012C030BC704770B400239C46824C34F987
:1020C0001150002D0ADDC11834F91160664501DD9B
:1020D00034F811C0591C8BB29D42F4DC24F812C0B4
:1020E00070BC704770B400239C46774C34F9115093
:1020F000002D0ADDC11834F91160664501DD34F8A0
:1021000011C0591C8BB29D42F4DC24F812C070BC83
:10211000704730B400239C466B4C34F91150002DAD
:1021200009DDC11834F91110614500DD8C46591CD8
:102130008BB29D42F5DC24F812C030BC704730B43D
:1021400000239C46604C34F91150002D09DDC11864
:1021500034F91110614500DD8C46591C8BB29D424B
:10216000F5DC24F812C030BC7047574A32F9111020
:10217000002902DB22F810107047494222F81010A3
:102180007047514A32F91110002902DB22F8101071
:102190007047494222F8101070474B4B33F811102A
:1021A000CAB2C1F30721114323F81010704730B4AD
:1021B0000023002A0BD9DFF810C1CC18C5183CF851
:1021C00014402CF815405B1C9BB29342F5D330BCF5
:1021D000704710B500F0B9F800F01FF9BDE81040E5
:1021E00000F0B2B810B500F0B0F800F049F9BDE861
:1021F000104000F0A9B810B500F0A7F800F0B2F850
:10220000BDE8104000F0A0B810B500F09EF800F056
:10221000DAF9BDE8104000F097B810B5044600F0B8
:1022200094F81F2C00DD1F24002C00DA002428481D
:10223000802200EBC4114FF4087000EBC41080B290
:1022400000F084FE234B40F2ED1223A128A02FF0D2
:10225000F1FFBDE8104000F077B810B500F075F858
:1022600000F094F9BDE8104000F06EB870472DE919
:10227000F04105460E4627A02FF0DCFF2B482FF03B
:10228000D9FF2B482FF0D6FF25F00F042E44A6428D
:1022900018D90D4D0F2714F00F0F04D124F00F01A2
:1022A00024A02FF0C7FF35F9141024A02FF0C2FF8F
:1022B00037EA040002D123A02FF0BCFF601C84B2D7
:1022C000A642E8D8BDE8F081480300200080FFFF67
:1022D000281A0020606504082E2E5C2E2E5C735098
:1022E0006C635C73506C6346756E2E630000000077
:1022F00025732C25642C25733A73617665204F6E07
:1023000065204644204E5652414D20646F6E652E26
:102310002E2E0A004E5652414D204D454D4F5259DA
:10232000205441424C453A0A00000000247204083F
:102330007C7204082535643A000000002C253034F6
:10234000580000000A00000070477047FEE745F69D
:102350007F31884200D9FEE77047B0F5B76F00D3F0
:10236000FEE7704730B585B04FF43761F64830F07E
:10237000A1FA4022F449002000F08EFD04A941F6A4
:10238000645000F001FD1022EF49F04818F015F8F4
:102390000546ED4C4FF4806204F14001202000F02E
:1023A0007BFD03A941F6685000F0EEFC4FF480720B
:1023B00004F14001E54818F000F80446E2494FF402
:1023C000376201F5376030F0F6F904980090E04B81
:1023D0004322E0A10195E4A02FF02CFF0398009088
:1023E000DB4B4422DBA10194ECA02FF023FF0498E7
:1023F000A8420AD00398A04207D0D54B4622D5A1C7
:10240000F3A02FF017FF05B030BDD14B4922D1A169
:10241000F8A02FF00FFF05B030BD10B584B04022FA
:10242000C949002000F092FD1022C749C74817F0A3
:10243000C4FF039003A941F6645000F00AFDC24CAA
:102440004FF4806204F14001202000F07FFD4FF442
:10245000807204F14001BD4817F0AFFF029002A95D
:1024600041F6685000F0F5FC029903980191009044
:10247000E84B5622B7A1E8A02FF0DCFE04B010BD57
:102480002DE9F04383B00025AF4C04F537670026F3
:1024900020783978884205D02146304600F096FCF5
:1024A00045F0FF05641C7F1C701C86B2402EEFD3E4
:1024B00055B11022A449A54817F07FFF029002A948
:1024C00041F6645000F0C5FC0026DFF87C9209F16B
:1024D000400709F53B680024387898F800108842D6
:1024E00007D004F1200080B2394600F06FFC46F0BE
:1024F000FF067F1C08F10108601C84B2B4F5806FF0
:10250000EAD366B14FF4807209F140018F4817F0A9
:1025100054FF019001A941F6685000F09AFC8A49E5
:102520004FF4376201F5376030F045F93DB102985C
:102530000090C84B7F2287A1C7A02FF07BFE002E02
:1025400007D001980090C34B822282A1CFA02FF028
:1025500071FE03B0BDE8F08310B5FFF7F6FE022070
:1025600000F087FD4FF43761774830F0A3F94FF45E
:102570003761D34830F09EF9FFF7E6FEBDE8104022
:10258000D04B8B2273A1D0A02FF054BE10B5FFF713
:10259000DCFE4FF48052D4494FF4087000F07CFC0C
:1025A000FFF7D2FE38B1BDE81040D04B932269A1AD
:1025B000CFA02FF03FBEBDE81040CC4B962265A1C6
:1025C000D4A02FF037BE10B5FFF7BFFE4FF48052F6
:1025D000C5494FF4087000F0B9FC30B1D54B9E22CC
:1025E0005CA1D5A02FF026FE05E0D24BA12259A177
:1025F000D9A02FF01FFEBDE81040A5E610B5FFF7EB
:10260000A4FE032000F035FD4FF48051B64830F0B1
:1026100051F9D94BA9224FA1D8A02FF00BFEBDE84C
:10262000104091E610B5FFF790FE052000F021FD67
:10263000DB4BAF2247A1D1A02FF0FCFDBDE810403D
:1026400082E610B5FFF781FE062000F012FDD54BA3
:10265000B52240A1D4A02FF0EDFDBDE8104073E6F7
:1026600070B545F28260FFF714F900286AD045F290
:10267000B160FFF7E8F8344D47F6FF76002458B113
:10268000A5F8A86AA5F8A64A45F2B160FFF7B1F827
:1026900045F2B060FFF7ADF8B5F9A80AB5F9A61A8A
:1026A00088420EDBA5F8A84AB5F8A00AA5F8A20A48
:1026B000B5F8A40AA5F8A60A45F2B060FFF786F8B7
:1026C0000EE0B5F9A21A884207D1401CA5F8A80A65
:1026D00045F2B060FFF78DF802E0401CA5F8A80AAB
:1026E00045F2B360FFF7AFF858B1A5F8B26AA5F8A4
:1026F000B04A45F2B360FFF77CF845F2B260FFF7ED
:1027000078F8B5F9B20AB5F9B01A88420EDBA5F827
:10271000B24AB5F8AA0AA5F8AC0AB5F8AE0AA5F807
:10272000B00A45F2B260FFF751F852E1B5F9AC1AC0
:10273000884208D1401CA5F8B20A45F2B260FFF702
:1027400058F846E1B1E141E14803002008000020CB
:102750006A6504082E2E5C2E2E5C73506C635C73CD
:10276000506C632E6300000025732C25642C2573A8
:102770003A4D52204550524F4D204352433A307803
:10278000253038582C4D522043414C43204352436E
:102790003A3078253038580A0000000025732C257F
:1027A000642C25733A444D204550524F4D204352DE
:1027B000433A3078253038582C444D2043414C431F
:1027C000204352433A3078253038580A0000000040
:1027D00025732C25642C25733A6C6F6164204E564A
:1027E00052414D20637263206661696C2E2E2E0A61
:1027F0000000000025732C25642C25733A6C6F6152
:1028000064204E5652414D20646F6E652E2E2E0A66
:10281000000000007865040825732C25642C2573BE
:102820003A73617665204E5652414D20646F6E6555
:102830002E2E2E284D52204352433A3078253038E0
:10284000582C444D204352433A307825303858298B
:102850000A0000008665040825732C25642C257366
:102860003A757064617465204D52204E5652414D48
:1028700020646F6E652E2E2E284D52204352433A0F
:10288000307825303858290A0000000025732C259F
:10289000642C25733A75706461746520444D204E34
:1028A0005652414D20646F6E652E2E2E28444D20C9
:1028B0004352433A307825303858290A0000000046
:1028C000B80E00209665040825732C25642C25730A
:1028D0003A636C656172204E5652414D20646F6EB2
:1028E000652E2E2E0A000000281A0020A565040877
:1028F00025732C25642C25733A6C6F616420464443
:10290000204E5652414D20637263206661696C21EE
:1029100021210A0025732C25642C25733A6C6F61E4
:1029200064204644204E5652414D20646F6E652E01
:102930002E2E0A00B365040825732C25642C2573FC
:102940003A73617665204644204E5652414D2066CA
:1029500061696C2E2E2E0A0025732C25642C25739C
:102960003A73617665204644204E5652414D2064AC
:102970006F6E652E2E2E0A00C165040825732C2566
:10298000642C25733A636C656172204644204E5670
:1029900052414D20646F6E652E2E2E0A00000000FD
:1029A000D0650408E665040825732C25642C25737E
:1029B0003A636C65617220646576696365206C6F4B
:1029C0006720646F6E652E2E2E0A0000401CA5F84D
:1029D000B20A45F2B560FEF736FF58B1A5F8BC6AF9
:1029E000A5F8B04A45F2B560FEF703FF45F2B460C2
:1029F000FEF7FFFEB5F9BC0AB5F9BA1A88420EDB3C
:102A0000A5F8BC4AB5F8B40AA5F8B60AB5F8B80AEC
:102A1000A5F8BA0A45F2B460FEF7D8FE0EE0B5F9A3
:102A2000B61A884207D1401CA5F8BC0A45F2B4602A
:102A3000FEF7DFFE02E0401CA5F8BC0A45F2B760D5
:102A4000FEF701FF58B1A5F8C66AA5F8C44A45F2D9
:102A5000B760FEF7CEFE45F2B660FEF7CAFEB5F9E6
:102A6000C60AB5F9C41A88420FDBA5F8C64AB5F8FC
:102A7000BE0AA5F8C00AB5F8C20AA5F8C40ABDE89E
:102A8000704045F2B660FEF7A1BEB5F9C01A8842A3
:102A900008D1401CA5F8C60ABDE8704045F2B660F2
:102AA000FEF7A7BE401CA5F8C60A70BD38B5634B3B
:102AB00040F21112AFF2643161A02FF0BBFB00F0C5
:102AC0008FFA0DF036F905F0CEFDFFF74BFCFFF75E
:102AD0005DFD02F0C7F8614CA06002F0D0F8E06044
:102AE000A068564B4FF48E72AFF2983100905CA004
:102AF0002FF0A0FBE068514B40F21D12AFF2AC3159
:102B000000905FA02FF096FB4FF4AD40FEF75EFE05
:102B100045F28160FEF75AFE00F06EFE00F054FFB1
:102B200002F072FE02F0BCFB01F09BF802F0A6FA84
:102B300002F004FA082159480EF0D8FA0421574847
:102B40000EF0D4FA0C2155480EF0D0FA45F20320CD
:102B5000FEF74FFE524A0A23504992F93F000028DF
:102B600001DD642802DD0868036403E0D1F800C0D9
:102B7000CCF8400092F93E00002801DD642802DD17
:102B80000868836303E0D1F800C0CCF8380092F9FC
:102B90004000002801DD642802DD0868C36338BDF9
:102BA0000968C86338BD70B52C4D0024287800280A
:102BB0000ED045F28260FEF72FFE2C70394947F6A1
:102BC000FF72B1F9CE0A904202DA401CA1F8CE0A97
:102BD000687820B145F28460FEF71EFE6C70A8781C
:102BE00020B145F28560FEF717FEAC70E87820B1A1
:102BF00045F28660FEF710FEEC70287920B145F2B0
:102C00008760FEF709FE2C71687920B145F2886073
:102C1000FEF702FE6C7100F0FCFDFFF721FDBDE840
:102C2000704002F060BB10B500F0F7FEFFF728FC23
:102C3000BDE8104045F28160FEF7DBBDF965040890
:102C400025732C25642C25733A73746172742041AA
:102C500070702E2E2E2E2E2E0A00000014C0012081
:102C600025732C25642C25733A626F6F746C6F6129
:102C700064206372633A3078253038580A000000C7
:102C800025732C25642C25733A6170702063726360
:102C90003A3078253038580A0000000098010020AA
:102CA000ECC201204803002038B5044600944FF4DC
:102CB0007A730122694608481CF011F9204638BD94
:102CC00008B564230122694603481CF066F99DF8A3
:102CD000000008BD704770475CC2012010B400239B
:102CE000002A0BD910F803C0CC5CA44502D010BC5C
:102CF000002070475B1C9BB29342F3D310BC0120B1
:102D0000704700B583B0B0F5005F02D3012003B077
:102D100000BD4FF47A734FF0010C0293009102460C
:102D2000CDF804C01023A121FA4819F09BFB00281C
:102D3000EDD0F84817F0CBFE03B0F6485DF804EB91
:102D400017F0F7BD00B583B0431CB3F5005F02D3A5
:102D5000012003B000BD4FF47A734FF0020C0293D0
:102D600000910246CDF804C01023A121E94819F0D2
:102D700079FB0028EDD0E74817F0A9FE03B0E5483D
:102D80005DF804EB17F0D5BD00B583B0C31CB3F5F7
:102D9000005F02D3012003B000BD4FF47A734FF0FF
:102DA000040C029300910246CDF804C01023A12127
:102DB000D84819F057FB0028EDD0D64817F087FE09
:102DC00003B0D4485DF804EB17F0B3BD00B583B091
:102DD000B0F5005F02D3012003B000BD4FF47A7359
:102DE0004FF0010C029300910246CDF804C010236D
:102DF000A021C84819F0D9F90028EDD0C54817F02E
:102E000066FE03B0C3485DF804EB17F092BD00B551
:102E100083B0431CB3F5005F02D3012003B000BDB3
:102E20004FF47A734FF0020C029300910246CDF8F2
:102E300004C01023A021B74819F0B7F90028EDD03D
:102E4000B44817F044FE03B0B2485DF804EB17F045
:102E500070BD00B583B0C31C41F6FF7C634502D34F
:102E6000012003B000BD4FF47A734FF0040C0293BD
:102E700000910246CDF804C01023A021A54819F006
:102E800094F90028EDD0A34817F021FE03B0A14823
:102E90005DF804EB17F04DBD70B588B003460C46E5
:102EA00003EB020CBCF5005F02D9012008B070BD35
:102EB0004FEAD20CCDF818C002F007020592079332
:102EC00000210491BDF81020BDF818104FF47A7558
:102ED0008A4220D208260295BDF81C2010230196B4
:102EE0000094A1218B4819F0BDFA28B1894817F048
:102EF000EEFD884817F01DFDBDF81C100831079144
:102F00000834BDF81010491C0491BDF81010BDF82C
:102F100018209142DFD3BDF814100029C6D0BDF8A7
:102F200014000295BDF81C20102300940190A121EB
:102F3000784819F097FA0028B8D0764817F0C7FDFE
:102F400008B07448BDE8704017F0F3BC2DE9F047B5
:102F500084B006460C46B118B1F5005F03D90120D4
:102F600004B0BDE8F087D70802F0070800254FF449
:102F70007A79002F1BD94FF0080A10233246A0217E
:102F80006448CDF804A0CDF80890009419F00DF92C
:102F900028B1604817F09BFD5E4817F0CAFC06F1A7
:102FA00008018EB20834691C8DB2BD42E5D3B8F178
:102FB000000FD5D010233246A0215648CDF80890F6
:102FC000CDF80480009419F0F0F80028C8D05148DA
:102FD00017F07DFD04B04F48BDE8F04717F0A9BCDD
:102FE00010B520231F2200214BA02FF023F94FF40E
:102FF000007340F21F22202150A02FF01BF94FF444
:10300000006340F61F224FF4087155A02FF012F90B
:1030100041F66752D11E5BA02FF00CF941F66B52BE
:10302000D11E60A02FF006F941F66F52D11E65A0A7
:103030002FF000F941F67352D11E6CA02FF0FAF870
:1030400041F67752D11E71A02FF0F4F84FF40073BF
:1030500041F67F724FF4EC5174A02FF0EBF8BDE80D
:103060001040802341F6FF724FF4FC5179A02FF0FD
:10307000E1B838B50021009107280ED2DFE800F052
:103080000D040E34FFFE49000024A0B26946FFF78C
:103090009DFE641CB4F5005FF7D338BD0024A0B2D8
:1030A0006946FFF793FE641C1F2CF8D92024A0B2B8
:1030B0006946FFF78BFE641CB4F5087FF7D341F631
:1030C0006454E51CA0B26946FFF780FE641CAC4264
:1030D000F8D941F66854E51CA0B26946FFF776FEC0
:1030E000641CAC42F8D938BD4FF40874A0B26946EC
:1030F000FFF76CFE641CB4F5226FF7D341F66C54F5
:10310000E51CA0B26946FFF761FE641CAC42F8D929
:1031100038BDD5E0C0C101204D52204550524F4D21
:103120003A3078253034582D2D2D307825303458CC
:103130002873697A653A2564290A0000444D2045C0
:1031400050524F4D3A3078253034582D2D2D30784F
:10315000253034582873697A653A2564290A0000B5
:103160004644204550524F4D3A3078253034582D42
:103170002D2D3078253034582873697A653A2564C6
:10318000290A00004D5220435243204550524F4DD2
:103190003A3078253034582D2D2D3078253034585C
:1031A0000A000000444D20435243204550524F4DE9
:1031B0003A3078253034582D2D2D3078253034583C
:1031C0000A000000464420435243204550524F4DD0
:1031D0003A3078253034582D2D2D3078253034581C
:1031E0002C28756E757365290A0000004D43552023
:1031F000435243204550524F4D3A30782530345891
:103200002D2D2D3078253034580A00004C434420B1
:10321000435243204550524F4D3A30782530345870
:103220002D2D2D3078253034580A0000434F4E465E
:103230004947204550524F4D3A3078253034582D6B
:103240002D2D3078253034582873697A653A2564F5
:10325000290A00004C4F47494E464F204550524FD7
:103260004D3A3078253034582D2D2D307825303496
:10327000582873697A653A2564290A0015E0FFE742
:1032800041F67054E51CA0B26946FFF79FFD641C2F
:10329000AC42F8D941F67454E51CA0B26946FFF778
:1032A00095FD641CAC42F8D938BD4FF4EC54A0B283
:1032B0006946FFF78BFD641CB4F5FC5FF7D338BD9E
:1032C0004FF4FC54A0B26946FFF780FD641CB4F5CE
:1032D000005FF7D338BD0022002907D9835CFF2B9C
:1032E00001D000207047521C8A42F7D3012070475A
:1032F0002DE9F047A2B00026C84D2868816841F04A
:10330000010181600024E846C5481BF091FB009054
:10331000A0B26946FFF75AFD601C80B208F10101B6
:10332000FFF754FDA01C80B208F10201FFF74EFD2B
:10333000E01C80B208F10301FFF748FD0122694655
:10334000B64817F025F88146241DB4F5005FDBD39D
:103350002868816841F001018160002401AFA0B2BA
:1033600001A9FFF7CEFC601C80B2791CFFF7C9FCF5
:10337000A01C80B2B91CFFF7C4FCE01C80B2F91C91
:10338000FFF7BFFC012201A9A44817F001F8241D92
:10339000B4F5005FE3D3484507D1A24B4FF4A972BF
:1033A000A1A1A8A02EF046FF07E09E4B40F25512C7
:1033B0009DA1B0A02EF03EFF00262868816841F054
:1033C00001018160002496481BF032FB0090A0B2FE
:1033D0006946FFF71CFDA01C80B208F10201FFF74F
:1033E00016FD012269468D4816F0D2FF8146241D44
:1033F000B4F5005FE7D32868816841F0010181607E
:103400000024A0B201A9FFF79DFCA01C80B2B91C4A
:10341000FFF798FC012201A9804816F0B9FF241D8E
:10342000B4F5005FEDD3484507D17E4B40F26712FB
:103430007DA19CA02EF0FEFE07E07A4B4FF4B57202
:1034400079A1A4A02EF0F6FE00262868816841F03C
:1034500001018160002441F6FC7771481BF0E8FA15
:103460000090A0B26946FFF7F4FC012269466B4860
:1034700016F08EFF8046241DBC42EED3286881687A
:1034800041F0010181600024A0B201A9FFF77CFC9A
:10349000012201A9614816F07BFF241DBC42F3D331
:1034A000404507D15F4B4FF4BD725FA195A02EF050
:1034B000C1FE07E05B4B40F27D125BA19DA02EF0A8
:1034C000B9FE00264FF080094FF0000A00250024C5
:1034D000EAB2402102A82FF0E5F912941394149453
:1034E000159416941794189419941A941B941C9478
:1034F0001D941E941F942094219409EB85181FFAA3
:1035000088F0402202A9FFF721FD1FFA88F040222F
:1035100012A9FFF7C1FC402212A912A8FFF7DEFB97
:1035200038B9404B40F289123FA18EA02EF082FEA6
:1035300000266D1C4D45CBD3FCF72CFF934B014669
:103540002246C3FB0020C211A2EBE070A0EB0020DA
:103550004218402102A82FF0A5F912941394149454
:10356000159416941794189419941A941B941C94F7
:103570001D941E941F9420942194CAF50054A0B267
:10358000524602A9FFF7E2FCA0B2524612A9FFF789
:1035900083FC402212A912A8FFF7A0FB38B9214BE7
:1035A0004FF4C97220A16FA02EF044FE00261D4BDF
:1035B00040F295121CA176A02EF03CFE002442F2AF
:1035C000107517481BF034FAB0FBF7F107FB110038
:1035D0000090042269464846FFF7B8FC042201A97E
:1035E0004846FFF759FC01990098884207D00D4BD7
:1035F0004FF4CE720CA170A02EF01CFE0026641CAD
:10360000AC42DED3074B4FF4D07207A172A02EF06C
:1036100011FE22B03046BDE8F0870000080000200F
:10362000F8000020026604082E2E5C2E2E5C7350DB
:103630006C63506F72745C73506C634570726F6D25
:103640002E63000025732C25642C25733A6279744F
:10365000652838626974292073657175656E7469AF
:10366000616C2077726974652070617373210D0A33
:103670000000000025732C25642C25733A627974B0
:10368000652838626974292073657175656E74697F
:10369000616C207769727465206661696C210D0A1E
:1036A0000000000025732C25642C25733A68776F81
:1036B0007264283136626974292073657175656E8C
:1036C0007469616C2077726974652070617373210D
:1036D0000D0A000025732C25642C25733A686F773A
:1036E0007264283136626974292073657175656E5C
:1036F0007469616C207769727465206661696C21F8
:103700000D0A000025732C25642C25733A64776F0D
:103710007264283332626974292073657175656E2D
:103720007469616C207772697465207061737321AC
:103730000D0A000025732C25642C25733A64776FDD
:103740007264283332626974292073657175656EFD
:103750007469616C207769727465206661696C2197
:103760000D0A000025732C25642C25733A626C6FBA
:10377000636B2073657175656E7469616C20577237
:10378000697465206661696C210D0A008180808002
:1037900025732C25642C25733A626C6F636B207340
:1037A000657175656E7469616C2057726974652006
:1037B00070617373210D0A0025732C25642C257309
:1037C0003A72616E646F6D2077726974652066610C
:1037D000696C210D0A00000025732C25642C2573CB
:1037E0003A72616E646F6D207772697465207061E2
:1037F0007373210D0A00000010B580215D482FF081
:1038000059F8BDE810405C4B07225CA162A02EF085
:1038100011BD70B5674E4FF40071304614F028FDAD
:10382000654D544C38B194F9001011F1080F10DDBA
:10383000481E207013E094F90010082902DA481C91
:1038400020700CE0B5F8300A40F00100A5F8300A0D
:1038500005E0B5F8300A20F00100A5F8300A4FF471
:103860000041564814F004FD38B194F9011011F1EB
:10387000080F10DD481E607013E094F9011008294C
:1038800002DA481C60700CE0B5F8300A40F0020023
:10389000A5F8300A05E0B5F8300A20F00200A5F8D6
:1038A000300A4021464814F0E3FC38B194F9020094
:1038B00010F1080F10DD401EA07013E094F9021003
:1038C000082902DA481CA0700CE0B5F8300A40F074
:1038D0000400A5F8300A05E0B5F8300A20F004002D
:1038E000A5F8300A4FF40051304614F0C1FC01280D
:1038F00007D094F9030010F1080F10DD401EE070AE
:1039000013E094F90300082802DA401CE0700CE090
:10391000B5F8300A40F00800A5F8300A05E0B5F81F
:10392000300A20F00800A5F8300A2649B5F9780ACF
:10393000B1F9421088420DDC94F90400082802DA3B
:10394000401C207170BDB5F8300A40F01000A5F899
:10395000300A70BD94F9040010F1080F02DD401E1A
:10396000207170BDB5F8300A20F01000A5F8300ABB
:1039700070BD0000283A0020106604082E2E5C2E30
:103980002E5C73506C63506F72745C73506C63493F
:103990006F496E2E6300000025732C25642C25735F
:1039A0003A696E70757420696E69742E2E2E2E2EF3
:1039B0002E0A0000000802404803002000000240D8
:1039C00000040240ECC2012010B550490020A1F8CB
:1039D000400A002240214E4814F051FC08214D4875
:1039E0000DF084FB04214B480DF080FB0C2149486D
:1039F0000DF07CFB484C00220121204614F03FFCD6
:103A000001220221204614F03AFCBDE81040434B4D
:103A10000D2243A149A02EF00DBC10B54FF4A440D7
:103A2000FDF737FF18B104213A480DF0F6FA4FF4CC
:103A3000A440FDF749FF18B1042136480DF056FBAC
:103A400045F20120FDF725FF18B1082131480DF09E
:103A5000E4FA45F20120FDF737FF18B108212D489F
:103A60000DF044FB45F20220FDF713FF18B10C21C5
:103A700028480DF0D2FA45F20220FDF725FF18B1D3
:103A80000C2124480DF032FB45F20320FDF701FF25
:103A9000214C20B101221146204614F0F0FB45F2E2
:103AA0000320FDF711FF20B100220121204614F070
:103AB000E6FB45F20420FDF7ECFE20B101220221D5
:103AC000204614F0DCFB45F20420FDF7FDFE20B19A
:103AD00001220221204614F0D2FB45F20620FDF718
:103AE000D8FE0B4C20B101224021204614F0C7FB28
:103AF00045F20620FDF7E8FE002806D02046002209
:103B0000BDE81040402114F0BABB10BD48030020AE
:103B10000008024098010020000402401E660408CC
:103B20002E2E5C2E2E5C73506C63506F72745C731F
:103B3000506C63496F4F75742E63000025732C25FC
:103B4000642C25733A6F757470757420696E69748E
:103B50002E2E2E2E2E2E0A0010B5844B7F2284A1ED
:103B60008AA02EF067FB8F4CB4F84000022807D1E2
:103B7000B4F94200022803DC1520A4F8CC0A0BE0BB
:103B800042F21720FDF75FFE18B11420A4F8CC0A0A
:103B900002E01220A4F8CC0A40F24C40A4F8CA0A71
:103BA000B4F84400A4F8C80A0020A4F8CE0A7E495C
:103BB0008880488148828870C8707C49096848625A
:103BC000BDE8104079480CF0DFBC10B5002800DAE1
:103BD0000020774909688863734C30B10421744828
:103BE0000DF01BFA0120207010BD042170480DF06B
:103BF0007DFA0020207010BD70B56B4CA0780128B4
:103C000017D16C4D00228021284614F038FB002289
:103C10008021284614F033FB62486749B0F846001B
:103C200091F9411010FB01F000B2FFF7CEFF002028
:103C3000A07070BD10B5614B97224DA160A02EF011
:103C4000F9FA5A4800240068446258480CF0E1FC34
:103C5000FFF7D2FF54488480448184700121C170F1
:103C600010BD10B5534C00228021204614F007FBF4
:103C700000228021204614F002FB0020FFF7A5FF60
:103C80004948002141708180C18001814181818149
:103C9000C181018241828170C170BDE810404E4BEC
:103CA000B02233A14DA02EF0C5BA70B53E4DA87814
:103CB000002825D13B4C3F4E94F8EE0410F0010F44
:103CC00004D001228021304614F0D9FA94F8EE1481
:103CD00011F0020F04D001228021304614F0CFFAF7
:103CE00094F8EE0410F0050F08D0B4F8FA044FF47D
:103CF0007A7110FB01F000B2FFF767FF0120A87096
:103D000070BD10B5284C204694F90110B0F904009C
:103D1000012922D002291FD1002805DBB4F90610A1
:103D2000884201DAFFF7C1FFB4F90400B4F90610C4
:103D3000884205DBB4F90810884201DAFFF75CFF1E
:103D4000B4F90400B4F90810884202DB4FF0FF30E8
:103D5000A080A088401CA08010BD0028FCD1FFF7E7
:103D6000A4FFA088401CA08010BD00002D660408A0
:103D70002E2E5C2E2E5C73506C63506F72745C73CD
:103D8000506C634C617365722E63000025732C25A3
:103D9000642C25733A6C617365722073746172745C
:103DA000210A0000480300201800002028020020FB
:103DB0007002002000080240ECC2012033660408B3
:103DC00025732C25642C25733A6C617365722073FE
:103DD000746F70210A0000003966040825732C25D1
:103DE000642C25733A6C617365722074696D657219
:103DF00020696E69742E2E2E2E2E2E0A00000000D1
:103E0000002000BF00BF00BF00BF00BF00BF00BF59
:103E100000BF00BF00BF401CB0F57A7FF1D37047F0
:103E200010B588B00024019402940394049405947E
:103E300006940794FA48F94901604460846040F6AA
:103E40001F51C160046184610DF08AF86020019007
:103E50004FF4D260029003940594002201A9F04827
:103E60000EF065FF08B010BD2DE9F04186B00026C8
:103E7000EC4C206840F001002060206800F0010058
:103E80000090DFF8A4830022A114404614F0F7F953
:103E9000A01401900127029702250395049601A919
:103EA000404614F037F80022A114404614F0E7F918
:103EB0006420FFF7A5FF01221103404614F0DFF94B
:103EC0006420FFF79DFFA114404614F030F92068EC
:103ED00020F001002060206840F040002060206851
:103EE00000F040000090DFF844830022A115404616
:103EF00014F0C5F9A015019002970395049601A945
:103F0000404614F007F8C820FFF77AFFA114404696
:103F100014F00DF9206820F040002060201D016899
:103F200021F080010160432014F004FE432014F0CE
:103F3000DBFE06B0BDE8F08110B592B00024079416
:103F400008940B940C940D940E940F941094119467
:103F500001940294039404940594B54804600121EB
:103F60000160B44804660460B348026822F08052DD
:103F70000260026842F080520260006800F08050E7
:103F80000090AE48026842F480420260006800F48B
:103F90008040009002200690099110200A9006A807
:103FA00013F034F808B1FCF72FFA0F2001900294B7
:103FB00003944FF4805004900594002101A813F05D
:103FC00095FA002801D0FCF71FFA12B010BD10B509
:103FD00014F005FF9A48FCF7B3FC9A48FCF716FE6C
:103FE0009948FDF7E8F88E48FDF7E5F89748FDF7A2
:103FF000E2F89748FDF7DFF89648FDF7DCF89648B9
:10400000FCF7BFFD9548FDF70BFA9548FDF708FA58
:104010009448FDF705FA9448FCF741FC9348FCF7F7
:10402000C4FC934826F096FDFFF786FFFFF71CFFC0
:1040300062B610BD1DF0BBBBF8B504468D4DB5F999
:104040000000A04228D0642C00DD6424002C00DA9B
:104050000024002C04DC002171480DF047F813E027
:10406000601E6F4E632806D2002130460CF0D5FF4B
:104070003068446308E0642C06DB002168480CF0DB
:10408000CCFF3168642048632C807B4BB1227BA13C
:1040900081A000942EF0CEF8F8BD10B530381E285F
:1040A00080F0DA85DFE810F01E006C000401520198
:1040B000A001EE013C028A02D8022903D805D805E6
:1040C000D805D805D805D805D80577039503D303B7
:1040D00011043F044D048B04B904F804150552057E
:1040E0007F05BC05082159480CF097FF4FF49670E6
:1040F0001DF05DFB082155480CF0F8FF40F6B83084
:104100001DF055FB082151480CF087FF4FF46170FA
:104110001DF04DFB08214D480CF0E8FF40F6B8308B
:104120001DF045FB082149480CF077FF4FF4617002
:104130001DF03DFB082145480CF0D8FF40F6B83093
:104140001DF035FB082141480CF067FF4FF461700A
:104150001DF02DFB08213D480CF0C8FF40F6B8309B
:104160001DF025FB082139480CF057FF4FF4617012
:104170001DF01DFB082135480CF0B8FF00F06CBDA8
:10418000082132480CF049FF4FF496701DF00FFBE8
:1041900008212E480CF0AAFF40F6B8301DF007FBAE
:1041A00008212A480CF039FF4FF461701DF0FFFA26
:1041B000082126480CF09AFF40F6B8301DF0F7FAB7
:1041C000082122480CF029FF4FF461701DF0EFFA2E
:1041D00008211E480CF08AFF40F6B8301DF0E7FABF
:1041E00008211A480CF019FF4FF461701DF0DFFA36
:1041F000082116480CF07AFF40F6B8301DF0D7FAC7
:10420000082112480CF009FF4FF461701DF0CFFA3D
:1042100008210E480CF06AFF00F01EBD00040040AB
:1042200050010020303802400000024000180240D7
:10423000400E4742000047424038024000700040B4
:1042400008000020F800002008010020980100204C
:1042500028020020B8020020C0C101205CC2012059
:10426000A4C2012014C2012004C10120ACC101205C
:10427000942F01202C000020476604082E2E5C2E6F
:104280002E5C73506C63506F72745C73506C634D32
:104290006973632E6300000025732C25642C25733D
:1042A0003A7365742066616E3A25640A0000000066
:1042B0000821FE480CF0B1FE4FF496701DF077FA1D
:1042C0000821FA480CF012FF40F6B8301DF06FFAE2
:1042D0000821F6480CF0A1FE4FF496701DF067FA25
:1042E0000821F2480CF002FF40F6B8301DF05FFAEA
:1042F0000821EE480CF091FE4FF461701DF057FA62
:104300000821EA480CF0F2FE40F6B8301DF04FFAF2
:104310000821E6480CF081FE4FF461701DF047FA69
:104320000821E2480CF0E2FE40F6B8301DF03FFAFA
:104330000821DE480CF071FE4FF461701DF037FA71
:104340000821DA480CF0D2FE00F086BC0821D748DC
:104350000CF063FE4FF496701DF029FA0821D34843
:104360000CF0C4FE40F6B8301DF021FA0821CF4809
:104370000CF053FE4FF496701DF019FA0821CB484B
:104380000CF0B4FE40F6B8301DF011FA0821C74811
:104390000CF043FE4FF461701DF009FA0821C34888
:1043A0000CF0A4FE40F6B8301DF001FA0821BF4819
:1043B0000CF033FE4FF461701DF0F9F90821BB4891
:1043C0000CF094FE40F6B8301DF0F1F90821B74822
:1043D0000CF023FE4FF461701DF0E9F90821B34899
:1043E0000CF084FE00F038BC0821B0480CF015FE3B
:1043F0004FF496701DF0DBF90821AC480CF076FE06
:1044000040F6B8301DF0D3F90821A8480CF005FE9D
:104410004FF496701DF0CBF90821A4480CF066FE0D
:1044200040F6B8301DF0C3F90821A0480CF0F5FDA6
:104430004FF461701DF0BBF908219C480CF056FE4A
:1044400040F6B8301DF0B3F9082198480CF0E5FDAE
:104450004FF496701DF0ABF9082194480CF046FE1D
:1044600040F6B8301DF0A3F9082190480CF0D5FDB6
:104470004FF461701DF09BF908218C480CF036FE5A
:1044800000F0EABB082189480CF0C7FD4FF4967094
:104490001DF08DF9082185480CF028FE40F6B83053
:1044A0001DF085F9082181480CF0B7FD4FF4967096
:1044B0001DF07DF908217D480CF018FE40F6B8305B
:1044C0001DF075F9082179480CF0A7FD4FF496709E
:1044D0001DF06DF9082175480CF008FE40F6B83063
:1044E0001DF065F9082171480CF097FD4FF49670A6
:1044F0001DF05DF908216D480CF0F8FD40F6B8306C
:104500001DF055F9082169480CF087FD4FF49670AD
:104510001DF04DF9082165480CF0E8FD00F09CBB4A
:10452000082162480CF079FD4FF461701DF03FF9ED
:1045300008215E480CF0DAFD40F6B8301DF037F97E
:1045400008215A480CF069FD4FF496701DF02FF9C0
:10455000082156480CF0CAFD40F6B8301DF027F986
:10456000082152480CF059FD4FF496701DF01FF9C8
:1045700008214E480CF0BAFD40F6B8301DF017F98E
:1045800008214A480CF049FD4FF496701DF00FF9D0
:10459000082146480CF0AAFD40F6B8301DF007F996
:1045A000082142480CF039FD4FF496701DF0FFF8D9
:1045B00008213E480CF09AFD00F04EBB08213B4814
:1045C0000CF02BFD4FF461701DF0F1F80821374815
:1045D0000CF08CFD40F6B8301DF0E9F808213348A6
:1045E0000CF01BFD4FF461701DF0E1F808212F481D
:1045F0000CF07CFD40F6B8301DF0D9F808212B48AE
:104600000CF00BFD4FF496701DF0D1F808212748EF
:104610000CF06CFD40F6B8301DF0C9F808212348B5
:104620000CF0FBFC4FF496701DF0C1F808211F48F8
:104630000CF05CFD40F6B8301DF0B9F808211B48BD
:104640000CF0EBFC4FF496701DF0B1F80821174800
:104650000CF04CFD00F000BB082114480CF0DDFC10
:104660004FF461701DF0A3F8082110480CF03EFDD6
:1046700040F6B8301DF09BF808210C480CF0CDFC3A
:104680004FF461701DF093F8082108480CF02EFDDE
:1046900040F6B8301DF08BF8082104480CF0BDFC42
:1046A0004FF461701DF083F8082101E098010020AB
:1046B000F8480CF01BFD40F6B8301DF078F80821E2
:1046C000F4480CF0AAFC4FF496701DF070F8082125
:1046D000F0480CF00BFD40F6B8301DF068F80821EA
:1046E000EC480CF09AFC4FF496701DF060F808212D
:1046F000E8480CF0FBFC00F0AFBA0821E5480CF0EC
:104700008CFC4FF461701DF052F80821E1480CF068
:10471000EDFC40F6B8301DF04AF80821DD480CF0F9
:104720007CFC4FF461701DF042F80821D9480CF070
:10473000DDFC40F6B8301DF03AF80821D5480CF001
:104740006CFC4FF461701DF032F80821D1480CF078
:10475000CDFC40F6B8301DF02AF80821CD480CF009
:104760005CFC4FF461701DF022F80821C9480CF080
:10477000BDFC40F6B8301DF01AF80821C5480CF011
:104780004CFC4FF496701DF012F80821C1480CF053
:10479000ADFC00F061BA0821BE480CF03EFC4FF4BD
:1047A00096701DF004F80821BA480CF09FFC40F602
:1047B000B8301CF0FCFF0821B6480CF02EFC4FF47A
:1047C00061701CF0F4FF0821B2480CF08FFC00F07F
:1047D00043BA0821AF480CF020FC4FF461701CF084
:1047E000E6FF0821AB480CF081FC40F6B8301CF025
:1047F000DEFF0821A7480CF010FC4FF496701CF067
:10480000D6FF0821A3480CF071FC40F6B8301CF02C
:10481000CEFF08219F480CF000FC4FF496701CF06E
:10482000C6FF08219B480CF061FC40F6B8301CF034
:10483000BEFF082197480CF0F0FB4FF496701CF077
:10484000B6FF082193480CF051FC00F005BA08218E
:1048500090480CF0E2FB4FF461701CF0A8FF0821B7
:104860008C480CF043FC40F6B8301CF0A0FF082147
:1048700088480CF0D2FB4FF496701CF098FF08218A
:1048800084480CF033FC40F6B8301CF090FF08214F
:1048900080480CF0C2FB4FF461701CF088FF0821C7
:1048A0007C480CF023FC40F6B8301CF080FF082157
:1048B00078480CF0B2FB4FF496701CF078FF08219A
:1048C00074480CF013FC00F0C7B9082171480CF0D3
:1048D000A4FB4FF461701CF06AFF08216D480CF0D6
:1048E00005FC40F6B8301CF062FF082169480CF066
:1048F00094FB4FF496701CF05AFF082165480CF0A9
:10490000F5FB40F6B8301CF052FF082161480CF06E
:1049100084FB4FF496701CF04AFF08215D480CF0B0
:10492000E5FB00F099B908215A480CF076FB4FF4EA
:1049300096701CF03CFF082156480CF0D7FB00F0A5
:104940008BB9082153480CF068FB4FF496701CF0AB
:104950002EFF08214F480CF0C9FB40F6B8301CF080
:1049600026FF08214B480CF058FB4FF496701CF0C2
:104970001EFF082147480CF0B9FB40F6B8301CF088
:1049800016FF082143480CF048FB4FF461701CF0FF
:104990000EFF08213F480CF0A9FB40F6B8301CF090
:1049A00006FF08213B480CF038FB4FF496701CF0D2
:1049B000FEFE082137480CF099FB00F04DB90821A4
:1049C00034480CF02AFB4FF461701CF0F0FE082113
:1049D00030480CF08BFB40F6B8301CF0E8FE0821A4
:1049E0002C480CF01AFB4FF461701CF0E0FE08211B
:1049F00028480CF07BFB40F6B8301CF0D8FE0821AC
:104A000024480CF00AFB4FF496701CF0D0FE0821ED
:104A100020480CF06BFB00F01FB908211D480CF07A
:104A2000FCFA4FF496701CF0C2FE082119480CF0F5
:104A30005DFB40F6B8301CF0BAFE082115480CF0BA
:104A4000ECFA4FF496701CF0B2FE082111480CF0FD
:104A50004DFB40F6B8301CF0AAFE08210D480CF0C2
:104A6000DCFA4FF496701CF0A2FE082109480CF005
:104A70003DFB40F6B8301CF09AFE082105480CF0CA
:104A8000CCFA4FF496701CF092FE082101480CF00D
:104A90002DFBE1E09801002008217F480CF0BDFAD1
:104AA0004FF496701CF083FE08217B480CF01EFB2F
:104AB00040F6B8301CF07BFE082177480CF0ADFAC8
:104AC0004FF496701CF073FE082173480CF00EFB37
:104AD000C2E0082170480CF0A0FA4FF496701CF068
:104AE00066FE08216C480CF001FB40F6B8301CF063
:104AF0005EFE082168480CF090FA4FF461701CF0DB
:104B000056FE082164480CF0F1FA40F6B8301CF06B
:104B10004EFE082160480CF080FA4FF461701CF0E2
:104B200046FE08215C480CF0E1FA40F6B8301CF073
:104B30003EFE082158480CF070FA4FF461701CF0EA
:104B400036FE082154480CF0D1FA85E0082152487D
:104B50000CF063FA4FF461701CF029FE08214E48F6
:104B60000CF0C4FA40F6B8301CF021FE08214A4887
:104B70000CF053FA4FF496701CF019FE08214648C9
:104B80000CF0B4FA40F6B8301CF011FE082142488F
:104B90000CF043FA4FF461701CF009FE08213E4806
:104BA0000CF0A4FA58E008213B480CF036FA4FF418
:104BB00096701CF0FCFD082137480CF097FA40F67F
:104BC000B8301CF0F4FD082133480CF026FA4FF4FD
:104BD00061701CF0ECFD08212F480CF087FA40F6BC
:104BE000B8301CF0E4FD08212B480CF016FA4FF405
:104BF00096701CF0DCFD082127480CF077FA40F68F
:104C0000B8301CF0D4FD082123480CF006FA4FF40C
:104C100096701CF0CCFD08211F480CF067FA1BE0D1
:104C200008211D480CF0F9F94FF461701CF0BFFD2C
:104C3000082119480CF05AFA40F6B8301CF0B7FDBC
:104C4000082115480CF0E9F94FF461701CF0AFFD34
:104C5000082111480CF04AFABDE8104040F6B8307F
:104C60001CF0A5BD70B5FCF78FFD4FF000640B4D37
:104C70002078FCF77DFD641CAC42F9D370BD70B5A3
:104C8000FCF782FD064C074D2078FCF771FD641C93
:104C9000AC42F9D370BD000098010020FFFF00086E
:104CA00000000108FFFF0F0830B587B0054600245B
:104CB000009401940294039404940594069412F0D1
:104CC00018FD53215422B0FBF2F0B0FBF5F0451E65
:104CD000BF481207026041608460C560046184615E
:104CE0000CF03EF920B1BBA02DF0A4FAFBF78CFB31
:104CF00060200090680801900294049404226946A0
:104D0000B3480EF014F8002804D0BAA02DF092FA9F
:104D1000FBF77AFB07B030BD10B5BE4C20780028F9
:104D200006D001224021BC4813F0A9FA00202070CF
:104D300010BD70B50446B94E01221146304613F03D
:104D40009EFA00BF00BF00BF00BF00BF00BF00BF92
:104D500000BF00BF00BF00BF00BF00BF00BF00BF5B
:104D600000BF00BF00BF00BF00BF00BF00BF00BF4B
:104D700000BF00BF00BF00BF00BF00BF00BF00BF3B
:104D800000BF00BF00BF00BF00BF00BF00BF00BF2B
:104D900000BF00220121304613F071FA04F588505B
:104DA00085B200BF00BF00BF00BF00BF00BF00BF93
:104DB00000BF00BF00BF0024C4F10F0025FA00F0BF
:104DC00000F001024FF48041304613F058FA00BF62
:104DD00000BF00BF00BF00BF00BF00BF00BF00BFDB
:104DE00000BF00BF00BF00BF00BF00BF00BF00BFCB
:104DF00000BF00BF00BF00BF00BF00BF00BF00BFBB
:104E000000BF00BF00BF00BF00BF00BF00BF00BFAA
:104E100000BF00BF00BF00BF00BF00BF00BF012236
:104E2000D103304613F02BFA00BF00BF00BF00BF14
:104E300000BF00BF00BF00BF00BF00BF00BF00BF7A
:104E400000BF00BF00BF00BF00BF00BF00BF00BF6A
:104E500000BF00BF00BF00BF00BF00BF00BF00BF5A
:104E600000BF00BF00BF00BF00BF00BF00BF00BF4A
:104E700000BF00BF00BF00BF00224FF4004130461A
:104E800013F0FDF900BF00BF00BF00BF00BF00BFAF
:104E900000BF00BF00BF00BF00BF00BF00BF00BF1A
:104EA00000BF00BF00BF00BF00BF00BF00BF00BF0A
:104EB00000BF00BF00BF00BF00BF00BF00BF00BFFA
:104EC00000BF00BF00BF00BF00BF00BF00BF00BFEA
:104ED00000BF00BF601C84B2102CFFF46DAF00BF98
:104EE00000BF00BF00BF00BF00BF00BF00BF00BFCA
:104EF00000BF00BF00BF00BF00BF00BF00BF00BFBA
:104F000000BF00BF00BF00BF00BF00BF00BF00BFA9
:104F100000BF00BF00BF00BF00BF00BF00BF00BF99
:104F200000BF00BF00BF00BF00BF00BF00BF012225
:104F30003046BDE87040114613F0A1B910B545F2F6
:104F4000A060FCF756FC3648B0F94400314991F9AD
:104F50000110814220D03349C0EB002081FB0010BA
:104F60004111A1EBE07000EE100AB8EEC00A2E4924
:104F700010EE100A884201DD9FED2C0AB5EEC00A42
:104F8000F1EE10FA01D29FED2A0ABDEEC00A10EE32
:104F9000100AC0B2FFF7CDFEFFF7BEFE40F24C4054
:104FA000FFF782FEBDE81040224B0B2222A12AA06F
:104FB0002DF040B910B5174C2078012806D00022FA
:104FC0004021154813F05BF90120207010BD00004E
:104FD0000801002072655365742054494D322062E7
:104FE00061736520636C6B206661696C2121210A05
:104FF0000000000072655365742054494D32206FE3
:1050000075742066726571206661696C2121210AC0
:105010000000000024C001200000024000080240FF
:10502000480300201F85EB5100007F4300007F43B1
:1050300000000000536604082E2E5C2E2E5C735078
:105040006C63506F72745C73506C63537065616B0A
:1050500065722E630000000025732C25642C2573D7
:105060003A737065616B657220646D6120696E6969
:10507000742E2E2E2E2E2E0A0000000010B5694828
:105080000BF082FA68490020087068490870684986
:10509000087068490870684908706849088068495C
:1050A000088068490880684908806849088068491C
:1050B000088068490860BDE81040674B132267A16B
:1050C0006DA02DF0B7B857480BF0A3BA55480BF0B8
:1050D0005BBA2DE9F05F4FF48B646F4F44F26806C2
:1050E00047F6FF790025A01980B2FCF7ACFB38B178
:1050F00037F91400484505DA401C27F8140001E090
:1051000027F81450601C84B2B4F5936FEBD3DFF82A
:105110002CA14FF00108BAF800000A281AD94FF460
:105120009364A01980B2FCF78EFB38B137F91400F4
:10513000484505DA401C27F8140001E027F8145010
:10514000601C84B2B4F59B6FEBD3374880F80080C5
:10515000AAF80050DFF8E8B0BBF8000064281BD9BB
:105160004FF49B64A01980B2FCF76DFB38B137F99E
:105170001400484505DA401C27F8140001E027F820
:105180001450601C84B240F217508442EAD327487E
:1051900080F80080ABF800502A490888C82803D955
:1051A000234880F800800D80274A1088B0F5FA7FE8
:1051B00003D9204880F800801580244B1888B0F56A
:1051C0007A7F03D91C4880F800801D80DFF880C0FA
:1051D0004EF66024BCF80000A04204D92F4880F8A5
:1051E0000080ACF80050BAF80000401CAAF800009B
:1051F000BBF80000401CABF800000888401C088089
:105200001088401C10801888401C1880BCF80000D2
:10521000401CACF800000F480168491C0160BDE863
:10522000F09F0000B802002014C0012015C001202A
:1052300016C0012017C0012018C001200CC0012099
:105240000EC001201000002010C00120120000201C
:1052500012C0012028C00120636604082E2E5C2E97
:105260002E5C73506C63506F72745C73506C63543B
:10527000696D65722E63000025732C25642C2573DF
:105280003A73706C632074696D657220696E69741D
:105290002E2E2E2E2E2E0A004803002019C001208B
:1052A00010B5C04900200870A021BF482DF002FBB6
:1052B000A021BE482DF0FEFA5022BB49BC4814F094
:1052C00022FABDE81040BB4B0D22BBA1C1A02CF0BF
:1052D000B1BF0068A0F18041B1F5903102D1B14970
:1052E000012048707047F0B52DED028B8BB0AD4FAB
:1052F00078780028FCD000267E703878BD4CB4EE5B
:10530000008A6D4600287DD0A94814F0C9FA5022C1
:10531000A549A74814F0F7F93E7000960196029649
:105320000396049605960696079608960996002019
:105330009E4A002101EB810C00EB4C0C55F820300B
:1053400032F81CC0634445F82030491CC9B2082912
:10535000F0D3401CC0B20A28EBD39DED000AB8EE92
:10536000400A20EE080ABCEEC00A10EE100AA4F8AB
:10537000760A9DED010AB8EE400A20EE080ABCEE5E
:10538000C00A10EE100AA4F8740A9DED020AB8EEE5
:10539000400A20EE080ABCEEC00A10EE100AA4F87B
:1053A000660A9DED030AB8EE400A20EE080ABCEE3C
:1053B000C00A10EE100AA4F8680A9DED040AB8EEBF
:1053C000400A20EE080ABCEEC00A10EE100AA4F84B
:1053D000780A9DED050AB8EE400A20EE080ABCEEF8
:1053E000C00A10EE100AA4F87C0A9DED060AB8EE79
:1053F000400A20EE080ABCEEC00A10EE100AA4F81B
:105400007E0A00E027E09DED070AB8EE400A20EE94
:10541000080ABCEEC00A10EE100AA4F8800A9DED3E
:10542000080AB8EE400A20EE080ABCEEC00A10EEE8
:10543000100AA4F8820A9DED090AB8EE400A20EE8F
:10544000080ABCEEC00A10EE100AA4F8840A0BB0D9
:10545000BDEC028BF0BD564814F022FA502253499D
:10546000534814F050F901203870009601960296C6
:1054700003960496059606960796089609960020C8
:10548000494A002101EB810C00EB4C0C55F820300F
:1054900032F81CC0634445F82030491CC9B20829C1
:1054A000F0D3401CC0B20A28EBD39DED000AB8EE41
:1054B000400A20EE080ABCEEC00A10EE100AA4F85A
:1054C000760A9DED010AB8EE400A20EE080ABCEE0D
:1054D000C00A10EE100AA4F8740A9DED020AB8EE94
:1054E000400A20EE080ABCEEC00A10EE100AA4F82A
:1054F000660A9DED030AB8EE400A20EE080ABCEEEB
:10550000C00A10EE100AA4F8680A9DED040AB8EE6D
:10551000400A20EE080ABCEEC00A10EE100AA4F8F9
:10552000780A9DED050AB8EE400A20EE080ABCEEA6
:10553000C00A10EE100AA4F87C0A9DED060AB8EE27
:10554000400A20EE080ABCEEC00A10EE100AA4F8C9
:105550007E0A9DED070AB8EE400A20EE080ABCEE6E
:10556000C00A10EE100AA4F8800A9DED080AB8EEF1
:10557000400A20EE080ABCEEC00A10EE100AA4F899
:10558000820A9DED090AB8EE400A20EE080ABCEE38
:10559000C00A10EE100AA4F8840A0BB0BDEC028B0E
:1055A000F0BD00002E000020A83A0020483B00205B
:1055B00004C10120716604082E2E5C2E2E5C7350EF
:1055C0006C63506F72745C73506C634164632E63E0
:1055D0000000000025732C25642C25733A73746138
:1055E00072742061646320696E69742E2E2E2E2ED3
:1055F0002E0A00004803002070B5C0F30904A24E33
:1056000001221103304612F03AFE00BF00BF00BF76
:1056100000BF00BF00BF00BF00BF00BF00BF00BF92
:1056200000BF00BF00BF00BF00BF00BF00BF00BF82
:1056300000BF00BF00BF00BF00BF00BF00BF00BF72
:1056400000BF00BF00BF00BF00BF00BF00BF00BF62
:1056500000BF00BF00BF00BF00BF00224FF4805159
:10566000304612F00CFE4FF6FF7000EA840500BFD2
:1056700000BF00BF00BF00BF00BF00BF00BF00BF32
:1056800000BF0024C4F10F0025FA00F000F0010271
:105690004FF48041304612F0F2FD00BF00BF00BF62
:1056A00000BF00BF00BF00BF00BF00BF00BF00BF02
:1056B00000BF00BF00BF00BF00BF00BF00BF00BFF2
:1056C00000BF00BF00BF00BF00BF00BF00BF00BFE2
:1056D00000BF00BF00BF00BF00BF00BF00BF00BFD2
:1056E00000BF00BF00BF00BF00BF01225103304612
:1056F00012F0C5FD00BF00BF00BF00BF00BF00BF6C
:1057000000BF00BF00BF00BF00BF00BF00BF00BFA1
:1057100000BF00BF00BF00BF00BF00BF00BF00BF91
:1057200000BF00BF00BF00BF00BF00BF00BF00BF81
:1057300000BF00BF00BF00BF00BF00BF00BF00BF71
:1057400000BF00BF00224FF40051304612F097FD19
:1057500000BF00BF00BF00BF00BF00BF00BF00BF51
:1057600000BF00BF00BF00BF00BF00BF00BF00BF41
:1057700000BF00BF00BF00BF00BF00BF00BF00BF31
:1057800000BF00BF00BF00BF00BF00BF00BF00BF21
:1057900000BF00BF00BF00BF00BF00BF00BF00BF11
:1057A000601C84B2102CFFF46DAF00BF00BF00BFBF
:1057B00000BF00BF00BF00BF00BF00BF00BF00BFF1
:1057C00000BF00BF00BF00BF00BF00BF00BF00BFE1
:1057D00000BF00BF00BF00BF00BF00BF00BF00BFD1
:1057E00000BF00BF00BF00BF00BF00BF00BF00BFC1
:1057F00000BF00BF00BF00BF00BF01223046BDE8B0
:105800007040110312F03BBD10B500231A46194633
:105810001E4814F060FF00231A4610211B4814F0A4
:105820005AFF0021194814F00EFEBDE81040002078
:10583000E2E61748B0F88C0AC0F30B0300221146C9
:10584000124814F048BF1248B0F88E0AC0F30B0398
:10585000002210210D4814F03EBF0D48B0F89A0AFE
:10586000C0F30B00C8E610B500231A4619460748D6
:1058700014F031FF012300221021044814F02BFF03
:10588000BDE810400020B7E600040240ACC1012092
:105890004803002030490020488008802F49486094
:1058A000088070472C4B1A88511CC1F30B01B3F8C8
:1058B00002C08C4504D003F1040C02F80C001980DE
:1058C0007047254A51881388994206D0131DCB5C36
:1058D0000370481CC0F30B00508070471E480188BD
:1058E0004088081A00F58050C11700EB11516FF382
:1058F0000B01401A80B270472DE9F84304460D466B
:1059000000270097FFF7EAFF18B3144E6FF44038F2
:105910006846FFF7D6FF32881AB99DF80000EE28D6
:1059200013D1AA4204D29DF80010501C3080A1541B
:105930009DF80000716840EA01227260424504D17E
:10594000308877603780BDE8F883FFF7C7FF00280D
:10595000DED10020BDE8F883E83B002030000020C5
:10596000002807DD4FF47A71491E0029FCDC401E37
:105970000028F7DC704710B504462078002806D0D0
:10598000207802F079FA641C20780028F8D110BD44
:1059900070B506460D460024002D06D9305D02F094
:1059A0006BFA601C84B2AC42F8D370BD70B505468A
:1059B0000E460024002E0CD935F81400000A02F01F
:1059C0005BFA15F8140002F057FA601C84B2B44276
:1059D000F2D370BD10B5EE2002F04EFA042002F0B2
:1059E0004BFAFF2002F048FAFC2002F045FAFF20B3
:1059F00002F042FABDE81040FF2002F03DBA10B5B7
:105A00000446EE2002F038FA412002F035FA200A6E
:105A100002F032FAE0B202F02FFAFF2002F02CFA84
:105A2000FC2002F029FAFF2002F026FABDE810401F
:105A3000FF2002F021BA10B50446EE2002F01CFA55
:105A4000422002F019FA200A02F016FAE0B202F03F
:105A500013FAFF2002F010FAFC2002F00DFAFF20EA
:105A600002F00AFABDE81040FF2002F005BA70B556
:105A700006460C461546EE2002F0FEF9A32002F081
:105A8000FBF9304602F0F8F9200A02F0F5F9E0B22D
:105A900002F0F2F9280A02F0EFF9E8B202F0ECF9AC
:105AA000FF2002F0E9F9FC2002F0E6F9FF2002F005
:105AB000E3F9BDE87040FF2002F0DEB910B5EE203A
:105AC00002F0DAF9012002F0D7F9FF2002F0D4F950
:105AD000FC2002F0D1F9FF2002F0CEF9BDE8104021
