:020000040801F1
:10000000389A01206D03010829A50108598F0108BC
:1000100025A50108592F01080D5102080000000014
:10002000000000000000000000000000AD02010818
:10003000B5320108000000000903010845DB010892
:100040008703010887030108870301088703010864
:100050008703010887030108870301088703010854
:100060008703010887030108870301088703010844
:100070008703010887030108870301088703010834
:100080008703010887030108870301088703010824
:100090008703010887030108870301088703010814
:1000A0008703010887030108870301088703010804
:1000B00087030108870301088703010887030108F4
:1000C00087030108870301088703010887030108E4
:1000D000870301088703010801EC01088703010871
:1000E00087030108870301088703010887030108C4
:1000F0001DE0010805E001088703010887030108E6
:1001000087030108870301088703010887030108A3
:100110008703010887030108E5DF0108F5DF01080F
:100120000D310108870301088703010887030108CF
:100130008703010887030108870301088703010873
:1001400087030108870301088703010855D00108C8
:100150008703010887030108870301088703010853
:100160008703010887030108870301088703010843
:1001700087030108870301088703010800000000C6
:10018000870301088703010800F002F800F07FF8F8
:100190000AA090E8000C82448344AAF10107DA45E2
:1001A00001D100F074F8AFF2090EBAE80F0013F0B5
:1001B000010F18BFFB1A43F0010318478CA8020077
:1001C000ACA802000A444FF0000C10F8013B13F0F9
:1001D000070408BF10F8014B1D1108BF10F8015BA0
:1001E000641E05D010F8016B641E01F8016BF9D193
:1001F00013F0080F1EBF10F8014BAD1C0C1B09D1EA
:100200006D1E58BF01F801CBFAD505E014F8016B5B
:1002100001F8016B6D1EF9D59142D6D370470000ED
:100220000023002400250026103A28BF78C1FBD8FF
:10023000520728BF30C148BF0B607047662929F0BC
:10024000ED80642900F0F081782900F0298263298B
:1002500000F0D987732900F0DE87002070471FB5B2
:1002600029F0CFF89DE8030000F0FCFC01F0AEFAA5
:1002700004000020002128F0F1FA401C60600020FA
:10028000002128F0D5FAE0601FBD10B510BD01F0C7
:1002900084FD1146FFF7E3FF1CF00AFD01F0D4FFD7
:1002A00003B4FFF7F2FF03BC15F0A0FB2C4B196859
:1002B0000868B0E8F04F80F30988BFF36F8F4FF004
:1002C000000080F3118870470000000008480068B3
:1002D000006880F308884FF0000080F3148862B64D
:1002E00061B6BFF34F8FBFF36F8F00DF00BF00BF5A
:1002F00008ED00E0DFF80C00016841F470010160D6
:10030000704700BF88ED00E0EFF30980BFF36F8F07
:10031000134B1A681EF0100F08BF20ED108A20E959
:10032000F04F106009B44FF0500080F31188BFF314
:100330004F8FBFF36F8F26F09FFE4FF0000080F3CA
:10034000118809BC19680868B0E8F04F1EF0100F5A
:1003500008BFB0EC108A80F30988BFF36F8F704735
:1003600050000020EFF305807047000009488047E7
:1003700009480047FEE7FEE7FEE7FEE7FEE7FEE787
:10038000FEE7FEE7FEE7FEE704480549054A064B9F
:1003900070470000D5DC010889010108386A012096
:1003A000389A0120388A0120388A0120704770B5B8
:1003B000064600F03BFC056806F10B0020F0070440
:1003C000B4429CBF002070BD2B466A68BAB1106869
:1003D000A04210D304F1080188423CBF5068586025
:1003E00007D35168101941601168091B01605860FA
:1003F0001460101D70BD13465268002AE7D12146D3
:10040000284600F01BFC0028DED170BD70B5044604
:10041000051F00F00BFC0068002C14BF446870BD81
:10042000002C18BFAC423CBF20466468F8D301687A
:100430000A18AA4218BF456003D12A68054611442C
:10044000016028684119A1421CBF6C6070BD6168E1
:10045000696021680844286070BD53EA020C00F00E
:1004600069802DE9F04B4FF00006002B1FBFB3FA57
:1004700083F503FA05F424FA05F65E4012BF16432D
:10048000B2FA82F502FA05F4C5F120051EBF22FA80
:1004900005FC44EA0C04203556EA044C4FEA1444A7
:1004A00018BF641C4FF000084FF00009904271EB38
:1004B000030C39D3002919BFB1FA81F701FA07F605
:1004C000B0FA80F700FA07F6C7F120071EBF20FA3E
:1004D00007FC46EA0C062037B6FBF4FCA7EB050741
:1004E000103F07F01F0BCBF120060CFA0BFB2CFA88
:1004F00006F644BFB3460026202FA4BF5E464FF049
:10050000000B5BEA060C08BF4FF0010B19EB0B095F
:10051000ABFB027C48EB0608C01B06FB02CC0BFBC6
:1005200003CC71EB0C01C1E70B460246414648463D
:10053000BDE8F08B13B54FF000004FF00001AFF3B2
:100540000080BDE81C4070470FB4044910B503AAF1
:10055000029800F065FE10BC5DF814FBB0010020AD
:100560000FB41CB5074B06AA7B446946009005985A
:1005700000F027FE0020694600F036FE1CBC5DF846
:1005800014FB00007D0C000070B50446856900680E
:10059000C10601D5302600E02026C00707D070BD77
:1005A000D4E9012130469047206A401C20626D1E2C
:1005B000F6D570BD70B5044685690078C00707D1CF
:1005C00070BDD4E9012120209047206A401C2062A0
:1005D0006D1EF6D570BD70B50C460546012A05D0D6
:1005E0002878800600D5EA69002302E0012305E0AF
:1005F0005B1C934202D2E05C0028F9D1A869E6189E
:10060000C01AA861286A184428622846FFF7BCFF70
:1006100004E0D5E9012114F8010B9047B442F8D366
:100620002846FFF7C7FF70BD2DE9F04106460024BC
:1006300010687529314616A510D0AFF30080002848
:1006400002DA404213A507E031688A0701D512A5F6
:1006500002E0490704D511A5012401E0AFF30080B1
:1006600000210A2206F1240709E0B0FBF2FCB0FBEE
:10067000F2F302FB1C00303078541846491C002865
:10068000F3D123462A463046BDE8F04100F02BBBAB
:10069000000000002D0000002B00000020000000E2
:1006A00070B504460D4621461068AFF300802188DE
:1006B000090502D50F4A7A4402E00E4A7A440E3206
:1006C000002104F1240305E000F00F060009965D07
:1006D0005E54491C0028F7D120780023000704D578
:1006E000702D02D009B1022311322046BDE87040BE
:1006F00000F0F9BAF79F02002DE9F05F8946044641
:100700004FF0000ADFF824B1FB44C0F820A02046D7
:10071000E168884700287DD0252806D0D4E901214A
:100720009047206A401C2062F1E700255F46204682
:10073000E16888472028064607DB312E05D2B81924
:1007400010F8200C08B10543F1E7A80701D525F002
:100750000405C4F81CA00027C4F818A02A2E09D04C
:10076000304615F03CF938B304EB8708303EC8F842
:10077000186019E059F8041B204604EB87029161C8
:10078000E1688847012F064618D1E069002820DA81
:1007900025F020051DE0D8F8180000EB800006EBDE
:1007A00040003038C8F818002046E16888470646FF
:1007B00015F015F90028EED1012F0AD02E2E08D100
:1007C0002046E16888477F1C0646022F45F0200539
:1007D000C4DBA069002803DA404245F00105A061AE
:1007E000E80701D025F01005A6B1A6F141001928AF
:1007F00002D8203645F400654A4631462046256039
:100800004D46FFF71BFD60B1012807D0ED1D25F017
:10081000070000E007E000F1080978E705F10409A6
:1008200075E730467AE7206ABDE8F09FCD9F020069
:100830000FB400B58DB010A9099000910B904FF046
:10084000FF300A9000200C90064878440690064835
:1008500078446A4607900F9909A800F083FF0DB00D
:100860005DF814FB370F00004F0F00002DE9FF5F0C
:100870001D464FF0FF3B91464FF000085F46D5E91B
:100880000146A96901987F1C8847296A82468847E2
:100890000028F6D1BAF1FF3F0CD0002E24F4C0643A
:1008A00019DD600614D5BAF12B0F09D0BAF12D0F5E
:1008B0000ED103E0584604B0BDE8F09F44F48064D4
:1008C000A96901987F1C8847761E8246002E02DDAA
:1008D000BAF1300F03D0B9F1000F26D032E0A96988
:1008E000761E01987F1C44F400748847002E8246CF
:1008F00005DDBAF1780F06D0BAF1580F03D0B9F17F
:10090000000F10D01EE0B9F1000F02D0B9F1100FA6
:1009100018D1A969761E01987F1C24F400748847B9
:100920008246102002E0082000E00A20814609E00B
:10093000A96908FB0908761E01987F1C44F400741D
:1009400088478246002E05DD4946504600F07AFC75
:100950000028EDDAE96901988847A00502D46FF014
:100960000100A8E7E00725D1600613D5600502D590
:10097000C8F1000000E0404629680A1D2A600968A5
:10098000220501D5087015E0220701D5088011E085
:1009900008600FE02868011D29600068210502D564
:1009A00080F8008006E0210702D5A0F8008001E071
:1009B000C0F8008038467EE740EA0103024630B5C1
:1009C0009B0710D14FF0013400E008C208C91D1B7D
:1009D0009D4315EAC41FF8D013F0FF0102F8011B74
:1009E0000DD01B0AF8E711F8013B002B02F8013B80
:1009F00005D011F8013B002B02F8013BF3D130BDCB
:100A000010B5431C02E010F8011B71B18107FAD147
:100A10004FF0013202C88C1A8C4314EAC211F9D08B
:100A2000C01A0A0603D0C01E10BDC01A10BD0A04A9
:100A300001D0801E10BD0902FCD0401E10BD032A4B
:100A400040F2308010F0030C00F0158011F8013BEB
:100A5000BCF1020F624498BF11F801CB00F8013BD2
:100A600038BF11F8013BA2F1040298BF00F801CB96
:100A700038BF00F8013B11F0030300F02580083A6D
:100A8000C0F0088051F8043B083A51F804CBA0E8C4
:100A90000810F5E7121D5CBF51F8043B40F8043B19
:100AA000AFF30080D20724BF11F8013B11F801CB4E
:100AB00048BF11F8012B24BF00F8013B00F801CB1F
:100AC00048BF00F8012B704710B5203AC0F00B80EA
:100AD000B1E81850203AA0E81850B1E81850A0E842
:100AE0001850BFF4F5AF5FEA027C24BFB1E818509C
:100AF000A0E8185044BF18C918C0BDE810405FEA0C
:100B0000827C24BF51F8043B40F8043B08BF704787
:100B1000D20728BF31F8023B48BF11F8012B28BF8C
:100B200020F8023B48BF00F8012B704702F0FF039A
:100B300043EA032242EA024200F002B84FF0000208
:100B40000429C0F0128010F0030C00F01B80CCF1DF
:100B5000040CBCF1020F18BF00F8012BA8BF20F84D
:100B6000022BA1EB0C0100F00DB85FEAC17C24BFA1
:100B700000F8012B00F8012B48BF00F8012B70474B
:100B80004FF0000200B5134694469646203922BF26
:100B9000A0E80C50A0E80C50B1F12001BFF4F7AF71
:100BA000090728BFA0E80C5048BF0CC05DF804EB53
:100BB000890028BF40F8042B08BF704748BF20F8C1
:100BC000022B11F0804F18BF00F8012B704710B5B1
:100BD000044610F0030F08BF11F0030F40F015801A
:100BE0004FF0013E121FC0F20E8051F8043BA3EB00
:100BF0000E0C2CEA030C1CEACE1C08BF40F8043B88
:100C0000F0D0A1F1040102F10402521E08DB11F838
:100C1000013B002B00F8013BF7D11146FFF78EFF97
:100C2000204610BD7047704770470000004870476D
:100C3000E0690120704770477047704738B5044637
:100C40000A4600206946AFF30080002808BF38BD7F
:100C500002460099204600F0C1FD012038BD012068
:100C600001F094B8F8B5AFF30080054600200C46BB
:100C7000102000BF0646A819A0420DD93246694689
:100C80000020AFF30080070008BF01F07FF8009854
:100C9000A04218BF0546C419FFF7C8FF0560074604
:100CA000F01D20F007004619284600F00AF8B4426B
:100CB00008BFF8BDA21B31463868BDE8F84000F017
:100CC0008DBD00210160C0E9011070471020704700
:100CD00010B500F07FFD006810BD10B5044600F0AF
:100CE00079FD046010BD2DE9F0470D469946924606
:100CF000044600F124080168880604D5E06921F063
:100D00001001216000E00120A84201DD471B00E046
:100D10000027A1697A1902EB0900081AA06120785E
:100D2000C00602D42046FFF72FFC002608E0D4E9D5
:100D300001211AF806009047206A401C761C2062A8
:100D40004E45F4DB2078C0060AD52046FFF71CFC90
:100D500006E0D4E9012130209047206A401C20623F
:100D6000381EA7F10107F4DC07E0D4E9012118F8E7
:100D700005009047206A401C2062281EA5F101054D
:100D8000F3DC2046FFF716FC2078000602D502208F
:100D9000BDE8F0870120FBE770472DE9FF4F0C46C7
:100DA0001E464FF0FF378BB0D2E90001DDF86080BE
:100DB0000A908A46C1F30A5505B93D460021084606
:100DC0004FF00000BAF1000F00F4400005DA00EB2C
:100DD00080004FF4400101EA50004FEA9059B9F108
:100DE000010F00DDB9460A9850EA4A000ED044F6D9
:100DF0001050A5F2FF3545432F14B8F1000F1ED057
:100E00007542291E1EDDC9F100021CE0B8F1010F78
:100E10004FF0000001D0302103E0F24305E02154FF
:100E2000401CB042FBDB30460022002121540B99CC
:100E3000C1F80880C1E900200FB0BDE8F08FBD1BEC
:100E40006D1CDEE74A4600DA694206A800F028FF7A
:100E500006AB93E8070003AB83E8070050460A9906
:100E600001F094FA8DE80700A0F500501F380090BB
:100E70000398002D0ADD42F21F014A460844002370
:100E800003A90390684601F03FFD09E0A0F500507A
:100E90004A461F38002303A90390684601F05EFD0F
:100EA0008DE807000004000C03D04FF0FF3041082C
:100EB00000E01046B8F1000F03D000220092154662
:100EC0001EE0751E05D400F0A3FC303262556D1E85
:100ED000F9D5B3460122084302D000227F1C04E06A
:100EE0002078302801D100227F1E002A099784D063
:100EF0001DE0112D07DA00F08BFC303262556D1CBD
:100F000050EA0102F5D1084302D00098C8B10EE0C2
:100F10000021681E05E0235C625C63542254401E7D
:100F2000491C8142F7DBAB46A81B401E09900020FC
:100F300004F80B000B98099AC0F80880C0E9002B50
:100F40007AE711264FF0000857E72DE9F04F884661
:100F50000446D21D22F0070191B0D1E90001CDE98C
:100F60000A0114F059F902460B98C00F01D02D2048
:100F700007E02068810701D52B2002E0202101EA4B
:100F8000C000032A099001D0072A05DB0346414629
:100F9000204600F08BFC0BE12078800601D5E0694B
:100FA00000E00620B8F1650F814606D0B8F1660F63
:100FB00018D0B8F1670F70D131E00020B9F1110FEE
:100FC000009001DB112301E009F101030AAA01A944
:100FD0000CA8FFF7E2FEDDE90C70002609F101051F
:100FE000834647E001204B4600904FF000470AAA95
:100FF00001A90CA8FFF7D1FEDDE90DB00C995D4603
:10100000002610B909F101000D18B9EB050003D451
:10101000C0F1FF3609F10105A5EB09002BE0B9F19C
:10102000010F01DA4FF001090020B9F1110F009012
:10103000484601DD112300E003460AAA01A90CA8D5
:10104000FFF7ABFEDDE90C704D46002683462078A5
:1010500000070AD4AB4500DA5D4601A8012D04DD86
:10106000411911F8011C302907D04F4502DA17F158
:10107000040F04DA012082460FE06D1EEEE7002F18
:1010800002DCED1B3E4403E0781CA84200DD7D1C21
:10109000B81B00F1010A4FF000472078000703D485
:1010A000AA4501DB4FF0FF3A0021B7F1004F0DF1E7
:1010B00043088DF8431024D002202B23002F01DA9F
:1010C0007F422D230A21021EA0F1010000DC5FB146
:1010D00097FBF1FC97FBF1F201FB1C7C17460CF12E
:1010E000300C08F801CDEEE7A8F10100037021886B
:1010F000090501D5452100E06521A0F1010800F8AE
:10110000011C09980FA9A1EB0807FF1D00B10120E0
:10111000411901EBEA70A1693844081A401EA06128
:101120002078C00602D42046FFF72EFA099828B18D
:10113000D4E901219047206A401C20622078C00633
:1011400022D52046FFF720FA1EE0002E04DBB3452F
:1011500002DD01A8805D00E03020D4E90121904744
:10116000206A401C2062761CAAF101005FEA000A96
:101170000AD100F02BFBC0680168405CD4E9012172
:101180009047206A401C2062281EA5F10105DCDC86
:1011900007E0D4E9012118F8010B9047206A401CB0
:1011A0002062381EA7F10107F3DC2046FFF702FAA0
:1011B000032011B041E6000001694A1C0261087871
:1011C000704700B58FB0CDE9013100210591054987
:1011D0007944CDE9031011466846FFF78DFA0FB048
:1011E00000BD0000E5FFFFFF0A6802F8010B0A607E
:1011F000704710B5436913B1AFF3008001E0FFF70A
:10120000EAF9012010BD127800F124010A700022D1
:101210004A700122EDE711684FF0FF32E9E7000064
:10122000074B70B50D467B44FFF7CBFF04462846BD
:1012300000F0A8FD10B14FF0FF3070BD204670BD2A
:1012400083A401003A2800D2303820F02002412A3D
:1012500001D3A2F13700884201D34FF0FF3070472D
:101260002DE9FF4F06468BB00878FF2806D0491CB1
:101270002D2805D000244FF0000908E000200CE0E4
:101280000124F8E709EB8903491C00EB43090878BE
:10129000FF28F7D114B1C9F100008146107800256C
:1012A0002C46AA4629462D2801D02B2804D1521CB1
:1012B0002D2813D0002082468B461078FF280FD0AF
:1012C0004FF0000C0A21521CA5FB017804FB0181A0
:1012D00005FB0C11C5194BEB0104EEE70120EAE711
:1012E000002108464FF00000BAF1000F02D000EBD9
:1012F00080004008C0F38157012F01DD4FF0FF3718
:101300000E9955EA040009EB01080BD04FF00209D1
:1013100018F5FA7F16DA4FEACA70002F706008DD00
:10132000012007E04FEACA70C6E900B00FB0BDE87F
:10133000F08F0020306000F04DFAC0F800901821C6
:10134000084616E0B8F5FA7F18DD002F02DAF748F4
:10135000784401E0F6487844D0E90010C6E900106E
:1013600040EACA70706000F035FAC0F800901421AD
:1013700008460FB0BDE8F04F28F04DB800210846F0
:101380004FF00000B8F10001099002DAC7F1000245
:1013900000E03A4601DAC8F1000106A800F080FC3E
:1013A00006AB93E8070003AB83E8070044F23E0076
:1013B0005BEA04010090584604D144F21E012C4619
:1013C0005D460091210C0904014306D100992404D3
:1013D00044EA15442D041039009104F07F41014383
:1013E00006D10099240244EA15642D0208390091BF
:1013F00004F07041014306D10099240144EA1574B8
:101400002D01091F009104F04041014306D10099CC
:10141000A40044EA9574AD00891E009104F00041D7
:10142000084304D100986D196441401E00904FF0AC
:1014300001033A466846B8F1000FCDE9014503A91A
:1014400002DD01F0A0FA01E001F073FABAF1000F39
:1014500004460D4601D084F00044002108464FF0B8
:101460000000099940F2FF77484010F00C0F07D1B7
:1014700024F00040284303D0C4F30A50B84212D1EC
:1014800000F0A8F9C0F80090C4F30A50B8420AD19D
:10149000A8487844D0E90010C6E9001004F00041E3
:1014A0000843706042E7C6E900543FE72DE9FF4F6B
:1014B0001F464FF0000A4FF0FF38454691B0D7E97C
:1014C0000146CDF83CA000F081F9C0680168405C9D
:1014D0001090B96912986D1C8847396A814688470F
:1014E0000028F6D1B9F1FF3F0AD0002E24F4D064D1
:1014F00011DDB9F12B0F08D0B9F12D0F0BD102E09E
:10150000404615B013E744F48064B96912986D1C25
:101510008847761E8146600504A901D52D2000E08C
:101520002B20002E01F1010B0DF130088DF8100079
:101530003FDDB9F1690F08D0B9F1490F05D0B9F114
:101540006E0F02D0B9F14E0F1CD13B4601A8009599
:1015500080E85002DDE912126FF0020027F0C4FFAC
:10156000C11CCED10EE0B96912986D1C8847814626
:101570001398761E44F4007405600F98401C002EEA
:101580000F9016DDB9F1300FEDD0B9F1780F02D020
:10159000B9F1580F0DD10F9801280AD13B46CDE97A
:1015A0000054DDE91212001F029627F09BFFC11CB8
:1015B000A7D1109989453ED144F0800406E01399E3
:1015C000681CAAF1010A44F400740860B9696D1C32
:1015D0001298761E884730288146F0D02BE010996B
:1015E000894505D1200603D4761E44F0800418E016
:1015F000484614F0F4F908B3761E0DF123018B452B
:1016000044F4007408D2A9F130000BF8010B200655
:1016100007D5AAF1010003E0200602D40AF1010077
:101620008246A00502D51399681C0860B969129812
:101630006D1C88478146002ED1DC53E0002E51DD21
:10164000B9F1650F02D0B9F1450F4BD1A00549D5CD
:10165000B9696D1C1298761E24F440748847002ED8
:1016600081460CDD2B2804D0B9F12D0F07D144F4AD
:101670008074B96912986D1C8847761E8146E00512
:1016800001D52D2100E02B2108F8011BCDF80080A9
:1016900021E0761E0DF13901884544F400740CD226
:1016A000A9F1300010F0FF0088F8000002D1009985
:1016B000884509D908F1010806E0E00501D51E4872
:1016C00001E042F20F708246B96912986D1C88479A
:1016D000814613980560002E04DD484614F07FF91A
:1016E0000028D6D1F96912988847FF2053468BF815
:1016F000000088F8000000200A900B9004AA0CA9B2
:101700000AA8FFF7ADFDA00502D46FF00100F8E6CE
:1017100014F0240F12D0E0071CD13868DDE90A125A
:10172000031D3B600068C0E9001213E01C97020033
:101730000E970200D2950200F1D8FFFF0AA9684671
:1017400014F03AF9E00705D13868009A011D3960B4
:10175000006802602846D4E60268114413780160EC
:1017600018467047D160054979445161044979446C
:10177000116200211161114600F0D8B8EDFFFFFFA2
:1017800029010000426842B1016811F8013B23B110
:10179000521EC0E90012184670470121C160881E20
:1017A000704742685AB1C368016843B983688B4285
:1017B00005D0491E521CC0E90012002070474FF0AE
:1017C000FF30704700487047D869012000487047D3
:1017D000F869012000487047D86901200346406835
:1017E0008C46002818BF88423CBF03464068F8D3A7
:1017F00018681844884207D00CF1030020F0070055
:10180000001D411A521A0146081D0A60FEF7FEBD6E
:1018100030B5B0F10A024FEA900E71F100034EEAC2
:10182000817EB0EB0E0061EB91014FEA101E4EEA93
:10183000017E10EB0E0041EB11114FEA102E4EEA23
:10184000016E10EB0E0041EB11214FEA104E4EEAF3
:10185000014E10EB0E0041EB1141401841F1000127
:101860004FEAD00040EA41704FEAD10110EB800509
:101870004FEA810444EA907444EB01046D1944EB8F
:101880000404521BA3414FF0000348BF0A3200D5A5
:1018900030BD401C41F1000130BD10B5044600F0E0
:1018A000A1FA0068005D00F0010010BD2DE9F041D3
:1018B0001F46044603260168072A01F4006004DB82
:1018C00008B116A505E016A503E008B115A500E0CE
:1018D00015A521F010002060A069C01EA0610FB105
:1018E000401EA0612046FEF74FFE4FB1D4E9012112
:1018F00038469047206A401C2062C01C206206E0E7
:10190000206AFAE7D4E9012115F8010B9047761E09
:10191000F8D22046FEF74EFEBDE8F0814E414E0063
:101920006E616E00494E4600696E66002DE9F34F08
:101930004FF0000A0C4656468DB001200C9001F184
:101940000C000B9062690B9801219047051E2DD069
:10195000252D2CD0216A8847C0B162690B980121DE
:101960009047216A88470028F7D16269411E0B9889
:10197000904700E0761CA1690D988847216A884746
:101980000028F7D1E1690D988847DBE7A1690D9838
:101990008847A842074601D1761CD3E7E1690D9834
:1019A00088477F1C02D1BAF1000F6FD06BE16269EA
:1019B0000B9800273D46394690472A2804D1626992
:1019C0000B98012190470125DFF8D08262690B98BE
:1019D00001219047A0F130010A290AD24745E5DCF0
:1019E00007EB870100EB4107303FDFD445F01005DE
:1019F000ECE7E90601D46FF000476C280AD04C28C8
:101A000014D0682815D06A280DD074281CD07A28E4
:101A10001AD01DE062690B98012190476C2802D012
:101A200045F0040514E045F002050DE045F0200501
:101A30000AE062690B9801219047682802D045F0BE
:101A4000080505E045F4006562690B98012190479F
:101A5000C4E9015765283DD019DC58287AD00CDC40
:101A6000452837D004DC252826D041289ED131E0F6
:101A700046282FD0472899D12CE05B2877D06128C1
:101A800028D063287CD0642823D15AE0F6E06F2860
:101A900048D008DC66281DD067281BD0692821D0D3
:101AA0006E2816D127E0702845D0732868D0752895
:101AB00047D078280DD14DE0A1690D988847252899
:101AC00005463FF469AFE1690D9888476D1C3FF406
:101AD0006AAFD8E00D9923466A466FF0010027F0FF
:101AE000FFFCC5E045F0400023464FF00002606077
:101AF000A80736D43EE0E8077FF447AF2068011D11
:101B000021600068290501D506701BE7290701D56A
:101B1000068017E7A90703D5F117C0E9006111E7AF
:101B200006600FE745F0400023464FF00802606072
:101B3000A80716D41EE040F60E0125EA01006060F9
:101B400016E045F0400023464FF00A026060A80707
:101B500007D40FE045F040006060A80708D5234691
:101B600010220D996FF00100AFF3008080E007E0D4
:101B7000102223460D996FF00100FEF777FE77E003
:101B80004FF0000963284F46C8464B46CB4602D06B
:101B90005B2806D038E0E80601D40120A0600127C8
:101BA00032E06269D4F80CB00B98012190475E28AE
:101BB00007D14FF0010949466269D4F80CB00B987F
:101BC0009047216939B900210A4603AB43F8212027
:101BD000491C0829FADBD8B3216949B308F1010887
:101BE00062690B98012190475D28F4D1B9F1000F8B
:101BF00009D0002003A951F82020D24341F8202029
:101C0000401C0828F7DB03AB2069002820794FEA45
:101C100040701ED05B462246CDF80080CDE901978A
:101C20000D9900286FF0010020DAAFF300801FE06B
:101C3000C11703AA00EBD1614B1121F01F0102EB88
:101C40008302411A13680120884003431360C7E7E9
:101C500019E00D99224600286FF00100009702DA82
:101C6000AFF3008004E0AFF3008001E0AFF3008049
:101C700000280ADA401C06D10C9820B14FF0FF3042
:101C80000FB0BDE8F08F5046FAE7E90701D10AF13D
:101C9000010A064400200C9054E60000CCCCCC0C89
:101CA0002DE9F047814616468AB0354878440DC87C
:101CB0008DE80D0032487844801C03AC0DC884E8E0
:101CC0000D0041F69B300844372190FBF1F290FB68
:101CD000F1F5A5F1800501FB12041B3C02D564421D
:101CE000012000E00020DFF898A080460027FA4499
:101CF000AAF1BE0A0EE0E0070AD03246684607EBBA
:101D0000470101230AEB810100F028FE8DE807005E
:101D100064107F1C002CEED1194F7F44AE3F19E0B8
:101D2000E80715D007EB04100DF1180A90E80E0033
:101D30008AE80E00C068F04201D198190890324636
:101D4000012306A903A800F009FE03AB83E80700FE
:101D50006D10641C002DE3D14FF00103324669463B
:101D6000B8F1000F03A802D000F0CEFD01E000F0B2
:101D7000F5FDC9E90001C9F808200AB0BDE8F087FF
:101D8000FC8A0200007B00F08000704710B500F074
:101D900069FABDE8104000F060BA7546FFF712FD21
:101DA000AE4605006946534620F00700854618B048
:101DB00020B5FEF7E9FABDE820404FF000064FF0ED
:101DC00000074FF000084FF0000B21F00701AC4670
:101DD000ACE8C009ACE8C009ACE8C009ACE8C0098F
:101DE0008D46704710B5FFF7F1FC001D10BD00BF18
:101DF0006D6A02002DE9FF4F1F464FF03C0987B086
:101E00004FF00042DDE9141001F10108DDF858A09F
:101E100002EA4050039000200590834605460446A0
:101E20000490B969461E08988847AAF1010A0290F1
:101E3000BAF1000F3BDD02982E2815D01021FFF7D4
:101E400001FA00282EDB4FF0010B0599014317D052
:101E5000B9F1000F0BDB4A46C11700F06BFA0543DE
:101E60000C43A9F1040905E0012004900BE008B13E
:101E700045F0010501200590049820B9361D02E0C7
:101E8000049800B1361FB969089808F1010888471D
:101E9000BBF1000FAAF1010A0290C9D00999C1F85B
:101EA0000080C5E70298702808D0502806D0F9694C
:101EB00008988847BBF1000F14D04FE00020029033
:101EC0000120BBF1000F049009D0B969089808F10E
:101ED00001088847AAF10109B9F1000F07DCF96987
:101EE000089888476FF001000BB0BDE8F08F2B28F1
:101EF00004D02D280CD14FF0FF300490B969089818
:101F000008F101088847A9F10109B9F1000FE6DDE0
:101F1000411CE4D00A21FFF795F90028DFDB029984
:101F200008F1010801EB810100EB41000290B96961
:101F3000089888470A21FFF785F9099AA9F101094C
:101F4000B9F1000FC2F8008001DD0028E7DAF96975
:101F5000089888470499029800FB016655EA040036
:101F600004D004F04041090002D006E0039898E054
:101F7000A40044EA9574AD00B61E04F000410800C8
:101F800002D16D196441761E159810F0240F03D00C
:101F90004FF00B095C4803E04FF028096FF07D001B
:101FA0008246564507DAAAEB06018944B9F1410F8A
:101FB00001DD4FF0410901200021A9F1010200F0EB
:101FC000B9F9024628400B462140084301D00121BF
:101FD00000E00021501E029143F1FF3128402140D2
:101FE000084301D0012000E000200299834651EA15
:101FF0000B014FD0002108464FF00000039900F478
:10200000400039B100EB80004FF4400100EBD0708C
:1020100001EA60008015012802DD4FF0FF3000E08A
:1020200013D0401C36D0029860B3BBF1000F0CD126
:102030004A460120002100F07DF928402140084354
:1020400001D0012000E00020E0B101204A4600213B
:1020500000F070F9034640190A4661412D1A8C417F
:1020600011D3B9F1400F09DD159810F0240F02D0FB
:10207000AAF1340603E0AAF1170600E0761C002559
:102080004FF0004406E05B1E42F1FF3220EA0305F8
:1020900021EA0204CAF10100B04206DA1B490398A2
:1020A00008430190002000900EE0039AC4F3D3216E
:1020B000E80A0A43164940EA44500A433146CDE94A
:1020C0000002684613F081FC159810F0240F0BD025
:1020D0001598C00715D13868DDE90012031D3B6073
:1020E0000068C0E900120CE002A8694613F064FC25
:1020F0001598C00705D13868029A011D396000683B
:1021000002604046F0E6000002FCFFFF0000F07FA6
:102110000000F03F2DE9FF4F92461D4685B04FF07D
:102120000041DDE9124BDDE914727F1E01EA4B50DC
:10213000414940F0FF4940EA0108002122F0200017
:102140004928049102D04E2828D04CE03BA001261B
:1021500007C88DE80700A9690698641C88477F1E98
:10216000014606D41DF8060018B121F02001814275
:102170000BD0E96906988847032E34D0082E32D058
:102180006FF0010009B0BDE8F08F761C032E01D07E
:10219000082EE0D1601CCAF80000DCE7A9690698A7
:1021A000641C88477F1E2AD420F02000412826D1B5
:1021B000A9690698641C88477F1E20D420F020005F
:1021C0004E281CD1A9690698641C88477F1E48F4D4
:1021D000002849F48009CAF8004001D4282806D014
:1021E000E969069888475FEACB7012D022E0A969B6
:1021F0000698641C88477F1E01D4002803DAE96929
:1022000006988847BCE72928F1D1641CCAF8004029
:10221000E9E71BF0240F07D028680499031D2B6001
:102220000068C0E9001805E02868021D2A600068FF
:10223000C0F800902046A5E70000F07F494E4649CF
:102240004E4954590000000010B50446AFF3008019
:102250002046BDE81040FEF723B8002801D013F057
:10226000C5BB704710B5012805D0002103A000F0C0
:1022700074F8012010BD09A1F8E700005349475246
:10228000544D454D3A204F7574206F662068656146
:1022900070206D656D6F7279000000003A2048650E
:1022A0006170206D656D6F727920636F72727570E9
:1022B000746564004FF0013C50F8042B51F8043B66
:1022C0009A4221D1A2EB0C03934313EACC1317D10A
:1022D00050F8042B51F8043B9A4215D1A2EB0C03A1
:1022E000934313EACC130BD150F8042B51F8043B61
:1022F0009A4209D1A2EB0C03934313EACC13DBD02F
:102300004FF00000704700BFD01A01BAB1FA81F156
:1023100001F0180122FA01F0CB40C1F12001DBB23B
:10232000C0B2C01A2CFA01F3D11A914311EAC311B9
:10233000E6D17047B2F120030AD5C2F1200301FAB9
:1023400002F120FA03F300FA02F041EA03017047B8
:1023500000FA03F14FF00000704770B505460C46D7
:102360000A2000E06D1C13F043FB35B128780028EB
:10237000F8D102E0641C13F03BFB14B12078002874
:10238000F8D1BDE870400A2013F032BB5FEA400C80
:1023900008BF91F0000F4FEA8C234FEAC12243EAB5
:1023A00051514FEA1C5018BF00F5F0404FEA300081
:1023B00018BF41F000415FEA6C5C00F02980BCF17D
:1023C000FF3F08BF40F080407047130C06BF120467
:1023D0004FF0100C4FF0000C130E04BF12020CF162
:1023E000080C130F04BF12010CF1040C930F04BF6F
:1023F00092000CF1020CD30F04BF52000CF1010C3F
:1024000011464FF00002A0F11F00A0EB0C00704736
:1024100011F0004F08BF704731F000413FF4D5AFD5
:102420000B0C06BF09044FF0100C4FF0000C0B0E04
:1024300004BF09020CF1080C0B0F04BF09010CF1D9
:10244000040C8B0F04BF89000CF1020CCB0F04BFEE
:1024500049000CF1010CCCF12003A0EB0C0022FA96
:1024600003F302FA0CF241EA030100F101007047A4
:1024700020F07F4C80EA030023F07F47ACEB07039A
:1024800003F57C5300F0004003F1FF032DE9804980
:102490004FEA154B09B44FEA144325EA0B4E24EAE0
:1024A00003480FF2042606EB132749083E785FEA3B
:1024B000320203FB0667C7F5000707FB06F64FEA83
:1024C00054374FEAD64606F1020607FB066CCCF1FC
:1024D000005C4FEA1C472CEA074C07FB06F40CFB98
:1024E00006F504EB15464FEA961634BF00204FF070
:1024F00000404FEAD13706FB07FC4FEA1C4C0CFBAF
:102500000BF7D21B03FB0CF761EB07010CFB0EF77B
:10251000B0EB074072EB17420CFB08F734BFA2EB9D
:102520000742B2EB074261EB17414FEA0C444FEA16
:10253000910706FB07FC4FEA1C4C0CFB0BF7B0EBBA
:10254000C74072EB573203FB0CF734BFA2EBC74214
:10255000B2EBC74261EB57310CFB0EF7B0EBC70093
:1025600072EB57720CFB08F734BFA2EBC702B2EB59
:10257000C70261EB5771039F4FEA816141EA9211F3
:1025800004EBCC044FEAD1374FEA826206FB07FC2A
:1025900042EA90124FEA80604FEA1C4C0CFB0BF7AA
:1025A000D21B03FB0CF761EB07010CFB0EF7B0EB42
:1025B000074072EB17420CFB08F734BFA2EB07424F
:1025C000B2EB074261EB17414FEA8C554FEA910796
:1025D00004EB9C2406FB07FC4FEA1C4C0CFB0BF79E
:1025E000B0EBC74072EB573203FB0CF734BFA2EBE2
:1025F000C742B2EBC74261EB57310CFB0EF7B0EBB1
:10260000C70072EB57720CFB08F734BFA2EBC7028E
:10261000B2EBC70261EB577115EB4C254FEA8161B4
:1026200041EA92114FEA82624FEAD13742EA9012B0
:1026300006FB07FC44F100044FEA80604FEA1C4CA3
:102640000CFB0BF7D21B03FB0CF761EB07010CFB38
:102650000EF7B0EB074072EB17420CFB08F734BFE4
:10266000A2EB0742B2EB074261EB174115EB1C15D9
:102670004FEA813141EA92414FEA823242EA904286
:102680004FEA80304FEA0C7644F1000448EA0343F5
:102690004EEA0B484FF0000EB2EB080C71EB03074B
:1026A00024BF624639464EEB0E0E4FF0000B001869
:1026B000524149414BEB0B0BB2EB080C71EB03079A
:1026C0007BF1000B24BF624639464EEB0E0E4FF0F5
:1026D000000B0018524149414BEB0B0BB2EB080CBD
:1026E00071EB03077BF1000B24BF624639464EEBCA
:1026F0000E0E51EA020718BF46F0010616EB0E76E1
:1027000055F1000254F1000103D5BDE88901BDE88F
:102710000088BDE88901BDE80048B619524141EB87
:102720000101A3F10103704780807F7E7D7C7B7A6D
:102730007978777676757473727171706F6E6E6D6D
:102740006C6C6B6A6A696868676666656464636313
:1027500062616160605F5F5E5E5D5D5C5C5B5B5A99
:102760005A59595858575756565555555454535306
:1027700052525251515050504F4F4F4E4E4D4D4D61
:102780004C4C4C4B4B4B4A4A4A49494948484847AC
:1027900047474746464645454544444444434343EA
:1027A000434242424241414146EA0646A3F5705344
:1027B0004FEA164646EA42564FEAD22242EA4152D0
:1027C00010B54FEAD121A3F1010300F02FF820F05A
:1027D000004000F1020C00F0004701EB00501146F0
:1027E000BCF5006F40EA070000D210BDBAF1000F3F
:1027F0000AD01CB503B44FF004004FF004014FF0B1
:1028000000000FBCBDE810404FF00001BBF1010F0C
:10281000B9BF04484FF0FF310348002140EA0700E8
:1028200010BD00BFFFFFEF7F0000F07F002B9C4634
:1028300030D477002BD01CB54FEA370703B44FF0E4
:1028400010004FF01001BAF1000F06D0BCF1000FDC
:10285000DCBF40F0080040F008014FF000000FBC62
:10286000BDE810400BF1010BBBF1010F08BF5FEA9F
:10287000170722BF12F1010211F101014FF00041CF
:1028800043F1000300F0004043EA00007047F9D331
:102890005708D0E746EA064613F1400F4FEA1646BE
:1028A0001FDD13F1200FDFBF16430A46002120333E
:1028B0005B42BED0C3F1200746EA064602FA07F79C
:1028C0004FEA164646EA0706C3F1200722FA03F24A
:1028D00001FA07F721FA03F14FF0000342EA070279
:1028E000A7E746EA020646EA06464FEA164646EAE1
:1028F0000106BCBF46EA0646360C4FF000034FF017
:1029000000024FF0000194E72DE9804C9A4693466F
:1029100070B491E8380007C831EA400C48BF34EA87
:10292000430C03D5FFF7A4FDFFF780FFF0BCBDE823
:10293000008C2DE9804C9A46934670B491E838009B
:1029400007C831EA400C48BF34EA430C03D5FFF70F
:102950008FFDFFF729FFF0BCBDE8008C2DE9804C0E
:102960009A46934670B491E8380007C810F0804F3B
:1029700008BF13F0804F03D100F01AF8FFF756FF9D
:10298000F0BCBDE8008C2DE9804C9A46934670B4AB
:1029900091E8380007C810F0804F08BF13F0804F4F
:1029A00003D100F005F8FFF7FFFEF0BCBDE8008C96
:1029B00020F07F4780EA030023F07F4C07EB0C03F5
:1029C000A3F57C5300F00040A3F1FE0392F0000F4A
:1029D00000F0B38095F0000F00F077802DE90149F9
:1029E0004FEA11404FEA144621EA004800FB06FC7A
:1029F00024EA064708FB06F607FB08F800FB07F782
:102A000018EB06484CEB164C4FEA124B18EB0748F4
:102A10004FEA15464CEB174022EA0B4E0BFB06FC27
:102A200025EA06470EFB06F607FB0EFE0BFB07F733
:102A30001EEB064E4CEB164C4FF000061EEB074EFD
:102A40004CEB174B18EB0B0840F1000018EB0E0B8A
:102A500058EB000840F100008F1A4FF000013CBF16
:102A6000C943661B14BFB5EB040C00213CBFC9432E
:102A7000F61B4FEA17444EEA8E0E27EA04454FEA4A
:102A80001C4704FB07622CEA074C05FB07F70CFB0D
:102A900005F604FB0CFC16EB074642EB174216EB5F
:102AA0000C4642EB1C421BEB060658EB020241416E
:102AB00046EA9E0601D5BDE80189B619524141EBAF
:102AC0000101A3F10103BDE801894FEA14454FEA72
:102AD000114724EA054621EA074C05FB07F406FBEB
:102AE00007F70CFB06F105FB0CFC11EB074144EB6F
:102AF00017444FEA124711EB0C4144EB1C4422EA05
:102B0000074C05FB07F206FB07F70CFB06F605FB77
:102B10000CFC16EB074642EB174216EB0C4642EB59
:102B20001C456A1854F1000148BF7047B61952415C
:102B300041EB0101A3F10103704795F0000F37D07D
:102B40004FEA11424FEA144721EA024624EA074CB1
:102B500002FB07F106FB07F70CFB06F402FB0CFC7B
:102B600014EB074441EB17414FEA154714EB0C44B3
:102B700041EB1C4125EA074C02FB07F506FB07F772
:102B80000CFB06F602FB0CFC16EB074645EB174563
:102B900016EB0C4645EB1C42121951F1000148BFDF
:102BA0007047B619524141EB0101A3F1010370478F
:102BB0004FEA14454FEA114724EA054621EA074C3B
:102BC00005FB07F106FB07F70CFB06F24FF00006CA
:102BD00005FB0CFC12EB074241EB174112EB0C42D8
:102BE00051EB1C4148BF7047921841EB0101A3F122
:102BF0000103704770B50546AC6B206C00F05000C7
:102C000050BB206C40F4007020642068806800F0A5
:102C10004050E8B9207ED8B92068C06A00F470003E
:102C200020B12068806800F4806088B9206840681E
:102C300020F0200021684860206C20F4807020641F
:102C4000206C00F4805018B9206C40F00100206422
:102C5000204600F025FF0BE0206C00F0100018B1BA
:102C6000204600F02AFF03E0A06BC16C284688478D
:102C700070BD70B50546AC6B40202064606C40F0C0
:102C800004006064204600F018FF70BD70B5044673
:102C9000A56B284600F010FF70BD000055494A683A
:102CA00022F440324A604A6843681A434A60026824
:102CB000526822F4807203685A600268536802699D
:102CC00043EA022203685A600268526822F04072A6
:102CD00003685A600268526883681A4303685A603E
:102CE0000268926822F4006203689A60026892683F
:102CF000C3681A4303689A603F4B826A9A4218D0AD
:102D00000268926822F0706203689A6002689268B2
:102D1000836A1A4303689A600268926822F04052FC
:102D200003689A6002689268C36A1A4303689A60EB
:102D30000BE00268926822F0706203689A60026891
:102D4000926822F0405203689A600268926822F00A
:102D5000020203689A6002689368027E43EA4202B4
:102D600003689A602022125CA2B10268526842F4A1
:102D7000006203685A600268526822F46042036885
:102D80005A6002685368426A521E43EA423203683C
:102D90005A6005E00268526822F4006203685A60D3
:102DA0000268D26A22F470020368DA620268D36AA7
:102DB000828B521E43EA02520368DA62026892680A
:102DC00022F4007203689A600268936890F83020D9
:102DD00043EA422203689A600268926822F48062A1
:102DE00003689A6002689368426943EA8222036832
:102DF0009A607047002301400100000F074931F934
:102E0000101047F6FF72914207DA044931F81010AA
:102E1000491C09B2014A22F810107047C80301206A
:102E20000146064A02EB41006FF0004302689A42F5
:102E300002D00268521C026070470000C8030120E3
:102E40002DE9FC4704460D4616461F464FF0010883
:102E5000D4F84C05D0F81C90A9F8907102200346D4
:102E60002A460621CDE9006020460CF055F8804640
:102E70004046BDE8FC8710B50446EE2018F0BCFEC5
:102E8000B12018F0B9FE122018F0B6FE200A18F092
:102E9000B3FEE0B218F0B0FE10BD10B5FF2018F080
:102EA000ABFEFC2018F0A8FEFF2018F0A5FEFF20C6
:102EB00018F0A2FE10BD70B504460D46200A18F0A9
:102EC0009BFEE0B218F098FE002018F095FE01205D
:102ED00018F092FEE8B218F08FFE70BD70B504468F
:102EE0000D46200A18F088FEE0B218F085FE022098
:102EF00018F082FEE8B218F07FFE70BD70B505468E
:102F00000C46280A18F078FEE8B218F075FE00208A
:102F100018F072FE042018F06FFE200E18F06CFE00
:102F2000C4F3074018F068FEC4F3072018F064FEED
:102F3000E0B218F061FE70BD70B504460D46200A7F
:102F400018F05AFEE0B218F057FE012018F054FEB7
:102F5000E8B218F051FE70BD00BFFEE72DE9F04168
:102F60000646D6F84C05C469002794F84E0003289D
:102F700002D0042833D109E0237B628B3046216ADA
:102F80000DF0B5F8042084F84E0029E0217B30468E
:102F90000EF031FC0746012F20D1217B30460EF088
:102FA000EAFB0546A16A481B0CD0608BA84209D1F8
:102FB000A06A401BA062206A28442062032084F893
:102FC0004E0005E0002084F84E0030460DF084FAF3
:102FD00000231A460421304610F051F900E000BFEA
:102FE00000BFBDE8F081F8B50546D5F84C05C469C9
:102FF000002694F84D00012802D002284FD119E094
:10300000208B616A814208D901200090637B228B6A
:103010002846E1690DF080F808E001200090637B0C
:10302000A08C82B22846E1690DF076F8022084F87F
:103030004D0035E0617B28460EF0DDFB0646012E93
:1030400021D1208B616A814208D9208B616A081ADC
:103050006062208BE1690844E06101E00020606269
:10306000606A18B1012084F84D0005E0002084F862
:103070004D0028460DF034FA00231A460421284654
:1030800010F0FDF80AE0022E08D1012084F84D006E
:1030900000231A460421284610F0F1F800E000BF92
:1030A00000BFF8BD10B5044620461BF02EFD0020E1
:1030B000014921F8140010BDC803012010B50446D1
:1030C00020461BF022FD611C88B21BF01EFD002073
:1030D000044921F814000021024A601C22F8101053
:1030E00010BD0000C8030120074931F9101011F587
:1030F000004F07DD044931F81010491E09B2024A99
:1031000022F8101070470000C803012010B50248D3
:1031100001F098F810BD0000700200200146087808
:1031200010381823B0FBF3F20848805CC865032A06
:1031300005D908686FF30900001D886503E0086879
:103140006FF309008865886D704700007895030863
:10315000014600208A6A8B69CBB932B1012A0DD0B1
:10316000022A03D0032A10D10EE000BFCB6A03F07D
:103170008073B3F1807F00D1012007E0CB6AB3F107
:10318000C07F00D1012001E000E000BF34E08B6986
:10319000B3F5005F1AD132B1012A07D0022A03D059
:1031A000032A11D10AE000BF01200EE0CB6A03F030
:1031B0008073B3F1807F00D1012006E0CB6AB3F1C8
:1031C000C07F00D1012000E000BF15E032B1012A2C
:1031D00005D0022A04D0032A0CD103E000BF00BFAF
:1031E000012008E0CB6A03F08073B3F1807F00D147
:1031F000012000E000BF00BF704730B504682468BC
:1032000024F4802405682C60046863608468402C82
:1032100004D10468A2600468E16003E00468A1606E
:103220000468E26030BD70B50446002505E0002169
:1032300004F2545040F825106D1C102DF7D30025D2
:1032400004E0002104F58E7041556D1CB5F5007F3A
:10325000F7D30020207060700120A0700020C4F817
:103260009405012121764021A1710021617684F825
:103270001C13012184F81D13002184F81F1384F806
:103280001E134FF4807104F11C00FDF757FC4FF43E
:10329000007104F58E70FDF751FC122104F2263006
:1032A000FDF74CFC4FF4FF7104F54E70FDF746FC42
:1032B000002070BD7047000010B50D4B99220DA184
:1032C00013A0FDF741F90020174909684862164824
:1032D00003F02AFC18F0C2FD0020144908801449AC
:1032E00008801449087001201349087010BD0000BF
:1032F000E1A303082E2E5C2E2E5C73506C63506F7E
:1033000072745C73506C634C617365722E63000061
:1033100025732C25642C25733A6C617365722073B8
:10332000746F70210A00000084040020D601002080
:10333000DC010020E6010020E801002072B600BF99
:10334000FEE730B504460D4600222946204600F02F
:1033500001F830BDF0B50346012500241148407A3C
:1033600001281CDA00200F4E767A0E4FB8553846E9
:10337000467A001D40F82630001F467A08308255F4
:103380003E46707A461C7E72044604F13000087096
:103390003A2048702F2088700020C87000252846E9
:1033A000F0BD00007024002010B51BF0B9FE1BF02A
:1033B0007DFC1BF0B6FE10BD10B504461BF0B0FE40
:1033C0000A4B03EBC4114FF4087202EBC41290B223
:1033D000802216F03DF9064B4FF4F37205A10BA0C5
:1033E000FDF7B2F81BF09DFE10BD0000A81A0120E9
:1033F000A8A303082E2E5C2E2E5C73506C635C73A6
:10340000506C6346756E2E630000000025732C25FA
:10341000642C25733A73617665204F6E65204644AF
:10342000204E5652414D20646F6E652E2E2E0A009E
:1034300010B5002201B909E0012901D10A0205E015
:10344000022901D10A0201E04FF440720E4B1B68C1
:1034500023F440730C4C236023461B681343236002
:1034600023461B6823F07803236023461B6802244D
:1034700044EAC0042343044C236023461B6843F4FE
:103480008033236010BD0000103C02401C480068DF
:1034900000F40070B0B11A48006820F400701849B8
:1034A000086000BF0846006840F4006008600846F5
:1034B000006820F40060086000BF0846006840F41F
:1034C000007008600E48006800F48060B0B10C48DD
:1034D000006820F480600A49086000BF0846006860
:1034E00040F4805008600846006820F4805008606E
:1034F00000BF0846006840F4806008607047000024
:10350000003C024010B54FF0006000F029F80F4970
:1035100008600F4800F024F80C490968401A401C64
:103520000C49086000200C49086008480068886061
:1035300008480068C860022008610849064801F090
:103540009DF808B1012010BD0020FCE79801002083
:10355000FBFF00089C010020A8030120A00100201F
:10356000014600202C4A914203D2B1F1006F00D3F2
:1035700050E02A4A914204D2274A914201D30120C5
:1035800048E0274A914204D2244A914201D30220C2
:1035900040E0244A914204D2214A914201D30320BF
:1035A00038E0214A914204D21E4A914201D30420BC
:1035B00030E01E4A914204D21B4A914201D30520B9
:1035C00028E01B4A914204D2184A914201D30620B6
:1035D00020E0184A914204D2154A914201D30720B3
:1035E00018E0154A914204D2124A914201D30820B0
:1035F00010E0124A914204D20F4A914201D30920AD
:1036000008E00F4A914204D20C4A914201D30A20A9
:1036100000E00B2070470000004000080080000818
:1036200000C00008000001080000020800000408B3
:10363000000006080000080800000A0800000C0846
:1036400000000E080A4A126822F44072084B1A6001
:103650001A46126842F004021A601A4612684FF4C1
:10366000803343EA00231A43014B1A60704700007D
:10367000103C0240074A126822F44072054B1A605F
:103680001A4612681A601A46126842F001021A605D
:1036900001707047103C024010B50A49096821F4D6
:1036A0004071084C21602146096841F44071216055
:1036B0002146096841F0010121600260BFF36F8F6C
:1036C000436010BD103C0240084A126822F4407268
:1036D000064B1A601A46126842F480721A601A4643
:1036E000126842F001021A6001807047103C0240EB
:1036F000084A126822F44072064B1A601A46126891
:1037000042F400721A601A46126842F001021A600E
:1037100001607047103C02402348006800F0100030
:1037200040B12248C06940F010002049C861102013
:103730001D4908601C48006800F0200040B11B488B
:10374000C06940F008001949C86120201649086086
:103750001548006800F0400040B11448C06940F0CE
:1037600004001249C86140200F4908600E480068F3
:1037700000F0800040B10D48C06940F002000B49E4
:10378000C8618020084908600748006800F002000E
:1037900040B10648C06940F020000449C8610220D9
:1037A00001490860704700000C3C024018000020EE
:1037B00070B50446002500201449C86101F0DCF909
:1037C000054609E0601C38B124B101F0D5F9401B71
:1037D000A04201D9032070BD0D48006800F480307C
:1037E0000028EFD10A48006800F0010010B1012064
:1037F000074908600648006800F0F20018B1FFF7BA
:103800008BFF0120E7E70020E5E70000180000201B
:103810000C3C024070B504460D460848844208D866
:103820002A4600232146022000F088FF18B101201B
:1038300070BD0120FCE70020FAE70000FBFF000854
:1038400070B5044620461BF059F92046E21704EBF8
:10385000127212110A4B33F912202146E31704EBBE
:1038600013731B11A4EB03131A4102F0010515B1E8
:1038700009F040FF02E0204609F05EFF70BD000045
:10388000C803012070B504460D46EE2018F0B4F9C7
:10389000B12018F0B1F9AB2018F0AEF9200E18F0F5
:1038A000ABF9C4F3074018F0A7F9C4F3072018F0E8
:1038B000A3F9E0B218F0A0F9280E18F09DF9C5F3AD
:1038C000074018F099F9C5F3072018F095F9E8B208
:1038D00018F092F9FF2018F08FF9FC2018F08CF9FD
:1038E000FF2018F089F9FF2018F086F970BD70B537
:1038F00004460D46A12121742121617400216182B9
:10390000A1820721E1820722294620460CF01BFEF6
:1039100070BD000038B502460020009000BF92F84C
:103920003C00012801D1022038BD012082F83C0072
:1039300000BF0868092816D91068C0680C780A3CCE
:1039400004EB44050724AC40A0431468E0600C7805
:103950000A3C04EB44048868A0401468E4682043EF
:103960001468E06013E0106800690C7804EB44050B
:103970000724AC40A043146820610C7804EB440495
:103980008868A0401468246920431468206148684E
:10399000072817D21068406B0C79641E04EB84056D
:1039A0001F24AC40A04314686063088880B20C797F
:1039B000641E04EB8404A0401468646B2043146804
:1039C000606331E048680D2817D21068006B0C79ED
:1039D000E41F04EB84051F24AC40A043146820635B
:1039E000088880B20C79E41F04EB8404A0401468BA
:1039F000246B20431468206316E01068C06A0C79B9
:103A00000D3C04EB84051F24AC40A0431468E06225
:103A1000088880B20C790D3C04EB8404A040146843
:103A2000E46A20431468E062194B1A4C1068A04203
:103A300006D10868122803D1586840F48000586005
:103A4000144C1068A0421CD10868102802D00868E5
:103A5000112816D1586840F40000586008681028F2
:103A60000FD10D4800680D4CB0FBF4F000EB800066
:103A70004000009002E00098401E0090009800284E
:103A8000F9D100BF002082F83C0000BF00BF4BE727
:103A900000230140002001404400002040420F006C
:103AA000034A0168914202D10121024A1170704714
:103AB00000200140D30100207047704770B50446D4
:103AC00000250CB9012070BD1549A06A884200D0BC
:103AD00000BF206C30B9204600F024F8002060645C
:103AE00084F83C00206C00F0100088B9206C20F4B1
:103AF000885040F0020020642046FFF7CFF80020F5
:103B00006064206C20F0020040F00100206400E0BE
:103B1000012500BF002084F83C0000BF2846D2E702
:103B20000100000F10B586B00446142101A8FDF76E
:103B300027F84049206888427AD100BF00200090D1
:103B40003D48006840F480703B49086008460068C2
:103B500000F48070009000BF00BF00BF0020009004
:103B600035481438006840F00400334914390860BF
:103B70000846006800F00400009000BF00BF00BFCE
:103B8000002000900846006840F0010008600846E8
:103B9000006800F00100009000BF00BF00BF0020DF
:103BA00000900846006840F002000860084600687F
:103BB00000F00200009000BF00BF3F2001900320F2
:103BC00002900020039001A91C4800F0CDFEC02007
:103BD0000190032002900020039001A9184800F0F2
:103BE000C3FE0320019002900020039001A9154814
:103BF00000F0BAFE14481549086000204860002112
:103C000012488160C1604FF48061016149004161E7
:103C1000890081610021C1610162416200F032FCD2
:103C200008B1FFF78BFB00BF0848A063846300BFA7
:103C300006B010BD00200140443802400008024098
:103C400000000240000402401064024070020020A4
:103C50002DE9F84304460D461646002000908046A4
:103C600000BF94F83C00012802D10220BDE8F8838F
:103C7000012084F83C0000BF2068806800F001004B
:103C8000A0B92068806840F001002168886056482B
:103C900000685649B0FBF1F000EB4000009002E0F4
:103CA0000098401E009000980028F9D12068806894
:103CB00000F48070B0F5807F05D12068806820F422
:103CC0008070216888602068806800F0010000280A
:103CD0007FD0206C40F20161884340F48070206402
:103CE0002068406800F4806028B1206C20F4005007
:103CF00040F480502064206C00F48050B0F5805F68
:103D000004D1606C20F00600606401E00020606473
:103D100000BF002084F83C0000BF354F3548A16B40
:103D2000C8633548A16B08643448A16BC8646FF060
:103D30002200216808602068406840F080602168A7
:103D400048602068806840F480702168886022683C
:103D500002F14C0133462A46A06B00F009FC804674
:103D6000786800F01F0018BB25492068884213D0EE
:103D700024492068884204D1381D006800F01F00E3
:103D800050B12149206888422BD11948001D006894
:103D900000F01F00102824D22068806800F04050F6
:103DA000F8B92068806840F080402168886018E099
:103DB00013492068884214D12068806800F0405080
:103DC00078B92068806840F080402168886008E009
:103DD000FFE7206C40F010002064606C40F00100B0
:103DE0006064404642E700004400002040420F006B
:103DF00000230140F52B01088D2C0108732C0108CC
:103E000000200140002101400022014070B504461D
:103E1000002500BF94F83C00012801D1022070BDAC
:103E2000012084F83C0000BF2068806820F0010079
:103E3000216888602068806800F00100F8B9206877
:103E4000806820F4807021688860A06B90F835004D
:103E5000022808D1A06B00F08BF905461DB1206C3B
:103E600040F0400020642068406820F080602168B5
:103E70004860206C20F4885040F00100206400BFAE
:103E8000002084F83C0000BF2846C8E770B5034610
:103E90000C46002002255D711D68AD6845F00105E6
:103EA0001E68B560002104E054F821501E6835609A
:103EB000491C9142F8D31D68286801255D7170BDC9
:103EC00010B504460CB9012010BD607920B900205E
:103ED0002071204600F004F8012060710020F3E713
:103EE00008B50A4A016891420FD100BF0021009134
:103EF0000749096841F48051054A11601146096873
:103F000001F48051009100BF00BF08BD00300240A5
:103F1000303802407047F0B50346002603B109B9B6
:103F20000120F0BD00BF5879012801D10220F8E737
:103F30000120587100BF022018711868046802F04F
:103F4000100740F6FE70B8408443D1E9000740EA0C
:103F5000070502F0100005FA00F004431868046039
:103F60001868006802F0100CC02707FA0CF7B84375
:103F70001F6838600120187100BF0020587100BF11
:103F80003046CEE7704770B5044620680568206863
:103F9000466B05F40050B0F5005F17D106F40050F1
:103FA000B0F5005F12D104202071206940F00100BB
:103FB00020614FF40050216848632068006820F4B5
:103FC0008050216808602046FFF7DCFF05F00050B4
:103FD000B0F1005F17D106F00050B0F1005F12D1D0
:103FE00004202071206940F0020020614FF0005051
:103FF000216848632068006820F0805021680860CC
:104000002046FFF787FF70BD10B504460CB90120AC
:1040100010BD207920B900206071204600F008F81A
:104020000220207100202061012020710020EFE794
:1040300010B586B00446142101A8FCF7A1FD1D4966
:104040002068884233D100BF002000901A480068E1
:1040500040F00050184908600846006800F0005021
:10406000009000BF00BF00BF002000901248103831
:10407000006840F0010010491039086008460068E7
:1040800000F00100009000BF00BF3020019003202D
:1040900002900020039001A9084800F065FC00226E
:1040A0000521362001F040FE362001F029FE06B041
:1040B00010BD000000740040403802400000024083
:1040C00038B50446002000900CB9012038BD2068A6
:1040D000009029B902F10800009D2844009004E0F6
:1040E00002F11400009D2844009000980360002015
:1040F000ECE710B502460AB9012010BD00BF5079A7
:10410000012801D10220F8E70120507100BF0220F0
:1041100010711068006801F010040123A3401843D7
:104120001368186061B91068006800F03C003C2812
:1041300016D11068406840F00100136858600FE025
:104140001068006800F4701301F010043C20A040D7
:10415000834205D11068406840F00200136858603F
:104160000120107100BF0020507100BF00BFC4E7E4
:1041700070B50446A56D00F0FFFC064694F83500C6
:10418000022808D08020606500BF002084F8340039
:1041900000BF012070BD2068006820F01600216873
:1041A00008602068406920F0800021684861206C28
:1041B00008B9A06C28B12068006820F008002168C8
:1041C00008602068006820F001002168086010E0A5
:1041D00000F0D2FC801B05280BD92020606503204D
:1041E00084F8350000BF002084F8340000BF0320AD
:1041F000D0E72068006800F001000028E8D194F8BA
:104200005C103F208840A860012084F8350000BF82
:10421000002084F8340000BF00BFBBE7014691F8DE
:104220003500022803D08020486501207047052012
:1042300081F835000868006820F001000A68106005
:104240000020F3E7F8B50446002000908C48006891
:104250004FF41651B0FBF1F7A56D2E6894F85C1081
:1042600008208840304098B12068006800F00400C1
:1042700070B12068006820F004002168086094F89C
:104280005C1008208840A860606D40F00100606507
:1042900094F85C1001208840304068B12068406983
:1042A00000F0800040B194F85C1001208840A860C4
:1042B000606D40F00200606594F85C100420884056
:1042C000304068B12068006800F0020040B194F806
:1042D0005C1004208840A860606D40F004006065B8
:1042E00094F85C1010208840304078B32068006853
:1042F00000F0080050B394F85C1010208840A860CB
:104300002068006800F4802080B12068006800F414
:10431000002028B9206CC8B12046216C884715E0E0
:10432000A06C98B12046A16C88470FE02068006817
:1043300000F4807028B92068006820F00800216827
:104340000860206C10B12046216C884794F85C10FE
:10435000202088403040002865D02068006800F0A8
:10436000100000285FD094F85C1020208840A860DE
:1043700094F83500052828D12068006820F0160040
:10438000216808602068406920F080002168486149
:10439000206C08B9A06C28B12068006820F00800E3
:1043A0002168086094F85C103F208840A8600120D4
:1043B00084F8350000BF002084F8340000BF206D71
:1043C00010B12046216D8847F8BD2068006800F4D0
:1043D000802080B12068006800F4002028B9606C5B
:1043E00010B12046616C88471DE0E06BD8B12046D3
:1043F000E16B884717E02068006800F4807068B9B6
:104400002068006820F0100021680860012084F80E
:10441000350000BF002084F8340000BFE06B10B10D
:104420002046E16B8847606D38B3606D00F0010095
:10443000F0B1052084F835002068006820F0010004
:104440002168086000BF0098401C0090B84200D965
:1044500005E02068006800F001000028F3D100BFEB
:10446000012084F8350000BF002084F8340000BF2C
:10447000E06C10B12046E16C884700BFA4E7000063
:10448000440000202DE9F0410446002500F074FBB3
:10449000074614B90120BDE8F081606A00B100BF91
:1044A000022084F8350000BF002084F8340000BFEB
:1044B0002068006820F00100216808600AE000F030
:1044C0005BFBC01B052805D920206065032084F80C
:1044D0003500E0E72068006800F001000028EED118
:1044E0002068056821480540D4E901010843E168D6
:1044F00008432169084361690843A1690843E169E8
:104500000843216A08430543606A042803D1D4E9BB
:104510000B0108430543206805602068456925F0C4
:104520000705606A0543606A04280DD1A06A054347
:10453000E06A48B12046FEF70BFE28B140206065D6
:10454000012084F83500A6E7206845612046FEF783
:10455000E5FD064694F85C103F208840B0600020DE
:104560006065012084F83500002094E73F8010F05A
:104570002DE9F04704460D4616461F464FF0000849
:10458000D4F8589000BF94F83400012802D10220DA
:10459000BDE8F087012084F8340000BF94F83500AE
:1045A000012825D1022084F83500002060653B46B3
:1045B000324629462046FEF720FE94F85C103F2044
:1045C0008840C9F808002068006840F0160021689B
:1045D0000860206C28B12068006840F0080021685D
:1045E00008602068006840F001002168086006E06B
:1045F00000BF002084F8340000BF4FF0020840469E
:10460000C6E7000010B50F480F4908600020086099
:104610000E48091D0860002008600D480A4910393D
:10462000086000200860C120091D086000200860A3
:104630000120091D08600020086001F00DFB00202A
:1046400010BD0000FFC9FEF6203802403379770420
:10465000FF11602270B5044600F08EFA064625462A
:10466000681C10B104480078054400BF00F084FACB
:10467000801BA842FAD370BD400000202DE9F04114
:1046800004460F46002600BF2548007E012802D1BF
:104690000220BDE8F08101202149087600BF4CF2DC
:1046A0005030FFF785F80546002D31D1401E3860A7
:1046B000206801280FD1207C6168FEF7C3FF4CF20F
:1046C0005030FFF775F805461648006820F00400E2
:1046D000144908601AE0A66812E0217C3046FEF713
:1046E000A7FE4CF25030FFF763F805460D4800680E
:1046F00020F07A000B4908600DB13E6005E0761CA1
:10470000D4E902100844B042E7D800BFFEF7BEFE6D
:1047100000BF00200249087600BF2846B9E7000024
:1047200018000020103C02400348006840F00040A0
:104730000149086000207047103C02402DE9F0411B
:104740000646884614461D4600BF1E48007E0128C6
:1047500002D10220BDE8F08101201A49087600BF8D
:104760004CF25030FFF724F807461FBB26B9E1B2E0
:104770004046FEF77FFF12E0012E04D1A1B2404671
:10478000FEF7A2FF0BE0022E04D121464046FEF7C1
:10479000AFFF04E022462B464046FEF77DFF4CF279
:1047A0005030FFF705F807460748006820F0010081
:1047B0000549086000BF00200249087600BF38465E
:1047C000C8E7000018000020103C02400020094902
:1047D000096801F0004159B10749064A0C3A1160D5
:1047E000064911600349096801F0004101B1012047
:1047F00070470000103C024023016745AB89EFCDB4
:10480000F0B50C46002500220023002194E001268B
:1048100006FA01F504EA0502AA427DD1484E8F0846
:1048200056F827308E07370F0F26BE403340454ECF
:10483000B04201D1002623E0434EB04201D101260F
:104840001EE0424EB04201D1022619E0404EB04275
:1048500001D1032614E03F4EB04201D104260FE0FF
:104860003D4EB04201D105260AE03C4EB04201D196
:10487000062605E03A4EB04201D1072600E00826A0
:104880008F073F0FBE409E4224D1364E3668964376
:10489000344F3E603E1D366896433F1D3E60314EAC
:1048A0000C36366896432F4F0C373E603E1F3668F5
:1048B00096433F1F3E608E07370F0F2606FA07F319
:1048C0001F4E8F0856F827609E431D4F4FEA910CEC
:1048D00047F82C6006684FEA410C032707FA0CF7EB
:1048E000BE430660CF0800F1200656F827604F0748
:1048F0004FEAD76C0F2707FA0CF7BE434FEAD10CEB
:1049000000F1200747F82C60C6684FEA410C0327E6
:1049100007FA0CF7BE4300E00DE0C66046680127C9
:104920008F40BE43466086684FEA410C032707FA72
:104930000CF7BE438660491C1029FFF468AFF0BD38
:104940000838014000000240000402400008024014
:10495000000C024000100240001402400018024007
:10496000001C0240003C0140F8B502460B46002501
:10497000002400200021D6E0012606FA01F51E6879
:1049800006EA0504AC4274D11E7906F00306012E36
:1049900004D01E7906F00306022E13D190684F0052
:1049A0000326BE40B0434F00DE68BE4030439060F7
:1049B000506801268E40B0431E79C6F300168E4023
:1049C000304350601E7906F00306032E09D0D068EC
:1049D0004F000326BE40B0434F009E68BE403043A8
:1049E000D0601E7906F00306022E13D1CF0802F123
:1049F000200656F827004E07F70E0F26BE40B0439C
:104A00004F07FF0E1E69BE403043CF0802F120065B
:104A100046F8270010684F000326BE40B0431E79B9
:104A200006F003064F00BE40304310605E6806F497
:104A30004036002E76D000BF002600963C4E3668E9
:104A400046F480463A4F3E603E46366806F480465D
:104A5000009600BF00BF374E8F0856F827008E071C
:104A6000370F0F26BE40B043334EB24202D100266C
:104A700024E057E0314EB24201D101261EE0304E13
:104A8000B24201D1022619E02E4EB24201D10326D4
:104A900014E02D4EB24201D104260FE02B4EB2425B
:104AA00001D105260AE02A4EB24201D1062605E0D0
:104AB000284EB24201D1072600E008268F073F0F9B
:104AC000BE4030431B4E8F0846F82700224E306808
:104AD000A0435E6806F4801606B120431E4E306087
:104AE000361D3068A0435E6806F4001606B1204308
:104AF000194E361D3060184E361F3068A0435E6870
:104B000006F4003606B12043134E361F3060361FC0
:104B10003068A0435E6806F4803606B120430E4E2E
:104B2000083E3060491C1029FFF426AFF8BD000094
:104B300044380240083801400000024000040240AE
:104B400000080240000C0240001002400014024025
:104B500000180240001C0240083C01400246136954
:104B60000B400BB1012000E0002070470AB18161C9
:104B700001E00B0483617047014800687047000042
:104B80003800002010B50446D4F8DC030CF0B5FD65
:104B900010BD10B50446D4F8DC030CF0C0FD10BD08
:104BA00010B5044620680FF047FD10BD10B504464F
:104BB00020680FF048FD10BD10B502460023C1EB80
:104BC000011402F1140000EB84008371C1EB0114A5
:104BD00002F1140000EB8400C371C1EB011402F177
:104BE000140000EB84004374C1EB011402F11400C3
:104BF00000EB84000374002010BD0246C1EB0113DA
:104C000002F1140000EB830090F838007047024670
:104C1000C1EB011302F1140000EB8300406A7047FE
:104C20002DE9FF5F04460D4616469B46DDE90E78EA
:104C3000DDF840A000BF94F8D403012803D102207E
:104C400004B0BDE8F09F012084F8D40300BF002128
:104C5000C5EB051204F1140000EB82004171C5EBB5
:104C6000051104F1140000F821B0C5EB051100EBAB
:104C700081004570C5EB051104F1140000EB8100C3
:104C800080F8128006F07F01C5EB051204F11400D4
:104C900000EB8200817029462046FFF78DFF06F069
:104CA0008000802808D10121C5EB051204F1140011
:104CB00000EB8200C17007E00021C5EB051204F192
:104CC000140000EB8200C17020680FF0BCFC81462C
:104CD000B8F1010F09D1012F07D1B9F1000F04D1AB
:104CE000BAF1BC0F01D94FF0BC0AC5EB051104F1B4
:104CF000140000EB81000771C5EB051204F11400EC
:104D000000EB8200A0F814A01FFA8AF0CDE9007829
:104D100002905B463246294620680FF081FD0390E1
:104D200000BF002084F8D40300BF039888E770B563
:104D300004460D461646D4F8DC030CF09DFD70BD0C
:104D40002DE9F05F04460D4616461F46DDE90C9B33
:104D5000DDE90A8AC5EB051104F1140000EB8100BE
:104D6000C670C5EB051104F1140000EB81008774D7
:104D7000B8F1000F10D10321C5EB051204F11400A6
:104D800000EB82008175C5EB051104F1140000EB06
:104D9000810080F805B007E00221C5EB051204F19F
:104DA000140000EB8200817537B1012F6FD0022F04
:104DB00051D0032F6CD187E0B8F1010F4AD136BB37
:104DC000B9F1000F08D10121C5EB051204F114005F
:104DD00000EB820080F82910C5EB051104F11400E6
:104DE00000EB810090F8290040B90021C5EB0512C5
:104DF00004F1140000EB820081752BE00221C5EB69
:104E0000051204F1140000EB8200817522E0C5EB6D
:104E1000051104F1140000EB81008079012819D1FB
:104E2000C5EB051104F1140000EB810090F8280097
:104E300040B90021C5EB051204F1140000EB82001B
:104E4000817507E00221C5EB051204F1140000EBA7
:104E50008200817579E0E6B9C5EB051104F1140013
:104E600000EB810090F8290040B90021C5EB051244
:104E700004F1140000EB8200817524E00221C5EBEF
:104E8000051204F1140000EB820081751BE052E072
:104E90005AE0C5EB051104F1140000EB810090F815
:104EA000280040B90021C5EB051204F1140000EB05
:104EB0008200817507E00221C5EB051204F11400A0
:104EC00000EB8200817540E0D6B9C5EB051104F115
:104ED000140000EB810090F8290040B90021C5EBD7
:104EE000051204F1140000EB8200817522E002211A
:104EF000C5EB051204F1140000EB8200817519E086
:104F0000C5EB051104F1140000EB810090F82800B6
:104F100040B90021C5EB051204F1140000EB82003A
:104F2000817507E00221C5EB051204F1140000EBC6
:104F30008200817509E00021C5EB051204F114001F
:104F400000EB8200817500E000BF00BFC5EB0511DA
:104F500004F1140000EB8100C0F818A0C5EB0511A6
:104F600004F1140000EB8100C0F820900021C5EB93
:104F7000051204F1140000EB820080F83810C5EB34
:104F8000051204F1140000EB82004162C5EB05112B
:104F900004F1140000EB810045700021C5EB0512FF
:104FA00004F1140000EB820080F83910A279C5EBFF
:104FB000051C04F1140303EB8C0120680FF022FDA3
:104FC000BDE8F09F2DE9F04104462768B846206807
:104FD0000FF045FB01287AD120680FF08BFF08B94C
:104FE000BDE8F08120680FF085FF00F40010B0F5F7
:104FF000001F03D14FF400102168486120680FF0B2
:1050000079FF00F48010B0F5801F03D14FF48010B9
:105010002168486120680FF06DFF00F08060B0F1FA
:10502000806F03D14FF080602168486120680FF0E5
:1050300061FF00F00200022801D121684861206868
:105040000FF058FF00F00050B0F1005F19D14FF0A1
:10505000005021684861D8F8400400F0010080B990
:10506000102138460FF0BEFA38460FF093FA607AF6
:10507000022803D1012120680FF008FF2046FFF726
:1050800088FD20680FF036FF00F08070B0F1807F5F
:1050900002D1204603F0F6FD20680FF02BFF00F050
:1050A0000800082805D1204600F02EF908202168C4
:1050B000486120680FF01EFF00F00070B0F1007F23
:1050C00027D120680FF096FC064600251AE035E04F
:1050D00005F00F0101208840304090B108F5A06034
:1050E00000EB4510006800F40040B0F5004F04D11B
:1050F000E9B2204602F02CFD03E0E9B2204603F0BD
:1051000017FA6D1C6079A842E2D84FF00070216850
:10511000486120680FF0EEFEC0F3001070B1206807
:10512000806920F0100021688861204603F005FEA8
:105130002068806940F010002168886100BF4FE757
:1051400038B504460CB9012038BD256894F8D5035C
:1051500028B9002084F8D403204600F035F8032055
:1051600084F8D503B5F1A04F01D10021A1712068C9
:105170000FF0BBF9207C8DF8000094E80F000FF0D1
:105180003DF920B1022084F8D5030120DCE701219C
:1051900020680FF002FF20B1022084F8D50301201F
:1051A000D2E7207C8DF8000094E80F000FF0EEFDB0
:1051B00020B1022084F8D5030120C5E7012084F83E
:1051C000D5030020C0E7000010B586B004461421C6
:1051D00001A8FBF7D5FC2068B0F1A04F43D100BF78
:1051E000002000903A48006840F00100384908600B
:1051F0000846006800F00100009000BF00BF4FF4B7
:10520000C0500190022002900020039003200490DF
:105210000A20059001A92F48FFF7A6FB00BF2C48E4
:10522000001D006840F080002949091D086000BF8A
:105230000020009026481430006840F48040244943
:10524000143108600846006800F48040009000BFF8
:1052500000BF00BF00220521432000F065FD432070
:1052600000F04EFD32E01C49206888422ED100BF7C
:10527000002000901648006840F0020014490860C1
:105280000846006800F00200009000BF00BF4FF425
:1052900040400190022002900020039003200490DF
:1052A0000C20059001A90D48FFF75EFB00BF002010
:1052B00000900748006840F0005005490860084623
:1052C000006800F00050009000BF00BF06B010BDA5
:1052D0003038024000000240000004400004024058
:1052E00010B50446D4F8DC030CF0F0FA10BD10B58C
:1052F0000446D4F8DC030CF0F0FA10BD10B50446F7
:1053000020680FF02CFE10BD10B50446D4F8DC0365
:105310000CF07AFA10BD10B5044600BF94F8D4031F
:10532000012801D1022010BD012084F8D40300BF60
:10533000012120680FF002F920680FF024F900BF66
:10534000002084F8D40300BF00BFECE710B504468A
:1053500000BF94F8D403012801D1022010BD012020
:1053600084F8D40300BF20680FF04BFE00BF00207C
:1053700084F8D40300BF00BFF0E710B504460CB9B1
:10538000012010BD242084F83D002068006820F032
:10539000010021680860204600F02CFB00202064FA
:1053A00084F83D00206384F83E0000BF84F83C0090
:1053B00000BF00BFE5E7000070B504460CB901204E
:1053C00070BD94F83D0028B9002084F83C002046C8
:1053D00000F042FB242084F83D002068006820F0A3
:1053E0000100216808602068006840F400402168DE
:1053F00008602068006820F400402168086000F020
:10540000CFFD05465C496068884206D85B48854206
:1054100001D2012007E0002005E05948854201D271
:10542000012000E00020012800D1C9E75548B5FB64
:10543000F0F62068406820F03F0030432168486063
:105440004D496068884201D8701C07E04FF496709F
:1054500070434FF47A71B0FBF1F0401C2168096A87
:1054600021F03F010843216808624349606888428F
:1054700014D8681E61684900B0FBF1F0401CC0F30D
:105480000B00042801D204203DE0681E6168490039
:10549000B0FBF1F0401CC0F30B0034E0A06838B959
:1054A000681E616801EB4101B0FBF1F0401C0AE0AD
:1054B000681E616801EBC10202EB0111B0FBF1F063
:1054C000401C40F48040C0F30B0008B901201AE0F2
:1054D000A06848B9681E616801EB4101B0FBF1F0BA
:1054E000401CC0F30B000CE0681E616801EBC102B8
:1054F00002EB0111B0FBF1F0401CC0F30B0040F4D3
:10550000804040F400402168C9694CF6FF72914325
:1055100008432168C861D4E9070108432168096884
:1055200021F0C001084321680860D4E90310084352
:105530002168896848F2FF329143084321688860F6
:10554000D4E9050108432168C96821F0FF01084337
:105550002168C8602068006840F001002168086088
:1055600000202064202084F83D000020206384F87F
:105570003E0000BF24E70000A086010080841E00DA
:1055800000093D0040420F002DE9FC5F04460F4634
:1055900090469946DDE90CAB0E9EFFF7EDFA054605
:1055A00094F83D00202870D119230122B5492046E6
:1055B000009503F046FE10B10220BDE8FC9F00BF3D
:1055C00094F83C00012801D10220F6E7012084F87C
:1055D0003C0000BF2068006800F0010028B9206886
:1055E000006840F00100216808602068006820F42D
:1055F000006021680860222084F83D00402084F883
:105600003E0000202064C4F824A0A4F82AB0608DD5
:1056100020859D48E0624B46424639462046CDE90A
:10562000006503F0BBFC08B10120C6E7208D88B9F6
:1056300000BF0020019020684069019020688069C7
:10564000019000BF00BF2068006840F4007021682E
:10565000086040E0208D012818D12068006820F4FF
:1056600080602168086000BF0020019020684069C8
:10567000019020688069019000BF00BF2068006829
:1056800040F400702168086025E0F8E0208D0228D1
:1056900016D12068006820F48060216808602068C6
:1056A000006840F400602168086000BF002001909D
:1056B00020684069019020688069019000BF0AE07D
:1056C00000BF002001902068406901902068806937
:1056D000019000BF00BFC3E0208D03287ED8208D3D
:1056E000012815D12A463146204603F086FE08B12E
:1056F000012062E720680069616A0870606A401CE6
:105700006062208D401E2085608D401E6085A7E070
:10571000208D02282AD1334600225C49204600957C
:1057200003F08FFD08B1012047E72068006840F4CE
:1057300000702168086020680069616A0870606A0A
:10574000401C6062208D401E2085608D401E60855B
:1057500020680069616A0870606A401C6062208D80
:10576000401E2085608D401E608579E03346002212
:1057700046492046009503F064FD08B101201CE76E
:105780002068006820F48060216808602068006953
:10579000616A0870606A401C6062208D401E20852E
:1057A000608D401E608533460022384920460095B2
:1057B00003F047FD08B10120FFE62068006840F4CF
:1057C00000702168086020680069616A0870606A7A
:1057D000401C6062208D401E208500E010E0608D3E
:1057E000401E608520680069616A0870606A401C1C
:1057F0006062208D401E2085608D401E60852FE0F8
:105800002A463146204603F0F8FD08B10120D4E6CF
:1058100020680069616A0870606A401C6062208DBF
:10582000401E2085608D401E608520684069C0F361
:105830008000A8B1208D032805D12068006820F4DD
:1058400080602168086020680069616A0870606A89
:10585000401C6062208D401E2085608D401E60854A
:10586000208D00287FF438AF202084F83D000020F0
:1058700084F83E0000BF84F83C0000BF9DE6022093
:105880009BE60000020010000000FFFF0400010082
:105890002DE9FC5F04460F4690469946DDE90CABC6
:1058A0000E9EFFF769F9054694F83D0020287DD14A
:1058B000192301224D492046009503F0C2FC10B186
:1058C0000220BDE8FC9F00BF94F83C00012801D1F4
:1058D0000220F6E7012084F83C0000BF2068006841
:1058E00000F0010028B92068006840F0010021683C
:1058F00008602068006820F40060216808602120AA
:1059000084F83D00402084F83E0000202064C4F864
:1059100024A0A4F82AB0608D20853548E0624B466B
:10592000424639462046CDE9006503F0E7FB08B161
:105930000120C6E731E02A463146204603F0A2FDA9
:1059400050B1206C042805D12068006840F4007034
:10595000216808600120B4E7606A00782168086166
:10596000606A401C6062208D401E2085608D401E54
:10597000608520684069C0F3800070B1208D60B1FF
:10598000606A007821680861606A401C6062208D4E
:10599000401E2085608D401E6085208D0028CAD164
:1059A0002A463146204603F019FC00E01CE050B1C5
:1059B000206C042805D12068006840F4007021683C
:1059C000086001207DE72068006840F400702168CD
:1059D0000860202084F83D00002084F83E0000BFCD
:1059E00084F83C0000BF6CE702206AE70200100068
:1059F0000000FFFF10B504461349206888420FD10C
:105A00001248006820F400101049086089151048F9
:105A1000FEF7F6FE4FF400710D48FEF7F1FE12E0BE
:105A20000C49206888420ED10848006820F48000A4
:105A30000649086009150648FEF7E2FE4FF40061CA
:105A40000348FEF7DDFE10BD005400404038024020
:105A5000000402400058004010B586B004461421EE
:105A600001A8FBF78DF836492068884230D100BF85
:105A7000002000903348006840F00200314908607F
:105A80000846006800F00200009000BF00BF4FF41D
:105A90004070019012200290002003900320049097
:105AA0000420059001A92848FEF75EFF00BF0020F2
:105AB000009024481030006840F400102149103153
:105AC00008600846006800F40010009000BF34E051
:105AD0001E492068884230D100BF0020009019483C
