:020000040800F2
:10000000F8B700204D020008B9630008E557000862
:10001000B5630008110E0008159F000800000000DD
:10002000000000000000000000000000D563000890
:10003000AD0F000800000000D1630008D76300087E
:1000400067020008670200086702000867020008EC
:1000500067020008D363000867020008670200080F
:1000600067020008670200086702000867020008CC
:1000700067020008670200086702000867020008BC
:100080006702000867020008A10C00086702000868
:10009000670200086702000867020008670200089C
:1000A00067020008AD6400086702000867020008E4
:1000B000670200086702000867020008670200087C
:1000C000670200086702000867020008670200086C
:1000D000670200086702000867020008670200085C
:1000E000670200086702000867020008670200084C
:1000F00067020008BD640008670200086702000884
:10010000670200086702000867020008670200082B
:10011000670200086702000867020008670200081B
:10012000310E000867020008670200086702000835
:1001300067020008000000000000000067020008DD
:10014000670200086702000867020008C163000830
:1001500067020008670200086702000867020008DB
:1001600067020008670200086702000867020008CB
:10017000670200086702000800000000000000009D
:10018000670200086702000800F002F800F04EF86D
:100190000AA090E8000C82448344AAF10107DA45E2
:1001A00001D100F043F8AFF2090EBAE80F0013F0E6
:1001B000010F18BFFB1A43F001031847ACF700000A
:1001C000CCF70000103A24BF78C878C1FAD852079B
:1001D00024BF30C830C144BF04680C6070470000C1
:1001E0000023002400250026103A28BF78C1FBD840
:1001F000520728BF30C148BF0B607047642900F028
:100200008381782900F0BC81632900F08C847329F4
:1002100000F09184002070471FB50EF023FE9DE88A
:10022000030000F0C9FB1FBD10B510BD00F0C3FCFA
:100230001146FFF7F1FF0DF05FFF00F0E1FC03B4A2
:10024000FFF7F2FF03BC09F08AFE0000094880476F
:1002500009480047FEE7FEE7FEE7FEE7FEE7FEE7A8
:10026000FEE7FEE7FEE7FEE704480549054A064BC0
:10027000704700009964000889010008F8770020A1
:10028000F8B70020F8970020F8970020704770B565
:10029000064600F075FB056806F10B0020F0070428
:1002A000B4429CBF002070BD2B466A68BAB110688A
:1002B000A04210D304F1080188423CBF5068586046
:1002C00007D35168101941601168091B016058601B
:1002D0001460101D70BD13465268002AE7D12146F4
:1002E000284600F055FB0028DED170BD70B50446ED
:1002F000051F00F045FB0068002C14BF446870BD6A
:10030000002C18BFAC423CBF20466468F8D301689B
:100310000A18AA4218BF456003D12A68054611444D
:10032000016028684119A1421CBF6C6070BD616802
:10033000696021680844286070BD53EA020C00F02F
:1003400069802DE9F04B4FF00006002B1FBFB3FA78
:1003500083F503FA05F424FA05F65E4012BF16434E
:10036000B2FA82F502FA05F4C5F120051EBF22FAA1
:1003700005FC44EA0C04203556EA044C4FEA1444C8
:1003800018BF641C4FF000084FF00009904271EB59
:10039000030C39D3002919BFB1FA81F701FA07F626
:1003A000B0FA80F700FA07F6C7F120071EBF20FA5F
:1003B00007FC46EA0C062037B6FBF4FCA7EB050762
:1003C000103F07F01F0BCBF120060CFA0BFB2CFAA9
:1003D00006F644BFB3460026202FA4BF5E464FF06A
:1003E000000B5BEA060C08BF4FF0010B19EB0B0981
:1003F000ABFB027C48EB0608C01B06FB02CC0BFBE8
:1004000003CC71EB0C01C1E70B460246414648465E
:10041000BDE8F08B13B54FF000004FF00001AFF3D3
:100420000080BDE81C4070470FB4044910B503AA12
:10043000029800F085FB10BC5DF814FB9C000020C6
:100440000FB41CB5074B06AA7B446946009005987B
:1004500000F047FB0020694600F056FB1CBC5DF82D
:1004600014FB0000BD06000070B5044685690068F5
:10047000C10601D5302600E02026C00707D070BD98
:10048000D4E9012130469047206A401C20626D1E4D
:10049000F6D570BD70B5044685690078C00707D1F0
:1004A00070BDD4E9012120209047206A401C2062C1
:1004B0006D1EF6D570BD70B50C460546012A05D0F7
:1004C0002878800600D5EA69002302E0012305E0D0
:1004D0005B1C934202D2E05C0028F9D1A869E618BF
:1004E000C01AA861286A184428622846FFF7BCFF92
:1004F00004E0D5E9012114F8010B9047B442F8D388
:100500002846FFF7C7FF70BD2DE9F04106460024DD
:1005100010687529314616A510D0AFF30080002869
:1005200002DA404213A507E031688A0701D512A517
:1005300002E0490704D511A5012401E0AFF30080D2
:1005400000210A2206F1240709E0B0FBF2FCB0FB0F
:10055000F2F302FB1C00303078541846491C002886
:10056000F3D123462A463046BDE8F04100F05ABA9E
:10057000000000002D0000002B0000002000000003
:1005800070B504460D4621461068AFF300802188FF
:10059000090502D50F4A7A4402E00E4A7A440E3227
:1005A000002104F1240305E000F00F060009965D28
:1005B0005E54491C0028F7D120780023000704D599
:1005C000702D02D009B1022311322046BDE87040DF
:1005D00000F028BA46F300002DE9F05F8946044692
:1005E0004FF0000ADFF874B1FB44C0F820A02046A9
:1005F000E1688847002874D0252806D0D4E9012175
:100600009047206A401C2062F1E700265F462046A2
:10061000E16888472028054607DB312D05D2781987
:1006200010F8200C08B10643F1E7B00701D526F019
:100630000406C4F81CA00027C4F818A02A2D09D06D
:10064000284609F085FC38B304EB8708303DC8F82C
:10065000185019E059F8041B204604EB87029161F9
:10066000E1688847012F054618D1E069002820DAA3
:1006700026F020061DE0D8F8180000EB800005EBFE
:1006800040003038C8F818002046E1688847054621
:1006900009F05EFC0028EED1012F0AD02E2D08D1E2
:1006A0002046E16888477F1C0546022F46F0200659
:1006B000C4DBA069002803DA404246F00106A061CD
:1006C000F00701D026F010066C2D0BD0682D09D054
:1006D0004C2D39D06A2D35D0742D35D07A2D33D0AC
:1006E00016E038E0E1682F4620468847B8420546C4
:1006F00009D16C2F26D04FF48060E1680643204674
:100700008847054604E06C2F1AD04FF480700643EA
:100710000DB3A5F14100192802D8203546F4006632
:100720004A462946204626604E46FFF767FD80B1BF
:1007300001280BD0F61D26F0070000F1080956E746
:100740004020E4E78020D8E70020D6E706F104093E
:100750004DE7284652E7206ABDE8F09F1CF30000F1
:10076000401ECAB210F8011F8A4202D00029F9D1F6
:100770000020704740EA0103024630B59B0710D1C4
:100780004FF0013400E008C208C91D1B9D4315EA63
:10079000C41FF8D013F0FF0102F8011B0DD01B0A93
:1007A000F8E711F8013B002B02F8013B05D011F8E6
:1007B000013B002B02F8013BF3D130BD10B5431CC7
:1007C00002E010F8011B71B18107FAD14FF001323C
:1007D00002C88C1A8C4314EAC211F9D0C01A0A0656
:1007E00003D0C01E10BDC01A10BD0A0401D0801E67
:1007F00010BD0902FCD0401E10BD032A40F230801B
:1008000010F0030C00F0158011F8013BBCF1020F51
:10081000624498BF11F801CB00F8013B38BF11F8D2
:10082000013BA2F1040298BF00F801CB38BF00F8E9
:10083000013B11F0030300F02580083AC0F0088066
:1008400051F8043B083A51F804CBA0E80810F5E74A
:10085000121D5CBF51F8043B40F8043BAFF300802D
:10086000D20724BF11F8013B11F801CB48BF11F8A2
:10087000012B24BF00F8013B00F801CB48BF00F872
:10088000012B704710B5203AC0F00B80B1E818502A
:10089000203AA0E81850B1E81850A0E81850BFF46A
:1008A000F5AF5FEA027C24BFB1E81850A0E8185009
:1008B00044BF18C918C0BDE810405FEA827C24BF5D
:1008C00051F8043B40F8043B08BF7047D20728BFEB
:1008D00031F8023B48BF11F8012B28BF20F8023B3A
:1008E00048BF00F8012B70474FF000020429C0F008
:1008F000128010F0030C00F01B80CCF1040CBCF152
:10090000020F18BF00F8012BA8BF20F8022BA1EBA3
:100910000C0100F00DB85FEAC17C24BF00F8012B88
:1009200000F8012B48BF00F8012B70474FF0000280
:1009300000B5134694469646203922BFA0E80C50D5
:10094000A0E80C50B1F12001BFF4F7AF090728BFB0
:10095000A0E80C5048BF0CC05DF804EB890028BF2C
:1009600040F8042B08BF704748BF20F8022B11F055
:10097000804F18BF00F8012B7047704770477047D1
:10098000004870479C770020704770477047704759
:1009900038B504460A4600206946AFF300800028B7
:1009A00008BF38BD02460099204600F0DFF801205C
:1009B00038BD012000F0F8B8F8B5AFF30080054667
:1009C00000200C46102000BF0646A819A0420DD9F1
:1009D000324669460020AFF30080070008BF00F0F0
:1009E000E3F80098A04218BF0546C419FFF7C8FFF6
:1009F00005600746F01D20F007004619284600F064
:100A00000AF8B44208BFF8BDA21B31463868BDE8F9
:100A1000F84000F0ABB800210160C0E90110704758
:100A2000102070472DE9F0470D469946924604463E
:100A300000F124080168880604D5E06921F010015E
:100A4000216000E00120A84201DD471B00E00027F3
:100A5000A1697A1902EB0900081AA0612078C00682
:100A600002D42046FFF700FD002608E0D4E901216A
:100A70001AF806009047206A401C761C20624E45FA
:100A8000F4DB2078C0060AD52046FFF7EDFC06E02F
:100A9000D4E9012130209047206A401C2062381E92
:100AA000A7F10107F4DC07E0D4E9012118F80500FB
:100AB0009047206A401C2062281EA5F10105F3DC46
:100AC0002046FFF7E7FC2078000602D50220BDE8AB
:100AD000F0870120FBE7000001694A1C02610878E9
:100AE000704700B58FB0CDE901310021059105496E
:100AF0007944CDE9031011466846FFF76DFD0FB04C
:100B000000BD0000E5FFFFFF0A6802F8010B0A6064
:100B1000704710B5436913B1AFF3008001E0FFF7F0
:100B2000CAFC012010BD127800F124010A700022D5
:100B30004A700122EDE711684FF0FF32E9E700004B
:100B4000074B70B50D467B44FFF7CBFF04462846A4
:100B500000F026F810B14FF0FF3070BD204670BD98
:100B6000BFCD0000004870479477002003464068DE
:100B70008C46002818BF88423CBF03464068F8D323
:100B800018681844884207D00CF1030020F00700D1
:100B9000001D411A521A0146081D0A60FFF7A6BB44
:100BA000007B00F08000704710B500F037F8BDE81A
:100BB000104000F02EB87546FFF7D4FFAE46050092
:100BC0006946534620F00700854618B020B5FFF768
:100BD0004BFBBDE820404FF000064FF000074FF000
:100BE00000084FF0000B21F00701AC46ACE8C0094B
:100BF000ACE8C009ACE8C009ACE8C0098D46704754
:100C000010B50446AFF300802046BDE81040FFF762
:100C100016BB002801D009F0A2B9704710B5012811
:100C200005D0002103A000F021F8012010BD09A18A
:100C3000F8E7000053494752544D454D3A204F754F
:100C400074206F662068656170206D656D6F7279C4
:100C5000000000003A2048656170206D656D6F727C
:100C60007920636F727275707465640070B50546A3
:100C70000C460A2000E06D1C09F073F935B12878A4
:100C80000028F8D102E0641C09F06BF914B1207857
:100C90000028F8D1BDE870400A2009F062B90000D0
:100CA00010B5024800F08EFC10BD0000E0000020EE
:100CB00055494A6822F440324A604A6843681A43F8
:100CC0004A600268526822F4807203685A600268BF
:100CD0005368026943EA022203685A600268526854
:100CE00022F0407203685A600268526883681A43AF
:100CF00003685A600268926822F4006203689A608E
:100D000002689268C3681A4303689A603F4B826A1C
:100D10009A4218D00268926822F0706203689A6062
:100D200002689268836A1A4303689A60026892684C
:100D300022F0405203689A6002689268C36A1A43BC
:100D400003689A600BE00268926822F070620368A0
:100D50009A600268926822F0405203689A600268C2
:100D6000926822F0020203689A6002689368027E29
:100D700043EA420203689A602022125CA2B1026830
:100D8000526842F4006203685A600268526822F4B2
:100D9000604203685A6002685368426A521E43EA1E
:100DA000423203685A6005E00268526822F4006229
:100DB00003685A600268D26A22F470020368DA6239
:100DC0000268D36A828B521E43EA02520368DA62D7
:100DD0000268926822F4007203689A60026893685D
:100DE00090F8302043EA422203689A6002689268D1
:100DF00022F4806203689A6002689368426943EA59
:100E0000822203689A607047002301400100000FAE
:100E100000BFFEE770B504460D464FF6FF732A4645
:100E20002146024803F0DFFA70BD0000B003002045
:100E300010B5024800F0E8FD10BD000028010020B8
:100E40000146087810381823B0FBF3F20848805C9C
:100E5000C865032A05D908686FF30900001D886575
:100E600003E008686FF309008865886D704700002B
:100E700084EE0008014600208A6A8B69CBB932B142
:100E8000012A0DD0022A03D0032A10D10EE000BFA0
:100E9000CB6A03F08073B3F1807F00D1012007E0BB
:100EA000CB6AB3F1C07F00D1012001E000E000BFB8
:100EB00034E08B69B3F5005F1AD132B1012A07D053
:100EC000022A03D0032A11D10AE000BF01200EE05C
:100ED000CB6A03F08073B3F1807F00D1012006E07C
:100EE000CB6AB3F1C07F00D1012000E000BF15E064
:100EF00032B1012A05D0022A04D0032A0CD103E022
:100F000000BF00BF012008E0CB6A03F08073B3F19B
:100F1000807F00D1012000E000BF00BF704770B5A6
:100F20000446002500BF05E0002104F5617040F88B
:100F300025106D1C102DF7D3002504E0002104F5C9
:100F40008E7041556D1CB5F5007FF7D300202070E1
:100F500060700120A0700020C4F8C4030121217634
:100F60004021A1710021617684F81C13012184F8CD
:100F70001D13002184F81F1384F81E134FF4807191
:100F800004F11C00FFF7B0FC4FF4007104F58E7003
:100F9000FFF7AAFC122104F22630FFF7A5FC3E2140
:100FA00004F54E70FFF7A0FC002070BD704772B6CC
:100FB00000BFFEE730B504460D4600222946204614
:100FC00000F002F830BD0000F0B503460125002412
:100FD0001148407A01281CDA00200F4E767A0E4F15
:100FE000B8553846467A001D40F82630001F467A2C
:100FF000083082553E46707A461C7E72044604F1E3
:10100000300008703A2048702F2088700020C87087
:1010100000252846F0BD0000C01B002010B50022AE
:1010200001B909E0012901D10A0205E0022901D133
:101030000A0201E04FF440720E4B1B6823F4407328
:101040000C4C236023461B681343236023461B6814
:1010500023F0F803236023461B68022444EAC004FB
:101060002343044C236023461B6843F480332360EE
:1010700010BD0000103C02401C48006800F40070E5
:10108000B0B11A48006820F400701849086000BF29
:101090000846006840F4006008600846006820F4D4
:1010A0000060086000BF0846006840F400700860F7
:1010B0000E48006800F48060B0B10C48006820F46D
:1010C00080600A49086000BF0846006840F480500C
:1010D00008600846006820F48050086000BF084699
:1010E000006840F48060086070470000003C0240E7
:1010F00010B5114800F02CF810490860104800F0B5
:1011000027F80E490968401A401C0E490860002063
:101110000D4908600948006888600A480068C8608E
:10112000022008610949084800F018FE08B10120B2
:1011300010BD0020FCE7000000000108C8000020EE
:10114000FBFF0F08CC00002020770020D0000020FB
:10115000014600202C4A914203D2B1F1006F00D326
:1011600050E02A4A914204D2274A914201D30120F9
:1011700048E0274A914204D2244A914201D30220F6
:1011800040E0244A914204D2214A914201D30320F3
:1011900038E0214A914204D21E4A914201D30420F0
:1011A00030E01E4A914204D21B4A914201D30520ED
:1011B00028E01B4A914204D2184A914201D30620EA
:1011C00020E0184A914204D2154A914201D30720E7
:1011D00018E0154A914204D2124A914201D30820E4
:1011E00010E0124A914204D20F4A914201D30920E1
:1011F00008E00F4A914204D20C4A914201D30A20DE
:1012000000E00B207047000000400008008000084C
:1012100000C00008000001080000020800000408E7
:10122000000006080000080800000A0800000C087A
:1012300000000E0870B504460D460848844208D8E0
:101240002A4600232146022000F0E8FD18B10120C3
:1012500070BD0120FCE70020FAE70000FBFF0F084B
:101260000A4A126822F44072084B1A601A46126841
:1012700042F004021A601A4612684FF4803343EABF
:1012800000231A43014B1A6070470000103C0240D3
:10129000074A126822F44072054B1A601A46126817
:1012A0001A601A46126842F001021A600170704713
:1012B000103C024010B50A49096821F44071084CFD
:1012C00021602146096841F4407121602146096886
:1012D00041F0010121600260BFF36F8F436010BDD8
:1012E000103C0240084A126822F44072064B1A6011
:1012F0001A46126842F480721A601A46126842F066
:1013000001021A6001807047103C0240084A1268CE
:1013100022F44072064B1A601A46126842F40072B8
:101320001A601A46126842F001021A6001607047A2
:10133000103C02402348006800F0100040B12248F1
:10134000C06940F010002049C86110201D490860A4
:101350001C48006800F0200040B11B48C06940F004
:1013600008001949C861202016490860154800681E
:1013700000F0400040B11448C06940F00400124938
:10138000C86140200F4908600E48006800F08000E6
:1013900040B10D48C06940F002000B49C86180208F
:1013A000084908600748006800F0020040B106489C
:1013B000C06940F020000449C8610220014908606A
:1013C000704700000C3C0240B00B002070B5044692
:1013D000002500201449C86100F042FF054609E0DD
:1013E000601C38B124B100F03BFF401BA04201D982
:1013F000032070BD0D48006800F480300028EFD154
:101400000A48006800F0010010B101200749086097
:101410000648006800F0F20018B1FFF78BFF0120CA
:10142000E7E70020E5E70000B00B00200C3C02409D
:101430007047000038B502460020009000BF92F8C7
:101440003C00012801D1022038BD012082F83C0077
:1014500000BF0868092816D91068C0680C780A3CD3
:1014600004EB44050724AC40A0431468E0600C780A
:101470000A3C04EB44048868A0401468E4682043F4
:101480001468E06013E0106800690C7804EB440510
:101490000724AC40A043146820610C7804EB44049A
:1014A0008868A04014682469204314682061486853
:1014B000072817D21068406B0C79641E04EB840572
:1014C0001F24AC40A04314686063088880B20C7984
:1014D000641E04EB8404A0401468646B2043146809
:1014E000606331E048680D2817D21068006B0C79F2
:1014F000E41F04EB84051F24AC40A0431468206360
:10150000088880B20C79E41F04EB8404A0401468BE
:10151000246B20431468206316E01068C06A0C79BD
:101520000D3C04EB84051F24AC40A0431468E0622A
:10153000088880B20C790D3C04EB8404A040146848
:10154000E46A20431468E062194B1A4C1068A04208
:1015500006D10868122803D1586840F4800058600A
:10156000144C1068A0421CD10868102802D00868EA
:10157000112816D1586840F40000586008681028F7
:101580000FD10D4800680D4CB0FBF4F000EB80006B
:101590004000009002E00098401E00900098002853
:1015A000F9D100BF002082F83C0000BF00BF4BE72C
:1015B00000230140002001401C00002040420F0099
:1015C000704770472DE9F041044600250026206849
:1015D00007682068D0F8048007F0020508F02006AC
:1015E00095B38EB3206C00F0100018B9206C40F455
:1015F000007020642068806800F04050E8B9207EC8
:10160000D8B92068C06A00F4700020B120688068F2
:1016100000F4806088B92068406820F020002168CC
:101620004860206C20F480702064206C00F48050AE
:1016300018B9206C40F0010020642046FFF7C0FF7D
:101640006FF012002168086007F0040508F08006BA
:10165000E5B3DEB3206C00F0100018B9206C40F444
:10166000005020642068806800F4401038BB206877
:10167000806B00F4401020B12068806800F4806026
:10168000E8B92068406800F48060C0B920688068CC
:1016900000F0405098B9207E88B92068406820F05A
:1016A000800021684860206C20F480502064206C09
:1016B00000F4807018B9206C40F0010020642046CE
:1016C000FFF7B6FE6FF00C002168086007F0010517
:1016D00008F0400685B17EB12068006800F0010086
:1016E00050B1206C40F480302064204600F050F867
:1016F0006FF001002168086007F0200508F080669F
:101700007DB176B1606C40F0020060646FF0200043
:10171000216808602046FFF754FF6FF02000216821
:101720000860BDE8F081000070B5044600250CB9E2
:10173000012070BD1549A06A884200D000BF206C0E
:1017400030B9204600F026F80020606484F83C00A0
:10175000206C00F0100088B9206C20F4885040F014
:10176000020020642046FFF7A3FA00206064206C8A
:1017700020F0020040F00100206400E0012500BFDD
:10178000002084F83C0000BF2846D2E70100000F8B
:101790007047000010B586B00446142101A8FFF779
:1017A000C5F83849206888426AD100BF00200090FF
:1017B0003548006840F48070334908600846006886
:1017C00000F48070009000BF00BF00BF00200090B8
:1017D0002D481438006840F004002B491439086083
:1017E0000846006800F00400009000BF00BF00BF82
:1017F000002000900846006840F00100086008469C
:10180000006800F00100009000BF00BF0E200190B2
:10181000032002900020039001A91C4800F018FC4E
:101820000F200190032002900020039001A9184886
:1018300000F00EFC1748184908600020486000219D
:1018400015488160C1604FF48061016149004161C8
:10185000890081610021C1610162416200F0F4F9F7
:1018600008B1FFF7A4FB00BF0B48A063846300BF6F
:1018700000221146122001F023FD122001F00CFD80
:1018800006B010BD0020014044380240000802406C
:1018900000000240106402402801002010B50446F8
:1018A0000CB9012010BD607920B9002020712046BC
:1018B00000F004F8012060710020F3E708B50A4A3F
:1018C000016891420FD100BF0021009107490968CA
:1018D00041F48051054A11601146096801F48051B4
:1018E000009100BF00BF08BD003002403038024008
:1018F000F0B50346002603B109B90120F0BD00BFD1
:101900005879012801D10220F8E70120587100BF61
:10191000022018711868046802F0100740F6FE7083
:10192000B8408443D1E9000740EA070502F01000FF
:1019300005FA00F00443186804601868006802F0B3
:10194000100CC02707FA0CF7B8431F683860012055
:10195000187100BF0020587100BF3046CEE710B5A7
:1019600004460CB9012010BD207920B90020607117
:10197000204600F009F8022020710020206101209B
:1019800020710020EFE7000010B586B00446142156
:1019900001A8FEF7CBFF1949206888422BD100BF70
:1019A000002000901648006840F00050144908607C
:1019B0000846006800F00050009000BF00BF00BF64
:1019C000002000900E481038006840F001000C49DB
:1019D000103908600846006800F00100009000BF60
:1019E00000BF30200190032002900020039001A945
:1019F000044800F02DFB06B010BD0000007400404C
:101A00004038024000000240F8B504460020009033
:101A10008C4800684FF41651B0FBF1F7A56D2E68A5
:101A200094F85C1008208840304098B12068006825
:101A300000F0040070B12068006820F00400216804
:101A4000086094F85C1008208840A860606D40F041
:101A50000100606594F85C1001208840304068B156
:101A60002068406900F0800040B194F85C100120CB
:101A70008840A860606D40F00200606594F85C10DA
:101A800004208840304068B12068006800F00200FF
:101A900040B194F85C1004208840A860606D40F06C
:101AA0000400606594F85C1010208840304078B3E2
:101AB0002068006800F0080050B394F85C10102013
:101AC0008840A8602068006800F4802080B1206809
:101AD000006800F4002028B9206CC8B12046216CB1
:101AE000884715E0A06C98B12046A16C88470FE0AC
:101AF0002068006800F4807028B92068006820F031
:101B0000080021680860206C10B12046216C8847CD
:101B100094F85C10202088403040002865D0206870
:101B2000006800F0100000285FD094F85C102020BE
:101B30008840A86094F83500052828D120680068FE
:101B400020F01600216808602068406920F08000BD
:101B500021684861206C08B9A06C28B12068006831
:101B600020F008002168086094F85C103F2088404D
:101B7000A860012084F8350000BF002084F83400FC
:101B800000BF206D10B12046216D8847F8BD206848
:101B9000006800F4802080B12068006800F4002014
:101BA00028B9606C10B12046616C88471DE0E06B7D
:101BB000D8B12046E16B884717E02068006800F440
:101BC000807068B92068006820F010002168086003
:101BD000012084F8350000BF002084F8340000BFE5
:101BE000E06B10B12046E16B8847606D38B3606DE3
:101BF00000F00100F0B1052084F83500206800688D
:101C000020F001002168086000BF0098401C00908F
:101C1000B84200D905E02068006800F00100002803
:101C2000F3D100BF012084F8350000BF002084F804
:101C3000340000BFE06C10B12046E16C884700BF63
:101C4000A4E700001C0000202DE9F0410446002517
:101C500000F006FB074614B90120BDE8F081606A78
:101C600000B100BF022084F8350000BF002084F8D6
:101C7000340000BF2068006820F00100216808607F
:101C80000AE000F0EDFAC01B052805D920206065A8
:101C9000032084F83500E0E72068006800F00100C8
:101CA0000028EED12068056821480540D4E90101EB
:101CB0000843E16808432169084361690843A16951
:101CC0000843E1690843216A08430543606A042820
:101CD00003D1D4E90B01084305432068056020685F
:101CE000456925F00705606A0543606A04280DD13F
:101CF000A06A0543E06A48B12046FFF7BBF828B167
:101D000040206065012084F83500A6E72068456121
:101D10002046FFF795F8064694F85C103F2088406F
:101D2000B06000206065012084F83500002094E751
:101D30003F8010F070B5044600F092FA0646254642
:101D4000681C10B104480078054400BF00F088FA10
:101D5000801BA842FAD370BD180000202DE9F04185
:101D600004460E460127002500BF2548007E0128B5
:101D700002D10220BDE8F08101202149087600BF90
:101D80004CF25030FFF722FB0746002F31D1401EA6
:101D90003060206801280FD1207C6168FFF760FA6D
:101DA0004CF25030FFF712FB07461648006820F04F
:101DB0000400144908601AE0A56812E0217C284656
:101DC000FFF72CF94CF25030FFF700FB07460D48A7
:101DD000006820F0FA000B4908600FB1356005E09B
:101DE0006D1CD4E902100844A842E7D800BFFFF7F1
:101DF00043F900BF00200249087600BF3846B9E722
:101E0000B00B0020103C02400348006840F0004046
:101E10000149086000207047103C02402DE9F04164
:101E200006460F4614461D464FF0010800BF1F48E6
:101E3000007E012802D10220BDE8F08101201B496B
:101E4000087600BF4CF25030FFF7C0FA8046B8F178
:101E5000000F23D126B9E1B23846FFF719FA12E094
:101E6000012E04D1A1B23846FFF73CFA0BE0022E56
:101E700004D121463846FFF749FA04E022462B46B2
:101E80003846FFF717FA4CF25030FFF79FFA8046BA
:101E90000748006820F001000549086000BF0020E5
:101EA0000249087600BF4046C6E70000B00B00209C
:101EB000103C024000200949096801F0004159B175
:101EC0000749064A0C3A116006491160034909683E
:101ED00001F0004101B1012070470000103C0240B8
:101EE00023016745AB89EFCDF0B50C4600250022F4
:101EF0000023002194E0012606FA01F504EA050218
:101F0000AA427DD1484E8F0856F827308E07370FEA
:101F10000F26BE403340454EB04201D1002623E09B
:101F2000434EB04201D101261EE0424EB04201D1E3
:101F3000022619E0404EB04201D1032614E03F4E84
:101F4000B04201D104260FE03D4EB04201D105263A
:101F50000AE03C4EB04201D1062605E03A4EB042BE
:101F600001D1072600E008268F073F0FBE409E42A2
:101F700024D1364E36689643344F3E603E1D366857
:101F800096433F1D3E60314E0C36366896432F4FC8
:101F90000C373E603E1F366896433F1F3E608E07FB
:101FA000370F0F2606FA07F31F4E8F0856F82760E3
:101FB0009E431D4F4FEA910C47F82C6006684FEA8C
:101FC000410C032707FA0CF7BE430660CF0800F167
:101FD000200656F827604F074FEAD76C0F2707FAFD
:101FE0000CF7BE434FEAD10C00F1200747F82C60F4
:101FF000C6684FEA410C032707FA0CF7BE4300E01E
:102000000DE0C660466801278F40BE434660866883
:102010004FEA410C032707FA0CF7BE438660491CC0
:102020001029FFF468AFF0BD0838014000000240FD
:102030000004024000080240000C02400010024070
:102040000014024000180240001C0240003C014005
:10205000F8B502460B460025002400200021D6E0FA
:10206000012606FA01F51E6806EA0504AC4274D1A1
:102070001E7906F00306012E04D01E7906F0030631
:10208000022E13D190684F000326BE40B0434F008C
:10209000DE68BE4030439060506801268E40B043F9
:1020A0001E79C6F300168E40304350601E7906F04C
:1020B0000306032E09D0D0684F000326BE40B0436C
:1020C0004F009E68BE403043D0601E7906F0030684
:1020D000022E13D1CF0802F1200656F827004E0732
:1020E000F70E0F26BE40B0434F07FF0E1E69BE40DD
:1020F0003043CF0802F1200646F8270010684F0051
:102100000326BE40B0431E7906F003064F00BE40D2
:10211000304310605E6806F44036002E76D000BF73
:10212000002600963C4E366846F480463A4F3E60A4
:102130003E46366806F48046009600BF00BF374E24
:102140008F0856F827008E07370F0F26BE40B04382
:10215000334EB24202D1002624E057E0314EB24263
:1021600001D101261EE0304EB24201D1022619E013
:102170002E4EB24201D1032614E02D4EB24201D1BF
:1021800004260FE02B4EB24201D105260AE02A4E6A
:10219000B24201D1062605E0284EB24201D10726FF
:1021A00000E008268F073F0FBE4030431B4E8F08CC
:1021B00046F82700224E3068A0435E6806F4801679
:1021C00006B120431E4E3060361D3068A0435E6865
:1021D00006F4001606B12043194E361D3060184E25
:1021E000361F3068A0435E6806F4003606B120430F
:1021F000134E361F3060361F3068A0435E6806F409
:10220000803606B120430E4E083E3060491C10292E
:10221000FFF426AFF8BD0000443802400838014002
:10222000000002400004024000080240000C02408E
:10223000001002400014024000180240001C02403E
:10224000083C0140024613690B400BB1012000E03D
:10225000002070470AB1816101E00B04836170477F
:1022600001480068704700001000002010B50446C7
:10227000D4F8DC0305F098F810BD10B50446D4F886
:10228000DC0305F09CF810BD10B50446206807F08B
:10229000D7F810BD10B50446206807F0D8F810BD77
:1022A00010B502460023C1EB011402F1140000EB4B
:1022B00084008371C1EB011402F1140000EB84006F
:1022C000C371C1EB011402F1140000EB84004374EC
:1022D000C1EB011402F1140000EB84000374002030
:1022E00010BD0246C1EB011302F1140000EB8300A4
:1022F00090F8380070470246C1EB011302F1140058
:1023000000EB8300406A704770B504460D46002616
:1023100000BF94F8D403012801D1022070BD012030
:1023200084F8D40300BF2946206807F0A1F800BF55
:10233000002084F8D40300BF3046EFE72DE9FF5FAB
:1023400004460D4616469B46DDE90E78DDF840A0B2
:1023500000BF94F8D403012803D1022004B0BDE8E3
:10236000F09F012084F8D40300BF0021C5EB0512C3
:1023700004F1140000EB82004171C5EB051104F17A
:10238000140000F821B0C5EB051100EB8100457089
:10239000C5EB051104F1140000EB810080F81280F8
:1023A00006F07F01C5EB051204F1140000EB82007A
:1023B000817029462046FFF773FF06F080008028D1
:1023C00008D10121C5EB051204F1140000EB8200D5
:1023D000C17007E00021C5EB051204F1140000EB09
:1023E0008200C170206807F032F88146B8F1010F11
:1023F00009D1012F07D1B9F1000F04D1BAF1BC0FF7
:1024000001D94FF0BC0AC5EB051104F1140000EB33
:1024100081000771C5EB051204F1140000EB820086
:10242000A0F814A01FFA8AF0CDE9007802905B466C
:1024300032462946206807F0F7F8039000BF0020D5
:1024400084F8D40300BF039888E770472DE9F05F54
:1024500004460D4616461F46DDE90C9BDDE90A8A57
:10246000C5EB051104F1140000EB8100C670C5EB4B
:10247000051104F1140000EB81008774B8F1000F1E
:1024800010D10321C5EB051204F1140000EB82000A
:102490008175C5EB051104F1140000EB810080F893
:1024A00005B007E00221C5EB051204F1140000EBB2
:1024B0008200817537B1012F6FD0022F51D0032FC9
:1024C0006CD187E0B8F1010F4AD136BBB9F1000FEA
:1024D00008D10121C5EB051204F1140000EB8200C4
:1024E00080F82910C5EB051104F1140000EB810000
:1024F00090F8290040B90021C5EB051204F1140041
:1025000000EB820081752BE00221C5EB051204F17E
:10251000140000EB8200817522E0C5EB051104F187
:10252000140000EB81008079012819D1C5EB051159
:1025300004F1140000EB810090F8280040B900215C
:10254000C5EB051204F1140000EB8200817507E071
:102550000221C5EB051204F1140000EB8200817525
:1025600079E0E6B9C5EB051104F1140000EB810038
:1025700090F8290040B90021C5EB051204F11400C0
:1025800000EB8200817524E00221C5EB051204F105
:10259000140000EB820081751BE052E05AE0C5EBAD
:1025A000051104F1140000EB810090F8280040B9F7
:1025B0000021C5EB051204F1140000EB82008175C7
:1025C00007E00221C5EB051204F1140000EB8200C4
:1025D000817540E0D6B9C5EB051104F1140000EB9C
:1025E000810090F8290040B90021C5EB051204F1E3
:1025F000140000EB8200817522E00221C5EB051278
:1026000004F1140000EB8200817519E0C5EB05119F
:1026100004F1140000EB810090F8280040B900217B
:10262000C5EB051204F1140000EB8200817507E090
:102630000221C5EB051204F1140000EB8200817544
:1026400009E00021C5EB051204F1140000EB820043
:10265000817500E000BF00BFC5EB051104F1140057
:1026600000EB8100C0F818A0C5EB051104F11400BF
:1026700000EB8100C0F820900021C5EB051204F1A9
:10268000140000EB820080F83810C5EB051204F14D
:10269000140000EB82004162C5EB051104F1140047
:1026A00000EB810045700021C5EB051204F1140018
:1026B00000EB820080F83910A279C5EB051C04F10B
:1026C000140303EB8C01206807F0A0F8BDE8F09F2D
:1026D0002DE9F04104462768B846206806F0C3FE9D
:1026E00001287AD1206807F009FB08B9BDE8F0811C
:1026F000206807F003FB00F40010B0F5001F03D1C1
:102700004FF4001021684861206807F0F7FA00F4E0
:102710008010B0F5801F03D14FF48010216848610C
:10272000206807F0EBFA00F08060B0F1806F03D111
:102730004FF0806021684861206807F0DFFA00F000
:102740000200022801D121684861206807F0D6FA0A
:1027500000F00050B0F1005F19D14FF00050216837
:102760004861D8F8400400F0010080B910213846D3
:1027700006F03CFE384606F011FE607A022803D1CE
:102780000121206807F086FA2046FFF776FD2068D1
:1027900007F0B4FA00F08070B0F1807F02D12046DB
:1027A00002F01AFF206807F0A9FA00F008000828D4
:1027B00005D1204600F0F6F808202168486120681D
:1027C00007F09CFA00F00070B0F1007F27D120687C
:1027D00007F014F8064600251AE035E005F00F0171
:1027E00001208840304090B108F5A06000EB451012
:1027F000006800F40040B0F5004F04D1E9B2204673
:1028000001F050FE03E0E9B2204602F03BFB6D1CF4
:102810006079A842E2D84FF00070216848612068D2
:1028200007F06CFAC0F3001070B12068806920F0E6
:10283000100021688861204602F029FF2068806925
:1028400040F010002168886100BF4FE738B50446AA
:102850000CB9012038BD256894F8D50328B90020AB
:1028600084F8D403204600F035F8032084F8D5031B
:10287000B5F1A04F01D10021A171206806F038FD0B
:10288000207C8DF8000094E80F0006F0C1FC20B118
:10289000022084F8D5030120DCE70121206807F03D
:1028A00080FA20B1022084F8D5030120D2E7207CF1
:1028B0008DF8000094E80F0007F06CF920B10220B9
:1028C00084F8D5030120C5E7012084F8D503002052
:1028D000C0E7000010B586B00446142101A8FEF739
:1028E00025F82068B0F1A04F42D100BF0020009031
:1028F0002048006840F001001E4908600846006852
:1029000000F00100009000BF00BF4FF4C0500190E4
:102910000220029000200390032004900A200590DA
:1029200001A91548FFF794FB00BF1248001D00687D
:1029300040F080000F49091D086000BF0020009092
:102940000C481430006840F480400A491431086093
:102950000846006800F48040009000BF00BF00BF40
:1029600000221146432000F0ABFC432000F094FC11
:1029700006B010BD303802400000024010B50446D9
:10298000D4F8DC0304F0E2FD10BD10B50446D4F821
:10299000DC0304F0DFFD10BD10B50446206807F02D
:1029A000E2F910BD10B50446D4F8DC0304F076FD5E
:1029B00010BD10B5044600BF94F8D403012801D11E
:1029C000022010BD012084F8D40300BF012120683B
:1029D00006F0B8FC206806F0DAFC00BF002084F89E
:1029E000D40300BF00BFECE710B5044600BF94F865
:1029F000D403012801D1022010BD012084F8D403A2
:102A000000BF206807F001FA00BF002084F8D4035B
:102A100000BF00BFF0E710B504460CB9012010BD9F
:102A2000242084F83D002068006820F0010021681F
:102A30000860204600F02CFB0020206484F83D0054
:102A4000206384F83E0000BF84F83C0000BF00BF54
:102A5000E5E7000070B504460CB9012070BD94F89C
:102A60003D0028B9002084F83C00204600F02CFBF3
:102A7000242084F83D002068006820F001002168CF
:102A800008602068006840F4004021680860206801
:102A9000006820F400402168086000F033FD05461E
:102AA0005C496068884206D85B48854201D20120B3
:102AB00007E0002005E05948854201D2012000E0EE
:102AC0000020012800D1C9E75548B5FBF0F6206881
:102AD000406820F03F003043216848604D496068FD
:102AE000884201D8701C07E04FF4967070434FF491
:102AF0007A71B0FBF1F0401C2168096A21F03F01B6
:102B000008432168086243496068884214D8681EF7
:102B100061684900B0FBF1F0401CC0F30B000428D1
:102B200001D204203DE0681E61684900B0FBF1F06D
:102B3000401CC0F30B0034E0A06838B9681E61681F
:102B400001EB4101B0FBF1F0401C0AE0681E616836
:102B500001EBC10202EB0111B0FBF1F0401C40F4AB
:102B60008040C0F30B0008B901201AE0A06848B902
:102B7000681E616801EB4101B0FBF1F0401CC0F33D
:102B80000B000CE0681E616801EBC10202EB011151
:102B9000B0FBF1F0401CC0F30B0040F4804040F467
:102BA00000402168C9694CF6FF72914308432168CF
:102BB000C861D4E9070108432168096821F0C00110
:102BC000084321680860D4E9031008432168896834
:102BD00048F2FF329143084321688860D4E9050137
:102BE00008432168C96821F0FF0108432168C860D3
:102BF0002068006840F0010021680860002020641F
:102C0000202084F83D000020206384F83E0000BFAF
:102C100024E70000A086010080841E0000093D001A
:102C200040420F002DE9FC5F04460F46904699464E
:102C3000DDE90CAB0E9EFFF713FB054694F83D0053
:102C4000202870D119230122B5492046009502F0B1
:102C50003EFF10B10220BDE8FC9F00BF94F83C008D
:102C6000012801D10220F6E7012084F83C0000BFD2
:102C70002068006800F0010028B92068006840F072
:102C80000100216808602068006820F40060216865
:102C90000860222084F83D00402084F83E00002097
:102CA0002064C4F824A0A4F82AB0608D20859D4833
:102CB000E0624B46424639462046CDE9006502F0C7
:102CC000B3FD08B10120C6E7208D88B900BF002000
:102CD000019020684069019020688069019000BFE0
:102CE00000BF2068006840F400702168086040E080
:102CF000208D012818D12068006820F480602168A8
:102D0000086000BF002001902068406901902068A1
:102D10008069019000BF00BF2068006840F4007027
:102D20002168086025E0F8E0208D022816D120688F
:102D3000006820F48060216808602068006840F422
:102D400000602168086000BF002001902068406991
:102D5000019020688069019000BF0AE000BF002058
:102D6000019020684069019020688069019000BF4F
:102D700000BFC3E0208D03287ED8208D012815D107
:102D80002A463146204602F07EFF08B1012062E764
:102D900020680069616A0870606A401C6062208D6A
:102DA000401E2085608D401E6085A7E0208D022892
:102DB0002AD1334600225C492046009502F087FE66
:102DC00008B1012047E72068006840F400702168DE
:102DD000086020680069616A0870606A401C60626F
:102DE000208D401E2085608D401E60852068006912
:102DF000616A0870606A401C6062208D401E2085F8
:102E0000608D401E608579E03346002246492046A9
:102E1000009502F05CFE08B101201CE72068006804
:102E200020F480602168086020680069616A087089
:102E3000606A401C6062208D401E2085608D401EAF
:102E400060853346002238492046009502F03FFE57
:102E500008B10120FFE62068006840F40070216896
:102E6000086020680069616A0870606A401C6062DE
:102E7000208D401E208500E010E0608D401E6085A2
:102E800020680069616A0870606A401C6062208D79
:102E9000401E2085608D401E60852FE02A46314609
:102EA000204602F0F0FE08B10120D4E62068006957
:102EB000616A0870606A401C6062208D401E208537
:102EC000608D401E608520684069C0F38000A8B115
:102ED000208D032805D12068006820F480602168D7
:102EE000086020680069616A0870606A401C60625E
:102EF000208D401E2085608D401E6085208D00281D
:102F00007FF438AF202084F83D00002084F83E0094
:102F100000BF84F83C0000BF9DE602209BE6000055
:102F2000020010000000FFFF040001002DE9FC5F1B
:102F300004460F4690469946DDE90CAB0E9EFFF71E
:102F40008FF9054694F83D0020287DD119230122F0
:102F50004D492046009502F0BAFD10B10220BDE8AF
:102F6000FC9F00BF94F83C00012801D10220F6E745
:102F7000012084F83C0000BF2068006800F00100D8
:102F800028B92068006840F00100216808602068C6
:102F9000006820F4006021680860212084F83D006A
:102FA000402084F83E0000202064C4F824A0A4F847
:102FB0002AB0608D20853548E0624B46424639464E
:102FC0002046CDE9006502F0DFFC08B10120C6E72C
:102FD00031E02A463146204602F09AFE50B1206C7C
:102FE000042805D12068006840F40070216808605A
:102FF0000120B4E7606A007821680861606A401CBB
:103000006062208D401E2085608D401E6085206896
:103010004069C0F3800070B1208D60B1606A0078B3
:1030200021680861606A401C6062208D401E208516
:10303000608D401E6085208D0028CAD12A46314609
:10304000204602F011FD00E01CE050B1206C042885
:1030500005D12068006840F40070216808600120F4
:103060007DE72068006840F4007021680860202037
:1030700084F83D00002084F83E0000BF84F83C0046
:1030800000BF6CE702206AE7020010000000FFFFAB
:1030900010B504460949206888420ED108480068E6
:1030A00020F480000649086009150648FEF71CFF59
:1030B0004FF400610348FEF717FF10BD00580040B1
:1030C000403802400004024010B586B00446142186
:1030D00001A8FDF72BFC1B492068884230D100BFB6
:1030E000002000901848006840F00200164908606F
:1030F0000846006800F00200009000BF00BF4FF4D7
:103100004060019012200290002003900320049060
:103110000420059001A90D48FEF79AFF00BF00208A
:10312000009009481030006840F4800006491031D2
:1031300008600846006800F48000009000BF00BFEF
:1031400006B010BD00580040303802400004024074
:10315000034800680349097808440149086070473A
:10316000100000201800002010B50D48006840F441
:1031700000700B4908600846006840F480600860F1
:103180000846006840F480700860032000F0D6F81C
:103190000F2000F007F800F02BF8002010BD000011
:1031A000003C024070B504460E4800784FF47A7136
:1031B000B1FBF0F00C490968B1FBF0F5284600F0CE
:1031C000ABFC08B1012070BD102C07D200222146B3
:1031D000501E00F075F80548046001E00120F2E798
:1031E0000020F0E7180000201C0000201400002040
:1031F00008B500BF002000901248006840F48040ED
:10320000104908600846006800F48040009000BF44
:1032100000BF00BF00200090081F006840F08050F1
:10322000091F08600846006800F08050009000BF49
:1032300000BF00221146052000F042F8052000F0F2
:103240002BF808BD4438024010B501460846002856
:1032500007DB00F01F0301229A40034B440943F8A7
:10326000242000BF10BD000080E200E010B5014640
:10327000084600280BDB00F01F0301229A40054B93
:10328000440943F82420BFF34F8FBFF36F8F00BF73
:1032900010BD000080E100E00146084600280DDB7B
:1032A00000BF00BF00F01F0301229A4043099B00AA
:1032B00003F1E023C3F8002100BF00BF00BF704747
:1032C0002DE9F05F80460D461646002706F024FEE5
:1032D000074639462A46334601F00700C0F1070A7F
:1032E000BAF1040F02D94FF0040A01E0C0F1070A55
:1032F000D14600F1040ABAF1070F02D24FF0000ADA
:1033000001E0A0F1030AD4464FF0010A0AFA09FAD3
:10331000AAF1010A0AEA020A0AFA0CFA4FF0010BB2
:103320000BFA0CFBABF1010B0BEA030B4AEA0B04A3
:103330002146404606F0F8FDBDE8F09F00BF00F0D2
:103340000702064B19684FF6FF031940044B0B4365
:1033500043EA0221014B196000BF70470CED00E009
:103360000000FA057047000070B504460D460CB920
:10337000012070BD5848006800F00700A84209D23B
:1033800055490D700846006800F00700A84201D0BA
:103390000120EEE7207800F0020002281DD12078FD
:1033A00000F00400042805D14C48006840F4E050C7
:1033B0004A490860207800F00800082805D14748ED
:1033C000006840F46040454908604448006820F0C7
:1033D000F000A168084341490860207800F001002E
:1033E000A8B36068012807D13C4808380068C0F3DA
:1033F0004040B8B90120BCE76068022802D060688C
:10340000032807D1354808380068C0F3406048B940
:103410000120AEE7314808380068C0F3400008B921
:103420000120A6E72D48006820F0030061680843EA
:103430002A490860FEF714FF064609E0FEF710FF70
:10344000801B41F28831884202D9032091E707E0CE
:103450002248006800F00C006168B0EB810FEDD1EC
:103460001D48006800F00700A84209D91A490D70EC
:103470000846006800F00700A84201D0012078E764
:10348000207800F00400042807D11448006820F4D4
:10349000E050E168084311490860207800F0080016
:1034A000082808D10D48006820F46040216940EAEE
:1034B000C1000A49086000F045F808490968C1F3ED
:1034C0000311074A515CC840064908600648006875
:1034D000FFF768FE00204CE7003C0240083802403D
:1034E0008CEE00081C00002014000020012001497F
:1034F000C8647047000047420148006870470000F8
:103500001C00002000B5FFF7F7FF04490968C1F36C
:103510008221034A515CC84000BD000008380240C7
:103520009CEE000800B5FFF7E7FF04490968C1F306
:103530004231034A515CC84000BD000008380240D7
:103540009CEE00082DE9F047002400250026A14646
:103550002548006800F00C0020B1042805D0082898
:103560003AD105E0DFF8849039E0DFF8849036E066
:103570001D48001F006800F03F041B48001F006842
:1035800000F4800078B11A481749091F0968C1F38F
:103590008811A0FB01700146224600233846FCF743
:1035A000CCFE05460EE011480F49091F0968C1F31A
:1035B0008811A0FB01700146224600233846FCF723
:1035C000BCFE05460848001F0068C0F30140401CCF
:1035D0004600B5FBF6F902E0DFF8109000BF00BF2F
:1035E0004846BDE8F0870000083802400024F40097
:1035F00040787D0110B50648006800F08000802802
:1036000005D1FFF7AFFE80200149891C087010BD6D
:103610000C380240F8B504460CB90120F8BD2078FA
:1036200000F00100002874D0F948006800F00C0098
:1036300004280DD0F648006800F00C00082813D1CB
:10364000F348001F006800F48000B0F5800F0BD134
:10365000EF4808380068C0F34040002859D060683F
:10366000002856D10120D9E700BF6068B0F5803F3F
:1036700008D1E7480838006840F48030E449083948
:1036800008601EE06068B0F5A02F0DD1E048083852
:10369000006840F48020DE49083908600846006868
:1036A00040F4803008600CE0D9480838006820F405
:1036B0008030D749083908600846006820F4802027
:1036C000086000BF606890B1FEF7CAFD054606E0DD
:1036D000FEF7C6FD401B642801D903209EE7CC48B5
:1036E00008380068C0F340400028F1D011E0FEF730
:1036F000B7FD054606E0FEF7B3FD401B642801D97F
:1037000003208BE7C24808380068C0F34040002817
:10371000F1D1207800F0020002285FD1BC48006897
:1037200000F00C0058B1BA48006800F00C000828FE
:103730001CD1B748001F006800F48000B0B9B4483D
:1037400008380068C0F3400020B1E068012801D0CB
:10375000012063E7AE480838006820F0F8002169CE
:1037600040EAC100AA490839086037E0E06800B3C0
:103770000120A8490860FEF773FD054606E0FEF744
:103780006FFD401B022801D9032047E7A0480838F5
:103790000068C0F340000028F1D09D480838006858
:1037A00020F0F800216940EAC10099490839086011
:1037B00014E0002097490860FEF752FD054606E038
:1037C000FEF74EFD401B022801D9032026E7904852
:1037D00008380068C0F340000028F1D1207800F0DC
:1037E000080008282CD16069A8B101208A49086026
:1037F000FEF736FD054606E0FEF732FD401B0228C7
:1038000001D903200AE782486C300068C0F3400009
:103810000028F1D014E000207F490860FEF720FD69
:10382000054606E0FEF71CFD401B022801D90320D7
:10383000F4E677486C300068C0F340000028F1D10E
:10384000207800F00400042870D100277048383038
:10385000006800F0805090B900BF002000906C48D4
:103860003830006840F080506949383108600846B7
:10387000006800F08050009000BF00BF012767483B
:10388000006800F48070B0B96448006840F480704B
:1038900062490860FEF7E4FC054606E0FEF7E0FC3E
:1038A000401B022801D90320B8E65C48006800F4F8
:1038B00080700028F2D000BFA068012808D15448C9
:1038C0006830006840F001005149683108601DE02F
:1038D000A06805280DD14E486830006840F004000B
:1038E0004B49683108600846006840F001000860F4
:1038F0000CE047486830006820F001004449683116
:1039000008600846006820F00400086000BFA06856
:10391000A8B1FEF7A5FC054609E0FEF7A1FC401B97
:1039200041F28831884202D9032077E626E0384800
:1039300068300068C0F340000028EED013E0FEF7C6
:103940008FFC054608E0FEF78BFC401B41F28831F6
:10395000884201D9032061E62D4868300068C0F331
:1039600040000028EFD1012F07D1294838300068E6
:1039700020F0805026493831086000BFA069002837
:1039800045D02348006800F00C0008285DD0A069ED
:10399000022845D100201F490866FEF761FC054654
:1039A00006E0FEF75DFC401B022801D9032035E646
:1039B000174808380068C0F340600028F1D1D4E906
:1039C00007010843616A40EA81110122A06AC2EB43
:1039D000500041EA00412C20005D41EA00600C49A2
:1039E000091F086001200B490866FEF739FC0546EF
:1039F00006E0FEF735FC401B022801D903200DE646
:103A0000034808380068C0F340600028F1D049E05E
:103A10000838024000004742800E474200700040D4
:103A2000002021490866FEF71BFC054606E0FEF76C
:103A300017FC401B022801D90320EFE51B48006852
:103A4000C0F340600028F2D12CE0A069012800D129
:103A5000E4E51648001D0668A069012820D006F498
:103A60008001E06981421BD106F03F01206A81425A
:103A700016D147F6C0703040616AB0EB811F0FD19C
:103A800006F440310122A06AC2EB5000B1EB004FB6
:103A900006D106F070612C20005DB1EB006F01D003
:103AA0000120BBE50020B9E5000047420038024094
:103AB00010B504460CB9012010BD607920B9002072
:103AC0002071204600F00EF8022060712068006826
:103AD00040F0040021680860012060710020A060AF
:103AE00000BFE9E708B50A4A016891420FD100BF5B
:103AF000002100910749096841F04001054A116021
:103B00001146096801F04001009100BF00BF08BDE7
:103B1000000806503438024070B504462546681E39
:103B2000B0F1807F01D301200FE0681E4FF0E0214B
:103B300048610F214FF0FF3006F0F6F900204FF0FA
:103B4000E021886107200861002070BD7047704740
:103B500030B502460B4600BF92F83C00012801D167
:103B6000022030BD012082F83C0000BF022082F814
:103B70003D00106844681068816824F0700418687B
:103B8000044310684460184D1068A8421BD01068A8
:103B9000B0F1804F17D0154D1068A84213D0144DC6
:103BA0001068A8420FD0134D1068A8420BD0124DD8
:103BB0001068A84207D0114D1068A84203D0104DDC
:103BC0001068A84205D121F08001586801431068AF
:103BD0008160012082F83D0000BF002082F83C0097
:103BE00000BF00BFBDE7000000000140000400402E
:103BF00000080040000C004000040140004001406B
:103C00000018004010B504460CB9012010BD94F80E
:103C10003D0028B9002084F83C00204600F026F83A
:103C2000022084F83D00211D206802F04FFC012095
:103C300084F8460000BF84F83E0001213F20015572
:103C4000402001554120015500BF00BF012084F8EC
:103C5000420043200155442001554520015500BF35
:103C6000012084F83D000020D0E7000038B504466C
:103C70002068B0F1804F0FD100BF002000902E4887
:103C8000006840F001002C4908600846006800F018
:103C90000100009000BF4EE02849206888420FD103
:103CA00000BF002000902448006840F02000224916
:103CB00008600846006800F02000009000BF3AE06D
:103CC0001F49206888421AD100BF002000901A487E
:103CD000001D006840F400301749091D08600846BF
:103CE000006800F40030009000BF00BF00221146C1
:103CF0001920FFF7E5FA1920FFF7CEFA1BE011496A
:103D00002068884217D100BF002000900A48006850
:103D100040F48070084908600846006800F480702C
:103D2000009000BF00BF002211462D20FFF7C8FA07
:103D30002D20FFF7B1FA38BD403802400014004092
:103D400000440140002000402DE9F04104460D46AA
:103D5000002700BF94F83C00012802D10220BDE8F2
:103D6000F081012084F83C0000BF022084F83D006F
:103D70002068866826F0770626F47F4620688660ED
:103D80002868502833D00CDC202850D004DC0028D0
:103D90004BD0102851D149E0302849D040284CD18F
:103DA00039E060282DD0702807D0B0F5805F03D0AF
:103DB000B0F5005F41D10DE041E0D5E902136A683A
:103DC000206802F0F7FB2068866846F077062068D6
:103DD000866034E0D5E902136A68206802F0EAFBE5
:103DE0002068806840F480402168886027E0EA68A5
:103DF0006968206802F0CEFC5021206802F0E5FBE3
:103E00001DE0EA686968206802F0D7FC602120683C
:103E100002F0DBFB13E0EA686968206802F0BAFC94
:103E20004021206802F0D1FB09E000BF00BF00BFC5
:103E30002968206802F0C9FB01E0012700BF00BF2C
:103E4000012084F83D0000BF002084F83C0000BF42
:103E5000384684E7704770B504462068C568206816
:103E6000066906F00200022819D105F002000228B6
:103E700015D1401F216808610120207720688069E2
:103E800000F0030018B12046FFF7E4FF05E02046EC
:103E900000F0FEF8204600F030F90020207706F010
:103EA0000400042819D105F00400042815D1C043EA
:103EB00021680861022020772068806900F4407042
:103EC00018B12046FFF7C6FF05E0204600F0E0F8F5
:103ED000204600F012F90020207706F0080008289C
:103EE00019D105F00800082815D1C04321680861E0
:103EF000042020772068C06900F0030018B1204634
:103F0000FFF7A8FF05E0204600F0C2F8204600F0C9
:103F1000F4F80020207706F01000102819D105F0E1
:103F20001000102815D1C0432168086108202077AF
:103F30002068C06900F4407018B12046FFF78AFF7E
:103F400005E0204600F0A4F8204600F0D6F8002056
:103F5000207706F0010048B105F0010030B16FF0A4
:103F6000010021680861204600F0C8F806F08000D2
:103F7000802809D105F08000802805D1C043216840
:103F800008612046FFF7E2FD06F04000402809D115
:103F900005F04000402805D1C04321680861204653
:103FA00000F0ADF806F02000202809D105F020002F
:103FB000202805D1C043216808612046FFF7C7FDCE
:103FC00070BD000010B586B00446142101A8FCF7AE
:103FD000ADFC2068B0F1804F1CD100BF00200090E4
:103FE0000D48006840F002000B4908600846006870
:103FF00000F00200009000BF00BF082001900220E6
:1040000002900020039004900120059001A903482C
:10401000FEF71EF806B010BD303802400004024022
:104020002DE9F04104460E461546002700BF94F8DE
:104030003C00012802D10220BDE8F081012084F873
:104040003C0000BF35B1042D09D0082D0CD00C2D3B
:1040500014D10EE03146206802F0C0FA10E031467B
:10406000206802F0F3FA0BE03146206802F02CFBE6
:1040700006E03146206802F063FB01E0012700BF43
:1040800000BF00BF002084F83C0000BF3846D3E7E3
:10409000704710B504460CB9012010BD94F83D00DE
:1040A00028B9002084F83C00204600F025F80220C2
:1040B00084F83D00211D206802F008FA012084F8F0
:1040C000460000BF84F83E0001213F2001554020FA
:1040D00001554120015500BF00BF012084F8420076
:1040E00043200155442001554520015500BF0120C2
:1040F00084F83D000020D0E7704770477047704754
:1041000010B504460CB9012010BDA06900B100E053
:1041100000BF94F8410028B9002084F840002046F0
:1041200000F02AF8242084F841002068C06820F4B8
:1041300000502168C860204602F08AFB20680069B0
:1041400020F49040216808612068406920F02A002E
:10415000216848612068C06840F400502168C86048
:1041600000206064202084F8410084F84200002090
:10417000606300BFC8E7000010B586B00446142194
:1041800001A8FCF7D3FB6049206888424DD100BFED
:10419000002000905D48006840F480105B49086092
:1041A0000846006800F48010009000BF00BF00BF08
:1041B0000020009055481038006840F00400534932
:1041C000103908600846006800F00400009000BF45
:1041D00000BF00BF002000900846006840F00800C3
:1041E00008600846006800F00800009000BF00BFAB
:1041F0008814019002200290002003900320049074
:104200000820059001A94248FDF722FF04200190F3
:1042100002200290002003900320049008200590C3
:1042200001A93C48FDF714FF6BE03B492068884238
:1042300032D100BF002000903448001D006840F0DB
:1042400010003249091D08600846006800F010009F
:10425000009000BF00BF00BF002000902B48103826
:10426000006840F0010029491039086008460068DC
:1042700000F00100009000BF00BF4FF4C06001904B
:10428000022002900020039004900720059001A9CD
:104290002248FDF7DDFE34E021492068884230D114
:1042A00000BF002000901948006840F480201749A2
:1042B00008600846006800F48020009000BF00BF3E
:1042C00000BF0020009011481038006840F0040042
:1042D0000E49103908600846006800F0040000909C
:1042E00000BF00BF4FF44060019002200290002008
:1042F0000390032004900720059001A90448FDF7CE
:10430000A7FE06B010BD000000500040403802403B
:1043100000080240000C0240001001400000024072
:10432000004800402DE9F84F04460E4617469946CE
:104330004FF0000A94F84200202852D106B117B974
:104340000120BDE8F88F00206064222084F842003C
:1043500000202063FDF784FF8246A785E785A068DB
:10436000B0F5805F04D1206910B90025B04602E0A5
:1043700035464FF000082CE053460022202120460D
:10438000CDF8009002F07AFB20B1202084F84200A2
:104390000320D6E745B920684068C0F30800A8F8B4
:1043A000000008F1020811E0A068B0F5805F03D0BA
:1043B000A06828B9206918B920684068287004E00E
:1043C0002068406800F07F0028706D1CE08D401E62
:1043D000E085E08D0028CFD1202084F84200002025
:1043E000AFE70220ADE72DE9F84F04460E46174629
:1043F00099464FF0000A94F84100202850D106B1A8
:1044000017B90120BDE8F88F00206064212084F8EE
:104410004100FDF725FF8246A784E784A068B0F538
:10442000805F04D1206910B90025B04602E035460E
:104430004FF000081EE05346002280212046CDF8B0
:10444000009002F01BFB20B1202084F841000320E3
:10445000D8E745B9B8F80000C0F308002168486003
:1044600008F1020803E02878216848606D1CE08CA0
:10447000401EE084E08C0028DDD15346002240211C
:104480002046CDF8009002F0F9FA20B1202084F8FF
:1044900041000320B6E7202084F841000020B1E766
:1044A0000220AFE72DE9F04105460C46D5F8008023
:1044B00046462146286805F012FC00F00400042856
:1044C00013D1042106F5A06000EB441081600721A0
:1044D000C4EB041205F1140000EB820080F83910DF
:1044E0002146286804F0C4FF72E02146286805F0E0
:1044F000F6FB00F48070B0F5807F14D14FF480712A
:1045000006F5A06000EB441081600821C4EB0412A2
:1045100005F1140000EB820080F83910214628686C
:1045200004F0A6FF54E02146286805F0D8FB00F00F
:104530000800082813D1082106F5A06000EB4410FC
:1045400081600621C4EB041205F1140000EB820027
:1045500080F839102146286804F08AFF38E02146A7
:10456000286805F0BCFB00F48060B0F5806F14D1C2
:104570004FF4806106F5A06000EB441081600921D2
:10458000C4EB041205F1140000EB820080F839102E
:104590002146286804F06CFF1AE02146286805F0DF
:1045A0009EFB00F08000802812D1802106F5A060DB
:1045B00000EB441081600721C4EB041205F11400E4
:1045C00000EB820080F839102146286804F050FF83
:1045D0002146286805F083FB00F40070B0F5007FE9
:1045E0000BD12146286804F043FF4FF4007106F513
:1045F000A06000EB44108160DCE02146286805F0F3
:104600006EFB00F0010000287ED0202106F5A0609E
:1046100000EB44108160C4EB041105F1140000EBC1
:104620008100C079012813D10021C4EB041205F1E7
:10463000140000EB8200C17106F5A06000EB44108D
:10464000406820F4803106F5A06000EB4410416022
:10465000A879A8B1C4EB041105F1140000EB8100A6
:10466000C16906F5A06000EB44100069C0F31200B8
:10467000091AC4EB041205F1140000EB8200416238
:104680000121C4EB041205F1140000EB820080F854
:1046900039100021C4EB041205F1140000EB820074
:1046A0000163012106F5A06000EB44108160C4EBBA
:1046B000041105F1140000EB8100807C40B1C4EBD3
:1046C000041105F1140000EB8100807C02280AD15E
:1046D0002146286804F0CCFE102106F5A06000EB0E
:1046E0004410816034E0C4EB041105F1140000EBC8
:1046F0008100807C03280AD0C4EB041105F114006A
:1047000000EB8100807C00E068E0012820D106F504
:10471000A06000EB4410006840F0005106F5A06076
:1047200000EB441001600121C4EB041205F11400F8
:1047300000EB820080F83810C4EB041105F114007E
:1047400000EB810090F8382021462846FDF77DFED9
:10475000A87901282FD1C4EB041105F1140000EB56
:104760008100C4EB0412416A05F1140000EB8200E1
:10477000808A0844401EC4EB041205F1140101EBC9
:104780008201898AB0FBF1F000F00100002811D00D
:10479000C4EB041105F1140000EB810090F828002F
:1047A00080F00101C4EB041205F1140000EB82005B
:1047B00080F8281064E3C4EB041105F1140000EB49
:1047C000810090F8280080F00101C4EB041205F18B
:1047D000140000EB820080F8281051E3214628687D
:1047E00005F07DFA00F02000202824D1202106F5D4
:1047F000A06000EB44108160C4EB041105F11400CB
:1048000000EB810080790128D4D10121C4EB04128E
:1048100005F1140000EB8200C1710321C4EB041206
:1048200005F1140000EB820080F839102146286859
:1048300004F01EFE24E32146286805F050FA00F03B
:10484000020002287DD1022106F5A06000EB441091
:104850008160C4EB041105F1140000EB810090F8B5
:104860003900012812D10221C4EB041205F1140011
:1048700000EB820080F839100121C4EB041205F12D
:10488000140000EB820080F8381037E2C4EB04110A
:1048900005F1140000EB810090F83900062812D1D0
:1048A0000221C4EB041205F1140000EB820080F831
:1048B00039100521C4EB041205F1140000EB82004D
:1048C00080F838101AE2C4EB041105F1140000EB73
:1048D000810090F83900072809D0C4EB041105F1D4
:1048E000140000EB810090F8390009287ED10221E4
:1048F000C4EB041205F1140000EB820080F83910BB
:10490000C4EB041105F1140000EB8100006B401CA6
:10491000C4EB041205F1140101EB82010863C4EB3E
:10492000041105F1140000EB8100006B022837D957
:104930000021C4EB041205F1140000EB82000163B6
:1049400000E0E8E1C4EB041105F1140000EB810084
:10495000807901281AD10021C4EB041205F114005A
:1049600000EB8200C171C4EB041205F1140000EBEE
:104970008200017206F5A06000EB4410406820F44C
:10498000803106F5A06000EB441041600421C4EBC7
:10499000041205F1140000EB820080F83810ADE13C
:1049A0000221C4EB041205F1140000EB820080F830
:1049B0003810C4EB041105F1140000EB8100807C79
:1049C00040B1C4EB041105F1140000EB8100807CC0
:1049D0000228E4D106F5A06000EB4410076827F038
:1049E000804747F0004706F5A06000E003E000EBD9
:1049F0004410076082E1C4EB041105F1140000EBE0
:104A0000810090F83900052872D10221C4EB04120C
:104A100005F1140000EB820080F83910C4EB04119A
:104A200005F1140000EB8100C0790128B7D1C4EB77
:104A3000041105F1140000EB8100807C032858D19B
:104A4000C4EB041105F1140000EB8100406B401C25
:104A5000C4EB041205F1140101EB82014863C4EBBD
:104A6000041105F1140000EB8100406B022835D9D8
:104A70000021C4EB041205F1140000EB8200416335
:104A8000C4EB041205F1140000EB8200C171C4EB09
:104A9000041105F1140000EB8100006B032807D21C
:104AA0000121C4EB041205F1140000EB8200017235
:104AB00006F5A06000EB4410406820F4803106F554
:104AC000A06000EB441041600421C4EB041205F126
:104AD000140000EB820080F8381013E00221C4EBD0
:104AE000041205F1140000EB820080F8381009E090
:104AF00028E00221C4EB041205F1140000EB82004F
:104B000080F83810C4EB041105F1140000EB8100AB
:104B1000807C40B1C4EB041105F1140000EB81006E
:104B2000807C02280DD106F5A06000EB44100768D8
:104B300027F0804747F0004706F5A06000EB4410DF
:104B40000760DBE0C4EB041105F1140000EB810009
:104B500090F8390003285ED10221C4EB041205F15C
:104B6000140000EB820080F83910C4EB041105F149
:104B7000140000EB8100C07901284BD10221C4EB65
:104B8000041205F1140000EB820080F8381006F5DD
:104B9000A06000EB4410406840F4803106F5A0604E
:104BA00000EB4410416006F5A06000EB4410C068C3
:104BB00040F0400106F5A06000EB4410C16006F52E
:104BC000A06000EB4410C06820F0200106F5A06052
:104BD00000EB4410C160C4EB041105F1140000EBBC
:104BE0008100807C40B1C4EB041105F1140000EB9E
:104BF0008100807C02280DD106F5A06000EB4410F6
:104C0000076827F0804747F0004706F5A06000EBF3
:104C10004410076072E0C4EB041105F1140000EBCE
:104C2000810090F83900042830D10221C4EB04122D
:104C300005F1140000EB820080F83910C4EB041277
:104C400005F1140000EB820080F83810C4EB041169
:104C500005F1140000EB8100807C40B1C4EB04112D
:104C600005F1140000EB8100807C022846D106F596
:104C7000A06000EB4410076827F0804747F000472A
:104C800006F5A06000EB4410076037E0C4EB0411A8
:104C900005F1140000EB810090F83900082821D1BB
:104CA0000221C4EB041205F1140000EB820080F82D
:104CB0003910C4EB041105F1140000EB8100006B06
:104CC000401CC4EB041205F1140101EB82010863DE
:104CD0000421C4EB041205F1140000EB820080F8FB
:104CE00038100BE0C4EB041105F1140000EB810057
:104CF00090F83900022801D1BDE8F081C4EB04111D
:104D000005F1140000EB810090F838202146284678
:104D1000FDF79BFBB4E02146286804F0E0FF00F0BB
:104D20004000402823D1402106F5A06000EB44104C
:104D300081600521C4EB041205F1140000EB820030
:104D400080F83910C4EB041105F1140000EB810068
:104D5000807938B90021C4EB041205F1140000EB8E
:104D6000820001632146286804F082FB88E0214626
:104D7000286804F0B4FF00F0100010287ED1C4EBC6
:104D8000041105F1140000EB8100807C032815D18B
:104D90000021C4EB041205F1140000EB8200016352
:104DA0000421C4EB041205F1140000EB820080F82A
:104DB00039102146286804F05BFB30E0C4EB041195
:104DC00005F1140000EB8100807C40B1C4EB0411BC
:104DD00005F1140000EB8100807C02281FD1002126
:104DE000C4EB041205F1140000EB82000163A87902
:104DF00040B1C4EB041105F1140000EB8100C0794F
:104E000001280CD10421C4EB041205F1140000EBBD
:104E1000820080F839102146286804F029FBC4EB91
:104E2000041105F1140000EB8100C07901281FD1A5
:104E30000021C4EB041205F1140000EB8200C171E3
:104E400006F5A06000EB4410406820F4803106F5C0
:104E5000A06000EB4410416006F5A06000EB441038
:104E6000C06840F0200106F5A06000EB4410C1606E
:104E7000102106F5A06000EB441000E000E0816026
:104E800000BF39E72DE9F04705460C46D5F80090FC
:104E90004E462146286804F022FF00F00400042852
:104EA00013D1042106F5A06000EB441081600721B6
:104EB000C4EB041205F1140000EB820080F83910F5
:104EC0002146286804F0D4FA84E32146286804F0D7
:104ED00006FF00F02000202865D1202106F5A06003
:104EE00000EB44108160C4EB041105F1140000EBE9
:104EF0008100407901281DD10021C4EB041205F185
:104F0000140000EB820041710221C4EB041205F190
:104F1000140000EB820080F838100321C4EB041267
:104F200005F1140000EB820080F839102146286852
:104F300004F09EFAC4EB041105F1140000EB8100AB
:104F400080790128C0D1C4EB041105F1140000EBF5
:104F50008100C0790028B7D1C4EB041105F1140019
:104F600000EB8100807C012807D00121C4EB0412F2
:104F700005F1140000EB8200C1710321C4EB04129F
:104F800005F1140000EB820080F8391021462868F2
:104F900004F06EFA0021C4EB041205F1140000EBDA
:104FA0008200016316E32146286804F098FE00F4AD
:104FB0000070B0F5007F0BD14FF4007106F5A060D2
:104FC00000EB441081602146286804F051FA01E3A7
:104FD0002146286804F083FE00F00100E8B30021B8
:104FE000C4EB041205F1140000EB820001632146BA
:104FF000286804F074FE00F0400040280DD1012123
:10500000C4EB041205F1140000EB82004171402151
:1050100006F5A06000EB44108160C4EB041105F1BB
:10502000140000EB8100C07998B10021C4EB041298
:1050300005F1140000EB8200C17106F5A06000EBE1
:105040004410406820F4803106F5A06000EB441065
:105050004160012106F5A06000E00FE000EB441084
:105060008160C4EB041205F1140000EB820080F8AB
:1050700039102146286804F0FBF9ABE22146286884
:1050800004F02DFE00F0400040282BD10521C4EB98
:10509000041205F1140000EB820080F83910C4EB13
:1050A000041105F1140000EB8100807938B9012169
:1050B000C4EB041205F1140000EB820041710021E1
:1050C000C4EB041205F1140000EB820001632146D9
:1050D000286804F0CDF9402106F5A06000EB4410EB
:1050E000816077E22146286804F0F9FD00F00800AD
:1050F000082813D1082106F5A06000EB4410816058
:105100000621C4EB041205F1140000EB820080F8C4
:1051100039102146286804F0ABF95BE22146286883
:1051200004F0DDFD00F01000102833D10021C4EBA5
:10513000041205F1140000EB820001630421C4EBAA
:10514000041205F1140000EB820080F83910C4EB62
:10515000041105F1140000EB8100407978B9C4EB2B
:10516000041105F1140000EB8100007938B9012128
:10517000C4EB041205F1140000EB820041712146DA
:10518000286804F075F9102106F5A06000EB4410C2
:1051900081601FE22146286804F0A1FD00F0800034
:1051A000802863D1A87968B90721C4EB041205F1FE
:1051B000140000EB820080F839102146286804F0C2
:1051C00057F94CE0C4EB041105F1140000EB810029
:1051D000006B401CC4EB041205F1140101EB8201C9
:1051E0000863C4EB041105F1140000EB8100006BAF
:1051F00002281DD90021C4EB041205F1140000EBB4
:10520000820001630421C4EB041205F1140000EBD9
:10521000820080F83810C4EB041105F1140000EB93
:10522000810090F8382021462846FDF70EF916E057
:105230000221C4EB041205F1140000EB820080F897
:10524000381006F5A06000EB4410076827F080478F
:1052500047F0004706F5A06000EB4410076080218E
:1052600006F5A06000EB44108160B3E12146286898
:1052700004F035FD00F48060B0F5806F14D1092191
:10528000C4EB041205F1140000EB820080F8391021
:105290002146286804F0ECF84FF4806106F5A06020
:1052A00000EB4410816095E12146286804F017FD69
:1052B00000F0020002287DD1022106F5A06000EB7B
:1052C00044108160C4EB041105F1140000EB81006F
:1052D00090F83900012876D10221C4EB041205F1BF
:1052E000140000EB820080F839100121C4EB041295
:1052F00005F1140000EB820080F83810C4EB0411B3
:1053000005F1140000EB8100807C022808D0C4EB7A
:10531000041105F1140000EB8100807C032851D1B9
:10532000A87988B9C4EB041105F1140000EB8100E1
:1053300090F8290080F00101C4EB041205F114007B
:1053400000EB820080F82910A8790128E7D1C4EB8E
:10535000041105F1140000EB8100006A002831D02F
:10536000C4EB041105F1140000EB8100C4EB04123E
:10537000016A05F1140000EB8200808A0844401E97
:10538000C4EB041205F1140101EB8201898AB0FB20
:10539000F1F808F001000028E1D0C4EB041105F198
:1053A000140000EB810090F8290080F00101C4EBAB
:1053B000041201E00DE106E005F1140000EB8200AB
:1053C00080F82910F8E0C4EB041105F1140000EB9B
:1053D000810090F8390003281BD10221C4EB04128C
:1053E00005F1140000EB820080F83910C4EB0411C1
:1053F00005F1140000EB8100C079012808D10221D9
:10540000C4EB041205F1140000EB820080F83810A0
:10541000D2E0C4EB041105F1140000EB810090F818
:10542000390004282ED10221C4EB041205F1140026
:1054300000EB820080F83910C4EB041205F114006F
:1054400000EB820080F83810C4EB041105F1140061
:1054500000EB8100C079012813D10021C4EB0412B4
:1054600005F1140000EB8200C17106F5A06000EBAD
:105470004410406820F4803106F5A06000EB441031
:10548000416099E0C4EB041105F1140000EB8100C8
:1054900090F83900052811D10221C4EB041205F15E
:1054A000140000EB820080F83910C4EB041205F1FF
:1054B000140000EB820080F838107DE0C4EB04118A
:1054C00005F1140000EB810090F83900062812D194
:1054D0000221C4EB041205F1140000EB820080F8F5
:1054E00039100521C4EB041205F1140000EB820011
:1054F00080F8381060E0C4EB041105F1140000EBF3
:10550000810090F83900072809D0C4EB041105F197
:10551000140000EB810090F8390009284AD10221DB
:10552000C4EB041205F1140000EB820080F839107E
:10553000C4EB041105F1140000EB8100006B401C6A
:10554000C4EB041205F1140101EB82010863C4EB02
:10555000041105F1140000EB8100006B022811D941
:105560000021C4EB041205F1140000EB820001637A
:105570000421C4EB041205F1140000EB820080F852
:10558000381019E00221C4EB041205F1140000EBFD
:10559000820080F8381006F5A06000EB4410076820
:1055A00027F0804747F0004706F5A06000EB441065
:1055B000076001E0BDE8F087C4EB041105F11400B9
:1055C00000EB810090F8382021462846FCF73DFF8B
:1055D00000E0EFE700BFEDE77CB5044626683546FE
:1055E000D5F840040190D5F840040090009820F0D0
:1055F0002E000090019800F0020002280AD10198C4
:1056000000F0010010B12046FCF730FE009840F099
:1056100002000090019800F0080008282AD10098A4
:1056200040F008000090019800F0040004281ED10A
:10563000607A02280FD1019800F4C020B0F5802FC5
:1056400004D10221206804F025FB0CE00121206830
:1056500004F020FB07E0E079012804D14EF6602138
:1056600040F2044041512046FDF78FF902E0204608
:10567000FDF784F9019800F02000202803D100985C
:1056800040F0200000900098C5F840047CBD2DE952
:10569000F84F0546D5F800B05F462868D0F820805E
:1056A00008F00F04C8F343400090C8F30A160098AE
:1056B000022806D003287DD005287CD007287BD17E
:1056C0008CE0002E79D0C4EB041105F1140000EB3E
:1056D0008100806900287DD0C4EB041105F114001D
:1056E00000EB8100406A8119C4EB041205F114003B
:1056F00000EB8200006A814263D8B2B2C4EB041CA2
:1057000005F1140303EB8C039969286804F0FBFA94
:10571000C4EB041105F1140000EB810080698119CC
:10572000C4EB041205F1140000EB82008161C4EBAC
:10573000041105F1140000EB8100406A8119C4EBEB
:10574000041205F1140000EB8200416207F5A0602D
:1057500000EB44100069C0F3C94AC4EB041105F121
:10576000140000EB8100808AB04233D1BAF1000FFF
:1057700030D007F5A06000EB4410D0F8009029F07D
:10578000804949F0004907F5A06000EB4410C0F8DB
:105790000090C4EB041105F1140000EB810090F8B7
:1057A000280080F00101C4EB041205F1140000EBA5
:1057B000820003E011E00EE00EE00BE080F828101C
:1057C00008E00421C4EB041205F1140000EB820090
:1057D00080F8381003E002E000BF00BF00BF00BF48
:1057E000BDE8F88F00BFFEE7014608684069C0F3D6
:1057F0008020B0B16FF480600A68506100200863B7
:10580000202081F83D00002081F83E00086C40F027
:105810000400086400BF002081F83C0000BF0120A4
:1058200070470020FCE700002DE9F84304460F46CE
:1058300015469946DDE908862068006840F48060D6
:10584000216808602068006840F480702168086062
:10585000434600224FF001112046009600F037F930
:1058600060B12068006800F48070B0F5807F02D1DC
:105870004FF4007020640320BDE8F88307F0FE00B9
:1058800021680861334642463E49204600F07EF9D1
:1058900008B10120F0E700BF0020009020684069B7
:1058A000009020688069009000BF00BF32464146EA
:1058B000204600F02DFA50B1206C042805D1206854
:1058C000006840F40070216808600120D4E7B9F155
:1058D000010F03D1E8B22168086117E0C5F3072082
:1058E0002168086132464146204600F011FA50B165
:1058F000206C042805D12068006840F400702168FD
:1059000008600120B8E7E8B22168086132464146E4
:10591000204600F0FDF950B1206C042805D1206824
:10592000006840F40070216808600120A4E7206846
:10593000006840F4807021680860434600224FF000
:1059400001112046009600F0C2F858B120680068A6
:1059500000F48070B0F5807F02D14FF400702064B5
:10596000032089E7F8B240F001002168086133465E
:1059700042460449204600F009F908B101207BE7BE
:10598000002079E7020001002DE9F843044688462B
:1059900015469946DDE908672068006840F4807084
:1059A00021680860334600224FF00111204600971D
:1059B00000F08DF860B12068006800F48070B0F5E8
:1059C000807F02D14FF4007020640320BDE8F8838B
:1059D00008F0FE00216808613B4632462149204616
:1059E00000F0D4F808B10120F0E700BF00200090DB
:1059F00020684069009020688069009000BF00BF67
:105A00003A463146204600F083F950B1206C042814
:105A100005D12068006840F400702168086001200A
:105A2000D4E7B9F1010F03D1E8B22168086117E0AA
:105A3000C5F30720216808613A463146204600F048
:105A400067F950B1206C042805D12068006840F443
:105A50000070216808600120B8E7E8B22168086199
:105A60000020B3E70200010070B504460D4616465B
:105A700025E02046FFF7B8FE08B1012070BD681C84
:105A8000E8B1FCF7EDFB801BA84200D8BDB9206847
:105A90004069C0F3800090B900202063202084F882
:105AA0003D00002084F83E00206C40F0200020647F
:105AB00000BF002084F83C0000BF0120DEE7206822
:105AC0004069C0F380000028D3D00020D6E72DE93C
:105AD000F04104460D4617461E46DDF8188038E0B2
